{
  "contractName": "AaveMigrationWrapAdapter",
  "abi": [
    {
      "inputs": [
        {
          "internalType": "address",
          "name": "_lendToAaveMigrationProxy",
          "type": "address"
        },
        {
          "internalType": "address",
          "name": "_lendToken",
          "type": "address"
        },
        {
          "internalType": "address",
          "name": "_aaveToken",
          "type": "address"
        }
      ],
      "stateMutability": "nonpayable",
      "type": "constructor"
    },
    {
      "inputs": [],
      "name": "aaveToken",
      "outputs": [
        {
          "internalType": "address",
          "name": "",
          "type": "address"
        }
      ],
      "stateMutability": "view",
      "type": "function"
    },
    {
      "inputs": [],
      "name": "lendToAaveMigrationProxy",
      "outputs": [
        {
          "internalType": "address",
          "name": "",
          "type": "address"
        }
      ],
      "stateMutability": "view",
      "type": "function"
    },
    {
      "inputs": [],
      "name": "lendToken",
      "outputs": [
        {
          "internalType": "address",
          "name": "",
          "type": "address"
        }
      ],
      "stateMutability": "view",
      "type": "function"
    },
    {
      "inputs": [
        {
          "internalType": "address",
          "name": "_underlyingToken",
          "type": "address"
        },
        {
          "internalType": "address",
          "name": "_wrappedToken",
          "type": "address"
        },
        {
          "internalType": "uint256",
          "name": "_underlyingUnits",
          "type": "uint256"
        }
      ],
      "name": "getWrapCallData",
      "outputs": [
        {
          "internalType": "address",
          "name": "",
          "type": "address"
        },
        {
          "internalType": "uint256",
          "name": "",
          "type": "uint256"
        },
        {
          "internalType": "bytes",
          "name": "",
          "type": "bytes"
        }
      ],
      "stateMutability": "view",
      "type": "function"
    },
    {
      "inputs": [
        {
          "internalType": "address",
          "name": "",
          "type": "address"
        },
        {
          "internalType": "address",
          "name": "",
          "type": "address"
        },
        {
          "internalType": "uint256",
          "name": "",
          "type": "uint256"
        }
      ],
      "name": "getUnwrapCallData",
      "outputs": [
        {
          "internalType": "address",
          "name": "",
          "type": "address"
        },
        {
          "internalType": "uint256",
          "name": "",
          "type": "uint256"
        },
        {
          "internalType": "bytes",
          "name": "",
          "type": "bytes"
        }
      ],
      "stateMutability": "view",
      "type": "function"
    },
    {
      "inputs": [
        {
          "internalType": "address",
          "name": "",
          "type": "address"
        },
        {
          "internalType": "address",
          "name": "",
          "type": "address"
        }
      ],
      "name": "getSpenderAddress",
      "outputs": [
        {
          "internalType": "address",
          "name": "",
          "type": "address"
        }
      ],
      "stateMutability": "view",
      "type": "function"
    }
  ],
  "bytecode": "0x60e060405234801561001057600080fd5b506040516109083803806109088339818101604052606081101561003357600080fd5b810190808051906020019092919080519060200190929190805190602001909291905050508273ffffffffffffffffffffffffffffffffffffffff1660808173ffffffffffffffffffffffffffffffffffffffff1660601b815250508173ffffffffffffffffffffffffffffffffffffffff1660a08173ffffffffffffffffffffffffffffffffffffffff1660601b815250508073ffffffffffffffffffffffffffffffffffffffff1660c08173ffffffffffffffffffffffffffffffffffffffff1660601b8152505050505060805160601c60a05160601c60c05160601c6107bf61014960003980610451528061055f525080610475528061049e52508061042d52806106b2528061074152506107bf6000f3fe608060405234801561001057600080fd5b50600436106100625760003560e01c806304bd95231461006757806306a3fe59146100b15780631d4b1519146100fb57806377b1aaf814610145578063a22fe98e14610266578063de68a3da14610387575b600080fd5b61006f61042b565b604051808273ffffffffffffffffffffffffffffffffffffffff1673ffffffffffffffffffffffffffffffffffffffff16815260200191505060405180910390f35b6100b961044f565b604051808273ffffffffffffffffffffffffffffffffffffffff1673ffffffffffffffffffffffffffffffffffffffff16815260200191505060405180910390f35b610103610473565b604051808273ffffffffffffffffffffffffffffffffffffffff1673ffffffffffffffffffffffffffffffffffffffff16815260200191505060405180910390f35b6101b16004803603606081101561015b57600080fd5b81019080803573ffffffffffffffffffffffffffffffffffffffff169060200190929190803573ffffffffffffffffffffffffffffffffffffffff16906020019092919080359060200190929190505050610497565b604051808473ffffffffffffffffffffffffffffffffffffffff1673ffffffffffffffffffffffffffffffffffffffff16815260200183815260200180602001828103825283818151815260200191508051906020019080838360005b8381101561022957808201518184015260208101905061020e565b50505050905090810190601f1680156102565780820380516001836020036101000a031916815260200191505b5094505050505060405180910390f35b6102d26004803603606081101561027c57600080fd5b81019080803573ffffffffffffffffffffffffffffffffffffffff169060200190929190803573ffffffffffffffffffffffffffffffffffffffff169060200190929190803590602001909291905050506106e7565b604051808473ffffffffffffffffffffffffffffffffffffffff1673ffffffffffffffffffffffffffffffffffffffff16815260200183815260200180602001828103825283818151815260200191508051906020019080838360005b8381101561034a57808201518184015260208101905061032f565b50505050905090810190601f1680156103775780820380516001836020036101000a031916815260200191505b5094505050505060405180910390f35b6103e96004803603604081101561039d57600080fd5b81019080803573ffffffffffffffffffffffffffffffffffffffff169060200190929190803573ffffffffffffffffffffffffffffffffffffffff16906020019092919050505061073d565b604051808273ffffffffffffffffffffffffffffffffffffffff1673ffffffffffffffffffffffffffffffffffffffff16815260200191505060405180910390f35b7f000000000000000000000000000000000000000000000000000000000000000081565b7f000000000000000000000000000000000000000000000000000000000000000081565b7f000000000000000000000000000000000000000000000000000000000000000081565b60008060607f000000000000000000000000000000000000000000000000000000000000000073ffffffffffffffffffffffffffffffffffffffff168673ffffffffffffffffffffffffffffffffffffffff161461055d576040517f08c379a00000000000000000000000000000000000000000000000000000000081526004018080602001828103825260128152602001807f4d757374206265204c454e4420746f6b656e000000000000000000000000000081525060200191505060405180910390fd5b7f000000000000000000000000000000000000000000000000000000000000000073ffffffffffffffffffffffffffffffffffffffff168573ffffffffffffffffffffffffffffffffffffffff161461061e576040517f08c379a00000000000000000000000000000000000000000000000000000000081526004018080602001828103825260128152602001807f4d757374206265204141564520746f6b656e000000000000000000000000000081525060200191505060405180910390fd5b606084604051602401808281526020019150506040516020818303038152906040527f682356c0000000000000000000000000000000000000000000000000000000007bffffffffffffffffffffffffffffffffffffffffffffffffffffffff19166020820180517bffffffffffffffffffffffffffffffffffffffffffffffffffffffff838183161783525050505090507f00000000000000000000000000000000000000000000000000000000000000006000828191509350935093505093509350939050565b60008060606040517f08c379a00000000000000000000000000000000000000000000000000000000081526004018080602001828103825260218152602001806107696021913960400191505060405180910390fd5b60007f000000000000000000000000000000000000000000000000000000000000000090509291505056fe41415645206d6967726174696f6e2063616e6e6f74206265207265766572736564a2646970667358221220364cd4089b095664b23f4804e866711c911938504d79bcf5d24c5e8473122c7d64736f6c634300060a0033",
  "immutableReferences": {
    "10791": [
      {
        "length": 32,
        "start": 1069
      },
      {
        "length": 32,
        "start": 1714
      },
      {
        "length": 32,
        "start": 1857
      }
    ],
    "10793": [
      {
        "length": 32,
        "start": 1141
      },
      {
        "length": 32,
        "start": 1182
      }
    ],
    "10795": [
      {
        "length": 32,
        "start": 1105
      },
      {
        "length": 32,
        "start": 1375
      }
    ]
  },
  "source": "/*\n    Copyright 2020 Set Labs Inc.\n\n    Licensed under the Apache License, Version 2.0 (the \"License\");\n    you may not use this file except in compliance with the License.\n    You may obtain a copy of the License at\n\n    http://www.apache.org/licenses/LICENSE-2.0\n\n    Unless required by applicable law or agreed to in writing, software\n    distributed under the License is distributed on an \"AS IS\" BASIS,\n    WITHOUT WARRANTIES OR CONDITIONS OF ANY KIND, either express or implied.\n    See the License for the specific language governing permissions and\n    limitations under the License.\n\n    SPDX-License-Identifier: Apache License, Version 2.0\n*/\n\npragma solidity 0.6.10;\n\n/**\n * @title AaveMigrationWrapAdapter\n * @author Set Protocol\n *\n * Wrap adapter for one time token migration that returns data for wrapping LEND into AAVE\n */\ncontract AaveMigrationWrapAdapter {\n\n    /* ============ State Variables ============ */\n\n    // Address of Aave migration contract proxy\n    address public immutable lendToAaveMigrationProxy;\n\n    // Address of LEND token\n    address public immutable lendToken;\n\n    // Address of AAVE token\n    address public immutable aaveToken;\n\n    /* ============ Constructor ============ */\n\n    /**\n     * Set state variables\n     *\n     * @param _lendToAaveMigrationProxy     Address of Aave migration contract proxy\n     * @param _lendToken                    Address of LEND token\n     * @param _aaveToken                    Address of AAVE token\n     */\n    constructor(\n        address _lendToAaveMigrationProxy,\n        address _lendToken,\n        address _aaveToken\n    )\n        public\n    {\n        lendToAaveMigrationProxy = _lendToAaveMigrationProxy;\n        lendToken = _lendToken;\n        aaveToken = _aaveToken;\n    }\n\n    /* ============ External Getter Functions ============ */\n\n    /**\n     * Generates the calldata to migrate LEND to AAVE.\n     *\n     * @param _underlyingToken      Address of the component to be wrapped\n     * @param _wrappedToken         Address of the wrapped component\n     * @param _underlyingUnits      Total quantity of underlying units to wrap\n     *\n     * @return address              Target contract address\n     * @return uint256              Total quantity of underlying units (if underlying is ETH)\n     * @return bytes                Wrap calldata\n     */\n    function getWrapCallData(\n        address _underlyingToken,\n        address _wrappedToken,\n        uint256 _underlyingUnits\n    )\n        external\n        view\n        returns (address, uint256, bytes memory)\n    {\n        require(_underlyingToken == lendToken, \"Must be LEND token\");\n        require(_wrappedToken == aaveToken, \"Must be AAVE token\");\n\n        // migrateFromLEND(uint256 _amount)\n        bytes memory callData = abi.encodeWithSignature(\"migrateFromLEND(uint256)\", _underlyingUnits);\n\n        return (lendToAaveMigrationProxy, 0, callData);\n    }\n\n    /**\n     * Generates the calldata to unwrap a wrapped asset into its underlying. Note: Migration cannot be reversed. This function\n     * will revert.\n     *\n     * @return address              Target contract address\n     * @return uint256              Total quantity of wrapped token units to unwrap. This will always be 0 for unwrapping\n     * @return bytes                Unwrap calldata\n     */\n    function getUnwrapCallData(\n        address /* _underlyingToken */,\n        address /* _wrappedToken */,\n        uint256 /* _wrappedTokenUnits */\n    )\n        external\n        view\n        returns (address, uint256, bytes memory)\n    {\n        revert(\"AAVE migration cannot be reversed\");\n    }\n\n    /**\n     * Returns the address to approve source tokens for wrapping.\n     *\n     * @return address        Address of the contract to approve tokens to\n     */\n    function getSpenderAddress(address /* _underlyingToken */, address /* _wrappedToken */) external view returns(address) {\n        return lendToAaveMigrationProxy;\n    }\n}\n",
  "sourcePath": "/Users/tahadhailey/Documents/top5/top5swap/swap/contracts/protocol/integration/AaveMigrationWrapAdapter.sol",
  "compiler": {
    "name": "solc",
    "version": "0.6.10+commit.00c0fcaf.Emscripten.clang"
  },
  "schemaVersion": "3.2.1",
  "updatedAt": "2021-01-21T08:20:37.689Z",
  "devdoc": {
    "author": "Set Protocol Wrap adapter for one time token migration that returns data for wrapping LEND into AAVE",
    "methods": {
      "constructor": {
        "params": {
          "_aaveToken": "Address of AAVE token",
          "_lendToAaveMigrationProxy": "Address of Aave migration contract proxy",
          "_lendToken": "Address of LEND token"
        }
      },
      "getSpenderAddress(address,address)": {
        "returns": {
          "_0": "address        Address of the contract to approve tokens to"
        }
      },
      "getUnwrapCallData(address,address,uint256)": {
        "returns": {
          "_0": "address              Target contract address",
          "_1": "uint256              Total quantity of wrapped token units to unwrap. This will always be 0 for unwrapping",
          "_2": "bytes                Unwrap calldata"
        }
      },
      "getWrapCallData(address,address,uint256)": {
        "params": {
          "_underlyingToken": "Address of the component to be wrapped",
          "_underlyingUnits": "Total quantity of underlying units to wrap",
          "_wrappedToken": "Address of the wrapped component"
        },
        "returns": {
          "_0": "address              Target contract address",
          "_1": "uint256              Total quantity of underlying units (if underlying is ETH)",
          "_2": "bytes                Wrap calldata"
        }
      }
    },
    "title": "AaveMigrationWrapAdapter"
  },
  "userdoc": {
    "methods": {
      "constructor": "Set state variables",
      "getSpenderAddress(address,address)": {
        "notice": "Returns the address to approve source tokens for wrapping."
      },
      "getUnwrapCallData(address,address,uint256)": {
        "notice": "Generates the calldata to unwrap a wrapped asset into its underlying. Note: Migration cannot be reversed. This function will revert."
      },
      "getWrapCallData(address,address,uint256)": {
        "notice": "Generates the calldata to migrate LEND to AAVE."
      }
    }
  }
}