{
  "contractName": "AaveGovernanceAdapter",
  "abi": [
    {
      "inputs": [
        {
          "internalType": "address",
          "name": "_aaveProtoGovernance",
          "type": "address"
        },
        {
          "internalType": "address",
          "name": "_aaveToken",
          "type": "address"
        }
      ],
      "stateMutability": "nonpayable",
      "type": "constructor"
    },
    {
      "inputs": [],
      "name": "VOTE_AGAINST",
      "outputs": [
        {
          "internalType": "uint256",
          "name": "",
          "type": "uint256"
        }
      ],
      "stateMutability": "view",
      "type": "function"
    },
    {
      "inputs": [],
      "name": "VOTE_FOR",
      "outputs": [
        {
          "internalType": "uint256",
          "name": "",
          "type": "uint256"
        }
      ],
      "stateMutability": "view",
      "type": "function"
    },
    {
      "inputs": [],
      "name": "aaveProtoGovernance",
      "outputs": [
        {
          "internalType": "address",
          "name": "",
          "type": "address"
        }
      ],
      "stateMutability": "view",
      "type": "function"
    },
    {
      "inputs": [],
      "name": "aaveToken",
      "outputs": [
        {
          "internalType": "address",
          "name": "",
          "type": "address"
        }
      ],
      "stateMutability": "view",
      "type": "function"
    },
    {
      "inputs": [
        {
          "internalType": "uint256",
          "name": "_proposalId",
          "type": "uint256"
        },
        {
          "internalType": "bool",
          "name": "_support",
          "type": "bool"
        },
        {
          "internalType": "bytes",
          "name": "_data",
          "type": "bytes"
        }
      ],
      "name": "getVoteCalldata",
      "outputs": [
        {
          "internalType": "address",
          "name": "",
          "type": "address"
        },
        {
          "internalType": "uint256",
          "name": "",
          "type": "uint256"
        },
        {
          "internalType": "bytes",
          "name": "",
          "type": "bytes"
        }
      ],
      "stateMutability": "view",
      "type": "function"
    },
    {
      "inputs": [
        {
          "internalType": "address",
          "name": "",
          "type": "address"
        }
      ],
      "name": "getDelegateCalldata",
      "outputs": [
        {
          "internalType": "address",
          "name": "",
          "type": "address"
        },
        {
          "internalType": "uint256",
          "name": "",
          "type": "uint256"
        },
        {
          "internalType": "bytes",
          "name": "",
          "type": "bytes"
        }
      ],
      "stateMutability": "view",
      "type": "function"
    },
    {
      "inputs": [
        {
          "internalType": "address",
          "name": "",
          "type": "address"
        }
      ],
      "name": "getRegisterCalldata",
      "outputs": [
        {
          "internalType": "address",
          "name": "",
          "type": "address"
        },
        {
          "internalType": "uint256",
          "name": "",
          "type": "uint256"
        },
        {
          "internalType": "bytes",
          "name": "",
          "type": "bytes"
        }
      ],
      "stateMutability": "view",
      "type": "function"
    },
    {
      "inputs": [],
      "name": "getRevokeCalldata",
      "outputs": [
        {
          "internalType": "address",
          "name": "",
          "type": "address"
        },
        {
          "internalType": "uint256",
          "name": "",
          "type": "uint256"
        },
        {
          "internalType": "bytes",
          "name": "",
          "type": "bytes"
        }
      ],
      "stateMutability": "view",
      "type": "function"
    },
    {
      "inputs": [
        {
          "internalType": "bytes",
          "name": "",
          "type": "bytes"
        }
      ],
      "name": "getProposeCalldata",
      "outputs": [
        {
          "internalType": "address",
          "name": "",
          "type": "address"
        },
        {
          "internalType": "uint256",
          "name": "",
          "type": "uint256"
        },
        {
          "internalType": "bytes",
          "name": "",
          "type": "bytes"
        }
      ],
      "stateMutability": "view",
      "type": "function"
    }
  ],
  "bytecode": "0x60c060405234801561001057600080fd5b50604051610c6d380380610c6d833981810160405281019061003291906100bc565b8173ffffffffffffffffffffffffffffffffffffffff1660808173ffffffffffffffffffffffffffffffffffffffff1660601b815250508073ffffffffffffffffffffffffffffffffffffffff1660a08173ffffffffffffffffffffffffffffffffffffffff1660601b815250505050610141565b6000815190506100b68161012a565b92915050565b600080604083850312156100cf57600080fd5b60006100dd858286016100a7565b92505060206100ee858286016100a7565b9150509250929050565b60006101038261010a565b9050919050565b600073ffffffffffffffffffffffffffffffffffffffff82169050919050565b610133816100f8565b811461013e57600080fd5b50565b60805160601c60a05160601c610af96101746000398061021e52806102c25250806101fa528061037c5250610af96000f3fe608060405234801561001057600080fd5b50600436106100935760003560e01c8063a4fed2ce11610066578063a4fed2ce14610124578063d0ae50ae14610156578063d1a75e0d14610188578063d3da53a4146101a6578063d5abba99146101d857610093565b806306344fe11461009857806306a3fe59146100b65780635cb8b5e3146100d45780635dfd327814610106575b600080fd5b6100a06101f8565b6040516100ad9190610809565b60405180910390f35b6100be61021c565b6040516100cb9190610809565b60405180910390f35b6100ee60048036038101906100e99190610572565b610240565b6040516100fd93929190610824565b60405180910390f35b61010e610280565b60405161011b91906108e2565b60405180910390f35b61013e600480360381019061013991906105b3565b610285565b60405161014d93929190610824565b60405180910390f35b610170600480360381019061016b9190610520565b6103b3565b60405161017f93929190610824565b60405180910390f35b6101906103f3565b60405161019d91906108e2565b60405180910390f35b6101c060048036038101906101bb9190610520565b6103f8565b6040516101cf93929190610824565b60405180910390f35b6101e0610438565b6040516101ef93929190610824565b60405180910390f35b7f000000000000000000000000000000000000000000000000000000000000000081565b7f000000000000000000000000000000000000000000000000000000000000000081565b60008060606040517f08c379a0000000000000000000000000000000000000000000000000000000008152600401610277906108a2565b60405180910390fd5b600281565b600080606060008561029857600261029b565b60015b90506000808651146102c057858060200190518101906102bb9190610549565b6102e2565b7f00000000000000000000000000000000000000000000000000000000000000005b905060608883836040516024016102fb939291906108fd565b6040516020818303038152906040527ff50a990d000000000000000000000000000000000000000000000000000000007bffffffffffffffffffffffffffffffffffffffffffffffffffffffff19166020820180517bffffffffffffffffffffffffffffffffffffffffffffffffffffffff838183161783525050505090507f000000000000000000000000000000000000000000000000000000000000000060008281915095509550955050505093509350939050565b60008060606040517f08c379a00000000000000000000000000000000000000000000000000000000081526004016103ea90610862565b60405180910390fd5b600181565b60008060606040517f08c379a000000000000000000000000000000000000000000000000000000000815260040161042f906108c2565b60405180910390fd5b60008060606040517f08c379a000000000000000000000000000000000000000000000000000000000815260040161046f90610882565b60405180910390fd5b60008135905061048781610a67565b92915050565b60008151905061049c81610a7e565b92915050565b6000813590506104b181610a95565b92915050565b600082601f8301126104c857600080fd5b81356104db6104d682610961565b610934565b915080825260208301602083018583830111156104f757600080fd5b610502838284610a14565b50505092915050565b60008135905061051a81610aac565b92915050565b60006020828403121561053257600080fd5b600061054084828501610478565b91505092915050565b60006020828403121561055b57600080fd5b60006105698482850161048d565b91505092915050565b60006020828403121561058457600080fd5b600082013567ffffffffffffffff81111561059e57600080fd5b6105aa848285016104b7565b91505092915050565b6000806000606084860312156105c857600080fd5b60006105d68682870161050b565b93505060206105e7868287016104a2565b925050604084013567ffffffffffffffff81111561060457600080fd5b610610868287016104b7565b9150509250925092565b610623816109ba565b82525050565b60006106348261098d565b61063e8185610998565b935061064e818560208601610a23565b61065781610a56565b840191505092915050565b600061066f602a836109a9565b91507f4e6f2064656c65676174696f6e20617661696c61626c6520696e20414156452060008301527f676f7665726e616e6365000000000000000000000000000000000000000000006020830152604082019050919050565b60006106d56026836109a9565b91507f4e6f207265766f6b6520617661696c61626c6520696e204141564520676f766560008301527f726e616e636500000000000000000000000000000000000000000000000000006020830152604082019050919050565b600061073b603c836109a9565b91507f4372656174696f6e206f66206e65772070726f706f73616c206f6e6c7920617660008301527f61696c61626c6520746f20414156452067656e65736973207465616d000000006020830152604082019050919050565b60006107a16028836109a9565b91507f4e6f20726567697374657220617661696c61626c6520696e204141564520676f60008301527f7665726e616e63650000000000000000000000000000000000000000000000006020830152604082019050919050565b61080381610a0a565b82525050565b600060208201905061081e600083018461061a565b92915050565b6000606082019050610839600083018661061a565b61084660208301856107fa565b81810360408301526108588184610629565b9050949350505050565b6000602082019050818103600083015261087b81610662565b9050919050565b6000602082019050818103600083015261089b816106c8565b9050919050565b600060208201905081810360008301526108bb8161072e565b9050919050565b600060208201905081810360008301526108db81610794565b9050919050565b60006020820190506108f760008301846107fa565b92915050565b600060608201905061091260008301866107fa565b61091f60208301856107fa565b61092c604083018461061a565b949350505050565b6000604051905081810181811067ffffffffffffffff8211171561095757600080fd5b8060405250919050565b600067ffffffffffffffff82111561097857600080fd5b601f19601f8301169050602081019050919050565b600081519050919050565b600082825260208201905092915050565b600082825260208201905092915050565b60006109c5826109ea565b9050919050565b60006109d7826109ea565b9050919050565b60008115159050919050565b600073ffffffffffffffffffffffffffffffffffffffff82169050919050565b6000819050919050565b82818337600083830152505050565b60005b83811015610a41578082015181840152602081019050610a26565b83811115610a50576000848401525b50505050565b6000601f19601f8301169050919050565b610a70816109ba565b8114610a7b57600080fd5b50565b610a87816109cc565b8114610a9257600080fd5b50565b610a9e816109de565b8114610aa957600080fd5b50565b610ab581610a0a565b8114610ac057600080fd5b5056fea264697066735822122002461891f63a290eea2e835af7f70a4eab8957ac550b65b944c0a8592fb63e7764736f6c634300060a0033",
  "immutableReferences": {
    "10645": [
      {
        "length": 32,
        "start": 506
      },
      {
        "length": 32,
        "start": 892
      }
    ],
    "10647": [
      {
        "length": 32,
        "start": 542
      },
      {
        "length": 32,
        "start": 706
      }
    ]
  },
  "source": "/*\n    Copyright 2020 Set Labs Inc.\n\n    Licensed under the Apache License, Version 2.0 (the \"License\");\n    you may not use this file except in compliance with the License.\n    You may obtain a copy of the License at\n\n    http://www.apache.org/licenses/LICENSE-2.0\n\n    Unless required by applicable law or agreed to in writing, software\n    distributed under the License is distributed on an \"AS IS\" BASIS,\n    WITHOUT WARRANTIES OR CONDITIONS OF ANY KIND, either express or implied.\n    See the License for the specific language governing permissions and\n    limitations under the License.\n\n    SPDX-License-Identifier: Apache License, Version 2.0\n*/\n\npragma solidity 0.6.10;\npragma experimental \"ABIEncoderV2\";\n\n\n/**\n * @title AaveGovernanceAdapter\n * @author Set Protocol\n *\n * Governance adapter for Aave governance that returns data for voting\n */\ncontract AaveGovernanceAdapter {\n\n    /* ============ Constants ============ */\n\n    // 1 is a vote for in AAVE\n    uint256 public constant VOTE_FOR = 1;\n\n    // 2 represents a vote against in AAVE\n    uint256 public constant VOTE_AGAINST = 2;\n\n    /* ============ State Variables ============ */\n\n    // Address of Aave proto governance contract\n    address public immutable aaveProtoGovernance;\n\n    // Address of Aave token\n    address public immutable aaveToken;\n\n    /* ============ Constructor ============ */\n\n    /**\n     * Set state variables\n     *\n     * @param _aaveProtoGovernance    Address of AAVE proto governance contract\n     * @param _aaveToken              Address of AAVE token\n     */\n    constructor(address _aaveProtoGovernance, address _aaveToken) public {\n        aaveProtoGovernance = _aaveProtoGovernance;\n        aaveToken = _aaveToken;\n    }\n\n    /* ============ External Getter Functions ============ */\n\n    /**\n     * Generates the calldata to vote on a proposal. If byte data is empty, then vote using AAVE token, otherwise, vote using the asset passed\n     * into the function\n     *\n     * @param _proposalId           ID of the proposal to vote on\n     * @param _support              Boolean indicating whether to support proposal\n     * @param _data                 Byte data containing the asset to vote with\n     *\n     * @return address              Target contract address\n     * @return uint256              Total quantity of ETH (Set to 0)\n     * @return bytes                Propose calldata\n     */\n    function getVoteCalldata(uint256 _proposalId, bool _support, bytes memory _data) external view returns (address, uint256, bytes memory) {\n        uint256 voteValue = _support ? VOTE_FOR : VOTE_AGAINST;\n        address asset = _data.length == 0 ? aaveToken : abi.decode(_data, (address));\n\n        // submitVoteByVoter(uint256 _proposalId, uint256 _vote, IERC20 _asset)\n        bytes memory callData = abi.encodeWithSignature(\"submitVoteByVoter(uint256,uint256,address)\", _proposalId, voteValue, asset);\n\n        return (aaveProtoGovernance, 0, callData);\n    }\n\n    /**\n     * Reverts as AAVE currently does not have a delegation mechanism in governance\n     */\n    function getDelegateCalldata(address /* _delegatee */) external view returns (address, uint256, bytes memory) {\n        revert(\"No delegation available in AAVE governance\");\n    }\n\n    /**\n     * Reverts as AAVE currently does not have a register mechanism in governance\n     */\n    function getRegisterCalldata(address /* _setToken */) external view returns (address, uint256, bytes memory) {\n        revert(\"No register available in AAVE governance\");\n    }\n\n    /**\n     * Reverts as AAVE currently does not have a revoke mechanism in governance\n     */\n    function getRevokeCalldata() external view returns (address, uint256, bytes memory) {\n        revert(\"No revoke available in AAVE governance\");\n    }\n\n    /**\n     * Reverts as creating a proposal is only available to AAVE genesis team\n     */\n    function getProposeCalldata(bytes memory /* _proposalData */) external view returns (address, uint256, bytes memory) {\n        revert(\"Creation of new proposal only available to AAVE genesis team\");\n    }\n}\n",
  "sourcePath": "/Users/tahadhailey/Documents/top5/top5swap/swap/contracts/protocol/integration/AaveGovernanceAdapter.sol",
  "compiler": {
    "name": "solc",
    "version": "0.6.10+commit.00c0fcaf.Emscripten.clang"
  },
  "schemaVersion": "3.2.1",
  "updatedAt": "2021-01-21T08:20:37.687Z",
  "devdoc": {
    "author": "Set Protocol Governance adapter for Aave governance that returns data for voting",
    "methods": {
      "constructor": {
        "params": {
          "_aaveProtoGovernance": "Address of AAVE proto governance contract",
          "_aaveToken": "Address of AAVE token"
        }
      },
      "getVoteCalldata(uint256,bool,bytes)": {
        "params": {
          "_data": "Byte data containing the asset to vote with",
          "_proposalId": "ID of the proposal to vote on",
          "_support": "Boolean indicating whether to support proposal"
        },
        "returns": {
          "_0": "address              Target contract address",
          "_1": "uint256              Total quantity of ETH (Set to 0)",
          "_2": "bytes                Propose calldata"
        }
      }
    },
    "title": "AaveGovernanceAdapter"
  },
  "userdoc": {
    "methods": {
      "constructor": "Set state variables",
      "getDelegateCalldata(address)": {
        "notice": "Reverts as AAVE currently does not have a delegation mechanism in governance"
      },
      "getProposeCalldata(bytes)": {
        "notice": "Reverts as creating a proposal is only available to AAVE genesis team"
      },
      "getRegisterCalldata(address)": {
        "notice": "Reverts as AAVE currently does not have a register mechanism in governance"
      },
      "getRevokeCalldata()": {
        "notice": "Reverts as AAVE currently does not have a revoke mechanism in governance"
      },
      "getVoteCalldata(uint256,bool,bytes)": {
        "notice": "Generates the calldata to vote on a proposal. If byte data is empty, then vote using AAVE token, otherwise, vote using the asset passed into the function"
      }
    }
  }
}