{
  "contractName": "AaveWrapAdapter",
  "abi": [
    {
      "inputs": [
        {
          "internalType": "contract IAaveLendingPool",
          "name": "_aaveLendingPool",
          "type": "address"
        }
      ],
      "stateMutability": "nonpayable",
      "type": "constructor"
    },
    {
      "inputs": [],
      "name": "ETH_TOKEN_ADDRESS",
      "outputs": [
        {
          "internalType": "address",
          "name": "",
          "type": "address"
        }
      ],
      "stateMutability": "view",
      "type": "function"
    },
    {
      "inputs": [],
      "name": "aaveLendingPool",
      "outputs": [
        {
          "internalType": "contract IAaveLendingPool",
          "name": "",
          "type": "address"
        }
      ],
      "stateMutability": "view",
      "type": "function"
    },
    {
      "inputs": [],
      "name": "aaveLendingPoolCore",
      "outputs": [
        {
          "internalType": "contract IAaveLendingPoolCore",
          "name": "",
          "type": "address"
        }
      ],
      "stateMutability": "view",
      "type": "function"
    },
    {
      "inputs": [
        {
          "internalType": "address",
          "name": "_underlyingToken",
          "type": "address"
        },
        {
          "internalType": "address",
          "name": "_wrappedToken",
          "type": "address"
        },
        {
          "internalType": "uint256",
          "name": "_underlyingUnits",
          "type": "uint256"
        }
      ],
      "name": "getWrapCallData",
      "outputs": [
        {
          "internalType": "address",
          "name": "",
          "type": "address"
        },
        {
          "internalType": "uint256",
          "name": "",
          "type": "uint256"
        },
        {
          "internalType": "bytes",
          "name": "",
          "type": "bytes"
        }
      ],
      "stateMutability": "view",
      "type": "function"
    },
    {
      "inputs": [
        {
          "internalType": "address",
          "name": "_underlyingToken",
          "type": "address"
        },
        {
          "internalType": "address",
          "name": "_wrappedToken",
          "type": "address"
        },
        {
          "internalType": "uint256",
          "name": "_wrappedTokenUnits",
          "type": "uint256"
        }
      ],
      "name": "getUnwrapCallData",
      "outputs": [
        {
          "internalType": "address",
          "name": "",
          "type": "address"
        },
        {
          "internalType": "uint256",
          "name": "",
          "type": "uint256"
        },
        {
          "internalType": "bytes",
          "name": "",
          "type": "bytes"
        }
      ],
      "stateMutability": "view",
      "type": "function"
    },
    {
      "inputs": [
        {
          "internalType": "address",
          "name": "",
          "type": "address"
        },
        {
          "internalType": "address",
          "name": "",
          "type": "address"
        }
      ],
      "name": "getSpenderAddress",
      "outputs": [
        {
          "internalType": "address",
          "name": "",
          "type": "address"
        }
      ],
      "stateMutability": "view",
      "type": "function"
    }
  ],
  "bytecode": "0x60c06040523480156200001157600080fd5b5060405162000bca38038062000bca833981810160405281019062000037919062000187565b8073ffffffffffffffffffffffffffffffffffffffff1660808173ffffffffffffffffffffffffffffffffffffffff1660601b815250508073ffffffffffffffffffffffffffffffffffffffff1663f2f4eb266040518163ffffffff1660e01b815260040160206040518083038186803b158015620000b557600080fd5b505afa158015620000ca573d6000803e3d6000fd5b505050506040513d601f19601f82011682018060405250810190620000f091906200015b565b73ffffffffffffffffffffffffffffffffffffffff1660a08173ffffffffffffffffffffffffffffffffffffffff1660601b81525050506200022f565b6000815190506200013e81620001fb565b92915050565b600081519050620001558162000215565b92915050565b6000602082840312156200016e57600080fd5b60006200017e848285016200012d565b91505092915050565b6000602082840312156200019a57600080fd5b6000620001aa8482850162000144565b91505092915050565b6000620001c082620001db565b9050919050565b6000620001d482620001b3565b9050919050565b600073ffffffffffffffffffffffffffffffffffffffff82169050919050565b6200020681620001b3565b81146200021257600080fd5b50565b6200022081620001c7565b81146200022c57600080fd5b50565b60805160601c60a05160601c610962620002686000398061016f528061040152806104515250806102ce528061042a52506109626000f3fe608060405234801561001057600080fd5b50600436106100625760003560e01c80631878d1f1146100675780633ca558331461008557806377b1aaf8146100a3578063a22fe98e146100d5578063de68a3da14610107578063e9d337b814610137575b600080fd5b61006f610155565b60405161007c91906106e9565b60405180910390f35b61008d61016d565b60405161009a9190610779565b60405180910390f35b6100bd60048036038101906100b891906105d6565b610191565b6040516100cc93929190610704565b60405180910390f35b6100ef60048036038101906100ea91906105d6565b610302565b6040516100fe93929190610704565b60405180910390f35b610121600480360381019061011c919061059a565b6103fd565b60405161012e91906106e9565b60405180910390f35b61013f610428565b60405161014c9190610794565b60405180910390f35b73eeeeeeeeeeeeeeeeeeeeeeeeeeeeeeeeeeeeeeee81565b7f000000000000000000000000000000000000000000000000000000000000000081565b600080606085856101a2828261044c565b6101e1576040517f08c379a00000000000000000000000000000000000000000000000000000000081526004016101d8906107af565b60405180910390fd5b600073eeeeeeeeeeeeeeeeeeeeeeeeeeeeeeeeeeeeeeee73ffffffffffffffffffffffffffffffffffffffff168973ffffffffffffffffffffffffffffffffffffffff1614610231576000610233565b865b905060608988600060405160240161024d93929190610742565b6040516020818303038152906040527fd2d0e066000000000000000000000000000000000000000000000000000000007bffffffffffffffffffffffffffffffffffffffffffffffffffffffff19166020820180517bffffffffffffffffffffffffffffffffffffffffffffffffffffffff838183161783525050505090507f000000000000000000000000000000000000000000000000000000000000000082829650965096505050505093509350939050565b60008060608585610313828261044c565b610352576040517f08c379a0000000000000000000000000000000000000000000000000000000008152600401610349906107af565b60405180910390fd5b60608660405160240161036591906107cf565b6040516020818303038152906040527fdb006a75000000000000000000000000000000000000000000000000000000007bffffffffffffffffffffffffffffffffffffffffffffffffffffffff19166020820180517bffffffffffffffffffffffffffffffffffffffffffffffffffffffff838183161783525050505090508760008281915095509550955050505093509350939050565b60007f0000000000000000000000000000000000000000000000000000000000000000905092915050565b7f000000000000000000000000000000000000000000000000000000000000000081565b6000807f000000000000000000000000000000000000000000000000000000000000000073ffffffffffffffffffffffffffffffffffffffff166334b3beee856040518263ffffffff1660e01b81526004016104a891906106e9565b60206040518083038186803b1580156104c057600080fd5b505afa1580156104d4573d6000803e3d6000fd5b505050506040513d601f19601f820116820180604052508101906104f89190610571565b90508273ffffffffffffffffffffffffffffffffffffffff168173ffffffffffffffffffffffffffffffffffffffff161491505092915050565b600081359050610541816108fe565b92915050565b600081519050610556816108fe565b92915050565b60008135905061056b81610915565b92915050565b60006020828403121561058357600080fd5b600061059184828501610547565b91505092915050565b600080604083850312156105ad57600080fd5b60006105bb85828601610532565b92505060206105cc85828601610532565b9150509250929050565b6000806000606084860312156105eb57600080fd5b60006105f986828701610532565b935050602061060a86828701610532565b925050604061061b8682870161055c565b9150509250925092565b61062e81610817565b82525050565b600061063f826107ea565b61064981856107f5565b93506106598185602086016108ba565b610662816108ed565b840191505092915050565b61067681610860565b82525050565b61068581610884565b82525050565b610694816108a8565b82525050565b60006106a7601a83610806565b91507f4d75737420626520612076616c696420746f6b656e20706169720000000000006000830152602082019050919050565b6106e381610849565b82525050565b60006020820190506106fe6000830184610625565b92915050565b60006060820190506107196000830186610625565b61072660208301856106da565b81810360408301526107388184610634565b9050949350505050565b60006060820190506107576000830186610625565b61076460208301856106da565b610771604083018461068b565b949350505050565b600060208201905061078e600083018461066d565b92915050565b60006020820190506107a9600083018461067c565b92915050565b600060208201905081810360008301526107c88161069a565b9050919050565b60006020820190506107e460008301846106da565b92915050565b600081519050919050565b600082825260208201905092915050565b600082825260208201905092915050565b600061082282610829565b9050919050565b600073ffffffffffffffffffffffffffffffffffffffff82169050919050565b6000819050919050565b600060ff82169050919050565b600061086b82610872565b9050919050565b600061087d82610829565b9050919050565b600061088f82610896565b9050919050565b60006108a182610829565b9050919050565b60006108b382610853565b9050919050565b60005b838110156108d85780820151818401526020810190506108bd565b838111156108e7576000848401525b50505050565b6000601f19601f8301169050919050565b61090781610817565b811461091257600080fd5b50565b61091e81610849565b811461092957600080fd5b5056fea264697066735822122058ad39fcb0130664eedf47444712d839ce3a36159c3c28ad5fb64b933fadcaa264736f6c634300060a0033",
  "immutableReferences": {
    "10927": [
      {
        "length": 32,
        "start": 718
      },
      {
        "length": 32,
        "start": 1066
      }
    ],
    "10929": [
      {
        "length": 32,
        "start": 367
      },
      {
        "length": 32,
        "start": 1025
      },
      {
        "length": 32,
        "start": 1105
      }
    ]
  },
  "source": "/*\n    Copyright 2020 Set Labs Inc.\n\n    Licensed under the Apache License, Version 2.0 (the \"License\");\n    you may not use this file except in compliance with the License.\n    You may obtain a copy of the License at\n\n    http://www.apache.org/licenses/LICENSE-2.0\n\n    Unless required by applicable law or agreed to in writing, software\n    distributed under the License is distributed on an \"AS IS\" BASIS,\n    WITHOUT WARRANTIES OR CONDITIONS OF ANY KIND, either express or implied.\n    See the License for the specific language governing permissions and\n    limitations under the License.\n\n    SPDX-License-Identifier: Apache License, Version 2.0\n*/\n\npragma solidity 0.6.10;\npragma experimental \"ABIEncoderV2\";\n\nimport { IAaveLendingPool } from \"../../interfaces/external/IAaveLendingPool.sol\";\nimport { IAaveLendingPoolCore } from \"../../interfaces/external/IAaveLendingPoolCore.sol\";\n\n/**\n * @title AaveWrapAdapter\n * @author Set Protocol\n *\n * Wrap adapter for Aave that returns data for wraps/unwraps of tokens\n */\ncontract AaveWrapAdapter {\n\n    /* ============ Modifiers ============ */\n\n    /**\n     * Throws if the underlying/wrapped token pair is not valid\n     */\n    modifier onlyValidTokenPair(address _underlyingToken, address _wrappedToken) {\n        require(validTokenPair(_underlyingToken, _wrappedToken), \"Must be a valid token pair\");\n        _;\n    }\n\n    /* ============ Constants ============ */\n\n    // Aave Mock address to indicate ETH. ETH is used directly in Aave protocol (instead of an abstraction such as WETH)\n    address public constant ETH_TOKEN_ADDRESS = 0xEeeeeEeeeEeEeeEeEeEeeEEEeeeeEeeeeeeeEEeE;\n\n    /* ============ State Variables ============ */\n\n    // Address of Aave Lending Pool to deposit underlying/reserve tokens\n    IAaveLendingPool public immutable aaveLendingPool;\n\n    // Address of Aave Lending Pool Core to send approvals\n    IAaveLendingPoolCore public immutable aaveLendingPoolCore;\n\n    /* ============ Constructor ============ */\n\n    /**\n     * Set state variables\n     *\n     * @param _aaveLendingPool    Address of Aave Lending Pool to deposit underlying/reserve tokens\n     */\n    constructor(IAaveLendingPool _aaveLendingPool) public {\n        aaveLendingPool = _aaveLendingPool;\n        aaveLendingPoolCore = IAaveLendingPoolCore(_aaveLendingPool.core());\n    }\n\n    /* ============ External Getter Functions ============ */\n\n    /**\n     * Generates the calldata to wrap an underlying asset into a wrappedToken.\n     *\n     * @param _underlyingToken      Address of the component to be wrapped\n     * @param _wrappedToken         Address of the desired wrapped token\n     * @param _underlyingUnits      Total quantity of underlying units to wrap\n     *\n     * @return address              Target contract address\n     * @return uint256              Total quantity of underlying units (if underlying is ETH)\n     * @return bytes                Wrap calldata\n     */\n    function getWrapCallData(\n        address _underlyingToken,\n        address _wrappedToken,\n        uint256 _underlyingUnits\n    )\n        external\n        view\n        onlyValidTokenPair(_underlyingToken, _wrappedToken)\n        returns (address, uint256, bytes memory)\n    {\n        uint256 value = _underlyingToken == ETH_TOKEN_ADDRESS ? _underlyingUnits : 0;\n\n        // deposit(address _reserve, uint256 _amount, uint16 _referralCode)\n        bytes memory callData = abi.encodeWithSignature(\"deposit(address,uint256,uint16)\", _underlyingToken, _underlyingUnits, 0);\n\n        return (address(aaveLendingPool), value, callData);\n    }\n\n    /**\n     * Generates the calldata to unwrap a wrapped asset into its underlying.\n     *\n     * @param _underlyingToken      Address of the underlying asset\n     * @param _wrappedToken         Address of the component to be unwrapped\n     * @param _wrappedTokenUnits    Total quantity of wrapped token units to unwrap\n     *\n     * @return address              Target contract address\n     * @return uint256              Total quantity of wrapped token units to unwrap. This will always be 0 for unwrapping\n     * @return bytes                Unwrap calldata\n     */\n    function getUnwrapCallData(\n        address _underlyingToken,\n        address _wrappedToken,\n        uint256 _wrappedTokenUnits\n    )\n        external\n        view\n        onlyValidTokenPair(_underlyingToken, _wrappedToken)\n        returns (address, uint256, bytes memory)\n    {\n        // redeem(uint256 _amount)\n        bytes memory callData = abi.encodeWithSignature(\"redeem(uint256)\", _wrappedTokenUnits);\n\n        return (address(_wrappedToken), 0, callData);\n    }\n\n    /**\n     * Returns the address to approve source tokens for wrapping. This is the Aave Lending Pool Core\n     *\n     * @return address        Address of the contract to approve tokens to\n     */\n    function getSpenderAddress(address /* _underlyingToken */, address /* _wrappedToken */) external view returns(address) {\n        return address(aaveLendingPoolCore);\n    }\n\n    /* ============ Internal Functions ============ */\n\n    /**\n     * Validates the underlying and wrapped token pair\n     *\n     * @param _underlyingToken     Address of the underlying asset\n     * @param _wrappedToken        Address of the wrapped asset\n     *\n     * @return bool                Whether or not the wrapped token accepts the underlying token as collateral\n     */\n    function validTokenPair(address _underlyingToken, address _wrappedToken) internal view returns(bool) {\n        address aToken = aaveLendingPoolCore.getReserveATokenAddress(_underlyingToken);\n        return aToken == _wrappedToken;\n    }\n}\n",
  "sourcePath": "/Users/tahadhailey/Documents/top5/top5swap/swap/contracts/protocol/integration/AaveWrapAdapter.sol",
  "compiler": {
    "name": "solc",
    "version": "0.6.10+commit.00c0fcaf.Emscripten.clang"
  },
  "schemaVersion": "3.2.1",
  "updatedAt": "2021-01-21T08:20:37.690Z",
  "devdoc": {
    "author": "Set Protocol Wrap adapter for Aave that returns data for wraps/unwraps of tokens",
    "methods": {
      "constructor": {
        "params": {
          "_aaveLendingPool": "Address of Aave Lending Pool to deposit underlying/reserve tokens"
        }
      },
      "getSpenderAddress(address,address)": {
        "returns": {
          "_0": "address        Address of the contract to approve tokens to"
        }
      },
      "getUnwrapCallData(address,address,uint256)": {
        "params": {
          "_underlyingToken": "Address of the underlying asset",
          "_wrappedToken": "Address of the component to be unwrapped",
          "_wrappedTokenUnits": "Total quantity of wrapped token units to unwrap"
        },
        "returns": {
          "_0": "address              Target contract address",
          "_1": "uint256              Total quantity of wrapped token units to unwrap. This will always be 0 for unwrapping",
          "_2": "bytes                Unwrap calldata"
        }
      },
      "getWrapCallData(address,address,uint256)": {
        "params": {
          "_underlyingToken": "Address of the component to be wrapped",
          "_underlyingUnits": "Total quantity of underlying units to wrap",
          "_wrappedToken": "Address of the desired wrapped token"
        },
        "returns": {
          "_0": "address              Target contract address",
          "_1": "uint256              Total quantity of underlying units (if underlying is ETH)",
          "_2": "bytes                Wrap calldata"
        }
      }
    },
    "title": "AaveWrapAdapter"
  },
  "userdoc": {
    "methods": {
      "constructor": "Set state variables",
      "getSpenderAddress(address,address)": {
        "notice": "Returns the address to approve source tokens for wrapping. This is the Aave Lending Pool Core"
      },
      "getUnwrapCallData(address,address,uint256)": {
        "notice": "Generates the calldata to unwrap a wrapped asset into its underlying."
      },
      "getWrapCallData(address,address,uint256)": {
        "notice": "Generates the calldata to wrap an underlying asset into a wrappedToken."
      }
    }
  }
}