{
  "contractName": "AddressArrayUtilsMock",
  "abi": [
    {
      "inputs": [
        {
          "internalType": "address[]",
          "name": "A",
          "type": "address[]"
        },
        {
          "internalType": "address",
          "name": "a",
          "type": "address"
        }
      ],
      "name": "testIndexOf",
      "outputs": [
        {
          "internalType": "uint256",
          "name": "",
          "type": "uint256"
        },
        {
          "internalType": "bool",
          "name": "",
          "type": "bool"
        }
      ],
      "stateMutability": "pure",
      "type": "function"
    },
    {
      "inputs": [
        {
          "internalType": "address[]",
          "name": "A",
          "type": "address[]"
        },
        {
          "internalType": "address",
          "name": "a",
          "type": "address"
        }
      ],
      "name": "testContains",
      "outputs": [
        {
          "internalType": "bool",
          "name": "",
          "type": "bool"
        }
      ],
      "stateMutability": "pure",
      "type": "function"
    },
    {
      "inputs": [
        {
          "internalType": "address[]",
          "name": "A",
          "type": "address[]"
        }
      ],
      "name": "testHasDuplicate",
      "outputs": [
        {
          "internalType": "bool",
          "name": "",
          "type": "bool"
        }
      ],
      "stateMutability": "pure",
      "type": "function"
    },
    {
      "inputs": [
        {
          "internalType": "address[]",
          "name": "A",
          "type": "address[]"
        },
        {
          "internalType": "address",
          "name": "a",
          "type": "address"
        }
      ],
      "name": "testRemove",
      "outputs": [
        {
          "internalType": "address[]",
          "name": "",
          "type": "address[]"
        }
      ],
      "stateMutability": "pure",
      "type": "function"
    },
    {
      "inputs": [
        {
          "internalType": "address[]",
          "name": "A",
          "type": "address[]"
        },
        {
          "internalType": "uint256",
          "name": "index",
          "type": "uint256"
        }
      ],
      "name": "testPop",
      "outputs": [
        {
          "internalType": "address[]",
          "name": "",
          "type": "address[]"
        },
        {
          "internalType": "address",
          "name": "",
          "type": "address"
        }
      ],
      "stateMutability": "pure",
      "type": "function"
    }
  ],
  "bytecode": "0x608060405234801561001057600080fd5b50610b01806100206000396000f3fe608060405234801561001057600080fd5b50600436106100575760003560e01c8063115cde931461005c5780631bdca2ea1461008c57806336acdf1c146100bc57806341414def146100ed578063e14155241461011d575b600080fd5b61007660048036038101906100719190610665565b61014e565b6040516100839190610912565b60405180910390f35b6100a660048036038101906100a191906106a6565b610160565b6040516100b39190610912565b60405180910390f35b6100d660048036038101906100d191906106a6565b61017d565b6040516100e492919061098d565b60405180910390f35b610107600480360381019061010291906106a6565b61019e565b60405161011491906108c0565b60405180910390f35b610137600480360381019061013291906106fa565b6101bb565b6040516101459291906108e2565b60405180910390f35b6000610159826101dd565b9050919050565b600061017582846102d890919063ffffffff16565b905092915050565b60008061019383856102f290919063ffffffff16565b915091509250929050565b60606101b3828461039c90919063ffffffff16565b905092915050565b606060006101d2838561040a90919063ffffffff16565b915091509250929050565b600080825111610222576040517f08c379a00000000000000000000000000000000000000000000000000000000081526004016102199061096d565b60405180910390fd5b60008090505b60018351038110156102cd57600083828151811061024257fe5b6020026020010151905060006001830190505b84518110156102be5784818151811061026a57fe5b602002602001015173ffffffffffffffffffffffffffffffffffffffff168273ffffffffffffffffffffffffffffffffffffffff1614156102b157600193505050506102d3565b8080600101915050610255565b50508080600101915050610228565b50600090505b919050565b6000806102e584846102f2565b9150508091505092915050565b60008060008451905060008090505b8181101561036b578473ffffffffffffffffffffffffffffffffffffffff1686828151811061032c57fe5b602002602001015173ffffffffffffffffffffffffffffffffffffffff16141561035e57806001935093505050610395565b8080600101915050610301565b507fffffffffffffffffffffffffffffffffffffffffffffffffffffffffffffffff600092509250505b9250929050565b60606000806103ab85856102f2565b91509150806103ef576040517f08c379a00000000000000000000000000000000000000000000000000000000081526004016103e69061092d565b60405180910390fd5b60606103fb868461040a565b50905080935050505092915050565b60606000808451905084518410610456576040517f08c379a000000000000000000000000000000000000000000000000000000000815260040161044d9061094d565b60405180910390fd5b60606001820367ffffffffffffffff8111801561047257600080fd5b506040519080825280602002602001820160405280156104a15781602001602082028036833780820191505090505b50905060008090505b85811015610519578681815181106104be57fe5b60200260200101518282815181106104d257fe5b602002602001019073ffffffffffffffffffffffffffffffffffffffff16908173ffffffffffffffffffffffffffffffffffffffff168152505080806001019150506104aa565b5060006001860190505b828110156105955786818151811061053757fe5b602002602001015182600183038151811061054e57fe5b602002602001019073ffffffffffffffffffffffffffffffffffffffff16908173ffffffffffffffffffffffffffffffffffffffff16815250508080600101915050610523565b50808686815181106105a357fe5b60200260200101519350935050509250929050565b6000813590506105c781610a9d565b92915050565b600082601f8301126105de57600080fd5b81356105f16105ec826109e3565b6109b6565b9150818183526020840193506020810190508385602084028201111561061657600080fd5b60005b83811015610646578161062c88826105b8565b845260208401935060208301925050600181019050610619565b5050505092915050565b60008135905061065f81610ab4565b92915050565b60006020828403121561067757600080fd5b600082013567ffffffffffffffff81111561069157600080fd5b61069d848285016105cd565b91505092915050565b600080604083850312156106b957600080fd5b600083013567ffffffffffffffff8111156106d357600080fd5b6106df858286016105cd565b92505060206106f0858286016105b8565b9150509250929050565b6000806040838503121561070d57600080fd5b600083013567ffffffffffffffff81111561072757600080fd5b610733858286016105cd565b925050602061074485828601610650565b9150509250929050565b600061075a8383610766565b60208301905092915050565b61076f81610a55565b82525050565b61077e81610a55565b82525050565b600061078f82610a1b565b6107998185610a33565b93506107a483610a0b565b8060005b838110156107d55781516107bc888261074e565b97506107c783610a26565b9250506001810190506107a8565b5085935050505092915050565b6107eb81610a67565b82525050565b60006107fe601583610a44565b91507f41646472657373206e6f7420696e2061727261792e00000000000000000000006000830152602082019050919050565b600061083e601883610a44565b91507f496e646578206d757374206265203c2041206c656e67746800000000000000006000830152602082019050919050565b600061087e600a83610a44565b91507f4120697320656d707479000000000000000000000000000000000000000000006000830152602082019050919050565b6108ba81610a93565b82525050565b600060208201905081810360008301526108da8184610784565b905092915050565b600060408201905081810360008301526108fc8185610784565b905061090b6020830184610775565b9392505050565b600060208201905061092760008301846107e2565b92915050565b60006020820190508181036000830152610946816107f1565b9050919050565b6000602082019050818103600083015261096681610831565b9050919050565b6000602082019050818103600083015261098681610871565b9050919050565b60006040820190506109a260008301856108b1565b6109af60208301846107e2565b9392505050565b6000604051905081810181811067ffffffffffffffff821117156109d957600080fd5b8060405250919050565b600067ffffffffffffffff8211156109fa57600080fd5b602082029050602081019050919050565b6000819050602082019050919050565b600081519050919050565b6000602082019050919050565b600082825260208201905092915050565b600082825260208201905092915050565b6000610a6082610a73565b9050919050565b60008115159050919050565b600073ffffffffffffffffffffffffffffffffffffffff82169050919050565b6000819050919050565b610aa681610a55565b8114610ab157600080fd5b50565b610abd81610a93565b8114610ac857600080fd5b5056fea264697066735822122034cb696154733b1d320fed50670799b92ac39c46c57fdfe41078da624cf1b40664736f6c634300060a0033",
  "immutableReferences": {},
  "source": "/*\n    Copyright 2020 Set Labs Inc.\n\n    Licensed under the Apache License, Version 2.0 (the \"License\");\n    you may not use this file except in compliance with the License.\n    You may obtain a copy of the License at\n\n    http://www.apache.org/licenses/LICENSE-2.0\n\n    Unless required by applicable law or agreed to in writing, software\n    distributed under the License is distributed on an \"AS IS\" BASIS,\n    WITHOUT WARRANTIES OR CONDITIONS OF ANY KIND, either express or implied.\n    See the License for the specific language governing permissions and\n    limitations under the License.\n\n    SPDX-License-Identifier: Apache License, Version 2.0\n*/\n\npragma solidity 0.6.10;\npragma experimental \"ABIEncoderV2\";\n\nimport { AddressArrayUtils } from \"../lib/AddressArrayUtils.sol\";\n\n\ncontract AddressArrayUtilsMock {\n    using AddressArrayUtils for address[];\n\n    function testIndexOf(address[] memory A, address a) external pure returns (uint256, bool) {\n        return A.indexOf(a);\n    }\n\n    function testContains(address[] memory A, address a) external pure returns (bool) {\n        return A.contains(a);\n    }\n\n    function testHasDuplicate(address[] memory A) external pure returns (bool) {\n        return A.hasDuplicate();\n    }\n\n    function testRemove(address[] memory A, address a) external pure returns (address[] memory) {\n        return A.remove(a);\n    }\n\n    function testPop(address[] memory A, uint256 index) external pure returns (address[] memory, address) {\n        return A.pop(index);\n    }\n}",
  "sourcePath": "/Users/tahadhailey/Documents/top5/top5swap/swap/contracts/mocks/AddressArrayUtilsMock.sol",
  "compiler": {
    "name": "solc",
    "version": "0.6.10+commit.00c0fcaf.Emscripten.clang"
  },
  "schemaVersion": "3.2.1",
  "updatedAt": "2021-01-21T08:20:37.578Z",
  "devdoc": {
    "methods": {}
  },
  "userdoc": {
    "methods": {}
  }
}