{
  "contractName": "AirdropModule",
  "abi": [
    {
      "inputs": [
        {
          "internalType": "contract IController",
          "name": "_controller",
          "type": "address"
        }
      ],
      "stateMutability": "nonpayable",
      "type": "constructor"
    },
    {
      "anonymous": false,
      "inputs": [
        {
          "indexed": true,
          "internalType": "contract ISetToken",
          "name": "_setToken",
          "type": "address"
        },
        {
          "indexed": false,
          "internalType": "address",
          "name": "_absorbedToken",
          "type": "address"
        },
        {
          "indexed": false,
          "internalType": "uint256",
          "name": "_absorbedQuantity",
          "type": "uint256"
        },
        {
          "indexed": false,
          "internalType": "uint256",
          "name": "_managerFee",
          "type": "uint256"
        },
        {
          "indexed": false,
          "internalType": "uint256",
          "name": "_protocolFee",
          "type": "uint256"
        }
      ],
      "name": "ComponentAbsorbed",
      "type": "event"
    },
    {
      "inputs": [],
      "name": "AIRDROP_MODULE_PROTOCOL_FEE_INDEX",
      "outputs": [
        {
          "internalType": "uint256",
          "name": "",
          "type": "uint256"
        }
      ],
      "stateMutability": "view",
      "type": "function"
    },
    {
      "inputs": [
        {
          "internalType": "contract ISetToken",
          "name": "",
          "type": "address"
        }
      ],
      "name": "airdropSettings",
      "outputs": [
        {
          "internalType": "address",
          "name": "feeRecipient",
          "type": "address"
        },
        {
          "internalType": "uint256",
          "name": "airdropFee",
          "type": "uint256"
        },
        {
          "internalType": "bool",
          "name": "anyoneAbsorb",
          "type": "bool"
        }
      ],
      "stateMutability": "view",
      "type": "function"
    },
    {
      "inputs": [],
      "name": "controller",
      "outputs": [
        {
          "internalType": "contract IController",
          "name": "",
          "type": "address"
        }
      ],
      "stateMutability": "view",
      "type": "function"
    },
    {
      "inputs": [
        {
          "internalType": "contract ISetToken",
          "name": "_setToken",
          "type": "address"
        },
        {
          "internalType": "address[]",
          "name": "_tokens",
          "type": "address[]"
        }
      ],
      "name": "batchAbsorb",
      "outputs": [],
      "stateMutability": "nonpayable",
      "type": "function"
    },
    {
      "inputs": [
        {
          "internalType": "contract ISetToken",
          "name": "_setToken",
          "type": "address"
        },
        {
          "internalType": "address",
          "name": "_token",
          "type": "address"
        }
      ],
      "name": "absorb",
      "outputs": [],
      "stateMutability": "nonpayable",
      "type": "function"
    },
    {
      "inputs": [
        {
          "internalType": "contract ISetToken",
          "name": "_setToken",
          "type": "address"
        },
        {
          "internalType": "address",
          "name": "_airdrop",
          "type": "address"
        }
      ],
      "name": "addAirdrop",
      "outputs": [],
      "stateMutability": "nonpayable",
      "type": "function"
    },
    {
      "inputs": [
        {
          "internalType": "contract ISetToken",
          "name": "_setToken",
          "type": "address"
        },
        {
          "internalType": "address",
          "name": "_airdrop",
          "type": "address"
        }
      ],
      "name": "removeAirdrop",
      "outputs": [],
      "stateMutability": "nonpayable",
      "type": "function"
    },
    {
      "inputs": [
        {
          "internalType": "contract ISetToken",
          "name": "_setToken",
          "type": "address"
        }
      ],
      "name": "updateAnyoneAbsorb",
      "outputs": [],
      "stateMutability": "nonpayable",
      "type": "function"
    },
    {
      "inputs": [
        {
          "internalType": "contract ISetToken",
          "name": "_setToken",
          "type": "address"
        },
        {
          "internalType": "address",
          "name": "_newFeeRecipient",
          "type": "address"
        }
      ],
      "name": "updateFeeRecipient",
      "outputs": [],
      "stateMutability": "nonpayable",
      "type": "function"
    },
    {
      "inputs": [
        {
          "internalType": "contract ISetToken",
          "name": "_setToken",
          "type": "address"
        },
        {
          "internalType": "uint256",
          "name": "_newFee",
          "type": "uint256"
        }
      ],
      "name": "updateAirdropFee",
      "outputs": [],
      "stateMutability": "nonpayable",
      "type": "function"
    },
    {
      "inputs": [
        {
          "internalType": "contract ISetToken",
          "name": "_setToken",
          "type": "address"
        },
        {
          "components": [
            {
              "internalType": "address[]",
              "name": "airdrops",
              "type": "address[]"
            },
            {
              "internalType": "address",
              "name": "feeRecipient",
              "type": "address"
            },
            {
              "internalType": "uint256",
              "name": "airdropFee",
              "type": "uint256"
            },
            {
              "internalType": "bool",
              "name": "anyoneAbsorb",
              "type": "bool"
            }
          ],
          "internalType": "struct AirdropModule.AirdropSettings",
          "name": "_airdropSettings",
          "type": "tuple"
        }
      ],
      "name": "initialize",
      "outputs": [],
      "stateMutability": "nonpayable",
      "type": "function"
    },
    {
      "inputs": [],
      "name": "removeModule",
      "outputs": [],
      "stateMutability": "nonpayable",
      "type": "function"
    },
    {
      "inputs": [
        {
          "internalType": "contract ISetToken",
          "name": "_setToken",
          "type": "address"
        }
      ],
      "name": "getAirdrops",
      "outputs": [
        {
          "internalType": "address[]",
          "name": "",
          "type": "address[]"
        }
      ],
      "stateMutability": "view",
      "type": "function"
    },
    {
      "inputs": [
        {
          "internalType": "contract ISetToken",
          "name": "_setToken",
          "type": "address"
        },
        {
          "internalType": "address",
          "name": "_token",
          "type": "address"
        }
      ],
      "name": "isAirdropToken",
      "outputs": [
        {
          "internalType": "bool",
          "name": "",
          "type": "bool"
        }
      ],
      "stateMutability": "view",
      "type": "function"
    }
  ],
  "bytecode": "0x60806040523480156200001157600080fd5b5060405162003d5d38038062003d5d83398181016040528101906200003791906200009e565b80806000806101000a81548173ffffffffffffffffffffffffffffffffffffffff021916908373ffffffffffffffffffffffffffffffffffffffff1602179055505060018081905550506200012c565b600081519050620000988162000112565b92915050565b600060208284031215620000b157600080fd5b6000620000c18482850162000087565b91505092915050565b6000620000d782620000f2565b9050919050565b6000620000eb82620000ca565b9050919050565b600073ffffffffffffffffffffffffffffffffffffffff82169050919050565b6200011d81620000de565b81146200012957600080fd5b50565b613c21806200013c6000396000f3fe608060405234801561001057600080fd5b50600436106100ea5760003560e01c806370eaf3591161008c578063cd8b529c11610066578063cd8b529c146101f7578063e30a3a1414610227578063e92f093514610259578063f77c479114610289576100ea565b806370eaf359146101b5578063847ef08d146101d157806391ad3465146101db576100ea565b806339de2849116100c857806339de2849146101435780635a3a92fb146101615780635d98c3731461017d5780636cf8293d14610199576100ea565b8063032a3bd6146100ef5780631bc1e9ba1461010b5780631bee032d14610127575b600080fd5b61010960048036038101906101049190612d7b565b6102a7565b005b61012560048036038101906101209190612d27565b6105f2565b005b610141600480360381019061013c9190612ceb565b6106e9565b005b61014b61086d565b604051610158919061398d565b60405180910390f35b61017b60048036038101906101769190612cc2565b610872565b005b61019760048036038101906101929190612ceb565b6109b2565b005b6101b360048036038101906101ae9190612ceb565b610b3e565b005b6101cf60048036038101906101ca9190612dcf565b610d4d565b005b6101d9610f48565b005b6101f560048036038101906101f09190612ceb565b610fdf565b005b610211600480360381019061020c9190612ceb565b6110d6565b60405161021e91906136b5565b60405180910390f35b610241600480360381019061023c9190612cc2565b6110fb565b60405161025093929190613617565b60405180910390f35b610273600480360381019061026e9190612cc2565b611152565b6040516102809190613693565b60405180910390f35b610291611164565b60405161029e91906136d0565b60405180910390f35b81336102b38282611189565b6102f2576040517f08c379a00000000000000000000000000000000000000000000000000000000081526004016102e99061390d565b60405180910390fd5b836000809054906101000a900473ffffffffffffffffffffffffffffffffffffffff1673ffffffffffffffffffffffffffffffffffffffff166374ebe3ec826040518263ffffffff1660e01b815260040161034d919061356c565b60206040518083038186803b15801561036557600080fd5b505afa158015610379573d6000803e3d6000fd5b505050506040513d601f19601f8201168201806040525081019061039d9190612c58565b6103dc576040517f08c379a00000000000000000000000000000000000000000000000000000000081526004016103d3906138ed565b60405180910390fd5b6103e58161123f565b610424576040517f08c379a000000000000000000000000000000000000000000000000000000000815260040161041b906137cd565b60405180910390fd5b60008460000151511161046c576040517f08c379a00000000000000000000000000000000000000000000000000000000081526004016104639061384d565b60405180910390fd5b6104746112d1565b846040015111156104ba576040517f08c379a00000000000000000000000000000000000000000000000000000000081526004016104b1906137ed565b60405180910390fd5b83600260008773ffffffffffffffffffffffffffffffffffffffff1673ffffffffffffffffffffffffffffffffffffffff168152602001908152602001600020600082015181600001908051906020019061051692919061284d565b5060208201518160010160006101000a81548173ffffffffffffffffffffffffffffffffffffffff021916908373ffffffffffffffffffffffffffffffffffffffff1602179055506040820151816002015560608201518160030160006101000a81548160ff0219169083151502179055509050508473ffffffffffffffffffffffffffffffffffffffff16630ffe0f1e6040518163ffffffff1660e01b8152600401600060405180830381600087803b1580156105d357600080fd5b505af11580156105e7573d6000803e3d6000fd5b505050505050505050565b60026001541415610638576040517f08c379a000000000000000000000000000000000000000000000000000000000815260040161062f9061394d565b60405180910390fd5b60026001819055508161064a816112e1565b610689576040517f08c379a00000000000000000000000000000000000000000000000000000000081526004016106809061374d565b60405180910390fd5b826106938161134b565b6106d2576040517f08c379a00000000000000000000000000000000000000000000000000000000081526004016106c99061378d565b60405180910390fd5b6106dc848461148f565b5050600180819055505050565b816106f48133611189565b610733576040517f08c379a000000000000000000000000000000000000000000000000000000000815260040161072a9061390d565b60405180910390fd5b61073c8161134b565b61077b576040517f08c379a00000000000000000000000000000000000000000000000000000000081526004016107729061378d565b60405180910390fd5b61078583836110d6565b156107c5576040517f08c379a00000000000000000000000000000000000000000000000000000000081526004016107bc9061386d565b60405180910390fd5b600260008473ffffffffffffffffffffffffffffffffffffffff1673ffffffffffffffffffffffffffffffffffffffff168152602001908152602001600020600001829080600181540180825580915050600190039060005260206000200160009091909190916101000a81548173ffffffffffffffffffffffffffffffffffffffff021916908373ffffffffffffffffffffffffffffffffffffffff160217905550505050565b600081565b8061087d8133611189565b6108bc576040517f08c379a00000000000000000000000000000000000000000000000000000000081526004016108b39061390d565b60405180910390fd5b6108c58161134b565b610904576040517f08c379a00000000000000000000000000000000000000000000000000000000081526004016108fb9061378d565b60405180910390fd5b600260008373ffffffffffffffffffffffffffffffffffffffff1673ffffffffffffffffffffffffffffffffffffffff16815260200190815260200160002060030160009054906101000a900460ff1615600260008473ffffffffffffffffffffffffffffffffffffffff1673ffffffffffffffffffffffffffffffffffffffff16815260200190815260200160002060030160006101000a81548160ff0219169083151502179055505050565b81336109be8282611189565b6109fd576040517f08c379a00000000000000000000000000000000000000000000000000000000081526004016109f49061390d565b60405180910390fd5b83610a078161134b565b610a46576040517f08c379a0000000000000000000000000000000000000000000000000000000008152600401610a3d9061378d565b60405180910390fd5b600073ffffffffffffffffffffffffffffffffffffffff168473ffffffffffffffffffffffffffffffffffffffff161415610ab6576040517f08c379a0000000000000000000000000000000000000000000000000000000008152600401610aad9061376d565b60405180910390fd5b83600260008773ffffffffffffffffffffffffffffffffffffffff1673ffffffffffffffffffffffffffffffffffffffff16815260200190815260200160002060010160006101000a81548173ffffffffffffffffffffffffffffffffffffffff021916908373ffffffffffffffffffffffffffffffffffffffff1602179055505050505050565b81610b498133611189565b610b88576040517f08c379a0000000000000000000000000000000000000000000000000000000008152600401610b7f9061390d565b60405180910390fd5b610b918161134b565b610bd0576040517f08c379a0000000000000000000000000000000000000000000000000000000008152600401610bc79061378d565b60405180910390fd5b610bda83836110d6565b610c19576040517f08c379a0000000000000000000000000000000000000000000000000000000008152600401610c109061396d565b60405180910390fd5b610cf282600260008673ffffffffffffffffffffffffffffffffffffffff1673ffffffffffffffffffffffffffffffffffffffff168152602001908152602001600020600001805480602002602001604051908101604052809291908181526020018280548015610cdf57602002820191906000526020600020905b8160009054906101000a900473ffffffffffffffffffffffffffffffffffffffff1673ffffffffffffffffffffffffffffffffffffffff1681526020019060010190808311610c95575b50505050506114cd90919063ffffffff16565b600260008573ffffffffffffffffffffffffffffffffffffffff1673ffffffffffffffffffffffffffffffffffffffff1681526020019081526020016000206000019080519060200190610d4792919061284d565b50505050565b8133610d598282611189565b610d98576040517f08c379a0000000000000000000000000000000000000000000000000000000008152600401610d8f9061390d565b60405180910390fd5b83610da28161134b565b610de1576040517f08c379a0000000000000000000000000000000000000000000000000000000008152600401610dd89061378d565b60405180910390fd5b610de96112d1565b8410610e2a576040517f08c379a0000000000000000000000000000000000000000000000000000000008152600401610e21906138ad565b60405180910390fd5b610efa85600260008873ffffffffffffffffffffffffffffffffffffffff1673ffffffffffffffffffffffffffffffffffffffff168152602001908152602001600020600001805480602002602001604051908101604052809291908181526020018280548015610ef057602002820191906000526020600020905b8160009054906101000a900473ffffffffffffffffffffffffffffffffffffffff1673ffffffffffffffffffffffffffffffffffffffff1681526020019060010190808311610ea6575b505050505061148f565b83600260008773ffffffffffffffffffffffffffffffffffffffff1673ffffffffffffffffffffffffffffffffffffffff168152602001908152602001600020600201819055505050505050565b600260003373ffffffffffffffffffffffffffffffffffffffff1673ffffffffffffffffffffffffffffffffffffffff16815260200190815260200160002060008082016000610f9891906128d7565b6001820160006101000a81549073ffffffffffffffffffffffffffffffffffffffff021916905560028201600090556003820160006101000a81549060ff02191690555050565b60026001541415611025576040517f08c379a000000000000000000000000000000000000000000000000000000000815260040161101c9061394d565b60405180910390fd5b600260018190555081611037816112e1565b611076576040517f08c379a000000000000000000000000000000000000000000000000000000000815260040161106d9061374d565b60405180910390fd5b826110808161134b565b6110bf576040517f08c379a00000000000000000000000000000000000000000000000000000000081526004016110b69061378d565b60405180910390fd5b6110c9848461153b565b5050600180819055505050565b60006110f3826110e585611592565b61166290919063ffffffff16565b905092915050565b60026020528060005260406000206000915090508060010160009054906101000a900473ffffffffffffffffffffffffffffffffffffffff16908060020154908060030160009054906101000a900460ff16905083565b606061115d82611592565b9050919050565b6000809054906101000a900473ffffffffffffffffffffffffffffffffffffffff1681565b60008173ffffffffffffffffffffffffffffffffffffffff168373ffffffffffffffffffffffffffffffffffffffff1663481c6a756040518163ffffffff1660e01b815260040160206040518083038186803b1580156111e857600080fd5b505afa1580156111fc573d6000803e3d6000fd5b505050506040513d601f19601f820116820180604052508101906112209190612bee565b73ffffffffffffffffffffffffffffffffffffffff1614905092915050565b60008173ffffffffffffffffffffffffffffffffffffffff166353bae5f7306040518263ffffffff1660e01b815260040161127a919061356c565b60206040518083038186803b15801561129257600080fd5b505afa1580156112a6573d6000803e3d6000fd5b505050506040513d601f19601f820116820180604052508101906112ca9190612c58565b9050919050565b6000670de0b6b3a7640000905090565b6000600260008373ffffffffffffffffffffffffffffffffffffffff1673ffffffffffffffffffffffffffffffffffffffff16815260200190815260200160002060030160009054906101000a900460ff168061134457506113438233611189565b5b9050919050565b60008060009054906101000a900473ffffffffffffffffffffffffffffffffffffffff1673ffffffffffffffffffffffffffffffffffffffff166374ebe3ec836040518263ffffffff1660e01b81526004016113a7919061356c565b60206040518083038186803b1580156113bf57600080fd5b505afa1580156113d3573d6000803e3d6000fd5b505050506040513d601f19601f820116820180604052508101906113f79190612c58565b801561148857508173ffffffffffffffffffffffffffffffffffffffff1663d7f1b27c306040518263ffffffff1660e01b8152600401611437919061356c565b60206040518083038186803b15801561144f57600080fd5b505afa158015611463573d6000803e3d6000fd5b505050506040513d601f19601f820116820180604052508101906114879190612c58565b5b9050919050565b60008090505b81518110156114c8576114bb838383815181106114ae57fe5b602002602001015161153b565b8080600101915050611495565b505050565b60606000806114dc858561167c565b9150915080611520576040517f08c379a00000000000000000000000000000000000000000000000000000000081526004016115179061370d565b60405180910390fd5b606061152c8684611726565b50905080935050505092915050565b61154582826110d6565b611584576040517f08c379a000000000000000000000000000000000000000000000000000000000815260040161157b9061392d565b60405180910390fd5b61158e82826118d4565b5050565b6060600260008373ffffffffffffffffffffffffffffffffffffffff1673ffffffffffffffffffffffffffffffffffffffff16815260200190815260200160002060000180548060200260200160405190810160405280929190818152602001828054801561165657602002820191906000526020600020905b8160009054906101000a900473ffffffffffffffffffffffffffffffffffffffff1673ffffffffffffffffffffffffffffffffffffffff168152602001906001019080831161160c575b50505050509050919050565b60008061166f848461167c565b9150508091505092915050565b60008060008451905060008090505b818110156116f5578473ffffffffffffffffffffffffffffffffffffffff168682815181106116b657fe5b602002602001015173ffffffffffffffffffffffffffffffffffffffff1614156116e85780600193509350505061171f565b808060010191505061168b565b507fffffffffffffffffffffffffffffffffffffffffffffffffffffffffffffffff600092509250505b9250929050565b60606000808451905084518410611772576040517f08c379a00000000000000000000000000000000000000000000000000000000081526004016117699061372d565b60405180910390fd5b60606001820367ffffffffffffffff8111801561178e57600080fd5b506040519080825280602002602001820160405280156117bd5781602001602082028036833780820191505090505b50905060008090505b85811015611835578681815181106117da57fe5b60200260200101518282815181106117ee57fe5b602002602001019073ffffffffffffffffffffffffffffffffffffffff16908173ffffffffffffffffffffffffffffffffffffffff168152505080806001019150506117c6565b5060006001860190505b828110156118b15786818151811061185357fe5b602002602001015182600183038151811061186a57fe5b602002602001019073ffffffffffffffffffffffffffffffffffffffff16908173ffffffffffffffffffffffffffffffffffffffff1681525050808060010191505061183f565b50808686815181106118bf57fe5b60200260200101519350935050509250929050565b60008173ffffffffffffffffffffffffffffffffffffffff166370a08231846040518263ffffffff1660e01b815260040161190f919061356c565b60206040518083038186803b15801561192757600080fd5b505afa15801561193b573d6000803e3d6000fd5b505050506040513d601f19601f8201168201806040525081019061195f9190612e34565b9050600061199e61198f848673ffffffffffffffffffffffffffffffffffffffff16611a5890919063ffffffff16565b83611b8790919063ffffffff16565b90506000811115611a525760008060006119b9878786611bd1565b92509250925060006119cc888784611d45565b90506119f987828a73ffffffffffffffffffffffffffffffffffffffff16611df79092919063ffffffff16565b8773ffffffffffffffffffffffffffffffffffffffff167f55973614a7f79cfa12e7b54f93f3ad973a4eb12d31bbeacb485279ad5b690b4c88878787604051611a45949392919061364e565b60405180910390a2505050505b50505050565b6000808373ffffffffffffffffffffffffffffffffffffffff166366cb8d2f846040518263ffffffff1660e01b8152600401611a94919061356c565b60206040518083038186803b158015611aac57600080fd5b505afa158015611ac0573d6000803e3d6000fd5b505050506040513d601f19601f82011682018060405250810190611ae49190612e0b565b9050611b7e611af282611fa0565b8573ffffffffffffffffffffffffffffffffffffffff166318160ddd6040518163ffffffff1660e01b815260040160206040518083038186803b158015611b3857600080fd5b505afa158015611b4c573d6000803e3d6000fd5b505050506040513d601f19601f82011682018060405250810190611b709190612e34565b611fed90919063ffffffff16565b91505092915050565b6000611bc983836040518060400160405280601e81526020017f536166654d6174683a207375627472616374696f6e206f766572666c6f770000815250612024565b905092915050565b600080600080600260008873ffffffffffffffffffffffffffffffffffffffff1673ffffffffffffffffffffffffffffffffffffffff1681526020019081526020016000206002015490506000811115611d26576000611c3a8287611fed90919063ffffffff16565b90506000611c4960008361207f565b90506000611c608284611b8790919063ffffffff16565b90506000611c77838361214c90919063ffffffff16565b9050611d088a600260008e73ffffffffffffffffffffffffffffffffffffffff1673ffffffffffffffffffffffffffffffffffffffff16815260200190815260200160002060010160009054906101000a900473ffffffffffffffffffffffffffffffffffffffff16848e73ffffffffffffffffffffffffffffffffffffffff166121a1909392919063ffffffff16565b611d138b8b856122dc565b8183829750975097505050505050611d3c565b6000806000829250819150809050935093509350505b93509350939050565b6000808473ffffffffffffffffffffffffffffffffffffffff166318160ddd6040518163ffffffff1660e01b815260040160206040518083038186803b158015611d8e57600080fd5b505afa158015611da2573d6000803e3d6000fd5b505050506040513d601f19601f82011682018060405250810190611dc69190612e34565b9050611ded611dde8486611b8790919063ffffffff16565b826123b690919063ffffffff16565b9150509392505050565b6000611e0384846123d3565b905080158015611e135750600082115b15611e9757611e228484612468565b611e92578373ffffffffffffffffffffffffffffffffffffffff16634e353270846040518263ffffffff1660e01b8152600401611e5f919061356c565b600060405180830381600087803b158015611e7957600080fd5b505af1158015611e8d573d6000803e3d6000fd5b505050505b611f25565b808015611ea45750600082145b15611f2457611eb38484612468565b611f23578373ffffffffffffffffffffffffffffffffffffffff16636f86c897846040518263ffffffff1660e01b8152600401611ef0919061356c565b600060405180830381600087803b158015611f0a57600080fd5b505af1158015611f1e573d6000803e3d6000fd5b505050505b5b5b8373ffffffffffffffffffffffffffffffffffffffff16632ba57d1784611f4b85612503565b6040518363ffffffff1660e01b8152600401611f68929190613587565b600060405180830381600087803b158015611f8257600080fd5b505af1158015611f96573d6000803e3d6000fd5b5050505050505050565b600080821215611fe5576040517f08c379a0000000000000000000000000000000000000000000000000000000008152600401611fdc9061380d565b60405180910390fd5b819050919050565b600061201c670de0b6b3a764000061200e848661256f90919063ffffffff16565b6125df90919063ffffffff16565b905092915050565b600083831115829061206c576040517f08c379a000000000000000000000000000000000000000000000000000000000815260040161206391906136eb565b60405180910390fd5b5060008385039050809150509392505050565b6000806000809054906101000a900473ffffffffffffffffffffffffffffffffffffffff1673ffffffffffffffffffffffffffffffffffffffff1663792aa04f30866040518363ffffffff1660e01b81526004016120de9291906135ee565b60206040518083038186803b1580156120f657600080fd5b505afa15801561210a573d6000803e3d6000fd5b505050506040513d601f19601f8201168201806040525081019061212e9190612e34565b90506121438184611fed90919063ffffffff16565b91505092915050565b600080828401905083811015612197576040517f08c379a000000000000000000000000000000000000000000000000000000000815260040161218e906137ad565b60405180910390fd5b8091505092915050565b60008111156122d657606082826040516024016121bf9291906135ee565b6040516020818303038152906040527fa9059cbb000000000000000000000000000000000000000000000000000000007bffffffffffffffffffffffffffffffffffffffffffffffffffffffff19166020820180517bffffffffffffffffffffffffffffffffffffffffffffffffffffffff838183161783525050505090508473ffffffffffffffffffffffffffffffffffffffff16638f6f0332856000846040518463ffffffff1660e01b815260040161227c939291906135b0565b600060405180830381600087803b15801561229657600080fd5b505af11580156122aa573d6000803e3d6000fd5b505050506040513d6000823e3d601f19601f820116820180604052508101906122d39190612c81565b50505b50505050565b60008111156123b1576123b0826000809054906101000a900473ffffffffffffffffffffffffffffffffffffffff1673ffffffffffffffffffffffffffffffffffffffff1663469048406040518163ffffffff1660e01b815260040160206040518083038186803b15801561235057600080fd5b505afa158015612364573d6000803e3d6000fd5b505050506040513d601f19601f820116820180604052508101906123889190612bee565b838673ffffffffffffffffffffffffffffffffffffffff16612629909392919063ffffffff16565b5b505050565b60006123cb83836127b590919063ffffffff16565b905092915050565b6000808373ffffffffffffffffffffffffffffffffffffffff166366cb8d2f846040518263ffffffff1660e01b815260040161240f919061356c565b60206040518083038186803b15801561242757600080fd5b505afa15801561243b573d6000803e3d6000fd5b505050506040513d601f19601f8201168201806040525081019061245f9190612e0b565b13905092915050565b6000808373ffffffffffffffffffffffffffffffffffffffff1663a7bdad03846040518263ffffffff1660e01b81526004016124a4919061356c565b60006040518083038186803b1580156124bc57600080fd5b505afa1580156124d0573d6000803e3d6000fd5b505050506040513d6000823e3d601f19601f820116820180604052508101906124f99190612c17565b5111905092915050565b60007f80000000000000000000000000000000000000000000000000000000000000008210612567576040517f08c379a000000000000000000000000000000000000000000000000000000000815260040161255e906138cd565b60405180910390fd5b819050919050565b60008083141561258257600090506125d9565b600082840290508284828161259357fe5b04146125d4576040517f08c379a00000000000000000000000000000000000000000000000000000000081526004016125cb9061382d565b60405180910390fd5b809150505b92915050565b600061262183836040518060400160405280601a81526020017f536166654d6174683a206469766973696f6e206279207a65726f0000000000008152506127ec565b905092915050565b60008111156127af5760008373ffffffffffffffffffffffffffffffffffffffff166370a08231866040518263ffffffff1660e01b815260040161266d919061356c565b60206040518083038186803b15801561268557600080fd5b505afa158015612699573d6000803e3d6000fd5b505050506040513d601f19601f820116820180604052508101906126bd9190612e34565b90506126cb858585856121a1565b60008473ffffffffffffffffffffffffffffffffffffffff166370a08231876040518263ffffffff1660e01b8152600401612706919061356c565b60206040518083038186803b15801561271e57600080fd5b505afa158015612732573d6000803e3d6000fd5b505050506040513d601f19601f820116820180604052508101906127569190612e34565b905061276b8383611b8790919063ffffffff16565b81146127ac576040517f08c379a00000000000000000000000000000000000000000000000000000000081526004016127a39061388d565b60405180910390fd5b50505b50505050565b60006127e4826127d6670de0b6b3a76400008661256f90919063ffffffff16565b6125df90919063ffffffff16565b905092915050565b60008083118290612833576040517f08c379a000000000000000000000000000000000000000000000000000000000815260040161282a91906136eb565b60405180910390fd5b50600083858161283f57fe5b049050809150509392505050565b8280548282559060005260206000209081019282156128c6579160200282015b828111156128c55782518260006101000a81548173ffffffffffffffffffffffffffffffffffffffff021916908373ffffffffffffffffffffffffffffffffffffffff1602179055509160200191906001019061286d565b5b5090506128d391906128f8565b5090565b50805460008255906000526020600020908101906128f5919061293b565b50565b61293891905b8082111561293457600081816101000a81549073ffffffffffffffffffffffffffffffffffffffff0219169055506001016128fe565b5090565b90565b61295d91905b80821115612959576000816000905550600101612941565b5090565b90565b60008135905061296f81613b78565b92915050565b60008151905061298481613b78565b92915050565b600082601f83011261299b57600080fd5b81356129ae6129a9826139d5565b6139a8565b915081818352602084019350602081019050838560208402820111156129d357600080fd5b60005b83811015612a0357816129e98882612960565b8452602084019350602083019250506001810190506129d6565b5050505092915050565b600082601f830112612a1e57600080fd5b8151612a31612a2c826139d5565b6139a8565b91508181835260208401935060208101905083856020840282011115612a5657600080fd5b60005b83811015612a865781612a6c8882612975565b845260208401935060208301925050600181019050612a59565b5050505092915050565b600081359050612a9f81613b8f565b92915050565b600081519050612ab481613b8f565b92915050565b600082601f830112612acb57600080fd5b8151612ade612ad9826139fd565b6139a8565b91508082526020830160208301858383011115612afa57600080fd5b612b05838284613b34565b50505092915050565b600081359050612b1d81613ba6565b92915050565b600081519050612b3281613bbd565b92915050565b600060808284031215612b4a57600080fd5b612b5460806139a8565b9050600082013567ffffffffffffffff811115612b7057600080fd5b612b7c8482850161298a565b6000830152506020612b9084828501612960565b6020830152506040612ba484828501612bc4565b6040830152506060612bb884828501612a90565b60608301525092915050565b600081359050612bd381613bd4565b92915050565b600081519050612be881613bd4565b92915050565b600060208284031215612c0057600080fd5b6000612c0e84828501612975565b91505092915050565b600060208284031215612c2957600080fd5b600082015167ffffffffffffffff811115612c4357600080fd5b612c4f84828501612a0d565b91505092915050565b600060208284031215612c6a57600080fd5b6000612c7884828501612aa5565b91505092915050565b600060208284031215612c9357600080fd5b600082015167ffffffffffffffff811115612cad57600080fd5b612cb984828501612aba565b91505092915050565b600060208284031215612cd457600080fd5b6000612ce284828501612b0e565b91505092915050565b60008060408385031215612cfe57600080fd5b6000612d0c85828601612b0e565b9250506020612d1d85828601612960565b9150509250929050565b60008060408385031215612d3a57600080fd5b6000612d4885828601612b0e565b925050602083013567ffffffffffffffff811115612d6557600080fd5b612d718582860161298a565b9150509250929050565b60008060408385031215612d8e57600080fd5b6000612d9c85828601612b0e565b925050602083013567ffffffffffffffff811115612db957600080fd5b612dc585828601612b38565b9150509250929050565b60008060408385031215612de257600080fd5b6000612df085828601612b0e565b9250506020612e0185828601612bc4565b9150509250929050565b600060208284031215612e1d57600080fd5b6000612e2b84828501612b23565b91505092915050565b600060208284031215612e4657600080fd5b6000612e5484828501612bd9565b91505092915050565b6000612e698383612e75565b60208301905092915050565b612e7e81613a9a565b82525050565b612e8d81613a9a565b82525050565b6000612e9e82613a39565b612ea88185613a67565b9350612eb383613a29565b8060005b83811015612ee4578151612ecb8882612e5d565b9750612ed683613a5a565b925050600181019050612eb7565b5085935050505092915050565b612efa81613aac565b82525050565b6000612f0b82613a44565b612f158185613a78565b9350612f25818560208601613b34565b612f2e81613b67565b840191505092915050565b612f4281613afe565b82525050565b612f5181613aca565b82525050565b612f6081613b22565b82525050565b6000612f7182613a4f565b612f7b8185613a89565b9350612f8b818560208601613b34565b612f9481613b67565b840191505092915050565b6000612fac601583613a89565b91507f41646472657373206e6f7420696e2061727261792e00000000000000000000006000830152602082019050919050565b6000612fec601883613a89565b91507f496e646578206d757374206265203c2041206c656e67746800000000000000006000830152602082019050919050565b600061302c601483613a89565b91507f4d7573742062652076616c69642063616c6c65720000000000000000000000006000830152602082019050919050565b600061306c601f83613a89565b91507f5061737365642061646472657373206d757374206265206e6f6e2d7a65726f006000830152602082019050919050565b60006130ac602883613a89565b91507f4d75737420626520612076616c696420616e6420696e697469616c697a65642060008301527f536574546f6b656e0000000000000000000000000000000000000000000000006020830152604082019050919050565b6000613112601b83613a89565b91507f536166654d6174683a206164646974696f6e206f766572666c6f7700000000006000830152602082019050919050565b6000613152601e83613a89565b91507f4d7573742062652070656e64696e6720696e697469616c697a6174696f6e00006000830152602082019050919050565b6000613192601483613a89565b91507f466565206d757374206265203c3d20313030252e0000000000000000000000006000830152602082019050919050565b60006131d2602083613a89565b91507f53616665436173743a2076616c7565206d75737420626520706f7369746976656000830152602082019050919050565b6000613212602183613a89565b91507f536166654d6174683a206d756c7469706c69636174696f6e206f766572666c6f60008301527f77000000000000000000000000000000000000000000000000000000000000006020830152604082019050919050565b6000613278602283613a89565b91507f4174206c65617374206f6e6520746f6b656e206d75737420626520706173736560008301527f642e0000000000000000000000000000000000000000000000000000000000006020830152604082019050919050565b60006132de601483613a89565b91507f546f6b656e20616c72656164792061646465642e0000000000000000000000006000830152602082019050919050565b600061331e601d83613a89565b91507f496e76616c696420706f7374207472616e736665722062616c616e63650000006000830152602082019050919050565b600061335e601d83613a89565b91507f41697264726f70206665652063616e27742065786365656420313030250000006000830152602082019050919050565b600061339e602883613a89565b91507f53616665436173743a2076616c756520646f65736e27742066697420696e206160008301527f6e20696e743235360000000000000000000000000000000000000000000000006020830152604082019050919050565b6000613404602383613a89565b91507f4d75737420626520636f6e74726f6c6c65722d656e61626c656420536574546f60008301527f6b656e00000000000000000000000000000000000000000000000000000000006020830152604082019050919050565b600061346a601c83613a89565b91507f4d7573742062652074686520536574546f6b656e206d616e61676572000000006000830152602082019050919050565b60006134aa601783613a89565b91507f4d75737420626520617070726f76656420746f6b656e2e0000000000000000006000830152602082019050919050565b60006134ea601f83613a89565b91507f5265656e7472616e637947756172643a207265656e7472616e742063616c6c006000830152602082019050919050565b600061352a601083613a89565b91507f546f6b656e206e6f742061646465642e000000000000000000000000000000006000830152602082019050919050565b61356681613af4565b82525050565b60006020820190506135816000830184612e84565b92915050565b600060408201905061359c6000830185612e84565b6135a96020830184612f48565b9392505050565b60006060820190506135c56000830186612e84565b6135d26020830185612f57565b81810360408301526135e48184612f00565b9050949350505050565b60006040820190506136036000830185612e84565b613610602083018461355d565b9392505050565b600060608201905061362c6000830186612e84565b613639602083018561355d565b6136466040830184612ef1565b949350505050565b60006080820190506136636000830187612e84565b613670602083018661355d565b61367d604083018561355d565b61368a606083018461355d565b95945050505050565b600060208201905081810360008301526136ad8184612e93565b905092915050565b60006020820190506136ca6000830184612ef1565b92915050565b60006020820190506136e56000830184612f39565b92915050565b600060208201905081810360008301526137058184612f66565b905092915050565b6000602082019050818103600083015261372681612f9f565b9050919050565b6000602082019050818103600083015261374681612fdf565b9050919050565b600060208201905081810360008301526137668161301f565b9050919050565b600060208201905081810360008301526137868161305f565b9050919050565b600060208201905081810360008301526137a68161309f565b9050919050565b600060208201905081810360008301526137c681613105565b9050919050565b600060208201905081810360008301526137e681613145565b9050919050565b6000602082019050818103600083015261380681613185565b9050919050565b60006020820190508181036000830152613826816131c5565b9050919050565b6000602082019050818103600083015261384681613205565b9050919050565b600060208201905081810360008301526138668161326b565b9050919050565b60006020820190508181036000830152613886816132d1565b9050919050565b600060208201905081810360008301526138a681613311565b9050919050565b600060208201905081810360008301526138c681613351565b9050919050565b600060208201905081810360008301526138e681613391565b9050919050565b60006020820190508181036000830152613906816133f7565b9050919050565b600060208201905081810360008301526139268161345d565b9050919050565b600060208201905081810360008301526139468161349d565b9050919050565b60006020820190508181036000830152613966816134dd565b9050919050565b600060208201905081810360008301526139868161351d565b9050919050565b60006020820190506139a2600083018461355d565b92915050565b6000604051905081810181811067ffffffffffffffff821117156139cb57600080fd5b8060405250919050565b600067ffffffffffffffff8211156139ec57600080fd5b602082029050602081019050919050565b600067ffffffffffffffff821115613a1457600080fd5b601f19601f8301169050602081019050919050565b6000819050602082019050919050565b600081519050919050565b600081519050919050565b600081519050919050565b6000602082019050919050565b600082825260208201905092915050565b600082825260208201905092915050565b600082825260208201905092915050565b6000613aa582613ad4565b9050919050565b60008115159050919050565b6000613ac382613a9a565b9050919050565b6000819050919050565b600073ffffffffffffffffffffffffffffffffffffffff82169050919050565b6000819050919050565b6000613b0982613b10565b9050919050565b6000613b1b82613ad4565b9050919050565b6000613b2d82613af4565b9050919050565b60005b83811015613b52578082015181840152602081019050613b37565b83811115613b61576000848401525b50505050565b6000601f19601f8301169050919050565b613b8181613a9a565b8114613b8c57600080fd5b50565b613b9881613aac565b8114613ba357600080fd5b50565b613baf81613ab8565b8114613bba57600080fd5b50565b613bc681613aca565b8114613bd157600080fd5b50565b613bdd81613af4565b8114613be857600080fd5b5056fea2646970667358221220034193af61663813e6e3f642c1290b863c458815a188c993f39413ce3cd5e41b64736f6c634300060a0033",
  "immutableReferences": {},
  "source": "/*\n    Copyright 2020 Set Labs Inc.\n\n    Licensed under the Apache License, Version 2.0 (the \"License\");\n    you may not use this file except in compliance with the License.\n    You may obtain a copy of the License at\n\n    http://www.apache.org/licenses/LICENSE-2.0\n\n    Unless required by applicable law or agreed to in writing, software\n    distributed under the License is distributed on an \"AS IS\" BASIS,\n    WITHOUT WARRANTIES OR CONDITIONS OF ANY KIND, either express or implied.\n    See the License for the specific language governing permissions and\n    limitations under the License.\n\n    SPDX-License-Identifier: Apache License, Version 2.0\n*/\n\npragma solidity 0.6.10;\npragma experimental \"ABIEncoderV2\";\n\nimport { ERC20 } from \"@openzeppelin/contracts/token/ERC20/ERC20.sol\";\nimport { ReentrancyGuard } from \"@openzeppelin/contracts/utils/ReentrancyGuard.sol\";\nimport { SafeCast } from \"@openzeppelin/contracts/utils/SafeCast.sol\";\nimport { SafeMath } from \"@openzeppelin/contracts/math/SafeMath.sol\";\n\nimport { AddressArrayUtils } from \"../../lib/AddressArrayUtils.sol\";\nimport { IController } from \"../../interfaces/IController.sol\";\nimport { ISetToken } from \"../../interfaces/ISetToken.sol\";\nimport { Invoke } from \"../lib/Invoke.sol\";\nimport { ModuleBase } from \"../lib/ModuleBase.sol\";\nimport { Position } from \"../lib/Position.sol\";\nimport { PreciseUnitMath } from \"../../lib/PreciseUnitMath.sol\";\n\n\n/**\n * @title AirdropModule\n * @author Set Protocol\n *\n * Module that enables managers to absorb tokens sent to the SetToken into the token's positions. With each SetToken,\n * managers are able to specify 1) the airdrops they want to include, 2) an airdrop fee recipient, 3) airdrop fee,\n * and 4) whether all users are allowed to trigger an airdrop.\n */\ncontract AirdropModule is ModuleBase, ReentrancyGuard {\n    using PreciseUnitMath for uint256;\n    using SafeMath for uint256;\n    using Position for uint256;\n    using SafeCast for int256;\n    using AddressArrayUtils for address[];\n    using Invoke for ISetToken;\n    using Position for ISetToken;\n\n    /* ============ Structs ============ */\n    \n    struct AirdropSettings {\n        address[] airdrops;    // Array of tokens manager is allowing to be absorbed\n        address feeRecipient;  // Address airdrop fees are sent to\n        uint256 airdropFee;    // Percentage in preciseUnits of airdrop sent to feeRecipient (1e16 = 1%)\n        bool anyoneAbsorb;     // Boolean indicating if any address can call absorb or just the manager\n    }\n\n    /* ============ Events ============ */\n\n    event ComponentAbsorbed(\n        ISetToken indexed _setToken,\n        address _absorbedToken,\n        uint256 _absorbedQuantity,\n        uint256 _managerFee,\n        uint256 _protocolFee\n    );\n\n    /* ============ Modifiers ============ */\n\n    /**\n     * Throws if claim is confined to the manager and caller is not the manager\n     */\n    modifier onlyValidCaller(ISetToken _setToken) {\n        require(_isValidCaller(_setToken), \"Must be valid caller\");\n        _;\n    }\n\n    /* ============ Constants ============ */\n\n    uint256 public constant AIRDROP_MODULE_PROTOCOL_FEE_INDEX = 0;\n\n    /* ============ State Variables ============ */\n\n    mapping(ISetToken => AirdropSettings) public airdropSettings;\n\n    /* ============ Constructor ============ */\n\n    constructor(IController _controller) public ModuleBase(_controller) {}\n\n    /* ============ External Functions ============ */\n\n    /**\n     * Absorb passed tokens into respective positions. If airdropFee defined, send portion to feeRecipient and portion to\n     * protocol feeRecipient address. Callable only by manager unless manager has set anyoneAbsorb to true.\n     *\n     * @param _setToken                 Address of SetToken\n     * @param _tokens                   Array of tokens to absorb\n     */\n    function batchAbsorb(ISetToken _setToken, address[] memory _tokens)\n        external\n        nonReentrant\n        onlyValidCaller(_setToken)\n        onlyValidAndInitializedSet(_setToken)\n    {\n        _batchAbsorb(_setToken, _tokens);\n    }\n\n    /**\n     * Absorb specified token into position. If airdropFee defined, send portion to feeRecipient and portion to\n     * protocol feeRecipient address. Callable only by manager unless manager has set anyoneAbsorb to true.\n     *\n     * @param _setToken                 Address of SetToken\n     * @param _token                    Address of token to absorb\n     */\n    function absorb(ISetToken _setToken, address _token)\n        external\n        nonReentrant\n        onlyValidCaller(_setToken)\n        onlyValidAndInitializedSet(_setToken)\n    {\n        _absorb(_setToken, _token);\n    }\n\n    /**\n     * SET MANAGER ONLY. Adds new tokens to be added to positions when absorb is called.\n     *\n     * @param _setToken                 Address of SetToken\n     * @param _airdrop                  List of airdrops to add\n     */\n    function addAirdrop(ISetToken _setToken, address _airdrop) external onlyManagerAndValidSet(_setToken) {\n        require(!isAirdropToken(_setToken, _airdrop), \"Token already added.\");\n        airdropSettings[_setToken].airdrops.push(_airdrop);\n    }\n\n    /**\n     * SET MANAGER ONLY. Removes tokens from list to be absorbed.\n     *\n     * @param _setToken                 Address of SetToken\n     * @param _airdrop                  List of airdrops to remove\n     */\n    function removeAirdrop(ISetToken _setToken, address _airdrop) external onlyManagerAndValidSet(_setToken) {\n        require(isAirdropToken(_setToken, _airdrop), \"Token not added.\");\n        airdropSettings[_setToken].airdrops = airdropSettings[_setToken].airdrops.remove(_airdrop);\n    }\n\n    /**\n     * SET MANAGER ONLY. Update whether manager allows other addresses to call absorb.\n     *\n     * @param _setToken                 Address of SetToken\n     */\n    function updateAnyoneAbsorb(ISetToken _setToken) external onlyManagerAndValidSet(_setToken) {\n        airdropSettings[_setToken].anyoneAbsorb = !airdropSettings[_setToken].anyoneAbsorb;\n    }\n\n    /**\n     * SET MANAGER ONLY. Update address manager fees are sent to.\n     *\n     * @param _setToken             Address of SetToken\n     * @param _newFeeRecipient      Address of new fee recipient\n     */\n    function updateFeeRecipient(\n        ISetToken _setToken,\n        address _newFeeRecipient\n    )\n        external\n        onlySetManager(_setToken, msg.sender)\n        onlyValidAndInitializedSet(_setToken)\n    {\n        require(_newFeeRecipient != address(0), \"Passed address must be non-zero\");\n        airdropSettings[_setToken].feeRecipient = _newFeeRecipient;\n    }\n\n    /**\n     * SET MANAGER ONLY. Update airdrop fee percentage.\n     *\n     * @param _setToken         Address of SetToken\n     * @param _newFee           Percentage, in preciseUnits, of new airdrop fee (1e16 = 1%)\n     */\n    function updateAirdropFee(\n        ISetToken _setToken,\n        uint256 _newFee\n    )\n        external\n        onlySetManager(_setToken, msg.sender)\n        onlyValidAndInitializedSet(_setToken)\n    {\n        require(_newFee <  PreciseUnitMath.preciseUnit(), \"Airdrop fee can't exceed 100%\");\n\n        // Absorb all outstanding tokens before fee is updated\n        _batchAbsorb(_setToken, airdropSettings[_setToken].airdrops);\n\n        airdropSettings[_setToken].airdropFee = _newFee;\n    }\n\n    /**\n     * SET MANAGER ONLY. Initialize module with SetToken and set initial airdrop tokens as well as specify\n     * whether anyone can call absorb.\n     *\n     * @param _setToken                 Address of SetToken\n     * @param _airdropSettings          Struct of airdrop setting for Set including accepted airdrops, feeRecipient,\n     *                                  airdropFee, and indicating if anyone can call an absorb\n     */\n    function initialize(\n        ISetToken _setToken,\n        AirdropSettings memory _airdropSettings\n    )\n        external\n        onlySetManager(_setToken, msg.sender)\n        onlyValidAndPendingSet(_setToken)\n    {\n        require(_airdropSettings.airdrops.length > 0, \"At least one token must be passed.\");\n        require(_airdropSettings.airdropFee <= PreciseUnitMath.preciseUnit(), \"Fee must be <= 100%.\");\n\n        airdropSettings[_setToken] = _airdropSettings;\n\n        _setToken.initializeModule();\n    }\n\n    /**\n     * Removes this module from the SetToken, via call by the SetToken. Token's airdrop settings are deleted.\n     * Airdrops are not absorbed.\n     */\n    function removeModule() external override {\n        delete airdropSettings[ISetToken(msg.sender)];\n    }\n\n    /**\n     * Get list of tokens approved to collect airdrops for the SetToken.\n     *\n     * @param _setToken             Address of SetToken\n     * @return                      Array of tokens approved for airdrops\n     */\n    function getAirdrops(ISetToken _setToken) external view returns (address[] memory) {\n        return _airdrops(_setToken);\n    }\n\n    /**\n     * Get boolean indicating if token is approved for airdrops.\n     *\n     * @param _setToken             Address of SetToken\n     * @return                      Boolean indicating approval for airdrops\n     */\n    function isAirdropToken(ISetToken _setToken, address _token) public view returns (bool) {\n        return _airdrops(_setToken).contains(_token);\n    }\n\n    /* ============ Internal Functions ============ */\n\n    /**\n     * Check token approved for airdrops then handle airdropped postion.\n     */\n    function _absorb(ISetToken _setToken, address _token) internal {\n        require(isAirdropToken(_setToken, _token), \"Must be approved token.\");\n\n        _handleAirdropPosition(_setToken, _token);\n    }\n\n    function _batchAbsorb(ISetToken _setToken, address[] memory _tokens) internal {\n        for (uint256 i = 0; i < _tokens.length; i++) {\n            _absorb(_setToken, _tokens[i]);\n        }\n    }\n\n    /**\n     * Calculate amount of tokens airdropped since last absorption, then distribute fees and update position.\n     *\n     * @param _setToken                 Address of SetToken\n     * @param _token                    Address of airdropped token\n     */\n    function _handleAirdropPosition(ISetToken _setToken, address _token) internal {\n        uint256 preFeeTokenBalance = ERC20(_token).balanceOf(address(_setToken));\n        uint256 amountAirdropped = preFeeTokenBalance.sub(_setToken.getDefaultTrackedBalance(_token));\n\n\n        if (amountAirdropped > 0) {\n            (uint256 managerTake, uint256 protocolTake, uint256 totalFees) = _handleFees(_setToken, _token, amountAirdropped);\n            \n            uint256 newUnit = _getPostAirdropUnit(_setToken, preFeeTokenBalance, totalFees);\n\n            _setToken.editDefaultPosition(_token, newUnit);\n\n            emit ComponentAbsorbed(_setToken, _token, amountAirdropped, managerTake, protocolTake);\n        }\n    }\n\n    /**\n     * Calculate fee total and distribute between feeRecipient defined on module and the protocol feeRecipient.\n     *\n     * @param _setToken                 Address of SetToken\n     * @param _component                Address of airdropped component\n     * @param _amountAirdropped         Amount of tokens airdropped to the SetToken\n     * @return                          Amount of airdropped tokens set aside for manager fees\n     * @return                          Amount of airdropped tokens set aside for protocol fees\n     * @return                          Total fees paid\n     */\n    function _handleFees(\n        ISetToken _setToken,\n        address _component,\n        uint256 _amountAirdropped\n    )\n        internal\n        returns (uint256, uint256, uint256)\n    {\n        uint256 airdropFee = airdropSettings[_setToken].airdropFee;\n\n        if (airdropFee > 0) {\n            uint256 managerTake = _amountAirdropped.preciseMul(airdropFee);\n            \n            uint256 protocolTake = ModuleBase.getModuleFee(AIRDROP_MODULE_PROTOCOL_FEE_INDEX, managerTake);\n            uint256 netManagerTake = managerTake.sub(protocolTake);\n            uint256 totalFees = netManagerTake.add(protocolTake);\n\n            _setToken.invokeTransfer(_component, airdropSettings[_setToken].feeRecipient, netManagerTake);\n            \n            ModuleBase.payProtocolFeeFromSetToken(_setToken, _component, protocolTake);\n\n            return (netManagerTake, protocolTake, totalFees);\n        } else {\n            return (0, 0, 0);\n        }\n    }\n\n    /**\n     * Retrieve new unit, which is the current balance less fees paid divided by total supply\n     */ \n    function _getPostAirdropUnit(\n        ISetToken _setToken,\n        uint256 _totalComponentBalance,\n        uint256 _totalFeesPaid\n\n    ) internal view returns(uint256) {\n        uint256 totalSupply = _setToken.totalSupply();\n        return totalSupply.getDefaultPositionUnit(_totalComponentBalance.sub(_totalFeesPaid));\n    }\n\n    /**\n     * If absorption is confined to the manager, manager must be caller\n     */ \n    function _isValidCaller(ISetToken _setToken) internal view returns(bool) {\n        return airdropSettings[_setToken].anyoneAbsorb || isSetManager(_setToken, msg.sender);       \n    }\n\n    function _airdrops(ISetToken _setToken) internal view returns(address[] memory) {\n        return airdropSettings[_setToken].airdrops;\n    }\n}",
  "sourcePath": "/Users/tahadhailey/Documents/top5/top5swap/swap/contracts/protocol/modules/AirdropModule.sol",
  "compiler": {
    "name": "solc",
    "version": "0.6.10+commit.00c0fcaf.Emscripten.clang"
  },
  "schemaVersion": "3.2.1",
  "updatedAt": "2021-01-21T08:20:37.718Z",
  "devdoc": {
    "author": "Set Protocol Module that enables managers to absorb tokens sent to the SetToken into the token's positions. With each SetToken, managers are able to specify 1) the airdrops they want to include, 2) an airdrop fee recipient, 3) airdrop fee, and 4) whether all users are allowed to trigger an airdrop.",
    "methods": {
      "absorb(address,address)": {
        "params": {
          "_setToken": "Address of SetToken",
          "_token": "Address of token to absorb"
        }
      },
      "addAirdrop(address,address)": {
        "params": {
          "_airdrop": "List of airdrops to add",
          "_setToken": "Address of SetToken"
        }
      },
      "batchAbsorb(address,address[])": {
        "params": {
          "_setToken": "Address of SetToken",
          "_tokens": "Array of tokens to absorb"
        }
      },
      "getAirdrops(address)": {
        "params": {
          "_setToken": "Address of SetToken"
        },
        "returns": {
          "_0": "Array of tokens approved for airdrops"
        }
      },
      "initialize(address,(address[],address,uint256,bool))": {
        "params": {
          "_airdropSettings": "Struct of airdrop setting for Set including accepted airdrops, feeRecipient,                                  airdropFee, and indicating if anyone can call an absorb",
          "_setToken": "Address of SetToken"
        }
      },
      "isAirdropToken(address,address)": {
        "params": {
          "_setToken": "Address of SetToken"
        },
        "returns": {
          "_0": "Boolean indicating approval for airdrops"
        }
      },
      "removeAirdrop(address,address)": {
        "params": {
          "_airdrop": "List of airdrops to remove",
          "_setToken": "Address of SetToken"
        }
      },
      "updateAirdropFee(address,uint256)": {
        "params": {
          "_newFee": "Percentage, in preciseUnits, of new airdrop fee (1e16 = 1%)",
          "_setToken": "Address of SetToken"
        }
      },
      "updateAnyoneAbsorb(address)": {
        "params": {
          "_setToken": "Address of SetToken"
        }
      },
      "updateFeeRecipient(address,address)": {
        "params": {
          "_newFeeRecipient": "Address of new fee recipient",
          "_setToken": "Address of SetToken"
        }
      }
    },
    "title": "AirdropModule"
  },
  "userdoc": {
    "methods": {
      "absorb(address,address)": {
        "notice": "Absorb specified token into position. If airdropFee defined, send portion to feeRecipient and portion to protocol feeRecipient address. Callable only by manager unless manager has set anyoneAbsorb to true."
      },
      "addAirdrop(address,address)": {
        "notice": "SET MANAGER ONLY. Adds new tokens to be added to positions when absorb is called."
      },
      "batchAbsorb(address,address[])": {
        "notice": "Absorb passed tokens into respective positions. If airdropFee defined, send portion to feeRecipient and portion to protocol feeRecipient address. Callable only by manager unless manager has set anyoneAbsorb to true."
      },
      "getAirdrops(address)": {
        "notice": "Get list of tokens approved to collect airdrops for the SetToken."
      },
      "initialize(address,(address[],address,uint256,bool))": {
        "notice": "SET MANAGER ONLY. Initialize module with SetToken and set initial airdrop tokens as well as specify whether anyone can call absorb."
      },
      "isAirdropToken(address,address)": {
        "notice": "Get boolean indicating if token is approved for airdrops."
      },
      "removeAirdrop(address,address)": {
        "notice": "SET MANAGER ONLY. Removes tokens from list to be absorbed."
      },
      "removeModule()": {
        "notice": "Removes this module from the SetToken, via call by the SetToken. Token's airdrop settings are deleted. Airdrops are not absorbed."
      },
      "updateAirdropFee(address,uint256)": {
        "notice": "SET MANAGER ONLY. Update airdrop fee percentage."
      },
      "updateAnyoneAbsorb(address)": {
        "notice": "SET MANAGER ONLY. Update whether manager allows other addresses to call absorb."
      },
      "updateFeeRecipient(address,address)": {
        "notice": "SET MANAGER ONLY. Update address manager fees are sent to."
      }
    }
  }
}