{
  "contractName": "AmmModule",
  "abi": [
    {
      "inputs": [
        {
          "internalType": "contract IController",
          "name": "_controller",
          "type": "address"
        }
      ],
      "stateMutability": "nonpayable",
      "type": "constructor"
    },
    {
      "anonymous": false,
      "inputs": [
        {
          "indexed": true,
          "internalType": "contract ISetToken",
          "name": "_setToken",
          "type": "address"
        },
        {
          "indexed": true,
          "internalType": "address",
          "name": "_ammPool",
          "type": "address"
        },
        {
          "indexed": false,
          "internalType": "int256",
          "name": "_ammPoolBalancesDelta",
          "type": "int256"
        },
        {
          "indexed": false,
          "internalType": "address[]",
          "name": "_components",
          "type": "address[]"
        },
        {
          "indexed": false,
          "internalType": "int256[]",
          "name": "_componentBalancesDelta",
          "type": "int256[]"
        }
      ],
      "name": "LiquidityAdded",
      "type": "event"
    },
    {
      "anonymous": false,
      "inputs": [
        {
          "indexed": true,
          "internalType": "contract ISetToken",
          "name": "_setToken",
          "type": "address"
        },
        {
          "indexed": true,
          "internalType": "address",
          "name": "_ammPool",
          "type": "address"
        },
        {
          "indexed": false,
          "internalType": "int256",
          "name": "_ammPoolBalancesDelta",
          "type": "int256"
        },
        {
          "indexed": false,
          "internalType": "address[]",
          "name": "_components",
          "type": "address[]"
        },
        {
          "indexed": false,
          "internalType": "int256[]",
          "name": "_componentBalancesDelta",
          "type": "int256[]"
        }
      ],
      "name": "LiquidityRemoved",
      "type": "event"
    },
    {
      "inputs": [],
      "name": "controller",
      "outputs": [
        {
          "internalType": "contract IController",
          "name": "",
          "type": "address"
        }
      ],
      "stateMutability": "view",
      "type": "function"
    },
    {
      "inputs": [
        {
          "internalType": "contract ISetToken",
          "name": "_setToken",
          "type": "address"
        },
        {
          "internalType": "string",
          "name": "_ammName",
          "type": "string"
        },
        {
          "internalType": "address",
          "name": "_ammPool",
          "type": "address"
        },
        {
          "internalType": "uint256",
          "name": "_minPoolTokenPositionUnit",
          "type": "uint256"
        },
        {
          "internalType": "address[]",
          "name": "_components",
          "type": "address[]"
        },
        {
          "internalType": "uint256[]",
          "name": "_maxComponentUnits",
          "type": "uint256[]"
        }
      ],
      "name": "addLiquidity",
      "outputs": [],
      "stateMutability": "nonpayable",
      "type": "function"
    },
    {
      "inputs": [
        {
          "internalType": "contract ISetToken",
          "name": "_setToken",
          "type": "address"
        },
        {
          "internalType": "string",
          "name": "_ammName",
          "type": "string"
        },
        {
          "internalType": "address",
          "name": "_ammPool",
          "type": "address"
        },
        {
          "internalType": "uint256",
          "name": "_minPoolTokenPositionUnit",
          "type": "uint256"
        },
        {
          "internalType": "address",
          "name": "_component",
          "type": "address"
        },
        {
          "internalType": "uint256",
          "name": "_maxComponentUnit",
          "type": "uint256"
        }
      ],
      "name": "addLiquiditySingleAsset",
      "outputs": [],
      "stateMutability": "nonpayable",
      "type": "function"
    },
    {
      "inputs": [
        {
          "internalType": "contract ISetToken",
          "name": "_setToken",
          "type": "address"
        },
        {
          "internalType": "string",
          "name": "_ammName",
          "type": "string"
        },
        {
          "internalType": "address",
          "name": "_ammPool",
          "type": "address"
        },
        {
          "internalType": "uint256",
          "name": "_poolTokenPositionUnits",
          "type": "uint256"
        },
        {
          "internalType": "address[]",
          "name": "_components",
          "type": "address[]"
        },
        {
          "internalType": "uint256[]",
          "name": "_minComponentUnitsReceived",
          "type": "uint256[]"
        }
      ],
      "name": "removeLiquidity",
      "outputs": [],
      "stateMutability": "nonpayable",
      "type": "function"
    },
    {
      "inputs": [
        {
          "internalType": "contract ISetToken",
          "name": "_setToken",
          "type": "address"
        },
        {
          "internalType": "string",
          "name": "_ammName",
          "type": "string"
        },
        {
          "internalType": "address",
          "name": "_ammPool",
          "type": "address"
        },
        {
          "internalType": "uint256",
          "name": "_poolTokenPositionUnits",
          "type": "uint256"
        },
        {
          "internalType": "address",
          "name": "_component",
          "type": "address"
        },
        {
          "internalType": "uint256",
          "name": "_minComponentUnitsReceived",
          "type": "uint256"
        }
      ],
      "name": "removeLiquiditySingleAsset",
      "outputs": [],
      "stateMutability": "nonpayable",
      "type": "function"
    },
    {
      "inputs": [
        {
          "internalType": "contract ISetToken",
          "name": "_setToken",
          "type": "address"
        }
      ],
      "name": "initialize",
      "outputs": [],
      "stateMutability": "nonpayable",
      "type": "function"
    },
    {
      "inputs": [],
      "name": "removeModule",
      "outputs": [],
      "stateMutability": "nonpayable",
      "type": "function"
    }
  ],
  "bytecode": "0x60806040523480156200001157600080fd5b506040516200467e3803806200467e83398181016040528101906200003791906200009e565b80806000806101000a81548173ffffffffffffffffffffffffffffffffffffffff021916908373ffffffffffffffffffffffffffffffffffffffff1602179055505060018081905550506200012c565b600081519050620000988162000112565b92915050565b600060208284031215620000b157600080fd5b6000620000c18482850162000087565b91505092915050565b6000620000d782620000f2565b9050919050565b6000620000eb82620000ca565b9050919050565b600073ffffffffffffffffffffffffffffffffffffffff82169050919050565b6200011d81620000de565b81146200012957600080fd5b50565b614542806200013c6000396000f3fe608060405234801561001057600080fd5b506004361061007d5760003560e01c80637f22d5a91161005b5780637f22d5a9146100d6578063847ef08d146100f2578063c4d66de8146100fc578063f77c4791146101185761007d565b806323d22fcc1461008257806325da5bce1461009e5780634301f50b146100ba575b600080fd5b61009c600480360381019061009791906131c2565b610136565b005b6100b860048036038101906100b391906131c2565b6102ed565b005b6100d460048036038101906100cf9190613263565b61049b565b005b6100f060048036038101906100eb9190613263565b6106d3565b005b6100fa610902565b005b61011660048036038101906101119190613199565b610904565b005b610120610ae7565b60405161012d9190613ea0565b60405180910390f35b6002600154141561017c576040517f08c379a000000000000000000000000000000000000000000000000000000000815260040161017390614189565b60405180910390fd5b60026001819055508561018f8133610b0c565b6101ce576040517f08c379a00000000000000000000000000000000000000000000000000000000081526004016101c590614129565b60405180910390fd5b6101d781610bc2565b610216576040517f08c379a000000000000000000000000000000000000000000000000000000000815260040161020d90613f89565b60405180910390fd5b61021e612d77565b61022c88888887878a610d06565b905061023781610e24565b61024081610ef6565b61024981611011565b6102528161118c565b606061025d82611282565b9050600061026a836113bc565b90508773ffffffffffffffffffffffffffffffffffffffff168a73ffffffffffffffffffffffffffffffffffffffff167ffb25cb38aa450eb8599fc4cfc9ff93dcfe388e7edcc269f19b7b87c03db4320583866101200151866040516102d293929190613f02565b60405180910390a35050505060018081905550505050505050565b60026001541415610333576040517f08c379a000000000000000000000000000000000000000000000000000000000815260040161032a90614189565b60405180910390fd5b6002600181905550856103468133610b0c565b610385576040517f08c379a000000000000000000000000000000000000000000000000000000000815260040161037c90614129565b60405180910390fd5b61038e81610bc2565b6103cd576040517f08c379a00000000000000000000000000000000000000000000000000000000081526004016103c490613f89565b60405180910390fd5b6103d5612d77565b6103e388888887878a610d06565b90506103ee8161142f565b6103f78161152e565b610400816116a9565b600061040b826113bc565b9050606061041883611282565b90508773ffffffffffffffffffffffffffffffffffffffff168a73ffffffffffffffffffffffffffffffffffffffff167f0688ed60083117bc181b80cb6e15c45b1b41221b6982336e8610c9fc48eec17d848661012001518560405161048093929190613f02565b60405180910390a35050505060018081905550505050505050565b600260015414156104e1576040517f08c379a00000000000000000000000000000000000000000000000000000000081526004016104d890614189565b60405180910390fd5b6002600181905550876104f48133610b0c565b610533576040517f08c379a000000000000000000000000000000000000000000000000000000000815260040161052a90614129565b60405180910390fd5b61053c81610bc2565b61057b576040517f08c379a000000000000000000000000000000000000000000000000000000000815260040161057290613f89565b60405180910390fd5b610583612d77565b6106138a8a8a898980806020026020016040519081016040528093929190818152602001838360200280828437600081840152601f19601f82011690508083019250505050505050888880806020026020016040519081016040528093929190818152602001838360200280828437600081840152601f19601f820116905080830192505050505050508c6117fb565b905061061e81610e24565b61062781610ef6565b61063081611a3a565b6106398161118c565b606061064482611282565b90506000610651836113bc565b90508973ffffffffffffffffffffffffffffffffffffffff168c73ffffffffffffffffffffffffffffffffffffffff167ffb25cb38aa450eb8599fc4cfc9ff93dcfe388e7edcc269f19b7b87c03db43205838b8b876040516106b69493929190613ebb565b60405180910390a350505050600180819055505050505050505050565b60026001541415610719576040517f08c379a000000000000000000000000000000000000000000000000000000000815260040161071090614189565b60405180910390fd5b60026001819055508761072c8133610b0c565b61076b576040517f08c379a000000000000000000000000000000000000000000000000000000000815260040161076290614129565b60405180910390fd5b61077481610bc2565b6107b3576040517f08c379a00000000000000000000000000000000000000000000000000000000081526004016107aa90613f89565b60405180910390fd5b6107bb612d77565b61084b8a8a8a898980806020026020016040519081016040528093929190818152602001838360200280828437600081840152601f19601f82011690508083019250505050505050888880806020026020016040519081016040528093929190818152602001838360200280828437600081840152601f19601f820116905080830192505050505050508c6117fb565b90506108568161142f565b61085f81611b8d565b610868816116a9565b6000610873826113bc565b9050606061088083611282565b90508973ffffffffffffffffffffffffffffffffffffffff168c73ffffffffffffffffffffffffffffffffffffffff167f0688ed60083117bc181b80cb6e15c45b1b41221b6982336e8610c9fc48eec17d848b8b866040516108e59493929190613ebb565b60405180910390a350505050600180819055505050505050505050565b565b80336109108282610b0c565b61094f576040517f08c379a000000000000000000000000000000000000000000000000000000000815260040161094690614129565b60405180910390fd5b826000809054906101000a900473ffffffffffffffffffffffffffffffffffffffff1673ffffffffffffffffffffffffffffffffffffffff166374ebe3ec826040518263ffffffff1660e01b81526004016109aa9190613cf6565b60206040518083038186803b1580156109c257600080fd5b505afa1580156109d6573d6000803e3d6000fd5b505050506040513d601f19601f820116820180604052508101906109fa919061312f565b610a39576040517f08c379a0000000000000000000000000000000000000000000000000000000008152600401610a3090614109565b60405180910390fd5b610a4281611ce0565b610a81576040517f08c379a0000000000000000000000000000000000000000000000000000000008152600401610a7890614009565b60405180910390fd5b8373ffffffffffffffffffffffffffffffffffffffff16630ffe0f1e6040518163ffffffff1660e01b8152600401600060405180830381600087803b158015610ac957600080fd5b505af1158015610add573d6000803e3d6000fd5b5050505050505050565b6000809054906101000a900473ffffffffffffffffffffffffffffffffffffffff1681565b60008173ffffffffffffffffffffffffffffffffffffffff168373ffffffffffffffffffffffffffffffffffffffff1663481c6a756040518163ffffffff1660e01b815260040160206040518083038186803b158015610b6b57600080fd5b505afa158015610b7f573d6000803e3d6000fd5b505050506040513d601f19601f82011682018060405250810190610ba3919061305e565b73ffffffffffffffffffffffffffffffffffffffff1614905092915050565b60008060009054906101000a900473ffffffffffffffffffffffffffffffffffffffff1673ffffffffffffffffffffffffffffffffffffffff166374ebe3ec836040518263ffffffff1660e01b8152600401610c1e9190613cf6565b60206040518083038186803b158015610c3657600080fd5b505afa158015610c4a573d6000803e3d6000fd5b505050506040513d601f19601f82011682018060405250810190610c6e919061312f565b8015610cff57508173ffffffffffffffffffffffffffffffffffffffff1663d7f1b27c306040518263ffffffff1660e01b8152600401610cae9190613cf6565b60206040518083038186803b158015610cc657600080fd5b505afa158015610cda573d6000803e3d6000fd5b505050506040513d601f19601f82011682018060405250810190610cfe919061312f565b5b9050919050565b610d0e612d77565b6060600167ffffffffffffffff81118015610d2857600080fd5b50604051908082528060200260200182016040528015610d575781602001602082028036833780820191505090505b5090508481600081518110610d6857fe5b602002602001019073ffffffffffffffffffffffffffffffffffffffff16908173ffffffffffffffffffffffffffffffffffffffff16815250506060600167ffffffffffffffff81118015610dbc57600080fd5b50604051908082528060200260200182016040528015610deb5781602001602082028036833780820191505090505b5090508481600081518110610dfc57fe5b602002602001018181525050610e168989898585896117fb565b925050509695505050505050565b610e2d81611d72565b60008090505b81610120015151811015610ef25760008261012001518281518110610e5457fe5b60200260200101519050610ea5818461010001518481518110610e7357fe5b6020026020010151856000015173ffffffffffffffffffffffffffffffffffffffff16611eda9092919063ffffffff16565b610ee4576040517f08c379a0000000000000000000000000000000000000000000000000000000008152600401610edb90613fc9565b60405180910390fd5b508080600101915050610e33565b5050565b6000816040015173ffffffffffffffffffffffffffffffffffffffff16630e8edd8683606001516040518263ffffffff1660e01b8152600401610f399190613cf6565b60206040518083038186803b158015610f5157600080fd5b505afa158015610f65573d6000803e3d6000fd5b505050506040513d601f19601f82011682018060405250810190610f89919061305e565b905060008090505b8261012001515181101561100c57610fff8361012001518281518110610fb357fe5b6020026020010151838560e001518481518110610fcc57fe5b6020026020010151866000015173ffffffffffffffffffffffffffffffffffffffff16611f79909392919063ffffffff16565b8080600101915050610f91565b505050565b6000806060836040015173ffffffffffffffffffffffffffffffffffffffff16630e956eec856060015186610120015160008151811061104d57fe5b60200260200101518760e0015160008151811061106657fe5b60200260200101518860c001516040518563ffffffff1660e01b81526004016110929493929190613d11565b60006040518083038186803b1580156110aa57600080fd5b505afa1580156110be573d6000803e3d6000fd5b505050506040513d6000823e3d601f19601f820116820180604052508101906110e79190613087565b925092509250836000015173ffffffffffffffffffffffffffffffffffffffff16638f6f03328484846040518463ffffffff1660e01b815260040161112e93929190613e62565b600060405180830381600087803b15801561114857600080fd5b505af115801561115c573d6000803e3d6000fd5b505050506040513d6000823e3d601f19601f820116820180604052508101906111859190613158565b5050505050565b6000816060015173ffffffffffffffffffffffffffffffffffffffff166370a0823183600001516040518263ffffffff1660e01b81526004016111cf9190613cf6565b60206040518083038186803b1580156111e757600080fd5b505afa1580156111fb573d6000803e3d6000fd5b505050506040513d601f19601f8201168201806040525081019061121f9190613367565b905061123c82608001518360c001516120aa90919063ffffffff16565b81101561127e576040517f08c379a0000000000000000000000000000000000000000000000000000000008152600401611275906140c9565b60405180910390fd5b5050565b6060808261012001515167ffffffffffffffff811180156112a257600080fd5b506040519080825280602002602001820160405280156112d15781602001602082028036833780820191505090505b50905060008090505b836101200151518110156113b257600061134e85610120015183815181106112fe57fe5b602002602001015186602001518760a00151858151811061131b57fe5b6020026020010151886000015173ffffffffffffffffffffffffffffffffffffffff166120ff909392919063ffffffff16565b5050905061138c6113758660a00151848151811061136857fe5b6020026020010151612268565b61137e83612268565b6122d490919063ffffffff16565b83838151811061139857fe5b6020026020010181815250505080806001019150506112da565b5080915050919050565b6000806113fc836060015184602001518560800151866000015173ffffffffffffffffffffffffffffffffffffffff166120ff909392919063ffffffff16565b505090506114276114108460800151612268565b61141983612268565b6122d490919063ffffffff16565b915050919050565b61143881611d72565b60008090505b816101200151518110156114b4576000826101000151828151811061145f57fe5b6020026020010151116114a7576040517f08c379a000000000000000000000000000000000000000000000000000000000815260040161149e90613f69565b60405180910390fd5b808060010191505061143e565b506114ec81606001518260c00151836000015173ffffffffffffffffffffffffffffffffffffffff16611eda9092919063ffffffff16565b61152b576040517f08c379a000000000000000000000000000000000000000000000000000000000815260040161152290614029565b60405180910390fd5b50565b6000806060836040015173ffffffffffffffffffffffffffffffffffffffff1663c32110f8856060015186610120015160008151811061156a57fe5b60200260200101518760e0015160008151811061158357fe5b60200260200101518860c001516040518563ffffffff1660e01b81526004016115af9493929190613d11565b60006040518083038186803b1580156115c757600080fd5b505afa1580156115db573d6000803e3d6000fd5b505050506040513d6000823e3d601f19601f820116820180604052508101906116049190613087565b925092509250836000015173ffffffffffffffffffffffffffffffffffffffff16638f6f03328484846040518463ffffffff1660e01b815260040161164b93929190613e62565b600060405180830381600087803b15801561166557600080fd5b505af1158015611679573d6000803e3d6000fd5b505050506040513d6000823e3d601f19601f820116820180604052508101906116a29190613158565b5050505050565b60008090505b816101200151518110156117f757600082610120015182815181106116d057fe5b602002602001015173ffffffffffffffffffffffffffffffffffffffff166370a0823184600001516040518263ffffffff1660e01b81526004016117149190613cf6565b60206040518083038186803b15801561172c57600080fd5b505afa158015611740573d6000803e3d6000fd5b505050506040513d601f19601f820116820180604052508101906117649190613367565b90506117a78360a00151838151811061177957fe5b60200260200101518460e00151848151811061179157fe5b60200260200101516120aa90919063ffffffff16565b8110156117e9576040517f08c379a00000000000000000000000000000000000000000000000000000000081526004016117e090613fa9565b60405180910390fd5b5080806001019150506116af565b5050565b611803612d77565b61180b612d77565b87816000019073ffffffffffffffffffffffffffffffffffffffff16908173ffffffffffffffffffffffffffffffffffffffff16815250508773ffffffffffffffffffffffffffffffffffffffff166318160ddd6040518163ffffffff1660e01b815260040160206040518083038186803b15801561188957600080fd5b505afa15801561189d573d6000803e3d6000fd5b505050506040513d601f19601f820116820180604052508101906118c19190613367565b8160200181815250506118d38761234c565b816040019073ffffffffffffffffffffffffffffffffffffffff16908173ffffffffffffffffffffffffffffffffffffffff168152505085816060019073ffffffffffffffffffffffffffffffffffffffff16908173ffffffffffffffffffffffffffffffffffffffff16815250508573ffffffffffffffffffffffffffffffffffffffff166370a08231896040518263ffffffff1660e01b815260040161197b9190613cf6565b60206040518083038186803b15801561199357600080fd5b505afa1580156119a7573d6000803e3d6000fd5b505050506040513d601f19601f820116820180604052508101906119cb9190613367565b8160800181815250506119de888661236b565b8160a001819052506119fd83826020015161249390919063ffffffff16565b8160c0018181525050611a1088856124b0565b8160e001819052508381610100018190525084816101200181905250809150509695505050505050565b6000806060836040015173ffffffffffffffffffffffffffffffffffffffff16637adfec1985606001518661012001518760e001518860c001516040518563ffffffff1660e01b8152600401611a939493929190613d56565b60006040518083038186803b158015611aab57600080fd5b505afa158015611abf573d6000803e3d6000fd5b505050506040513d6000823e3d601f19601f82011682018060405250810190611ae89190613087565b925092509250836000015173ffffffffffffffffffffffffffffffffffffffff16638f6f03328484846040518463ffffffff1660e01b8152600401611b2f93929190613e62565b600060405180830381600087803b158015611b4957600080fd5b505af1158015611b5d573d6000803e3d6000fd5b505050506040513d6000823e3d601f19601f82011682018060405250810190611b869190613158565b5050505050565b6000806060836040015173ffffffffffffffffffffffffffffffffffffffff1663696853a385606001518661012001518760e001518860c001516040518563ffffffff1660e01b8152600401611be69493929190613d56565b60006040518083038186803b158015611bfe57600080fd5b505afa158015611c12573d6000803e3d6000fd5b505050506040513d6000823e3d601f19601f82011682018060405250810190611c3b9190613087565b925092509250836000015173ffffffffffffffffffffffffffffffffffffffff16638f6f03328484846040518463ffffffff1660e01b8152600401611c8293929190613e62565b600060405180830381600087803b158015611c9c57600080fd5b505af1158015611cb0573d6000803e3d6000fd5b505050506040513d6000823e3d601f19601f82011682018060405250810190611cd99190613158565b5050505050565b60008173ffffffffffffffffffffffffffffffffffffffff166353bae5f7306040518263ffffffff1660e01b8152600401611d1b9190613cf6565b60206040518083038186803b158015611d3357600080fd5b505afa158015611d47573d6000803e3d6000fd5b505050506040513d601f19601f82011682018060405250810190611d6b919061312f565b9050919050565b806101200151518161010001515114611dc0576040517f08c379a0000000000000000000000000000000000000000000000000000000008152600401611db790614049565b60405180910390fd5b60008160c0015111611e07576040517f08c379a0000000000000000000000000000000000000000000000000000000008152600401611dfe90614169565b60405180910390fd5b806040015173ffffffffffffffffffffffffffffffffffffffff16635ab78ee182606001516040518263ffffffff1660e01b8152600401611e489190613cf6565b60206040518083038186803b158015611e6057600080fd5b505afa158015611e74573d6000803e3d6000fd5b505050506040513d601f19601f82011682018060405250810190611e98919061312f565b611ed7576040517f08c379a0000000000000000000000000000000000000000000000000000000008152600401611ece906141a9565b60405180910390fd5b50565b6000611ee582612268565b8473ffffffffffffffffffffffffffffffffffffffff166366cb8d2f856040518263ffffffff1660e01b8152600401611f1e9190613cf6565b60206040518083038186803b158015611f3657600080fd5b505afa158015611f4a573d6000803e3d6000fd5b505050506040513d601f19601f82011682018060405250810190611f6e919061333e565b121590509392505050565b60608282604051602401611f8e929190613e39565b6040516020818303038152906040527f095ea7b3000000000000000000000000000000000000000000000000000000007bffffffffffffffffffffffffffffffffffffffffffffffffffffffff19166020820180517bffffffffffffffffffffffffffffffffffffffffffffffffffffffff838183161783525050505090508473ffffffffffffffffffffffffffffffffffffffff16638f6f0332856000846040518463ffffffff1660e01b815260040161204b93929190613dfb565b600060405180830381600087803b15801561206557600080fd5b505af1158015612079573d6000803e3d6000fd5b505050506040513d6000823e3d601f19601f820116820180604052508101906120a29190613158565b505050505050565b6000808284019050838110156120f5576040517f08c379a00000000000000000000000000000000000000000000000000000000081526004016120ec90613fe9565b60405180910390fd5b8091505092915050565b6000806000808673ffffffffffffffffffffffffffffffffffffffff166370a08231896040518263ffffffff1660e01b815260040161213e9190613cf6565b60206040518083038186803b15801561215657600080fd5b505afa15801561216a573d6000803e3d6000fd5b505050506040513d601f19601f8201168201806040525081019061218e9190613367565b905060006122238973ffffffffffffffffffffffffffffffffffffffff166366cb8d2f8a6040518263ffffffff1660e01b81526004016121ce9190613cf6565b60206040518083038186803b1580156121e657600080fd5b505afa1580156121fa573d6000803e3d6000fd5b505050506040513d601f19601f8201168201806040525081019061221e919061333e565b6125dd565b90506000808311156122425761223b8888858561262a565b9050612247565b600090505b6122528a8a83612684565b8282829550955095505050509450945094915050565b60007f800000000000000000000000000000000000000000000000000000000000000082106122cc576040517f08c379a00000000000000000000000000000000000000000000000000000000081526004016122c3906140e9565b60405180910390fd5b819050919050565b6000808284039050600083121580156122ed5750838113155b80612303575060008312801561230257508381135b5b612342576040517f08c379a000000000000000000000000000000000000000000000000000000000815260040161233990614149565b60405180910390fd5b8091505092915050565b6000806123588361282d565b90506123638161283e565b915050919050565b606080825167ffffffffffffffff8111801561238657600080fd5b506040519080825280602002602001820160405280156123b55781602001602082028036833780820191505090505b50905060008090505b8351811015612488578381815181106123d357fe5b602002602001015173ffffffffffffffffffffffffffffffffffffffff166370a08231866040518263ffffffff1660e01b81526004016124139190613cf6565b60206040518083038186803b15801561242b57600080fd5b505afa15801561243f573d6000803e3d6000fd5b505050506040513d601f19601f820116820180604052508101906124639190613367565b82828151811061246f57fe5b60200260200101818152505080806001019150506123be565b508091505092915050565b60006124a8828461298690919063ffffffff16565b905092915050565b606060008373ffffffffffffffffffffffffffffffffffffffff166318160ddd6040518163ffffffff1660e01b815260040160206040518083038186803b1580156124fa57600080fd5b505afa15801561250e573d6000803e3d6000fd5b505050506040513d601f19601f820116820180604052508101906125329190613367565b90506060835167ffffffffffffffff8111801561254e57600080fd5b5060405190808252806020026020018201604052801561257d5781602001602082028036833780820191505090505b50905060008090505b84518110156125d1576125ac8386838151811061259f57fe5b6020026020010151612493565b8282815181106125b857fe5b6020026020010181815250508080600101915050612586565b50809250505092915050565b600080821215612622576040517f08c379a000000000000000000000000000000000000000000000000000000000815260040161261990614089565b60405180910390fd5b819050919050565b600080612652612643878561298690919063ffffffff16565b866129bd90919063ffffffff16565b90506126798661266b83876129bd90919063ffffffff16565b612a0790919063ffffffff16565b915050949350505050565b60006126908484612a3e565b9050801580156126a05750600082115b15612724576126af8484612ad3565b61271f578373ffffffffffffffffffffffffffffffffffffffff16634e353270846040518263ffffffff1660e01b81526004016126ec9190613cf6565b600060405180830381600087803b15801561270657600080fd5b505af115801561271a573d6000803e3d6000fd5b505050505b6127b2565b8080156127315750600082145b156127b1576127408484612ad3565b6127b0578373ffffffffffffffffffffffffffffffffffffffff16636f86c897846040518263ffffffff1660e01b815260040161277d9190613cf6565b600060405180830381600087803b15801561279757600080fd5b505af11580156127ab573d6000803e3d6000fd5b505050505b5b5b8373ffffffffffffffffffffffffffffffffffffffff16632ba57d17846127d885612268565b6040518363ffffffff1660e01b81526004016127f5929190613dd2565b600060405180830381600087803b15801561280f57600080fd5b505af1158015612823573d6000803e3d6000fd5b5050505050505050565b600081805190602001209050919050565b6000806128816000809054906101000a900473ffffffffffffffffffffffffffffffffffffffff1673ffffffffffffffffffffffffffffffffffffffff16612b6e565b73ffffffffffffffffffffffffffffffffffffffff1663e6d642c530856040518363ffffffff1660e01b81526004016128bb929190613da9565b60206040518083038186803b1580156128d357600080fd5b505afa1580156128e7573d6000803e3d6000fd5b505050506040513d601f19601f8201168201806040525081019061290b919061305e565b9050600073ffffffffffffffffffffffffffffffffffffffff168173ffffffffffffffffffffffffffffffffffffffff16141561297d576040517f08c379a000000000000000000000000000000000000000000000000000000000815260040161297490614069565b60405180910390fd5b80915050919050565b60006129b5670de0b6b3a76400006129a78486612c0190919063ffffffff16565b612c7190919063ffffffff16565b905092915050565b60006129ff83836040518060400160405280601e81526020017f536166654d6174683a207375627472616374696f6e206f766572666c6f770000815250612cbb565b905092915050565b6000612a3682612a28670de0b6b3a764000086612c0190919063ffffffff16565b612c7190919063ffffffff16565b905092915050565b6000808373ffffffffffffffffffffffffffffffffffffffff166366cb8d2f846040518263ffffffff1660e01b8152600401612a7a9190613cf6565b60206040518083038186803b158015612a9257600080fd5b505afa158015612aa6573d6000803e3d6000fd5b505050506040513d601f19601f82011682018060405250810190612aca919061333e565b13905092915050565b6000808373ffffffffffffffffffffffffffffffffffffffff1663a7bdad03846040518263ffffffff1660e01b8152600401612b0f9190613cf6565b60006040518083038186803b158015612b2757600080fd5b505afa158015612b3b573d6000803e3d6000fd5b505050506040513d6000823e3d601f19601f82011682018060405250810190612b6491906130ee565b5111905092915050565b60008173ffffffffffffffffffffffffffffffffffffffff1663e765ced660006040518263ffffffff1660e01b8152600401612baa91906141c9565b60206040518083038186803b158015612bc257600080fd5b505afa158015612bd6573d6000803e3d6000fd5b505050506040513d601f19601f82011682018060405250810190612bfa919061305e565b9050919050565b600080831415612c145760009050612c6b565b6000828402905082848281612c2557fe5b0414612c66576040517f08c379a0000000000000000000000000000000000000000000000000000000008152600401612c5d906140a9565b60405180910390fd5b809150505b92915050565b6000612cb383836040518060400160405280601a81526020017f536166654d6174683a206469766973696f6e206279207a65726f000000000000815250612d16565b905092915050565b6000838311158290612d03576040517f08c379a0000000000000000000000000000000000000000000000000000000008152600401612cfa9190613f47565b60405180910390fd5b5060008385039050809150509392505050565b60008083118290612d5d576040517f08c379a0000000000000000000000000000000000000000000000000000000008152600401612d549190613f47565b60405180910390fd5b506000838581612d6957fe5b049050809150509392505050565b604051806101400160405280600073ffffffffffffffffffffffffffffffffffffffff16815260200160008152602001600073ffffffffffffffffffffffffffffffffffffffff168152602001600073ffffffffffffffffffffffffffffffffffffffff1681526020016000815260200160608152602001600081526020016060815260200160608152602001606081525090565b600081359050612e1b81614499565b92915050565b600081519050612e3081614499565b92915050565b60008083601f840112612e4857600080fd5b8235905067ffffffffffffffff811115612e6157600080fd5b602083019150836020820283011115612e7957600080fd5b9250929050565b600082601f830112612e9157600080fd5b8151612ea4612e9f82614211565b6141e4565b91508181835260208401935060208101905083856020840282011115612ec957600080fd5b60005b83811015612ef95781612edf8882612e21565b845260208401935060208301925050600181019050612ecc565b5050505092915050565b60008083601f840112612f1557600080fd5b8235905067ffffffffffffffff811115612f2e57600080fd5b602083019150836020820283011115612f4657600080fd5b9250929050565b600081519050612f5c816144b0565b92915050565b600082601f830112612f7357600080fd5b8151612f86612f8182614239565b6141e4565b91508082526020830160208301858383011115612fa257600080fd5b612fad838284614455565b50505092915050565b600081359050612fc5816144c7565b92915050565b600081519050612fda816144de565b92915050565b600082601f830112612ff157600080fd5b8135613004612fff82614265565b6141e4565b9150808252602083016020830185838301111561302057600080fd5b61302b838284614446565b50505092915050565b600081359050613043816144f5565b92915050565b600081519050613058816144f5565b92915050565b60006020828403121561307057600080fd5b600061307e84828501612e21565b91505092915050565b60008060006060848603121561309c57600080fd5b60006130aa86828701612e21565b93505060206130bb86828701613049565b925050604084015167ffffffffffffffff8111156130d857600080fd5b6130e486828701612f62565b9150509250925092565b60006020828403121561310057600080fd5b600082015167ffffffffffffffff81111561311a57600080fd5b61312684828501612e80565b91505092915050565b60006020828403121561314157600080fd5b600061314f84828501612f4d565b91505092915050565b60006020828403121561316a57600080fd5b600082015167ffffffffffffffff81111561318457600080fd5b61319084828501612f62565b91505092915050565b6000602082840312156131ab57600080fd5b60006131b984828501612fb6565b91505092915050565b60008060008060008060c087890312156131db57600080fd5b60006131e989828a01612fb6565b965050602087013567ffffffffffffffff81111561320657600080fd5b61321289828a01612fe0565b955050604061322389828a01612e0c565b945050606061323489828a01613034565b935050608061324589828a01612e0c565b92505060a061325689828a01613034565b9150509295509295509295565b60008060008060008060008060c0898b03121561327f57600080fd5b600061328d8b828c01612fb6565b985050602089013567ffffffffffffffff8111156132aa57600080fd5b6132b68b828c01612fe0565b97505060406132c78b828c01612e0c565b96505060606132d88b828c01613034565b955050608089013567ffffffffffffffff8111156132f557600080fd5b6133018b828c01612e36565b945094505060a089013567ffffffffffffffff81111561332057600080fd5b61332c8b828c01612f03565b92509250509295985092959890939650565b60006020828403121561335057600080fd5b600061335e84828501612fcb565b91505092915050565b60006020828403121561337957600080fd5b600061338784828501613049565b91505092915050565b600061339c83836133d8565b60208301905092915050565b60006133b483836135c4565b60208301905092915050565b60006133cc8383613cd8565b60208301905092915050565b6133e1816143a2565b82525050565b6133f0816143a2565b82525050565b60006134028385614336565b935061340d82614291565b8060005b8581101561344657613423828461438b565b61342d8882613390565b975061343883614302565b925050600181019050613411565b5085925050509392505050565b600061345e826142cb565b6134688185614336565b93506134738361429b565b8060005b838110156134a457815161348b8882613390565b97506134968361430f565b925050600181019050613477565b5085935050505092915050565b60006134bc826142d6565b6134c68185614347565b93506134d1836142ab565b8060005b838110156135025781516134e988826133a8565b97506134f48361431c565b9250506001810190506134d5565b5085935050505092915050565b600061351a826142e1565b6135248185614358565b935061352f836142bb565b8060005b8381101561356057815161354788826133c0565b975061355283614329565b925050600181019050613533565b5085935050505092915050565b613576816143c0565b82525050565b6000613587826142ec565b6135918185614369565b93506135a1818560208601614455565b6135aa81614488565b840191505092915050565b6135be81614410565b82525050565b6135cd816143dc565b82525050565b6135dc816143dc565b82525050565b6135eb81614434565b82525050565b60006135fc826142f7565b613606818561437a565b9350613616818560208601614455565b61361f81614488565b840191505092915050565b600061363760228361437a565b91507f436f6d706f6e656e74207175616e74697479206d757374206265206e6f6e7a6560008301527f726f0000000000000000000000000000000000000000000000000000000000006020830152604082019050919050565b600061369d60288361437a565b91507f4d75737420626520612076616c696420616e6420696e697469616c697a65642060008301527f536574546f6b656e0000000000000000000000000000000000000000000000006020830152604082019050919050565b600061370360418361437a565b91507f556e6465726c79696e6720746f6b656e73207265636569766564206d7573742060008301527f62652067726561746572207468616e206d696e696d756d20737065636966696560208301527f64000000000000000000000000000000000000000000000000000000000000006040830152606082019050919050565b600061378f60298361437a565b91507f556e69742063616e742062652067726561746572207468616e20706f7369746960008301527f6f6e73206f776e656400000000000000000000000000000000000000000000006020830152604082019050919050565b60006137f5601b8361437a565b91507f536166654d6174683a206164646974696f6e206f766572666c6f7700000000006000830152602082019050919050565b6000613835601e8361437a565b91507f4d7573742062652070656e64696e6720696e697469616c697a6174696f6e00006000830152602082019050919050565b600061387560288361437a565b91507f536574546f6b656e206d757374206f776e20656e6f756768206c69717569646960008301527f747920746f6b656e0000000000000000000000000000000000000000000000006020830152604082019050919050565b60006138db60298361437a565b91507f436f6d706f6e656e747320616e6420756e697473206d7573742062652065717560008301527f616c206c656e67746800000000000000000000000000000000000000000000006020830152604082019050919050565b600061394160158361437a565b91507f4d7573742062652076616c6964206164617074657200000000000000000000006000830152602082019050919050565b600061398160208361437a565b91507f53616665436173743a2076616c7565206d75737420626520706f7369746976656000830152602082019050919050565b60006139c160218361437a565b91507f536166654d6174683a206d756c7469706c69636174696f6e206f766572666c6f60008301527f77000000000000000000000000000000000000000000000000000000000000006020830152604082019050919050565b6000613a2760408361437a565b91507f4c697175696469747920746f6b656e73207265636569766564206d757374206260008301527f652067726561746572207468616e206d696e696d756d207370656369666965646020830152604082019050919050565b6000613a8d60288361437a565b91507f53616665436173743a2076616c756520646f65736e27742066697420696e206160008301527f6e20696e743235360000000000000000000000000000000000000000000000006020830152604082019050919050565b6000613af360238361437a565b91507f4d75737420626520636f6e74726f6c6c65722d656e61626c656420536574546f60008301527f6b656e00000000000000000000000000000000000000000000000000000000006020830152604082019050919050565b6000613b59601c8361437a565b91507f4d7573742062652074686520536574546f6b656e206d616e61676572000000006000830152602082019050919050565b6000613b9960248361437a565b91507f5369676e6564536166654d6174683a207375627472616374696f6e206f76657260008301527f666c6f77000000000000000000000000000000000000000000000000000000006020830152604082019050919050565b6000613bff601e8361437a565b91507f546f6b656e207175616e74697479206d757374206265206e6f6e7a65726f00006000830152602082019050919050565b6000613c3f601f8361437a565b91507f5265656e7472616e637947756172643a207265656e7472616e742063616c6c006000830152602082019050919050565b6000613c7f60298361437a565b91507f506f6f6c20746f6b656e206d75737420626520656e61626c6564206f6e20746860008301527f65204164617074657200000000000000000000000000000000000000000000006020830152604082019050919050565b613ce181614406565b82525050565b613cf081614406565b82525050565b6000602082019050613d0b60008301846133e7565b92915050565b6000608082019050613d2660008301876133e7565b613d3360208301866133e7565b613d406040830185613ce7565b613d4d6060830184613ce7565b95945050505050565b6000608082019050613d6b60008301876133e7565b8181036020830152613d7d8186613453565b90508181036040830152613d91818561350f565b9050613da06060830184613ce7565b95945050505050565b6000604082019050613dbe60008301856133e7565b613dcb602083018461356d565b9392505050565b6000604082019050613de760008301856133e7565b613df460208301846135d3565b9392505050565b6000606082019050613e1060008301866133e7565b613e1d60208301856135e2565b8181036040830152613e2f818461357c565b9050949350505050565b6000604082019050613e4e60008301856133e7565b613e5b6020830184613ce7565b9392505050565b6000606082019050613e7760008301866133e7565b613e846020830185613ce7565b8181036040830152613e96818461357c565b9050949350505050565b6000602082019050613eb560008301846135b5565b92915050565b6000606082019050613ed060008301876135d3565b8181036020830152613ee38185876133f6565b90508181036040830152613ef781846134b1565b905095945050505050565b6000606082019050613f1760008301866135d3565b8181036020830152613f298185613453565b90508181036040830152613f3d81846134b1565b9050949350505050565b60006020820190508181036000830152613f6181846135f1565b905092915050565b60006020820190508181036000830152613f828161362a565b9050919050565b60006020820190508181036000830152613fa281613690565b9050919050565b60006020820190508181036000830152613fc2816136f6565b9050919050565b60006020820190508181036000830152613fe281613782565b9050919050565b60006020820190508181036000830152614002816137e8565b9050919050565b6000602082019050818103600083015261402281613828565b9050919050565b6000602082019050818103600083015261404281613868565b9050919050565b60006020820190508181036000830152614062816138ce565b9050919050565b6000602082019050818103600083015261408281613934565b9050919050565b600060208201905081810360008301526140a281613974565b9050919050565b600060208201905081810360008301526140c2816139b4565b9050919050565b600060208201905081810360008301526140e281613a1a565b9050919050565b6000602082019050818103600083015261410281613a80565b9050919050565b6000602082019050818103600083015261412281613ae6565b9050919050565b6000602082019050818103600083015261414281613b4c565b9050919050565b6000602082019050818103600083015261416281613b8c565b9050919050565b6000602082019050818103600083015261418281613bf2565b9050919050565b600060208201905081810360008301526141a281613c32565b9050919050565b600060208201905081810360008301526141c281613c72565b9050919050565b60006020820190506141de6000830184613ce7565b92915050565b6000604051905081810181811067ffffffffffffffff8211171561420757600080fd5b8060405250919050565b600067ffffffffffffffff82111561422857600080fd5b602082029050602081019050919050565b600067ffffffffffffffff82111561425057600080fd5b601f19601f8301169050602081019050919050565b600067ffffffffffffffff82111561427c57600080fd5b601f19601f8301169050602081019050919050565b6000819050919050565b6000819050602082019050919050565b6000819050602082019050919050565b6000819050602082019050919050565b600081519050919050565b600081519050919050565b600081519050919050565b600081519050919050565b600081519050919050565b6000602082019050919050565b6000602082019050919050565b6000602082019050919050565b6000602082019050919050565b600082825260208201905092915050565b600082825260208201905092915050565b600082825260208201905092915050565b600082825260208201905092915050565b600082825260208201905092915050565b600061439a6020840184612e0c565b905092915050565b60006143ad826143e6565b9050919050565b60008115159050919050565b6000819050919050565b60006143d5826143a2565b9050919050565b6000819050919050565b600073ffffffffffffffffffffffffffffffffffffffff82169050919050565b6000819050919050565b600061441b82614422565b9050919050565b600061442d826143e6565b9050919050565b600061443f82614406565b9050919050565b82818337600083830152505050565b60005b83811015614473578082015181840152602081019050614458565b83811115614482576000848401525b50505050565b6000601f19601f8301169050919050565b6144a2816143a2565b81146144ad57600080fd5b50565b6144b9816143b4565b81146144c457600080fd5b50565b6144d0816143ca565b81146144db57600080fd5b50565b6144e7816143dc565b81146144f257600080fd5b50565b6144fe81614406565b811461450957600080fd5b5056fea2646970667358221220738ed6a56d10c69a5159118f1da3d6a0c642a492b1869faa446809c4fd0a320564736f6c634300060a0033",
  "immutableReferences": {},
  "source": "/*\n    Copyright 2020 Set Labs Inc.\n\n    Licensed under the Apache License, Version 2.0 (the \"License\");\n    you may not use this file except in compliance with the License.\n    You may obtain a copy of the License at\n\n    http://www.apache.org/licenses/LICENSE-2.0\n\n    Unless required by applicable law or agreed to in writing, software\n    distributed under the License is distributed on an \"AS IS\" BASIS,\n    WITHOUT WARRANTIES OR CONDITIONS OF ANY KIND, either express or implied.\n    See the License for the specific language governing permissions and\n    limitations under the License.\n\n    SPDX-License-Identifier: Apache License, Version 2.0\n*/\n\npragma solidity 0.6.10;\npragma experimental \"ABIEncoderV2\";\n\nimport { IERC20 } from \"@openzeppelin/contracts/token/ERC20/IERC20.sol\";\nimport { ReentrancyGuard } from \"@openzeppelin/contracts/utils/ReentrancyGuard.sol\";\nimport { SafeCast } from \"@openzeppelin/contracts/utils/SafeCast.sol\";\nimport { SafeMath } from \"@openzeppelin/contracts/math/SafeMath.sol\";\nimport { SignedSafeMath } from \"@openzeppelin/contracts/math/SignedSafeMath.sol\";\n\nimport { IController } from \"../../interfaces/IController.sol\";\nimport { IIntegrationRegistry } from \"../../interfaces/IIntegrationRegistry.sol\";\nimport { Invoke } from \"../lib/Invoke.sol\";\nimport { ISetToken } from \"../../interfaces/ISetToken.sol\";\nimport { IAmmAdapter } from \"../../interfaces/IAmmAdapter.sol\";\nimport { ModuleBase } from \"../lib/ModuleBase.sol\";\nimport { Position } from \"../lib/Position.sol\";\nimport { PreciseUnitMath } from \"../../lib/PreciseUnitMath.sol\";\n\n\n/**\n * @title AmmModule\n * @author Set Protocol\n *\n * A smart contract module that enables joining and exiting of AMM Pools using multiple or a single ERC20s.\n * Examples of intended protocols include Curve, Uniswap, and Balancer. \n */\ncontract AmmModule is ModuleBase, ReentrancyGuard {\n    using SafeCast for int256;\n    using SafeCast for uint256;\n    using PreciseUnitMath for uint256;\n    using Position for uint256;\n    using SafeMath for uint256;\n    using SignedSafeMath for int256;\n\n    using Invoke for ISetToken;\n    using Position for ISetToken;\n\n    /* ============ Events ============ */\n    event LiquidityAdded(\n        ISetToken indexed _setToken,\n        address indexed _ammPool,\n        int256 _ammPoolBalancesDelta,     // Change in SetToken AMM Liquidity Pool token balances\n        address[] _components,\n        int256[] _componentBalancesDelta  // Change in SetToken component token balances\n    );\n    \n    event LiquidityRemoved(\n        ISetToken indexed _setToken,\n        address indexed _ammPool,\n        int256 _ammPoolBalancesDelta,    // Change in AMM pool token balances\n        address[] _components,\n        int256[] _componentBalancesDelta // Change in SetToken component token balances\n    );\n\n\n    /* ============ Structs ============ */\n\n    struct ActionInfo {\n        ISetToken setToken;                         // Instance of SetToken\n        uint256 totalSupply;                        // Total supply of the SetToken\n        IAmmAdapter ammAdapter;                     // Instance of amm adapter contract\n        address liquidityToken;                     // Address of the AMM pool token\n        uint256 preActionLiquidityTokenBalance;     // Balance of liquidity token before add/remove liquidity action\n        uint256[] preActionComponentBalances;       // Balance of components before add/remove liquidity action\n        uint256 liquidityQuantity;                  // When adding liquidity, minimum quantity of liquidity required. \n                                                    // When removing liquidity, quantity to dispose of\n        uint256[] totalNotionalComponents;          // When adding liquidity, maximum components provided\n                                                    // When removing liquidity, minimum components to receive\n        uint256[] componentUnits;                   // List of inputted component real units \n        address[] components;                       // List of component addresses for providing/removing liquidity\n    }\n\n    /* ============ Constructor ============ */\n\n    constructor(IController _controller) public ModuleBase(_controller) {}\n\n    /* ============ External Functions ============ */\n\n    /**\n     * SET MANAGER ONLY. Adds liquidity to an AMM pool for a specified AMM. User specifies what components and quantity of\n     * components to contribute and the minimum number of liquidity pool tokens to receive.\n     *\n     * @param _setToken                 Address of SetToken\n     * @param _ammName                  Human readable name of integration (e.g. CURVE) stored in the IntegrationRegistry\n     * @param _ammPool                  Address of the AMM pool; Must be valid according to the Amm Adapter\n     * @param _minPoolTokenPositionUnit Minimum number of liquidity pool tokens to receive in position units\n     * @param _components               List of components to contribute as liquidity to the Amm pool\n     * @param _maxComponentUnits        Quantities of components in position units to contribute\n     */\n    function addLiquidity(\n        ISetToken _setToken,\n        string memory _ammName,\n        address _ammPool,\n        uint256 _minPoolTokenPositionUnit,\n        address[] calldata _components,\n        uint256[] calldata _maxComponentUnits\n    )\n        external\n        nonReentrant\n        onlyManagerAndValidSet(_setToken)\n    {\n        ActionInfo memory actionInfo = _getActionInfo(\n            _setToken,\n            _ammName,\n            _ammPool,\n            _components,\n            _maxComponentUnits,\n            _minPoolTokenPositionUnit\n        );\n\n        _validateAddLiquidity(actionInfo);\n\n        _executeApprovals(actionInfo);\n\n        _executeAddLiquidity(actionInfo);\n\n        _validateMinimumLiquidityReceived(actionInfo);\n\n        int256[] memory componentsDelta = _updateComponentPositions(actionInfo);\n\n        int256 liquidityTokenDelta = _updateLiquidityTokenPositions(actionInfo);\n\n        emit LiquidityAdded(_setToken, _ammPool, liquidityTokenDelta, _components, componentsDelta);\n    }\n    \n    /**\n     * SET MANAGER ONLY. Adds liquidity to an AMM pool for a specified AMM using a single asset if supported. \n     * Differs from addLiquidity as it will opt to use the AMMs single asset liquidity function if it exists\n     * User specifies what component and component quantity to contribute and the minimum number of \n     * liquidity pool tokens to receive.\n     *\n     * @param _setToken                 Address of SetToken\n     * @param _ammName                  Human readable name of integration (e.g. CURVE) stored in the IntegrationRegistry\n     * @param _ammPool                  Address of the AMM pool; Must be valid according to the Amm Adapter\n     * @param _minPoolTokenPositionUnit Minimum number of liquidity pool tokens to receive in position units\n     * @param _component                Component to contribute as liquidity to the Amm pool\n     * @param _maxComponentUnit         Quantity of component in position units to contribute\n     */\n    function addLiquiditySingleAsset(\n        ISetToken _setToken,\n        string memory _ammName,\n        address _ammPool,\n        uint256 _minPoolTokenPositionUnit,\n        address _component,\n        uint256 _maxComponentUnit\n    )\n        external\n        nonReentrant\n        onlyManagerAndValidSet(_setToken)\n    {\n        ActionInfo memory actionInfo = _getActionInfoSingleAsset(\n            _setToken,\n            _ammName,\n            _ammPool,\n            _component,\n            _maxComponentUnit,\n            _minPoolTokenPositionUnit\n        );\n\n        _validateAddLiquidity(actionInfo);\n\n        _executeApprovals(actionInfo);\n\n        _executeAddLiquiditySingleAsset(actionInfo);\n\n        _validateMinimumLiquidityReceived(actionInfo);\n\n        int256[] memory componentsDelta = _updateComponentPositions(actionInfo);\n\n        int256 liquidityTokenDelta = _updateLiquidityTokenPositions(actionInfo);\n\n        emit LiquidityAdded(\n            _setToken,\n            _ammPool,\n            liquidityTokenDelta,\n            actionInfo.components,\n            componentsDelta\n        );\n    }\n\n    /**\n     * SET MANAGER ONLY. Removes liquidity from an AMM pool for a specified AMM. User specifies the exact number of \n     * liquidity pool tokens to provide and the components and minimum quantity of component units to receive\n     *\n     * @param _setToken                  Address of SetToken\n     * @param _ammName                   Human readable name of integration (e.g. CURVE) stored in the IntegrationRegistry\n     * @param _ammPool                   Address of the AMM pool; Must be valid according to the Amm Adapter\n     * @param _poolTokenPositionUnits    Number of liquidity pool tokens to burn\n     * @param _components                Component to receive from the AMM Pool\n     * @param _minComponentUnitsReceived Minimum quantity of components in position units to receive\n     */\n    function removeLiquidity(\n        ISetToken _setToken,\n        string memory _ammName,\n        address _ammPool,\n        uint256 _poolTokenPositionUnits,\n        address[] calldata _components,\n        uint256[] calldata _minComponentUnitsReceived\n    )\n        external\n        nonReentrant\n        onlyManagerAndValidSet(_setToken)\n    {\n        ActionInfo memory actionInfo = _getActionInfo(\n            _setToken,\n            _ammName,\n            _ammPool,\n            _components,\n            _minComponentUnitsReceived,\n            _poolTokenPositionUnits\n        );\n\n        _validateRemoveLiquidity(actionInfo);\n\n        _executeRemoveLiquidity(actionInfo);\n\n        _validateMinimumUnderlyingReceived(actionInfo);\n\n        int256 liquidityTokenDelta = _updateLiquidityTokenPositions(actionInfo);\n\n        int256[] memory componentsDelta = _updateComponentPositions(actionInfo);\n\n        emit LiquidityRemoved(\n            _setToken,\n            _ammPool,\n            liquidityTokenDelta,\n            _components,\n            componentsDelta\n        );        \n    }\n\n    /**\n     * SET MANAGER ONLY. Removes liquidity from an AMM pool for a specified AMM, receiving a single component.\n     * User specifies the exact number of liquidity pool tokens to provide, the components, and minimum quantity of component\n     * units to receive\n     *\n     * @param _setToken                  Address of SetToken\n     * @param _ammName                   Human readable name of integration (e.g. CURVE) stored in the IntegrationRegistry\n     * @param _ammPool                   Address of the AMM pool; Must be valid according to the Amm Adapter\n     * @param _poolTokenPositionUnits    Number of liquidity pool tokens to burn\n     * @param _component                 Component to receive from the AMM Pool\n     * @param _minComponentUnitsReceived Minimum quantity of component in position units to receive\n     */\n    function removeLiquiditySingleAsset(\n        ISetToken _setToken,\n        string memory _ammName,\n        address _ammPool,\n        uint256 _poolTokenPositionUnits,\n        address _component,\n        uint256 _minComponentUnitsReceived\n    ) \n        external\n        nonReentrant\n        onlyManagerAndValidSet(_setToken)\n    {\n        ActionInfo memory actionInfo = _getActionInfoSingleAsset(\n            _setToken,\n            _ammName,\n            _ammPool,\n            _component,\n            _minComponentUnitsReceived,\n            _poolTokenPositionUnits\n        );\n\n        _validateRemoveLiquidity(actionInfo);\n\n        _executeRemoveLiquiditySingleAsset(actionInfo);\n\n        _validateMinimumUnderlyingReceived(actionInfo);\n\n        int256 liquidityTokenDelta = _updateLiquidityTokenPositions(actionInfo);\n\n        int256[] memory componentsDelta = _updateComponentPositions(actionInfo);\n\n        emit LiquidityRemoved(\n            _setToken,\n            _ammPool,\n            liquidityTokenDelta,\n            actionInfo.components,\n            componentsDelta\n        );\n    }\n\n    /**\n     * Initializes this module to the SetToken. Only callable by the SetToken's manager.\n     *\n     * @param _setToken             Instance of the SetToken to issue\n     */\n    function initialize(ISetToken _setToken) external onlySetManager(_setToken, msg.sender) onlyValidAndPendingSet(_setToken) {\n        _setToken.initializeModule();\n    }\n\n    /**\n     * Removes this module from the SetToken, via call by the SetToken.\n     */\n    function removeModule() external override {}\n\n\n    /* ============ Internal Functions ============ */\n\n    function _getActionInfo(\n        ISetToken _setToken,\n        string memory _integrationName,\n        address _ammPool,\n        address[] memory _components,\n        uint256[] memory _componentUnits,\n        uint256 _poolTokenInPositionUnit\n    )\n        internal\n        view\n        returns (ActionInfo memory)\n    {\n        ActionInfo memory actionInfo;\n\n        actionInfo.setToken = _setToken;\n\n        actionInfo.totalSupply = _setToken.totalSupply();\n\n        actionInfo.ammAdapter = IAmmAdapter(getAndValidateAdapter(_integrationName));\n\n        actionInfo.liquidityToken = _ammPool;\n\n        actionInfo.preActionLiquidityTokenBalance = IERC20(_ammPool).balanceOf(address(_setToken));\n\n        actionInfo.preActionComponentBalances = _getTokenBalances(address(_setToken), _components);\n\n        actionInfo.liquidityQuantity = actionInfo.totalSupply.getDefaultTotalNotional(_poolTokenInPositionUnit);\n                                       \n        actionInfo.totalNotionalComponents = _getTotalNotionalComponents(_setToken, _componentUnits);\n\n        actionInfo.componentUnits = _componentUnits;\n                                       \n        actionInfo.components = _components;                  \n\n        return actionInfo;        \n    }\n\n    function _getActionInfoSingleAsset(\n        ISetToken _setToken,\n        string memory _integrationName,\n        address _ammPool,\n        address _component,\n        uint256 _maxPositionUnitToPool,\n        uint256 _minPoolToken\n    )\n        internal\n        view\n        returns (ActionInfo memory)\n    {\n        address[] memory components = new address[](1);\n        components[0] = _component;\n\n        uint256[] memory maxPositionUnitsToPool = new uint256[](1);\n        maxPositionUnitsToPool[0] = _maxPositionUnitToPool;\n\n        return _getActionInfo(\n            _setToken,\n            _integrationName,\n            _ammPool,\n            components,\n            maxPositionUnitsToPool,\n            _minPoolToken\n        );\n    }\n\n    function _validateAddLiquidity(ActionInfo memory _actionInfo) internal view {\n        _validateCommon(_actionInfo);\n\n        for (uint256 i = 0; i < _actionInfo.components.length ; i++) {\n            address component = _actionInfo.components[i];\n\n            require(\n                _actionInfo.setToken.hasSufficientDefaultUnits(component, _actionInfo.componentUnits[i]),\n                \"Unit cant be greater than positions owned\"\n            );\n        }\n    }\n\n    function _validateRemoveLiquidity(ActionInfo memory _actionInfo) internal view {\n        _validateCommon(_actionInfo);\n\n        for (uint256 i = 0; i < _actionInfo.components.length ; i++) {\n            require(_actionInfo.componentUnits[i] > 0, \"Component quantity must be nonzero\");\n        }\n\n        require(\n            _actionInfo.setToken.hasSufficientDefaultUnits(_actionInfo.liquidityToken, _actionInfo.liquidityQuantity),\n            \"SetToken must own enough liquidity token\"\n        );\n    }\n\n    function _validateCommon(ActionInfo memory _actionInfo) internal view {\n        require(_actionInfo.componentUnits.length == _actionInfo.components.length, \"Components and units must be equal length\");\n\n        require(_actionInfo.liquidityQuantity > 0, \"Token quantity must be nonzero\");\n\n        require(\n            _actionInfo.ammAdapter.isValidPool(_actionInfo.liquidityToken),\n            \"Pool token must be enabled on the Adapter\"\n        );\n    }\n\n    function _executeApprovals(ActionInfo memory _actionInfo) internal {\n        address spender = _actionInfo.ammAdapter.getSpenderAddress(_actionInfo.liquidityToken);\n\n        // Loop through and approve total notional tokens to spender\n        for (uint256 i = 0; i < _actionInfo.components.length ; i++) {\n            _actionInfo.setToken.invokeApprove(\n                _actionInfo.components[i],\n                spender,\n                _actionInfo.totalNotionalComponents[i]\n            );\n        }\n    }\n    \n    function _executeAddLiquidity(ActionInfo memory _actionInfo) internal {\n        (\n            address targetAmm, uint256 callValue, bytes memory methodData\n        ) = _actionInfo.ammAdapter.getProvideLiquidityCalldata(\n            _actionInfo.liquidityToken,\n            _actionInfo.components,\n            _actionInfo.totalNotionalComponents,\n            _actionInfo.liquidityQuantity\n        );\n\n        _actionInfo.setToken.invoke(targetAmm, callValue, methodData);\n    }\n\n    function _executeAddLiquiditySingleAsset(ActionInfo memory _actionInfo) internal {\n        (\n            address targetAmm, uint256 callValue, bytes memory methodData\n        ) = _actionInfo.ammAdapter.getProvideLiquiditySingleAssetCalldata(\n            _actionInfo.liquidityToken,\n            _actionInfo.components[0],\n            _actionInfo.totalNotionalComponents[0],\n            _actionInfo.liquidityQuantity\n        );\n\n        _actionInfo.setToken.invoke(targetAmm, callValue, methodData);        \n    }\n    \n    function _executeRemoveLiquidity(ActionInfo memory _actionInfo) internal {\n        (\n            address targetAmm, uint256 callValue, bytes memory methodData\n        ) = _actionInfo.ammAdapter.getRemoveLiquidityCalldata(\n            _actionInfo.liquidityToken,\n            _actionInfo.components,\n            _actionInfo.totalNotionalComponents,\n            _actionInfo.liquidityQuantity\n        );\n\n        _actionInfo.setToken.invoke(targetAmm, callValue, methodData);        \n    }\n\n    function _executeRemoveLiquiditySingleAsset(ActionInfo memory _actionInfo) internal {\n        (\n            address targetAmm, uint256 callValue, bytes memory methodData\n        ) = _actionInfo.ammAdapter.getRemoveLiquiditySingleAssetCalldata(\n            _actionInfo.liquidityToken,\n            _actionInfo.components[0],\n            _actionInfo.totalNotionalComponents[0],\n            _actionInfo.liquidityQuantity\n        );\n\n        _actionInfo.setToken.invoke(targetAmm, callValue, methodData);        \n    }\n    \n    function _validateMinimumLiquidityReceived(ActionInfo memory _actionInfo) internal view {\n        uint256 liquidityTokenBalance = IERC20(_actionInfo.liquidityToken).balanceOf(address(_actionInfo.setToken));\n\n        require(\n            liquidityTokenBalance >= _actionInfo.liquidityQuantity.add(_actionInfo.preActionLiquidityTokenBalance),\n            \"Liquidity tokens received must be greater than minimum specified\"\n        );\n    }\n\n    function _validateMinimumUnderlyingReceived(ActionInfo memory _actionInfo) internal view {\n        for (uint256 i = 0; i < _actionInfo.components.length; i++) {\n            uint256 underlyingBalance = IERC20(_actionInfo.components[i]).balanceOf(address(_actionInfo.setToken));\n\n            require(\n                underlyingBalance >= _actionInfo.totalNotionalComponents[i].add(_actionInfo.preActionComponentBalances[i]),\n                \"Underlying tokens received must be greater than minimum specified\"\n            );\n        }\n    }\n\n    function _updateComponentPositions(ActionInfo memory _actionInfo) internal returns(int256[] memory) {\n        int256[] memory componentsReceived = new int256[](_actionInfo.components.length);\n\n        for (uint256 i = 0; i < _actionInfo.components.length; i++) {\n\n            (uint256 currentComponentBalance,,) = _actionInfo.setToken.calculateAndEditDefaultPosition(\n                _actionInfo.components[i],\n                _actionInfo.totalSupply,\n                _actionInfo.preActionComponentBalances[i]\n            );\n\n            componentsReceived[i] = currentComponentBalance.toInt256()\n                                        .sub(_actionInfo.preActionComponentBalances[i].toInt256());\n        }\n\n        return componentsReceived;\n    }\n\n    function _updateLiquidityTokenPositions(ActionInfo memory _actionInfo) internal returns(int256) {\n\n        (uint256 currentLiquidityTokenBalance,,) = _actionInfo.setToken.calculateAndEditDefaultPosition(\n            _actionInfo.liquidityToken,\n            _actionInfo.totalSupply,\n            _actionInfo.preActionLiquidityTokenBalance\n        );\n\n        return currentLiquidityTokenBalance.toInt256().sub(_actionInfo.preActionLiquidityTokenBalance.toInt256());\n    }\n\n    function _getTokenBalances(address _owner, address[] memory _tokens) internal view returns(uint256[] memory) {\n        uint256[] memory tokenBalances = new uint256[](_tokens.length);\n        for (uint256 i = 0; i < _tokens.length; i++) {\n            tokenBalances[i] = IERC20(_tokens[i]).balanceOf(_owner);\n        }\n        return tokenBalances;\n    }\n\n    function _getTotalNotionalComponents(\n        ISetToken _setToken,\n        uint256[] memory _tokenAmounts\n    )\n        internal\n        view\n        returns(uint256[] memory)\n    {\n        uint256 totalSupply = _setToken.totalSupply();\n\n        uint256[] memory totalNotionalQuantities = new uint256[](_tokenAmounts.length);\n        for (uint256 i = 0; i < _tokenAmounts.length; i++) {\n            totalNotionalQuantities[i] = Position.getDefaultTotalNotional(totalSupply, _tokenAmounts[i]);\n        }\n        return totalNotionalQuantities;\n    }\n\n}",
  "sourcePath": "/Users/tahadhailey/Documents/top5/top5swap/swap/contracts/protocol/modules/AmmModule.sol",
  "compiler": {
    "name": "solc",
    "version": "0.6.10+commit.00c0fcaf.Emscripten.clang"
  },
  "schemaVersion": "3.2.1",
  "updatedAt": "2021-01-21T08:20:37.725Z",
  "devdoc": {
    "author": "Set Protocol A smart contract module that enables joining and exiting of AMM Pools using multiple or a single ERC20s. Examples of intended protocols include Curve, Uniswap, and Balancer. ",
    "methods": {
      "addLiquidity(address,string,address,uint256,address[],uint256[])": {
        "params": {
          "_ammName": "Human readable name of integration (e.g. CURVE) stored in the IntegrationRegistry",
          "_ammPool": "Address of the AMM pool; Must be valid according to the Amm Adapter",
          "_components": "List of components to contribute as liquidity to the Amm pool",
          "_maxComponentUnits": "Quantities of components in position units to contribute",
          "_minPoolTokenPositionUnit": "Minimum number of liquidity pool tokens to receive in position units",
          "_setToken": "Address of SetToken"
        }
      },
      "addLiquiditySingleAsset(address,string,address,uint256,address,uint256)": {
        "params": {
          "_ammName": "Human readable name of integration (e.g. CURVE) stored in the IntegrationRegistry",
          "_ammPool": "Address of the AMM pool; Must be valid according to the Amm Adapter",
          "_component": "Component to contribute as liquidity to the Amm pool",
          "_maxComponentUnit": "Quantity of component in position units to contribute",
          "_minPoolTokenPositionUnit": "Minimum number of liquidity pool tokens to receive in position units",
          "_setToken": "Address of SetToken"
        }
      },
      "initialize(address)": {
        "params": {
          "_setToken": "Instance of the SetToken to issue"
        }
      },
      "removeLiquidity(address,string,address,uint256,address[],uint256[])": {
        "params": {
          "_ammName": "Human readable name of integration (e.g. CURVE) stored in the IntegrationRegistry",
          "_ammPool": "Address of the AMM pool; Must be valid according to the Amm Adapter",
          "_components": "Component to receive from the AMM Pool",
          "_minComponentUnitsReceived": "Minimum quantity of components in position units to receive",
          "_poolTokenPositionUnits": "Number of liquidity pool tokens to burn",
          "_setToken": "Address of SetToken"
        }
      },
      "removeLiquiditySingleAsset(address,string,address,uint256,address,uint256)": {
        "params": {
          "_ammName": "Human readable name of integration (e.g. CURVE) stored in the IntegrationRegistry",
          "_ammPool": "Address of the AMM pool; Must be valid according to the Amm Adapter",
          "_component": "Component to receive from the AMM Pool",
          "_minComponentUnitsReceived": "Minimum quantity of component in position units to receive",
          "_poolTokenPositionUnits": "Number of liquidity pool tokens to burn",
          "_setToken": "Address of SetToken"
        }
      }
    },
    "title": "AmmModule"
  },
  "userdoc": {
    "methods": {
      "addLiquidity(address,string,address,uint256,address[],uint256[])": {
        "notice": "SET MANAGER ONLY. Adds liquidity to an AMM pool for a specified AMM. User specifies what components and quantity of components to contribute and the minimum number of liquidity pool tokens to receive."
      },
      "addLiquiditySingleAsset(address,string,address,uint256,address,uint256)": {
        "notice": "SET MANAGER ONLY. Adds liquidity to an AMM pool for a specified AMM using a single asset if supported.  Differs from addLiquidity as it will opt to use the AMMs single asset liquidity function if it exists User specifies what component and component quantity to contribute and the minimum number of  liquidity pool tokens to receive."
      },
      "initialize(address)": {
        "notice": "Initializes this module to the SetToken. Only callable by the SetToken's manager."
      },
      "removeLiquidity(address,string,address,uint256,address[],uint256[])": {
        "notice": "SET MANAGER ONLY. Removes liquidity from an AMM pool for a specified AMM. User specifies the exact number of  liquidity pool tokens to provide and the components and minimum quantity of component units to receive"
      },
      "removeLiquiditySingleAsset(address,string,address,uint256,address,uint256)": {
        "notice": "SET MANAGER ONLY. Removes liquidity from an AMM pool for a specified AMM, receiving a single component. User specifies the exact number of liquidity pool tokens to provide, the components, and minimum quantity of component units to receive"
      },
      "removeModule()": {
        "notice": "Removes this module from the SetToken, via call by the SetToken."
      }
    }
  }
}