{
  "contractName": "AssetLimitHook",
  "abi": [
    {
      "inputs": [
        {
          "internalType": "address[]",
          "name": "_assets",
          "type": "address[]"
        },
        {
          "internalType": "uint256[]",
          "name": "_limits",
          "type": "uint256[]"
        }
      ],
      "stateMutability": "nonpayable",
      "type": "constructor"
    },
    {
      "anonymous": false,
      "inputs": [
        {
          "indexed": true,
          "internalType": "address",
          "name": "previousOwner",
          "type": "address"
        },
        {
          "indexed": true,
          "internalType": "address",
          "name": "newOwner",
          "type": "address"
        }
      ],
      "name": "OwnershipTransferred",
      "type": "event"
    },
    {
      "inputs": [
        {
          "internalType": "address",
          "name": "",
          "type": "address"
        }
      ],
      "name": "assetLimits",
      "outputs": [
        {
          "internalType": "uint256",
          "name": "",
          "type": "uint256"
        }
      ],
      "stateMutability": "view",
      "type": "function"
    },
    {
      "inputs": [
        {
          "internalType": "uint256",
          "name": "",
          "type": "uint256"
        }
      ],
      "name": "assets",
      "outputs": [
        {
          "internalType": "address",
          "name": "",
          "type": "address"
        }
      ],
      "stateMutability": "view",
      "type": "function"
    },
    {
      "inputs": [],
      "name": "owner",
      "outputs": [
        {
          "internalType": "address",
          "name": "",
          "type": "address"
        }
      ],
      "stateMutability": "view",
      "type": "function"
    },
    {
      "inputs": [],
      "name": "renounceOwnership",
      "outputs": [],
      "stateMutability": "nonpayable",
      "type": "function"
    },
    {
      "inputs": [
        {
          "internalType": "address",
          "name": "newOwner",
          "type": "address"
        }
      ],
      "name": "transferOwnership",
      "outputs": [],
      "stateMutability": "nonpayable",
      "type": "function"
    },
    {
      "inputs": [
        {
          "internalType": "contract ISetToken",
          "name": "",
          "type": "address"
        },
        {
          "internalType": "address",
          "name": "_reserveAsset",
          "type": "address"
        },
        {
          "internalType": "uint256",
          "name": "_reserveAssetQuantity",
          "type": "uint256"
        },
        {
          "internalType": "address",
          "name": "",
          "type": "address"
        },
        {
          "internalType": "address",
          "name": "",
          "type": "address"
        }
      ],
      "name": "invokePreIssueHook",
      "outputs": [],
      "stateMutability": "nonpayable",
      "type": "function"
    },
    {
      "inputs": [
        {
          "internalType": "contract ISetToken",
          "name": "_setToken",
          "type": "address"
        },
        {
          "internalType": "uint256",
          "name": "_redeemQuantity",
          "type": "uint256"
        },
        {
          "internalType": "address",
          "name": "",
          "type": "address"
        },
        {
          "internalType": "address",
          "name": "",
          "type": "address"
        }
      ],
      "name": "invokePreRedeemHook",
      "outputs": [],
      "stateMutability": "nonpayable",
      "type": "function"
    },
    {
      "inputs": [
        {
          "internalType": "address",
          "name": "_asset",
          "type": "address"
        },
        {
          "internalType": "uint256",
          "name": "_newLimit",
          "type": "uint256"
        }
      ],
      "name": "addAssetLimit",
      "outputs": [],
      "stateMutability": "nonpayable",
      "type": "function"
    },
    {
      "inputs": [
        {
          "internalType": "address",
          "name": "_asset",
          "type": "address"
        },
        {
          "internalType": "uint256",
          "name": "_newLimit",
          "type": "uint256"
        }
      ],
      "name": "editAssetLimit",
      "outputs": [],
      "stateMutability": "nonpayable",
      "type": "function"
    },
    {
      "inputs": [
        {
          "internalType": "address",
          "name": "_asset",
          "type": "address"
        }
      ],
      "name": "removeAssetLimit",
      "outputs": [],
      "stateMutability": "nonpayable",
      "type": "function"
    },
    {
      "inputs": [],
      "name": "getAssets",
      "outputs": [
        {
          "internalType": "address[]",
          "name": "",
          "type": "address[]"
        }
      ],
      "stateMutability": "view",
      "type": "function"
    }
  ],
  "bytecode": "0x60806040523480156200001157600080fd5b5060405162001e5d38038062001e5d8339818101604052810190620000379190620004d2565b600062000049620002ad60201b60201c565b9050806000806101000a81548173ffffffffffffffffffffffffffffffffffffffff021916908373ffffffffffffffffffffffffffffffffffffffff1602179055508073ffffffffffffffffffffffffffffffffffffffff16600073ffffffffffffffffffffffffffffffffffffffff167f8be0079c531659141344cd1fd0a4f28419497f9722a3daafe3b4186f6b6457e060405160405180910390a35080518251146200012e576040517f08c379a000000000000000000000000000000000000000000000000000000000815260040162000125906200062d565b60405180910390fd5b60008251141562000176576040517f08c379a00000000000000000000000000000000000000000000000000000000081526004016200016d906200060b565b60405180910390fd5b60008090505b82518110156200028b5760008382815181106200019557fe5b602002602001015190506000600160008373ffffffffffffffffffffffffffffffffffffffff1673ffffffffffffffffffffffffffffffffffffffff168152602001908152602001600020541462000224576040517f08c379a00000000000000000000000000000000000000000000000000000000081526004016200021b906200064f565b60405180910390fd5b8282815181106200023157fe5b6020026020010151600160008373ffffffffffffffffffffffffffffffffffffffff1673ffffffffffffffffffffffffffffffffffffffff168152602001908152602001600020819055505080806001019150506200017c565b508160029080519060200190620002a4929190620002b5565b50505062000774565b600033905090565b82805482825590600052602060002090810192821562000331579160200282015b82811115620003305782518260006101000a81548173ffffffffffffffffffffffffffffffffffffffff021916908373ffffffffffffffffffffffffffffffffffffffff16021790555091602001919060010190620002d6565b5b50905062000340919062000344565b5090565b6200038791905b808211156200038357600081816101000a81549073ffffffffffffffffffffffffffffffffffffffff0219169055506001016200034b565b5090565b90565b6000815190506200039b8162000740565b92915050565b600082601f830112620003b357600080fd5b8151620003ca620003c4826200069f565b62000671565b91508181835260208401935060208101905083856020840282011115620003f057600080fd5b60005b838110156200042457816200040988826200038a565b845260208401935060208301925050600181019050620003f3565b5050505092915050565b600082601f8301126200044057600080fd5b8151620004576200045182620006c8565b62000671565b915081818352602084019350602081019050838560208402820111156200047d57600080fd5b60005b83811015620004b15781620004968882620004bb565b84526020840193506020830192505060018101905062000480565b5050505092915050565b600081519050620004cc816200075a565b92915050565b60008060408385031215620004e657600080fd5b600083015167ffffffffffffffff8111156200050157600080fd5b6200050f85828601620003a1565b925050602083015167ffffffffffffffff8111156200052d57600080fd5b6200053b858286016200042e565b9150509250929050565b600062000554601783620006f1565b91507f4172726179206d757374206e6f7420626520656d7074790000000000000000006000830152602082019050919050565b600062000596601483620006f1565b91507f417272617973206d75737420626520657175616c0000000000000000000000006000830152602082019050919050565b6000620005d8601383620006f1565b91507f417373657420616c7265616479206164646564000000000000000000000000006000830152602082019050919050565b60006020820190508181036000830152620006268162000545565b9050919050565b60006020820190508181036000830152620006488162000587565b9050919050565b600060208201905081810360008301526200066a81620005c9565b9050919050565b6000604051905081810181811067ffffffffffffffff821117156200069557600080fd5b8060405250919050565b600067ffffffffffffffff821115620006b757600080fd5b602082029050602081019050919050565b600067ffffffffffffffff821115620006e057600080fd5b602082029050602081019050919050565b600082825260208201905092915050565b60006200070f8262000716565b9050919050565b600073ffffffffffffffffffffffffffffffffffffffff82169050919050565b6000819050919050565b6200074b8162000702565b81146200075757600080fd5b50565b620007658162000736565b81146200077157600080fd5b50565b6116d980620007846000396000f3fe608060405234801561001057600080fd5b50600436106100a95760003560e01c80639ff13e04116100715780639ff13e0414610140578063cf35bdd01461015c578063db2698941461018c578063f2fde38b146101a8578063f3f0349a146101c4578063fb42e7ec146101e0576100a9565b8063560ee9dd146100ae57806367e4ac2c146100de578063715018a6146100fc5780638da5cb5b146101065780639b19c2bf14610124575b600080fd5b6100c860048036038101906100c3919061103d565b6101fc565b6040516100d591906115ab565b60405180910390f35b6100e6610214565b6040516100f39190611489565b60405180910390f35b6101046102a2565b005b61010e6103f7565b60405161011b919061146e565b60405180910390f35b61013e60048036038101906101399190611119565b610420565b005b61015a6004803603810190610155919061103d565b6104a8565b005b6101766004803603810190610171919061117c565b6106b6565b604051610183919061146e565b60405180910390f35b6101a660048036038101906101a19190611066565b6106f2565b005b6101c260048036038101906101bd919061103d565b610853565b005b6101de60048036038101906101d99190611066565b610a17565b005b6101fa60048036038101906101f591906110a2565b610bda565b005b60016020528060005260406000206000915090505481565b6060600280548060200260200160405190810160405280929190818152602001828054801561029857602002820191906000526020600020905b8160009054906101000a900473ffffffffffffffffffffffffffffffffffffffff1673ffffffffffffffffffffffffffffffffffffffff168152602001906001019080831161024e575b5050505050905090565b6102aa610c63565b73ffffffffffffffffffffffffffffffffffffffff166000809054906101000a900473ffffffffffffffffffffffffffffffffffffffff1673ffffffffffffffffffffffffffffffffffffffff1614610338576040517f08c379a000000000000000000000000000000000000000000000000000000000815260040161032f9061152b565b60405180910390fd5b600073ffffffffffffffffffffffffffffffffffffffff166000809054906101000a900473ffffffffffffffffffffffffffffffffffffffff1673ffffffffffffffffffffffffffffffffffffffff167f8be0079c531659141344cd1fd0a4f28419497f9722a3daafe3b4186f6b6457e060405160405180910390a360008060006101000a81548173ffffffffffffffffffffffffffffffffffffffff021916908373ffffffffffffffffffffffffffffffffffffffff160217905550565b60008060009054906101000a900473ffffffffffffffffffffffffffffffffffffffff16905090565b600160008573ffffffffffffffffffffffffffffffffffffffff1673ffffffffffffffffffffffffffffffffffffffff168152602001908152602001600020548311156104a2576040517f08c379a00000000000000000000000000000000000000000000000000000000081526004016104999061158b565b60405180910390fd5b50505050565b6104b0610c63565b73ffffffffffffffffffffffffffffffffffffffff166000809054906101000a900473ffffffffffffffffffffffffffffffffffffffff1673ffffffffffffffffffffffffffffffffffffffff161461053e576040517f08c379a00000000000000000000000000000000000000000000000000000000081526004016105359061152b565b60405180910390fd5b6000600160008373ffffffffffffffffffffffffffffffffffffffff1673ffffffffffffffffffffffffffffffffffffffff1681526020019081526020016000205414156105c1576040517f08c379a00000000000000000000000000000000000000000000000000000000081526004016105b8906114ab565b60405180910390fd5b600160008273ffffffffffffffffffffffffffffffffffffffff1673ffffffffffffffffffffffffffffffffffffffff1681526020019081526020016000206000905561069d81600280548060200260200160405190810160405280929190818152602001828054801561068a57602002820191906000526020600020905b8160009054906101000a900473ffffffffffffffffffffffffffffffffffffffff1673ffffffffffffffffffffffffffffffffffffffff1681526020019060010190808311610640575b5050505050610c6b90919063ffffffff16565b600290805190602001906106b2929190610f31565b5050565b600281815481106106c357fe5b906000526020600020016000915054906101000a900473ffffffffffffffffffffffffffffffffffffffff1681565b6106fa610c63565b73ffffffffffffffffffffffffffffffffffffffff166000809054906101000a900473ffffffffffffffffffffffffffffffffffffffff1673ffffffffffffffffffffffffffffffffffffffff1614610788576040517f08c379a000000000000000000000000000000000000000000000000000000000815260040161077f9061152b565b60405180910390fd5b6000600160008473ffffffffffffffffffffffffffffffffffffffff1673ffffffffffffffffffffffffffffffffffffffff16815260200190815260200160002054141561080b576040517f08c379a0000000000000000000000000000000000000000000000000000000008152600401610802906114ab565b60405180910390fd5b80600160008473ffffffffffffffffffffffffffffffffffffffff1673ffffffffffffffffffffffffffffffffffffffff168152602001908152602001600020819055505050565b61085b610c63565b73ffffffffffffffffffffffffffffffffffffffff166000809054906101000a900473ffffffffffffffffffffffffffffffffffffffff1673ffffffffffffffffffffffffffffffffffffffff16146108e9576040517f08c379a00000000000000000000000000000000000000000000000000000000081526004016108e09061152b565b60405180910390fd5b600073ffffffffffffffffffffffffffffffffffffffff168173ffffffffffffffffffffffffffffffffffffffff161415610959576040517f08c379a00000000000000000000000000000000000000000000000000000000081526004016109509061150b565b60405180910390fd5b8073ffffffffffffffffffffffffffffffffffffffff166000809054906101000a900473ffffffffffffffffffffffffffffffffffffffff1673ffffffffffffffffffffffffffffffffffffffff167f8be0079c531659141344cd1fd0a4f28419497f9722a3daafe3b4186f6b6457e060405160405180910390a3806000806101000a81548173ffffffffffffffffffffffffffffffffffffffff021916908373ffffffffffffffffffffffffffffffffffffffff16021790555050565b610a1f610c63565b73ffffffffffffffffffffffffffffffffffffffff166000809054906101000a900473ffffffffffffffffffffffffffffffffffffffff1673ffffffffffffffffffffffffffffffffffffffff1614610aad576040517f08c379a0000000000000000000000000000000000000000000000000000000008152600401610aa49061152b565b60405180910390fd5b6000600160008473ffffffffffffffffffffffffffffffffffffffff1673ffffffffffffffffffffffffffffffffffffffff1681526020019081526020016000205414610b2f576040517f08c379a0000000000000000000000000000000000000000000000000000000008152600401610b269061154b565b60405180910390fd5b80600160008473ffffffffffffffffffffffffffffffffffffffff1673ffffffffffffffffffffffffffffffffffffffff168152602001908152602001600020819055506002829080600181540180825580915050600190039060005260206000200160009091909190916101000a81548173ffffffffffffffffffffffffffffffffffffffff021916908373ffffffffffffffffffffffffffffffffffffffff1602179055505050565b600160008573ffffffffffffffffffffffffffffffffffffffff1673ffffffffffffffffffffffffffffffffffffffff16815260200190815260200160002054831115610c5c576040517f08c379a0000000000000000000000000000000000000000000000000000000008152600401610c539061156b565b60405180910390fd5b5050505050565b600033905090565b6060600080610c7a8585610cd9565b9150915080610cbe576040517f08c379a0000000000000000000000000000000000000000000000000000000008152600401610cb5906114cb565b60405180910390fd5b6060610cca8684610d83565b50905080935050505092915050565b60008060008451905060008090505b81811015610d52578473ffffffffffffffffffffffffffffffffffffffff16868281518110610d1357fe5b602002602001015173ffffffffffffffffffffffffffffffffffffffff161415610d4557806001935093505050610d7c565b8080600101915050610ce8565b507fffffffffffffffffffffffffffffffffffffffffffffffffffffffffffffffff600092509250505b9250929050565b60606000808451905084518410610dcf576040517f08c379a0000000000000000000000000000000000000000000000000000000008152600401610dc6906114eb565b60405180910390fd5b60606001820367ffffffffffffffff81118015610deb57600080fd5b50604051908082528060200260200182016040528015610e1a5781602001602082028036833780820191505090505b50905060008090505b85811015610e9257868181518110610e3757fe5b6020026020010151828281518110610e4b57fe5b602002602001019073ffffffffffffffffffffffffffffffffffffffff16908173ffffffffffffffffffffffffffffffffffffffff16815250508080600101915050610e23565b5060006001860190505b82811015610f0e57868181518110610eb057fe5b6020026020010151826001830381518110610ec757fe5b602002602001019073ffffffffffffffffffffffffffffffffffffffff16908173ffffffffffffffffffffffffffffffffffffffff16815250508080600101915050610e9c565b5080868681518110610f1c57fe5b60200260200101519350935050509250929050565b828054828255906000526020600020908101928215610faa579160200282015b82811115610fa95782518260006101000a81548173ffffffffffffffffffffffffffffffffffffffff021916908373ffffffffffffffffffffffffffffffffffffffff16021790555091602001919060010190610f51565b5b509050610fb79190610fbb565b5090565b610ffb91905b80821115610ff757600081816101000a81549073ffffffffffffffffffffffffffffffffffffffff021916905550600101610fc1565b5090565b90565b60008135905061100d8161165e565b92915050565b60008135905061102281611675565b92915050565b6000813590506110378161168c565b92915050565b60006020828403121561104f57600080fd5b600061105d84828501610ffe565b91505092915050565b6000806040838503121561107957600080fd5b600061108785828601610ffe565b925050602061109885828601611028565b9150509250929050565b600080600080600060a086880312156110ba57600080fd5b60006110c888828901611013565b95505060206110d988828901610ffe565b94505060406110ea88828901611028565b93505060606110fb88828901610ffe565b925050608061110c88828901610ffe565b9150509295509295909350565b6000806000806080858703121561112f57600080fd5b600061113d87828801611013565b945050602061114e87828801611028565b935050604061115f87828801610ffe565b925050606061117087828801610ffe565b91505092959194509250565b60006020828403121561118e57600080fd5b600061119c84828501611028565b91505092915050565b60006111b183836111bd565b60208301905092915050565b6111c681611610565b82525050565b6111d581611610565b82525050565b60006111e6826115d6565b6111f081856115ee565b93506111fb836115c6565b8060005b8381101561122c57815161121388826111a5565b975061121e836115e1565b9250506001810190506111ff565b5085935050505092915050565b6000611246600f836115ff565b91507f4173736574206e6f7420616464656400000000000000000000000000000000006000830152602082019050919050565b60006112866015836115ff565b91507f41646472657373206e6f7420696e2061727261792e00000000000000000000006000830152602082019050919050565b60006112c66018836115ff565b91507f496e646578206d757374206265203c2041206c656e67746800000000000000006000830152602082019050919050565b60006113066026836115ff565b91507f4f776e61626c653a206e6577206f776e657220697320746865207a65726f206160008301527f64647265737300000000000000000000000000000000000000000000000000006020830152604082019050919050565b600061136c6020836115ff565b91507f4f776e61626c653a2063616c6c6572206973206e6f7420746865206f776e65726000830152602082019050919050565b60006113ac6013836115ff565b91507f417373657420616c7265616479206164646564000000000000000000000000006000830152602082019050919050565b60006113ec601e836115ff565b91507f49737375652073697a652065786365656473206173736574206c696d697400006000830152602082019050919050565b600061142c601f836115ff565b91507f52656465656d2073697a652065786365656473206173736574206c696d6974006000830152602082019050919050565b61146881611654565b82525050565b600060208201905061148360008301846111cc565b92915050565b600060208201905081810360008301526114a381846111db565b905092915050565b600060208201905081810360008301526114c481611239565b9050919050565b600060208201905081810360008301526114e481611279565b9050919050565b60006020820190508181036000830152611504816112b9565b9050919050565b60006020820190508181036000830152611524816112f9565b9050919050565b600060208201905081810360008301526115448161135f565b9050919050565b600060208201905081810360008301526115648161139f565b9050919050565b60006020820190508181036000830152611584816113df565b9050919050565b600060208201905081810360008301526115a48161141f565b9050919050565b60006020820190506115c0600083018461145f565b92915050565b6000819050602082019050919050565b600081519050919050565b6000602082019050919050565b600082825260208201905092915050565b600082825260208201905092915050565b600061161b82611634565b9050919050565b600061162d82611610565b9050919050565b600073ffffffffffffffffffffffffffffffffffffffff82169050919050565b6000819050919050565b61166781611610565b811461167257600080fd5b50565b61167e81611622565b811461168957600080fd5b50565b61169581611654565b81146116a057600080fd5b5056fea2646970667358221220e98d393d555050d5e9971049ea5b611303007b2f9b677dbb58dbb84dfd0f9d1e64736f6c634300060a0033",
  "immutableReferences": {},
  "source": "/*\n    Copyright 2020 Set Labs Inc.\n\n    Licensed under the Apache License, Version 2.0 (the \"License\");\n    you may not use this file except in compliance with the License.\n    You may obtain a copy of the License at\n\n    http://www.apache.org/licenses/LICENSE-2.0\n\n    Unless required by applicable law or agreed to in writing, software\n    distributed under the License is distributed on an \"AS IS\" BASIS,\n    WITHOUT WARRANTIES OR CONDITIONS OF ANY KIND, either express or implied.\n    See the License for the specific language governing permissions and\n    limitations under the License.\n\n    SPDX-License-Identifier: Apache License, Version 2.0\n*/\n\npragma solidity 0.6.10;\npragma experimental \"ABIEncoderV2\";\n\nimport { Ownable } from \"@openzeppelin/contracts/access/Ownable.sol\";\n\nimport { AddressArrayUtils } from \"../lib/AddressArrayUtils.sol\";\nimport { INAVIssuanceHook } from \"../interfaces/INAVIssuanceHook.sol\";\nimport { ISetToken } from \"../interfaces/ISetToken.sol\";\n\n/**\n * @title AssetLimitHook\n * @author Set Protocol\n *\n * NAVIssuanceModule hook that checks the issue and redeem amounts are lower than a given limit.\n */\ncontract AssetLimitHook is INAVIssuanceHook, Ownable {\n    using AddressArrayUtils for address[];\n\n    /* ============ State Variables ============ */\n\n    mapping(address => uint256) public assetLimits;\n    address[] public assets;\n\n    /* ============ Constructor ============ */\n\n    constructor(address[] memory _assets, uint256[] memory _limits) public {\n        require(_assets.length == _limits.length, \"Arrays must be equal\");\n        require(_assets.length != 0, \"Array must not be empty\");\n        \n        for (uint256 i = 0; i < _assets.length; i++) {\n            address asset = _assets[i];\n            require(assetLimits[asset] == 0, \"Asset already added\");\n            assetLimits[asset] = _limits[i];\n        }\n\n        assets = _assets;\n    }\n\n    /* ============ External Functions ============ */\n\n    function invokePreIssueHook(\n        ISetToken /*_setToken*/,\n        address _reserveAsset,\n        uint256 _reserveAssetQuantity,\n        address /*_sender*/,\n        address /*_to*/\n    )\n        external\n        override\n    {\n        require(\n            _reserveAssetQuantity <= assetLimits[_reserveAsset],\n            \"Issue size exceeds asset limit\"\n        );\n    }\n\n    function invokePreRedeemHook(\n        ISetToken _setToken,\n        uint256 _redeemQuantity,\n        address /*_sender*/,\n        address /*_to*/\n    )\n        external\n        override\n    {\n        require(\n            _redeemQuantity <= assetLimits[address(_setToken)],\n            \"Redeem size exceeds asset limit\"\n        );\n    }\n\n    function addAssetLimit(address _asset, uint256 _newLimit) external onlyOwner {\n        require(assetLimits[_asset] == 0, \"Asset already added\");\n        assetLimits[_asset] = _newLimit;\n        assets.push(_asset);\n    }\n\n    function editAssetLimit(address _asset, uint256 _newLimit) external onlyOwner {\n        require(assetLimits[_asset] != 0, \"Asset not added\");\n        assetLimits[_asset] = _newLimit;\n    }\n\n    function removeAssetLimit(address _asset) external onlyOwner {\n        require(assetLimits[_asset] != 0, \"Asset not added\");\n        delete assetLimits[_asset];\n        assets = assets.remove(_asset);\n    }\n\n    /* ============ Getters ============ */\n    \n    function getAssets() external view returns(address[] memory) { return assets; }\n}",
  "sourcePath": "/Users/tahadhailey/Documents/top5/top5swap/swap/contracts/product/AssetLimitHook.sol",
  "compiler": {
    "name": "solc",
    "version": "0.6.10+commit.00c0fcaf.Emscripten.clang"
  },
  "schemaVersion": "3.2.1",
  "updatedAt": "2021-01-21T08:20:37.635Z",
  "devdoc": {
    "author": "Set Protocol NAVIssuanceModule hook that checks the issue and redeem amounts are lower than a given limit.",
    "methods": {
      "owner()": {
        "details": "Returns the address of the current owner."
      },
      "renounceOwnership()": {
        "details": "Leaves the contract without owner. It will not be possible to call `onlyOwner` functions anymore. Can only be called by the current owner. NOTE: Renouncing ownership will leave the contract without an owner, thereby removing any functionality that is only available to the owner."
      },
      "transferOwnership(address)": {
        "details": "Transfers ownership of the contract to a new account (`newOwner`). Can only be called by the current owner."
      }
    },
    "title": "AssetLimitHook"
  },
  "userdoc": {
    "methods": {}
  }
}