{
  "contractName": "BasicIssuanceModule",
  "abi": [
    {
      "inputs": [
        {
          "internalType": "contract IController",
          "name": "_controller",
          "type": "address"
        }
      ],
      "stateMutability": "nonpayable",
      "type": "constructor"
    },
    {
      "anonymous": false,
      "inputs": [
        {
          "indexed": true,
          "internalType": "address",
          "name": "_setToken",
          "type": "address"
        },
        {
          "indexed": true,
          "internalType": "address",
          "name": "_issuer",
          "type": "address"
        },
        {
          "indexed": true,
          "internalType": "address",
          "name": "_to",
          "type": "address"
        },
        {
          "indexed": false,
          "internalType": "address",
          "name": "_hookContract",
          "type": "address"
        },
        {
          "indexed": false,
          "internalType": "uint256",
          "name": "_quantity",
          "type": "uint256"
        }
      ],
      "name": "SetTokenIssued",
      "type": "event"
    },
    {
      "anonymous": false,
      "inputs": [
        {
          "indexed": true,
          "internalType": "address",
          "name": "_setToken",
          "type": "address"
        },
        {
          "indexed": true,
          "internalType": "address",
          "name": "_redeemer",
          "type": "address"
        },
        {
          "indexed": true,
          "internalType": "address",
          "name": "_to",
          "type": "address"
        },
        {
          "indexed": false,
          "internalType": "uint256",
          "name": "_quantity",
          "type": "uint256"
        }
      ],
      "name": "SetTokenRedeemed",
      "type": "event"
    },
    {
      "inputs": [],
      "name": "controller",
      "outputs": [
        {
          "internalType": "contract IController",
          "name": "",
          "type": "address"
        }
      ],
      "stateMutability": "view",
      "type": "function"
    },
    {
      "inputs": [
        {
          "internalType": "contract ISetToken",
          "name": "",
          "type": "address"
        }
      ],
      "name": "managerIssuanceHook",
      "outputs": [
        {
          "internalType": "contract IManagerIssuanceHook",
          "name": "",
          "type": "address"
        }
      ],
      "stateMutability": "view",
      "type": "function"
    },
    {
      "inputs": [
        {
          "internalType": "contract ISetToken",
          "name": "_setToken",
          "type": "address"
        },
        {
          "internalType": "uint256",
          "name": "_quantity",
          "type": "uint256"
        },
        {
          "internalType": "address",
          "name": "_to",
          "type": "address"
        }
      ],
      "name": "issue",
      "outputs": [],
      "stateMutability": "nonpayable",
      "type": "function"
    },
    {
      "inputs": [
        {
          "internalType": "contract ISetToken",
          "name": "_setToken",
          "type": "address"
        },
        {
          "internalType": "uint256",
          "name": "_quantity",
          "type": "uint256"
        },
        {
          "internalType": "address",
          "name": "_to",
          "type": "address"
        }
      ],
      "name": "redeem",
      "outputs": [],
      "stateMutability": "nonpayable",
      "type": "function"
    },
    {
      "inputs": [
        {
          "internalType": "contract ISetToken",
          "name": "_setToken",
          "type": "address"
        },
        {
          "internalType": "contract IManagerIssuanceHook",
          "name": "_preIssueHook",
          "type": "address"
        }
      ],
      "name": "initialize",
      "outputs": [],
      "stateMutability": "nonpayable",
      "type": "function"
    },
    {
      "inputs": [],
      "name": "removeModule",
      "outputs": [],
      "stateMutability": "nonpayable",
      "type": "function"
    },
    {
      "inputs": [
        {
          "internalType": "contract ISetToken",
          "name": "_setToken",
          "type": "address"
        },
        {
          "internalType": "uint256",
          "name": "_quantity",
          "type": "uint256"
        }
      ],
      "name": "getRequiredComponentUnitsForIssue",
      "outputs": [
        {
          "internalType": "address[]",
          "name": "",
          "type": "address[]"
        },
        {
          "internalType": "uint256[]",
          "name": "",
          "type": "uint256[]"
        }
      ],
      "stateMutability": "view",
      "type": "function"
    }
  ],
  "bytecode": "0x60806040523480156200001157600080fd5b5060405162002ef538038062002ef583398181016040528101906200003791906200009e565b80806000806101000a81548173ffffffffffffffffffffffffffffffffffffffff021916908373ffffffffffffffffffffffffffffffffffffffff1602179055505060018081905550506200012c565b600081519050620000988162000112565b92915050565b600060208284031215620000b157600080fd5b6000620000c18482850162000087565b91505092915050565b6000620000d782620000f2565b9050919050565b6000620000eb82620000ca565b9050919050565b600073ffffffffffffffffffffffffffffffffffffffff82169050919050565b6200011d81620000de565b81146200012957600080fd5b50565b612db9806200013c6000396000f3fe608060405234801561001057600080fd5b506004361061007d5760003560e01c80637a4ffd031161005b5780637a4ffd03146100d6578063847ef08d14610107578063dfe7533514610111578063f77c4791146101415761007d565b8063485cc955146100825780635c833bfd1461009e5780636d78f47a146100ba575b600080fd5b61009c60048036038101906100979190611e34565b61015f565b005b6100b860048036038101906100b39190611eac565b6103c1565b005b6100d460048036038101906100cf9190611eac565b610793565b005b6100f060048036038101906100eb9190611e70565b6109d8565b6040516100fe929190612766565b60405180910390f35b61010f610c6e565b005b61012b60048036038101906101269190611e0b565b610ca9565b60405161013891906127b8565b60405180910390f35b610149610cdc565b604051610156919061279d565b60405180910390f35b813361016b8282610d01565b6101aa576040517f08c379a00000000000000000000000000000000000000000000000000000000081526004016101a1906129da565b60405180910390fd5b836000809054906101000a900473ffffffffffffffffffffffffffffffffffffffff1673ffffffffffffffffffffffffffffffffffffffff166374ebe3ec826040518263ffffffff1660e01b81526004016102059190612684565b60206040518083038186803b15801561021d57600080fd5b505afa158015610231573d6000803e3d6000fd5b505050506040513d601f19601f820116820180604052508101906102559190611da1565b610294576040517f08c379a000000000000000000000000000000000000000000000000000000000815260040161028b906129ba565b60405180910390fd5b61029d81610db7565b6102dc576040517f08c379a00000000000000000000000000000000000000000000000000000000081526004016102d3906128da565b60405180910390fd5b83600260008773ffffffffffffffffffffffffffffffffffffffff1673ffffffffffffffffffffffffffffffffffffffff16815260200190815260200160002060006101000a81548173ffffffffffffffffffffffffffffffffffffffff021916908373ffffffffffffffffffffffffffffffffffffffff1602179055508473ffffffffffffffffffffffffffffffffffffffff16630ffe0f1e6040518163ffffffff1660e01b8152600401600060405180830381600087803b1580156103a257600080fd5b505af11580156103b6573d6000803e3d6000fd5b505050505050505050565b60026001541415610407576040517f08c379a00000000000000000000000000000000000000000000000000000000081526004016103fe90612a1a565b60405180910390fd5b60026001819055508261041981610e49565b610458576040517f08c379a000000000000000000000000000000000000000000000000000000000815260040161044f9061283a565b60405180910390fd5b6000831161049b576040517f08c379a00000000000000000000000000000000000000000000000000000000081526004016104929061285a565b60405180910390fd5b8373ffffffffffffffffffffffffffffffffffffffff16639dc29fac33856040518363ffffffff1660e01b81526004016104d692919061269f565b600060405180830381600087803b1580156104f057600080fd5b505af1158015610504573d6000803e3d6000fd5b5050505060608473ffffffffffffffffffffffffffffffffffffffff166399d50d5d6040518163ffffffff1660e01b815260040160006040518083038186803b15801561055057600080fd5b505afa158015610564573d6000803e3d6000fd5b505050506040513d6000823e3d601f19601f8201168201806040525081019061058d9190611d60565b905060008090505b81518110156107085760008282815181106105ac57fe5b602002602001015190506105df818873ffffffffffffffffffffffffffffffffffffffff16610f8d90919063ffffffff16565b1561061f576040517f08c379a0000000000000000000000000000000000000000000000000000000008152600401610616906128ba565b60405180910390fd5b60006106b28873ffffffffffffffffffffffffffffffffffffffff166366cb8d2f846040518263ffffffff1660e01b815260040161065d9190612684565b60206040518083038186803b15801561067557600080fd5b505afa158015610689573d6000803e3d6000fd5b505050506040513d601f19601f820116820180604052508101906106ad9190611efb565b611028565b905060006106c9828961107590919063ffffffff16565b90506106f88388838c73ffffffffffffffffffffffffffffffffffffffff166110ac909392919063ffffffff16565b5050508080600101915050610595565b508273ffffffffffffffffffffffffffffffffffffffff163373ffffffffffffffffffffffffffffffffffffffff168673ffffffffffffffffffffffffffffffffffffffff167f05f8aaada00823525432114f0e904c6f7c0198a5b8f113ee635ff81aaf9566ad8760405161077d9190612a3a565b60405180910390a4505060018081905550505050565b600260015414156107d9576040517f08c379a00000000000000000000000000000000000000000000000000000000081526004016107d090612a1a565b60405180910390fd5b6002600181905550826107eb81610e49565b61082a576040517f08c379a00000000000000000000000000000000000000000000000000000000081526004016108219061283a565b60405180910390fd5b6000831161086d576040517f08c379a0000000000000000000000000000000000000000000000000000000008152600401610864906128fa565b60405180910390fd5b600061087b85853386611238565b905060608061088a87876109d8565b9150915060008090505b82518110156108dc576108cf8382815181106108ac57fe5b6020026020010151338a8585815181106108c257fe5b6020026020010151611359565b8080600101915050610894565b508673ffffffffffffffffffffffffffffffffffffffff166340c10f1986886040518363ffffffff1660e01b815260040161091892919061273d565b600060405180830381600087803b15801561093257600080fd5b505af1158015610946573d6000803e3d6000fd5b505050508473ffffffffffffffffffffffffffffffffffffffff163373ffffffffffffffffffffffffffffffffffffffff168873ffffffffffffffffffffffffffffffffffffffff167fc07f1e2fe31c4d90eae81f76d263d7995aac043a99d6ee6de9c0506047f541c2868a6040516109c092919061273d565b60405180910390a45050505060018081905550505050565b606080836109e581610e49565b610a24576040517f08c379a0000000000000000000000000000000000000000000000000000000008152600401610a1b9061283a565b60405180910390fd5b60608573ffffffffffffffffffffffffffffffffffffffff166399d50d5d6040518163ffffffff1660e01b815260040160006040518083038186803b158015610a6c57600080fd5b505afa158015610a80573d6000803e3d6000fd5b505050506040513d6000823e3d601f19601f82011682018060405250810190610aa99190611d60565b90506060815167ffffffffffffffff81118015610ac557600080fd5b50604051908082528060200260200182016040528015610af45781602001602082028036833780820191505090505b50905060008090505b8251811015610c5d57610b42838281518110610b1557fe5b60200260200101518973ffffffffffffffffffffffffffffffffffffffff16610f8d90919063ffffffff16565b15610b82576040517f08c379a0000000000000000000000000000000000000000000000000000000008152600401610b79906128ba565b60405180910390fd5b610c3887610c2a8a73ffffffffffffffffffffffffffffffffffffffff166366cb8d2f878681518110610bb157fe5b60200260200101516040518263ffffffff1660e01b8152600401610bd59190612684565b60206040518083038186803b158015610bed57600080fd5b505afa158015610c01573d6000803e3d6000fd5b505050506040513d601f19601f82011682018060405250810190610c259190611efb565b611028565b61136b90919063ffffffff16565b828281518110610c4457fe5b6020026020010181815250508080600101915050610afd565b508181945094505050509250929050565b6040517f08c379a0000000000000000000000000000000000000000000000000000000008152600401610ca09061289a565b60405180910390fd5b60026020528060005260406000206000915054906101000a900473ffffffffffffffffffffffffffffffffffffffff1681565b6000809054906101000a900473ffffffffffffffffffffffffffffffffffffffff1681565b60008173ffffffffffffffffffffffffffffffffffffffff168373ffffffffffffffffffffffffffffffffffffffff1663481c6a756040518163ffffffff1660e01b815260040160206040518083038186803b158015610d6057600080fd5b505afa158015610d74573d6000803e3d6000fd5b505050506040513d601f19601f82011682018060405250810190610d989190611d37565b73ffffffffffffffffffffffffffffffffffffffff1614905092915050565b60008173ffffffffffffffffffffffffffffffffffffffff166353bae5f7306040518263ffffffff1660e01b8152600401610df29190612684565b60206040518083038186803b158015610e0a57600080fd5b505afa158015610e1e573d6000803e3d6000fd5b505050506040513d601f19601f82011682018060405250810190610e429190611da1565b9050919050565b60008060009054906101000a900473ffffffffffffffffffffffffffffffffffffffff1673ffffffffffffffffffffffffffffffffffffffff166374ebe3ec836040518263ffffffff1660e01b8152600401610ea59190612684565b60206040518083038186803b158015610ebd57600080fd5b505afa158015610ed1573d6000803e3d6000fd5b505050506040513d601f19601f82011682018060405250810190610ef59190611da1565b8015610f8657508173ffffffffffffffffffffffffffffffffffffffff1663d7f1b27c306040518263ffffffff1660e01b8152600401610f359190612684565b60206040518083038186803b158015610f4d57600080fd5b505afa158015610f61573d6000803e3d6000fd5b505050506040513d601f19601f82011682018060405250810190610f859190611da1565b5b9050919050565b6000808373ffffffffffffffffffffffffffffffffffffffff1663a7bdad03846040518263ffffffff1660e01b8152600401610fc99190612684565b60006040518083038186803b158015610fe157600080fd5b505afa158015610ff5573d6000803e3d6000fd5b505050506040513d6000823e3d601f19601f8201168201806040525081019061101e9190611d60565b5111905092915050565b60008082121561106d576040517f08c379a00000000000000000000000000000000000000000000000000000000081526004016110649061293a565b60405180910390fd5b819050919050565b60006110a4670de0b6b3a764000061109684866113e590919063ffffffff16565b61145590919063ffffffff16565b905092915050565b60008111156112325760008373ffffffffffffffffffffffffffffffffffffffff166370a08231866040518263ffffffff1660e01b81526004016110f09190612684565b60206040518083038186803b15801561110857600080fd5b505afa15801561111c573d6000803e3d6000fd5b505050506040513d601f19601f820116820180604052508101906111409190611f24565b905061114e8585858561149f565b60008473ffffffffffffffffffffffffffffffffffffffff166370a08231876040518263ffffffff1660e01b81526004016111899190612684565b60206040518083038186803b1580156111a157600080fd5b505afa1580156111b5573d6000803e3d6000fd5b505050506040513d601f19601f820116820180604052508101906111d99190611f24565b90506111ee83836115da90919063ffffffff16565b811461122f576040517f08c379a00000000000000000000000000000000000000000000000000000000081526004016112269061297a565b60405180910390fd5b50505b50505050565b600080600260008773ffffffffffffffffffffffffffffffffffffffff1673ffffffffffffffffffffffffffffffffffffffff16815260200190815260200160002060009054906101000a900473ffffffffffffffffffffffffffffffffffffffff169050600073ffffffffffffffffffffffffffffffffffffffff168173ffffffffffffffffffffffffffffffffffffffff161461134b578073ffffffffffffffffffffffffffffffffffffffff1663a0458083878787876040518563ffffffff1660e01b815260040161131094939291906127d3565b600060405180830381600087803b15801561132a57600080fd5b505af115801561133e573d6000803e3d6000fd5b5050505080915050611351565b60009150505b949350505050565b61136584848484611624565b50505050565b60008083148061137b5750600082145b1561138957600090506113df565b6113dc60016113ce670de0b6b3a76400006113c060016113b2888a6113e590919063ffffffff16565b6115da90919063ffffffff16565b61145590919063ffffffff16565b6117b090919063ffffffff16565b90505b92915050565b6000808314156113f8576000905061144f565b600082840290508284828161140957fe5b041461144a576040517f08c379a00000000000000000000000000000000000000000000000000000000081526004016114419061295a565b60405180910390fd5b809150505b92915050565b600061149783836040518060400160405280601a81526020017f536166654d6174683a206469766973696f6e206279207a65726f000000000000815250611805565b905092915050565b60008111156115d457606082826040516024016114bd92919061273d565b6040516020818303038152906040527fa9059cbb000000000000000000000000000000000000000000000000000000007bffffffffffffffffffffffffffffffffffffffffffffffffffffffff19166020820180517bffffffffffffffffffffffffffffffffffffffffffffffffffffffff838183161783525050505090508473ffffffffffffffffffffffffffffffffffffffff16638f6f0332856000846040518463ffffffff1660e01b815260040161157a939291906126ff565b600060405180830381600087803b15801561159457600080fd5b505af11580156115a8573d6000803e3d6000fd5b505050506040513d6000823e3d601f19601f820116820180604052508101906115d19190611dca565b50505b50505050565b600061161c83836040518060400160405280601e81526020017f536166654d6174683a207375627472616374696f6e206f766572666c6f770000815250611866565b905092915050565b60008111156117aa5760008473ffffffffffffffffffffffffffffffffffffffff166370a08231846040518263ffffffff1660e01b81526004016116689190612684565b60206040518083038186803b15801561168057600080fd5b505afa158015611694573d6000803e3d6000fd5b505050506040513d601f19601f820116820180604052508101906116b89190611f24565b90506116c6858585856118c1565b60008573ffffffffffffffffffffffffffffffffffffffff166370a08231856040518263ffffffff1660e01b81526004016117019190612684565b60206040518083038186803b15801561171957600080fd5b505afa15801561172d573d6000803e3d6000fd5b505050506040513d601f19601f820116820180604052508101906117519190611f24565b905061176683836117b090919063ffffffff16565b81146117a7576040517f08c379a000000000000000000000000000000000000000000000000000000000815260040161179e9061297a565b60405180910390fd5b50505b50505050565b6000808284019050838110156117fb576040517f08c379a00000000000000000000000000000000000000000000000000000000081526004016117f29061287a565b60405180910390fd5b8091505092915050565b6000808311829061184c576040517f08c379a00000000000000000000000000000000000000000000000000000000081526004016118439190612818565b60405180910390fd5b50600083858161185857fe5b049050809150509392505050565b60008383111582906118ae576040517f08c379a00000000000000000000000000000000000000000000000000000000081526004016118a59190612818565b60405180910390fd5b5060008385039050809150509392505050565b611944846323b872dd60e01b8585856040516024016118e2939291906126c8565b604051602081830303815290604052907bffffffffffffffffffffffffffffffffffffffffffffffffffffffff19166020820180517bffffffffffffffffffffffffffffffffffffffffffffffffffffffff838183161783525050505061194a565b50505050565b60606119ac826040518060400160405280602081526020017f5361666545524332303a206c6f772d6c6576656c2063616c6c206661696c65648152508573ffffffffffffffffffffffffffffffffffffffff16611a119092919063ffffffff16565b9050600081511115611a0c57808060200190518101906119cc9190611da1565b611a0b576040517f08c379a0000000000000000000000000000000000000000000000000000000008152600401611a02906129fa565b60405180910390fd5b5b505050565b6060611a208484600085611a29565b90509392505050565b606082471015611a6e576040517f08c379a0000000000000000000000000000000000000000000000000000000008152600401611a659061291a565b60405180910390fd5b611a7785611b3e565b611ab6576040517f08c379a0000000000000000000000000000000000000000000000000000000008152600401611aad9061299a565b60405180910390fd5b600060608673ffffffffffffffffffffffffffffffffffffffff168587604051611ae0919061266d565b60006040518083038185875af1925050503d8060008114611b1d576040519150601f19603f3d011682016040523d82523d6000602084013e611b22565b606091505b5091509150611b32828286611b51565b92505050949350505050565b600080823b905060008111915050919050565b60608315611b6157829050611bb1565b600083511115611b745782518084602001fd5b816040517f08c379a0000000000000000000000000000000000000000000000000000000008152600401611ba89190612818565b60405180910390fd5b9392505050565b600081359050611bc781612cf9565b92915050565b600081519050611bdc81612cf9565b92915050565b600082601f830112611bf357600080fd5b8151611c06611c0182612a82565b612a55565b91508181835260208401935060208101905083856020840282011115611c2b57600080fd5b60005b83811015611c5b5781611c418882611bcd565b845260208401935060208301925050600181019050611c2e565b5050505092915050565b600081519050611c7481612d10565b92915050565b600082601f830112611c8b57600080fd5b8151611c9e611c9982612aaa565b612a55565b91508082526020830160208301858383011115611cba57600080fd5b611cc5838284612cb5565b50505092915050565b600081359050611cdd81612d27565b92915050565b600081359050611cf281612d3e565b92915050565b600081519050611d0781612d55565b92915050565b600081359050611d1c81612d6c565b92915050565b600081519050611d3181612d6c565b92915050565b600060208284031215611d4957600080fd5b6000611d5784828501611bcd565b91505092915050565b600060208284031215611d7257600080fd5b600082015167ffffffffffffffff811115611d8c57600080fd5b611d9884828501611be2565b91505092915050565b600060208284031215611db357600080fd5b6000611dc184828501611c65565b91505092915050565b600060208284031215611ddc57600080fd5b600082015167ffffffffffffffff811115611df657600080fd5b611e0284828501611c7a565b91505092915050565b600060208284031215611e1d57600080fd5b6000611e2b84828501611ce3565b91505092915050565b60008060408385031215611e4757600080fd5b6000611e5585828601611ce3565b9250506020611e6685828601611cce565b9150509250929050565b60008060408385031215611e8357600080fd5b6000611e9185828601611ce3565b9250506020611ea285828601611d0d565b9150509250929050565b600080600060608486031215611ec157600080fd5b6000611ecf86828701611ce3565b9350506020611ee086828701611d0d565b9250506040611ef186828701611bb8565b9150509250925092565b600060208284031215611f0d57600080fd5b6000611f1b84828501611cf8565b91505092915050565b600060208284031215611f3657600080fd5b6000611f4484828501611d22565b91505092915050565b6000611f598383611f8c565b60208301905092915050565b6000611f71838361264f565b60208301905092915050565b611f8681612c01565b82525050565b611f9581612b8b565b82525050565b611fa481612b8b565b82525050565b6000611fb582612af6565b611fbf8185612b3c565b9350611fca83612ad6565b8060005b83811015611ffb578151611fe28882611f4d565b9750611fed83612b22565b925050600181019050611fce565b5085935050505092915050565b600061201382612b01565b61201d8185612b4d565b935061202883612ae6565b8060005b838110156120595781516120408882611f65565b975061204b83612b2f565b92505060018101905061202c565b5085935050505092915050565b600061207182612b0c565b61207b8185612b5e565b935061208b818560208601612cb5565b61209481612ce8565b840191505092915050565b60006120aa82612b0c565b6120b48185612b6f565b93506120c4818560208601612cb5565b80840191505092915050565b6120d981612c13565b82525050565b6120e881612c37565b82525050565b6120f781612c5b565b82525050565b61210681612c7f565b82525050565b600061211782612b17565b6121218185612b7a565b9350612131818560208601612cb5565b61213a81612ce8565b840191505092915050565b6000612152602883612b7a565b91507f4d75737420626520612076616c696420616e6420696e697469616c697a65642060008301527f536574546f6b656e0000000000000000000000000000000000000000000000006020830152604082019050919050565b60006121b8601b83612b7a565b91507f52656465656d207175616e74697479206d757374206265203e203000000000006000830152602082019050919050565b60006121f8601b83612b7a565b91507f536166654d6174683a206164646974696f6e206f766572666c6f7700000000006000830152602082019050919050565b6000612238603083612b7a565b91507f54686520426173696349737375616e63654d6f64756c65206d6f64756c65206360008301527f616e6e6f742062652072656d6f766564000000000000000000000000000000006020830152604082019050919050565b600061229e602483612b7a565b91507f4f6e6c792064656661756c7420706f736974696f6e732061726520737570706f60008301527f72746564000000000000000000000000000000000000000000000000000000006020830152604082019050919050565b6000612304601e83612b7a565b91507f4d7573742062652070656e64696e6720696e697469616c697a6174696f6e00006000830152602082019050919050565b6000612344601a83612b7a565b91507f4973737565207175616e74697479206d757374206265203e20300000000000006000830152602082019050919050565b6000612384602683612b7a565b91507f416464726573733a20696e73756666696369656e742062616c616e636520666f60008301527f722063616c6c00000000000000000000000000000000000000000000000000006020830152604082019050919050565b60006123ea602083612b7a565b91507f53616665436173743a2076616c7565206d75737420626520706f7369746976656000830152602082019050919050565b600061242a602183612b7a565b91507f536166654d6174683a206d756c7469706c69636174696f6e206f766572666c6f60008301527f77000000000000000000000000000000000000000000000000000000000000006020830152604082019050919050565b6000612490601d83612b7a565b91507f496e76616c696420706f7374207472616e736665722062616c616e63650000006000830152602082019050919050565b60006124d0601d83612b7a565b91507f416464726573733a2063616c6c20746f206e6f6e2d636f6e74726163740000006000830152602082019050919050565b6000612510602383612b7a565b91507f4d75737420626520636f6e74726f6c6c65722d656e61626c656420536574546f60008301527f6b656e00000000000000000000000000000000000000000000000000000000006020830152604082019050919050565b6000612576601c83612b7a565b91507f4d7573742062652074686520536574546f6b656e206d616e61676572000000006000830152602082019050919050565b60006125b6602a83612b7a565b91507f5361666545524332303a204552433230206f7065726174696f6e20646964206e60008301527f6f742073756363656564000000000000000000000000000000000000000000006020830152604082019050919050565b600061261c601f83612b7a565b91507f5265656e7472616e637947756172643a207265656e7472616e742063616c6c006000830152602082019050919050565b61265881612bf7565b82525050565b61266781612bf7565b82525050565b6000612679828461209f565b915081905092915050565b60006020820190506126996000830184611f9b565b92915050565b60006040820190506126b46000830185611f7d565b6126c1602083018461265e565b9392505050565b60006060820190506126dd6000830186611f9b565b6126ea6020830185611f9b565b6126f7604083018461265e565b949350505050565b60006060820190506127146000830186611f9b565b61272160208301856120fd565b81810360408301526127338184612066565b9050949350505050565b60006040820190506127526000830185611f9b565b61275f602083018461265e565b9392505050565b600060408201905081810360008301526127808185611faa565b905081810360208301526127948184612008565b90509392505050565b60006020820190506127b260008301846120d0565b92915050565b60006020820190506127cd60008301846120df565b92915050565b60006080820190506127e860008301876120ee565b6127f5602083018661265e565b6128026040830185611f9b565b61280f6060830184611f9b565b95945050505050565b60006020820190508181036000830152612832818461210c565b905092915050565b6000602082019050818103600083015261285381612145565b9050919050565b60006020820190508181036000830152612873816121ab565b9050919050565b60006020820190508181036000830152612893816121eb565b9050919050565b600060208201905081810360008301526128b38161222b565b9050919050565b600060208201905081810360008301526128d381612291565b9050919050565b600060208201905081810360008301526128f3816122f7565b9050919050565b6000602082019050818103600083015261291381612337565b9050919050565b6000602082019050818103600083015261293381612377565b9050919050565b60006020820190508181036000830152612953816123dd565b9050919050565b600060208201905081810360008301526129738161241d565b9050919050565b6000602082019050818103600083015261299381612483565b9050919050565b600060208201905081810360008301526129b3816124c3565b9050919050565b600060208201905081810360008301526129d381612503565b9050919050565b600060208201905081810360008301526129f381612569565b9050919050565b60006020820190508181036000830152612a13816125a9565b9050919050565b60006020820190508181036000830152612a338161260f565b9050919050565b6000602082019050612a4f600083018461265e565b92915050565b6000604051905081810181811067ffffffffffffffff82111715612a7857600080fd5b8060405250919050565b600067ffffffffffffffff821115612a9957600080fd5b602082029050602081019050919050565b600067ffffffffffffffff821115612ac157600080fd5b601f19601f8301169050602081019050919050565b6000819050602082019050919050565b6000819050602082019050919050565b600081519050919050565b600081519050919050565b600081519050919050565b600081519050919050565b6000602082019050919050565b6000602082019050919050565b600082825260208201905092915050565b600082825260208201905092915050565b600082825260208201905092915050565b600081905092915050565b600082825260208201905092915050565b6000612b9682612bd7565b9050919050565b60008115159050919050565b6000612bb482612b8b565b9050919050565b6000612bc682612b8b565b9050919050565b6000819050919050565b600073ffffffffffffffffffffffffffffffffffffffff82169050919050565b6000819050919050565b6000612c0c82612c91565b9050919050565b6000612c1e82612c25565b9050919050565b6000612c3082612bd7565b9050919050565b6000612c4282612c49565b9050919050565b6000612c5482612bd7565b9050919050565b6000612c6682612c6d565b9050919050565b6000612c7882612bd7565b9050919050565b6000612c8a82612bf7565b9050919050565b6000612c9c82612ca3565b9050919050565b6000612cae82612bd7565b9050919050565b60005b83811015612cd3578082015181840152602081019050612cb8565b83811115612ce2576000848401525b50505050565b6000601f19601f8301169050919050565b612d0281612b8b565b8114612d0d57600080fd5b50565b612d1981612b9d565b8114612d2457600080fd5b50565b612d3081612ba9565b8114612d3b57600080fd5b50565b612d4781612bbb565b8114612d5257600080fd5b50565b612d5e81612bcd565b8114612d6957600080fd5b50565b612d7581612bf7565b8114612d8057600080fd5b5056fea264697066735822122071276280162a08e1bb8ecaf3d4810d11ab0cc30cc6749033538eba740d187ff064736f6c634300060a0033",
  "immutableReferences": {},
  "source": "/*\n    Copyright 2020 Set Labs Inc.\n    Licensed under the Apache License, Version 2.0 (the \"License\");\n    you may not use this file except in compliance with the License.\n    You may obtain a copy of the License at\n    http://www.apache.org/licenses/LICENSE-2.0\n    Unless required by applicable law or agreed to in writing, software\n    distributed under the License is distributed on an \"AS IS\" BASIS,\n    WITHOUT WARRANTIES OR CONDITIONS OF ANY KIND, either express or implied.\n    See the License for the specific language governing permissions and\n    limitations under the License.\n    SPDX-License-Identifier: Apache License, Version 2.0\n*/\n\npragma solidity 0.6.10;\npragma experimental \"ABIEncoderV2\";\n\nimport { IERC20 } from \"@openzeppelin/contracts/token/ERC20/IERC20.sol\";\nimport { ReentrancyGuard } from \"@openzeppelin/contracts/utils/ReentrancyGuard.sol\";\nimport { SafeCast } from \"@openzeppelin/contracts/utils/SafeCast.sol\";\nimport { SafeMath } from \"@openzeppelin/contracts/math/SafeMath.sol\";\n\nimport { IController } from \"../../interfaces/IController.sol\";\nimport { IManagerIssuanceHook } from \"../../interfaces/IManagerIssuanceHook.sol\";\nimport { Invoke } from \"../lib/Invoke.sol\";\nimport { ISetToken } from \"../../interfaces/ISetToken.sol\";\nimport { ModuleBase } from \"../lib/ModuleBase.sol\";\nimport { Position } from \"../lib/Position.sol\";\nimport { PreciseUnitMath } from \"../../lib/PreciseUnitMath.sol\";\n\n/**\n * @title BasicIssuanceModule\n * @author Set Protocol\n *\n * Module that enables issuance and redemption functionality on a SetToken. This is a module that is\n * required to bring the totalSupply of a Set above 0.\n */\ncontract BasicIssuanceModule is ModuleBase, ReentrancyGuard {\n    using Invoke for ISetToken;\n    using Position for ISetToken.Position;\n    using Position for ISetToken;\n    using PreciseUnitMath for uint256;\n    using SafeMath for uint256;\n    using SafeCast for int256;\n\n    /* ============ Events ============ */\n\n    event SetTokenIssued(\n        address indexed _setToken,\n        address indexed _issuer,\n        address indexed _to,\n        address _hookContract,\n        uint256 _quantity\n    );\n    event SetTokenRedeemed(\n        address indexed _setToken,\n        address indexed _redeemer,\n        address indexed _to,\n        uint256 _quantity\n    );\n\n    /* ============ State Variables ============ */\n\n    // Mapping of SetToken to Issuance hook configurations\n    mapping(ISetToken => IManagerIssuanceHook) public managerIssuanceHook;\n\n    /* ============ Constructor ============ */\n\n    /**\n     * Set state controller state variable\n     *\n     * @param _controller             Address of controller contract\n     */\n    constructor(IController _controller) public ModuleBase(_controller) {}\n\n    /* ============ External Functions ============ */\n\n    /**\n     * Deposits the SetToken's position components into the SetToken and mints the SetToken of the given quantity\n     * to the specified _to address. This function only handles Default Positions (positionState = 0).\n     *\n     * @param _setToken             Instance of the SetToken contract\n     * @param _quantity             Quantity of the SetToken to mint\n     * @param _to                   Address to mint SetToken to\n     */\n    function issue(\n        ISetToken _setToken,\n        uint256 _quantity,\n        address _to\n    ) \n        external\n        nonReentrant\n        onlyValidAndInitializedSet(_setToken)\n    {\n        require(_quantity > 0, \"Issue quantity must be > 0\");\n\n        address hookContract = _callPreIssueHooks(_setToken, _quantity, msg.sender, _to);\n\n        (\n            address[] memory components,\n            uint256[] memory componentQuantities\n        ) = getRequiredComponentUnitsForIssue(_setToken, _quantity);\n\n        // For each position, transfer the required underlying to the SetToken\n        for (uint256 i = 0; i < components.length; i++) {\n            // Transfer the component to the SetToken\n            transferFrom(\n                IERC20(components[i]),\n                msg.sender,\n                address(_setToken),\n                componentQuantities[i]\n            );\n        }\n\n        // Mint the SetToken\n        _setToken.mint(_to, _quantity);\n\n        emit SetTokenIssued(address(_setToken), msg.sender, _to, hookContract, _quantity);\n    }\n\n    /**\n     * Redeems the SetToken's positions and sends the components of the given\n     * quantity to the caller. This function only handles Default Positions (positionState = 0).\n     *\n     * @param _setToken             Instance of the SetToken contract\n     * @param _quantity             Quantity of the SetToken to redeem\n     * @param _to                   Address to send component assets to\n     */\n    function redeem(\n        ISetToken _setToken,\n        uint256 _quantity,\n        address _to\n    )\n        external\n        nonReentrant\n        onlyValidAndInitializedSet(_setToken)\n    {\n        require(_quantity > 0, \"Redeem quantity must be > 0\");\n\n        // Burn the SetToken - ERC20's internal burn already checks that the user has enough balance\n        _setToken.burn(msg.sender, _quantity);\n\n        // For each position, invoke the SetToken to transfer the tokens to the user\n        address[] memory components = _setToken.getComponents();\n        for (uint256 i = 0; i < components.length; i++) {\n            address component = components[i];\n            require(!_setToken.hasExternalPosition(component), \"Only default positions are supported\");\n\n            uint256 unit = _setToken.getDefaultPositionRealUnit(component).toUint256();\n\n            // Use preciseMul to round down to ensure overcollateration when small redeem quantities are provided\n            uint256 componentQuantity = _quantity.preciseMul(unit);\n\n            // Instruct the SetToken to transfer the component to the user\n            _setToken.strictInvokeTransfer(\n                component,\n                _to,\n                componentQuantity\n            );\n        }\n\n        emit SetTokenRedeemed(address(_setToken), msg.sender, _to, _quantity);\n    }\n\n    /**\n     * Initializes this module to the SetToken with issuance-related hooks. Only callable by the SetToken's manager.\n     * Hook addresses are optional. Address(0) means that no hook will be called\n     *\n     * @param _setToken             Instance of the SetToken to issue\n     * @param _preIssueHook         Instance of the Manager Contract with the Pre-Issuance Hook function\n     */\n    function initialize(\n        ISetToken _setToken,\n        IManagerIssuanceHook _preIssueHook\n    )\n        external\n        onlySetManager(_setToken, msg.sender)\n        onlyValidAndPendingSet(_setToken)\n    {\n        managerIssuanceHook[_setToken] = _preIssueHook;\n\n        _setToken.initializeModule();\n    }\n\n    /**\n     * Reverts as this module should not be removable after added. Users should always\n     * have a way to redeem their Sets\n     */\n    function removeModule() external override {\n        revert(\"The BasicIssuanceModule module cannot be removed\");\n    }\n\n    /* ============ External Getter Functions ============ */\n\n    /**\n     * Retrieves the addresses and units required to mint a particular quantity of SetToken.\n     *\n     * @param _setToken             Instance of the SetToken to issue\n     * @param _quantity             Quantity of SetToken to issue\n     * @return address[]            List of component addresses\n     * @return uint256[]            List of component units required to issue the quantity of SetTokens\n     */\n    function getRequiredComponentUnitsForIssue(\n        ISetToken _setToken,\n        uint256 _quantity\n    )\n        public\n        view\n        onlyValidAndInitializedSet(_setToken)\n        returns (address[] memory, uint256[] memory)\n    {\n        address[] memory components = _setToken.getComponents();\n\n        uint256[] memory notionalUnits = new uint256[](components.length);\n\n        for (uint256 i = 0; i < components.length; i++) {\n            require(!_setToken.hasExternalPosition(components[i]), \"Only default positions are supported\");\n\n            notionalUnits[i] = _setToken.getDefaultPositionRealUnit(components[i]).toUint256().preciseMulCeil(_quantity);\n        }\n\n        return (components, notionalUnits);\n    }\n\n    /* ============ Internal Functions ============ */\n\n    /**\n     * If a pre-issue hook has been configured, call the external-protocol contract. Pre-issue hook logic\n     * can contain arbitrary logic including validations, external function calls, etc.\n     */\n    function _callPreIssueHooks(\n        ISetToken _setToken,\n        uint256 _quantity,\n        address _caller,\n        address _to\n    )\n        internal\n        returns(address)\n    {\n        IManagerIssuanceHook preIssueHook = managerIssuanceHook[_setToken];\n        if (address(preIssueHook) != address(0)) {\n            preIssueHook.invokePreIssueHook(_setToken, _quantity, _caller, _to);\n            return address(preIssueHook);\n        }\n\n        return address(0);\n    }\n}",
  "sourcePath": "/Users/tahadhailey/Documents/top5/top5swap/swap/contracts/protocol/modules/BasicIssuanceModule.sol",
  "compiler": {
    "name": "solc",
    "version": "0.6.10+commit.00c0fcaf.Emscripten.clang"
  },
  "schemaVersion": "3.2.1",
  "updatedAt": "2021-01-21T08:20:37.737Z",
  "devdoc": {
    "author": "Set Protocol Module that enables issuance and redemption functionality on a SetToken. This is a module that is required to bring the totalSupply of a Set above 0.",
    "methods": {
      "constructor": {
        "params": {
          "_controller": "Address of controller contract"
        }
      },
      "getRequiredComponentUnitsForIssue(address,uint256)": {
        "params": {
          "_quantity": "Quantity of SetToken to issue",
          "_setToken": "Instance of the SetToken to issue"
        },
        "returns": {
          "_0": "address[]            List of component addresses",
          "_1": "uint256[]            List of component units required to issue the quantity of SetTokens"
        }
      },
      "initialize(address,address)": {
        "params": {
          "_preIssueHook": "Instance of the Manager Contract with the Pre-Issuance Hook function",
          "_setToken": "Instance of the SetToken to issue"
        }
      },
      "issue(address,uint256,address)": {
        "params": {
          "_quantity": "Quantity of the SetToken to mint",
          "_setToken": "Instance of the SetToken contract",
          "_to": "Address to mint SetToken to"
        }
      },
      "redeem(address,uint256,address)": {
        "params": {
          "_quantity": "Quantity of the SetToken to redeem",
          "_setToken": "Instance of the SetToken contract",
          "_to": "Address to send component assets to"
        }
      }
    },
    "title": "BasicIssuanceModule"
  },
  "userdoc": {
    "methods": {
      "constructor": "Set state controller state variable",
      "getRequiredComponentUnitsForIssue(address,uint256)": {
        "notice": "Retrieves the addresses and units required to mint a particular quantity of SetToken."
      },
      "initialize(address,address)": {
        "notice": "Initializes this module to the SetToken with issuance-related hooks. Only callable by the SetToken's manager. Hook addresses are optional. Address(0) means that no hook will be called"
      },
      "issue(address,uint256,address)": {
        "notice": "Deposits the SetToken's position components into the SetToken and mints the SetToken of the given quantity to the specified _to address. This function only handles Default Positions (positionState = 0)."
      },
      "redeem(address,uint256,address)": {
        "notice": "Redeems the SetToken's positions and sends the components of the given quantity to the caller. This function only handles Default Positions (positionState = 0)."
      },
      "removeModule()": {
        "notice": "Reverts as this module should not be removable after added. Users should always have a way to redeem their Sets"
      }
    }
  }
}