{
  "contractName": "ClaimModule",
  "abi": [
    {
      "inputs": [
        {
          "internalType": "contract IController",
          "name": "_controller",
          "type": "address"
        }
      ],
      "stateMutability": "nonpayable",
      "type": "constructor"
    },
    {
      "anonymous": false,
      "inputs": [
        {
          "indexed": true,
          "internalType": "contract ISetToken",
          "name": "_setToken",
          "type": "address"
        },
        {
          "indexed": true,
          "internalType": "address",
          "name": "_rewardPool",
          "type": "address"
        },
        {
          "indexed": false,
          "internalType": "contract IClaimAdapter",
          "name": "_adapter",
          "type": "address"
        },
        {
          "indexed": false,
          "internalType": "uint256",
          "name": "_amount",
          "type": "uint256"
        }
      ],
      "name": "RewardClaimed",
      "type": "event"
    },
    {
      "inputs": [
        {
          "internalType": "contract ISetToken",
          "name": "",
          "type": "address"
        }
      ],
      "name": "anyoneClaim",
      "outputs": [
        {
          "internalType": "bool",
          "name": "",
          "type": "bool"
        }
      ],
      "stateMutability": "view",
      "type": "function"
    },
    {
      "inputs": [
        {
          "internalType": "contract ISetToken",
          "name": "",
          "type": "address"
        },
        {
          "internalType": "address",
          "name": "",
          "type": "address"
        },
        {
          "internalType": "uint256",
          "name": "",
          "type": "uint256"
        }
      ],
      "name": "claimSettings",
      "outputs": [
        {
          "internalType": "address",
          "name": "",
          "type": "address"
        }
      ],
      "stateMutability": "view",
      "type": "function"
    },
    {
      "inputs": [],
      "name": "controller",
      "outputs": [
        {
          "internalType": "contract IController",
          "name": "",
          "type": "address"
        }
      ],
      "stateMutability": "view",
      "type": "function"
    },
    {
      "inputs": [
        {
          "internalType": "contract ISetToken",
          "name": "",
          "type": "address"
        },
        {
          "internalType": "uint256",
          "name": "",
          "type": "uint256"
        }
      ],
      "name": "rewardPoolList",
      "outputs": [
        {
          "internalType": "address",
          "name": "",
          "type": "address"
        }
      ],
      "stateMutability": "view",
      "type": "function"
    },
    {
      "inputs": [
        {
          "internalType": "contract ISetToken",
          "name": "_setToken",
          "type": "address"
        },
        {
          "internalType": "address",
          "name": "_rewardPool",
          "type": "address"
        },
        {
          "internalType": "string",
          "name": "_integrationName",
          "type": "string"
        }
      ],
      "name": "claim",
      "outputs": [],
      "stateMutability": "nonpayable",
      "type": "function"
    },
    {
      "inputs": [
        {
          "internalType": "contract ISetToken",
          "name": "_setToken",
          "type": "address"
        },
        {
          "internalType": "address[]",
          "name": "_rewardPools",
          "type": "address[]"
        },
        {
          "internalType": "string[]",
          "name": "_integrationNames",
          "type": "string[]"
        }
      ],
      "name": "batchClaim",
      "outputs": [],
      "stateMutability": "nonpayable",
      "type": "function"
    },
    {
      "inputs": [
        {
          "internalType": "contract ISetToken",
          "name": "_setToken",
          "type": "address"
        }
      ],
      "name": "updateAnyoneClaim",
      "outputs": [],
      "stateMutability": "nonpayable",
      "type": "function"
    },
    {
      "inputs": [
        {
          "internalType": "contract ISetToken",
          "name": "_setToken",
          "type": "address"
        },
        {
          "internalType": "address",
          "name": "_rewardPool",
          "type": "address"
        },
        {
          "internalType": "string",
          "name": "_integrationName",
          "type": "string"
        }
      ],
      "name": "addClaim",
      "outputs": [],
      "stateMutability": "nonpayable",
      "type": "function"
    },
    {
      "inputs": [
        {
          "internalType": "contract ISetToken",
          "name": "_setToken",
          "type": "address"
        },
        {
          "internalType": "address[]",
          "name": "_rewardPools",
          "type": "address[]"
        },
        {
          "internalType": "string[]",
          "name": "_integrationNames",
          "type": "string[]"
        }
      ],
      "name": "batchAddClaim",
      "outputs": [],
      "stateMutability": "nonpayable",
      "type": "function"
    },
    {
      "inputs": [
        {
          "internalType": "contract ISetToken",
          "name": "_setToken",
          "type": "address"
        },
        {
          "internalType": "address",
          "name": "_rewardPool",
          "type": "address"
        },
        {
          "internalType": "string",
          "name": "_integrationName",
          "type": "string"
        }
      ],
      "name": "removeClaim",
      "outputs": [],
      "stateMutability": "nonpayable",
      "type": "function"
    },
    {
      "inputs": [
        {
          "internalType": "contract ISetToken",
          "name": "_setToken",
          "type": "address"
        },
        {
          "internalType": "address[]",
          "name": "_rewardPools",
          "type": "address[]"
        },
        {
          "internalType": "string[]",
          "name": "_integrationNames",
          "type": "string[]"
        }
      ],
      "name": "batchRemoveClaim",
      "outputs": [],
      "stateMutability": "nonpayable",
      "type": "function"
    },
    {
      "inputs": [
        {
          "internalType": "contract ISetToken",
          "name": "_setToken",
          "type": "address"
        },
        {
          "internalType": "bool",
          "name": "_anyoneClaim",
          "type": "bool"
        },
        {
          "internalType": "address[]",
          "name": "_rewardPools",
          "type": "address[]"
        },
        {
          "internalType": "string[]",
          "name": "_integrationNames",
          "type": "string[]"
        }
      ],
      "name": "initialize",
      "outputs": [],
      "stateMutability": "nonpayable",
      "type": "function"
    },
    {
      "inputs": [],
      "name": "removeModule",
      "outputs": [],
      "stateMutability": "nonpayable",
      "type": "function"
    },
    {
      "inputs": [
        {
          "internalType": "contract ISetToken",
          "name": "_setToken",
          "type": "address"
        }
      ],
      "name": "getRewardPools",
      "outputs": [
        {
          "internalType": "address[]",
          "name": "",
          "type": "address[]"
        }
      ],
      "stateMutability": "view",
      "type": "function"
    },
    {
      "inputs": [
        {
          "internalType": "contract ISetToken",
          "name": "_setToken",
          "type": "address"
        },
        {
          "internalType": "address",
          "name": "_rewardPool",
          "type": "address"
        }
      ],
      "name": "isRewardPool",
      "outputs": [
        {
          "internalType": "bool",
          "name": "",
          "type": "bool"
        }
      ],
      "stateMutability": "view",
      "type": "function"
    },
    {
      "inputs": [
        {
          "internalType": "contract ISetToken",
          "name": "_setToken",
          "type": "address"
        },
        {
          "internalType": "address",
          "name": "_rewardPool",
          "type": "address"
        }
      ],
      "name": "getRewardPoolClaims",
      "outputs": [
        {
          "internalType": "address[]",
          "name": "",
          "type": "address[]"
        }
      ],
      "stateMutability": "view",
      "type": "function"
    },
    {
      "inputs": [
        {
          "internalType": "contract ISetToken",
          "name": "_setToken",
          "type": "address"
        },
        {
          "internalType": "address",
          "name": "_rewardPool",
          "type": "address"
        },
        {
          "internalType": "string",
          "name": "_integrationName",
          "type": "string"
        }
      ],
      "name": "isRewardPoolClaim",
      "outputs": [
        {
          "internalType": "bool",
          "name": "",
          "type": "bool"
        }
      ],
      "stateMutability": "view",
      "type": "function"
    },
    {
      "inputs": [
        {
          "internalType": "contract ISetToken",
          "name": "_setToken",
          "type": "address"
        },
        {
          "internalType": "address",
          "name": "_rewardPool",
          "type": "address"
        },
        {
          "internalType": "string",
          "name": "_integrationName",
          "type": "string"
        }
      ],
      "name": "getRewards",
      "outputs": [
        {
          "internalType": "uint256",
          "name": "",
          "type": "uint256"
        }
      ],
      "stateMutability": "view",
      "type": "function"
    }
  ],
  "bytecode": "0x60806040523480156200001157600080fd5b5060405162003c4e38038062003c4e833981810160405281019062000037919062000097565b80806000806101000a81548173ffffffffffffffffffffffffffffffffffffffff021916908373ffffffffffffffffffffffffffffffffffffffff160217905550505062000125565b60008151905062000091816200010b565b92915050565b600060208284031215620000aa57600080fd5b6000620000ba8482850162000080565b91505092915050565b6000620000d082620000eb565b9050919050565b6000620000e482620000c3565b9050919050565b600073ffffffffffffffffffffffffffffffffffffffff82169050919050565b6200011681620000d7565b81146200012257600080fd5b50565b613b1980620001356000396000f3fe608060405234801561001057600080fd5b50600436106101165760003560e01c8063a98627cb116100a2578063d051796f11610071578063d051796f14610301578063d72bca4714610331578063ecf274da1461034d578063f4c872f814610369578063f77c47911461038557610116565b8063a98627cb14610269578063af91baf514610299578063bca39c20146102b5578063bf614b13146102d157610116565b806367462d91116100e957806367462d91146101c7578063847ef08d146101e35780638e0f3418146101ed578063a4a569261461021d578063a8045a8e1461023957610116565b80634100e3cb1461011b57806352a4037b1461014b5780635d9026b21461017b578063620814e914610197575b600080fd5b61013560048036038101906101309190612e52565b6103a3565b6040516101429190613647565b60405180910390f35b61016560048036038101906101609190612ded565b610513565b6040516101729190613625565b60405180910390f35b61019560048036038101906101909190612e52565b6105e0565b005b6101b160048036038101906101ac9190613031565b610685565b6040516101be919061357a565b60405180910390f35b6101e160048036038101906101dc9190612f0d565b6106d0565b005b6101eb610820565b005b61020760048036038101906102029190612e52565b610a3d565b6040516102149190613866565b60405180910390f35b61023760048036038101906102329190612f0d565b610be9565b005b610253600480360381019061024e9190612e16565b610d38565b6040516102609190613625565b60405180910390f35b610283600480360381019061027e9190612ebe565b610e43565b604051610290919061357a565b60405180910390f35b6102b360048036038101906102ae9190612e52565b610e9b565b005b6102cf60048036038101906102ca9190612f0d565b610f40565b005b6102eb60048036038101906102e69190612e16565b610fe7565b6040516102f89190613647565b60405180910390f35b61031b60048036038101906103169190612ded565b6110c7565b6040516103289190613647565b60405180910390f35b61034b60048036038101906103469190612ded565b6110e7565b005b61036760048036038101906103629190612f96565b611221565b005b610383600480360381019061037e9190612e52565b61146d565b005b61038d611513565b60405161039a919061368b565b60405180910390f35b6000806103f384848080601f016020809104026020016040519081016040528093929190818152602001838380828437600081840152601f19601f82011690508083019250505050505050611538565b905061050881600360008973ffffffffffffffffffffffffffffffffffffffff1673ffffffffffffffffffffffffffffffffffffffff16815260200190815260200160002060008873ffffffffffffffffffffffffffffffffffffffff1673ffffffffffffffffffffffffffffffffffffffff1681526020019081526020016000208054806020026020016040519081016040528092919081815260200182805480156104f557602002820191906000526020600020905b8160009054906101000a900473ffffffffffffffffffffffffffffffffffffffff1673ffffffffffffffffffffffffffffffffffffffff16815260200190600101908083116104ab575b505050505061155790919063ffffffff16565b915050949350505050565b6060600260008373ffffffffffffffffffffffffffffffffffffffff1673ffffffffffffffffffffffffffffffffffffffff1681526020019081526020016000208054806020026020016040519081016040528092919081815260200182805480156105d457602002820191906000526020600020905b8160009054906101000a900473ffffffffffffffffffffffffffffffffffffffff1673ffffffffffffffffffffffffffffffffffffffff168152602001906001019080831161058a575b50505050509050919050565b836105eb8133611571565b61062a576040517f08c379a000000000000000000000000000000000000000000000000000000000815260040161062190613806565b60405180910390fd5b61063381611627565b610672576040517f08c379a000000000000000000000000000000000000000000000000000000000815260040161066990613726565b60405180910390fd5b61067e8585858561176b565b5050505050565b6002602052816000526040600020818154811061069e57fe5b906000526020600020016000915091509054906101000a900473ffffffffffffffffffffffffffffffffffffffff1681565b846106da81611627565b610719576040517f08c379a000000000000000000000000000000000000000000000000000000000815260040161071090613726565b60405180910390fd5b8561072381611bf8565b610762576040517f08c379a0000000000000000000000000000000000000000000000000000000008152600401610759906136e6565b60405180910390fd5b60006107b0878780806020026020016040519081016040528093929190818152602001838360200280828437600081840152601f19601f820116905080830192505050505050508686611c5f565b905060008090505b8181101561081557610808898989848181106107d057fe5b90506020020160208101906107e59190612cca565b8888858181106107f157fe5b90506020028101906108039190613881565b611cf9565b80806001019150506107b8565b505050505050505050565b600160003373ffffffffffffffffffffffffffffffffffffffff1673ffffffffffffffffffffffffffffffffffffffff16815260200190815260200160002060006101000a81549060ff02191690556060600260003373ffffffffffffffffffffffffffffffffffffffff1673ffffffffffffffffffffffffffffffffffffffff16815260200190815260200160002080548060200260200160405190810160405280929190818152602001828054801561093057602002820191906000526020600020905b8160009054906101000a900473ffffffffffffffffffffffffffffffffffffffff1673ffffffffffffffffffffffffffffffffffffffff16815260200190600101908083116108e6575b5050505050905060008090505b81518110156109ee57600360003373ffffffffffffffffffffffffffffffffffffffff1673ffffffffffffffffffffffffffffffffffffffff168152602001908152602001600020600083838151811061099357fe5b602002602001015173ffffffffffffffffffffffffffffffffffffffff1673ffffffffffffffffffffffffffffffffffffffff16815260200190815260200160002060006109e191906129f2565b808060010191505061093d565b50600260003373ffffffffffffffffffffffffffffffffffffffff1673ffffffffffffffffffffffffffffffffffffffff1681526020019081526020016000206000610a3a91906129f2565b50565b600080610b4b600360008873ffffffffffffffffffffffffffffffffffffffff1673ffffffffffffffffffffffffffffffffffffffff16815260200190815260200160002060008773ffffffffffffffffffffffffffffffffffffffff1673ffffffffffffffffffffffffffffffffffffffff168152602001908152602001600020805480602002602001604051908101604052809291908181526020018280548015610b3f57602002820191906000526020600020905b8160009054906101000a900473ffffffffffffffffffffffffffffffffffffffff1673ffffffffffffffffffffffffffffffffffffffff1681526020019060010190808311610af5575b50505050508585612082565b905060008173ffffffffffffffffffffffffffffffffffffffff1663779bcb9b88886040518363ffffffff1660e01b8152600401610b8a929190613595565b60206040518083038186803b158015610ba257600080fd5b505afa158015610bb6573d6000803e3d6000fd5b505050506040513d601f19601f82011682018060405250810190610bda919061306d565b90508092505050949350505050565b84610bf48133611571565b610c33576040517f08c379a0000000000000000000000000000000000000000000000000000000008152600401610c2a90613806565b60405180910390fd5b610c3c81611627565b610c7b576040517f08c379a0000000000000000000000000000000000000000000000000000000008152600401610c7290613726565b60405180910390fd5b6000610cc9868680806020026020016040519081016040528093929190818152602001838360200280828437600081840152601f19601f820116905080830192505050505050508585611c5f565b905060008090505b81811015610d2e57610d2188888884818110610ce957fe5b9050602002016020810190610cfe9190612cca565b878785818110610d0a57fe5b9050602002810190610d1c9190613881565b61176b565b8080600101915050610cd1565b5050505050505050565b6060600360008473ffffffffffffffffffffffffffffffffffffffff1673ffffffffffffffffffffffffffffffffffffffff16815260200190815260200160002060008373ffffffffffffffffffffffffffffffffffffffff1673ffffffffffffffffffffffffffffffffffffffff168152602001908152602001600020805480602002602001604051908101604052809291908181526020018280548015610e3657602002820191906000526020600020905b8160009054906101000a900473ffffffffffffffffffffffffffffffffffffffff1673ffffffffffffffffffffffffffffffffffffffff1681526020019060010190808311610dec575b5050505050905092915050565b60036020528260005260406000206020528160005260406000208181548110610e6857fe5b90600052602060002001600092509250509054906101000a900473ffffffffffffffffffffffffffffffffffffffff1681565b83610ea68133611571565b610ee5576040517f08c379a0000000000000000000000000000000000000000000000000000000008152600401610edc90613806565b60405180910390fd5b610eee81611627565b610f2d576040517f08c379a0000000000000000000000000000000000000000000000000000000008152600401610f2490613726565b60405180910390fd5b610f3985858585612131565b5050505050565b84610f4b8133611571565b610f8a576040517f08c379a0000000000000000000000000000000000000000000000000000000008152600401610f8190613806565b60405180910390fd5b610f9381611627565b610fd2576040517f08c379a0000000000000000000000000000000000000000000000000000000008152600401610fc990613726565b60405180910390fd5b610fdf86868686866123f2565b505050505050565b60006110bf82600260008673ffffffffffffffffffffffffffffffffffffffff1673ffffffffffffffffffffffffffffffffffffffff1681526020019081526020016000208054806020026020016040519081016040528092919081815260200182805480156110ac57602002820191906000526020600020905b8160009054906101000a900473ffffffffffffffffffffffffffffffffffffffff1673ffffffffffffffffffffffffffffffffffffffff1681526020019060010190808311611062575b505050505061155790919063ffffffff16565b905092915050565b60016020528060005260406000206000915054906101000a900460ff1681565b806110f28133611571565b611131576040517f08c379a000000000000000000000000000000000000000000000000000000000815260040161112890613806565b60405180910390fd5b61113a81611627565b611179576040517f08c379a000000000000000000000000000000000000000000000000000000000815260040161117090613726565b60405180910390fd5b600160008373ffffffffffffffffffffffffffffffffffffffff1673ffffffffffffffffffffffffffffffffffffffff16815260200190815260200160002060009054906101000a900460ff1615600160008473ffffffffffffffffffffffffffffffffffffffff1673ffffffffffffffffffffffffffffffffffffffff16815260200190815260200160002060006101000a81548160ff0219169083151502179055505050565b853361122d8282611571565b61126c576040517f08c379a000000000000000000000000000000000000000000000000000000000815260040161126390613806565b60405180910390fd5b876000809054906101000a900473ffffffffffffffffffffffffffffffffffffffff1673ffffffffffffffffffffffffffffffffffffffff166374ebe3ec826040518263ffffffff1660e01b81526004016112c7919061357a565b60206040518083038186803b1580156112df57600080fd5b505afa1580156112f3573d6000803e3d6000fd5b505050506040513d601f19601f820116820180604052508101906113179190612d83565b611356576040517f08c379a000000000000000000000000000000000000000000000000000000000815260040161134d906137e6565b60405180910390fd5b61135f816124ae565b61139e576040517f08c379a000000000000000000000000000000000000000000000000000000000815260040161139590613746565b60405180910390fd5b6113ab89888888886123f2565b87600160008b73ffffffffffffffffffffffffffffffffffffffff1673ffffffffffffffffffffffffffffffffffffffff16815260200190815260200160002060006101000a81548160ff0219169083151502179055508873ffffffffffffffffffffffffffffffffffffffff16630ffe0f1e6040518163ffffffff1660e01b8152600401600060405180830381600087803b15801561144a57600080fd5b505af115801561145e573d6000803e3d6000fd5b50505050505050505050505050565b8361147781611627565b6114b6576040517f08c379a00000000000000000000000000000000000000000000000000000000081526004016114ad90613726565b60405180910390fd5b846114c081611bf8565b6114ff576040517f08c379a00000000000000000000000000000000000000000000000000000000081526004016114f6906136e6565b60405180910390fd5b61150b86868686611cf9565b505050505050565b6000809054906101000a900473ffffffffffffffffffffffffffffffffffffffff1681565b60008061154483612540565b905061154f81612551565b915050919050565b6000806115648484612699565b9150508091505092915050565b60008173ffffffffffffffffffffffffffffffffffffffff168373ffffffffffffffffffffffffffffffffffffffff1663481c6a756040518163ffffffff1660e01b815260040160206040518083038186803b1580156115d057600080fd5b505afa1580156115e4573d6000803e3d6000fd5b505050506040513d601f19601f820116820180604052508101906116089190612cf3565b73ffffffffffffffffffffffffffffffffffffffff1614905092915050565b60008060009054906101000a900473ffffffffffffffffffffffffffffffffffffffff1673ffffffffffffffffffffffffffffffffffffffff166374ebe3ec836040518263ffffffff1660e01b8152600401611683919061357a565b60206040518083038186803b15801561169b57600080fd5b505afa1580156116af573d6000803e3d6000fd5b505050506040513d601f19601f820116820180604052508101906116d39190612d83565b801561176457508173ffffffffffffffffffffffffffffffffffffffff1663d7f1b27c306040518263ffffffff1660e01b8152600401611713919061357a565b60206040518083038186803b15801561172b57600080fd5b505afa15801561173f573d6000803e3d6000fd5b505050506040513d601f19601f820116820180604052508101906117639190612d83565b5b9050919050565b60006117ba83838080601f016020809104026020016040519081016040528093929190818152602001838380828437600081840152601f19601f82011690508083019250505050505050611538565b90506060600360008773ffffffffffffffffffffffffffffffffffffffff1673ffffffffffffffffffffffffffffffffffffffff16815260200190815260200160002060008673ffffffffffffffffffffffffffffffffffffffff1673ffffffffffffffffffffffffffffffffffffffff1681526020019081526020016000208054806020026020016040519081016040528092919081815260200182805480156118ba57602002820191906000526020600020905b8160009054906101000a900473ffffffffffffffffffffffffffffffffffffffff1673ffffffffffffffffffffffffffffffffffffffff1681526020019060010190808311611870575b505050505090506118d4828261155790919063ffffffff16565b611913576040517f08c379a000000000000000000000000000000000000000000000000000000000815260040161190a906137c6565b60405180910390fd5b611926828261274390919063ffffffff16565b600360008873ffffffffffffffffffffffffffffffffffffffff1673ffffffffffffffffffffffffffffffffffffffff16815260200190815260200160002060008773ffffffffffffffffffffffffffffffffffffffff1673ffffffffffffffffffffffffffffffffffffffff16815260200190815260200160002090805190602001906119b5929190612a13565b506000600360008873ffffffffffffffffffffffffffffffffffffffff1673ffffffffffffffffffffffffffffffffffffffff16815260200190815260200160002060008773ffffffffffffffffffffffffffffffffffffffff1673ffffffffffffffffffffffffffffffffffffffff168152602001908152602001600020805490501415611bf057611b1485600260008973ffffffffffffffffffffffffffffffffffffffff1673ffffffffffffffffffffffffffffffffffffffff168152602001908152602001600020805480602002602001604051908101604052809291908181526020018280548015611b0157602002820191906000526020600020905b8160009054906101000a900473ffffffffffffffffffffffffffffffffffffffff1673ffffffffffffffffffffffffffffffffffffffff1681526020019060010190808311611ab7575b505050505061274390919063ffffffff16565b600260008873ffffffffffffffffffffffffffffffffffffffff1673ffffffffffffffffffffffffffffffffffffffff1681526020019081526020016000209080519060200190611b66929190612a13565b50600360008773ffffffffffffffffffffffffffffffffffffffff1673ffffffffffffffffffffffffffffffffffffffff16815260200190815260200160002060008673ffffffffffffffffffffffffffffffffffffffff1673ffffffffffffffffffffffffffffffffffffffff1681526020019081526020016000206000611bef91906129f2565b5b505050505050565b6000600160008373ffffffffffffffffffffffffffffffffffffffff1673ffffffffffffffffffffffffffffffffffffffff16815260200190815260200160002060009054906101000a900460ff1680611c585750611c578233611571565b5b9050919050565b60008084519050838390508114611cab576040517f08c379a0000000000000000000000000000000000000000000000000000000008152600401611ca290613706565b60405180910390fd5b60008111611cee576040517f08c379a0000000000000000000000000000000000000000000000000000000008152600401611ce590613846565b60405180910390fd5b809150509392505050565b611d038484610fe7565b611d42576040517f08c379a0000000000000000000000000000000000000000000000000000000008152600401611d39906137a6565b60405180910390fd5b6000611e4f600360008773ffffffffffffffffffffffffffffffffffffffff1673ffffffffffffffffffffffffffffffffffffffff16815260200190815260200160002060008673ffffffffffffffffffffffffffffffffffffffff1673ffffffffffffffffffffffffffffffffffffffff168152602001908152602001600020805480602002602001604051908101604052809291908181526020018280548015611e4357602002820191906000526020600020905b8160009054906101000a900473ffffffffffffffffffffffffffffffffffffffff1673ffffffffffffffffffffffffffffffffffffffff1681526020019060010190808311611df9575b50505050508484612082565b905060008173ffffffffffffffffffffffffffffffffffffffff1663779bcb9b87876040518363ffffffff1660e01b8152600401611e8e929190613595565b60206040518083038186803b158015611ea657600080fd5b505afa158015611eba573d6000803e3d6000fd5b505050506040513d601f19601f82011682018060405250810190611ede919061306d565b905060008060608473ffffffffffffffffffffffffffffffffffffffff16630f1ff4ba8a8a6040518363ffffffff1660e01b8152600401611f20929190613595565b60006040518083038186803b158015611f3857600080fd5b505afa158015611f4c573d6000803e3d6000fd5b505050506040513d6000823e3d601f19601f82011682018060405250810190611f759190612d1c565b9250925092508873ffffffffffffffffffffffffffffffffffffffff16638f6f03328484846040518463ffffffff1660e01b8152600401611fb8939291906135e7565b600060405180830381600087803b158015611fd257600080fd5b505af1158015611fe6573d6000803e3d6000fd5b505050506040513d6000823e3d601f19601f8201168201806040525081019061200f9190612dac565b508773ffffffffffffffffffffffffffffffffffffffff168973ffffffffffffffffffffffffffffffffffffffff167f2422cac5e23c46c890fdcf42d0c64757409df6832174df639337558f09d99c68878760405161206f929190613662565b60405180910390a3505050505050505050565b6000806120d284848080601f016020809104026020016040519081016040528093929190818152602001838380828437600081840152601f19601f82011690508083019250505050505050611538565b90506120e7818661155790919063ffffffff16565b612126576040517f08c379a000000000000000000000000000000000000000000000000000000000815260040161211d90613826565b60405180910390fd5b809150509392505050565b600061218083838080601f016020809104026020016040519081016040528093929190818152602001838380828437600081840152601f19601f82011690508083019250505050505050611538565b90506000600360008773ffffffffffffffffffffffffffffffffffffffff1673ffffffffffffffffffffffffffffffffffffffff16815260200190815260200160002060008673ffffffffffffffffffffffffffffffffffffffff1673ffffffffffffffffffffffffffffffffffffffff168152602001908152602001600020905061229a828280548060200260200160405190810160405280929190818152602001828054801561228757602002820191906000526020600020905b8160009054906101000a900473ffffffffffffffffffffffffffffffffffffffff1673ffffffffffffffffffffffffffffffffffffffff168152602001906001019080831161223d575b505050505061155790919063ffffffff16565b156122da576040517f08c379a00000000000000000000000000000000000000000000000000000000081526004016122d190613786565b60405180910390fd5b80829080600181540180825580915050600190039060005260206000200160009091909190916101000a81548173ffffffffffffffffffffffffffffffffffffffff021916908373ffffffffffffffffffffffffffffffffffffffff1602179055506001818054905014156123ea57600260008773ffffffffffffffffffffffffffffffffffffffff1673ffffffffffffffffffffffffffffffffffffffff168152602001908152602001600020859080600181540180825580915050600190039060005260206000200160009091909190916101000a81548173ffffffffffffffffffffffffffffffffffffffff021916908373ffffffffffffffffffffffffffffffffffffffff1602179055505b505050505050565b6000612440858580806020026020016040519081016040528093929190818152602001838360200280828437600081840152601f19601f820116905080830192505050505050508484611c5f565b905060008090505b818110156124a5576124988787878481811061246057fe5b90506020020160208101906124759190612cca565b86868581811061248157fe5b90506020028101906124939190613881565b612131565b8080600101915050612448565b50505050505050565b60008173ffffffffffffffffffffffffffffffffffffffff166353bae5f7306040518263ffffffff1660e01b81526004016124e9919061357a565b60206040518083038186803b15801561250157600080fd5b505afa158015612515573d6000803e3d6000fd5b505050506040513d601f19601f820116820180604052508101906125399190612d83565b9050919050565b600081805190602001209050919050565b6000806125946000809054906101000a900473ffffffffffffffffffffffffffffffffffffffff1673ffffffffffffffffffffffffffffffffffffffff166127b1565b73ffffffffffffffffffffffffffffffffffffffff1663e6d642c530856040518363ffffffff1660e01b81526004016125ce9291906135be565b60206040518083038186803b1580156125e657600080fd5b505afa1580156125fa573d6000803e3d6000fd5b505050506040513d601f19601f8201168201806040525081019061261e9190612cf3565b9050600073ffffffffffffffffffffffffffffffffffffffff168173ffffffffffffffffffffffffffffffffffffffff161415612690576040517f08c379a000000000000000000000000000000000000000000000000000000000815260040161268790613766565b60405180910390fd5b80915050919050565b60008060008451905060008090505b81811015612712578473ffffffffffffffffffffffffffffffffffffffff168682815181106126d357fe5b602002602001015173ffffffffffffffffffffffffffffffffffffffff1614156127055780600193509350505061273c565b80806001019150506126a8565b507fffffffffffffffffffffffffffffffffffffffffffffffffffffffffffffffff600092509250505b9250929050565b60606000806127528585612699565b9150915080612796576040517f08c379a000000000000000000000000000000000000000000000000000000000815260040161278d906136a6565b60405180910390fd5b60606127a28684612844565b50905080935050505092915050565b60008173ffffffffffffffffffffffffffffffffffffffff1663e765ced660006040518263ffffffff1660e01b81526004016127ed9190613866565b60206040518083038186803b15801561280557600080fd5b505afa158015612819573d6000803e3d6000fd5b505050506040513d601f19601f8201168201806040525081019061283d9190612cf3565b9050919050565b60606000808451905084518410612890576040517f08c379a0000000000000000000000000000000000000000000000000000000008152600401612887906136c6565b60405180910390fd5b60606001820367ffffffffffffffff811180156128ac57600080fd5b506040519080825280602002602001820160405280156128db5781602001602082028036833780820191505090505b50905060008090505b85811015612953578681815181106128f857fe5b602002602001015182828151811061290c57fe5b602002602001019073ffffffffffffffffffffffffffffffffffffffff16908173ffffffffffffffffffffffffffffffffffffffff168152505080806001019150506128e4565b5060006001860190505b828110156129cf5786818151811061297157fe5b602002602001015182600183038151811061298857fe5b602002602001019073ffffffffffffffffffffffffffffffffffffffff16908173ffffffffffffffffffffffffffffffffffffffff1681525050808060010191505061295d565b50808686815181106129dd57fe5b60200260200101519350935050509250929050565b5080546000825590600052602060002090810190612a109190612a9d565b50565b828054828255906000526020600020908101928215612a8c579160200282015b82811115612a8b5782518260006101000a81548173ffffffffffffffffffffffffffffffffffffffff021916908373ffffffffffffffffffffffffffffffffffffffff16021790555091602001919060010190612a33565b5b509050612a999190612ac2565b5090565b612abf91905b80821115612abb576000816000905550600101612aa3565b5090565b90565b612b0291905b80821115612afe57600081816101000a81549073ffffffffffffffffffffffffffffffffffffffff021916905550600101612ac8565b5090565b90565b600081359050612b1481613a87565b92915050565b600081519050612b2981613a87565b92915050565b60008083601f840112612b4157600080fd5b8235905067ffffffffffffffff811115612b5a57600080fd5b602083019150836020820283011115612b7257600080fd5b9250929050565b60008083601f840112612b8b57600080fd5b8235905067ffffffffffffffff811115612ba457600080fd5b602083019150836020820283011115612bbc57600080fd5b9250929050565b600081359050612bd281613a9e565b92915050565b600081519050612be781613a9e565b92915050565b600082601f830112612bfe57600080fd5b8151612c11612c0c82613905565b6138d8565b91508082526020830160208301858383011115612c2d57600080fd5b612c38838284613a43565b50505092915050565b600081359050612c5081613ab5565b92915050565b60008083601f840112612c6857600080fd5b8235905067ffffffffffffffff811115612c8157600080fd5b602083019150836001820283011115612c9957600080fd5b9250929050565b600081359050612caf81613acc565b92915050565b600081519050612cc481613acc565b92915050565b600060208284031215612cdc57600080fd5b6000612cea84828501612b05565b91505092915050565b600060208284031215612d0557600080fd5b6000612d1384828501612b1a565b91505092915050565b600080600060608486031215612d3157600080fd5b6000612d3f86828701612b1a565b9350506020612d5086828701612cb5565b925050604084015167ffffffffffffffff811115612d6d57600080fd5b612d7986828701612bed565b9150509250925092565b600060208284031215612d9557600080fd5b6000612da384828501612bd8565b91505092915050565b600060208284031215612dbe57600080fd5b600082015167ffffffffffffffff811115612dd857600080fd5b612de484828501612bed565b91505092915050565b600060208284031215612dff57600080fd5b6000612e0d84828501612c41565b91505092915050565b60008060408385031215612e2957600080fd5b6000612e3785828601612c41565b9250506020612e4885828601612b05565b9150509250929050565b60008060008060608587031215612e6857600080fd5b6000612e7687828801612c41565b9450506020612e8787828801612b05565b935050604085013567ffffffffffffffff811115612ea457600080fd5b612eb087828801612c56565b925092505092959194509250565b600080600060608486031215612ed357600080fd5b6000612ee186828701612c41565b9350506020612ef286828701612b05565b9250506040612f0386828701612ca0565b9150509250925092565b600080600080600060608688031215612f2557600080fd5b6000612f3388828901612c41565b955050602086013567ffffffffffffffff811115612f5057600080fd5b612f5c88828901612b2f565b9450945050604086013567ffffffffffffffff811115612f7b57600080fd5b612f8788828901612b79565b92509250509295509295909350565b60008060008060008060808789031215612faf57600080fd5b6000612fbd89828a01612c41565b9650506020612fce89828a01612bc3565b955050604087013567ffffffffffffffff811115612feb57600080fd5b612ff789828a01612b2f565b9450945050606087013567ffffffffffffffff81111561301657600080fd5b61302289828a01612b79565b92509250509295509295509295565b6000806040838503121561304457600080fd5b600061305285828601612c41565b925050602061306385828601612ca0565b9150509250929050565b60006020828403121561307f57600080fd5b600061308d84828501612cb5565b91505092915050565b60006130a283836130ae565b60208301905092915050565b6130b781613997565b82525050565b6130c681613997565b82525050565b60006130d782613941565b6130e18185613964565b93506130ec83613931565b8060005b8381101561311d5781516131048882613096565b975061310f83613957565b9250506001810190506130f0565b5085935050505092915050565b613133816139a9565b82525050565b613142816139b5565b82525050565b60006131538261394c565b61315d8185613975565b935061316d818560208601613a43565b61317681613a76565b840191505092915050565b61318a816139fb565b82525050565b61319981613a1f565b82525050565b60006131ac601583613986565b91507f41646472657373206e6f7420696e2061727261792e00000000000000000000006000830152602082019050919050565b60006131ec601883613986565b91507f496e646578206d757374206265203c2041206c656e67746800000000000000006000830152602082019050919050565b600061322c601483613986565b91507f4d7573742062652076616c69642063616c6c65720000000000000000000000006000830152602082019050919050565b600061326c601583613986565b91507f4172726179206c656e677468206d69736d6174636800000000000000000000006000830152602082019050919050565b60006132ac602883613986565b91507f4d75737420626520612076616c696420616e6420696e697469616c697a65642060008301527f536574546f6b656e0000000000000000000000000000000000000000000000006020830152604082019050919050565b6000613312601e83613986565b91507f4d7573742062652070656e64696e6720696e697469616c697a6174696f6e00006000830152602082019050919050565b6000613352601583613986565b91507f4d7573742062652076616c6964206164617074657200000000000000000000006000830152602082019050919050565b6000613392602083613986565b91507f496e746567726174696f6e206e616d6573206d75737420626520756e697175656000830152602082019050919050565b60006133d2601683613986565b91507f526577617264506f6f6c206e6f742070726573656e74000000000000000000006000830152602082019050919050565b6000613412601983613986565b91507f496e746567726174696f6e206d757374206265206164646564000000000000006000830152602082019050919050565b6000613452602383613986565b91507f4d75737420626520636f6e74726f6c6c65722d656e61626c656420536574546f60008301527f6b656e00000000000000000000000000000000000000000000000000000000006020830152604082019050919050565b60006134b8601c83613986565b91507f4d7573742062652074686520536574546f6b656e206d616e61676572000000006000830152602082019050919050565b60006134f8601f83613986565b91507f4164617074657220696e746567726174696f6e206e6f742070726573656e74006000830152602082019050919050565b6000613538601883613986565b91507f417272617973206d757374206e6f7420626520656d70747900000000000000006000830152602082019050919050565b613574816139f1565b82525050565b600060208201905061358f60008301846130bd565b92915050565b60006040820190506135aa60008301856130bd565b6135b760208301846130bd565b9392505050565b60006040820190506135d360008301856130bd565b6135e06020830184613139565b9392505050565b60006060820190506135fc60008301866130bd565b613609602083018561356b565b818103604083015261361b8184613148565b9050949350505050565b6000602082019050818103600083015261363f81846130cc565b905092915050565b600060208201905061365c600083018461312a565b92915050565b60006040820190506136776000830185613181565b613684602083018461356b565b9392505050565b60006020820190506136a06000830184613190565b92915050565b600060208201905081810360008301526136bf8161319f565b9050919050565b600060208201905081810360008301526136df816131df565b9050919050565b600060208201905081810360008301526136ff8161321f565b9050919050565b6000602082019050818103600083015261371f8161325f565b9050919050565b6000602082019050818103600083015261373f8161329f565b9050919050565b6000602082019050818103600083015261375f81613305565b9050919050565b6000602082019050818103600083015261377f81613345565b9050919050565b6000602082019050818103600083015261379f81613385565b9050919050565b600060208201905081810360008301526137bf816133c5565b9050919050565b600060208201905081810360008301526137df81613405565b9050919050565b600060208201905081810360008301526137ff81613445565b9050919050565b6000602082019050818103600083015261381f816134ab565b9050919050565b6000602082019050818103600083015261383f816134eb565b9050919050565b6000602082019050818103600083015261385f8161352b565b9050919050565b600060208201905061387b600083018461356b565b92915050565b6000808335600160200384360303811261389a57600080fd5b80840192508235915067ffffffffffffffff8211156138b857600080fd5b6020830192506001820236038313156138d057600080fd5b509250929050565b6000604051905081810181811067ffffffffffffffff821117156138fb57600080fd5b8060405250919050565b600067ffffffffffffffff82111561391c57600080fd5b601f19601f8301169050602081019050919050565b6000819050602082019050919050565b600081519050919050565b600081519050919050565b6000602082019050919050565b600082825260208201905092915050565b600082825260208201905092915050565b600082825260208201905092915050565b60006139a2826139d1565b9050919050565b60008115159050919050565b6000819050919050565b60006139ca82613997565b9050919050565b600073ffffffffffffffffffffffffffffffffffffffff82169050919050565b6000819050919050565b6000613a0682613a0d565b9050919050565b6000613a18826139d1565b9050919050565b6000613a2a82613a31565b9050919050565b6000613a3c826139d1565b9050919050565b60005b83811015613a61578082015181840152602081019050613a46565b83811115613a70576000848401525b50505050565b6000601f19601f8301169050919050565b613a9081613997565b8114613a9b57600080fd5b50565b613aa7816139a9565b8114613ab257600080fd5b50565b613abe816139bf565b8114613ac957600080fd5b50565b613ad5816139f1565b8114613ae057600080fd5b5056fea26469706673582212207958787abc2160bd66f11f8fd3cb96320e87c412dc737a4aec5b179968735af364736f6c634300060a0033",
  "immutableReferences": {},
  "source": "/*\n    Copyright 2020 Set Labs Inc.\n    Licensed under the Apache License, Version 2.0 (the \"License\");\n    you may not use this file except in compliance with the License.\n    You may obtain a copy of the License at\n    http://www.apache.org/licenses/LICENSE-2.0\n    Unless required by applicable law or agreed to in writing, software\n    distributed under the License is distributed on an \"AS IS\" BASIS,\n    WITHOUT WARRANTIES OR CONDITIONS OF ANY KIND, either express or implied.\n    See the License for the specific language governing permissions and\n    limitations under the License.\n    SPDX-License-Identifier: Apache License, Version 2.0\n*/\n\npragma solidity 0.6.10;\npragma experimental \"ABIEncoderV2\";\n\nimport { AddressArrayUtils } from \"../../lib/AddressArrayUtils.sol\";\nimport { IClaimAdapter } from \"../../interfaces/IClaimAdapter.sol\";\nimport { IController } from \"../../interfaces/IController.sol\";\nimport { ISetToken } from \"../../interfaces/ISetToken.sol\";\nimport { ModuleBase } from \"../lib/ModuleBase.sol\";\n\n\n/**\n * @title ClaimModule\n * @author Set Protocol\n *\n * Module that enables managers to claim tokens from external protocols given to the Set as part of participating in\n * incentivized activities of other protocols. The ClaimModule works in conjunction with ClaimAdapters, in which the \n * claimAdapterID / integrationNames are stored on the integration registry.\n * \n * Design:\n * The ecosystem is coalescing around a few standards of how reward programs are created, using forks of popular\n * contracts such as Synthetix's Mintr. Thus, the Claim architecture reflects a more functional vs external-protocol\n * approach where an adapter with common functionality can be used across protocols. \n *\n * Definitions:\n * Reward Pool: A reward pool is a contract associated with an external protocol's reward. Examples of reward pools\n *   include the Curve sUSDV2 Gauge or the Synthetix iBTC StakingReward contract.\n * Adapter: An adapter contains the logic and context for how a reward pool should be claimed - returning the requisite\n *   function signature. Examples of adapters include StakingRewardAdapter (for getting rewards from Synthetix-like\n *   reward contracts) and CurveClaimAdapter (for calling Curve Minter contract's mint function)\n * ClaimSettings: A reward pool can be associated with multiple awards. For example, a Curve liquidity gauge can be\n *   associated with the CURVE_CLAIM adapter to claim CRV and CURVE_DIRECT adapter to claim BPT.\n */\ncontract ClaimModule is ModuleBase {\n    using AddressArrayUtils for address[];\n\n    /* ============ Events ============ */\n\n    event RewardClaimed(\n        ISetToken indexed _setToken,\n        address indexed _rewardPool,\n        IClaimAdapter _adapter,\n        uint256 _amount\n    );\n\n    /* ============ Modifiers ============ */\n\n    /**\n     * Throws if claim is confined to the manager and caller is not the manager\n     */\n    modifier onlyValidCaller(ISetToken _setToken) {\n        require(_isValidCaller(_setToken), \"Must be valid caller\");\n        _;\n    }\n\n    /* ============ State Variables ============ */\n\n    // Indicates if any address can call claim or just the manager of the SetToken\n    mapping(ISetToken => bool) public anyoneClaim;\n\n    // Array of rewardPool addresses to claim rewards for the SetToken\n    mapping(ISetToken => address[]) public rewardPoolList;\n\n    // Array of adapters associated to the rewardPool for the SetToken\n    mapping(ISetToken => mapping(address => address[])) public claimSettings;\n\n    /* ============ Constructor ============ */\n\n    constructor(IController _controller) public ModuleBase(_controller) {}\n\n    /* ============ External Functions ============ */\n\n    /**\n     * Claim the rewards available on the rewardPool for the specified claim integration.\n     * Callable only by manager unless manager has set anyoneClaim to true.\n     *\n     * @param _setToken             Address of SetToken\n     * @param _rewardPool           Address of the rewardPool that identifies the contract governing claims\n     * @param _integrationName      ID of claim module integration (mapping on integration registry)\n     */\n    function claim(\n        ISetToken _setToken,\n        address _rewardPool,\n        string calldata _integrationName\n    )\n        external\n        onlyValidAndInitializedSet(_setToken)\n        onlyValidCaller(_setToken)\n    {\n        _claim(_setToken, _rewardPool, _integrationName);\n    }\n\n    /**\n     * Claims rewards on all the passed rewardPool/claim integration pairs. Callable only by manager unless manager has\n     * set anyoneClaim to true.\n     *\n     * @param _setToken             Address of SetToken\n     * @param _rewardPools          Addresses of rewardPools that identifies the contract governing claims. Maps to same\n     *                                  index integrationNames\n     * @param _integrationNames     Human-readable names matching adapter used to collect claim on pool. Maps to same index\n     *                                  in rewardPools\n     */\n    function batchClaim(\n        ISetToken _setToken,\n        address[] calldata _rewardPools,\n        string[] calldata _integrationNames\n    )\n        external\n        onlyValidAndInitializedSet(_setToken)\n        onlyValidCaller(_setToken)\n    {\n        uint256 poolArrayLength = _validateBatchArrays(_rewardPools, _integrationNames);\n        for (uint256 i = 0; i < poolArrayLength; i++) {\n            _claim(_setToken, _rewardPools[i], _integrationNames[i]);\n        }\n    }\n\n    /**\n     * SET MANAGER ONLY. Update whether manager allows other addresses to call claim.\n     *\n     * @param _setToken             Address of SetToken\n     */\n    function updateAnyoneClaim(ISetToken _setToken) external onlyManagerAndValidSet(_setToken) {\n        anyoneClaim[_setToken] = !anyoneClaim[_setToken];\n    }\n\n    /**\n     * SET MANAGER ONLY. Adds a new claim integration for an existent rewardPool. If rewardPool doesn't have existing\n     * claims then rewardPool is added to rewardPoolLiost. The claim integration is associated to an adapter that\n     * provides the functionality to claim the rewards for a specific token.\n     *\n     * @param _setToken             Address of SetToken\n     * @param _rewardPool           Address of the rewardPool that identifies the contract governing claims\n     * @param _integrationName      ID of claim module integration (mapping on integration registry)\n     */\n    function addClaim(\n        ISetToken _setToken,\n        address _rewardPool,\n        string calldata _integrationName\n    )\n        external\n        onlyManagerAndValidSet(_setToken)\n    {\n        _addClaim(_setToken, _rewardPool, _integrationName);\n    }\n\n    /**\n     * SET MANAGER ONLY. Adds a new rewardPool to the list to perform claims for the SetToken indicating the list of\n     * claim integrations. Each claim integration is associated to an adapter that provides the functionality to claim\n     * the rewards for a specific token.\n     *\n     * @param _setToken             Address of SetToken\n     * @param _rewardPools          Addresses of rewardPools that identifies the contract governing claims. Maps to same\n     *                                  index integrationNames\n     * @param _integrationNames     Human-readable names matching adapter used to collect claim on pool. Maps to same index\n     *                                  in rewardPools\n     */\n    function batchAddClaim(\n        ISetToken _setToken,\n        address[] calldata _rewardPools,\n        string[] calldata _integrationNames\n    )\n        external\n        onlyManagerAndValidSet(_setToken)\n    {\n        _batchAddClaim(_setToken, _rewardPools, _integrationNames);\n    }\n\n    /**\n     * SET MANAGER ONLY. Removes a claim integration from an existent rewardPool. If no claim remains for reward pool then\n     * reward pool is removed from rewardPoolList.\n     *\n     * @param _setToken             Address of SetToken\n     * @param _rewardPool           Address of the rewardPool that identifies the contract governing claims\n     * @param _integrationName      ID of claim module integration (mapping on integration registry)\n     */\n    function removeClaim(\n        ISetToken _setToken,\n        address _rewardPool,\n        string calldata _integrationName\n    )\n        external\n        onlyManagerAndValidSet(_setToken)\n    {\n        _removeClaim(_setToken, _rewardPool, _integrationName);\n    }\n\n    /**\n     * SET MANAGER ONLY. Batch removes claims from SetToken's settings.\n     *\n     * @param _setToken             Address of SetToken\n     * @param _rewardPools          Addresses of rewardPools that identifies the contract governing claims. Maps to same index\n     *                                  integrationNames\n     * @param _integrationNames     Human-readable names matching adapter used to collect claim on pool. Maps to same index in\n     *                                  rewardPools\n     */\n    function batchRemoveClaim(\n        ISetToken _setToken,\n        address[] calldata _rewardPools,\n        string[] calldata _integrationNames\n    )\n        external\n        onlyManagerAndValidSet(_setToken)\n    {\n        uint256 poolArrayLength = _validateBatchArrays(_rewardPools, _integrationNames);\n        for (uint256 i = 0; i < poolArrayLength; i++) {\n            _removeClaim(_setToken, _rewardPools[i], _integrationNames[i]);\n        }\n    }\n \n    /**\n     * SET MANAGER ONLY. Initializes this module to the SetToken.\n     *\n     * @param _setToken             Instance of the SetToken to issue\n     * @param _anyoneClaim          Boolean indicating if anyone can claim or just manager\n     * @param _rewardPools          Addresses of rewardPools that identifies the contract governing claims. Maps to same index\n     *                                  integrationNames\n     * @param _integrationNames     Human-readable names matching adapter used to collect claim on pool. Maps to same index in\n     *                                  rewardPools\n     */\n    function initialize(\n        ISetToken _setToken,\n        bool _anyoneClaim,\n        address[] calldata _rewardPools,\n        string[] calldata _integrationNames\n    )\n        external\n        onlySetManager(_setToken, msg.sender)\n        onlyValidAndPendingSet(_setToken)\n    {\n        _batchAddClaim(_setToken, _rewardPools, _integrationNames);\n        anyoneClaim[_setToken] = _anyoneClaim;\n        _setToken.initializeModule();\n    }\n\n    /**\n     * Removes this module from the SetToken, via call by the SetToken.\n     */\n    function removeModule() external override {\n        delete anyoneClaim[ISetToken(msg.sender)];\n\n        address[] memory setTokenPoolList = rewardPoolList[ISetToken(msg.sender)];\n        for (uint256 i = 0; i < setTokenPoolList.length; i++) {\n            delete claimSettings[ISetToken(msg.sender)][setTokenPoolList[i]];\n        }\n        delete rewardPoolList[ISetToken(msg.sender)];\n    }\n\n    /**\n     * Get list of rewardPools to perform claims for the SetToken.\n     *\n     * @param _setToken             Address of SetToken\n     * @return                      Array of rewardPool addresses to claim rewards for the SetToken\n     */\n    function getRewardPools(ISetToken _setToken) external view returns (address[] memory) {\n        return rewardPoolList[_setToken];\n    }\n\n    /**\n     * Get boolean indicating if the rewardPool is in the list to perform claims for the SetToken.\n     *\n     * @param _setToken             Address of SetToken\n     * @param _rewardPool           Address of rewardPool\n     * @return                      Boolean indicating if the rewardPool is in the list for claims.\n     */\n    function isRewardPool(ISetToken _setToken, address _rewardPool) public view returns (bool) {\n        return rewardPoolList[_setToken].contains(_rewardPool);\n    }\n\n    /**\n     * Get list of claim integration of the rewardPool for the SetToken.\n     *\n     * @param _setToken             Address of SetToken\n     * @param _rewardPool           Address of rewardPool\n     * @return                      Array of adapter addresses associated to the rewardPool for the SetToken\n     */\n    function getRewardPoolClaims(ISetToken _setToken, address _rewardPool) external view returns (address[] memory) {\n        return claimSettings[_setToken][_rewardPool];\n    }\n\n    /**\n     * Get boolean indicating if the adapter address of the claim integration is associated to the rewardPool.\n     *\n     * @param _setToken             Address of SetToken\n     * @param _rewardPool           Address of rewardPool\n     * @param _integrationName      ID of claim module integration (mapping on integration registry)\n     * @return                      Boolean indicating if the claim integration is associated to the rewardPool.\n     */\n    function isRewardPoolClaim(\n        ISetToken _setToken,\n        address _rewardPool,\n        string calldata _integrationName\n    )\n        external\n        view\n        returns (bool)\n    {\n        address adapter = getAndValidateAdapter(_integrationName);\n        return claimSettings[_setToken][_rewardPool].contains(adapter);\n    }\n\n    /**\n     * Get the rewards available to be claimed by the claim integration on the rewardPool.\n     *\n     * @param _setToken             Address of SetToken\n     * @param _rewardPool           Address of the rewardPool that identifies the contract governing claims\n     * @param _integrationName      ID of claim module integration (mapping on integration registry)\n     * @return rewards              Amount of units available to be claimed\n     */\n    function getRewards(\n        ISetToken _setToken,\n        address _rewardPool,\n        string calldata _integrationName\n    )\n        external\n        view\n        returns (uint256)\n    {\n        IClaimAdapter adapter = _getAndValidateIntegrationAdapter(claimSettings[_setToken][_rewardPool], _integrationName);\n        uint256 rewards = adapter.getRewards(address(_setToken), _rewardPool);\n        return rewards;\n    }\n\n    /* ============ Internal Functions ============ */\n\n    /**\n     * Claim the rewards, if available, on the rewardPool using the specified adapter. Interact with the adapter to get\n     * the rewards available, the calldata for the SetToken to invoke the claim and the token associated to the claim.\n     *\n     * @param _setToken             Address of SetToken\n     * @param _rewardPool           Address of the rewardPool that identifies the contract governing claims\n     * @param _integrationName      Human readable name of claim integration\n     */\n    function _claim(ISetToken _setToken, address _rewardPool, string calldata _integrationName) internal {\n        require(isRewardPool(_setToken, _rewardPool), \"RewardPool not present\");\n        IClaimAdapter adapter = _getAndValidateIntegrationAdapter(claimSettings[_setToken][_rewardPool], _integrationName);\n\n        uint256 rewards = adapter.getRewards(address(_setToken), _rewardPool);\n\n        (\n            address callTarget,\n            uint256 callValue,\n            bytes memory callByteData\n        ) = adapter.getClaimCallData(\n            address(_setToken),\n            _rewardPool\n        );\n\n        _setToken.invoke(callTarget, callValue, callByteData);\n\n        emit RewardClaimed(_setToken, _rewardPool, adapter, rewards);\n    }\n\n    /**\n     * Gets the adapter and validate it is associated to the list of claim integration of a rewardPool.\n     *\n     * @param _rewardPoolClaimSettings           List of claim integrations associated to a rewardPool\n     * @param _integrationName                   ID of claim module integration (mapping on integration registry)\n     */\n    function _getAndValidateIntegrationAdapter(\n        address[] memory _rewardPoolClaimSettings,\n        string calldata _integrationName\n    )\n        internal\n        view\n        returns (IClaimAdapter)\n    {\n        address adapter = getAndValidateAdapter(_integrationName);\n        require(_rewardPoolClaimSettings.contains(adapter), \"Adapter integration not present\");\n        return IClaimAdapter(adapter);\n    }\n\n    /**\n     * Validates and store the adapter address used to claim rewards for the passed rewardPool. If after adding\n     * adapter to pool length of adapters is 1 then add to rewardPoolList as well.\n     *\n     * @param _setToken                 Address of SetToken\n     * @param _rewardPool               Address of the rewardPool that identifies the contract governing claims\n     * @param _integrationName          ID of claim module integration (mapping on integration registry)\n     */\n    function _addClaim(ISetToken _setToken, address _rewardPool, string calldata _integrationName) internal {\n        address adapter = getAndValidateAdapter(_integrationName);\n        address[] storage _rewardPoolClaimSettings = claimSettings[_setToken][_rewardPool];\n\n        require(!_rewardPoolClaimSettings.contains(adapter), \"Integration names must be unique\");\n        _rewardPoolClaimSettings.push(adapter);\n\n        if (_rewardPoolClaimSettings.length == 1) {\n            rewardPoolList[_setToken].push(_rewardPool);\n        }\n    }\n\n    /**\n     * Internal version. Adds a new rewardPool to the list to perform claims for the SetToken indicating the list of claim \n     * integrations. Each claim integration is associated to an adapter that provides the functionality to claim the rewards\n     * for a specific token.\n     *\n     * @param _setToken             Address of SetToken\n     * @param _rewardPools          Addresses of rewardPools that identifies the contract governing claims. Maps to same\n     *                                  index integrationNames\n     * @param _integrationNames     Human-readable names matching adapter used to collect claim on pool. Maps to same index\n     *                                  in rewardPools\n     */\n    function _batchAddClaim(\n        ISetToken _setToken,\n        address[] calldata _rewardPools,\n        string[] calldata _integrationNames\n    )\n        internal\n    {\n        uint256 poolArrayLength = _validateBatchArrays(_rewardPools, _integrationNames);\n        for (uint256 i = 0; i < poolArrayLength; i++) {\n            _addClaim(_setToken, _rewardPools[i], _integrationNames[i]);\n        }\n    }\n\n    /**\n     * Validates and store the adapter address used to claim rewards for the passed rewardPool. If no adapters\n     * left after removal then remove rewardPool from rewardPoolList and delete entry in claimSettings. \n     *\n     * @param _setToken                 Address of SetToken\n     * @param _rewardPool               Address of the rewardPool that identifies the contract governing claims\n     * @param _integrationName          ID of claim module integration (mapping on integration registry)\n     */\n    function _removeClaim(ISetToken _setToken, address _rewardPool, string calldata _integrationName) internal {\n        address adapter = getAndValidateAdapter(_integrationName);\n        address[] memory _rewardPoolClaimSettings = claimSettings[_setToken][_rewardPool];\n\n        require(_rewardPoolClaimSettings.contains(adapter), \"Integration must be added\");\n        claimSettings[_setToken][_rewardPool] = _rewardPoolClaimSettings.remove(adapter);\n\n        if (claimSettings[_setToken][_rewardPool].length == 0) {\n            rewardPoolList[_setToken] = rewardPoolList[_setToken].remove(_rewardPool);\n            delete claimSettings[_setToken][_rewardPool];\n        }\n    }\n\n    /**\n     * For batch functions validate arrays are of equal length and not empty. Return length of array for iteration. \n     *\n     * @param _rewardPools              Addresses of the rewardPool that identifies the contract governing claims\n     * @param _integrationNames         IDs of claim module integration (mapping on integration registry)\n     * @return                          Length of arrays\n     */\n    function _validateBatchArrays(\n        address[] memory _rewardPools,\n        string[] calldata _integrationNames\n    )\n        internal\n        pure\n        returns(uint256)\n    {\n        uint256 poolArrayLength = _rewardPools.length;\n        require(poolArrayLength == _integrationNames.length, \"Array length mismatch\");\n        require(poolArrayLength > 0, \"Arrays must not be empty\");\n        return poolArrayLength;\n    }\n\n    /**\n     * If claim is confined to the manager, manager must be caller\n     *\n     * @param _setToken             Address of SetToken\n     * @return bool                 Whether or not the caller is valid\n     */\n    function _isValidCaller(ISetToken _setToken) internal view returns(bool) {\n        return anyoneClaim[_setToken] || isSetManager(_setToken, msg.sender);\n    }\n}",
  "sourcePath": "/Users/tahadhailey/Documents/top5/top5swap/swap/contracts/protocol/modules/ClaimModule.sol",
  "compiler": {
    "name": "solc",
    "version": "0.6.10+commit.00c0fcaf.Emscripten.clang"
  },
  "schemaVersion": "3.2.1",
  "updatedAt": "2021-01-21T08:20:37.742Z",
  "devdoc": {
    "author": "Set Protocol Module that enables managers to claim tokens from external protocols given to the Set as part of participating in incentivized activities of other protocols. The ClaimModule works in conjunction with ClaimAdapters, in which the  claimAdapterID / integrationNames are stored on the integration registry.  Design: The ecosystem is coalescing around a few standards of how reward programs are created, using forks of popular contracts such as Synthetix's Mintr. Thus, the Claim architecture reflects a more functional vs external-protocol approach where an adapter with common functionality can be used across protocols.  Definitions: Reward Pool: A reward pool is a contract associated with an external protocol's reward. Examples of reward pools   include the Curve sUSDV2 Gauge or the Synthetix iBTC StakingReward contract. Adapter: An adapter contains the logic and context for how a reward pool should be claimed - returning the requisite   function signature. Examples of adapters include StakingRewardAdapter (for getting rewards from Synthetix-like   reward contracts) and CurveClaimAdapter (for calling Curve Minter contract's mint function) ClaimSettings: A reward pool can be associated with multiple awards. For example, a Curve liquidity gauge can be   associated with the CURVE_CLAIM adapter to claim CRV and CURVE_DIRECT adapter to claim BPT.",
    "methods": {
      "addClaim(address,address,string)": {
        "params": {
          "_integrationName": "ID of claim module integration (mapping on integration registry)",
          "_rewardPool": "Address of the rewardPool that identifies the contract governing claims",
          "_setToken": "Address of SetToken"
        }
      },
      "batchAddClaim(address,address[],string[])": {
        "params": {
          "_integrationNames": "Human-readable names matching adapter used to collect claim on pool. Maps to same index                                  in rewardPools",
          "_rewardPools": "Addresses of rewardPools that identifies the contract governing claims. Maps to same                                  index integrationNames",
          "_setToken": "Address of SetToken"
        }
      },
      "batchClaim(address,address[],string[])": {
        "params": {
          "_integrationNames": "Human-readable names matching adapter used to collect claim on pool. Maps to same index                                  in rewardPools",
          "_rewardPools": "Addresses of rewardPools that identifies the contract governing claims. Maps to same                                  index integrationNames",
          "_setToken": "Address of SetToken"
        }
      },
      "batchRemoveClaim(address,address[],string[])": {
        "params": {
          "_integrationNames": "Human-readable names matching adapter used to collect claim on pool. Maps to same index in                                  rewardPools",
          "_rewardPools": "Addresses of rewardPools that identifies the contract governing claims. Maps to same index                                  integrationNames",
          "_setToken": "Address of SetToken"
        }
      },
      "claim(address,address,string)": {
        "params": {
          "_integrationName": "ID of claim module integration (mapping on integration registry)",
          "_rewardPool": "Address of the rewardPool that identifies the contract governing claims",
          "_setToken": "Address of SetToken"
        }
      },
      "getRewardPoolClaims(address,address)": {
        "params": {
          "_rewardPool": "Address of rewardPool",
          "_setToken": "Address of SetToken"
        },
        "returns": {
          "_0": "Array of adapter addresses associated to the rewardPool for the SetToken"
        }
      },
      "getRewardPools(address)": {
        "params": {
          "_setToken": "Address of SetToken"
        },
        "returns": {
          "_0": "Array of rewardPool addresses to claim rewards for the SetToken"
        }
      },
      "getRewards(address,address,string)": {
        "params": {
          "_integrationName": "ID of claim module integration (mapping on integration registry)",
          "_rewardPool": "Address of the rewardPool that identifies the contract governing claims",
          "_setToken": "Address of SetToken"
        },
        "returns": {
          "_0": "rewards              Amount of units available to be claimed"
        }
      },
      "initialize(address,bool,address[],string[])": {
        "params": {
          "_anyoneClaim": "Boolean indicating if anyone can claim or just manager",
          "_integrationNames": "Human-readable names matching adapter used to collect claim on pool. Maps to same index in                                  rewardPools",
          "_rewardPools": "Addresses of rewardPools that identifies the contract governing claims. Maps to same index                                  integrationNames",
          "_setToken": "Instance of the SetToken to issue"
        }
      },
      "isRewardPool(address,address)": {
        "params": {
          "_rewardPool": "Address of rewardPool",
          "_setToken": "Address of SetToken"
        },
        "returns": {
          "_0": "Boolean indicating if the rewardPool is in the list for claims."
        }
      },
      "isRewardPoolClaim(address,address,string)": {
        "params": {
          "_integrationName": "ID of claim module integration (mapping on integration registry)",
          "_rewardPool": "Address of rewardPool",
          "_setToken": "Address of SetToken"
        },
        "returns": {
          "_0": "Boolean indicating if the claim integration is associated to the rewardPool."
        }
      },
      "removeClaim(address,address,string)": {
        "params": {
          "_integrationName": "ID of claim module integration (mapping on integration registry)",
          "_rewardPool": "Address of the rewardPool that identifies the contract governing claims",
          "_setToken": "Address of SetToken"
        }
      },
      "updateAnyoneClaim(address)": {
        "params": {
          "_setToken": "Address of SetToken"
        }
      }
    },
    "title": "ClaimModule"
  },
  "userdoc": {
    "methods": {
      "addClaim(address,address,string)": {
        "notice": "SET MANAGER ONLY. Adds a new claim integration for an existent rewardPool. If rewardPool doesn't have existing claims then rewardPool is added to rewardPoolLiost. The claim integration is associated to an adapter that provides the functionality to claim the rewards for a specific token."
      },
      "batchAddClaim(address,address[],string[])": {
        "notice": "SET MANAGER ONLY. Adds a new rewardPool to the list to perform claims for the SetToken indicating the list of claim integrations. Each claim integration is associated to an adapter that provides the functionality to claim the rewards for a specific token."
      },
      "batchClaim(address,address[],string[])": {
        "notice": "Claims rewards on all the passed rewardPool/claim integration pairs. Callable only by manager unless manager has set anyoneClaim to true."
      },
      "batchRemoveClaim(address,address[],string[])": {
        "notice": "SET MANAGER ONLY. Batch removes claims from SetToken's settings."
      },
      "claim(address,address,string)": {
        "notice": "Claim the rewards available on the rewardPool for the specified claim integration. Callable only by manager unless manager has set anyoneClaim to true."
      },
      "getRewardPoolClaims(address,address)": {
        "notice": "Get list of claim integration of the rewardPool for the SetToken."
      },
      "getRewardPools(address)": {
        "notice": "Get list of rewardPools to perform claims for the SetToken."
      },
      "getRewards(address,address,string)": {
        "notice": "Get the rewards available to be claimed by the claim integration on the rewardPool."
      },
      "initialize(address,bool,address[],string[])": {
        "notice": "SET MANAGER ONLY. Initializes this module to the SetToken."
      },
      "isRewardPool(address,address)": {
        "notice": "Get boolean indicating if the rewardPool is in the list to perform claims for the SetToken."
      },
      "isRewardPoolClaim(address,address,string)": {
        "notice": "Get boolean indicating if the adapter address of the claim integration is associated to the rewardPool."
      },
      "removeClaim(address,address,string)": {
        "notice": "SET MANAGER ONLY. Removes a claim integration from an existent rewardPool. If no claim remains for reward pool then reward pool is removed from rewardPoolList."
      },
      "removeModule()": {
        "notice": "Removes this module from the SetToken, via call by the SetToken."
      },
      "updateAnyoneClaim(address)": {
        "notice": "SET MANAGER ONLY. Update whether manager allows other addresses to call claim."
      }
    }
  }
}