{
  "contractName": "CompoundLikeGovernanceAdapter",
  "abi": [
    {
      "inputs": [
        {
          "internalType": "address",
          "name": "_governorAlpha",
          "type": "address"
        },
        {
          "internalType": "address",
          "name": "_governanceToken",
          "type": "address"
        }
      ],
      "stateMutability": "nonpayable",
      "type": "constructor"
    },
    {
      "inputs": [],
      "name": "DELEGATE_SIGNATURE",
      "outputs": [
        {
          "internalType": "string",
          "name": "",
          "type": "string"
        }
      ],
      "stateMutability": "view",
      "type": "function"
    },
    {
      "inputs": [],
      "name": "PROPOSE_SIGNATURE",
      "outputs": [
        {
          "internalType": "string",
          "name": "",
          "type": "string"
        }
      ],
      "stateMutability": "view",
      "type": "function"
    },
    {
      "inputs": [],
      "name": "ZERO_ADDRESS",
      "outputs": [
        {
          "internalType": "address",
          "name": "",
          "type": "address"
        }
      ],
      "stateMutability": "view",
      "type": "function"
    },
    {
      "inputs": [],
      "name": "governanceToken",
      "outputs": [
        {
          "internalType": "address",
          "name": "",
          "type": "address"
        }
      ],
      "stateMutability": "view",
      "type": "function"
    },
    {
      "inputs": [],
      "name": "governorAlpha",
      "outputs": [
        {
          "internalType": "address",
          "name": "",
          "type": "address"
        }
      ],
      "stateMutability": "view",
      "type": "function"
    },
    {
      "inputs": [
        {
          "internalType": "uint256",
          "name": "_proposalId",
          "type": "uint256"
        },
        {
          "internalType": "bool",
          "name": "_support",
          "type": "bool"
        },
        {
          "internalType": "bytes",
          "name": "",
          "type": "bytes"
        }
      ],
      "name": "getVoteCalldata",
      "outputs": [
        {
          "internalType": "address",
          "name": "",
          "type": "address"
        },
        {
          "internalType": "uint256",
          "name": "",
          "type": "uint256"
        },
        {
          "internalType": "bytes",
          "name": "",
          "type": "bytes"
        }
      ],
      "stateMutability": "view",
      "type": "function"
    },
    {
      "inputs": [
        {
          "internalType": "address",
          "name": "_delegatee",
          "type": "address"
        }
      ],
      "name": "getDelegateCalldata",
      "outputs": [
        {
          "internalType": "address",
          "name": "",
          "type": "address"
        },
        {
          "internalType": "uint256",
          "name": "",
          "type": "uint256"
        },
        {
          "internalType": "bytes",
          "name": "",
          "type": "bytes"
        }
      ],
      "stateMutability": "view",
      "type": "function"
    },
    {
      "inputs": [
        {
          "internalType": "address",
          "name": "_setToken",
          "type": "address"
        }
      ],
      "name": "getRegisterCalldata",
      "outputs": [
        {
          "internalType": "address",
          "name": "",
          "type": "address"
        },
        {
          "internalType": "uint256",
          "name": "",
          "type": "uint256"
        },
        {
          "internalType": "bytes",
          "name": "",
          "type": "bytes"
        }
      ],
      "stateMutability": "view",
      "type": "function"
    },
    {
      "inputs": [],
      "name": "getRevokeCalldata",
      "outputs": [
        {
          "internalType": "address",
          "name": "",
          "type": "address"
        },
        {
          "internalType": "uint256",
          "name": "",
          "type": "uint256"
        },
        {
          "internalType": "bytes",
          "name": "",
          "type": "bytes"
        }
      ],
      "stateMutability": "view",
      "type": "function"
    },
    {
      "inputs": [
        {
          "internalType": "bytes",
          "name": "_proposalData",
          "type": "bytes"
        }
      ],
      "name": "getProposeCalldata",
      "outputs": [
        {
          "internalType": "address",
          "name": "",
          "type": "address"
        },
        {
          "internalType": "uint256",
          "name": "",
          "type": "uint256"
        },
        {
          "internalType": "bytes",
          "name": "",
          "type": "bytes"
        }
      ],
      "stateMutability": "view",
      "type": "function"
    }
  ],
  "bytecode": "0x60c06040523480156200001157600080fd5b506040516200166f3803806200166f8339818101604052810190620000379190620000c4565b8173ffffffffffffffffffffffffffffffffffffffff1660a08173ffffffffffffffffffffffffffffffffffffffff1660601b815250508073ffffffffffffffffffffffffffffffffffffffff1660808173ffffffffffffffffffffffffffffffffffffffff1660601b81525050505062000153565b600081519050620000be8162000139565b92915050565b60008060408385031215620000d857600080fd5b6000620000e885828601620000ad565b9250506020620000fb85828601620000ad565b9150509250929050565b6000620001128262000119565b9050919050565b600073ffffffffffffffffffffffffffffffffffffffff82169050919050565b620001448162000105565b81146200015057600080fd5b50565b60805160601c60a05160601c6114d962000196600039806102fa52806103cc528061075d5250806104c452806105ba52806106b1528061073952506114d96000f3fe608060405234801561001057600080fd5b506004361061009e5760003560e01c8063d5abba9911610066578063d5abba9914610189578063f3d414c8146101a9578063f3f4b7ea146101c7578063f96dae0a146101e5578063fd430085146102035761009e565b8063538ba4f9146100a35780635cb8b5e3146100c1578063a4fed2ce146100f3578063d0ae50ae14610125578063d3da53a414610157575b600080fd5b6100ab610221565b6040516100b89190611007565b60405180910390f35b6100db60048036038101906100d69190610bea565b610226565b6040516100ea93929190611022565b60405180910390f35b61010d60048036038101906101089190610c2b565b610332565b60405161011c93929190611022565b60405180910390f35b61013f600480360381019061013a9190610ad2565b610401565b60405161014e93929190611022565b60405180910390f35b610171600480360381019061016c9190610ad2565b6104f7565b60405161018093929190611022565b60405180910390f35b6101916105ed565b6040516101a093929190611022565b60405180910390f35b6101b16106e2565b6040516101be91906110d6565b60405180910390f35b6101cf61071b565b6040516101dc91906110d6565b60405180910390f35b6101ed610737565b6040516101fa9190611007565b60405180910390f35b61020b61075b565b6040516102189190611007565b60405180910390f35b600081565b600080606080606080606080888060200190518101906102469190610afb565b945094509450945094506060604051806060016040528060348152602001611470603491398686868686604051602401610284959493929190611060565b604051602081830303815290604052906040516102a19190610ff0565b60405180910390207bffffffffffffffffffffffffffffffffffffffffffffffffffffffff19166020820180517bffffffffffffffffffffffffffffffffffffffffffffffffffffffff838183161783525050505090507f00000000000000000000000000000000000000000000000000000000000000006000828191509850985098505050505050509193909250565b600080606080868660405160240161034b9291906110f8565b6040516020818303038152906040527f15373e3d000000000000000000000000000000000000000000000000000000007bffffffffffffffffffffffffffffffffffffffffffffffffffffffff19166020820180517bffffffffffffffffffffffffffffffffffffffffffffffffffffffff838183161783525050505090507f00000000000000000000000000000000000000000000000000000000000000006000828191509350935093505093509350939050565b6000806060806040518060400160405280601181526020017f64656c65676174652861646472657373290000000000000000000000000000008152508560405160240161044e9190611007565b6040516020818303038152906040529060405161046b9190610ff0565b60405180910390207bffffffffffffffffffffffffffffffffffffffffffffffffffffffff19166020820180517bffffffffffffffffffffffffffffffffffffffffffffffffffffffff838183161783525050505090507f0000000000000000000000000000000000000000000000000000000000000000600082819150935093509350509193909250565b6000806060806040518060400160405280601181526020017f64656c6567617465286164647265737329000000000000000000000000000000815250856040516024016105449190611007565b604051602081830303815290604052906040516105619190610ff0565b60405180910390207bffffffffffffffffffffffffffffffffffffffffffffffffffffffff19166020820180517bffffffffffffffffffffffffffffffffffffffffffffffffffffffff838183161783525050505090507f0000000000000000000000000000000000000000000000000000000000000000600082819150935093509350509193909250565b6000806060806040518060400160405280601181526020017f64656c6567617465286164647265737329000000000000000000000000000000815250600060405160240161063b9190611007565b604051602081830303815290604052906040516106589190610ff0565b60405180910390207bffffffffffffffffffffffffffffffffffffffffffffffffffffffff19166020820180517bffffffffffffffffffffffffffffffffffffffffffffffffffffffff838183161783525050505090507f000000000000000000000000000000000000000000000000000000000000000060008281915093509350935050909192565b6040518060400160405280601181526020017f64656c656761746528616464726573732900000000000000000000000000000081525081565b6040518060600160405280603481526020016114706034913981565b7f000000000000000000000000000000000000000000000000000000000000000081565b7f000000000000000000000000000000000000000000000000000000000000000081565b60008135905061078e8161142a565b92915050565b6000815190506107a38161142a565b92915050565b600082601f8301126107ba57600080fd5b81516107cd6107c88261114e565b611121565b915081818352602084019350602081019050838560208402820111156107f257600080fd5b60005b8381101561082257816108088882610794565b8452602084019350602083019250506001810190506107f5565b5050505092915050565b600082601f83011261083d57600080fd5b815161085061084b82611176565b611121565b9150818183526020840193506020810190508360005b83811015610896578151860161087c8882610a00565b845260208401935060208301925050600181019050610866565b5050505092915050565b600082601f8301126108b157600080fd5b81516108c46108bf8261119e565b611121565b9150818183526020840193506020810190508360005b8381101561090a57815186016108f08882610a54565b8452602084019350602083019250506001810190506108da565b5050505092915050565b600082601f83011261092557600080fd5b8151610938610933826111c6565b611121565b9150818183526020840193506020810190508385602084028201111561095d57600080fd5b60005b8381101561098d57816109738882610abd565b845260208401935060208301925050600181019050610960565b5050505092915050565b6000813590506109a681611441565b92915050565b600082601f8301126109bd57600080fd5b81356109d06109cb826111ee565b611121565b915080825260208301602083018583830111156109ec57600080fd5b6109f78382846113d7565b50505092915050565b600082601f830112610a1157600080fd5b8151610a24610a1f826111ee565b611121565b91508082526020830160208301858383011115610a4057600080fd5b610a4b8382846113e6565b50505092915050565b600082601f830112610a6557600080fd5b8151610a78610a738261121a565b611121565b91508082526020830160208301858383011115610a9457600080fd5b610a9f8382846113e6565b50505092915050565b600081359050610ab781611458565b92915050565b600081519050610acc81611458565b92915050565b600060208284031215610ae457600080fd5b6000610af28482850161077f565b91505092915050565b600080600080600060a08688031215610b1357600080fd5b600086015167ffffffffffffffff811115610b2d57600080fd5b610b39888289016107a9565b955050602086015167ffffffffffffffff811115610b5657600080fd5b610b6288828901610914565b945050604086015167ffffffffffffffff811115610b7f57600080fd5b610b8b888289016108a0565b935050606086015167ffffffffffffffff811115610ba857600080fd5b610bb48882890161082c565b925050608086015167ffffffffffffffff811115610bd157600080fd5b610bdd88828901610a54565b9150509295509295909350565b600060208284031215610bfc57600080fd5b600082013567ffffffffffffffff811115610c1657600080fd5b610c22848285016109ac565b91505092915050565b600080600060608486031215610c4057600080fd5b6000610c4e86828701610aa8565b9350506020610c5f86828701610997565b925050604084013567ffffffffffffffff811115610c7c57600080fd5b610c88868287016109ac565b9150509250925092565b6000610c9e8383610cea565b60208301905092915050565b6000610cb68383610ebd565b905092915050565b6000610cca8383610f2f565b905092915050565b6000610cde8383610fd2565b60208301905092915050565b610cf38161138f565b82525050565b610d028161138f565b82525050565b6000610d1382611286565b610d1d81856112fc565b9350610d2883611246565b8060005b83811015610d59578151610d408882610c92565b9750610d4b836112c8565b925050600181019050610d2c565b5085935050505092915050565b6000610d7182611291565b610d7b818561130d565b935083602082028501610d8d85611256565b8060005b85811015610dc95784840389528151610daa8582610caa565b9450610db5836112d5565b925060208a01995050600181019050610d91565b50829750879550505050505092915050565b6000610de68261129c565b610df0818561131e565b935083602082028501610e0285611266565b8060005b85811015610e3e5784840389528151610e1f8582610cbe565b9450610e2a836112e2565b925060208a01995050600181019050610e06565b50829750879550505050505092915050565b6000610e5b826112a7565b610e65818561132f565b9350610e7083611276565b8060005b83811015610ea1578151610e888882610cd2565b9750610e93836112ef565b925050600181019050610e74565b5085935050505092915050565b610eb7816113a1565b82525050565b6000610ec8826112b2565b610ed28185611340565b9350610ee28185602086016113e6565b610eeb81611419565b840191505092915050565b6000610f01826112b2565b610f0b8185611351565b9350610f1b8185602086016113e6565b610f2481611419565b840191505092915050565b6000610f3a826112bd565b610f448185611362565b9350610f548185602086016113e6565b610f5d81611419565b840191505092915050565b6000610f73826112bd565b610f7d8185611373565b9350610f8d8185602086016113e6565b610f9681611419565b840191505092915050565b6000610fac826112bd565b610fb68185611384565b9350610fc68185602086016113e6565b80840191505092915050565b610fdb816113cd565b82525050565b610fea816113cd565b82525050565b6000610ffc8284610fa1565b915081905092915050565b600060208201905061101c6000830184610cf9565b92915050565b60006060820190506110376000830186610cf9565b6110446020830185610fe1565b81810360408301526110568184610ef6565b9050949350505050565b600060a082019050818103600083015261107a8188610d08565b9050818103602083015261108e8187610e50565b905081810360408301526110a28186610ddb565b905081810360608301526110b68185610d66565b905081810360808301526110ca8184610f68565b90509695505050505050565b600060208201905081810360008301526110f08184610f68565b905092915050565b600060408201905061110d6000830185610fe1565b61111a6020830184610eae565b9392505050565b6000604051905081810181811067ffffffffffffffff8211171561114457600080fd5b8060405250919050565b600067ffffffffffffffff82111561116557600080fd5b602082029050602081019050919050565b600067ffffffffffffffff82111561118d57600080fd5b602082029050602081019050919050565b600067ffffffffffffffff8211156111b557600080fd5b602082029050602081019050919050565b600067ffffffffffffffff8211156111dd57600080fd5b602082029050602081019050919050565b600067ffffffffffffffff82111561120557600080fd5b601f19601f8301169050602081019050919050565b600067ffffffffffffffff82111561123157600080fd5b601f19601f8301169050602081019050919050565b6000819050602082019050919050565b6000819050602082019050919050565b6000819050602082019050919050565b6000819050602082019050919050565b600081519050919050565b600081519050919050565b600081519050919050565b600081519050919050565b600081519050919050565b600081519050919050565b6000602082019050919050565b6000602082019050919050565b6000602082019050919050565b6000602082019050919050565b600082825260208201905092915050565b600082825260208201905092915050565b600082825260208201905092915050565b600082825260208201905092915050565b600082825260208201905092915050565b600082825260208201905092915050565b600082825260208201905092915050565b600082825260208201905092915050565b600081905092915050565b600061139a826113ad565b9050919050565b60008115159050919050565b600073ffffffffffffffffffffffffffffffffffffffff82169050919050565b6000819050919050565b82818337600083830152505050565b60005b838110156114045780820151818401526020810190506113e9565b83811115611413576000848401525b50505050565b6000601f19601f8301169050919050565b6114338161138f565b811461143e57600080fd5b50565b61144a816113a1565b811461145557600080fd5b50565b611461816113cd565b811461146c57600080fd5b5056fe70726f706f736528616464726573735b5d2c75696e743235365b5d2c737472696e675b5d2c62797465735b5d2c737472696e6729a26469706673582212206e2a22ebead8731ed84c108776279b71563d116394dbf7add052ea66b523906a64736f6c634300060a0033",
  "immutableReferences": {
    "11087": [
      {
        "length": 32,
        "start": 1220
      },
      {
        "length": 32,
        "start": 1466
      },
      {
        "length": 32,
        "start": 1713
      },
      {
        "length": 32,
        "start": 1849
      }
    ],
    "11089": [
      {
        "length": 32,
        "start": 762
      },
      {
        "length": 32,
        "start": 972
      },
      {
        "length": 32,
        "start": 1885
      }
    ]
  },
  "source": "/*\n    Copyright 2020 Set Labs Inc.\n\n    Licensed under the Apache License, Version 2.0 (the \"License\");\n    you may not use this file except in compliance with the License.\n    You may obtain a copy of the License at\n\n    http://www.apache.org/licenses/LICENSE-2.0\n\n    Unless required by applicable law or agreed to in writing, software\n    distributed under the License is distributed on an \"AS IS\" BASIS,\n    WITHOUT WARRANTIES OR CONDITIONS OF ANY KIND, either express or implied.\n    See the License for the specific language governing permissions and\n    limitations under the License.\n\n    SPDX-License-Identifier: Apache License, Version 2.0\n*/\n\npragma solidity 0.6.10;\npragma experimental \"ABIEncoderV2\";\n\n\n/**\n * @title CompoundLikeGovernanceAdapter\n * @author Set Protocol\n *\n * Governance adapter for Compound-like governance systems (e.g. Uniswap) that returns data for voting, delegating and making proposals\n */\ncontract CompoundLikeGovernanceAdapter {\n\n    /* ============ Constants ============ */\n\n    // Signature of the propose function in Compound Governor Alpha. This is used to encode the calldata for the propose function\n    string public constant PROPOSE_SIGNATURE = \"propose(address[],uint256[],string[],bytes[],string)\";\n    \n    // Signature of the delegate function in Compound Governor Alpha\n    string public constant DELEGATE_SIGNATURE = \"delegate(address)\";\n\n    address public constant ZERO_ADDRESS = 0x0000000000000000000000000000000000000000;\n\n    /* ============ State Variables ============ */\n\n    // Address of governance token\n    address public immutable governanceToken;\n\n    // Address of Compound-like Governor Alpha contract\n    address public immutable governorAlpha;\n\n    /* ============ Constructor ============ */\n\n    /**\n     * Set state variables\n     *\n     * @param _governorAlpha    Address of Governor Alpha contract\n     * @param _governanceToken  Address of governance token\n     */\n    constructor(address _governorAlpha, address _governanceToken) public {\n        governorAlpha = _governorAlpha;\n        governanceToken = _governanceToken;\n    }\n\n    /* ============ External Getter Functions ============ */\n\n    /**\n     * Generates the calldata to vote on a proposal. Bytes data paramater is unused in Compound\n     *\n     * @param _proposalId           ID of the proposal to vote on\n     * @param _support              Boolean indicating whether to support proposal\n     *\n     * @return address              Target contract address\n     * @return uint256              Total quantity of ETH (Set to 0)\n     * @return bytes                Propose calldata\n     */\n    function getVoteCalldata(uint256 _proposalId, bool _support, bytes memory /* _data */) external view returns (address, uint256, bytes memory) {\n        // castVote(uint256 _proposalId, bool _support)\n        bytes memory callData = abi.encodeWithSignature(\"castVote(uint256,bool)\", _proposalId, _support);\n\n        return (governorAlpha, 0, callData);\n    }\n\n    /**\n     * Generates the calldata to delegate votes to another ETH address. Self and zero address allowed, which is equivalent to registering and revoking in Compound\n     * like governance systems.\n     *\n     * @param _delegatee            Address of the delegatee\n     *\n     * @return address              Target contract address\n     * @return uint256              Total quantity of ETH (Set to 0)\n     * @return bytes                Propose calldata\n     */\n    function getDelegateCalldata(address _delegatee) external view returns (address, uint256, bytes memory) {\n        // delegate(address _delegatee)\n        bytes memory callData = abi.encodeWithSignature(DELEGATE_SIGNATURE, _delegatee);\n\n        return (governanceToken, 0, callData);\n    }\n\n    /**\n     * Generates the calldata to register for voting. This is equivalent to delegating to the SetToken address in Compound.\n     *\n     * @param _setToken             Address of SetToken\n     *\n     * @return address              Target contract address\n     * @return uint256              Total quantity of ETH (Set to 0)\n     * @return bytes                Propose calldata\n     */\n    function getRegisterCalldata(address _setToken) external view returns (address, uint256, bytes memory) {\n        // delegate(address _delegatee)\n        bytes memory callData = abi.encodeWithSignature(DELEGATE_SIGNATURE, _setToken);\n\n        return (governanceToken, 0, callData);\n    }\n\n    /**\n     * Generates the calldata to revoke voting. This is equivalent to delegating to the zero address in Compound.\n     *\n     * @return address              Target contract address\n     * @return uint256              Total quantity of ETH (Set to 0)\n     * @return bytes                Propose calldata\n     */\n    function getRevokeCalldata() external view returns (address, uint256, bytes memory) {\n        // delegate(address _delegatee)\n        bytes memory callData = abi.encodeWithSignature(DELEGATE_SIGNATURE, ZERO_ADDRESS);\n\n        return (governanceToken, 0, callData);\n    }\n\n    /**\n     * Generates the calldata to create a new proposal\n     *\n     * @param _proposalData         Byte data containing data about the proposal\n     *\n     * @return address              Target contract address\n     * @return uint256              Total quantity of ETH (Set to 0)\n     * @return bytes                Propose calldata\n     */\n    function getProposeCalldata(bytes memory _proposalData) external view returns (address, uint256, bytes memory) {\n        // Decode proposal data\n        (\n            address[] memory targets,\n            uint256[] memory values,\n            string[] memory signatures,\n            bytes[] memory calldatas,\n            string memory description\n        ) = abi.decode(_proposalData, (address[],uint256[],string[],bytes[],string));\n\n        // propose(address[],uint256[],string[],bytes[],string)\n        bytes memory callData = abi.encodeWithSignature(PROPOSE_SIGNATURE, targets, values, signatures, calldatas, description);\n\n        return (governorAlpha, 0, callData);\n    }\n}\n",
  "sourcePath": "/Users/tahadhailey/Documents/top5/top5swap/swap/contracts/protocol/integration/CompoundLikeGovernanceAdapter.sol",
  "compiler": {
    "name": "solc",
    "version": "0.6.10+commit.00c0fcaf.Emscripten.clang"
  },
  "schemaVersion": "3.2.1",
  "updatedAt": "2021-01-21T08:20:37.691Z",
  "devdoc": {
    "author": "Set Protocol Governance adapter for Compound-like governance systems (e.g. Uniswap) that returns data for voting, delegating and making proposals",
    "methods": {
      "constructor": {
        "params": {
          "_governanceToken": "Address of governance token",
          "_governorAlpha": "Address of Governor Alpha contract"
        }
      },
      "getDelegateCalldata(address)": {
        "params": {
          "_delegatee": "Address of the delegatee"
        },
        "returns": {
          "_0": "address              Target contract address",
          "_1": "uint256              Total quantity of ETH (Set to 0)",
          "_2": "bytes                Propose calldata"
        }
      },
      "getProposeCalldata(bytes)": {
        "params": {
          "_proposalData": "Byte data containing data about the proposal"
        },
        "returns": {
          "_0": "address              Target contract address",
          "_1": "uint256              Total quantity of ETH (Set to 0)",
          "_2": "bytes                Propose calldata"
        }
      },
      "getRegisterCalldata(address)": {
        "params": {
          "_setToken": "Address of SetToken"
        },
        "returns": {
          "_0": "address              Target contract address",
          "_1": "uint256              Total quantity of ETH (Set to 0)",
          "_2": "bytes                Propose calldata"
        }
      },
      "getRevokeCalldata()": {
        "returns": {
          "_0": "address              Target contract address",
          "_1": "uint256              Total quantity of ETH (Set to 0)",
          "_2": "bytes                Propose calldata"
        }
      },
      "getVoteCalldata(uint256,bool,bytes)": {
        "params": {
          "_proposalId": "ID of the proposal to vote on",
          "_support": "Boolean indicating whether to support proposal"
        },
        "returns": {
          "_0": "address              Target contract address",
          "_1": "uint256              Total quantity of ETH (Set to 0)",
          "_2": "bytes                Propose calldata"
        }
      }
    },
    "title": "CompoundLikeGovernanceAdapter"
  },
  "userdoc": {
    "methods": {
      "constructor": "Set state variables",
      "getDelegateCalldata(address)": {
        "notice": "Generates the calldata to delegate votes to another ETH address. Self and zero address allowed, which is equivalent to registering and revoking in Compound like governance systems."
      },
      "getProposeCalldata(bytes)": {
        "notice": "Generates the calldata to create a new proposal"
      },
      "getRegisterCalldata(address)": {
        "notice": "Generates the calldata to register for voting. This is equivalent to delegating to the SetToken address in Compound."
      },
      "getRevokeCalldata()": {
        "notice": "Generates the calldata to revoke voting. This is equivalent to delegating to the zero address in Compound."
      },
      "getVoteCalldata(uint256,bool,bytes)": {
        "notice": "Generates the calldata to vote on a proposal. Bytes data paramater is unused in Compound"
      }
    }
  }
}