{
  "contractName": "Controller",
  "abi": [
    {
      "inputs": [
        {
          "internalType": "address",
          "name": "_feeRecipient",
          "type": "address"
        }
      ],
      "stateMutability": "nonpayable",
      "type": "constructor"
    },
    {
      "anonymous": false,
      "inputs": [
        {
          "indexed": true,
          "internalType": "address",
          "name": "_factory",
          "type": "address"
        }
      ],
      "name": "FactoryAdded",
      "type": "event"
    },
    {
      "anonymous": false,
      "inputs": [
        {
          "indexed": true,
          "internalType": "address",
          "name": "_factory",
          "type": "address"
        }
      ],
      "name": "FactoryRemoved",
      "type": "event"
    },
    {
      "anonymous": false,
      "inputs": [
        {
          "indexed": true,
          "internalType": "address",
          "name": "_module",
          "type": "address"
        },
        {
          "indexed": true,
          "internalType": "uint256",
          "name": "_feeType",
          "type": "uint256"
        },
        {
          "indexed": false,
          "internalType": "uint256",
          "name": "_feePercentage",
          "type": "uint256"
        }
      ],
      "name": "FeeEdited",
      "type": "event"
    },
    {
      "anonymous": false,
      "inputs": [
        {
          "indexed": false,
          "internalType": "address",
          "name": "_newFeeRecipient",
          "type": "address"
        }
      ],
      "name": "FeeRecipientChanged",
      "type": "event"
    },
    {
      "anonymous": false,
      "inputs": [
        {
          "indexed": true,
          "internalType": "address",
          "name": "_module",
          "type": "address"
        }
      ],
      "name": "ModuleAdded",
      "type": "event"
    },
    {
      "anonymous": false,
      "inputs": [
        {
          "indexed": true,
          "internalType": "address",
          "name": "_module",
          "type": "address"
        }
      ],
      "name": "ModuleRemoved",
      "type": "event"
    },
    {
      "anonymous": false,
      "inputs": [
        {
          "indexed": true,
          "internalType": "address",
          "name": "previousOwner",
          "type": "address"
        },
        {
          "indexed": true,
          "internalType": "address",
          "name": "newOwner",
          "type": "address"
        }
      ],
      "name": "OwnershipTransferred",
      "type": "event"
    },
    {
      "anonymous": false,
      "inputs": [
        {
          "indexed": true,
          "internalType": "address",
          "name": "_resource",
          "type": "address"
        },
        {
          "indexed": false,
          "internalType": "uint256",
          "name": "_id",
          "type": "uint256"
        }
      ],
      "name": "ResourceAdded",
      "type": "event"
    },
    {
      "anonymous": false,
      "inputs": [
        {
          "indexed": true,
          "internalType": "address",
          "name": "_resource",
          "type": "address"
        },
        {
          "indexed": false,
          "internalType": "uint256",
          "name": "_id",
          "type": "uint256"
        }
      ],
      "name": "ResourceRemoved",
      "type": "event"
    },
    {
      "anonymous": false,
      "inputs": [
        {
          "indexed": true,
          "internalType": "address",
          "name": "_setToken",
          "type": "address"
        },
        {
          "indexed": true,
          "internalType": "address",
          "name": "_factory",
          "type": "address"
        }
      ],
      "name": "SetAdded",
      "type": "event"
    },
    {
      "anonymous": false,
      "inputs": [
        {
          "indexed": true,
          "internalType": "address",
          "name": "_setToken",
          "type": "address"
        }
      ],
      "name": "SetRemoved",
      "type": "event"
    },
    {
      "inputs": [
        {
          "internalType": "uint256",
          "name": "",
          "type": "uint256"
        }
      ],
      "name": "factories",
      "outputs": [
        {
          "internalType": "address",
          "name": "",
          "type": "address"
        }
      ],
      "stateMutability": "view",
      "type": "function"
    },
    {
      "inputs": [],
      "name": "feeRecipient",
      "outputs": [
        {
          "internalType": "address",
          "name": "",
          "type": "address"
        }
      ],
      "stateMutability": "view",
      "type": "function"
    },
    {
      "inputs": [
        {
          "internalType": "address",
          "name": "",
          "type": "address"
        },
        {
          "internalType": "uint256",
          "name": "",
          "type": "uint256"
        }
      ],
      "name": "fees",
      "outputs": [
        {
          "internalType": "uint256",
          "name": "",
          "type": "uint256"
        }
      ],
      "stateMutability": "view",
      "type": "function"
    },
    {
      "inputs": [
        {
          "internalType": "address",
          "name": "",
          "type": "address"
        }
      ],
      "name": "isFactory",
      "outputs": [
        {
          "internalType": "bool",
          "name": "",
          "type": "bool"
        }
      ],
      "stateMutability": "view",
      "type": "function"
    },
    {
      "inputs": [],
      "name": "isInitialized",
      "outputs": [
        {
          "internalType": "bool",
          "name": "",
          "type": "bool"
        }
      ],
      "stateMutability": "view",
      "type": "function"
    },
    {
      "inputs": [
        {
          "internalType": "address",
          "name": "",
          "type": "address"
        }
      ],
      "name": "isModule",
      "outputs": [
        {
          "internalType": "bool",
          "name": "",
          "type": "bool"
        }
      ],
      "stateMutability": "view",
      "type": "function"
    },
    {
      "inputs": [
        {
          "internalType": "address",
          "name": "",
          "type": "address"
        }
      ],
      "name": "isResource",
      "outputs": [
        {
          "internalType": "bool",
          "name": "",
          "type": "bool"
        }
      ],
      "stateMutability": "view",
      "type": "function"
    },
    {
      "inputs": [
        {
          "internalType": "address",
          "name": "",
          "type": "address"
        }
      ],
      "name": "isSet",
      "outputs": [
        {
          "internalType": "bool",
          "name": "",
          "type": "bool"
        }
      ],
      "stateMutability": "view",
      "type": "function"
    },
    {
      "inputs": [
        {
          "internalType": "uint256",
          "name": "",
          "type": "uint256"
        }
      ],
      "name": "modules",
      "outputs": [
        {
          "internalType": "address",
          "name": "",
          "type": "address"
        }
      ],
      "stateMutability": "view",
      "type": "function"
    },
    {
      "inputs": [],
      "name": "owner",
      "outputs": [
        {
          "internalType": "address",
          "name": "",
          "type": "address"
        }
      ],
      "stateMutability": "view",
      "type": "function"
    },
    {
      "inputs": [],
      "name": "renounceOwnership",
      "outputs": [],
      "stateMutability": "nonpayable",
      "type": "function"
    },
    {
      "inputs": [
        {
          "internalType": "uint256",
          "name": "",
          "type": "uint256"
        }
      ],
      "name": "resourceId",
      "outputs": [
        {
          "internalType": "address",
          "name": "",
          "type": "address"
        }
      ],
      "stateMutability": "view",
      "type": "function"
    },
    {
      "inputs": [
        {
          "internalType": "uint256",
          "name": "",
          "type": "uint256"
        }
      ],
      "name": "resources",
      "outputs": [
        {
          "internalType": "address",
          "name": "",
          "type": "address"
        }
      ],
      "stateMutability": "view",
      "type": "function"
    },
    {
      "inputs": [
        {
          "internalType": "uint256",
          "name": "",
          "type": "uint256"
        }
      ],
      "name": "sets",
      "outputs": [
        {
          "internalType": "address",
          "name": "",
          "type": "address"
        }
      ],
      "stateMutability": "view",
      "type": "function"
    },
    {
      "inputs": [
        {
          "internalType": "address",
          "name": "newOwner",
          "type": "address"
        }
      ],
      "name": "transferOwnership",
      "outputs": [],
      "stateMutability": "nonpayable",
      "type": "function"
    },
    {
      "inputs": [
        {
          "internalType": "address[]",
          "name": "_factories",
          "type": "address[]"
        },
        {
          "internalType": "address[]",
          "name": "_modules",
          "type": "address[]"
        },
        {
          "internalType": "address[]",
          "name": "_resources",
          "type": "address[]"
        },
        {
          "internalType": "uint256[]",
          "name": "_resourceIds",
          "type": "uint256[]"
        }
      ],
      "name": "initialize",
      "outputs": [],
      "stateMutability": "nonpayable",
      "type": "function"
    },
    {
      "inputs": [
        {
          "internalType": "address",
          "name": "_setToken",
          "type": "address"
        }
      ],
      "name": "addSet",
      "outputs": [],
      "stateMutability": "nonpayable",
      "type": "function"
    },
    {
      "inputs": [
        {
          "internalType": "address",
          "name": "_setToken",
          "type": "address"
        }
      ],
      "name": "removeSet",
      "outputs": [],
      "stateMutability": "nonpayable",
      "type": "function"
    },
    {
      "inputs": [
        {
          "internalType": "address",
          "name": "_factory",
          "type": "address"
        }
      ],
      "name": "addFactory",
      "outputs": [],
      "stateMutability": "nonpayable",
      "type": "function"
    },
    {
      "inputs": [
        {
          "internalType": "address",
          "name": "_factory",
          "type": "address"
        }
      ],
      "name": "removeFactory",
      "outputs": [],
      "stateMutability": "nonpayable",
      "type": "function"
    },
    {
      "inputs": [
        {
          "internalType": "address",
          "name": "_module",
          "type": "address"
        }
      ],
      "name": "addModule",
      "outputs": [],
      "stateMutability": "nonpayable",
      "type": "function"
    },
    {
      "inputs": [
        {
          "internalType": "address",
          "name": "_module",
          "type": "address"
        }
      ],
      "name": "removeModule",
      "outputs": [],
      "stateMutability": "nonpayable",
      "type": "function"
    },
    {
      "inputs": [
        {
          "internalType": "address",
          "name": "_resource",
          "type": "address"
        },
        {
          "internalType": "uint256",
          "name": "_id",
          "type": "uint256"
        }
      ],
      "name": "addResource",
      "outputs": [],
      "stateMutability": "nonpayable",
      "type": "function"
    },
    {
      "inputs": [
        {
          "internalType": "uint256",
          "name": "_id",
          "type": "uint256"
        }
      ],
      "name": "removeResource",
      "outputs": [],
      "stateMutability": "nonpayable",
      "type": "function"
    },
    {
      "inputs": [
        {
          "internalType": "address",
          "name": "_module",
          "type": "address"
        },
        {
          "internalType": "uint256",
          "name": "_feeType",
          "type": "uint256"
        },
        {
          "internalType": "uint256",
          "name": "_newFeePercentage",
          "type": "uint256"
        }
      ],
      "name": "addFee",
      "outputs": [],
      "stateMutability": "nonpayable",
      "type": "function"
    },
    {
      "inputs": [
        {
          "internalType": "address",
          "name": "_module",
          "type": "address"
        },
        {
          "internalType": "uint256",
          "name": "_feeType",
          "type": "uint256"
        },
        {
          "internalType": "uint256",
          "name": "_newFeePercentage",
          "type": "uint256"
        }
      ],
      "name": "editFee",
      "outputs": [],
      "stateMutability": "nonpayable",
      "type": "function"
    },
    {
      "inputs": [
        {
          "internalType": "address",
          "name": "_newFeeRecipient",
          "type": "address"
        }
      ],
      "name": "editFeeRecipient",
      "outputs": [],
      "stateMutability": "nonpayable",
      "type": "function"
    },
    {
      "inputs": [
        {
          "internalType": "address",
          "name": "_moduleAddress",
          "type": "address"
        },
        {
          "internalType": "uint256",
          "name": "_feeType",
          "type": "uint256"
        }
      ],
      "name": "getModuleFee",
      "outputs": [
        {
          "internalType": "uint256",
          "name": "",
          "type": "uint256"
        }
      ],
      "stateMutability": "view",
      "type": "function"
    },
    {
      "inputs": [],
      "name": "getFactories",
      "outputs": [
        {
          "internalType": "address[]",
          "name": "",
          "type": "address[]"
        }
      ],
      "stateMutability": "view",
      "type": "function"
    },
    {
      "inputs": [],
      "name": "getModules",
      "outputs": [
        {
          "internalType": "address[]",
          "name": "",
          "type": "address[]"
        }
      ],
      "stateMutability": "view",
      "type": "function"
    },
    {
      "inputs": [],
      "name": "getResources",
      "outputs": [
        {
          "internalType": "address[]",
          "name": "",
          "type": "address[]"
        }
      ],
      "stateMutability": "view",
      "type": "function"
    },
    {
      "inputs": [],
      "name": "getSets",
      "outputs": [
        {
          "internalType": "address[]",
          "name": "",
          "type": "address[]"
        }
      ],
      "stateMutability": "view",
      "type": "function"
    },
    {
      "inputs": [
        {
          "internalType": "address",
          "name": "_contractAddress",
          "type": "address"
        }
      ],
      "name": "isSystemContract",
      "outputs": [
        {
          "internalType": "bool",
          "name": "",
          "type": "bool"
        }
      ],
      "stateMutability": "view",
      "type": "function"
    }
  ],
  "bytecode": "0x60806040523480156200001157600080fd5b5060405162004a4238038062004a42833981810160405260208110156200003757600080fd5b810190808051906020019092919050505060006200005a6200014060201b60201c565b9050806000806101000a81548173ffffffffffffffffffffffffffffffffffffffff021916908373ffffffffffffffffffffffffffffffffffffffff1602179055508073ffffffffffffffffffffffffffffffffffffffff16600073ffffffffffffffffffffffffffffffffffffffff167f8be0079c531659141344cd1fd0a4f28419497f9722a3daafe3b4186f6b6457e060405160405180910390a35080600b60006101000a81548173ffffffffffffffffffffffffffffffffffffffff021916908373ffffffffffffffffffffffffffffffffffffffff1602179055505062000148565b600033905090565b6148ea80620001586000396000f3fe608060405234801561001057600080fd5b50600436106101fb5760003560e01c8063715018a61161011a578063a3c56615116100ad578063d580ded41161007c578063d580ded414610d16578063e0b7531714610d5a578063e765ced614610da8578063f2fde38b14610e16578063f36b9a9a14610e5a576101fb565b8063a3c56615146109a0578063b2494df314610c14578063c1cc57b014610c73578063c5bb387b14610cd2576101fb565b80637e6cbb6a116100e95780637e6cbb6a1461084557806381b2248a146108a45780638da5cb5b14610912578063a06324611461095c576101fb565b8063715018a61461072557806374ebe3ec1461072f57806376a5bcf61461078b578063792aa04f146107e3576101fb565b806329ce1ec511610192578063469048401161016157806346904840146105bb5780634b37c73f146106055780635b227f9b14610649578063672383c4146106b7576101fb565b806329ce1ec51461049a5780632cf7c531146104de578063392e53cd1461053d57806342f6e3891461055f576101fb565b80631ed86f19116101ce5780631ed86f191461032a578063207a94851461036e578063244d6daa146103ca578063263a536214610438576101fb565b806301b98339146102005780630f04ba671461022e57806313bc6d4b1461028a57806319e2c349146102e6575b600080fd5b61022c6004803603602081101561021657600080fd5b8101908080359060200190929190505050610eb2565b005b6102706004803603602081101561024457600080fd5b81019080803573ffffffffffffffffffffffffffffffffffffffff169060200190929190505050611267565b604051808215151515815260200191505060405180910390f35b6102cc600480360360208110156102a057600080fd5b81019080803573ffffffffffffffffffffffffffffffffffffffff169060200190929190505050611287565b604051808215151515815260200191505060405180910390f35b610328600480360360208110156102fc57600080fd5b81019080803573ffffffffffffffffffffffffffffffffffffffff16906020019092919050505061140f565b005b61036c6004803603602081101561034057600080fd5b81019080803573ffffffffffffffffffffffffffffffffffffffff169060200190929190505050611766565b005b6103b06004803603602081101561038457600080fd5b81019080803573ffffffffffffffffffffffffffffffffffffffff169060200190929190505050611a72565b604051808215151515815260200191505060405180910390f35b6103f6600480360360208110156103e057600080fd5b8101908080359060200190929190505050611a92565b604051808273ffffffffffffffffffffffffffffffffffffffff1673ffffffffffffffffffffffffffffffffffffffff16815260200191505060405180910390f35b6104846004803603604081101561044e57600080fd5b81019080803573ffffffffffffffffffffffffffffffffffffffff16906020019092919080359060200190929190505050611ace565b6040518082815260200191505060405180910390f35b6104dc600480360360208110156104b057600080fd5b81019080803573ffffffffffffffffffffffffffffffffffffffff169060200190929190505050611af3565b005b6104e6611dff565b6040518080602001828103825283818151815260200191508051906020019060200280838360005b8381101561052957808201518184015260208101905061050e565b505050509050019250505060405180910390f35b610545611e8d565b604051808215151515815260200191505060405180910390f35b6105a16004803603602081101561057557600080fd5b81019080803573ffffffffffffffffffffffffffffffffffffffff169060200190929190505050611ea0565b604051808215151515815260200191505060405180910390f35b6105c3611ec0565b604051808273ffffffffffffffffffffffffffffffffffffffff1673ffffffffffffffffffffffffffffffffffffffff16815260200191505060405180910390f35b6106476004803603602081101561061b57600080fd5b81019080803573ffffffffffffffffffffffffffffffffffffffff169060200190929190505050611ee6565b005b6106756004803603602081101561065f57600080fd5b810190808035906020019092919050505061223d565b604051808273ffffffffffffffffffffffffffffffffffffffff1673ffffffffffffffffffffffffffffffffffffffff16815260200191505060405180910390f35b6106e3600480360360208110156106cd57600080fd5b8101908080359060200190929190505050612279565b604051808273ffffffffffffffffffffffffffffffffffffffff1673ffffffffffffffffffffffffffffffffffffffff16815260200191505060405180910390f35b61072d6122b5565b005b6107716004803603602081101561074557600080fd5b81019080803573ffffffffffffffffffffffffffffffffffffffff16906020019092919050505061243d565b604051808215151515815260200191505060405180910390f35b6107e1600480360360608110156107a157600080fd5b81019080803573ffffffffffffffffffffffffffffffffffffffff169060200190929190803590602001909291908035906020019092919050505061245d565b005b61082f600480360360408110156107f957600080fd5b81019080803573ffffffffffffffffffffffffffffffffffffffff169060200190929190803590602001909291905050506127ba565b6040518082815260200191505060405180910390f35b61084d612815565b6040518080602001828103825283818151815260200191508051906020019060200280838360005b83811015610890578082015181840152602081019050610875565b505050509050019250505060405180910390f35b6108d0600480360360208110156108ba57600080fd5b81019080803590602001909291905050506128a3565b604051808273ffffffffffffffffffffffffffffffffffffffff1673ffffffffffffffffffffffffffffffffffffffff16815260200191505060405180910390f35b61091a6128df565b604051808273ffffffffffffffffffffffffffffffffffffffff1673ffffffffffffffffffffffffffffffffffffffff16815260200191505060405180910390f35b61099e6004803603602081101561097257600080fd5b81019080803573ffffffffffffffffffffffffffffffffffffffff169060200190929190505050612908565b005b610c12600480360360808110156109b657600080fd5b81019080803590602001906401000000008111156109d357600080fd5b8201836020820111156109e557600080fd5b80359060200191846020830284011164010000000083111715610a0757600080fd5b919080806020026020016040519081016040528093929190818152602001838360200280828437600081840152601f19601f82011690508083019250505050505050919291929080359060200190640100000000811115610a6757600080fd5b820183602082011115610a7957600080fd5b80359060200191846020830284011164010000000083111715610a9b57600080fd5b919080806020026020016040519081016040528093929190818152602001838360200280828437600081840152601f19601f82011690508083019250505050505050919291929080359060200190640100000000811115610afb57600080fd5b820183602082011115610b0d57600080fd5b80359060200191846020830284011164010000000083111715610b2f57600080fd5b919080806020026020016040519081016040528093929190818152602001838360200280828437600081840152601f19601f82011690508083019250505050505050919291929080359060200190640100000000811115610b8f57600080fd5b820183602082011115610ba157600080fd5b80359060200191846020830284011164010000000083111715610bc357600080fd5b919080806020026020016040519081016040528093929190818152602001838360200280828437600081840152601f19601f820116905080830192505050505050509192919290505050612c5f565b005b610c1c613385565b6040518080602001828103825283818151815260200191508051906020019060200280838360005b83811015610c5f578082015181840152602081019050610c44565b505050509050019250505060405180910390f35b610c7b613413565b6040518080602001828103825283818151815260200191508051906020019060200280838360005b83811015610cbe578082015181840152602081019050610ca3565b505050509050019250505060405180910390f35b610d1460048036036020811015610ce857600080fd5b81019080803573ffffffffffffffffffffffffffffffffffffffff1690602001909291905050506134a1565b005b610d5860048036036020811015610d2c57600080fd5b81019080803573ffffffffffffffffffffffffffffffffffffffff169060200190929190505050613736565b005b610da660048036036040811015610d7057600080fd5b81019080803573ffffffffffffffffffffffffffffffffffffffff16906020019092919080359060200190929190505050613a4f565b005b610dd460048036036020811015610dbe57600080fd5b8101908080359060200190929190505050613e8e565b604051808273ffffffffffffffffffffffffffffffffffffffff1673ffffffffffffffffffffffffffffffffffffffff16815260200191505060405180910390f35b610e5860048036036020811015610e2c57600080fd5b81019080803573ffffffffffffffffffffffffffffffffffffffff169060200190929190505050613ec1565b005b610eb060048036036060811015610e7057600080fd5b81019080803573ffffffffffffffffffffffffffffffffffffffff16906020019092919080359060200190929190803590602001909291905050506140ce565b005b600b60149054906101000a900460ff16610f34576040517f08c379a000000000000000000000000000000000000000000000000000000000815260040180806020018281038252601d8152602001807f436f6e7472616374206d75737420626520696e697469616c697a65642e00000081525060200191505060405180910390fd5b610f3c61442a565b73ffffffffffffffffffffffffffffffffffffffff166000809054906101000a900473ffffffffffffffffffffffffffffffffffffffff1673ffffffffffffffffffffffffffffffffffffffff1614610ffd576040517f08c379a00000000000000000000000000000000000000000000000000000000081526004018080602001828103825260208152602001807f4f776e61626c653a2063616c6c6572206973206e6f7420746865206f776e657281525060200191505060405180910390fd5b6000600a600083815260200190815260200160002060009054906101000a900473ffffffffffffffffffffffffffffffffffffffff169050600073ffffffffffffffffffffffffffffffffffffffff168173ffffffffffffffffffffffffffffffffffffffff1614156110d8576040517f08c379a00000000000000000000000000000000000000000000000000000000081526004018080602001828103825260178152602001807f5265736f7572636520646f6573206e6f7420657869737400000000000000000081525060200191505060405180910390fd5b61117181600480548060200260200160405190810160405280929190818152602001828054801561115e57602002820191906000526020600020905b8160009054906101000a900473ffffffffffffffffffffffffffffffffffffffff1673ffffffffffffffffffffffffffffffffffffffff1681526020019060010190808311611114575b505050505061443290919063ffffffff16565b6004908051906020019061118692919061475e565b50600a600083815260200190815260200160002060006101000a81549073ffffffffffffffffffffffffffffffffffffffff02191690556000600860008373ffffffffffffffffffffffffffffffffffffffff1673ffffffffffffffffffffffffffffffffffffffff16815260200190815260200160002060006101000a81548160ff0219169083151502179055508073ffffffffffffffffffffffffffffffffffffffff167fbc7961276d9fc2a4fe4fc4d817e48d15615364e5df46fa0d8fb45637582ae4f8836040518082815260200191505060405180910390a25050565b60066020528060005260406000206000915054906101000a900460ff1681565b6000600560008373ffffffffffffffffffffffffffffffffffffffff1673ffffffffffffffffffffffffffffffffffffffff16815260200190815260200160002060009054906101000a900460ff168061132a5750600760008373ffffffffffffffffffffffffffffffffffffffff1673ffffffffffffffffffffffffffffffffffffffff16815260200190815260200160002060009054906101000a900460ff165b8061137e5750600860008373ffffffffffffffffffffffffffffffffffffffff1673ffffffffffffffffffffffffffffffffffffffff16815260200190815260200160002060009054906101000a900460ff165b806113d25750600660008373ffffffffffffffffffffffffffffffffffffffff1673ffffffffffffffffffffffffffffffffffffffff16815260200190815260200160002060009054906101000a900460ff165b8061140857503073ffffffffffffffffffffffffffffffffffffffff168273ffffffffffffffffffffffffffffffffffffffff16145b9050919050565b600b60149054906101000a900460ff16611491576040517f08c379a000000000000000000000000000000000000000000000000000000000815260040180806020018281038252601d8152602001807f436f6e7472616374206d75737420626520696e697469616c697a65642e00000081525060200191505060405180910390fd5b61149961442a565b73ffffffffffffffffffffffffffffffffffffffff166000809054906101000a900473ffffffffffffffffffffffffffffffffffffffff1673ffffffffffffffffffffffffffffffffffffffff161461155a576040517f08c379a00000000000000000000000000000000000000000000000000000000081526004018080602001828103825260208152602001807f4f776e61626c653a2063616c6c6572206973206e6f7420746865206f776e657281525060200191505060405180910390fd5b600560008273ffffffffffffffffffffffffffffffffffffffff1673ffffffffffffffffffffffffffffffffffffffff16815260200190815260200160002060009054906101000a900460ff16611619576040517f08c379a00000000000000000000000000000000000000000000000000000000081526004018080602001828103825260128152602001807f53657420646f6573206e6f74206578697374000000000000000000000000000081525060200191505060405180910390fd5b6116b281600180548060200260200160405190810160405280929190818152602001828054801561169f57602002820191906000526020600020905b8160009054906101000a900473ffffffffffffffffffffffffffffffffffffffff1673ffffffffffffffffffffffffffffffffffffffff1681526020019060010190808311611655575b505050505061443290919063ffffffff16565b600190805190602001906116c792919061475e565b506000600560008373ffffffffffffffffffffffffffffffffffffffff1673ffffffffffffffffffffffffffffffffffffffff16815260200190815260200160002060006101000a81548160ff0219169083151502179055508073ffffffffffffffffffffffffffffffffffffffff167f8e0c505159e335da41fb50766da0ed86ceb6c429d0e6b431e8542cc6c3271b5360405160405180910390a250565b600b60149054906101000a900460ff166117e8576040517f08c379a000000000000000000000000000000000000000000000000000000000815260040180806020018281038252601d8152602001807f436f6e7472616374206d75737420626520696e697469616c697a65642e00000081525060200191505060405180910390fd5b6117f061442a565b73ffffffffffffffffffffffffffffffffffffffff166000809054906101000a900473ffffffffffffffffffffffffffffffffffffffff1673ffffffffffffffffffffffffffffffffffffffff16146118b1576040517f08c379a00000000000000000000000000000000000000000000000000000000081526004018080602001828103825260208152602001807f4f776e61626c653a2063616c6c6572206973206e6f7420746865206f776e657281525060200191505060405180910390fd5b600760008273ffffffffffffffffffffffffffffffffffffffff1673ffffffffffffffffffffffffffffffffffffffff16815260200190815260200160002060009054906101000a900460ff1615611971576040517f08c379a00000000000000000000000000000000000000000000000000000000081526004018080602001828103825260158152602001807f4d6f64756c6520616c726561647920657869737473000000000000000000000081525060200191505060405180910390fd5b6001600760008373ffffffffffffffffffffffffffffffffffffffff1673ffffffffffffffffffffffffffffffffffffffff16815260200190815260200160002060006101000a81548160ff0219169083151502179055506003819080600181540180825580915050600190039060005260206000200160009091909190916101000a81548173ffffffffffffffffffffffffffffffffffffffff021916908373ffffffffffffffffffffffffffffffffffffffff1602179055508073ffffffffffffffffffffffffffffffffffffffff167fead6a006345da1073a106d5f32372d2d2204f46cb0b4bca8f5ebafcbbed12b8a60405160405180910390a250565b60086020528060005260406000206000915054906101000a900460ff1681565b60048181548110611a9f57fe5b906000526020600020016000915054906101000a900473ffffffffffffffffffffffffffffffffffffffff1681565b6009602052816000526040600020602052806000526040600020600091509150505481565b600b60149054906101000a900460ff16611b75576040517f08c379a000000000000000000000000000000000000000000000000000000000815260040180806020018281038252601d8152602001807f436f6e7472616374206d75737420626520696e697469616c697a65642e00000081525060200191505060405180910390fd5b611b7d61442a565b73ffffffffffffffffffffffffffffffffffffffff166000809054906101000a900473ffffffffffffffffffffffffffffffffffffffff1673ffffffffffffffffffffffffffffffffffffffff1614611c3e576040517f08c379a00000000000000000000000000000000000000000000000000000000081526004018080602001828103825260208152602001807f4f776e61626c653a2063616c6c6572206973206e6f7420746865206f776e657281525060200191505060405180910390fd5b600660008273ffffffffffffffffffffffffffffffffffffffff1673ffffffffffffffffffffffffffffffffffffffff16815260200190815260200160002060009054906101000a900460ff1615611cfe576040517f08c379a00000000000000000000000000000000000000000000000000000000081526004018080602001828103825260168152602001807f466163746f727920616c7265616479206578697374730000000000000000000081525060200191505060405180910390fd5b6001600660008373ffffffffffffffffffffffffffffffffffffffff1673ffffffffffffffffffffffffffffffffffffffff16815260200190815260200160002060006101000a81548160ff0219169083151502179055506002819080600181540180825580915050600190039060005260206000200160009091909190916101000a81548173ffffffffffffffffffffffffffffffffffffffff021916908373ffffffffffffffffffffffffffffffffffffffff1602179055508073ffffffffffffffffffffffffffffffffffffffff167f6fdc0147105e43e21da80a75b42d0fd464060d5e1a34b0cefbf0b4ccfc2e36a160405160405180910390a250565b60606001805480602002602001604051908101604052809291908181526020018280548015611e8357602002820191906000526020600020905b8160009054906101000a900473ffffffffffffffffffffffffffffffffffffffff1673ffffffffffffffffffffffffffffffffffffffff1681526020019060010190808311611e39575b5050505050905090565b600b60149054906101000a900460ff1681565b60076020528060005260406000206000915054906101000a900460ff1681565b600b60009054906101000a900473ffffffffffffffffffffffffffffffffffffffff1681565b600b60149054906101000a900460ff16611f68576040517f08c379a000000000000000000000000000000000000000000000000000000000815260040180806020018281038252601d8152602001807f436f6e7472616374206d75737420626520696e697469616c697a65642e00000081525060200191505060405180910390fd5b611f7061442a565b73ffffffffffffffffffffffffffffffffffffffff166000809054906101000a900473ffffffffffffffffffffffffffffffffffffffff1673ffffffffffffffffffffffffffffffffffffffff1614612031576040517f08c379a00000000000000000000000000000000000000000000000000000000081526004018080602001828103825260208152602001807f4f776e61626c653a2063616c6c6572206973206e6f7420746865206f776e657281525060200191505060405180910390fd5b600660008273ffffffffffffffffffffffffffffffffffffffff1673ffffffffffffffffffffffffffffffffffffffff16815260200190815260200160002060009054906101000a900460ff166120f0576040517f08c379a00000000000000000000000000000000000000000000000000000000081526004018080602001828103825260168152602001807f466163746f727920646f6573206e6f742065786973740000000000000000000081525060200191505060405180910390fd5b61218981600280548060200260200160405190810160405280929190818152602001828054801561217657602002820191906000526020600020905b8160009054906101000a900473ffffffffffffffffffffffffffffffffffffffff1673ffffffffffffffffffffffffffffffffffffffff168152602001906001019080831161212c575b505050505061443290919063ffffffff16565b6002908051906020019061219e92919061475e565b506000600660008373ffffffffffffffffffffffffffffffffffffffff1673ffffffffffffffffffffffffffffffffffffffff16815260200190815260200160002060006101000a81548160ff0219169083151502179055508073ffffffffffffffffffffffffffffffffffffffff167fafa2737b2090fa39c66b7348625f0c03726240f724defbc6216d679506f9444160405160405180910390a250565b6001818154811061224a57fe5b906000526020600020016000915054906101000a900473ffffffffffffffffffffffffffffffffffffffff1681565b6002818154811061228657fe5b906000526020600020016000915054906101000a900473ffffffffffffffffffffffffffffffffffffffff1681565b6122bd61442a565b73ffffffffffffffffffffffffffffffffffffffff166000809054906101000a900473ffffffffffffffffffffffffffffffffffffffff1673ffffffffffffffffffffffffffffffffffffffff161461237e576040517f08c379a00000000000000000000000000000000000000000000000000000000081526004018080602001828103825260208152602001807f4f776e61626c653a2063616c6c6572206973206e6f7420746865206f776e657281525060200191505060405180910390fd5b600073ffffffffffffffffffffffffffffffffffffffff166000809054906101000a900473ffffffffffffffffffffffffffffffffffffffff1673ffffffffffffffffffffffffffffffffffffffff167f8be0079c531659141344cd1fd0a4f28419497f9722a3daafe3b4186f6b6457e060405160405180910390a360008060006101000a81548173ffffffffffffffffffffffffffffffffffffffff021916908373ffffffffffffffffffffffffffffffffffffffff160217905550565b60056020528060005260406000206000915054906101000a900460ff1681565b600b60149054906101000a900460ff166124df576040517f08c379a000000000000000000000000000000000000000000000000000000000815260040180806020018281038252601d8152602001807f436f6e7472616374206d75737420626520696e697469616c697a65642e00000081525060200191505060405180910390fd5b6124e761442a565b73ffffffffffffffffffffffffffffffffffffffff166000809054906101000a900473ffffffffffffffffffffffffffffffffffffffff1673ffffffffffffffffffffffffffffffffffffffff16146125a8576040517f08c379a00000000000000000000000000000000000000000000000000000000081526004018080602001828103825260208152602001807f4f776e61626c653a2063616c6c6572206973206e6f7420746865206f776e657281525060200191505060405180910390fd5b600760008473ffffffffffffffffffffffffffffffffffffffff1673ffffffffffffffffffffffffffffffffffffffff16815260200190815260200160002060009054906101000a900460ff16612667576040517f08c379a00000000000000000000000000000000000000000000000000000000081526004018080602001828103825260158152602001807f4d6f64756c6520646f6573206e6f74206578697374000000000000000000000081525060200191505060405180910390fd5b6000600960008573ffffffffffffffffffffffffffffffffffffffff1673ffffffffffffffffffffffffffffffffffffffff1681526020019081526020016000206000848152602001908152602001600020541415612711576040517f08c379a00000000000000000000000000000000000000000000000000000000081526004018080602001828103825260218152602001806148526021913960400191505060405180910390fd5b80600960008573ffffffffffffffffffffffffffffffffffffffff1673ffffffffffffffffffffffffffffffffffffffff168152602001908152602001600020600084815260200190815260200160002081905550818373ffffffffffffffffffffffffffffffffffffffff167f84d9943a841552627b79770783a3cfd4da8303efc30bd75b65d863bd909926e3836040518082815260200191505060405180910390a3505050565b6000600960008473ffffffffffffffffffffffffffffffffffffffff1673ffffffffffffffffffffffffffffffffffffffff168152602001908152602001600020600083815260200190815260200160002054905092915050565b6060600280548060200260200160405190810160405280929190818152602001828054801561289957602002820191906000526020600020905b8160009054906101000a900473ffffffffffffffffffffffffffffffffffffffff1673ffffffffffffffffffffffffffffffffffffffff168152602001906001019080831161284f575b5050505050905090565b600381815481106128b057fe5b906000526020600020016000915054906101000a900473ffffffffffffffffffffffffffffffffffffffff1681565b60008060009054906101000a900473ffffffffffffffffffffffffffffffffffffffff16905090565b600b60149054906101000a900460ff1661298a576040517f08c379a000000000000000000000000000000000000000000000000000000000815260040180806020018281038252601d8152602001807f436f6e7472616374206d75737420626520696e697469616c697a65642e00000081525060200191505060405180910390fd5b61299261442a565b73ffffffffffffffffffffffffffffffffffffffff166000809054906101000a900473ffffffffffffffffffffffffffffffffffffffff1673ffffffffffffffffffffffffffffffffffffffff1614612a53576040517f08c379a00000000000000000000000000000000000000000000000000000000081526004018080602001828103825260208152602001807f4f776e61626c653a2063616c6c6572206973206e6f7420746865206f776e657281525060200191505060405180910390fd5b600760008273ffffffffffffffffffffffffffffffffffffffff1673ffffffffffffffffffffffffffffffffffffffff16815260200190815260200160002060009054906101000a900460ff16612b12576040517f08c379a00000000000000000000000000000000000000000000000000000000081526004018080602001828103825260158152602001807f4d6f64756c6520646f6573206e6f74206578697374000000000000000000000081525060200191505060405180910390fd5b612bab816003805480602002602001604051908101604052809291908181526020018280548015612b9857602002820191906000526020600020905b8160009054906101000a900473ffffffffffffffffffffffffffffffffffffffff1673ffffffffffffffffffffffffffffffffffffffff1681526020019060010190808311612b4e575b505050505061443290919063ffffffff16565b60039080519060200190612bc092919061475e565b506000600760008373ffffffffffffffffffffffffffffffffffffffff1673ffffffffffffffffffffffffffffffffffffffff16815260200190815260200160002060006101000a81548160ff0219169083151502179055508073ffffffffffffffffffffffffffffffffffffffff167f0a1ee69f55c33d8467c69ca59ce2007a737a88603d75392972520bf67cb513b860405160405180910390a250565b612c6761442a565b73ffffffffffffffffffffffffffffffffffffffff166000809054906101000a900473ffffffffffffffffffffffffffffffffffffffff1673ffffffffffffffffffffffffffffffffffffffff1614612d28576040517f08c379a00000000000000000000000000000000000000000000000000000000081526004018080602001828103825260208152602001807f4f776e61626c653a2063616c6c6572206973206e6f7420746865206f776e657281525060200191505060405180910390fd5b600b60149054906101000a900460ff1615612d8e576040517f08c379a00000000000000000000000000000000000000000000000000000000081526004018080602001828103825260218152602001806148946021913960400191505060405180910390fd5b8051825114612e05576040517f08c379a000000000000000000000000000000000000000000000000000000000815260040180806020018281038252601b8152602001807f4172726179206c656e6774687320646f206e6f74206d617463682e000000000081525060200191505060405180910390fd5b8360029080519060200190612e1b92919061475e565b508260039080519060200190612e3292919061475e565b508160049080519060200190612e4992919061475e565b5060008090505b8451811015612f8757600073ffffffffffffffffffffffffffffffffffffffff16858281518110612e7d57fe5b602002602001015173ffffffffffffffffffffffffffffffffffffffff161415612f0f576040517f08c379a00000000000000000000000000000000000000000000000000000000081526004018080602001828103825260178152602001807f5a65726f2061646472657373207375626d69747465642e00000000000000000081525060200191505060405180910390fd5b600160066000878481518110612f2157fe5b602002602001015173ffffffffffffffffffffffffffffffffffffffff1673ffffffffffffffffffffffffffffffffffffffff16815260200190815260200160002060006101000a81548160ff0219169083151502179055508080600101915050612e50565b5060008090505b83518110156130c557600073ffffffffffffffffffffffffffffffffffffffff16848281518110612fbb57fe5b602002602001015173ffffffffffffffffffffffffffffffffffffffff16141561304d576040517f08c379a00000000000000000000000000000000000000000000000000000000081526004018080602001828103825260178152602001807f5a65726f2061646472657373207375626d69747465642e00000000000000000081525060200191505060405180910390fd5b60016007600086848151811061305f57fe5b602002602001015173ffffffffffffffffffffffffffffffffffffffff1673ffffffffffffffffffffffffffffffffffffffff16815260200190815260200160002060006101000a81548160ff0219169083151502179055508080600101915050612f8e565b5060008090505b825181101561336357600073ffffffffffffffffffffffffffffffffffffffff168382815181106130f957fe5b602002602001015173ffffffffffffffffffffffffffffffffffffffff16141561318b576040517f08c379a00000000000000000000000000000000000000000000000000000000081526004018080602001828103825260178152602001807f5a65726f2061646472657373207375626d69747465642e00000000000000000081525060200191505060405180910390fd5b600073ffffffffffffffffffffffffffffffffffffffff16600a60008484815181106131b357fe5b6020026020010151815260200190815260200160002060009054906101000a900473ffffffffffffffffffffffffffffffffffffffff1673ffffffffffffffffffffffffffffffffffffffff1614613273576040517f08c379a000000000000000000000000000000000000000000000000000000000815260040180806020018281038252601a8152602001807f5265736f7572636520494420616c72656164792065786973747300000000000081525060200191505060405180910390fd5b60016008600085848151811061328557fe5b602002602001015173ffffffffffffffffffffffffffffffffffffffff1673ffffffffffffffffffffffffffffffffffffffff16815260200190815260200160002060006101000a81548160ff0219169083151502179055508281815181106132ea57fe5b6020026020010151600a600084848151811061330257fe5b6020026020010151815260200190815260200160002060006101000a81548173ffffffffffffffffffffffffffffffffffffffff021916908373ffffffffffffffffffffffffffffffffffffffff16021790555080806001019150506130cc565b506001600b60146101000a81548160ff02191690831515021790555050505050565b6060600380548060200260200160405190810160405280929190818152602001828054801561340957602002820191906000526020600020905b8160009054906101000a900473ffffffffffffffffffffffffffffffffffffffff1673ffffffffffffffffffffffffffffffffffffffff16815260200190600101908083116133bf575b5050505050905090565b6060600480548060200260200160405190810160405280929190818152602001828054801561349757602002820191906000526020600020905b8160009054906101000a900473ffffffffffffffffffffffffffffffffffffffff1673ffffffffffffffffffffffffffffffffffffffff168152602001906001019080831161344d575b5050505050905090565b600b60149054906101000a900460ff16613523576040517f08c379a000000000000000000000000000000000000000000000000000000000815260040180806020018281038252601d8152602001807f436f6e7472616374206d75737420626520696e697469616c697a65642e00000081525060200191505060405180910390fd5b61352b61442a565b73ffffffffffffffffffffffffffffffffffffffff166000809054906101000a900473ffffffffffffffffffffffffffffffffffffffff1673ffffffffffffffffffffffffffffffffffffffff16146135ec576040517f08c379a00000000000000000000000000000000000000000000000000000000081526004018080602001828103825260208152602001807f4f776e61626c653a2063616c6c6572206973206e6f7420746865206f776e657281525060200191505060405180910390fd5b600073ffffffffffffffffffffffffffffffffffffffff168173ffffffffffffffffffffffffffffffffffffffff16141561368f576040517f08c379a00000000000000000000000000000000000000000000000000000000081526004018080602001828103825260158152602001807f41646472657373206d757374206e6f742062652030000000000000000000000081525060200191505060405180910390fd5b80600b60006101000a81548173ffffffffffffffffffffffffffffffffffffffff021916908373ffffffffffffffffffffffffffffffffffffffff1602179055507f167cccccc6e9b2892a740ec13fc1e51d3de8ea384f25bd87fee7412d588637e281604051808273ffffffffffffffffffffffffffffffffffffffff1673ffffffffffffffffffffffffffffffffffffffff16815260200191505060405180910390a150565b600b60149054906101000a900460ff166137b8576040517f08c379a000000000000000000000000000000000000000000000000000000000815260040180806020018281038252601d8152602001807f436f6e7472616374206d75737420626520696e697469616c697a65642e00000081525060200191505060405180910390fd5b600660003373ffffffffffffffffffffffffffffffffffffffff1673ffffffffffffffffffffffffffffffffffffffff16815260200190815260200160002060009054906101000a900460ff16613877576040517f08c379a000000000000000000000000000000000000000000000000000000000815260040180806020018281038252601d8152602001807f4f6e6c792076616c696420666163746f726965732063616e2063616c6c00000081525060200191505060405180910390fd5b600560008273ffffffffffffffffffffffffffffffffffffffff1673ffffffffffffffffffffffffffffffffffffffff16815260200190815260200160002060009054906101000a900460ff1615613937576040517f08c379a00000000000000000000000000000000000000000000000000000000081526004018080602001828103825260128152602001807f53657420616c726561647920657869737473000000000000000000000000000081525060200191505060405180910390fd5b6001600560008373ffffffffffffffffffffffffffffffffffffffff1673ffffffffffffffffffffffffffffffffffffffff16815260200190815260200160002060006101000a81548160ff0219169083151502179055506001819080600181540180825580915050600190039060005260206000200160009091909190916101000a81548173ffffffffffffffffffffffffffffffffffffffff021916908373ffffffffffffffffffffffffffffffffffffffff1602179055503373ffffffffffffffffffffffffffffffffffffffff168173ffffffffffffffffffffffffffffffffffffffff167fdb18a8959c84999e8bddb4624081f905f78eb9d63ec80b48d3daf2d38ae660a260405160405180910390a350565b600b60149054906101000a900460ff16613ad1576040517f08c379a000000000000000000000000000000000000000000000000000000000815260040180806020018281038252601d8152602001807f436f6e7472616374206d75737420626520696e697469616c697a65642e00000081525060200191505060405180910390fd5b613ad961442a565b73ffffffffffffffffffffffffffffffffffffffff166000809054906101000a900473ffffffffffffffffffffffffffffffffffffffff1673ffffffffffffffffffffffffffffffffffffffff1614613b9a576040517f08c379a00000000000000000000000000000000000000000000000000000000081526004018080602001828103825260208152602001807f4f776e61626c653a2063616c6c6572206973206e6f7420746865206f776e657281525060200191505060405180910390fd5b600860008373ffffffffffffffffffffffffffffffffffffffff1673ffffffffffffffffffffffffffffffffffffffff16815260200190815260200160002060009054906101000a900460ff1615613c5a576040517f08c379a00000000000000000000000000000000000000000000000000000000081526004018080602001828103825260178152602001807f5265736f7572636520616c72656164792065786973747300000000000000000081525060200191505060405180910390fd5b600073ffffffffffffffffffffffffffffffffffffffff16600a600083815260200190815260200160002060009054906101000a900473ffffffffffffffffffffffffffffffffffffffff1673ffffffffffffffffffffffffffffffffffffffff1614613d2f576040517f08c379a000000000000000000000000000000000000000000000000000000000815260040180806020018281038252601a8152602001807f5265736f7572636520494420616c72656164792065786973747300000000000081525060200191505060405180910390fd5b6001600860008473ffffffffffffffffffffffffffffffffffffffff1673ffffffffffffffffffffffffffffffffffffffff16815260200190815260200160002060006101000a81548160ff02191690831515021790555081600a600083815260200190815260200160002060006101000a81548173ffffffffffffffffffffffffffffffffffffffff021916908373ffffffffffffffffffffffffffffffffffffffff1602179055506004829080600181540180825580915050600190039060005260206000200160009091909190916101000a81548173ffffffffffffffffffffffffffffffffffffffff021916908373ffffffffffffffffffffffffffffffffffffffff1602179055508173ffffffffffffffffffffffffffffffffffffffff167f5674036e091d8b4ee7f8e06cc71d41ee33f3fc331821fc0e017c1a091e8c861e826040518082815260200191505060405180910390a25050565b600a6020528060005260406000206000915054906101000a900473ffffffffffffffffffffffffffffffffffffffff1681565b613ec961442a565b73ffffffffffffffffffffffffffffffffffffffff166000809054906101000a900473ffffffffffffffffffffffffffffffffffffffff1673ffffffffffffffffffffffffffffffffffffffff1614613f8a576040517f08c379a00000000000000000000000000000000000000000000000000000000081526004018080602001828103825260208152602001807f4f776e61626c653a2063616c6c6572206973206e6f7420746865206f776e657281525060200191505060405180910390fd5b600073ffffffffffffffffffffffffffffffffffffffff168173ffffffffffffffffffffffffffffffffffffffff161415614010576040517f08c379a000000000000000000000000000000000000000000000000000000000815260040180806020018281038252602681526020018061482c6026913960400191505060405180910390fd5b8073ffffffffffffffffffffffffffffffffffffffff166000809054906101000a900473ffffffffffffffffffffffffffffffffffffffff1673ffffffffffffffffffffffffffffffffffffffff167f8be0079c531659141344cd1fd0a4f28419497f9722a3daafe3b4186f6b6457e060405160405180910390a3806000806101000a81548173ffffffffffffffffffffffffffffffffffffffff021916908373ffffffffffffffffffffffffffffffffffffffff16021790555050565b600b60149054906101000a900460ff16614150576040517f08c379a000000000000000000000000000000000000000000000000000000000815260040180806020018281038252601d8152602001807f436f6e7472616374206d75737420626520696e697469616c697a65642e00000081525060200191505060405180910390fd5b61415861442a565b73ffffffffffffffffffffffffffffffffffffffff166000809054906101000a900473ffffffffffffffffffffffffffffffffffffffff1673ffffffffffffffffffffffffffffffffffffffff1614614219576040517f08c379a00000000000000000000000000000000000000000000000000000000081526004018080602001828103825260208152602001807f4f776e61626c653a2063616c6c6572206973206e6f7420746865206f776e657281525060200191505060405180910390fd5b600760008473ffffffffffffffffffffffffffffffffffffffff1673ffffffffffffffffffffffffffffffffffffffff16815260200190815260200160002060009054906101000a900460ff166142d8576040517f08c379a00000000000000000000000000000000000000000000000000000000081526004018080602001828103825260158152602001807f4d6f64756c6520646f6573206e6f74206578697374000000000000000000000081525060200191505060405180910390fd5b6000600960008573ffffffffffffffffffffffffffffffffffffffff1673ffffffffffffffffffffffffffffffffffffffff16815260200190815260200160002060008481526020019081526020016000205414614381576040517f08c379a00000000000000000000000000000000000000000000000000000000081526004018080602001828103825260218152602001806148736021913960400191505060405180910390fd5b80600960008573ffffffffffffffffffffffffffffffffffffffff1673ffffffffffffffffffffffffffffffffffffffff168152602001908152602001600020600084815260200190815260200160002081905550818373ffffffffffffffffffffffffffffffffffffffff167f84d9943a841552627b79770783a3cfd4da8303efc30bd75b65d863bd909926e3836040518082815260200191505060405180910390a3505050565b600033905090565b606060008061444185856144d3565b91509150806144b8576040517f08c379a00000000000000000000000000000000000000000000000000000000081526004018080602001828103825260158152602001807f41646472657373206e6f7420696e2061727261792e000000000000000000000081525060200191505060405180910390fd5b60606144c4868461457d565b50905080935050505092915050565b60008060008451905060008090505b8181101561454c578473ffffffffffffffffffffffffffffffffffffffff1686828151811061450d57fe5b602002602001015173ffffffffffffffffffffffffffffffffffffffff16141561453f57806001935093505050614576565b80806001019150506144e2565b507fffffffffffffffffffffffffffffffffffffffffffffffffffffffffffffffff600092509250505b9250929050565b606060008084519050845184106145fc576040517f08c379a00000000000000000000000000000000000000000000000000000000081526004018080602001828103825260188152602001807f496e646578206d757374206265203c2041206c656e677468000000000000000081525060200191505060405180910390fd5b60606001820367ffffffffffffffff8111801561461857600080fd5b506040519080825280602002602001820160405280156146475781602001602082028036833780820191505090505b50905060008090505b858110156146bf5786818151811061466457fe5b602002602001015182828151811061467857fe5b602002602001019073ffffffffffffffffffffffffffffffffffffffff16908173ffffffffffffffffffffffffffffffffffffffff16815250508080600101915050614650565b5060006001860190505b8281101561473b578681815181106146dd57fe5b60200260200101518260018303815181106146f457fe5b602002602001019073ffffffffffffffffffffffffffffffffffffffff16908173ffffffffffffffffffffffffffffffffffffffff168152505080806001019150506146c9565b508086868151811061474957fe5b60200260200101519350935050509250929050565b8280548282559060005260206000209081019282156147d7579160200282015b828111156147d65782518260006101000a81548173ffffffffffffffffffffffffffffffffffffffff021916908373ffffffffffffffffffffffffffffffffffffffff1602179055509160200191906001019061477e565b5b5090506147e491906147e8565b5090565b61482891905b8082111561482457600081816101000a81549073ffffffffffffffffffffffffffffffffffffffff0219169055506001016147ee565b5090565b9056fe4f776e61626c653a206e6577206f776e657220697320746865207a65726f2061646472657373466565207479706520646f6573206e6f74206578697374206f6e206d6f64756c65466565207479706520616c726561647920657869737473206f6e206d6f64756c65436f6e74726f6c6c657220697320616c726561647920696e697469616c697a6564a264697066735822122099c923e6abd8933e332bd77dbdcb37e2c048bd8172bfe2d904386d1c658a593464736f6c634300060a0033",
  "immutableReferences": {},
  "source": "/*\n    Copyright 2020 Set Labs Inc.\n\n    Licensed under the Apache License, Version 2.0 (the \"License\");\n    you may not use this file except in compliance with the License.\n    You may obtain a copy of the License at\n\n    http://www.apache.org/licenses/LICENSE-2.0\n\n    Unless required by applicable law or agreed to in writing, software\n    distributed under the License is distributed on an \"AS IS\" BASIS,\n    WITHOUT WARRANTIES OR CONDITIONS OF ANY KIND, either express or implied.\n    See the License for the specific language governing permissions and\n    limitations under the License.\n\n    SPDX-License-Identifier: Apache License, Version 2.0\n*/\n\npragma solidity 0.6.10;\n\nimport { IERC20 } from \"@openzeppelin/contracts/token/ERC20/IERC20.sol\";\nimport { Ownable } from \"@openzeppelin/contracts/access/Ownable.sol\";\nimport { AddressArrayUtils } from \"../lib/AddressArrayUtils.sol\";\n\n\n/**\n * @title Controller\n * @author Set Protocol\n *\n * Contract that houses state for approvals and system contracts such as added Sets,\n * modules, factories, resources (like price oracles), and protocol fee configurations.\n */\ncontract Controller is Ownable {\n    using AddressArrayUtils for address[];\n\n    /* ============ Events ============ */\n\n    event FactoryAdded(address indexed _factory);\n    event FactoryRemoved(address indexed _factory);\n    event FeeEdited(address indexed _module, uint256 indexed _feeType, uint256 _feePercentage);\n    event FeeRecipientChanged(address _newFeeRecipient);\n    event ModuleAdded(address indexed _module);\n    event ModuleRemoved(address indexed _module);\n    event ResourceAdded(address indexed _resource, uint256 _id);\n    event ResourceRemoved(address indexed _resource, uint256 _id);\n    event SetAdded(address indexed _setToken, address indexed _factory);\n    event SetRemoved(address indexed _setToken);\n\n    /* ============ Modifiers ============ */\n\n    /**\n     * Throws if function is called by any address other than a valid factory.\n     */\n    modifier onlyFactory() {\n        require(isFactory[msg.sender], \"Only valid factories can call\");\n        _;\n    }\n\n    modifier onlyInitialized() {\n        require(isInitialized, \"Contract must be initialized.\");\n        _;\n    }\n\n    /* ============ State Variables ============ */\n\n    // List of enabled Sets\n    address[] public sets;\n    // List of enabled factories of SetTokens\n    address[] public factories;\n    // List of enabled Modules; Modules extend the functionality of SetTokens\n    address[] public modules;\n    // List of enabled Resources; Resources provide data, functionality, or\n    // permissions that can be drawn upon from Module, SetTokens or factories\n    address[] public resources;\n\n    // Mappings to check whether address is valid Set, Factory, Module or Resource\n    mapping(address => bool) public isSet;\n    mapping(address => bool) public isFactory;\n    mapping(address => bool) public isModule;\n    mapping(address => bool) public isResource;\n\n    // Mapping of modules to fee types to fee percentage. A module can have multiple feeTypes\n    // Fee is denominated in precise unit percentages (100% = 1e18, 1% = 1e16)\n    mapping(address => mapping(uint256 => uint256)) public fees;\n\n    // Mapping of resource ID to resource address, which allows contracts to fetch the correct\n    // resource while providing an ID\n    mapping(uint256 => address) public resourceId;\n\n    // Recipient of protocol fees\n    address public feeRecipient;\n\n    // Return true if the controller is initialized\n    bool public isInitialized;\n\n    /* ============ Constructor ============ */\n\n    /**\n     * Initializes the initial fee recipient on deployment.\n     *\n     * @param _feeRecipient          Address of the initial protocol fee recipient\n     */\n    constructor(address _feeRecipient) public {\n        feeRecipient = _feeRecipient;\n    }\n\n    /* ============ External Functions ============ */\n\n    /**\n     * Initializes any predeployed factories, modules, and resources post deployment. Note: This function can\n     * only be called by the owner once to batch initialize the initial system contracts.\n     *\n     * @param _factories             List of factories to add\n     * @param _modules               List of modules to add\n     * @param _resources             List of resources to add\n     * @param _resourceIds           List of resource IDs associated with the resources\n     */\n    function initialize(\n        address[] memory _factories,\n        address[] memory _modules,\n        address[] memory _resources,\n        uint256[] memory _resourceIds\n    )\n        external\n        onlyOwner\n    {\n        require(!isInitialized, \"Controller is already initialized\");\n        require(_resources.length == _resourceIds.length, \"Array lengths do not match.\");\n\n        factories = _factories;\n        modules = _modules;\n        resources = _resources;\n\n        // Loop through and initialize isModule, isFactory, and isResource mapping\n        for (uint256 i = 0; i < _factories.length; i++) {\n            require(_factories[i] != address(0), \"Zero address submitted.\");\n            isFactory[_factories[i]] = true;\n        }\n        for (uint256 i = 0; i < _modules.length; i++) {\n            require(_modules[i] != address(0), \"Zero address submitted.\");\n            isModule[_modules[i]] = true;\n        }\n\n        for (uint256 i = 0; i < _resources.length; i++) {\n            require(_resources[i] != address(0), \"Zero address submitted.\");\n            require(resourceId[_resourceIds[i]] == address(0), \"Resource ID already exists\");\n            isResource[_resources[i]] = true;\n            resourceId[_resourceIds[i]] = _resources[i];\n        }\n\n        // Set to true to only allow initialization once\n        isInitialized = true;\n    }\n\n    /**\n     * PRIVILEGED FACTORY FUNCTION. Adds a newly deployed SetToken as an enabled SetToken.\n     *\n     * @param _setToken               Address of the SetToken contract to add\n     */\n    function addSet(address _setToken) external onlyInitialized onlyFactory {\n        require(!isSet[_setToken], \"Set already exists\");\n\n        isSet[_setToken] = true;\n\n        sets.push(_setToken);\n\n        emit SetAdded(_setToken, msg.sender);\n    }\n\n    /**\n     * PRIVILEGED GOVERNANCE FUNCTION. Allows governance to remove a Set\n     *\n     * @param _setToken               Address of the SetToken contract to remove\n     */\n    function removeSet(address _setToken) external onlyInitialized onlyOwner {\n        require(isSet[_setToken], \"Set does not exist\");\n\n        sets = sets.remove(_setToken);\n\n        isSet[_setToken] = false;\n\n        emit SetRemoved(_setToken);\n    }\n\n    /**\n     * PRIVILEGED GOVERNANCE FUNCTION. Allows governance to add a factory\n     *\n     * @param _factory               Address of the factory contract to add\n     */\n    function addFactory(address _factory) external onlyInitialized onlyOwner {\n        require(!isFactory[_factory], \"Factory already exists\");\n\n        isFactory[_factory] = true;\n\n        factories.push(_factory);\n\n        emit FactoryAdded(_factory);\n    }\n\n    /**\n     * PRIVILEGED GOVERNANCE FUNCTION. Allows governance to remove a factory\n     *\n     * @param _factory               Address of the factory contract to remove\n     */\n    function removeFactory(address _factory) external onlyInitialized onlyOwner {\n        require(isFactory[_factory], \"Factory does not exist\");\n\n        factories = factories.remove(_factory);\n\n        isFactory[_factory] = false;\n\n        emit FactoryRemoved(_factory);\n    }\n\n    /**\n     * PRIVILEGED GOVERNANCE FUNCTION. Allows governance to add a module\n     *\n     * @param _module               Address of the module contract to add\n     */\n    function addModule(address _module) external onlyInitialized onlyOwner {\n        require(!isModule[_module], \"Module already exists\");\n\n        isModule[_module] = true;\n\n        modules.push(_module);\n\n        emit ModuleAdded(_module);\n    }\n\n    /**\n     * PRIVILEGED GOVERNANCE FUNCTION. Allows governance to remove a module\n     *\n     * @param _module               Address of the module contract to remove\n     */\n    function removeModule(address _module) external onlyInitialized onlyOwner {\n        require(isModule[_module], \"Module does not exist\");\n\n        modules = modules.remove(_module);\n\n        isModule[_module] = false;\n\n        emit ModuleRemoved(_module);\n    }\n\n    /**\n     * PRIVILEGED GOVERNANCE FUNCTION. Allows governance to add a resource\n     *\n     * @param _resource               Address of the resource contract to add\n     * @param _id                     New ID of the resource contract\n     */\n    function addResource(address _resource, uint256 _id) external onlyInitialized onlyOwner {\n        require(!isResource[_resource], \"Resource already exists\");\n\n        require(resourceId[_id] == address(0), \"Resource ID already exists\");\n\n        isResource[_resource] = true;\n\n        resourceId[_id] = _resource;\n\n        resources.push(_resource);\n\n        emit ResourceAdded(_resource, _id);\n    }\n\n    /**\n     * PRIVILEGED GOVERNANCE FUNCTION. Allows governance to remove a resource\n     *\n     * @param _id               ID of the resource contract to remove\n     */\n    function removeResource(uint256 _id) external onlyInitialized onlyOwner {\n        address resourceToRemove = resourceId[_id];\n\n        require(resourceToRemove != address(0), \"Resource does not exist\");\n\n        resources = resources.remove(resourceToRemove);\n\n        delete resourceId[_id];\n\n        isResource[resourceToRemove] = false;\n\n        emit ResourceRemoved(resourceToRemove, _id);\n    }\n\n    /**\n     * PRIVILEGED GOVERNANCE FUNCTION. Allows governance to add a fee to a module\n     *\n     * @param _module               Address of the module contract to add fee to\n     * @param _feeType              Type of the fee to add in the module\n     * @param _newFeePercentage     Percentage of fee to add in the module (denominated in preciseUnits eg 1% = 1e16)\n     */\n    function addFee(address _module, uint256 _feeType, uint256 _newFeePercentage) external onlyInitialized onlyOwner {\n        require(isModule[_module], \"Module does not exist\");\n\n        require(fees[_module][_feeType] == 0, \"Fee type already exists on module\");\n\n        fees[_module][_feeType] = _newFeePercentage;\n\n        emit FeeEdited(_module, _feeType, _newFeePercentage);\n    }\n\n    /**\n     * PRIVILEGED GOVERNANCE FUNCTION. Allows governance to edit a fee in an existing module\n     *\n     * @param _module               Address of the module contract to edit fee\n     * @param _feeType              Type of the fee to edit in the module\n     * @param _newFeePercentage     Percentage of fee to edit in the module (denominated in preciseUnits eg 1% = 1e16)\n     */\n    function editFee(address _module, uint256 _feeType, uint256 _newFeePercentage) external onlyInitialized onlyOwner {\n        require(isModule[_module], \"Module does not exist\");\n\n        require(fees[_module][_feeType] != 0, \"Fee type does not exist on module\");\n\n        fees[_module][_feeType] = _newFeePercentage;\n\n        emit FeeEdited(_module, _feeType, _newFeePercentage);\n    }\n\n    /**\n     * PRIVILEGED GOVERNANCE FUNCTION. Allows governance to edit the protocol fee recipient\n     *\n     * @param _newFeeRecipient      Address of the new protocol fee recipient\n     */\n    function editFeeRecipient(address _newFeeRecipient) external onlyInitialized onlyOwner {\n        require(_newFeeRecipient != address(0), \"Address must not be 0\");\n\n        feeRecipient = _newFeeRecipient;\n\n        emit FeeRecipientChanged(_newFeeRecipient);\n    }\n\n    /* ============ External Getter Functions ============ */\n\n    function getModuleFee(\n        address _moduleAddress,\n        uint256 _feeType\n    )\n        external\n        view\n        returns (uint256)\n    {\n        return fees[_moduleAddress][_feeType];\n    }\n\n    function getFactories() external view returns (address[] memory) {\n        return factories;\n    }\n\n    function getModules() external view returns (address[] memory) {\n        return modules;\n    }\n\n    function getResources() external view returns (address[] memory) {\n        return resources;\n    }\n\n    function getSets() external view returns (address[] memory) {\n        return sets;\n    }\n\n    /**\n     * Check if a contract address is a module, Set, resource, factory or controller\n     *\n     * @param  _contractAddress           The contract address to check\n     */\n    function isSystemContract(address _contractAddress) external view returns (bool) {\n        return (\n            isSet[_contractAddress] ||\n            isModule[_contractAddress] ||\n            isResource[_contractAddress] ||\n            isFactory[_contractAddress] ||\n            _contractAddress == address(this)\n        );\n    }\n}\n",
  "sourcePath": "/Users/tahadhailey/Documents/top5/top5swap/swap/contracts/protocol/Controller.sol",
  "compiler": {
    "name": "solc",
    "version": "0.6.10+commit.00c0fcaf.Emscripten.clang"
  },
  "schemaVersion": "3.2.1",
  "updatedAt": "2021-01-21T08:20:37.647Z",
  "devdoc": {
    "author": "Set Protocol Contract that houses state for approvals and system contracts such as added Sets, modules, factories, resources (like price oracles), and protocol fee configurations.",
    "methods": {
      "addFactory(address)": {
        "params": {
          "_factory": "Address of the factory contract to add"
        }
      },
      "addFee(address,uint256,uint256)": {
        "params": {
          "_feeType": "Type of the fee to add in the module",
          "_module": "Address of the module contract to add fee to",
          "_newFeePercentage": "Percentage of fee to add in the module (denominated in preciseUnits eg 1% = 1e16)"
        }
      },
      "addModule(address)": {
        "params": {
          "_module": "Address of the module contract to add"
        }
      },
      "addResource(address,uint256)": {
        "params": {
          "_id": "New ID of the resource contract",
          "_resource": "Address of the resource contract to add"
        }
      },
      "addSet(address)": {
        "params": {
          "_setToken": "Address of the SetToken contract to add"
        }
      },
      "constructor": {
        "params": {
          "_feeRecipient": "Address of the initial protocol fee recipient"
        }
      },
      "editFee(address,uint256,uint256)": {
        "params": {
          "_feeType": "Type of the fee to edit in the module",
          "_module": "Address of the module contract to edit fee",
          "_newFeePercentage": "Percentage of fee to edit in the module (denominated in preciseUnits eg 1% = 1e16)"
        }
      },
      "editFeeRecipient(address)": {
        "params": {
          "_newFeeRecipient": "Address of the new protocol fee recipient"
        }
      },
      "initialize(address[],address[],address[],uint256[])": {
        "params": {
          "_factories": "List of factories to add",
          "_modules": "List of modules to add",
          "_resourceIds": "List of resource IDs associated with the resources",
          "_resources": "List of resources to add"
        }
      },
      "isSystemContract(address)": {
        "params": {
          "_contractAddress": "The contract address to check"
        }
      },
      "owner()": {
        "details": "Returns the address of the current owner."
      },
      "removeFactory(address)": {
        "params": {
          "_factory": "Address of the factory contract to remove"
        }
      },
      "removeModule(address)": {
        "params": {
          "_module": "Address of the module contract to remove"
        }
      },
      "removeResource(uint256)": {
        "params": {
          "_id": "ID of the resource contract to remove"
        }
      },
      "removeSet(address)": {
        "params": {
          "_setToken": "Address of the SetToken contract to remove"
        }
      },
      "renounceOwnership()": {
        "details": "Leaves the contract without owner. It will not be possible to call `onlyOwner` functions anymore. Can only be called by the current owner. NOTE: Renouncing ownership will leave the contract without an owner, thereby removing any functionality that is only available to the owner."
      },
      "transferOwnership(address)": {
        "details": "Transfers ownership of the contract to a new account (`newOwner`). Can only be called by the current owner."
      }
    },
    "title": "Controller"
  },
  "userdoc": {
    "methods": {
      "addFactory(address)": {
        "notice": "PRIVILEGED GOVERNANCE FUNCTION. Allows governance to add a factory"
      },
      "addFee(address,uint256,uint256)": {
        "notice": "PRIVILEGED GOVERNANCE FUNCTION. Allows governance to add a fee to a module"
      },
      "addModule(address)": {
        "notice": "PRIVILEGED GOVERNANCE FUNCTION. Allows governance to add a module"
      },
      "addResource(address,uint256)": {
        "notice": "PRIVILEGED GOVERNANCE FUNCTION. Allows governance to add a resource"
      },
      "addSet(address)": {
        "notice": "PRIVILEGED FACTORY FUNCTION. Adds a newly deployed SetToken as an enabled SetToken."
      },
      "constructor": "Initializes the initial fee recipient on deployment.",
      "editFee(address,uint256,uint256)": {
        "notice": "PRIVILEGED GOVERNANCE FUNCTION. Allows governance to edit a fee in an existing module"
      },
      "editFeeRecipient(address)": {
        "notice": "PRIVILEGED GOVERNANCE FUNCTION. Allows governance to edit the protocol fee recipient"
      },
      "initialize(address[],address[],address[],uint256[])": {
        "notice": "Initializes any predeployed factories, modules, and resources post deployment. Note: This function can only be called by the owner once to batch initialize the initial system contracts."
      },
      "isSystemContract(address)": {
        "notice": "Check if a contract address is a module, Set, resource, factory or controller"
      },
      "removeFactory(address)": {
        "notice": "PRIVILEGED GOVERNANCE FUNCTION. Allows governance to remove a factory"
      },
      "removeModule(address)": {
        "notice": "PRIVILEGED GOVERNANCE FUNCTION. Allows governance to remove a module"
      },
      "removeResource(uint256)": {
        "notice": "PRIVILEGED GOVERNANCE FUNCTION. Allows governance to remove a resource"
      },
      "removeSet(address)": {
        "notice": "PRIVILEGED GOVERNANCE FUNCTION. Allows governance to remove a Set"
      }
    }
  }
}