{
  "contractName": "CurveStakingAdapter",
  "abi": [
    {
      "inputs": [
        {
          "internalType": "contract IGaugeController",
          "name": "_gaugeController",
          "type": "address"
        }
      ],
      "stateMutability": "nonpayable",
      "type": "constructor"
    },
    {
      "inputs": [],
      "name": "gaugeController",
      "outputs": [
        {
          "internalType": "contract IGaugeController",
          "name": "",
          "type": "address"
        }
      ],
      "stateMutability": "view",
      "type": "function"
    },
    {
      "inputs": [
        {
          "internalType": "address",
          "name": "_stakingContract",
          "type": "address"
        },
        {
          "internalType": "uint256",
          "name": "_notionalAmount",
          "type": "uint256"
        }
      ],
      "name": "getStakeCallData",
      "outputs": [
        {
          "internalType": "address",
          "name": "",
          "type": "address"
        },
        {
          "internalType": "uint256",
          "name": "",
          "type": "uint256"
        },
        {
          "internalType": "bytes",
          "name": "",
          "type": "bytes"
        }
      ],
      "stateMutability": "view",
      "type": "function"
    },
    {
      "inputs": [
        {
          "internalType": "address",
          "name": "_stakingContract",
          "type": "address"
        },
        {
          "internalType": "uint256",
          "name": "_notionalAmount",
          "type": "uint256"
        }
      ],
      "name": "getUnstakeCallData",
      "outputs": [
        {
          "internalType": "address",
          "name": "",
          "type": "address"
        },
        {
          "internalType": "uint256",
          "name": "",
          "type": "uint256"
        },
        {
          "internalType": "bytes",
          "name": "",
          "type": "bytes"
        }
      ],
      "stateMutability": "view",
      "type": "function"
    },
    {
      "inputs": [
        {
          "internalType": "address",
          "name": "_stakingContract",
          "type": "address"
        }
      ],
      "name": "getSpenderAddress",
      "outputs": [
        {
          "internalType": "address",
          "name": "",
          "type": "address"
        }
      ],
      "stateMutability": "view",
      "type": "function"
    }
  ],
  "bytecode": "0x60a060405234801561001057600080fd5b5060405161075c38038061075c8339818101604052602081101561003357600080fd5b81019080805190602001909291905050508073ffffffffffffffffffffffffffffffffffffffff1660808173ffffffffffffffffffffffffffffffffffffffff1660601b815250505060805160601c6106be61009e6000398061057b52806105a152506106be6000f3fe608060405234801561001057600080fd5b506004361061004c5760003560e01c80630d697603146100515780630e8edd86146101525780639971c165146101d657806399eecb3b146102d7575b600080fd5b61009d6004803603604081101561006757600080fd5b81019080803573ffffffffffffffffffffffffffffffffffffffff16906020019092919080359060200190929190505050610321565b604051808473ffffffffffffffffffffffffffffffffffffffff1673ffffffffffffffffffffffffffffffffffffffff16815260200183815260200180602001828103825283818151815260200191508051906020019080838360005b838110156101155780820151818401526020810190506100fa565b50505050905090810190601f1680156101425780820380516001836020036101000a031916815260200191505b5094505050505060405180910390f35b6101946004803603602081101561016857600080fd5b81019080803573ffffffffffffffffffffffffffffffffffffffff169060200190929190505050610448565b604051808273ffffffffffffffffffffffffffffffffffffffff1673ffffffffffffffffffffffffffffffffffffffff16815260200191505060405180910390f35b610222600480360360408110156101ec57600080fd5b81019080803573ffffffffffffffffffffffffffffffffffffffff16906020019092919080359060200190929190505050610452565b604051808473ffffffffffffffffffffffffffffffffffffffff1673ffffffffffffffffffffffffffffffffffffffff16815260200183815260200180602001828103825283818151815260200191508051906020019080838360005b8381101561029a57808201518184015260208101905061027f565b50505050905090810190601f1680156102c75780820380516001836020036101000a031916815260200191505b5094505050505060405180910390f35b6102df610579565b604051808273ffffffffffffffffffffffffffffffffffffffff1673ffffffffffffffffffffffffffffffffffffffff16815260200191505060405180910390f35b600080606061032f8561059d565b6103a1576040517f08c379a00000000000000000000000000000000000000000000000000000000081526004018080602001828103825260188152602001807f496e76616c6964207374616b696e6720636f6e7472616374000000000000000081525060200191505060405180910390fd5b606084604051602401808281526020019150506040516020818303038152906040527fb6b55f25000000000000000000000000000000000000000000000000000000007bffffffffffffffffffffffffffffffffffffffffffffffffffffffff19166020820180517bffffffffffffffffffffffffffffffffffffffffffffffffffffffff8381831617835250505050905085600082819150935093509350509250925092565b6000819050919050565b60008060606104608561059d565b6104d2576040517f08c379a00000000000000000000000000000000000000000000000000000000081526004018080602001828103825260188152602001807f496e76616c6964207374616b696e6720636f6e7472616374000000000000000081525060200191505060405180910390fd5b606084604051602401808281526020019150506040516020818303038152906040527f2e1a7d4d000000000000000000000000000000000000000000000000000000007bffffffffffffffffffffffffffffffffffffffffffffffffffffffff19166020820180517bffffffffffffffffffffffffffffffffffffffffffffffffffffffff8381831617835250505050905085600082819150935093509350509250925092565b7f000000000000000000000000000000000000000000000000000000000000000081565b60007f000000000000000000000000000000000000000000000000000000000000000073ffffffffffffffffffffffffffffffffffffffff16633f9095b7836040518263ffffffff1660e01b8152600401808273ffffffffffffffffffffffffffffffffffffffff1673ffffffffffffffffffffffffffffffffffffffff16815260200191505060206040518083038186803b15801561063c57600080fd5b505afa92505050801561067057506040513d602081101561065c57600080fd5b810190808051906020019092919050505060015b61067d5760009050610683565b50600190505b91905056fea2646970667358221220cb7b476f0a602aa0e582df923b7efde4328e8dd3aadc007155217145c95f695c64736f6c634300060a0033",
  "immutableReferences": {
    "11287": [
      {
        "length": 32,
        "start": 1403
      },
      {
        "length": 32,
        "start": 1441
      }
    ]
  },
  "source": "/*\n    Copyright 2020 Set Labs Inc.\n\n    Licensed under the Apache License, Version 2.0 (the \"License\");\n    you may not use this file except in compliance with the License.\n    You may obtain a copy of the License at\n\n    http://www.apache.org/licenses/LICENSE-2.0\n\n    Unless required by applicable law or agreed to in writing, software\n    distributed under the License is distributed on an \"AS IS\" BASIS,\n    WITHOUT WARRANTIES OR CONDITIONS OF ANY KIND, either express or implied.\n    See the License for the specific language governing permissions and\n    limitations under the License.\n\n    SPDX-License-Identifier: Apache License, Version 2.0\n*/\n\npragma solidity 0.6.10;\n\nimport { IGaugeController } from \"../../interfaces/external/IGaugeController.sol\";\n\n/**\n * @title CurveStakingAdapter\n * @author Set Protocol\n *\n * Staking adapter for Curve that returns data to stake/unstake tokens\n */\ncontract CurveStakingAdapter {\n\n    /* ============ State Variables ============ */\n\n    // Address of the gauge controller\n    IGaugeController public immutable gaugeController;\n\n    /* ============ Constructor ============ */\n\n    /**\n     * Set state variables\n     *\n     * @param _gaugeController     Address of Gauge Controller\n     */\n    constructor(IGaugeController _gaugeController) public {\n        gaugeController = _gaugeController;\n    }\n\n    /* ============ External Functions ============ */\n\n    /**\n     * Generates the calldata to stake lp tokens in the staking contract\n     *\n     * @param _stakingContract          Address of the gauge staking contract\n     * @param _notionalAmount           Quantity of token to stake\n     *\n     * @return address                  Target address\n     * @return uint256                  Call value\n     * @return bytes                    Stake tokens calldata\n     */\n    function getStakeCallData(\n        address _stakingContract,\n        uint256 _notionalAmount\n    )\n    external\n    view\n    returns(address, uint256, bytes memory) {\n        require(_isValidStakingContract(_stakingContract), \"Invalid staking contract\");\n        bytes memory callData = abi.encodeWithSignature(\"deposit(uint256)\", _notionalAmount);\n        return (_stakingContract, 0, callData);\n    }\n\n    /**\n     * Generates the calldata to unstake lp tokens from the staking contract\n     *\n     * @param _stakingContract          Address of the gauge staking contract\n     * @param _notionalAmount           Quantity of token to stake\n     *\n     * @return address                  Target address\n     * @return uint256                  Call value\n     * @return bytes                    Unstake tokens calldata\n     */\n    function getUnstakeCallData(\n        address _stakingContract,\n        uint256 _notionalAmount\n    )\n    external\n    view\n    returns(address, uint256, bytes memory) {\n        require(_isValidStakingContract(_stakingContract), \"Invalid staking contract\");\n        bytes memory callData = abi.encodeWithSignature(\"withdraw(uint256)\", _notionalAmount);\n        return (_stakingContract, 0, callData);\n    }\n\n    /**\n     * Returns the address to approve component for staking tokens.\n     *\n     * @param _stakingContract          Address of the gauge staking contract\n     *\n     * @return address                  Address of the contract to approve tokens transfers to\n     */\n    function getSpenderAddress(address _stakingContract) external view returns(address) {\n        return _stakingContract;\n    }\n\n    /**\n     * Validates that the staking contract is registered in the gauge controller\n     *\n     * @param _stakingContract          Address of the gauge staking contract\n     *\n     * @return bool                     Whether or not the staking contract is valid\n     */\n    function _isValidStakingContract(address _stakingContract) internal view returns (bool) {\n        // If the gauge address is not defined in the gaugeController, gauge_types will revert.\n        // Otherwise returns the value.\n        // Here we catch the revert and return false to revert with a proper error message\n        try gaugeController.gauge_types(_stakingContract) {\n            return true;\n        } catch {\n            return false;\n        }\n    }\n}\n",
  "sourcePath": "/Users/tahadhailey/Documents/top5/top5swap/swap/contracts/protocol/integration/CurveStakingAdapter.sol",
  "compiler": {
    "name": "solc",
    "version": "0.6.10+commit.00c0fcaf.Emscripten.clang"
  },
  "schemaVersion": "3.2.1",
  "updatedAt": "2021-01-21T08:20:37.694Z",
  "devdoc": {
    "author": "Set Protocol Staking adapter for Curve that returns data to stake/unstake tokens",
    "methods": {
      "constructor": {
        "params": {
          "_gaugeController": "Address of Gauge Controller"
        }
      },
      "getSpenderAddress(address)": {
        "params": {
          "_stakingContract": "Address of the gauge staking contract"
        },
        "returns": {
          "_0": "address                  Address of the contract to approve tokens transfers to"
        }
      },
      "getStakeCallData(address,uint256)": {
        "params": {
          "_notionalAmount": "Quantity of token to stake",
          "_stakingContract": "Address of the gauge staking contract"
        },
        "returns": {
          "_0": "address                  Target address",
          "_1": "uint256                  Call value",
          "_2": "bytes                    Stake tokens calldata"
        }
      },
      "getUnstakeCallData(address,uint256)": {
        "params": {
          "_notionalAmount": "Quantity of token to stake",
          "_stakingContract": "Address of the gauge staking contract"
        },
        "returns": {
          "_0": "address                  Target address",
          "_1": "uint256                  Call value",
          "_2": "bytes                    Unstake tokens calldata"
        }
      }
    },
    "title": "CurveStakingAdapter"
  },
  "userdoc": {
    "methods": {
      "constructor": "Set state variables",
      "getSpenderAddress(address)": {
        "notice": "Returns the address to approve component for staking tokens."
      },
      "getStakeCallData(address,uint256)": {
        "notice": "Generates the calldata to stake lp tokens in the staking contract"
      },
      "getUnstakeCallData(address,uint256)": {
        "notice": "Generates the calldata to unstake lp tokens from the staking contract"
      }
    }
  }
}