{
  "contractName": "ExplicitERC20Mock",
  "abi": [
    {
      "inputs": [
        {
          "internalType": "contract IERC20",
          "name": "_token",
          "type": "address"
        },
        {
          "internalType": "address",
          "name": "_from",
          "type": "address"
        },
        {
          "internalType": "address",
          "name": "_to",
          "type": "address"
        },
        {
          "internalType": "uint256",
          "name": "_quantity",
          "type": "uint256"
        }
      ],
      "name": "transferFrom",
      "outputs": [],
      "stateMutability": "nonpayable",
      "type": "function"
    }
  ],
  "bytecode": "0x608060405234801561001057600080fd5b50610af5806100206000396000f3fe608060405234801561001057600080fd5b506004361061002b5760003560e01c806315dacbea14610030575b600080fd5b61004a600480360381019061004591906105c8565b61004c565b005b6100588484848461005e565b50505050565b60008111156101e45760008473ffffffffffffffffffffffffffffffffffffffff166370a08231846040518263ffffffff1660e01b81526004016100a2919061087f565b60206040518083038186803b1580156100ba57600080fd5b505afa1580156100ce573d6000803e3d6000fd5b505050506040513d601f19601f820116820180604052508101906100f2919061062b565b9050610100858585856101ea565b60008573ffffffffffffffffffffffffffffffffffffffff166370a08231856040518263ffffffff1660e01b815260040161013b919061087f565b60206040518083038186803b15801561015357600080fd5b505afa158015610167573d6000803e3d6000fd5b505050506040513d601f19601f8201168201806040525081019061018b919061062b565b90506101a0838361027390919063ffffffff16565b81146101e1576040517f08c379a00000000000000000000000000000000000000000000000000000000081526004016101d890610933565b60405180910390fd5b50505b50505050565b61026d846323b872dd60e01b85858560405160240161020b9392919061089a565b604051602081830303815290604052907bffffffffffffffffffffffffffffffffffffffffffffffffffffffff19166020820180517bffffffffffffffffffffffffffffffffffffffffffffffffffffffff83818316178352505050506102c8565b50505050565b6000808284019050838110156102be576040517f08c379a00000000000000000000000000000000000000000000000000000000081526004016102b5906108f3565b60405180910390fd5b8091505092915050565b606061032a826040518060400160405280602081526020017f5361666545524332303a206c6f772d6c6576656c2063616c6c206661696c65648152508573ffffffffffffffffffffffffffffffffffffffff1661038f9092919063ffffffff16565b905060008151111561038a578080602001905181019061034a919061059f565b610389576040517f08c379a000000000000000000000000000000000000000000000000000000000815260040161038090610973565b60405180910390fd5b5b505050565b606061039e84846000856103a7565b90509392505050565b6060824710156103ec576040517f08c379a00000000000000000000000000000000000000000000000000000000081526004016103e390610913565b60405180910390fd5b6103f5856104bc565b610434576040517f08c379a000000000000000000000000000000000000000000000000000000000815260040161042b90610953565b60405180910390fd5b600060608673ffffffffffffffffffffffffffffffffffffffff16858760405161045e9190610868565b60006040518083038185875af1925050503d806000811461049b576040519150601f19603f3d011682016040523d82523d6000602084013e6104a0565b606091505b50915091506104b08282866104cf565b92505050949350505050565b600080823b905060008111915050919050565b606083156104df5782905061052f565b6000835111156104f25782518084602001fd5b816040517f08c379a000000000000000000000000000000000000000000000000000000000815260040161052691906108d1565b60405180910390fd5b9392505050565b60008135905061054581610a63565b92915050565b60008151905061055a81610a7a565b92915050565b60008135905061056f81610a91565b92915050565b60008135905061058481610aa8565b92915050565b60008151905061059981610aa8565b92915050565b6000602082840312156105b157600080fd5b60006105bf8482850161054b565b91505092915050565b600080600080608085870312156105de57600080fd5b60006105ec87828801610560565b94505060206105fd87828801610536565b935050604061060e87828801610536565b925050606061061f87828801610575565b91505092959194509250565b60006020828403121561063d57600080fd5b600061064b8482850161058a565b91505092915050565b61065d816109c5565b82525050565b600061066e82610993565b61067881856109a9565b9350610688818560208601610a1f565b80840191505092915050565b600061069f8261099e565b6106a981856109b4565b93506106b9818560208601610a1f565b6106c281610a52565b840191505092915050565b60006106da601b836109b4565b91507f536166654d6174683a206164646974696f6e206f766572666c6f7700000000006000830152602082019050919050565b600061071a6026836109b4565b91507f416464726573733a20696e73756666696369656e742062616c616e636520666f60008301527f722063616c6c00000000000000000000000000000000000000000000000000006020830152604082019050919050565b6000610780601d836109b4565b91507f496e76616c696420706f7374207472616e736665722062616c616e63650000006000830152602082019050919050565b60006107c0601d836109b4565b91507f416464726573733a2063616c6c20746f206e6f6e2d636f6e74726163740000006000830152602082019050919050565b6000610800602a836109b4565b91507f5361666545524332303a204552433230206f7065726174696f6e20646964206e60008301527f6f742073756363656564000000000000000000000000000000000000000000006020830152604082019050919050565b61086281610a15565b82525050565b60006108748284610663565b915081905092915050565b60006020820190506108946000830184610654565b92915050565b60006060820190506108af6000830186610654565b6108bc6020830185610654565b6108c96040830184610859565b949350505050565b600060208201905081810360008301526108eb8184610694565b905092915050565b6000602082019050818103600083015261090c816106cd565b9050919050565b6000602082019050818103600083015261092c8161070d565b9050919050565b6000602082019050818103600083015261094c81610773565b9050919050565b6000602082019050818103600083015261096c816107b3565b9050919050565b6000602082019050818103600083015261098c816107f3565b9050919050565b600081519050919050565b600081519050919050565b600081905092915050565b600082825260208201905092915050565b60006109d0826109f5565b9050919050565b60008115159050919050565b60006109ee826109c5565b9050919050565b600073ffffffffffffffffffffffffffffffffffffffff82169050919050565b6000819050919050565b60005b83811015610a3d578082015181840152602081019050610a22565b83811115610a4c576000848401525b50505050565b6000601f19601f8301169050919050565b610a6c816109c5565b8114610a7757600080fd5b50565b610a83816109d7565b8114610a8e57600080fd5b50565b610a9a816109e3565b8114610aa557600080fd5b50565b610ab181610a15565b8114610abc57600080fd5b5056fea26469706673582212204e1a087e058793b2111db51ea03cca1b3deda9c6f8649239e5748cbf8ead906764736f6c634300060a0033",
  "immutableReferences": {},
  "source": "/*\n    Copyright 2020 Set Labs Inc.\n\n    Licensed under the Apache License, Version 2.0 (the \"License\");\n    you may not use this file except in compliance with the License.\n    You may obtain a copy of the License at\n\n    http://www.apache.org/licenses/LICENSE-2.0\n\n    Unless required by applicable law or agreed to in writing, software\n    distributed under the License is distributed on an \"AS IS\" BASIS,\n    WITHOUT WARRANTIES OR CONDITIONS OF ANY KIND, either express or implied.\n    See the License for the specific language governing permissions and\n    limitations under the License.\n\n    SPDX-License-Identifier: Apache License, Version 2.0\n*/\n\npragma solidity 0.6.10;\npragma experimental \"ABIEncoderV2\";\n\nimport { ExplicitERC20 } from \"../lib/ExplicitERC20.sol\";\nimport { IERC20 } from \"@openzeppelin/contracts/token/ERC20/IERC20.sol\";\n\ncontract ExplicitERC20Mock {\n    \n    function transferFrom(\n        IERC20 _token,\n        address _from,\n        address _to,\n        uint256 _quantity\n    )\n        external\n    {\n        ExplicitERC20.transferFrom(\n            _token,\n            _from,\n            _to,\n            _quantity\n        );\n    }\n}\n",
  "sourcePath": "/Users/tahadhailey/Documents/top5/top5swap/swap/contracts/mocks/ExplicitERC20Mock.sol",
  "compiler": {
    "name": "solc",
    "version": "0.6.10+commit.00c0fcaf.Emscripten.clang"
  },
  "schemaVersion": "3.2.1",
  "updatedAt": "2021-01-21T08:20:37.580Z",
  "devdoc": {
    "methods": {}
  },
  "userdoc": {
    "methods": {}
  }
}