{
  "contractName": "GaugeControllerMock",
  "abi": [
    {
      "inputs": [
        {
          "internalType": "address",
          "name": "_gauge",
          "type": "address"
        },
        {
          "internalType": "int128",
          "name": "_type",
          "type": "int128"
        }
      ],
      "name": "addGaugeType",
      "outputs": [],
      "stateMutability": "nonpayable",
      "type": "function"
    },
    {
      "inputs": [
        {
          "internalType": "address",
          "name": "_gauge",
          "type": "address"
        }
      ],
      "name": "gauge_types",
      "outputs": [
        {
          "internalType": "int128",
          "name": "",
          "type": "int128"
        }
      ],
      "stateMutability": "view",
      "type": "function"
    }
  ],
  "bytecode": "0x608060405234801561001057600080fd5b50610276806100206000396000f3fe608060405234801561001057600080fd5b50600436106100365760003560e01c80633f9095b71461003b578063a12f4e5b14610099575b600080fd5b61007d6004803603602081101561005157600080fd5b81019080803573ffffffffffffffffffffffffffffffffffffffff1690602001909291905050506100ea565b6040518082600f0b600f0b815260200191505060405180910390f35b6100e8600480360360408110156100af57600080fd5b81019080803573ffffffffffffffffffffffffffffffffffffffff1690602001909291908035600f0b90602001909291905050506101c1565b005b6000806000808473ffffffffffffffffffffffffffffffffffffffff1673ffffffffffffffffffffffffffffffffffffffff16815260200190815260200160002060009054906101000a9004600f0b9050600081600f0b14156101b5576040517f08c379a00000000000000000000000000000000000000000000000000000000081526004018080602001828103825260098152602001807f4e6f742076616c6964000000000000000000000000000000000000000000000081525060200191505060405180910390fd5b60018103915050919050565b600181016000808473ffffffffffffffffffffffffffffffffffffffff1673ffffffffffffffffffffffffffffffffffffffff16815260200190815260200160002060006101000a8154816fffffffffffffffffffffffffffffffff0219169083600f0b6fffffffffffffffffffffffffffffffff160217905550505056fea26469706673582212201dbc09bee79505454170a58c49c8b0e2de862e0603fad95388894f87e41e359a64736f6c634300060a0033",
  "immutableReferences": {},
  "source": "/*\n    Copyright 2020 Set Labs Inc.\n\n    Licensed under the Apache License, Version 2.0 (the \"License\");\n    you may not use this file except in compliance with the License.\n    You may obtain a copy of the License at\n\n    http://www.apache.org/licenses/LICENSE-2.0\n\n    Unless required by applicable law or agreed to in writing, software\n    distributed under the License is distributed on an \"AS IS\" BASIS,\n    WITHOUT WARRANTIES OR CONDITIONS OF ANY KIND, either express or implied.\n    See the License for the specific language governing permissions and\n    limitations under the License.\n\n    SPDX-License-Identifier: Apache License, Version 2.0\n*/\n\npragma solidity 0.6.10;\n\n/**\n * @title GaugeControllerMock\n * @author Set Protocol\n *\n * Mocks similar behaviour of the Curve GaugeController contract\n */\ncontract GaugeControllerMock {\n\n    mapping(address => int128) internal types;\n\n    function addGaugeType(address _gauge, int128 _type) external {\n        types[_gauge] = _type + 1;\n    }\n\n    function gauge_types(address _gauge) external view returns (int128) {\n        int128 gaugeType = types[_gauge];\n\n        require(gaugeType != 0, \"Not valid\");\n        return gaugeType - 1;\n    }\n}\n",
  "sourcePath": "/Users/tahadhailey/Documents/top5/top5swap/swap/contracts/mocks/external/GaugeControllerMock.sol",
  "compiler": {
    "name": "solc",
    "version": "0.6.10+commit.00c0fcaf.Emscripten.clang"
  },
  "schemaVersion": "3.2.1",
  "updatedAt": "2021-01-21T08:20:37.594Z",
  "devdoc": {
    "author": "Set Protocol Mocks similar behaviour of the Curve GaugeController contract",
    "methods": {},
    "title": "GaugeControllerMock"
  },
  "userdoc": {
    "methods": {}
  }
}