{
  "contractName": "GovernanceAdapterMock",
  "abi": [
    {
      "inputs": [
        {
          "internalType": "uint256",
          "name": "_initialProposal",
          "type": "uint256"
        }
      ],
      "stateMutability": "nonpayable",
      "type": "constructor"
    },
    {
      "inputs": [],
      "name": "delegatee",
      "outputs": [
        {
          "internalType": "address",
          "name": "",
          "type": "address"
        }
      ],
      "stateMutability": "view",
      "type": "function"
    },
    {
      "inputs": [
        {
          "internalType": "uint256",
          "name": "",
          "type": "uint256"
        }
      ],
      "name": "proposalCreated",
      "outputs": [
        {
          "internalType": "bool",
          "name": "",
          "type": "bool"
        }
      ],
      "stateMutability": "view",
      "type": "function"
    },
    {
      "inputs": [
        {
          "internalType": "uint256",
          "name": "",
          "type": "uint256"
        }
      ],
      "name": "proposalToVote",
      "outputs": [
        {
          "internalType": "bool",
          "name": "",
          "type": "bool"
        }
      ],
      "stateMutability": "view",
      "type": "function"
    },
    {
      "inputs": [
        {
          "internalType": "uint256",
          "name": "_proposalId",
          "type": "uint256"
        }
      ],
      "name": "createProposal",
      "outputs": [],
      "stateMutability": "nonpayable",
      "type": "function"
    },
    {
      "inputs": [
        {
          "internalType": "uint256",
          "name": "_proposalId",
          "type": "uint256"
        },
        {
          "internalType": "bool",
          "name": "_support",
          "type": "bool"
        }
      ],
      "name": "castVote",
      "outputs": [],
      "stateMutability": "nonpayable",
      "type": "function"
    },
    {
      "inputs": [
        {
          "internalType": "address",
          "name": "_delegatee",
          "type": "address"
        }
      ],
      "name": "delegate",
      "outputs": [],
      "stateMutability": "nonpayable",
      "type": "function"
    },
    {
      "inputs": [
        {
          "internalType": "uint256",
          "name": "_proposalId",
          "type": "uint256"
        },
        {
          "internalType": "bool",
          "name": "_support",
          "type": "bool"
        },
        {
          "internalType": "bytes",
          "name": "",
          "type": "bytes"
        }
      ],
      "name": "getVoteCalldata",
      "outputs": [
        {
          "internalType": "address",
          "name": "",
          "type": "address"
        },
        {
          "internalType": "uint256",
          "name": "",
          "type": "uint256"
        },
        {
          "internalType": "bytes",
          "name": "",
          "type": "bytes"
        }
      ],
      "stateMutability": "view",
      "type": "function"
    },
    {
      "inputs": [
        {
          "internalType": "bytes",
          "name": "_proposalData",
          "type": "bytes"
        }
      ],
      "name": "getProposeCalldata",
      "outputs": [
        {
          "internalType": "address",
          "name": "",
          "type": "address"
        },
        {
          "internalType": "uint256",
          "name": "",
          "type": "uint256"
        },
        {
          "internalType": "bytes",
          "name": "",
          "type": "bytes"
        }
      ],
      "stateMutability": "view",
      "type": "function"
    },
    {
      "inputs": [
        {
          "internalType": "address",
          "name": "_delegatee",
          "type": "address"
        }
      ],
      "name": "getDelegateCalldata",
      "outputs": [
        {
          "internalType": "address",
          "name": "",
          "type": "address"
        },
        {
          "internalType": "uint256",
          "name": "",
          "type": "uint256"
        },
        {
          "internalType": "bytes",
          "name": "",
          "type": "bytes"
        }
      ],
      "stateMutability": "view",
      "type": "function"
    },
    {
      "inputs": [
        {
          "internalType": "address",
          "name": "_setToken",
          "type": "address"
        }
      ],
      "name": "getRegisterCalldata",
      "outputs": [
        {
          "internalType": "address",
          "name": "",
          "type": "address"
        },
        {
          "internalType": "uint256",
          "name": "",
          "type": "uint256"
        },
        {
          "internalType": "bytes",
          "name": "",
          "type": "bytes"
        }
      ],
      "stateMutability": "view",
      "type": "function"
    },
    {
      "inputs": [],
      "name": "getRevokeCalldata",
      "outputs": [
        {
          "internalType": "address",
          "name": "",
          "type": "address"
        },
        {
          "internalType": "uint256",
          "name": "",
          "type": "uint256"
        },
        {
          "internalType": "bytes",
          "name": "",
          "type": "bytes"
        }
      ],
      "stateMutability": "view",
      "type": "function"
    }
  ],
  "bytecode": "0x608060405234801561001057600080fd5b50604051610ca0380380610ca083398181016040528101906100329190610079565b60016002600083815260200190815260200160002060006101000a81548160ff021916908315150217905550506100c3565b600081519050610073816100ac565b92915050565b60006020828403121561008b57600080fd5b600061009984828501610064565b91505092915050565b6000819050919050565b6100b5816100a2565b81146100c057600080fd5b50565b610bce806100d26000396000f3fe608060405234801561001057600080fd5b50600436106100a95760003560e01c80635cb8b5e3116100715780635cb8b5e31461015057806366d8da1b14610182578063a4fed2ce146101b2578063d0ae50ae146101e4578063d3da53a414610216578063d5abba9914610248576100a9565b806315373e3d146100ae5780631e31d053146100ca5780631fc8f2a6146100e85780635a43dc00146101185780635c19a95c14610134575b600080fd5b6100c860048036038101906100c39190610846565b610268565b005b6100d2610297565b6040516100df919061095e565b60405180910390f35b61010260048036038101906100fd91906107f4565b6102bc565b60405161010f91906109d2565b60405180910390f35b610132600480360381019061012d91906107f4565b6102dc565b005b61014e6004803603810190610149919061078a565b61030b565b005b61016a600480360381019061016591906107b3565b61034e565b60405161017993929190610994565b60405180910390f35b61019c600480360381019061019791906107f4565b610413565b6040516101a991906109d2565b60405180910390f35b6101cc60048036038101906101c79190610882565b610433565b6040516101db93929190610994565b60405180910390f35b6101fe60048036038101906101f9919061078a565b6104e2565b60405161020d93929190610994565b60405180910390f35b610230600480360381019061022b919061078a565b61058d565b60405161023f93929190610994565b60405180910390f35b610250610638565b60405161025f93929190610994565b60405180910390f35b806001600084815260200190815260200160002060006101000a81548160ff0219169083151502179055505050565b6000809054906101000a900473ffffffffffffffffffffffffffffffffffffffff1681565b60026020528060005260406000206000915054906101000a900460ff1681565b60016002600083815260200190815260200160002060006101000a81548160ff02191690831515021790555050565b806000806101000a81548173ffffffffffffffffffffffffffffffffffffffff021916908373ffffffffffffffffffffffffffffffffffffffff16021790555050565b6000806060600084806020019051810190610369919061081d565b905060608160405160240161037e91906109ed565b6040516020818303038152906040527f5a43dc00000000000000000000000000000000000000000000000000000000007bffffffffffffffffffffffffffffffffffffffffffffffffffffffff19166020820180517bffffffffffffffffffffffffffffffffffffffffffffffffffffffff838183161783525050505090503060008281915094509450945050509193909250565b60016020528060005260406000206000915054906101000a900460ff1681565b600080606080868660405160240161044c929190610a08565b6040516020818303038152906040527f15373e3d000000000000000000000000000000000000000000000000000000007bffffffffffffffffffffffffffffffffffffffffffffffffffffffff19166020820180517bffffffffffffffffffffffffffffffffffffffffffffffffffffffff83818316178352505050509050306000828191509350935093505093509350939050565b600080606080846040516024016104f9919061095e565b6040516020818303038152906040527f5c19a95c000000000000000000000000000000000000000000000000000000007bffffffffffffffffffffffffffffffffffffffffffffffffffffffff19166020820180517bffffffffffffffffffffffffffffffffffffffffffffffffffffffff8381831617835250505050905030600082819150935093509350509193909250565b600080606080846040516024016105a4919061095e565b6040516020818303038152906040527f5c19a95c000000000000000000000000000000000000000000000000000000007bffffffffffffffffffffffffffffffffffffffffffffffffffffffff19166020820180517bffffffffffffffffffffffffffffffffffffffffffffffffffffffff8381831617835250505050905030600082819150935093509350509193909250565b60008060608060006040516024016106509190610979565b6040516020818303038152906040527f5c19a95c000000000000000000000000000000000000000000000000000000007bffffffffffffffffffffffffffffffffffffffffffffffffffffffff19166020820180517bffffffffffffffffffffffffffffffffffffffffffffffffffffffff838183161783525050505090503060008281915093509350935050909192565b6000813590506106f181610b53565b92915050565b60008135905061070681610b6a565b92915050565b600082601f83011261071d57600080fd5b813561073061072b82610a5e565b610a31565b9150808252602083016020830185838301111561074c57600080fd5b610757838284610b00565b50505092915050565b60008135905061076f81610b81565b92915050565b60008151905061078481610b81565b92915050565b60006020828403121561079c57600080fd5b60006107aa848285016106e2565b91505092915050565b6000602082840312156107c557600080fd5b600082013567ffffffffffffffff8111156107df57600080fd5b6107eb8482850161070c565b91505092915050565b60006020828403121561080657600080fd5b600061081484828501610760565b91505092915050565b60006020828403121561082f57600080fd5b600061083d84828501610775565b91505092915050565b6000806040838503121561085957600080fd5b600061086785828601610760565b9250506020610878858286016106f7565b9150509250929050565b60008060006060848603121561089757600080fd5b60006108a586828701610760565b93505060206108b6868287016106f7565b925050604084013567ffffffffffffffff8111156108d357600080fd5b6108df8682870161070c565b9150509250925092565b6108f281610ab8565b82525050565b61090181610aa6565b82525050565b61091081610aca565b82525050565b600061092182610a8a565b61092b8185610a95565b935061093b818560208601610b0f565b61094481610b42565b840191505092915050565b61095881610af6565b82525050565b600060208201905061097360008301846108f8565b92915050565b600060208201905061098e60008301846108e9565b92915050565b60006060820190506109a960008301866108f8565b6109b6602083018561094f565b81810360408301526109c88184610916565b9050949350505050565b60006020820190506109e76000830184610907565b92915050565b6000602082019050610a02600083018461094f565b92915050565b6000604082019050610a1d600083018561094f565b610a2a6020830184610907565b9392505050565b6000604051905081810181811067ffffffffffffffff82111715610a5457600080fd5b8060405250919050565b600067ffffffffffffffff821115610a7557600080fd5b601f19601f8301169050602081019050919050565b600081519050919050565b600082825260208201905092915050565b6000610ab182610ad6565b9050919050565b6000610ac382610ad6565b9050919050565b60008115159050919050565b600073ffffffffffffffffffffffffffffffffffffffff82169050919050565b6000819050919050565b82818337600083830152505050565b60005b83811015610b2d578082015181840152602081019050610b12565b83811115610b3c576000848401525b50505050565b6000601f19601f8301169050919050565b610b5c81610aa6565b8114610b6757600080fd5b50565b610b7381610aca565b8114610b7e57600080fd5b50565b610b8a81610af6565b8114610b9557600080fd5b5056fea2646970667358221220f3a391127d3d2221cabac32fe3f39c80a46706a24dc8a5a01713a04bfa3a36e464736f6c634300060a0033",
  "immutableReferences": {},
  "source": "/*\n    Copyright 2020 Set Labs Inc.\n\n    Licensed under the Apache License, Version 2.0 (the \"License\");\n    you may not use this file except in compliance with the License.\n    You may obtain a copy of the License at\n\n    http://www.apache.org/licenses/LICENSE-2.0\n\n    Unless required by applicable law or agreed to in writing, software\n    distributed under the License is distributed on an \"AS IS\" BASIS,\n    WITHOUT WARRANTIES OR CONDITIONS OF ANY KIND, either express or implied.\n    See the License for the specific language governing permissions and\n    limitations under the License.\n\n    SPDX-License-Identifier: Apache License, Version 2.0\n*/\n\npragma solidity 0.6.10;\npragma experimental ABIEncoderV2;\n\nimport { IERC20 } from \"@openzeppelin/contracts/token/ERC20/IERC20.sol\";\n\n\n/**\n * @title GovernanceAdapterMock\n * @author Set Protocol\n *\n * Governance Adapter that doubles as a mock governance contract as well.\n */\ncontract GovernanceAdapterMock {\n    address public delegatee;\n    mapping(uint256 => bool) public proposalToVote;\n    mapping(uint256 => bool) public proposalCreated;\n\n    /* ============ Constructor ============ */\n\n    constructor(uint256 _initialProposal) public {\n        proposalCreated[_initialProposal] = true;\n    }\n\n    /* ============ Governance Functions ============ */\n\n    function createProposal(uint256 _proposalId) external {\n        proposalCreated[_proposalId] = true;\n    }\n\n    function castVote(uint256 _proposalId, bool _support) external {\n        proposalToVote[_proposalId] = _support;\n    }\n\n    function delegate(address _delegatee) external {\n        delegatee = _delegatee;\n    }\n\n    /* ============ Adapter Functions ============ */\n\n    function getVoteCalldata(\n        uint256 _proposalId,\n        bool _support,\n        bytes memory /* _data */\n    )\n        external\n        view \n        returns(address, uint256, bytes memory)\n    {\n        bytes memory callData = abi.encodeWithSignature(\"castVote(uint256,bool)\", _proposalId, _support);\n        return (address(this), 0, callData);\n    }\n\n    function getProposeCalldata(bytes memory _proposalData)\n        external\n        view \n        returns(address, uint256, bytes memory)\n    {\n        (uint256 proposalId) = abi.decode(_proposalData, (uint256));\n\n        bytes memory callData = abi.encodeWithSignature(\"createProposal(uint256)\", proposalId);\n        return (address(this), 0, callData);\n    }\n\n    function getDelegateCalldata(address _delegatee) external view returns(address, uint256, bytes memory) {\n        bytes memory callData = abi.encodeWithSignature(\"delegate(address)\", _delegatee);\n        return (address(this), 0, callData);\n    }\n\n    function getRegisterCalldata(address _setToken) external view returns(address, uint256, bytes memory) {\n        bytes memory callData = abi.encodeWithSignature(\"delegate(address)\", _setToken);\n        return (address(this), 0, callData);\n    }\n\n    function getRevokeCalldata() external view returns(address, uint256, bytes memory) {\n        bytes memory callData = abi.encodeWithSignature(\"delegate(address)\", address(0));\n        return (address(this), 0, callData);\n    }\n}",
  "sourcePath": "/Users/tahadhailey/Documents/top5/top5swap/swap/contracts/mocks/integrations/GovernanceAdapterMock.sol",
  "compiler": {
    "name": "solc",
    "version": "0.6.10+commit.00c0fcaf.Emscripten.clang"
  },
  "schemaVersion": "3.2.1",
  "updatedAt": "2021-01-21T08:20:37.610Z",
  "devdoc": {
    "author": "Set Protocol Governance Adapter that doubles as a mock governance contract as well.",
    "methods": {},
    "title": "GovernanceAdapterMock"
  },
  "userdoc": {
    "methods": {}
  }
}