{
  "contractName": "GovernanceModule",
  "abi": [
    {
      "inputs": [
        {
          "internalType": "contract IController",
          "name": "_controller",
          "type": "address"
        }
      ],
      "stateMutability": "nonpayable",
      "type": "constructor"
    },
    {
      "anonymous": false,
      "inputs": [
        {
          "indexed": true,
          "internalType": "contract ISetToken",
          "name": "_setToken",
          "type": "address"
        },
        {
          "indexed": true,
          "internalType": "contract IGovernanceAdapter",
          "name": "_governanceAdapter",
          "type": "address"
        },
        {
          "indexed": false,
          "internalType": "bytes",
          "name": "_proposalData",
          "type": "bytes"
        }
      ],
      "name": "ProposalCreated",
      "type": "event"
    },
    {
      "anonymous": false,
      "inputs": [
        {
          "indexed": true,
          "internalType": "contract ISetToken",
          "name": "_setToken",
          "type": "address"
        },
        {
          "indexed": true,
          "internalType": "contract IGovernanceAdapter",
          "name": "_governanceAdapter",
          "type": "address"
        },
        {
          "indexed": true,
          "internalType": "uint256",
          "name": "_proposalId",
          "type": "uint256"
        },
        {
          "indexed": false,
          "internalType": "bool",
          "name": "_support",
          "type": "bool"
        }
      ],
      "name": "ProposalVoted",
      "type": "event"
    },
    {
      "anonymous": false,
      "inputs": [
        {
          "indexed": true,
          "internalType": "contract ISetToken",
          "name": "_setToken",
          "type": "address"
        },
        {
          "indexed": true,
          "internalType": "contract IGovernanceAdapter",
          "name": "_governanceAdapter",
          "type": "address"
        }
      ],
      "name": "RegistrationRevoked",
      "type": "event"
    },
    {
      "anonymous": false,
      "inputs": [
        {
          "indexed": true,
          "internalType": "contract ISetToken",
          "name": "_setToken",
          "type": "address"
        },
        {
          "indexed": true,
          "internalType": "contract IGovernanceAdapter",
          "name": "_governanceAdapter",
          "type": "address"
        }
      ],
      "name": "RegistrationSubmitted",
      "type": "event"
    },
    {
      "anonymous": false,
      "inputs": [
        {
          "indexed": true,
          "internalType": "contract ISetToken",
          "name": "_setToken",
          "type": "address"
        },
        {
          "indexed": true,
          "internalType": "contract IGovernanceAdapter",
          "name": "_governanceAdapter",
          "type": "address"
        },
        {
          "indexed": false,
          "internalType": "address",
          "name": "_delegatee",
          "type": "address"
        }
      ],
      "name": "VoteDelegated",
      "type": "event"
    },
    {
      "inputs": [],
      "name": "controller",
      "outputs": [
        {
          "internalType": "contract IController",
          "name": "",
          "type": "address"
        }
      ],
      "stateMutability": "view",
      "type": "function"
    },
    {
      "inputs": [
        {
          "internalType": "contract ISetToken",
          "name": "_setToken",
          "type": "address"
        },
        {
          "internalType": "string",
          "name": "_governanceName",
          "type": "string"
        },
        {
          "internalType": "address",
          "name": "_delegatee",
          "type": "address"
        }
      ],
      "name": "delegate",
      "outputs": [],
      "stateMutability": "nonpayable",
      "type": "function"
    },
    {
      "inputs": [
        {
          "internalType": "contract ISetToken",
          "name": "_setToken",
          "type": "address"
        },
        {
          "internalType": "string",
          "name": "_governanceName",
          "type": "string"
        },
        {
          "internalType": "bytes",
          "name": "_proposalData",
          "type": "bytes"
        }
      ],
      "name": "propose",
      "outputs": [],
      "stateMutability": "nonpayable",
      "type": "function"
    },
    {
      "inputs": [
        {
          "internalType": "contract ISetToken",
          "name": "_setToken",
          "type": "address"
        },
        {
          "internalType": "string",
          "name": "_governanceName",
          "type": "string"
        }
      ],
      "name": "register",
      "outputs": [],
      "stateMutability": "nonpayable",
      "type": "function"
    },
    {
      "inputs": [
        {
          "internalType": "contract ISetToken",
          "name": "_setToken",
          "type": "address"
        },
        {
          "internalType": "string",
          "name": "_governanceName",
          "type": "string"
        }
      ],
      "name": "revoke",
      "outputs": [],
      "stateMutability": "nonpayable",
      "type": "function"
    },
    {
      "inputs": [
        {
          "internalType": "contract ISetToken",
          "name": "_setToken",
          "type": "address"
        },
        {
          "internalType": "string",
          "name": "_governanceName",
          "type": "string"
        },
        {
          "internalType": "uint256",
          "name": "_proposalId",
          "type": "uint256"
        },
        {
          "internalType": "bool",
          "name": "_support",
          "type": "bool"
        },
        {
          "internalType": "bytes",
          "name": "_data",
          "type": "bytes"
        }
      ],
      "name": "vote",
      "outputs": [],
      "stateMutability": "nonpayable",
      "type": "function"
    },
    {
      "inputs": [
        {
          "internalType": "contract ISetToken",
          "name": "_setToken",
          "type": "address"
        }
      ],
      "name": "initialize",
      "outputs": [],
      "stateMutability": "nonpayable",
      "type": "function"
    },
    {
      "inputs": [],
      "name": "removeModule",
      "outputs": [],
      "stateMutability": "nonpayable",
      "type": "function"
    }
  ],
  "bytecode": "0x60806040523480156200001157600080fd5b50604051620020e8380380620020e883398181016040528101906200003791906200009e565b80806000806101000a81548173ffffffffffffffffffffffffffffffffffffffff021916908373ffffffffffffffffffffffffffffffffffffffff1602179055505060018081905550506200012c565b600081519050620000988162000112565b92915050565b600060208284031215620000b157600080fd5b6000620000c18482850162000087565b91505092915050565b6000620000d782620000f2565b9050919050565b6000620000eb82620000ca565b9050919050565b600073ffffffffffffffffffffffffffffffffffffffff82169050919050565b6200011d81620000de565b81146200012957600080fd5b50565b611fac806200013c6000396000f3fe608060405234801561001057600080fd5b50600436106100885760003560e01c8063c4d66de81161005b578063c4d66de8146100eb578063cfec838714610107578063dff8565114610123578063f77c47911461013f57610088565b806332434a2e1461008d57806340493ccf146100a9578063847ef08d146100c5578063afd0224b146100cf575b600080fd5b6100a760048036038101906100a29190611769565b61015d565b005b6100c360048036038101906100be91906117bd565b6103e2565b005b6100cd610673565b005b6100e960048036038101906100e49190611769565b610675565b005b61010560048036038101906101009190611740565b6108ef565b005b610121600480360381019061011c91906118a3565b610ad2565b005b61013d60048036038101906101389190611824565b610d6a565b005b610147610ffb565b6040516101549190611c59565b60405180910390f35b600260015414156101a3576040517f08c379a000000000000000000000000000000000000000000000000000000000815260040161019a90611d14565b60405180910390fd5b6002600181905550816101b68133611020565b6101f5576040517f08c379a00000000000000000000000000000000000000000000000000000000081526004016101ec90611cf4565b60405180910390fd5b6101fe816110d6565b61023d576040517f08c379a000000000000000000000000000000000000000000000000000000000815260040161023490611c74565b60405180910390fd5b60006102488361121a565b905060008060608373ffffffffffffffffffffffffffffffffffffffff1663d3da53a4886040518263ffffffff1660e01b81526004016102889190611b9a565b60006040518083038186803b1580156102a057600080fd5b505afa1580156102b4573d6000803e3d6000fd5b505050506040513d6000823e3d601f19601f820116820180604052508101906102dd919061166f565b9250925092508673ffffffffffffffffffffffffffffffffffffffff16638f6f03328484846040518463ffffffff1660e01b815260040161032093929190611bde565b600060405180830381600087803b15801561033a57600080fd5b505af115801561034e573d6000803e3d6000fd5b505050506040513d6000823e3d601f19601f8201168201806040525081019061037791906116ff565b508373ffffffffffffffffffffffffffffffffffffffff168773ffffffffffffffffffffffffffffffffffffffff167f28c85356595a6d26a36a8ea64f43fe31fa3ef9c786b5566f80d3d560af3b3a5560405160405180910390a35050505050600180819055505050565b60026001541415610428576040517f08c379a000000000000000000000000000000000000000000000000000000000815260040161041f90611d14565b60405180910390fd5b60026001819055508261043b8133611020565b61047a576040517f08c379a000000000000000000000000000000000000000000000000000000000815260040161047190611cf4565b60405180910390fd5b610483816110d6565b6104c2576040517f08c379a00000000000000000000000000000000000000000000000000000000081526004016104b990611c74565b60405180910390fd5b60006104cd8461121a565b905060008060608373ffffffffffffffffffffffffffffffffffffffff1663d0ae50ae876040518263ffffffff1660e01b815260040161050d9190611b9a565b60006040518083038186803b15801561052557600080fd5b505afa158015610539573d6000803e3d6000fd5b505050506040513d6000823e3d601f19601f82011682018060405250810190610562919061166f565b9250925092508773ffffffffffffffffffffffffffffffffffffffff16638f6f03328484846040518463ffffffff1660e01b81526004016105a593929190611bde565b600060405180830381600087803b1580156105bf57600080fd5b505af11580156105d3573d6000803e3d6000fd5b505050506040513d6000823e3d601f19601f820116820180604052508101906105fc91906116ff565b508373ffffffffffffffffffffffffffffffffffffffff168873ffffffffffffffffffffffffffffffffffffffff167f8220b2caa6f0c2c2582472ceea7af3ea32209fc927b466237da9e2c8c4e6553b8860405161065a9190611b9a565b60405180910390a3505050505060018081905550505050565b565b600260015414156106bb576040517f08c379a00000000000000000000000000000000000000000000000000000000081526004016106b290611d14565b60405180910390fd5b6002600181905550816106ce8133611020565b61070d576040517f08c379a000000000000000000000000000000000000000000000000000000000815260040161070490611cf4565b60405180910390fd5b610716816110d6565b610755576040517f08c379a000000000000000000000000000000000000000000000000000000000815260040161074c90611c74565b60405180910390fd5b60006107608361121a565b905060008060608373ffffffffffffffffffffffffffffffffffffffff1663d5abba996040518163ffffffff1660e01b815260040160006040518083038186803b1580156107ad57600080fd5b505afa1580156107c1573d6000803e3d6000fd5b505050506040513d6000823e3d601f19601f820116820180604052508101906107ea919061166f565b9250925092508673ffffffffffffffffffffffffffffffffffffffff16638f6f03328484846040518463ffffffff1660e01b815260040161082d93929190611bde565b600060405180830381600087803b15801561084757600080fd5b505af115801561085b573d6000803e3d6000fd5b505050506040513d6000823e3d601f19601f8201168201806040525081019061088491906116ff565b508373ffffffffffffffffffffffffffffffffffffffff168773ffffffffffffffffffffffffffffffffffffffff167f287dbe06a6a5acbe985b65078dde5d39ac24d2fd58391bb292b8ef1d08e572f660405160405180910390a35050505050600180819055505050565b80336108fb8282611020565b61093a576040517f08c379a000000000000000000000000000000000000000000000000000000000815260040161093190611cf4565b60405180910390fd5b826000809054906101000a900473ffffffffffffffffffffffffffffffffffffffff1673ffffffffffffffffffffffffffffffffffffffff166374ebe3ec826040518263ffffffff1660e01b81526004016109959190611b9a565b60206040518083038186803b1580156109ad57600080fd5b505afa1580156109c1573d6000803e3d6000fd5b505050506040513d601f19601f820116820180604052508101906109e591906116d6565b610a24576040517f08c379a0000000000000000000000000000000000000000000000000000000008152600401610a1b90611cd4565b60405180910390fd5b610a2d81611239565b610a6c576040517f08c379a0000000000000000000000000000000000000000000000000000000008152600401610a6390611c94565b60405180910390fd5b8373ffffffffffffffffffffffffffffffffffffffff16630ffe0f1e6040518163ffffffff1660e01b8152600401600060405180830381600087803b158015610ab457600080fd5b505af1158015610ac8573d6000803e3d6000fd5b5050505050505050565b60026001541415610b18576040517f08c379a0000000000000000000000000000000000000000000000000000000008152600401610b0f90611d14565b60405180910390fd5b600260018190555084610b2b8133611020565b610b6a576040517f08c379a0000000000000000000000000000000000000000000000000000000008152600401610b6190611cf4565b60405180910390fd5b610b73816110d6565b610bb2576040517f08c379a0000000000000000000000000000000000000000000000000000000008152600401610ba990611c74565b60405180910390fd5b6000610bbd8661121a565b905060008060608373ffffffffffffffffffffffffffffffffffffffff1663a4fed2ce8989896040518463ffffffff1660e01b8152600401610c0193929190611d4f565b60006040518083038186803b158015610c1957600080fd5b505afa158015610c2d573d6000803e3d6000fd5b505050506040513d6000823e3d601f19601f82011682018060405250810190610c56919061166f565b9250925092508973ffffffffffffffffffffffffffffffffffffffff16638f6f03328484846040518463ffffffff1660e01b8152600401610c9993929190611bde565b600060405180830381600087803b158015610cb357600080fd5b505af1158015610cc7573d6000803e3d6000fd5b505050506040513d6000823e3d601f19601f82011682018060405250810190610cf091906116ff565b50878473ffffffffffffffffffffffffffffffffffffffff168b73ffffffffffffffffffffffffffffffffffffffff167fdbfb5295f66731a3476998db46423492cb33fe683f68d98ab13b1a8f922873138a604051610d4f9190611c1c565b60405180910390a45050505050600180819055505050505050565b60026001541415610db0576040517f08c379a0000000000000000000000000000000000000000000000000000000008152600401610da790611d14565b60405180910390fd5b600260018190555082610dc38133611020565b610e02576040517f08c379a0000000000000000000000000000000000000000000000000000000008152600401610df990611cf4565b60405180910390fd5b610e0b816110d6565b610e4a576040517f08c379a0000000000000000000000000000000000000000000000000000000008152600401610e4190611c74565b60405180910390fd5b6000610e558461121a565b905060008060608373ffffffffffffffffffffffffffffffffffffffff16635cb8b5e3876040518263ffffffff1660e01b8152600401610e959190611c37565b60006040518083038186803b158015610ead57600080fd5b505afa158015610ec1573d6000803e3d6000fd5b505050506040513d6000823e3d601f19601f82011682018060405250810190610eea919061166f565b9250925092508773ffffffffffffffffffffffffffffffffffffffff16638f6f03328484846040518463ffffffff1660e01b8152600401610f2d93929190611bde565b600060405180830381600087803b158015610f4757600080fd5b505af1158015610f5b573d6000803e3d6000fd5b505050506040513d6000823e3d601f19601f82011682018060405250810190610f8491906116ff565b508373ffffffffffffffffffffffffffffffffffffffff168873ffffffffffffffffffffffffffffffffffffffff167f97960511614a09205f5794e634a82aa9063a669eed5833c847cb423962e9e30588604051610fe29190611c37565b60405180910390a3505050505060018081905550505050565b6000809054906101000a900473ffffffffffffffffffffffffffffffffffffffff1681565b60008173ffffffffffffffffffffffffffffffffffffffff168373ffffffffffffffffffffffffffffffffffffffff1663481c6a756040518163ffffffff1660e01b815260040160206040518083038186803b15801561107f57600080fd5b505afa158015611093573d6000803e3d6000fd5b505050506040513d601f19601f820116820180604052508101906110b79190611646565b73ffffffffffffffffffffffffffffffffffffffff1614905092915050565b60008060009054906101000a900473ffffffffffffffffffffffffffffffffffffffff1673ffffffffffffffffffffffffffffffffffffffff166374ebe3ec836040518263ffffffff1660e01b81526004016111329190611b9a565b60206040518083038186803b15801561114a57600080fd5b505afa15801561115e573d6000803e3d6000fd5b505050506040513d601f19601f8201168201806040525081019061118291906116d6565b801561121357508173ffffffffffffffffffffffffffffffffffffffff1663d7f1b27c306040518263ffffffff1660e01b81526004016111c29190611b9a565b60206040518083038186803b1580156111da57600080fd5b505afa1580156111ee573d6000803e3d6000fd5b505050506040513d601f19601f8201168201806040525081019061121291906116d6565b5b9050919050565b600080611226836112cb565b9050611231816112dc565b915050919050565b60008173ffffffffffffffffffffffffffffffffffffffff166353bae5f7306040518263ffffffff1660e01b81526004016112749190611b9a565b60206040518083038186803b15801561128c57600080fd5b505afa1580156112a0573d6000803e3d6000fd5b505050506040513d601f19601f820116820180604052508101906112c491906116d6565b9050919050565b600081805190602001209050919050565b60008061131f6000809054906101000a900473ffffffffffffffffffffffffffffffffffffffff1673ffffffffffffffffffffffffffffffffffffffff16611424565b73ffffffffffffffffffffffffffffffffffffffff1663e6d642c530856040518363ffffffff1660e01b8152600401611359929190611bb5565b60206040518083038186803b15801561137157600080fd5b505afa158015611385573d6000803e3d6000fd5b505050506040513d601f19601f820116820180604052508101906113a99190611646565b9050600073ffffffffffffffffffffffffffffffffffffffff168173ffffffffffffffffffffffffffffffffffffffff16141561141b576040517f08c379a000000000000000000000000000000000000000000000000000000000815260040161141290611cb4565b60405180910390fd5b80915050919050565b60008173ffffffffffffffffffffffffffffffffffffffff1663e765ced660006040518263ffffffff1660e01b81526004016114609190611d34565b60206040518083038186803b15801561147857600080fd5b505afa15801561148c573d6000803e3d6000fd5b505050506040513d601f19601f820116820180604052508101906114b09190611646565b9050919050565b6000813590506114c681611f1a565b92915050565b6000815190506114db81611f1a565b92915050565b6000813590506114f081611f31565b92915050565b60008151905061150581611f31565b92915050565b600082601f83011261151c57600080fd5b813561152f61152a82611dba565b611d8d565b9150808252602083016020830185838301111561154b57600080fd5b611556838284611ec7565b50505092915050565b600082601f83011261157057600080fd5b815161158361157e82611dba565b611d8d565b9150808252602083016020830185838301111561159f57600080fd5b6115aa838284611ed6565b50505092915050565b6000813590506115c281611f48565b92915050565b600082601f8301126115d957600080fd5b81356115ec6115e782611de6565b611d8d565b9150808252602083016020830185838301111561160857600080fd5b611613838284611ec7565b50505092915050565b60008135905061162b81611f5f565b92915050565b60008151905061164081611f5f565b92915050565b60006020828403121561165857600080fd5b6000611666848285016114cc565b91505092915050565b60008060006060848603121561168457600080fd5b6000611692868287016114cc565b93505060206116a386828701611631565b925050604084015167ffffffffffffffff8111156116c057600080fd5b6116cc8682870161155f565b9150509250925092565b6000602082840312156116e857600080fd5b60006116f6848285016114f6565b91505092915050565b60006020828403121561171157600080fd5b600082015167ffffffffffffffff81111561172b57600080fd5b6117378482850161155f565b91505092915050565b60006020828403121561175257600080fd5b6000611760848285016115b3565b91505092915050565b6000806040838503121561177c57600080fd5b600061178a858286016115b3565b925050602083013567ffffffffffffffff8111156117a757600080fd5b6117b3858286016115c8565b9150509250929050565b6000806000606084860312156117d257600080fd5b60006117e0868287016115b3565b935050602084013567ffffffffffffffff8111156117fd57600080fd5b611809868287016115c8565b925050604061181a868287016114b7565b9150509250925092565b60008060006060848603121561183957600080fd5b6000611847868287016115b3565b935050602084013567ffffffffffffffff81111561186457600080fd5b611870868287016115c8565b925050604084013567ffffffffffffffff81111561188d57600080fd5b6118998682870161150b565b9150509250925092565b600080600080600060a086880312156118bb57600080fd5b60006118c9888289016115b3565b955050602086013567ffffffffffffffff8111156118e657600080fd5b6118f2888289016115c8565b94505060406119038882890161161c565b9350506060611914888289016114e1565b925050608086013567ffffffffffffffff81111561193157600080fd5b61193d8882890161150b565b9150509295509295909350565b61195381611e3f565b82525050565b61196281611e51565b82525050565b61197181611e5d565b82525050565b600061198282611e12565b61198c8185611e1d565b935061199c818560208601611ed6565b6119a581611f09565b840191505092915050565b6119b981611ea3565b82525050565b60006119cc602883611e2e565b91507f4d75737420626520612076616c696420616e6420696e697469616c697a65642060008301527f536574546f6b656e0000000000000000000000000000000000000000000000006020830152604082019050919050565b6000611a32601e83611e2e565b91507f4d7573742062652070656e64696e6720696e697469616c697a6174696f6e00006000830152602082019050919050565b6000611a72601583611e2e565b91507f4d7573742062652076616c6964206164617074657200000000000000000000006000830152602082019050919050565b6000611ab2602383611e2e565b91507f4d75737420626520636f6e74726f6c6c65722d656e61626c656420536574546f60008301527f6b656e00000000000000000000000000000000000000000000000000000000006020830152604082019050919050565b6000611b18601c83611e2e565b91507f4d7573742062652074686520536574546f6b656e206d616e61676572000000006000830152602082019050919050565b6000611b58601f83611e2e565b91507f5265656e7472616e637947756172643a207265656e7472616e742063616c6c006000830152602082019050919050565b611b9481611e99565b82525050565b6000602082019050611baf600083018461194a565b92915050565b6000604082019050611bca600083018561194a565b611bd76020830184611968565b9392505050565b6000606082019050611bf3600083018661194a565b611c006020830185611b8b565b8181036040830152611c128184611977565b9050949350505050565b6000602082019050611c316000830184611959565b92915050565b60006020820190508181036000830152611c518184611977565b905092915050565b6000602082019050611c6e60008301846119b0565b92915050565b60006020820190508181036000830152611c8d816119bf565b9050919050565b60006020820190508181036000830152611cad81611a25565b9050919050565b60006020820190508181036000830152611ccd81611a65565b9050919050565b60006020820190508181036000830152611ced81611aa5565b9050919050565b60006020820190508181036000830152611d0d81611b0b565b9050919050565b60006020820190508181036000830152611d2d81611b4b565b9050919050565b6000602082019050611d496000830184611b8b565b92915050565b6000606082019050611d646000830186611b8b565b611d716020830185611959565b8181036040830152611d838184611977565b9050949350505050565b6000604051905081810181811067ffffffffffffffff82111715611db057600080fd5b8060405250919050565b600067ffffffffffffffff821115611dd157600080fd5b601f19601f8301169050602081019050919050565b600067ffffffffffffffff821115611dfd57600080fd5b601f19601f8301169050602081019050919050565b600081519050919050565b600082825260208201905092915050565b600082825260208201905092915050565b6000611e4a82611e79565b9050919050565b60008115159050919050565b6000819050919050565b6000611e7282611e3f565b9050919050565b600073ffffffffffffffffffffffffffffffffffffffff82169050919050565b6000819050919050565b6000611eae82611eb5565b9050919050565b6000611ec082611e79565b9050919050565b82818337600083830152505050565b60005b83811015611ef4578082015181840152602081019050611ed9565b83811115611f03576000848401525b50505050565b6000601f19601f8301169050919050565b611f2381611e3f565b8114611f2e57600080fd5b50565b611f3a81611e51565b8114611f4557600080fd5b50565b611f5181611e67565b8114611f5c57600080fd5b50565b611f6881611e99565b8114611f7357600080fd5b5056fea2646970667358221220df863974ebcba8635f83b01d7c9daddf3558fe3bcf2ca185326bc040aa082c2664736f6c634300060a0033",
  "immutableReferences": {},
  "source": "/*\n    Copyright 2020 Set Labs Inc.\n\n    Licensed under the Apache License, Version 2.0 (the \"License\");\n    you may not use this file except in compliance with the License.\n    You may obtain a copy of the License at\n\n    http://www.apache.org/licenses/LICENSE-2.0\n\n    Unless required by applicable law or agreed to in writing, software\n    distributed under the License is distributed on an \"AS IS\" BASIS,\n    WITHOUT WARRANTIES OR CONDITIONS OF ANY KIND, either express or implied.\n    See the License for the specific language governing permissions and\n    limitations under the License.\n\n    SPDX-License-Identifier: Apache License, Version 2.0\n*/\n\npragma solidity 0.6.10;\npragma experimental \"ABIEncoderV2\";\n\nimport { ReentrancyGuard } from \"@openzeppelin/contracts/utils/ReentrancyGuard.sol\";\n\nimport { IController } from \"../../interfaces/IController.sol\";\nimport { IGovernanceAdapter } from \"../../interfaces/IGovernanceAdapter.sol\";\nimport { Invoke } from \"../lib/Invoke.sol\";\nimport { ISetToken } from \"../../interfaces/ISetToken.sol\";\nimport { ModuleBase } from \"../lib/ModuleBase.sol\";\n\n\n/**\n * @title GovernanceModule\n * @author Set Protocol\n *\n * A smart contract module that enables participating in governance of component tokens held in the SetToken.\n * Examples of intended protocols include Compound, Uniswap, and Maker governance. \n */\ncontract GovernanceModule is ModuleBase, ReentrancyGuard {\n    using Invoke for ISetToken;\n\n    /* ============ Events ============ */\n    event ProposalVoted(\n        ISetToken indexed _setToken,\n        IGovernanceAdapter indexed _governanceAdapter,\n        uint256 indexed _proposalId,\n        bool _support\n    );\n\n    event VoteDelegated(\n        ISetToken indexed _setToken,\n        IGovernanceAdapter indexed _governanceAdapter,\n        address _delegatee\n    );\n\n    event ProposalCreated(\n        ISetToken indexed _setToken,\n        IGovernanceAdapter indexed _governanceAdapter,\n        bytes _proposalData\n    );\n\n    event RegistrationSubmitted(\n        ISetToken indexed _setToken,\n        IGovernanceAdapter indexed _governanceAdapter\n    );\n\n    event RegistrationRevoked(\n        ISetToken indexed _setToken,\n        IGovernanceAdapter indexed _governanceAdapter\n    );\n\n    /* ============ Constructor ============ */\n\n    constructor(IController _controller) public ModuleBase(_controller) {}\n\n    /* ============ External Functions ============ */\n\n    /**\n     * SET MANAGER ONLY. Delegate voting power to an Ethereum address. Note: for some governance adapters, delegating to self is\n     * equivalent to registering and delegating to zero address is revoking right to vote.\n     *\n     * @param _setToken                 Address of SetToken\n     * @param _governanceName           Human readable name of integration (e.g. COMPOUND) stored in the IntegrationRegistry\n     * @param _delegatee                Address of delegatee\n     */\n    function delegate(\n        ISetToken _setToken,\n        string memory _governanceName,\n        address _delegatee\n    )\n        external\n        nonReentrant\n        onlyManagerAndValidSet(_setToken)\n    {\n        IGovernanceAdapter governanceAdapter = IGovernanceAdapter(getAndValidateAdapter(_governanceName));\n\n        (\n            address targetExchange,\n            uint256 callValue,\n            bytes memory methodData\n        ) = governanceAdapter.getDelegateCalldata(_delegatee);\n\n        _setToken.invoke(targetExchange, callValue, methodData);\n\n        emit VoteDelegated(_setToken, governanceAdapter, _delegatee);\n    }\n\n    /**\n     * SET MANAGER ONLY. Create a new proposal for a specified governance protocol.\n     *\n     * @param _setToken                 Address of SetToken\n     * @param _governanceName           Human readable name of integration (e.g. COMPOUND) stored in the IntegrationRegistry\n     * @param _proposalData             Byte data of proposal to pass into governance adapter\n     */\n    function propose(\n        ISetToken _setToken,\n        string memory _governanceName,\n        bytes memory _proposalData\n    )\n        external\n        nonReentrant\n        onlyManagerAndValidSet(_setToken)\n    {\n        IGovernanceAdapter governanceAdapter = IGovernanceAdapter(getAndValidateAdapter(_governanceName));\n\n        (\n            address targetExchange,\n            uint256 callValue,\n            bytes memory methodData\n        ) = governanceAdapter.getProposeCalldata(_proposalData);\n\n        _setToken.invoke(targetExchange, callValue, methodData);\n\n        emit ProposalCreated(_setToken, governanceAdapter, _proposalData);\n    }\n\n    /**\n     * SET MANAGER ONLY. Register for voting for the SetToken\n     *\n     * @param _setToken                 Address of SetToken\n     * @param _governanceName           Human readable name of integration (e.g. COMPOUND) stored in the IntegrationRegistry\n     */\n    function register(\n        ISetToken _setToken,\n        string memory _governanceName\n    )\n        external\n        nonReentrant\n        onlyManagerAndValidSet(_setToken)\n    {\n        IGovernanceAdapter governanceAdapter = IGovernanceAdapter(getAndValidateAdapter(_governanceName));\n\n        (\n            address targetExchange,\n            uint256 callValue,\n            bytes memory methodData\n        ) = governanceAdapter.getRegisterCalldata(address(_setToken));\n\n        _setToken.invoke(targetExchange, callValue, methodData);\n\n        emit RegistrationSubmitted(_setToken, governanceAdapter);\n    }\n\n    /**\n     * SET MANAGER ONLY. Revoke voting for the SetToken\n     *\n     * @param _setToken                 Address of SetToken\n     * @param _governanceName           Human readable name of integration (e.g. COMPOUND) stored in the IntegrationRegistry\n     */\n    function revoke(\n        ISetToken _setToken,\n        string memory _governanceName\n    )\n        external\n        nonReentrant\n        onlyManagerAndValidSet(_setToken)\n    {\n        IGovernanceAdapter governanceAdapter = IGovernanceAdapter(getAndValidateAdapter(_governanceName));\n\n        (\n            address targetExchange,\n            uint256 callValue,\n            bytes memory methodData\n        ) = governanceAdapter.getRevokeCalldata();\n\n        _setToken.invoke(targetExchange, callValue, methodData);\n\n        emit RegistrationRevoked(_setToken, governanceAdapter);\n    }\n\n    /**\n     * SET MANAGER ONLY. Cast vote for a specific governance token held in the SetToken. Manager specifies whether to vote for or against\n     * a given proposal\n     *\n     * @param _setToken                 Address of SetToken\n     * @param _governanceName           Human readable name of integration (e.g. COMPOUND) stored in the IntegrationRegistry\n     * @param _proposalId               ID of the proposal to vote on\n     * @param _support                  Boolean indicating whether to support proposal\n     * @param _data                     Arbitrary bytes to be used to construct vote call data\n     */\n    function vote(\n        ISetToken _setToken,\n        string memory _governanceName,\n        uint256 _proposalId,\n        bool _support,\n        bytes memory _data\n    )\n        external\n        nonReentrant\n        onlyManagerAndValidSet(_setToken)\n    {\n        IGovernanceAdapter governanceAdapter = IGovernanceAdapter(getAndValidateAdapter(_governanceName));\n\n        (\n            address targetExchange,\n            uint256 callValue,\n            bytes memory methodData\n        ) = governanceAdapter.getVoteCalldata(\n            _proposalId,\n            _support,\n            _data\n        );\n\n        _setToken.invoke(targetExchange, callValue, methodData);\n\n        emit ProposalVoted(_setToken, governanceAdapter, _proposalId, _support);\n    }\n\n    /**\n     * Initializes this module to the SetToken. Only callable by the SetToken's manager.\n     *\n     * @param _setToken             Instance of the SetToken to issue\n     */\n    function initialize(ISetToken _setToken) external onlySetManager(_setToken, msg.sender) onlyValidAndPendingSet(_setToken) {\n        _setToken.initializeModule();\n    }\n\n    /**\n     * Removes this module from the SetToken, via call by the SetToken.\n     */\n    function removeModule() external override {}\n}",
  "sourcePath": "/Users/tahadhailey/Documents/top5/top5swap/swap/contracts/protocol/modules/GovernanceModule.sol",
  "compiler": {
    "name": "solc",
    "version": "0.6.10+commit.00c0fcaf.Emscripten.clang"
  },
  "schemaVersion": "3.2.1",
  "updatedAt": "2021-01-21T08:20:37.749Z",
  "devdoc": {
    "author": "Set Protocol A smart contract module that enables participating in governance of component tokens held in the SetToken. Examples of intended protocols include Compound, Uniswap, and Maker governance. ",
    "methods": {
      "delegate(address,string,address)": {
        "params": {
          "_delegatee": "Address of delegatee",
          "_governanceName": "Human readable name of integration (e.g. COMPOUND) stored in the IntegrationRegistry",
          "_setToken": "Address of SetToken"
        }
      },
      "initialize(address)": {
        "params": {
          "_setToken": "Instance of the SetToken to issue"
        }
      },
      "propose(address,string,bytes)": {
        "params": {
          "_governanceName": "Human readable name of integration (e.g. COMPOUND) stored in the IntegrationRegistry",
          "_proposalData": "Byte data of proposal to pass into governance adapter",
          "_setToken": "Address of SetToken"
        }
      },
      "register(address,string)": {
        "params": {
          "_governanceName": "Human readable name of integration (e.g. COMPOUND) stored in the IntegrationRegistry",
          "_setToken": "Address of SetToken"
        }
      },
      "revoke(address,string)": {
        "params": {
          "_governanceName": "Human readable name of integration (e.g. COMPOUND) stored in the IntegrationRegistry",
          "_setToken": "Address of SetToken"
        }
      },
      "vote(address,string,uint256,bool,bytes)": {
        "params": {
          "_data": "Arbitrary bytes to be used to construct vote call data",
          "_governanceName": "Human readable name of integration (e.g. COMPOUND) stored in the IntegrationRegistry",
          "_proposalId": "ID of the proposal to vote on",
          "_setToken": "Address of SetToken",
          "_support": "Boolean indicating whether to support proposal"
        }
      }
    },
    "title": "GovernanceModule"
  },
  "userdoc": {
    "methods": {
      "delegate(address,string,address)": {
        "notice": "SET MANAGER ONLY. Delegate voting power to an Ethereum address. Note: for some governance adapters, delegating to self is equivalent to registering and delegating to zero address is revoking right to vote."
      },
      "initialize(address)": {
        "notice": "Initializes this module to the SetToken. Only callable by the SetToken's manager."
      },
      "propose(address,string,bytes)": {
        "notice": "SET MANAGER ONLY. Create a new proposal for a specified governance protocol."
      },
      "register(address,string)": {
        "notice": "SET MANAGER ONLY. Register for voting for the SetToken"
      },
      "removeModule()": {
        "notice": "Removes this module from the SetToken, via call by the SetToken."
      },
      "revoke(address,string)": {
        "notice": "SET MANAGER ONLY. Revoke voting for the SetToken"
      },
      "vote(address,string,uint256,bool,bytes)": {
        "notice": "SET MANAGER ONLY. Cast vote for a specific governance token held in the SetToken. Manager specifies whether to vote for or against a given proposal"
      }
    }
  }
}