{
  "contractName": "IntegrationRegistry",
  "abi": [
    {
      "inputs": [
        {
          "internalType": "contract IController",
          "name": "_controller",
          "type": "address"
        }
      ],
      "stateMutability": "nonpayable",
      "type": "constructor"
    },
    {
      "anonymous": false,
      "inputs": [
        {
          "indexed": true,
          "internalType": "address",
          "name": "_module",
          "type": "address"
        },
        {
          "indexed": true,
          "internalType": "address",
          "name": "_adapter",
          "type": "address"
        },
        {
          "indexed": false,
          "internalType": "string",
          "name": "_integrationName",
          "type": "string"
        }
      ],
      "name": "IntegrationAdded",
      "type": "event"
    },
    {
      "anonymous": false,
      "inputs": [
        {
          "indexed": true,
          "internalType": "address",
          "name": "_module",
          "type": "address"
        },
        {
          "indexed": false,
          "internalType": "address",
          "name": "_newAdapter",
          "type": "address"
        },
        {
          "indexed": false,
          "internalType": "string",
          "name": "_integrationName",
          "type": "string"
        }
      ],
      "name": "IntegrationEdited",
      "type": "event"
    },
    {
      "anonymous": false,
      "inputs": [
        {
          "indexed": true,
          "internalType": "address",
          "name": "_module",
          "type": "address"
        },
        {
          "indexed": true,
          "internalType": "address",
          "name": "_adapter",
          "type": "address"
        },
        {
          "indexed": false,
          "internalType": "string",
          "name": "_integrationName",
          "type": "string"
        }
      ],
      "name": "IntegrationRemoved",
      "type": "event"
    },
    {
      "anonymous": false,
      "inputs": [
        {
          "indexed": true,
          "internalType": "address",
          "name": "previousOwner",
          "type": "address"
        },
        {
          "indexed": true,
          "internalType": "address",
          "name": "newOwner",
          "type": "address"
        }
      ],
      "name": "OwnershipTransferred",
      "type": "event"
    },
    {
      "inputs": [],
      "name": "controller",
      "outputs": [
        {
          "internalType": "contract IController",
          "name": "",
          "type": "address"
        }
      ],
      "stateMutability": "view",
      "type": "function"
    },
    {
      "inputs": [],
      "name": "owner",
      "outputs": [
        {
          "internalType": "address",
          "name": "",
          "type": "address"
        }
      ],
      "stateMutability": "view",
      "type": "function"
    },
    {
      "inputs": [],
      "name": "renounceOwnership",
      "outputs": [],
      "stateMutability": "nonpayable",
      "type": "function"
    },
    {
      "inputs": [
        {
          "internalType": "address",
          "name": "newOwner",
          "type": "address"
        }
      ],
      "name": "transferOwnership",
      "outputs": [],
      "stateMutability": "nonpayable",
      "type": "function"
    },
    {
      "inputs": [
        {
          "internalType": "address",
          "name": "_module",
          "type": "address"
        },
        {
          "internalType": "string",
          "name": "_name",
          "type": "string"
        },
        {
          "internalType": "address",
          "name": "_adapter",
          "type": "address"
        }
      ],
      "name": "addIntegration",
      "outputs": [],
      "stateMutability": "nonpayable",
      "type": "function"
    },
    {
      "inputs": [
        {
          "internalType": "address[]",
          "name": "_modules",
          "type": "address[]"
        },
        {
          "internalType": "string[]",
          "name": "_names",
          "type": "string[]"
        },
        {
          "internalType": "address[]",
          "name": "_adapters",
          "type": "address[]"
        }
      ],
      "name": "batchAddIntegration",
      "outputs": [],
      "stateMutability": "nonpayable",
      "type": "function"
    },
    {
      "inputs": [
        {
          "internalType": "address",
          "name": "_module",
          "type": "address"
        },
        {
          "internalType": "string",
          "name": "_name",
          "type": "string"
        },
        {
          "internalType": "address",
          "name": "_adapter",
          "type": "address"
        }
      ],
      "name": "editIntegration",
      "outputs": [],
      "stateMutability": "nonpayable",
      "type": "function"
    },
    {
      "inputs": [
        {
          "internalType": "address[]",
          "name": "_modules",
          "type": "address[]"
        },
        {
          "internalType": "string[]",
          "name": "_names",
          "type": "string[]"
        },
        {
          "internalType": "address[]",
          "name": "_adapters",
          "type": "address[]"
        }
      ],
      "name": "batchEditIntegration",
      "outputs": [],
      "stateMutability": "nonpayable",
      "type": "function"
    },
    {
      "inputs": [
        {
          "internalType": "address",
          "name": "_module",
          "type": "address"
        },
        {
          "internalType": "string",
          "name": "_name",
          "type": "string"
        }
      ],
      "name": "removeIntegration",
      "outputs": [],
      "stateMutability": "nonpayable",
      "type": "function"
    },
    {
      "inputs": [
        {
          "internalType": "address",
          "name": "_module",
          "type": "address"
        },
        {
          "internalType": "string",
          "name": "_name",
          "type": "string"
        }
      ],
      "name": "getIntegrationAdapter",
      "outputs": [
        {
          "internalType": "address",
          "name": "",
          "type": "address"
        }
      ],
      "stateMutability": "view",
      "type": "function"
    },
    {
      "inputs": [
        {
          "internalType": "address",
          "name": "_module",
          "type": "address"
        },
        {
          "internalType": "bytes32",
          "name": "_nameHash",
          "type": "bytes32"
        }
      ],
      "name": "getIntegrationAdapterWithHash",
      "outputs": [
        {
          "internalType": "address",
          "name": "",
          "type": "address"
        }
      ],
      "stateMutability": "view",
      "type": "function"
    },
    {
      "inputs": [
        {
          "internalType": "address",
          "name": "_module",
          "type": "address"
        },
        {
          "internalType": "string",
          "name": "_name",
          "type": "string"
        }
      ],
      "name": "isValidIntegration",
      "outputs": [
        {
          "internalType": "bool",
          "name": "",
          "type": "bool"
        }
      ],
      "stateMutability": "view",
      "type": "function"
    }
  ],
  "bytecode": "0x60806040523480156200001157600080fd5b50604051620021763803806200217683398181016040528101906200003791906200014e565b6000620000496200012f60201b60201c565b9050806000806101000a81548173ffffffffffffffffffffffffffffffffffffffff021916908373ffffffffffffffffffffffffffffffffffffffff1602179055508073ffffffffffffffffffffffffffffffffffffffff16600073ffffffffffffffffffffffffffffffffffffffff167f8be0079c531659141344cd1fd0a4f28419497f9722a3daafe3b4186f6b6457e060405160405180910390a35080600160006101000a81548173ffffffffffffffffffffffffffffffffffffffff021916908373ffffffffffffffffffffffffffffffffffffffff16021790555050620001dc565b600033905090565b6000815190506200014881620001c2565b92915050565b6000602082840312156200016157600080fd5b6000620001718482850162000137565b91505092915050565b60006200018782620001a2565b9050919050565b60006200019b826200017a565b9050919050565b600073ffffffffffffffffffffffffffffffffffffffff82169050919050565b620001cd816200018e565b8114620001d957600080fd5b50565b611f8a80620001ec6000396000f3fe608060405234801561001057600080fd5b50600436106100b45760003560e01c8063ad1f231611610071578063ad1f231614610179578063bdf5907514610195578063d9be0e12146101b1578063e6d642c5146101cd578063f2fde38b146101fd578063f77c479114610219576100b4565b8063639a3978146100b9578063715018a6146100e95780637a3d5b2a146100f35780638da5cb5b1461010f578063a19ba6dc1461012d578063a30945cb1461015d575b600080fd5b6100d360048036038101906100ce919061175b565b610237565b6040516100e09190611c13565b60405180910390f35b6100f16102e9565b005b61010d60048036038101906101089190611816565b61043e565b005b610117610609565b6040516101249190611bc8565b60405180910390f35b6101476004803603810190610142919061175b565b610632565b6040516101549190611bc8565b60405180910390f35b610177600480360381019061017291906117af565b6106b5565b005b610193600480360381019061018e91906117af565b610a8b565b005b6101af60048036038101906101aa9190611816565b610e4d565b005b6101cb60048036038101906101c6919061175b565b611018565b005b6101e760048036038101906101e2919061171f565b6112ee565b6040516101f49190611bc8565b60405180910390f35b610217600480360381019061021291906116f6565b611369565b005b61022161152d565b60405161022e9190611c2e565b60405180910390f35b60008073ffffffffffffffffffffffffffffffffffffffff16600260008573ffffffffffffffffffffffffffffffffffffffff1673ffffffffffffffffffffffffffffffffffffffff168152602001908152602001600020600061029a85611553565b815260200190815260200160002060009054906101000a900473ffffffffffffffffffffffffffffffffffffffff1673ffffffffffffffffffffffffffffffffffffffff161415905092915050565b6102f1611564565b73ffffffffffffffffffffffffffffffffffffffff166000809054906101000a900473ffffffffffffffffffffffffffffffffffffffff1673ffffffffffffffffffffffffffffffffffffffff161461037f576040517f08c379a000000000000000000000000000000000000000000000000000000000815260040161037690611ceb565b60405180910390fd5b600073ffffffffffffffffffffffffffffffffffffffff166000809054906101000a900473ffffffffffffffffffffffffffffffffffffffff1673ffffffffffffffffffffffffffffffffffffffff167f8be0079c531659141344cd1fd0a4f28419497f9722a3daafe3b4186f6b6457e060405160405180910390a360008060006101000a81548173ffffffffffffffffffffffffffffffffffffffff021916908373ffffffffffffffffffffffffffffffffffffffff160217905550565b610446611564565b73ffffffffffffffffffffffffffffffffffffffff166000809054906101000a900473ffffffffffffffffffffffffffffffffffffffff1673ffffffffffffffffffffffffffffffffffffffff16146104d4576040517f08c379a00000000000000000000000000000000000000000000000000000000081526004016104cb90611ceb565b60405180910390fd5b6000835190506000811161051d576040517f08c379a000000000000000000000000000000000000000000000000000000000815260040161051490611c8b565b60405180910390fd5b82518114610560576040517f08c379a000000000000000000000000000000000000000000000000000000000815260040161055790611d6b565b60405180910390fd5b815181146105a3576040517f08c379a000000000000000000000000000000000000000000000000000000000815260040161059a90611d0b565b60405180910390fd5b60008090505b81811015610602576105f58582815181106105c057fe5b60200260200101518583815181106105d457fe5b60200260200101518584815181106105e857fe5b60200260200101516106b5565b80806001019150506105a9565b5050505050565b60008060009054906101000a900473ffffffffffffffffffffffffffffffffffffffff16905090565b6000600260008473ffffffffffffffffffffffffffffffffffffffff1673ffffffffffffffffffffffffffffffffffffffff168152602001908152602001600020600061067e84611553565b815260200190815260200160002060009054906101000a900473ffffffffffffffffffffffffffffffffffffffff16905092915050565b6106bd611564565b73ffffffffffffffffffffffffffffffffffffffff166000809054906101000a900473ffffffffffffffffffffffffffffffffffffffff1673ffffffffffffffffffffffffffffffffffffffff161461074b576040517f08c379a000000000000000000000000000000000000000000000000000000000815260040161074290611ceb565b60405180910390fd5b600061075683611553565b9050600160009054906101000a900473ffffffffffffffffffffffffffffffffffffffff1673ffffffffffffffffffffffffffffffffffffffff166342f6e389856040518263ffffffff1660e01b81526004016107b39190611bc8565b60206040518083038186803b1580156107cb57600080fd5b505afa1580156107df573d6000803e3d6000fd5b505050506040513d601f19601f8201168201806040525081019061080391906118ad565b610842576040517f08c379a000000000000000000000000000000000000000000000000000000000815260040161083990611c6b565b60405180910390fd5b600073ffffffffffffffffffffffffffffffffffffffff16600260008673ffffffffffffffffffffffffffffffffffffffff1673ffffffffffffffffffffffffffffffffffffffff168152602001908152602001600020600083815260200190815260200160002060009054906101000a900473ffffffffffffffffffffffffffffffffffffffff1673ffffffffffffffffffffffffffffffffffffffff1614610921576040517f08c379a000000000000000000000000000000000000000000000000000000000815260040161091890611ccb565b60405180910390fd5b600073ffffffffffffffffffffffffffffffffffffffff168273ffffffffffffffffffffffffffffffffffffffff161415610991576040517f08c379a000000000000000000000000000000000000000000000000000000000815260040161098890611d2b565b60405180910390fd5b81600260008673ffffffffffffffffffffffffffffffffffffffff1673ffffffffffffffffffffffffffffffffffffffff168152602001908152602001600020600083815260200190815260200160002060006101000a81548173ffffffffffffffffffffffffffffffffffffffff021916908373ffffffffffffffffffffffffffffffffffffffff1602179055508173ffffffffffffffffffffffffffffffffffffffff168473ffffffffffffffffffffffffffffffffffffffff167f43640b154e7a2d5d196915068b6d815bb713d3263abf2a154581f32dab54890d85604051610a7d9190611c49565b60405180910390a350505050565b610a93611564565b73ffffffffffffffffffffffffffffffffffffffff166000809054906101000a900473ffffffffffffffffffffffffffffffffffffffff1673ffffffffffffffffffffffffffffffffffffffff1614610b21576040517f08c379a0000000000000000000000000000000000000000000000000000000008152600401610b1890611ceb565b60405180910390fd5b6000610b2c83611553565b9050600160009054906101000a900473ffffffffffffffffffffffffffffffffffffffff1673ffffffffffffffffffffffffffffffffffffffff166342f6e389856040518263ffffffff1660e01b8152600401610b899190611bc8565b60206040518083038186803b158015610ba157600080fd5b505afa158015610bb5573d6000803e3d6000fd5b505050506040513d601f19601f82011682018060405250810190610bd991906118ad565b610c18576040517f08c379a0000000000000000000000000000000000000000000000000000000008152600401610c0f90611c6b565b60405180910390fd5b600073ffffffffffffffffffffffffffffffffffffffff16600260008673ffffffffffffffffffffffffffffffffffffffff1673ffffffffffffffffffffffffffffffffffffffff168152602001908152602001600020600083815260200190815260200160002060009054906101000a900473ffffffffffffffffffffffffffffffffffffffff1673ffffffffffffffffffffffffffffffffffffffff161415610cf8576040517f08c379a0000000000000000000000000000000000000000000000000000000008152600401610cef90611d4b565b60405180910390fd5b600073ffffffffffffffffffffffffffffffffffffffff168273ffffffffffffffffffffffffffffffffffffffff161415610d68576040517f08c379a0000000000000000000000000000000000000000000000000000000008152600401610d5f90611d2b565b60405180910390fd5b81600260008673ffffffffffffffffffffffffffffffffffffffff1673ffffffffffffffffffffffffffffffffffffffff168152602001908152602001600020600083815260200190815260200160002060006101000a81548173ffffffffffffffffffffffffffffffffffffffff021916908373ffffffffffffffffffffffffffffffffffffffff1602179055508373ffffffffffffffffffffffffffffffffffffffff167fa2dbad778187774fb7e1aa28aa65a07b1f6fc3f3ad3eea64f843dacae9ed0e008385604051610e3f929190611be3565b60405180910390a250505050565b610e55611564565b73ffffffffffffffffffffffffffffffffffffffff166000809054906101000a900473ffffffffffffffffffffffffffffffffffffffff1673ffffffffffffffffffffffffffffffffffffffff1614610ee3576040517f08c379a0000000000000000000000000000000000000000000000000000000008152600401610eda90611ceb565b60405180910390fd5b60008351905060008111610f2c576040517f08c379a0000000000000000000000000000000000000000000000000000000008152600401610f2390611c8b565b60405180910390fd5b82518114610f6f576040517f08c379a0000000000000000000000000000000000000000000000000000000008152600401610f6690611d6b565b60405180910390fd5b81518114610fb2576040517f08c379a0000000000000000000000000000000000000000000000000000000008152600401610fa990611d0b565b60405180910390fd5b60008090505b8181101561101157611004858281518110610fcf57fe5b6020026020010151858381518110610fe357fe5b6020026020010151858481518110610ff757fe5b6020026020010151610a8b565b8080600101915050610fb8565b5050505050565b611020611564565b73ffffffffffffffffffffffffffffffffffffffff166000809054906101000a900473ffffffffffffffffffffffffffffffffffffffff1673ffffffffffffffffffffffffffffffffffffffff16146110ae576040517f08c379a00000000000000000000000000000000000000000000000000000000081526004016110a590611ceb565b60405180910390fd5b60006110b982611553565b9050600073ffffffffffffffffffffffffffffffffffffffff16600260008573ffffffffffffffffffffffffffffffffffffffff1673ffffffffffffffffffffffffffffffffffffffff168152602001908152602001600020600083815260200190815260200160002060009054906101000a900473ffffffffffffffffffffffffffffffffffffffff1673ffffffffffffffffffffffffffffffffffffffff16141561119b576040517f08c379a000000000000000000000000000000000000000000000000000000000815260040161119290611d4b565b60405180910390fd5b6000600260008573ffffffffffffffffffffffffffffffffffffffff1673ffffffffffffffffffffffffffffffffffffffff168152602001908152602001600020600083815260200190815260200160002060009054906101000a900473ffffffffffffffffffffffffffffffffffffffff169050600260008573ffffffffffffffffffffffffffffffffffffffff1673ffffffffffffffffffffffffffffffffffffffff168152602001908152602001600020600083815260200190815260200160002060006101000a81549073ffffffffffffffffffffffffffffffffffffffff02191690558073ffffffffffffffffffffffffffffffffffffffff168473ffffffffffffffffffffffffffffffffffffffff167f824b40f41a4e550651acdd3e4f51be3b80092c952b2ae347cab6930b5a6f50fc856040516112e09190611c49565b60405180910390a350505050565b6000600260008473ffffffffffffffffffffffffffffffffffffffff1673ffffffffffffffffffffffffffffffffffffffff168152602001908152602001600020600083815260200190815260200160002060009054906101000a900473ffffffffffffffffffffffffffffffffffffffff16905092915050565b611371611564565b73ffffffffffffffffffffffffffffffffffffffff166000809054906101000a900473ffffffffffffffffffffffffffffffffffffffff1673ffffffffffffffffffffffffffffffffffffffff16146113ff576040517f08c379a00000000000000000000000000000000000000000000000000000000081526004016113f690611ceb565b60405180910390fd5b600073ffffffffffffffffffffffffffffffffffffffff168173ffffffffffffffffffffffffffffffffffffffff16141561146f576040517f08c379a000000000000000000000000000000000000000000000000000000000815260040161146690611cab565b60405180910390fd5b8073ffffffffffffffffffffffffffffffffffffffff166000809054906101000a900473ffffffffffffffffffffffffffffffffffffffff1673ffffffffffffffffffffffffffffffffffffffff167f8be0079c531659141344cd1fd0a4f28419497f9722a3daafe3b4186f6b6457e060405160405180910390a3806000806101000a81548173ffffffffffffffffffffffffffffffffffffffff021916908373ffffffffffffffffffffffffffffffffffffffff16021790555050565b600160009054906101000a900473ffffffffffffffffffffffffffffffffffffffff1681565b600081805190602001209050919050565b600033905090565b60008135905061157b81611f0f565b92915050565b600082601f83011261159257600080fd5b81356115a56115a082611db8565b611d8b565b915081818352602084019350602081019050838560208402820111156115ca57600080fd5b60005b838110156115fa57816115e0888261156c565b8452602084019350602083019250506001810190506115cd565b5050505092915050565b600082601f83011261161557600080fd5b813561162861162382611de0565b611d8b565b9150818183526020840193506020810190508360005b8381101561166e578135860161165488826116a2565b84526020840193506020830192505060018101905061163e565b5050505092915050565b60008151905061168781611f26565b92915050565b60008135905061169c81611f3d565b92915050565b600082601f8301126116b357600080fd5b81356116c66116c182611e08565b611d8b565b915080825260208301602083018583830111156116e257600080fd5b6116ed838284611ebc565b50505092915050565b60006020828403121561170857600080fd5b60006117168482850161156c565b91505092915050565b6000806040838503121561173257600080fd5b60006117408582860161156c565b92505060206117518582860161168d565b9150509250929050565b6000806040838503121561176e57600080fd5b600061177c8582860161156c565b925050602083013567ffffffffffffffff81111561179957600080fd5b6117a5858286016116a2565b9150509250929050565b6000806000606084860312156117c457600080fd5b60006117d28682870161156c565b935050602084013567ffffffffffffffff8111156117ef57600080fd5b6117fb868287016116a2565b925050604061180c8682870161156c565b9150509250925092565b60008060006060848603121561182b57600080fd5b600084013567ffffffffffffffff81111561184557600080fd5b61185186828701611581565b935050602084013567ffffffffffffffff81111561186e57600080fd5b61187a86828701611604565b925050604084013567ffffffffffffffff81111561189757600080fd5b6118a386828701611581565b9150509250925092565b6000602082840312156118bf57600080fd5b60006118cd84828501611678565b91505092915050565b6118df81611e50565b82525050565b6118ee81611e62565b82525050565b6118fd81611e98565b82525050565b600061190e82611e34565b6119188185611e3f565b9350611928818560208601611ecb565b61193181611efe565b840191505092915050565b6000611949601583611e3f565b91507f4d7573742062652076616c6964206d6f64756c652e00000000000000000000006000830152602082019050919050565b6000611989601983611e3f565b91507f4d6f64756c6573206d757374206e6f7420626520656d707479000000000000006000830152602082019050919050565b60006119c9602683611e3f565b91507f4f776e61626c653a206e6577206f776e657220697320746865207a65726f206160008301527f64647265737300000000000000000000000000000000000000000000000000006020830152604082019050919050565b6000611a2f601b83611e3f565b91507f496e746567726174696f6e2065786973747320616c72656164792e00000000006000830152602082019050919050565b6000611a6f602083611e3f565b91507f4f776e61626c653a2063616c6c6572206973206e6f7420746865206f776e65726000830152602082019050919050565b6000611aaf602383611e3f565b91507f4d6f64756c6520616e642061646170746572206c656e67746873206d69736d6160008301527f74636800000000000000000000000000000000000000000000000000000000006020830152604082019050919050565b6000611b15601b83611e3f565b91507f416461707465722061646472657373206d7573742065786973742e00000000006000830152602082019050919050565b6000611b55601b83611e3f565b91507f496e746567726174696f6e20646f6573206e6f742065786973742e00000000006000830152602082019050919050565b6000611b95602083611e3f565b91507f4d6f64756c6520616e64206e616d65206c656e67746873206d69736d617463686000830152602082019050919050565b6000602082019050611bdd60008301846118d6565b92915050565b6000604082019050611bf860008301856118d6565b8181036020830152611c0a8184611903565b90509392505050565b6000602082019050611c2860008301846118e5565b92915050565b6000602082019050611c4360008301846118f4565b92915050565b60006020820190508181036000830152611c638184611903565b905092915050565b60006020820190508181036000830152611c848161193c565b9050919050565b60006020820190508181036000830152611ca48161197c565b9050919050565b60006020820190508181036000830152611cc4816119bc565b9050919050565b60006020820190508181036000830152611ce481611a22565b9050919050565b60006020820190508181036000830152611d0481611a62565b9050919050565b60006020820190508181036000830152611d2481611aa2565b9050919050565b60006020820190508181036000830152611d4481611b08565b9050919050565b60006020820190508181036000830152611d6481611b48565b9050919050565b60006020820190508181036000830152611d8481611b88565b9050919050565b6000604051905081810181811067ffffffffffffffff82111715611dae57600080fd5b8060405250919050565b600067ffffffffffffffff821115611dcf57600080fd5b602082029050602081019050919050565b600067ffffffffffffffff821115611df757600080fd5b602082029050602081019050919050565b600067ffffffffffffffff821115611e1f57600080fd5b601f19601f8301169050602081019050919050565b600081519050919050565b600082825260208201905092915050565b6000611e5b82611e78565b9050919050565b60008115159050919050565b6000819050919050565b600073ffffffffffffffffffffffffffffffffffffffff82169050919050565b6000611ea382611eaa565b9050919050565b6000611eb582611e78565b9050919050565b82818337600083830152505050565b60005b83811015611ee9578082015181840152602081019050611ece565b83811115611ef8576000848401525b50505050565b6000601f19601f8301169050919050565b611f1881611e50565b8114611f2357600080fd5b50565b611f2f81611e62565b8114611f3a57600080fd5b50565b611f4681611e6e565b8114611f5157600080fd5b5056fea2646970667358221220e86b60bbdebdeb5e046e1bb471f8b3b5b13c4387ffa5509462674d3e21c799ce64736f6c634300060a0033",
  "immutableReferences": {},
  "source": "/*\n    Copyright 2020 Set Labs Inc.\n\n    Licensed under the Apache License, Version 2.0 (the \"License\");\n    you may not use this file except in compliance with the License.\n    You may obtain a copy of the License at\n\n    http://www.apache.org/licenses/LICENSE-2.0\n\n    Unless required by applicable law or agreed to in writing, software\n    distributed under the License is distributed on an \"AS IS\" BASIS,\n    WITHOUT WARRANTIES OR CONDITIONS OF ANY KIND, either express or implied.\n    See the License for the specific language governing permissions and\n    limitations under the License.\n\n    SPDX-License-Identifier: Apache License, Version 2.0\n*/\n\npragma solidity 0.6.10;\npragma experimental ABIEncoderV2;\n\nimport { IController } from \"../interfaces/IController.sol\";\nimport { Ownable } from \"@openzeppelin/contracts/access/Ownable.sol\";\n\n/**\n * @title IntegrationRegistry\n * @author Set Protocol\n *\n * The IntegrationRegistry holds state relating to the Modules and the integrations they are connected with.\n * The state is combined into a single Registry to allow governance updates to be aggregated to one contract.\n */\ncontract IntegrationRegistry is Ownable {\n\n    /* ============ Events ============ */\n\n    event IntegrationAdded(address indexed _module, address indexed _adapter, string _integrationName);\n    event IntegrationRemoved(address indexed _module, address indexed _adapter, string _integrationName);\n    event IntegrationEdited(\n        address indexed _module,\n        address _newAdapter,\n        string _integrationName\n    );\n\n    /* ============ State Variables ============ */\n\n    // Address of the Controller contract\n    IController public controller;\n\n    // Mapping of module => integration identifier => adapter address\n    mapping(address => mapping(bytes32 => address)) private integrations;\n\n    /* ============ Constructor ============ */\n\n    /**\n     * Initializes the controller\n     *\n     * @param _controller          Instance of the controller\n     */\n    constructor(IController _controller) public {\n        controller = _controller;\n    }\n\n    /* ============ External Functions ============ */\n\n    /**\n     * GOVERNANCE FUNCTION: Add a new integration to the registry\n     *\n     * @param  _module       The address of the module associated with the integration\n     * @param  _name         Human readable string identifying the integration\n     * @param  _adapter      Address of the adapter contract to add\n     */\n    function addIntegration(\n        address _module,\n        string memory _name,\n        address _adapter\n    )\n        public\n        onlyOwner\n    {\n        bytes32 hashedName = _nameHash(_name);\n        require(controller.isModule(_module), \"Must be valid module.\");\n        require(integrations[_module][hashedName] == address(0), \"Integration exists already.\");\n        require(_adapter != address(0), \"Adapter address must exist.\");\n\n        integrations[_module][hashedName] = _adapter;\n\n        emit IntegrationAdded(_module, _adapter, _name);\n    }\n\n    /**\n     * GOVERNANCE FUNCTION: Batch add new adapters. Reverts if exists on any module and name\n     *\n     * @param  _modules      Array of addresses of the modules associated with integration\n     * @param  _names        Array of human readable strings identifying the integration\n     * @param  _adapters     Array of addresses of the adapter contracts to add\n     */\n    function batchAddIntegration(\n        address[] memory _modules,\n        string[] memory _names,\n        address[] memory _adapters\n    )\n        external\n        onlyOwner\n    {\n        // Storing modules count to local variable to save on invocation\n        uint256 modulesCount = _modules.length;\n\n        require(modulesCount > 0, \"Modules must not be empty\");\n        require(modulesCount == _names.length, \"Module and name lengths mismatch\");\n        require(modulesCount == _adapters.length, \"Module and adapter lengths mismatch\");\n\n        for (uint256 i = 0; i < modulesCount; i++) {\n            // Add integrations to the specified module. Will revert if module and name combination exists\n            addIntegration(\n                _modules[i],\n                _names[i],\n                _adapters[i]\n            );\n        }\n    }\n\n    /**\n     * GOVERNANCE FUNCTION: Edit an existing integration on the registry\n     *\n     * @param  _module       The address of the module associated with the integration\n     * @param  _name         Human readable string identifying the integration\n     * @param  _adapter      Address of the adapter contract to edit\n     */\n    function editIntegration(\n        address _module,\n        string memory _name,\n        address _adapter\n    )\n        public\n        onlyOwner\n    {\n        bytes32 hashedName = _nameHash(_name);\n\n        require(controller.isModule(_module), \"Must be valid module.\");\n        require(integrations[_module][hashedName] != address(0), \"Integration does not exist.\");\n        require(_adapter != address(0), \"Adapter address must exist.\");\n\n        integrations[_module][hashedName] = _adapter;\n\n        emit IntegrationEdited(_module, _adapter, _name);\n    }\n\n    /**\n     * GOVERNANCE FUNCTION: Batch edit adapters for modules. Reverts if module and\n     * adapter name don't map to an adapter address\n     *\n     * @param  _modules      Array of addresses of the modules associated with integration\n     * @param  _names        Array of human readable strings identifying the integration\n     * @param  _adapters     Array of addresses of the adapter contracts to add\n     */\n    function batchEditIntegration(\n        address[] memory _modules,\n        string[] memory _names,\n        address[] memory _adapters\n    )\n        external\n        onlyOwner\n    {\n        // Storing name count to local variable to save on invocation\n        uint256 modulesCount = _modules.length;\n\n        require(modulesCount > 0, \"Modules must not be empty\");\n        require(modulesCount == _names.length, \"Module and name lengths mismatch\");\n        require(modulesCount == _adapters.length, \"Module and adapter lengths mismatch\");\n\n        for (uint256 i = 0; i < modulesCount; i++) {\n            // Edits integrations to the specified module. Will revert if module and name combination does not exist\n            editIntegration(\n                _modules[i],\n                _names[i],\n                _adapters[i]\n            );\n        }\n    }\n\n    /**\n     * GOVERNANCE FUNCTION: Remove an existing integration on the registry\n     *\n     * @param  _module       The address of the module associated with the integration\n     * @param  _name         Human readable string identifying the integration\n     */\n    function removeIntegration(address _module, string memory _name) external onlyOwner {\n        bytes32 hashedName = _nameHash(_name);\n        require(integrations[_module][hashedName] != address(0), \"Integration does not exist.\");\n\n        address oldAdapter = integrations[_module][hashedName];\n        delete integrations[_module][hashedName];\n\n        emit IntegrationRemoved(_module, oldAdapter, _name);\n    }\n\n    /* ============ External Getter Functions ============ */\n\n    /**\n     * Get integration adapter address associated with passed human readable name\n     *\n     * @param  _module       The address of the module associated with the integration\n     * @param  _name         Human readable adapter name\n     *\n     * @return               Address of adapter\n     */\n    function getIntegrationAdapter(address _module, string memory _name) external view returns (address) {\n        return integrations[_module][_nameHash(_name)];\n    }\n\n    /**\n     * Get integration adapter address associated with passed hashed name\n     *\n     * @param  _module       The address of the module associated with the integration\n     * @param  _nameHash     Hash of human readable adapter name\n     *\n     * @return               Address of adapter\n     */\n    function getIntegrationAdapterWithHash(address _module, bytes32 _nameHash) external view returns (address) {\n        return integrations[_module][_nameHash];\n    }\n\n    /**\n     * Check if adapter name is valid\n     *\n     * @param  _module       The address of the module associated with the integration\n     * @param  _name         Human readable string identifying the integration\n     *\n     * @return               Boolean indicating if valid\n     */\n    function isValidIntegration(address _module, string memory _name) external view returns (bool) {\n        return integrations[_module][_nameHash(_name)] != address(0);\n    }\n\n    /* ============ Internal Functions ============ */\n\n    /**\n     * Hashes the string and returns a bytes32 value\n     */\n    function _nameHash(string memory _name) internal pure returns(bytes32) {\n        return keccak256(bytes(_name));\n    }\n}",
  "sourcePath": "/Users/tahadhailey/Documents/top5/top5swap/swap/contracts/protocol/IntegrationRegistry.sol",
  "compiler": {
    "name": "solc",
    "version": "0.6.10+commit.00c0fcaf.Emscripten.clang"
  },
  "schemaVersion": "3.2.1",
  "updatedAt": "2021-01-21T08:20:37.657Z",
  "devdoc": {
    "author": "Set Protocol The IntegrationRegistry holds state relating to the Modules and the integrations they are connected with. The state is combined into a single Registry to allow governance updates to be aggregated to one contract.",
    "methods": {
      "addIntegration(address,string,address)": {
        "params": {
          "_adapter": "Address of the adapter contract to add",
          "_module": "The address of the module associated with the integration",
          "_name": "Human readable string identifying the integration"
        }
      },
      "batchAddIntegration(address[],string[],address[])": {
        "params": {
          "_adapters": "Array of addresses of the adapter contracts to add",
          "_modules": "Array of addresses of the modules associated with integration",
          "_names": "Array of human readable strings identifying the integration"
        }
      },
      "batchEditIntegration(address[],string[],address[])": {
        "params": {
          "_adapters": "Array of addresses of the adapter contracts to add",
          "_modules": "Array of addresses of the modules associated with integration",
          "_names": "Array of human readable strings identifying the integration"
        }
      },
      "constructor": {
        "params": {
          "_controller": "Instance of the controller"
        }
      },
      "editIntegration(address,string,address)": {
        "params": {
          "_adapter": "Address of the adapter contract to edit",
          "_module": "The address of the module associated with the integration",
          "_name": "Human readable string identifying the integration"
        }
      },
      "getIntegrationAdapter(address,string)": {
        "params": {
          "_module": "The address of the module associated with the integration",
          "_name": "Human readable adapter name"
        },
        "returns": {
          "_0": "Address of adapter"
        }
      },
      "getIntegrationAdapterWithHash(address,bytes32)": {
        "params": {
          "_module": "The address of the module associated with the integration",
          "_nameHash": "Hash of human readable adapter name"
        },
        "returns": {
          "_0": "Address of adapter"
        }
      },
      "isValidIntegration(address,string)": {
        "params": {
          "_module": "The address of the module associated with the integration",
          "_name": "Human readable string identifying the integration"
        },
        "returns": {
          "_0": "Boolean indicating if valid"
        }
      },
      "owner()": {
        "details": "Returns the address of the current owner."
      },
      "removeIntegration(address,string)": {
        "params": {
          "_module": "The address of the module associated with the integration",
          "_name": "Human readable string identifying the integration"
        }
      },
      "renounceOwnership()": {
        "details": "Leaves the contract without owner. It will not be possible to call `onlyOwner` functions anymore. Can only be called by the current owner. NOTE: Renouncing ownership will leave the contract without an owner, thereby removing any functionality that is only available to the owner."
      },
      "transferOwnership(address)": {
        "details": "Transfers ownership of the contract to a new account (`newOwner`). Can only be called by the current owner."
      }
    },
    "title": "IntegrationRegistry"
  },
  "userdoc": {
    "methods": {
      "addIntegration(address,string,address)": {
        "notice": "GOVERNANCE FUNCTION: Add a new integration to the registry"
      },
      "batchAddIntegration(address[],string[],address[])": {
        "notice": "GOVERNANCE FUNCTION: Batch add new adapters. Reverts if exists on any module and name"
      },
      "batchEditIntegration(address[],string[],address[])": {
        "notice": "GOVERNANCE FUNCTION: Batch edit adapters for modules. Reverts if module and adapter name don't map to an adapter address"
      },
      "constructor": "Initializes the controller",
      "editIntegration(address,string,address)": {
        "notice": "GOVERNANCE FUNCTION: Edit an existing integration on the registry"
      },
      "getIntegrationAdapter(address,string)": {
        "notice": "Get integration adapter address associated with passed human readable name"
      },
      "getIntegrationAdapterWithHash(address,bytes32)": {
        "notice": "Get integration adapter address associated with passed hashed name"
      },
      "isValidIntegration(address,string)": {
        "notice": "Check if adapter name is valid"
      },
      "removeIntegration(address,string)": {
        "notice": "GOVERNANCE FUNCTION: Remove an existing integration on the registry"
      }
    }
  }
}