{
  "contractName": "IssuanceModule",
  "abi": [
    {
      "inputs": [
        {
          "internalType": "contract IController",
          "name": "_controller",
          "type": "address"
        }
      ],
      "stateMutability": "nonpayable",
      "type": "constructor"
    },
    {
      "anonymous": false,
      "inputs": [
        {
          "indexed": true,
          "internalType": "address",
          "name": "_setToken",
          "type": "address"
        },
        {
          "indexed": false,
          "internalType": "address",
          "name": "_issuer",
          "type": "address"
        },
        {
          "indexed": false,
          "internalType": "address",
          "name": "_to",
          "type": "address"
        },
        {
          "indexed": false,
          "internalType": "address",
          "name": "_hookContract",
          "type": "address"
        },
        {
          "indexed": false,
          "internalType": "uint256",
          "name": "_quantity",
          "type": "uint256"
        }
      ],
      "name": "SetTokenIssued",
      "type": "event"
    },
    {
      "anonymous": false,
      "inputs": [
        {
          "indexed": true,
          "internalType": "address",
          "name": "_setToken",
          "type": "address"
        },
        {
          "indexed": false,
          "internalType": "address",
          "name": "_redeemer",
          "type": "address"
        },
        {
          "indexed": false,
          "internalType": "address",
          "name": "_to",
          "type": "address"
        },
        {
          "indexed": false,
          "internalType": "uint256",
          "name": "_quantity",
          "type": "uint256"
        }
      ],
      "name": "SetTokenRedeemed",
      "type": "event"
    },
    {
      "inputs": [],
      "name": "controller",
      "outputs": [
        {
          "internalType": "contract IController",
          "name": "",
          "type": "address"
        }
      ],
      "stateMutability": "view",
      "type": "function"
    },
    {
      "inputs": [
        {
          "internalType": "contract ISetToken",
          "name": "",
          "type": "address"
        }
      ],
      "name": "managerIssuanceHook",
      "outputs": [
        {
          "internalType": "contract IManagerIssuanceHook",
          "name": "",
          "type": "address"
        }
      ],
      "stateMutability": "view",
      "type": "function"
    },
    {
      "inputs": [
        {
          "internalType": "contract ISetToken",
          "name": "_setToken",
          "type": "address"
        },
        {
          "internalType": "uint256",
          "name": "_quantity",
          "type": "uint256"
        },
        {
          "internalType": "address",
          "name": "_to",
          "type": "address"
        }
      ],
      "name": "issue",
      "outputs": [],
      "stateMutability": "nonpayable",
      "type": "function"
    },
    {
      "inputs": [
        {
          "internalType": "contract ISetToken",
          "name": "_setToken",
          "type": "address"
        },
        {
          "internalType": "uint256",
          "name": "_quantity",
          "type": "uint256"
        },
        {
          "internalType": "address",
          "name": "_to",
          "type": "address"
        }
      ],
      "name": "redeem",
      "outputs": [],
      "stateMutability": "nonpayable",
      "type": "function"
    },
    {
      "inputs": [
        {
          "internalType": "contract ISetToken",
          "name": "_setToken",
          "type": "address"
        },
        {
          "internalType": "contract IManagerIssuanceHook",
          "name": "_preIssueHook",
          "type": "address"
        }
      ],
      "name": "initialize",
      "outputs": [],
      "stateMutability": "nonpayable",
      "type": "function"
    },
    {
      "inputs": [],
      "name": "removeModule",
      "outputs": [],
      "stateMutability": "nonpayable",
      "type": "function"
    },
    {
      "inputs": [
        {
          "internalType": "contract ISetToken",
          "name": "_setToken",
          "type": "address"
        },
        {
          "internalType": "uint256",
          "name": "_quantity",
          "type": "uint256"
        },
        {
          "internalType": "bool",
          "name": "_isIssue",
          "type": "bool"
        }
      ],
      "name": "getRequiredComponentIssuanceUnits",
      "outputs": [
        {
          "internalType": "address[]",
          "name": "",
          "type": "address[]"
        },
        {
          "internalType": "uint256[]",
          "name": "",
          "type": "uint256[]"
        }
      ],
      "stateMutability": "view",
      "type": "function"
    }
  ],
  "bytecode": "0x60806040523480156200001157600080fd5b506040516200325c3803806200325c83398181016040528101906200003791906200009e565b80806000806101000a81548173ffffffffffffffffffffffffffffffffffffffff021916908373ffffffffffffffffffffffffffffffffffffffff1602179055505060018081905550506200012c565b600081519050620000988162000112565b92915050565b600060208284031215620000b157600080fd5b6000620000c18482850162000087565b91505092915050565b6000620000d782620000f2565b9050919050565b6000620000eb82620000ca565b9050919050565b600073ffffffffffffffffffffffffffffffffffffffff82169050919050565b6200011d81620000de565b81146200012957600080fd5b50565b613120806200013c6000396000f3fe608060405234801561001057600080fd5b506004361061007d5760003560e01c8063847ef08d1161005b578063847ef08d146100d6578063dfe75335146100e0578063f1ca6a3f14610110578063f77c4791146101415761007d565b8063485cc955146100825780635c833bfd1461009e5780636d78f47a146100ba575b600080fd5b61009c60048036038101906100979190612041565b61015f565b005b6100b860048036038101906100b3919061207d565b6103c1565b005b6100d460048036038101906100cf919061207d565b61060c565b005b6100de610849565b005b6100fa60048036038101906100f59190612018565b610884565b6040516101079190612ae3565b60405180910390f35b61012a600480360381019061012591906120cc565b6108b7565b604051610138929190612a91565b60405180910390f35b6101496109b3565b6040516101569190612ac8565b60405180910390f35b813361016b82826109d8565b6101aa576040517f08c379a00000000000000000000000000000000000000000000000000000000081526004016101a190612d3c565b60405180910390fd5b836000809054906101000a900473ffffffffffffffffffffffffffffffffffffffff1673ffffffffffffffffffffffffffffffffffffffff166374ebe3ec826040518263ffffffff1660e01b8152600401610205919061290a565b60206040518083038186803b15801561021d57600080fd5b505afa158015610231573d6000803e3d6000fd5b505050506040513d601f19601f820116820180604052508101906102559190611fae565b610294576040517f08c379a000000000000000000000000000000000000000000000000000000000815260040161028b90612d1c565b60405180910390fd5b61029d81610a8e565b6102dc576040517f08c379a00000000000000000000000000000000000000000000000000000000081526004016102d390612bfc565b60405180910390fd5b83600260008773ffffffffffffffffffffffffffffffffffffffff1673ffffffffffffffffffffffffffffffffffffffff16815260200190815260200160002060006101000a81548173ffffffffffffffffffffffffffffffffffffffff021916908373ffffffffffffffffffffffffffffffffffffffff1602179055508473ffffffffffffffffffffffffffffffffffffffff16630ffe0f1e6040518163ffffffff1660e01b8152600401600060405180830381600087803b1580156103a257600080fd5b505af11580156103b6573d6000803e3d6000fd5b505050505050505050565b60026001541415610407576040517f08c379a00000000000000000000000000000000000000000000000000000000081526004016103fe90612d7c565b60405180910390fd5b60026001819055508261041981610b20565b610458576040517f08c379a000000000000000000000000000000000000000000000000000000000815260040161044f90612b9c565b60405180910390fd5b6000831161049b576040517f08c379a000000000000000000000000000000000000000000000000000000000815260040161049290612bbc565b60405180910390fd5b8373ffffffffffffffffffffffffffffffffffffffff16639dc29fac33856040518363ffffffff1660e01b81526004016104d69291906129a1565b600060405180830381600087803b1580156104f057600080fd5b505af1158015610504573d6000803e3d6000fd5b50505050606080610517868660006108b7565b9150915060008090505b82518110156105aa5761054a878785848151811061053b57fe5b60200260200101516000610c64565b61059d83828151811061055957fe5b60200260200101518684848151811061056e57fe5b60200260200101518a73ffffffffffffffffffffffffffffffffffffffff16610e2a909392919063ffffffff16565b8080600101915050610521565b508573ffffffffffffffffffffffffffffffffffffffff167f05f8aaada00823525432114f0e904c6f7c0198a5b8f113ee635ff81aaf9566ad3386886040516105f59392919061296a565b60405180910390a250505060018081905550505050565b60026001541415610652576040517f08c379a000000000000000000000000000000000000000000000000000000000815260040161064990612d7c565b60405180910390fd5b60026001819055508261066481610b20565b6106a3576040517f08c379a000000000000000000000000000000000000000000000000000000000815260040161069a90612b9c565b60405180910390fd5b600083116106e6576040517f08c379a00000000000000000000000000000000000000000000000000000000081526004016106dd90612c1c565b60405180910390fd5b60006106f485853386610fb6565b9050606080610705878760016108b7565b9150915060008090505b82518110156107775761074a83828151811061072757fe5b6020026020010151338a85858151811061073d57fe5b60200260200101516110d7565b61076a888885848151811061075b57fe5b60200260200101516001610c64565b808060010191505061070f565b508673ffffffffffffffffffffffffffffffffffffffff166340c10f1986886040518363ffffffff1660e01b81526004016107b3929190612a68565b600060405180830381600087803b1580156107cd57600080fd5b505af11580156107e1573d6000803e3d6000fd5b505050508673ffffffffffffffffffffffffffffffffffffffff167fc07f1e2fe31c4d90eae81f76d263d7995aac043a99d6ee6de9c0506047f541c23387868a6040516108319493929190612925565b60405180910390a25050505060018081905550505050565b6040517f08c379a000000000000000000000000000000000000000000000000000000000815260040161087b90612cdc565b60405180910390fd5b60026020528060005260406000206000915054906101000a900473ffffffffffffffffffffffffffffffffffffffff1681565b6060806060806108c6876110e9565b915091506060825167ffffffffffffffff811180156108e457600080fd5b506040519080825280602002602001820160405280156109135781602001602082028036833780820191505090505b50905060008090505b82518110156109a15786610955576109508884838151811061093a57fe5b602002602001015161146790919063ffffffff16565b61097c565b61097b8884838151811061096557fe5b602002602001015161149e90919063ffffffff16565b5b82828151811061098857fe5b602002602001018181525050808060010191505061091c565b50828194509450505050935093915050565b6000809054906101000a900473ffffffffffffffffffffffffffffffffffffffff1681565b60008173ffffffffffffffffffffffffffffffffffffffff168373ffffffffffffffffffffffffffffffffffffffff1663481c6a756040518163ffffffff1660e01b815260040160206040518083038186803b158015610a3757600080fd5b505afa158015610a4b573d6000803e3d6000fd5b505050506040513d601f19601f82011682018060405250810190610a6f9190611f44565b73ffffffffffffffffffffffffffffffffffffffff1614905092915050565b60008173ffffffffffffffffffffffffffffffffffffffff166353bae5f7306040518263ffffffff1660e01b8152600401610ac9919061290a565b60206040518083038186803b158015610ae157600080fd5b505afa158015610af5573d6000803e3d6000fd5b505050506040513d601f19601f82011682018060405250810190610b199190611fae565b9050919050565b60008060009054906101000a900473ffffffffffffffffffffffffffffffffffffffff1673ffffffffffffffffffffffffffffffffffffffff166374ebe3ec836040518263ffffffff1660e01b8152600401610b7c919061290a565b60206040518083038186803b158015610b9457600080fd5b505afa158015610ba8573d6000803e3d6000fd5b505050506040513d601f19601f82011682018060405250810190610bcc9190611fae565b8015610c5d57508173ffffffffffffffffffffffffffffffffffffffff1663d7f1b27c306040518263ffffffff1660e01b8152600401610c0c919061290a565b60206040518083038186803b158015610c2457600080fd5b505afa158015610c38573d6000803e3d6000fd5b505050506040513d601f19601f82011682018060405250810190610c5c9190611fae565b5b9050919050565b60608473ffffffffffffffffffffffffffffffffffffffff1663a7bdad03846040518263ffffffff1660e01b8152600401610c9f919061290a565b60006040518083038186803b158015610cb757600080fd5b505afa158015610ccb573d6000803e3d6000fd5b505050506040513d6000823e3d601f19601f82011682018060405250810190610cf49190611f6d565b905060008090505b8151811015610e22578215610d9257818181518110610d1757fe5b602002602001015173ffffffffffffffffffffffffffffffffffffffff1663de1a3f518787876040518463ffffffff1660e01b8152600401610d5b93929190612afe565b600060405180830381600087803b158015610d7557600080fd5b505af1158015610d89573d6000803e3d6000fd5b50505050610e15565b818181518110610d9e57fe5b602002602001015173ffffffffffffffffffffffffffffffffffffffff16633d37b3758787876040518463ffffffff1660e01b8152600401610de293929190612afe565b600060405180830381600087803b158015610dfc57600080fd5b505af1158015610e10573d6000803e3d6000fd5b505050505b8080600101915050610cfc565b505050505050565b6000811115610fb05760008373ffffffffffffffffffffffffffffffffffffffff166370a08231866040518263ffffffff1660e01b8152600401610e6e919061290a565b60206040518083038186803b158015610e8657600080fd5b505afa158015610e9a573d6000803e3d6000fd5b505050506040513d601f19601f82011682018060405250810190610ebe9190612144565b9050610ecc85858585611518565b60008473ffffffffffffffffffffffffffffffffffffffff166370a08231876040518263ffffffff1660e01b8152600401610f07919061290a565b60206040518083038186803b158015610f1f57600080fd5b505afa158015610f33573d6000803e3d6000fd5b505050506040513d601f19601f82011682018060405250810190610f579190612144565b9050610f6c838361165390919063ffffffff16565b8114610fad576040517f08c379a0000000000000000000000000000000000000000000000000000000008152600401610fa490612cbc565b60405180910390fd5b50505b50505050565b600080600260008773ffffffffffffffffffffffffffffffffffffffff1673ffffffffffffffffffffffffffffffffffffffff16815260200190815260200160002060009054906101000a900473ffffffffffffffffffffffffffffffffffffffff169050600073ffffffffffffffffffffffffffffffffffffffff168173ffffffffffffffffffffffffffffffffffffffff16146110c9578073ffffffffffffffffffffffffffffffffffffffff1663a0458083878787876040518563ffffffff1660e01b815260040161108e9493929190612b35565b600060405180830381600087803b1580156110a857600080fd5b505af11580156110bc573d6000803e3d6000fd5b50505050809150506110cf565b60009150505b949350505050565b6110e38484848461169d565b50505050565b60608060608373ffffffffffffffffffffffffffffffffffffffff166399d50d5d6040518163ffffffff1660e01b815260040160006040518083038186803b15801561113457600080fd5b505afa158015611148573d6000803e3d6000fd5b505050506040513d6000823e3d601f19601f820116820180604052508101906111719190611f6d565b90506060815167ffffffffffffffff8111801561118d57600080fd5b506040519080825280602002602001820160405280156111bc5781602001602082028036833780820191505090505b50905060008090505b82518110156114595760008382815181106111dc57fe5b6020026020010151905060008773ffffffffffffffffffffffffffffffffffffffff166366cb8d2f836040518263ffffffff1660e01b8152600401611221919061290a565b60206040518083038186803b15801561123957600080fd5b505afa15801561124d573d6000803e3d6000fd5b505050506040513d601f19601f82011682018060405250810190611271919061211b565b905060608873ffffffffffffffffffffffffffffffffffffffff1663a7bdad03846040518263ffffffff1660e01b81526004016112ae919061290a565b60006040518083038186803b1580156112c657600080fd5b505afa1580156112da573d6000803e3d6000fd5b505050506040513d6000823e3d601f19601f820116820180604052508101906113039190611f6d565b90506000815111156114285760008090505b81518110156114265760008a73ffffffffffffffffffffffffffffffffffffffff166322ebeba48685858151811061134957fe5b60200260200101516040518363ffffffff1660e01b815260040161136e9291906129ca565b60206040518083038186803b15801561138657600080fd5b505afa15801561139a573d6000803e3d6000fd5b505050506040513d601f19601f820116820180604052508101906113be919061211b565b905060008113611403576040517f08c379a00000000000000000000000000000000000000000000000000000000081526004016113fa90612d9c565b60405180910390fd5b611416818561182990919063ffffffff16565b9350508080600101915050611315565b505b611431826118a1565b85858151811061143d57fe5b60200260200101818152505050505080806001019150506111c5565b508181935093505050915091565b6000611496670de0b6b3a764000061148884866118ee90919063ffffffff16565b61195e90919063ffffffff16565b905092915050565b6000808314806114ae5750600082145b156114bc5760009050611512565b61150f6001611501670de0b6b3a76400006114f360016114e5888a6118ee90919063ffffffff16565b61165390919063ffffffff16565b61195e90919063ffffffff16565b6119a890919063ffffffff16565b90505b92915050565b600081111561164d5760608282604051602401611536929190612a68565b6040516020818303038152906040527fa9059cbb000000000000000000000000000000000000000000000000000000007bffffffffffffffffffffffffffffffffffffffffffffffffffffffff19166020820180517bffffffffffffffffffffffffffffffffffffffffffffffffffffffff838183161783525050505090508473ffffffffffffffffffffffffffffffffffffffff16638f6f0332856000846040518463ffffffff1660e01b81526004016115f393929190612a2a565b600060405180830381600087803b15801561160d57600080fd5b505af1158015611621573d6000803e3d6000fd5b505050506040513d6000823e3d601f19601f8201168201806040525081019061164a9190611fd7565b50505b50505050565b600061169583836040518060400160405280601e81526020017f536166654d6174683a207375627472616374696f6e206f766572666c6f7700008152506119fd565b905092915050565b60008111156118235760008473ffffffffffffffffffffffffffffffffffffffff166370a08231846040518263ffffffff1660e01b81526004016116e1919061290a565b60206040518083038186803b1580156116f957600080fd5b505afa15801561170d573d6000803e3d6000fd5b505050506040513d601f19601f820116820180604052508101906117319190612144565b905061173f85858585611a58565b60008573ffffffffffffffffffffffffffffffffffffffff166370a08231856040518263ffffffff1660e01b815260040161177a919061290a565b60206040518083038186803b15801561179257600080fd5b505afa1580156117a6573d6000803e3d6000fd5b505050506040513d601f19601f820116820180604052508101906117ca9190612144565b90506117df83836119a890919063ffffffff16565b8114611820576040517f08c379a000000000000000000000000000000000000000000000000000000000815260040161181790612cbc565b60405180910390fd5b50505b50505050565b6000808284019050600083121580156118425750838112155b80611858575060008312801561185757508381125b5b611897576040517f08c379a000000000000000000000000000000000000000000000000000000000815260040161188e90612c3c565b60405180910390fd5b8091505092915050565b6000808212156118e6576040517f08c379a00000000000000000000000000000000000000000000000000000000081526004016118dd90612c7c565b60405180910390fd5b819050919050565b6000808314156119015760009050611958565b600082840290508284828161191257fe5b0414611953576040517f08c379a000000000000000000000000000000000000000000000000000000000815260040161194a90612c9c565b60405180910390fd5b809150505b92915050565b60006119a083836040518060400160405280601a81526020017f536166654d6174683a206469766973696f6e206279207a65726f000000000000815250611ae1565b905092915050565b6000808284019050838110156119f3576040517f08c379a00000000000000000000000000000000000000000000000000000000081526004016119ea90612bdc565b60405180910390fd5b8091505092915050565b6000838311158290611a45576040517f08c379a0000000000000000000000000000000000000000000000000000000008152600401611a3c9190612b7a565b60405180910390fd5b5060008385039050809150509392505050565b611adb846323b872dd60e01b858585604051602401611a79939291906129f3565b604051602081830303815290604052907bffffffffffffffffffffffffffffffffffffffffffffffffffffffff19166020820180517bffffffffffffffffffffffffffffffffffffffffffffffffffffffff8381831617835250505050611b42565b50505050565b60008083118290611b28576040517f08c379a0000000000000000000000000000000000000000000000000000000008152600401611b1f9190612b7a565b60405180910390fd5b506000838581611b3457fe5b049050809150509392505050565b6060611ba4826040518060400160405280602081526020017f5361666545524332303a206c6f772d6c6576656c2063616c6c206661696c65648152508573ffffffffffffffffffffffffffffffffffffffff16611c099092919063ffffffff16565b9050600081511115611c045780806020019051810190611bc49190611fae565b611c03576040517f08c379a0000000000000000000000000000000000000000000000000000000008152600401611bfa90612d5c565b60405180910390fd5b5b505050565b6060611c188484600085611c21565b90509392505050565b606082471015611c66576040517f08c379a0000000000000000000000000000000000000000000000000000000008152600401611c5d90612c5c565b60405180910390fd5b611c6f85611d36565b611cae576040517f08c379a0000000000000000000000000000000000000000000000000000000008152600401611ca590612cfc565b60405180910390fd5b600060608673ffffffffffffffffffffffffffffffffffffffff168587604051611cd891906128f3565b60006040518083038185875af1925050503d8060008114611d15576040519150601f19603f3d011682016040523d82523d6000602084013e611d1a565b606091505b5091509150611d2a828286611d49565b92505050949350505050565b600080823b905060008111915050919050565b60608315611d5957829050611da9565b600083511115611d6c5782518084602001fd5b816040517f08c379a0000000000000000000000000000000000000000000000000000000008152600401611da09190612b7a565b60405180910390fd5b9392505050565b600081359050611dbf81613060565b92915050565b600081519050611dd481613060565b92915050565b600082601f830112611deb57600080fd5b8151611dfe611df982612de9565b612dbc565b91508181835260208401935060208101905083856020840282011115611e2357600080fd5b60005b83811015611e535781611e398882611dc5565b845260208401935060208301925050600181019050611e26565b5050505092915050565b600081359050611e6c81613077565b92915050565b600081519050611e8181613077565b92915050565b600082601f830112611e9857600080fd5b8151611eab611ea682612e11565b612dbc565b91508082526020830160208301858383011115611ec757600080fd5b611ed283828461301c565b50505092915050565b600081359050611eea8161308e565b92915050565b600081359050611eff816130a5565b92915050565b600081519050611f14816130bc565b92915050565b600081359050611f29816130d3565b92915050565b600081519050611f3e816130d3565b92915050565b600060208284031215611f5657600080fd5b6000611f6484828501611dc5565b91505092915050565b600060208284031215611f7f57600080fd5b600082015167ffffffffffffffff811115611f9957600080fd5b611fa584828501611dda565b91505092915050565b600060208284031215611fc057600080fd5b6000611fce84828501611e72565b91505092915050565b600060208284031215611fe957600080fd5b600082015167ffffffffffffffff81111561200357600080fd5b61200f84828501611e87565b91505092915050565b60006020828403121561202a57600080fd5b600061203884828501611ef0565b91505092915050565b6000806040838503121561205457600080fd5b600061206285828601611ef0565b925050602061207385828601611edb565b9150509250929050565b60008060006060848603121561209257600080fd5b60006120a086828701611ef0565b93505060206120b186828701611f1a565b92505060406120c286828701611db0565b9150509250925092565b6000806000606084860312156120e157600080fd5b60006120ef86828701611ef0565b935050602061210086828701611f1a565b925050604061211186828701611e5d565b9150509250925092565b60006020828403121561212d57600080fd5b600061213b84828501611f05565b91505092915050565b60006020828403121561215657600080fd5b600061216484828501611f2f565b91505092915050565b600061217983836121ac565b60208301905092915050565b600061219183836128d5565b60208301905092915050565b6121a681612f68565b82525050565b6121b581612ef2565b82525050565b6121c481612ef2565b82525050565b60006121d582612e5d565b6121df8185612ea3565b93506121ea83612e3d565b8060005b8381101561221b578151612202888261216d565b975061220d83612e89565b9250506001810190506121ee565b5085935050505092915050565b600061223382612e68565b61223d8185612eb4565b935061224883612e4d565b8060005b838110156122795781516122608882612185565b975061226b83612e96565b92505060018101905061224c565b5085935050505092915050565b600061229182612e73565b61229b8185612ec5565b93506122ab81856020860161301c565b6122b48161304f565b840191505092915050565b60006122ca82612e73565b6122d48185612ed6565b93506122e481856020860161301c565b80840191505092915050565b6122f981612f7a565b82525050565b61230881612f9e565b82525050565b61231781612fc2565b82525050565b61232681612fe6565b82525050565b600061233782612e7e565b6123418185612ee1565b935061235181856020860161301c565b61235a8161304f565b840191505092915050565b6000612372602883612ee1565b91507f4d75737420626520612076616c696420616e6420696e697469616c697a65642060008301527f536574546f6b656e0000000000000000000000000000000000000000000000006020830152604082019050919050565b60006123d8601b83612ee1565b91507f52656465656d207175616e74697479206d757374206265203e203000000000006000830152602082019050919050565b6000612418601b83612ee1565b91507f536166654d6174683a206164646974696f6e206f766572666c6f7700000000006000830152602082019050919050565b6000612458601e83612ee1565b91507f4d7573742062652070656e64696e6720696e697469616c697a6174696f6e00006000830152602082019050919050565b6000612498601a83612ee1565b91507f4973737565207175616e74697479206d757374206265203e20300000000000006000830152602082019050919050565b60006124d8602183612ee1565b91507f5369676e6564536166654d6174683a206164646974696f6e206f766572666c6f60008301527f77000000000000000000000000000000000000000000000000000000000000006020830152604082019050919050565b600061253e602683612ee1565b91507f416464726573733a20696e73756666696369656e742062616c616e636520666f60008301527f722063616c6c00000000000000000000000000000000000000000000000000006020830152604082019050919050565b60006125a4602083612ee1565b91507f53616665436173743a2076616c7565206d75737420626520706f7369746976656000830152602082019050919050565b60006125e4602183612ee1565b91507f536166654d6174683a206d756c7469706c69636174696f6e206f766572666c6f60008301527f77000000000000000000000000000000000000000000000000000000000000006020830152604082019050919050565b600061264a601d83612ee1565b91507f496e76616c696420706f7374207472616e736665722062616c616e63650000006000830152602082019050919050565b600061268a602b83612ee1565b91507f5468652049737375616e63654d6f64756c65206d6f64756c652063616e6e6f7460008301527f2062652072656d6f7665640000000000000000000000000000000000000000006020830152604082019050919050565b60006126f0601d83612ee1565b91507f416464726573733a2063616c6c20746f206e6f6e2d636f6e74726163740000006000830152602082019050919050565b6000612730602383612ee1565b91507f4d75737420626520636f6e74726f6c6c65722d656e61626c656420536574546f60008301527f6b656e00000000000000000000000000000000000000000000000000000000006020830152604082019050919050565b6000612796601c83612ee1565b91507f4d7573742062652074686520536574546f6b656e206d616e61676572000000006000830152602082019050919050565b60006127d6602a83612ee1565b91507f5361666545524332303a204552433230206f7065726174696f6e20646964206e60008301527f6f742073756363656564000000000000000000000000000000000000000000006020830152604082019050919050565b600061283c601f83612ee1565b91507f5265656e7472616e637947756172643a207265656e7472616e742063616c6c006000830152602082019050919050565b600061287c603383612ee1565b91507f4f6e6c7920706f7369746976652065787465726e616c20756e697420706f736960008301527f74696f6e732061726520737570706f72746564000000000000000000000000006020830152604082019050919050565b6128de81612f5e565b82525050565b6128ed81612f5e565b82525050565b60006128ff82846122bf565b915081905092915050565b600060208201905061291f60008301846121bb565b92915050565b600060808201905061293a600083018761219d565b61294760208301866121bb565b61295460408301856121bb565b61296160608301846128e4565b95945050505050565b600060608201905061297f600083018661219d565b61298c60208301856121bb565b61299960408301846128e4565b949350505050565b60006040820190506129b6600083018561219d565b6129c360208301846128e4565b9392505050565b60006040820190506129df60008301856121bb565b6129ec60208301846121bb565b9392505050565b6000606082019050612a0860008301866121bb565b612a1560208301856121bb565b612a2260408301846128e4565b949350505050565b6000606082019050612a3f60008301866121bb565b612a4c602083018561231d565b8181036040830152612a5e8184612286565b9050949350505050565b6000604082019050612a7d60008301856121bb565b612a8a60208301846128e4565b9392505050565b60006040820190508181036000830152612aab81856121ca565b90508181036020830152612abf8184612228565b90509392505050565b6000602082019050612add60008301846122f0565b92915050565b6000602082019050612af860008301846122ff565b92915050565b6000606082019050612b13600083018661230e565b612b2060208301856128e4565b612b2d60408301846121bb565b949350505050565b6000608082019050612b4a600083018761230e565b612b5760208301866128e4565b612b6460408301856121bb565b612b7160608301846121bb565b95945050505050565b60006020820190508181036000830152612b94818461232c565b905092915050565b60006020820190508181036000830152612bb581612365565b9050919050565b60006020820190508181036000830152612bd5816123cb565b9050919050565b60006020820190508181036000830152612bf58161240b565b9050919050565b60006020820190508181036000830152612c158161244b565b9050919050565b60006020820190508181036000830152612c358161248b565b9050919050565b60006020820190508181036000830152612c55816124cb565b9050919050565b60006020820190508181036000830152612c7581612531565b9050919050565b60006020820190508181036000830152612c9581612597565b9050919050565b60006020820190508181036000830152612cb5816125d7565b9050919050565b60006020820190508181036000830152612cd58161263d565b9050919050565b60006020820190508181036000830152612cf58161267d565b9050919050565b60006020820190508181036000830152612d15816126e3565b9050919050565b60006020820190508181036000830152612d3581612723565b9050919050565b60006020820190508181036000830152612d5581612789565b9050919050565b60006020820190508181036000830152612d75816127c9565b9050919050565b60006020820190508181036000830152612d958161282f565b9050919050565b60006020820190508181036000830152612db58161286f565b9050919050565b6000604051905081810181811067ffffffffffffffff82111715612ddf57600080fd5b8060405250919050565b600067ffffffffffffffff821115612e0057600080fd5b602082029050602081019050919050565b600067ffffffffffffffff821115612e2857600080fd5b601f19601f8301169050602081019050919050565b6000819050602082019050919050565b6000819050602082019050919050565b600081519050919050565b600081519050919050565b600081519050919050565b600081519050919050565b6000602082019050919050565b6000602082019050919050565b600082825260208201905092915050565b600082825260208201905092915050565b600082825260208201905092915050565b600081905092915050565b600082825260208201905092915050565b6000612efd82612f3e565b9050919050565b60008115159050919050565b6000612f1b82612ef2565b9050919050565b6000612f2d82612ef2565b9050919050565b6000819050919050565b600073ffffffffffffffffffffffffffffffffffffffff82169050919050565b6000819050919050565b6000612f7382612ff8565b9050919050565b6000612f8582612f8c565b9050919050565b6000612f9782612f3e565b9050919050565b6000612fa982612fb0565b9050919050565b6000612fbb82612f3e565b9050919050565b6000612fcd82612fd4565b9050919050565b6000612fdf82612f3e565b9050919050565b6000612ff182612f5e565b9050919050565b60006130038261300a565b9050919050565b600061301582612f3e565b9050919050565b60005b8381101561303a57808201518184015260208101905061301f565b83811115613049576000848401525b50505050565b6000601f19601f8301169050919050565b61306981612ef2565b811461307457600080fd5b50565b61308081612f04565b811461308b57600080fd5b50565b61309781612f10565b81146130a257600080fd5b50565b6130ae81612f22565b81146130b957600080fd5b50565b6130c581612f34565b81146130d057600080fd5b50565b6130dc81612f5e565b81146130e757600080fd5b5056fea264697066735822122084029a9bbfb4b5218cab787d34beebad57ecfc392cbe694ba3e2a067de80e6a764736f6c634300060a0033",
  "immutableReferences": {},
  "source": "/*\n    Copyright 2020 Set Labs Inc.\n\n    Licensed under the Apache License, Version 2.0 (the \"License\");\n    you may not use this file except in compliance with the License.\n    You may obtain a copy of the License at\n\n    http://www.apache.org/licenses/LICENSE-2.0\n\n    Unless required by applicable law or agreed to in writing, software\n    distributed under the License is distributed on an \"AS IS\" BASIS,\n    WITHOUT WARRANTIES OR CONDITIONS OF ANY KIND, either express or implied.\n    See the License for the specific language governing permissions and\n    limitations under the License.\n\n    SPDX-License-Identifier: Apache License, Version 2.0\n*/\n\npragma solidity 0.6.10;\npragma experimental \"ABIEncoderV2\";\n\nimport { IERC20 } from \"@openzeppelin/contracts/token/ERC20/IERC20.sol\";\nimport { ReentrancyGuard } from \"@openzeppelin/contracts/utils/ReentrancyGuard.sol\";\nimport { SafeCast } from \"@openzeppelin/contracts/utils/SafeCast.sol\";\nimport { SafeMath } from \"@openzeppelin/contracts/math/SafeMath.sol\";\nimport { SignedSafeMath } from \"@openzeppelin/contracts/math/SignedSafeMath.sol\";\n\nimport { IController } from \"../../interfaces/IController.sol\";\nimport { IManagerIssuanceHook } from \"../../interfaces/IManagerIssuanceHook.sol\";\nimport { IModuleIssuanceHook } from \"../../interfaces/IModuleIssuanceHook.sol\";\nimport { Invoke } from \"../lib/Invoke.sol\";\nimport { ISetToken } from \"../../interfaces/ISetToken.sol\";\nimport { ModuleBase } from \"../lib/ModuleBase.sol\";\nimport { Position } from \"../lib/Position.sol\";\nimport { PreciseUnitMath } from \"../../lib/PreciseUnitMath.sol\";\n\n/**\n * @title IssuanceModule\n * @author Set Protocol\n *\n * The IssuanceModule is a module that enables users to issue and redeem SetTokens that contain default and \n * non-debt external Positions. Managers are able to set an external contract hook that is called before an\n * issuance is called.\n */\ncontract IssuanceModule is ModuleBase, ReentrancyGuard {\n    using Invoke for ISetToken;\n    using Position for ISetToken;\n    using PreciseUnitMath for uint256;\n    using SafeMath for uint256;\n    using SafeCast for int256;\n    using SignedSafeMath for int256;\n\n    /* ============ Events ============ */\n\n    event SetTokenIssued(address indexed _setToken, address _issuer, address _to, address _hookContract, uint256 _quantity);\n    event SetTokenRedeemed(address indexed _setToken, address _redeemer, address _to, uint256 _quantity);\n\n    /* ============ State Variables ============ */\n\n    // Mapping of SetToken to Issuance hook configurations\n    mapping(ISetToken => IManagerIssuanceHook) public managerIssuanceHook;\n\n    /* ============ Constructor ============ */\n\n    /**\n     * Set state controller state variable\n     */\n    constructor(IController _controller) public ModuleBase(_controller) {}\n\n    /* ============ External Functions ============ */\n\n    /**\n     * Deposits components to the SetToken and replicates any external module component positions and mints \n     * the SetToken. Any issuances with SetTokens that have external positions with negative unit will revert.\n     *\n     * @param _setToken             Instance of the SetToken contract\n     * @param _quantity             Quantity of the SetToken to mint\n     * @param _to                   Address to mint SetToken to\n     */\n    function issue(\n        ISetToken _setToken,\n        uint256 _quantity,\n        address _to\n    ) \n        external\n        nonReentrant\n        onlyValidAndInitializedSet(_setToken)\n    {\n        require(_quantity > 0, \"Issue quantity must be > 0\");\n\n        address hookContract = _callPreIssueHooks(_setToken, _quantity, msg.sender, _to);\n\n        (\n            address[] memory components,\n            uint256[] memory componentQuantities\n        ) = getRequiredComponentIssuanceUnits(_setToken, _quantity, true);\n\n        // For each position, transfer the required underlying to the SetToken and call external module hooks\n        for (uint256 i = 0; i < components.length; i++) {\n            transferFrom(\n                IERC20(components[i]),\n                msg.sender,\n                address(_setToken),\n                componentQuantities[i]\n            );\n\n            _executeExternalPositionHooks(_setToken, _quantity, components[i], true);\n        }\n\n        _setToken.mint(_to, _quantity);\n\n        emit SetTokenIssued(address(_setToken), msg.sender, _to, hookContract, _quantity);\n    }\n\n    /**\n     * Burns a user's SetToken of specified quantity, unwinds external positions, and returns components\n     * to the specified address. Does not work for debt/negative external positions.\n     *\n     * @param _setToken             Instance of the SetToken contract\n     * @param _quantity             Quantity of the SetToken to redeem\n     * @param _to                   Address to send component assets to\n     */\n    function redeem(\n        ISetToken _setToken,\n        uint256 _quantity,\n        address _to\n    )\n        external\n        nonReentrant\n        onlyValidAndInitializedSet(_setToken)\n    {\n        require(_quantity > 0, \"Redeem quantity must be > 0\");\n\n        _setToken.burn(msg.sender, _quantity);\n\n        (\n            address[] memory components,\n            uint256[] memory componentQuantities\n        ) = getRequiredComponentIssuanceUnits(_setToken, _quantity, false);\n\n        for (uint256 i = 0; i < components.length; i++) {\n            _executeExternalPositionHooks(_setToken, _quantity, components[i], false);\n            \n            _setToken.strictInvokeTransfer(\n                components[i],\n                _to,\n                componentQuantities[i]\n            );\n        }\n\n        emit SetTokenRedeemed(address(_setToken), msg.sender, _to, _quantity);\n    }\n\n    /**\n     * Initializes this module to the SetToken with issuance-related hooks. Only callable by the SetToken's manager.\n     * Hook addresses are optional. Address(0) means that no hook will be called\n     *\n     * @param _setToken             Instance of the SetToken to issue\n     * @param _preIssueHook         Instance of the Manager Contract with the Pre-Issuance Hook function\n     */\n    function initialize(\n        ISetToken _setToken,\n        IManagerIssuanceHook _preIssueHook\n    )\n        external\n        onlySetManager(_setToken, msg.sender)\n        onlyValidAndPendingSet(_setToken)\n    {\n        managerIssuanceHook[_setToken] = _preIssueHook;\n\n        _setToken.initializeModule();\n    }\n\n    /**\n     * Reverts as this module should not be removable after added. Users should always\n     * have a way to redeem their Sets\n     */\n    function removeModule() external override {\n        revert(\"The IssuanceModule module cannot be removed\");\n    }\n\n    /* ============ External Getter Functions ============ */\n\n    /**\n     * Retrieves the addresses and units required to issue/redeem a particular quantity of SetToken.\n     *\n     * @param _setToken             Instance of the SetToken to issue\n     * @param _quantity             Quantity of SetToken to issue\n     * @param _isIssue              Boolean whether the quantity is issuance or redemption\n     * @return address[]            List of component addresses\n     * @return uint256[]            List of component units required for a given SetToken quantity\n     */\n    function getRequiredComponentIssuanceUnits(\n        ISetToken _setToken,\n        uint256 _quantity,\n        bool _isIssue\n    )\n        public\n        view\n        returns (address[] memory, uint256[] memory)\n    {\n        (\n            address[] memory components,\n            uint256[] memory issuanceUnits\n        ) = _getTotalIssuanceUnits(_setToken);\n\n        uint256[] memory notionalUnits = new uint256[](components.length);\n        for (uint256 i = 0; i < issuanceUnits.length; i++) {\n            // Use preciseMulCeil to round up to ensure overcollateration when small issue quantities are provided\n            // and preciseMul to round down to ensure overcollateration when small redeem quantities are provided\n            notionalUnits[i] = _isIssue ? \n                issuanceUnits[i].preciseMulCeil(_quantity) : \n                issuanceUnits[i].preciseMul(_quantity);\n        }\n\n        return (components, notionalUnits);\n    }\n\n    /* ============ Internal Functions ============ */\n\n    /**\n     * Retrieves the component addresses and list of total units for components. This will revert if the external unit\n     * is ever equal or less than 0 .\n     */\n    function _getTotalIssuanceUnits(ISetToken _setToken) internal view returns (address[] memory, uint256[] memory) {\n        address[] memory components = _setToken.getComponents();\n        uint256[] memory totalUnits = new uint256[](components.length);\n\n        for (uint256 i = 0; i < components.length; i++) {\n            address component = components[i];\n            int256 cumulativeUnits = _setToken.getDefaultPositionRealUnit(component);\n\n            address[] memory externalModules = _setToken.getExternalPositionModules(component);\n            if (externalModules.length > 0) {\n                for (uint256 j = 0; j < externalModules.length; j++) {\n                    int256 externalPositionUnit = _setToken.getExternalPositionRealUnit(component, externalModules[j]);\n\n                    require(externalPositionUnit > 0, \"Only positive external unit positions are supported\");\n\n                    cumulativeUnits = cumulativeUnits.add(externalPositionUnit);\n                }\n            }\n\n            totalUnits[i] = cumulativeUnits.toUint256();\n        }\n\n        return (components, totalUnits);        \n    }\n\n    /**\n     * If a pre-issue hook has been configured, call the external-protocol contract. Pre-issue hook logic\n     * can contain arbitrary logic including validations, external function calls, etc.\n     * Note: All modules with external positions must implement ExternalPositionIssueHooks\n     */\n    function _callPreIssueHooks(\n        ISetToken _setToken,\n        uint256 _quantity,\n        address _caller,\n        address _to\n    )\n        internal\n        returns(address)\n    {\n        IManagerIssuanceHook preIssueHook = managerIssuanceHook[_setToken];\n        if (address(preIssueHook) != address(0)) {\n            preIssueHook.invokePreIssueHook(_setToken, _quantity, _caller, _to);\n            return address(preIssueHook);\n        }\n\n        return address(0);\n    }\n\n    /**\n     * For each component's external module positions, calculate the total notional quantity, and \n     * call the module's issue hook or redeem hook.\n     * Note: It is possible that these hooks can cause the states of other modules to change.\n     * It can be problematic if the a hook called an external function that called back into a module, resulting in state inconsistencies.\n     */\n    function _executeExternalPositionHooks(\n        ISetToken _setToken,\n        uint256 _setTokenQuantity,\n        address _component,\n        bool isIssue\n    )\n        internal\n    {\n        address[] memory externalPositionModules = _setToken.getExternalPositionModules(_component);\n        for (uint256 i = 0; i < externalPositionModules.length; i++) {\n            if (isIssue) {\n                IModuleIssuanceHook(externalPositionModules[i]).issueHook(_setToken, _setTokenQuantity, _component);\n            } else {\n                IModuleIssuanceHook(externalPositionModules[i]).redeemHook(_setToken, _setTokenQuantity, _component);\n            }\n        }\n    }\n}\n",
  "sourcePath": "/Users/tahadhailey/Documents/top5/top5swap/swap/contracts/protocol/modules/IssuanceModule.sol",
  "compiler": {
    "name": "solc",
    "version": "0.6.10+commit.00c0fcaf.Emscripten.clang"
  },
  "schemaVersion": "3.2.1",
  "updatedAt": "2021-01-21T08:20:37.754Z",
  "devdoc": {
    "author": "Set Protocol The IssuanceModule is a module that enables users to issue and redeem SetTokens that contain default and  non-debt external Positions. Managers are able to set an external contract hook that is called before an issuance is called.",
    "methods": {
      "getRequiredComponentIssuanceUnits(address,uint256,bool)": {
        "params": {
          "_isIssue": "Boolean whether the quantity is issuance or redemption",
          "_quantity": "Quantity of SetToken to issue",
          "_setToken": "Instance of the SetToken to issue"
        },
        "returns": {
          "_0": "address[]            List of component addresses",
          "_1": "uint256[]            List of component units required for a given SetToken quantity"
        }
      },
      "initialize(address,address)": {
        "params": {
          "_preIssueHook": "Instance of the Manager Contract with the Pre-Issuance Hook function",
          "_setToken": "Instance of the SetToken to issue"
        }
      },
      "issue(address,uint256,address)": {
        "params": {
          "_quantity": "Quantity of the SetToken to mint",
          "_setToken": "Instance of the SetToken contract",
          "_to": "Address to mint SetToken to"
        }
      },
      "redeem(address,uint256,address)": {
        "params": {
          "_quantity": "Quantity of the SetToken to redeem",
          "_setToken": "Instance of the SetToken contract",
          "_to": "Address to send component assets to"
        }
      }
    },
    "title": "IssuanceModule"
  },
  "userdoc": {
    "methods": {
      "constructor": "Set state controller state variable",
      "getRequiredComponentIssuanceUnits(address,uint256,bool)": {
        "notice": "Retrieves the addresses and units required to issue/redeem a particular quantity of SetToken."
      },
      "initialize(address,address)": {
        "notice": "Initializes this module to the SetToken with issuance-related hooks. Only callable by the SetToken's manager. Hook addresses are optional. Address(0) means that no hook will be called"
      },
      "issue(address,uint256,address)": {
        "notice": "Deposits components to the SetToken and replicates any external module component positions and mints  the SetToken. Any issuances with SetTokens that have external positions with negative unit will revert."
      },
      "redeem(address,uint256,address)": {
        "notice": "Burns a user's SetToken of specified quantity, unwinds external positions, and returns components to the specified address. Does not work for debt/negative external positions."
      },
      "removeModule()": {
        "notice": "Reverts as this module should not be removable after added. Users should always have a way to redeem their Sets"
      }
    }
  }
}