{
  "contractName": "KyberExchangeAdapter",
  "abi": [
    {
      "inputs": [
        {
          "internalType": "address",
          "name": "_kyberNetworkProxyAddress",
          "type": "address"
        }
      ],
      "stateMutability": "nonpayable",
      "type": "constructor"
    },
    {
      "inputs": [],
      "name": "kyberNetworkProxyAddress",
      "outputs": [
        {
          "internalType": "address",
          "name": "",
          "type": "address"
        }
      ],
      "stateMutability": "view",
      "type": "function"
    },
    {
      "inputs": [
        {
          "internalType": "address",
          "name": "_sourceToken",
          "type": "address"
        },
        {
          "internalType": "address",
          "name": "_destinationToken",
          "type": "address"
        },
        {
          "internalType": "address",
          "name": "_destinationAddress",
          "type": "address"
        },
        {
          "internalType": "uint256",
          "name": "_sourceQuantity",
          "type": "uint256"
        },
        {
          "internalType": "uint256",
          "name": "_minDestinationQuantity",
          "type": "uint256"
        },
        {
          "internalType": "bytes",
          "name": "",
          "type": "bytes"
        }
      ],
      "name": "getTradeCalldata",
      "outputs": [
        {
          "internalType": "address",
          "name": "",
          "type": "address"
        },
        {
          "internalType": "uint256",
          "name": "",
          "type": "uint256"
        },
        {
          "internalType": "bytes",
          "name": "",
          "type": "bytes"
        }
      ],
      "stateMutability": "view",
      "type": "function"
    },
    {
      "inputs": [],
      "name": "getSpender",
      "outputs": [
        {
          "internalType": "address",
          "name": "",
          "type": "address"
        }
      ],
      "stateMutability": "view",
      "type": "function"
    },
    {
      "inputs": [
        {
          "internalType": "address",
          "name": "_sourceToken",
          "type": "address"
        },
        {
          "internalType": "address",
          "name": "_destinationToken",
          "type": "address"
        },
        {
          "internalType": "uint256",
          "name": "_sourceQuantity",
          "type": "uint256"
        }
      ],
      "name": "getConversionRates",
      "outputs": [
        {
          "internalType": "uint256",
          "name": "",
          "type": "uint256"
        },
        {
          "internalType": "uint256",
          "name": "",
          "type": "uint256"
        }
      ],
      "stateMutability": "view",
      "type": "function"
    }
  ],
  "bytecode": "0x608060405234801561001057600080fd5b50604051610ca5380380610ca58339818101604052810190610032919061008d565b806000806101000a81548173ffffffffffffffffffffffffffffffffffffffff021916908373ffffffffffffffffffffffffffffffffffffffff160217905550506100ff565b600081519050610087816100e8565b92915050565b60006020828403121561009f57600080fd5b60006100ad84828501610078565b91505092915050565b60006100c1826100c8565b9050919050565b600073ffffffffffffffffffffffffffffffffffffffff82169050919050565b6100f1816100b6565b81146100fc57600080fd5b50565b610b978061010e6000396000f3fe608060405234801561001057600080fd5b506004361061004c5760003560e01c806312e41a7714610051578063334fc2891461006f578063aa0b24fa1461008d578063e171fcab146100be575b600080fd5b6100596100f0565b60405161006691906108db565b60405180910390f35b610077610115565b60405161008491906108db565b60405180910390f35b6100a760048036038101906100a29190610722565b61013e565b6040516100b5929190610a1c565b60405180910390f35b6100d860048036038101906100d3919061067b565b6101fa565b6040516100e79392919061099c565b60405180910390f35b6000809054906101000a900473ffffffffffffffffffffffffffffffffffffffff1681565b60008060009054906101000a900473ffffffffffffffffffffffffffffffffffffffff16905090565b6000806000809054906101000a900473ffffffffffffffffffffffffffffffffffffffff1673ffffffffffffffffffffffffffffffffffffffff1663809a9e558686866040518463ffffffff1660e01b815260040161019f939291906108f6565b604080518083038186803b1580156101b657600080fd5b505afa1580156101ca573d6000803e3d6000fd5b505050506040513d601f19601f820116820180604052508101906101ee9190610771565b91509150935093915050565b60008060606102076105bc565b8a73ffffffffffffffffffffffffffffffffffffffff1663313ce5676040518163ffffffff1660e01b815260040160206040518083038186803b15801561024d57600080fd5b505afa158015610261573d6000803e3d6000fd5b505050506040513d601f19601f8201168201806040525081019061028591906107ad565b60ff168160000181815250508973ffffffffffffffffffffffffffffffffffffffff1663313ce5676040518163ffffffff1660e01b815260040160206040518083038186803b1580156102d757600080fd5b505afa1580156102eb573d6000803e3d6000fd5b505050506040513d601f19601f8201168201806040525081019061030f91906107ad565b60ff168160200181815250506103798861036b8360200151600a0a61035d8560000151600a0a61034f610340610469565b8e61047990919063ffffffff16565b61047990919063ffffffff16565b6104e990919063ffffffff16565b6104e990919063ffffffff16565b81604001818152505060608b898c8c610390610533565b866040015160006040516024016103ad979695949392919061092d565b6040516020818303038152906040527fcb3c28c7000000000000000000000000000000000000000000000000000000007bffffffffffffffffffffffffffffffffffffffffffffffffffffffff19166020820180517bffffffffffffffffffffffffffffffffffffffffffffffffffffffff838183161783525050505090506000809054906101000a900473ffffffffffffffffffffffffffffffffffffffff1660008281915094509450945050509750975097945050505050565b6000670de0b6b3a7640000905090565b60008083141561048c57600090506104e3565b600082840290508284828161049d57fe5b04146104de576040517f08c379a00000000000000000000000000000000000000000000000000000000081526004016104d5906109fc565b60405180910390fd5b809150505b92915050565b600061052b83836040518060400160405280601a81526020017f536166654d6174683a206469766973696f6e206279207a65726f00000000000081525061055b565b905092915050565b60007fffffffffffffffffffffffffffffffffffffffffffffffffffffffffffffffff905090565b600080831182906105a2576040517f08c379a000000000000000000000000000000000000000000000000000000000815260040161059991906109da565b60405180910390fd5b5060008385816105ae57fe5b049050809150509392505050565b60405180606001604052806000815260200160008152602001600081525090565b6000813590506105ec81610b1c565b92915050565b60008083601f84011261060457600080fd5b8235905067ffffffffffffffff81111561061d57600080fd5b60208301915083600182028301111561063557600080fd5b9250929050565b60008135905061064b81610b33565b92915050565b60008151905061066081610b33565b92915050565b60008151905061067581610b4a565b92915050565b600080600080600080600060c0888a03121561069657600080fd5b60006106a48a828b016105dd565b97505060206106b58a828b016105dd565b96505060406106c68a828b016105dd565b95505060606106d78a828b0161063c565b94505060806106e88a828b0161063c565b93505060a088013567ffffffffffffffff81111561070557600080fd5b6107118a828b016105f2565b925092505092959891949750929550565b60008060006060848603121561073757600080fd5b6000610745868287016105dd565b9350506020610756868287016105dd565b92505060406107678682870161063c565b9150509250925092565b6000806040838503121561078457600080fd5b600061079285828601610651565b92505060206107a385828601610651565b9150509250929050565b6000602082840312156107bf57600080fd5b60006107cd84828501610666565b91505092915050565b6107df81610a8f565b82525050565b6107ee81610a7d565b82525050565b60006107ff82610a45565b6108098185610a5b565b9350610819818560208601610ad8565b61082281610b0b565b840191505092915050565b600061083882610a50565b6108428185610a6c565b9350610852818560208601610ad8565b61085b81610b0b565b840191505092915050565b6000610873602183610a6c565b91507f536166654d6174683a206d756c7469706c69636174696f6e206f766572666c6f60008301527f77000000000000000000000000000000000000000000000000000000000000006020830152604082019050919050565b6108d581610ac1565b82525050565b60006020820190506108f060008301846107e5565b92915050565b600060608201905061090b60008301866107e5565b61091860208301856107e5565b61092560408301846108cc565b949350505050565b600060e082019050610942600083018a6107e5565b61094f60208301896108cc565b61095c60408301886107e5565b61096960608301876107e5565b61097660808301866108cc565b61098360a08301856108cc565b61099060c08301846107d6565b98975050505050505050565b60006060820190506109b160008301866107e5565b6109be60208301856108cc565b81810360408301526109d081846107f4565b9050949350505050565b600060208201905081810360008301526109f4818461082d565b905092915050565b60006020820190508181036000830152610a1581610866565b9050919050565b6000604082019050610a3160008301856108cc565b610a3e60208301846108cc565b9392505050565b600081519050919050565b600081519050919050565b600082825260208201905092915050565b600082825260208201905092915050565b6000610a8882610aa1565b9050919050565b6000610a9a82610aa1565b9050919050565b600073ffffffffffffffffffffffffffffffffffffffff82169050919050565b6000819050919050565b600060ff82169050919050565b60005b83811015610af6578082015181840152602081019050610adb565b83811115610b05576000848401525b50505050565b6000601f19601f8301169050919050565b610b2581610a7d565b8114610b3057600080fd5b50565b610b3c81610ac1565b8114610b4757600080fd5b50565b610b5381610acb565b8114610b5e57600080fd5b5056fea26469706673582212203d933ff444200a942725614af26783a6c9cc4ed14eb680b18b832d060b2974fe64736f6c634300060a0033",
  "immutableReferences": {},
  "source": "/*\n    Copyright 2020 Set Labs Inc.\n\n    Licensed under the Apache License, Version 2.0 (the \"License\");\n    you may not use this file except in compliance with the License.\n    You may obtain a copy of the License at\n\n    http://www.apache.org/licenses/LICENSE-2.0\n\n    Unless required by applicable law or agreed to in writing, software\n    distributed under the License is distributed on an \"AS IS\" BASIS,\n    WITHOUT WARRANTIES OR CONDITIONS OF ANY KIND, either express or implied.\n    See the License for the specific language governing permissions and\n    limitations under the License.\n\n    SPDX-License-Identifier: Apache License, Version 2.0\n*/\n\npragma solidity 0.6.10;\npragma experimental \"ABIEncoderV2\";\n\n/**\n * @title KyberExchangeAdapter\n * @author Set Protocol\n *\n * Exchange adapter for Kyber that returns data for trades\n */\n\nimport { ERC20 } from \"@openzeppelin/contracts/token/ERC20/ERC20.sol\";\nimport { SafeMath } from \"@openzeppelin/contracts/math/SafeMath.sol\";\nimport { PreciseUnitMath } from \"../../lib/PreciseUnitMath.sol\";\nimport { IKyberNetworkProxy } from \"../../interfaces/external/IKyberNetworkProxy.sol\";\n\ncontract KyberExchangeAdapter {\n    using SafeMath for uint256;\n    using PreciseUnitMath for uint256;\n\n    /* ============ Structs ============ */\n    \n    /**\n     * Struct containing information for trade function\n     */\n    struct KyberTradeInfo {\n        uint256 sourceTokenDecimals;        // Decimals of the token to send\n        uint256 destinationTokenDecimals;   // Decimals of the token to receive\n        uint256 conversionRate;             // Derived conversion rate from min receive quantity\n    }\n\n    /* ============ State Variables ============ */\n    \n    // Address of Kyber Network Proxy\n    address public kyberNetworkProxyAddress;\n\n    /* ============ Constructor ============ */\n\n    /**\n     * Set state variables\n     *\n     * @param _kyberNetworkProxyAddress    Address of Kyber Network Proxy contract\n     */\n    constructor(\n        address _kyberNetworkProxyAddress\n    )\n        public\n    {\n        kyberNetworkProxyAddress = _kyberNetworkProxyAddress;\n    }\n\n    /* ============ External Getter Functions ============ */\n\n    /**\n     * Calculate Kyber trade encoded calldata. To be invoked on the SetToken.\n     *\n     * @param  _sourceToken              Address of source token to be sold\n     * @param  _destinationToken         Address of destination token to buy\n     * @param  _destinationAddress       Address to receive traded tokens\n     * @param  _sourceQuantity           Amount of source token to sell\n     * @param  _minDestinationQuantity   Min amount of destination token to buy\n     *\n     * @return address                   Target address\n     * @return uint256                   Call value\n     * @return bytes                     Trade calldata\n     */\n    function getTradeCalldata(\n        address _sourceToken,\n        address _destinationToken,\n        address _destinationAddress,\n        uint256 _sourceQuantity,\n        uint256 _minDestinationQuantity,\n        bytes calldata /* _data */\n    )\n        external\n        view\n        returns (address, uint256, bytes memory)\n    {\n        KyberTradeInfo memory kyberTradeInfo;\n\n        kyberTradeInfo.sourceTokenDecimals = ERC20(_sourceToken).decimals();\n        kyberTradeInfo.destinationTokenDecimals = ERC20(_destinationToken).decimals();\n\n        // Get conversion rate from minimum receive token quantity.\n        // dstQty * (10 ** 18) * (10 ** dstDecimals) / (10 ** srcDecimals) / srcQty\n        kyberTradeInfo.conversionRate = _minDestinationQuantity\n            .mul(PreciseUnitMath.preciseUnit())\n            .mul(10 ** kyberTradeInfo.sourceTokenDecimals)\n            .div(10 ** kyberTradeInfo.destinationTokenDecimals)\n            .div(_sourceQuantity);\n\n        // Encode method data for SetToken to invoke\n        bytes memory methodData = abi.encodeWithSignature(\n            \"trade(address,uint256,address,address,uint256,uint256,address)\",\n            _sourceToken,\n            _sourceQuantity,\n            _destinationToken,\n            _destinationAddress,\n            PreciseUnitMath.maxUint256(), // Sell entire amount of sourceToken\n            kyberTradeInfo.conversionRate, // Trade with implied conversion rate\n            address(0) // No referrer address\n        );\n\n        return (kyberNetworkProxyAddress, 0, methodData);\n    }\n\n    /**\n     * Returns the address to approve source tokens to for trading. This is the Kyber Network\n     * Proxy address\n     *\n     * @return address             Address of the contract to approve tokens to\n     */\n    function getSpender()\n        external\n        view\n        returns (address)\n    {\n        return kyberNetworkProxyAddress;\n    }\n\n    /**\n     * Returns the conversion rate between the source token and the destination token\n     * in 18 decimals, regardless of component token's decimals\n     *\n     * @param  _sourceToken        Address of source token to be sold\n     * @param  _destinationToken   Address of destination token to buy\n     * @param  _sourceQuantity     Amount of source token to sell\n     *\n     * @return uint256             Conversion rate in wei\n     * @return uint256             Slippage rate in wei\n     */\n    function getConversionRates(\n        address _sourceToken,\n        address _destinationToken,\n        uint256 _sourceQuantity\n    )\n        external\n        view\n        returns (uint256, uint256)\n    {\n        // Get Kyber expectedRate to trade with\n        return IKyberNetworkProxy(kyberNetworkProxyAddress).getExpectedRate(\n            _sourceToken,\n            _destinationToken,\n            _sourceQuantity\n        );\n    }\n}",
  "sourcePath": "/Users/tahadhailey/Documents/top5/top5swap/swap/contracts/protocol/integration/KyberExchangeAdapter.sol",
  "compiler": {
    "name": "solc",
    "version": "0.6.10+commit.00c0fcaf.Emscripten.clang"
  },
  "schemaVersion": "3.2.1",
  "updatedAt": "2021-01-21T08:20:37.695Z",
  "devdoc": {
    "methods": {
      "constructor": {
        "params": {
          "_kyberNetworkProxyAddress": "Address of Kyber Network Proxy contract"
        }
      },
      "getConversionRates(address,address,uint256)": {
        "params": {
          "_destinationToken": "Address of destination token to buy",
          "_sourceQuantity": "Amount of source token to sell",
          "_sourceToken": "Address of source token to be sold"
        },
        "returns": {
          "_0": "uint256             Conversion rate in wei",
          "_1": "uint256             Slippage rate in wei"
        }
      },
      "getSpender()": {
        "returns": {
          "_0": "address             Address of the contract to approve tokens to"
        }
      },
      "getTradeCalldata(address,address,address,uint256,uint256,bytes)": {
        "params": {
          "_destinationAddress": "Address to receive traded tokens",
          "_destinationToken": "Address of destination token to buy",
          "_minDestinationQuantity": "Min amount of destination token to buy",
          "_sourceQuantity": "Amount of source token to sell",
          "_sourceToken": "Address of source token to be sold"
        },
        "returns": {
          "_0": "address                   Target address",
          "_1": "uint256                   Call value",
          "_2": "bytes                     Trade calldata"
        }
      }
    }
  },
  "userdoc": {
    "methods": {
      "constructor": "Set state variables",
      "getConversionRates(address,address,uint256)": {
        "notice": "Returns the conversion rate between the source token and the destination token in 18 decimals, regardless of component token's decimals"
      },
      "getSpender()": {
        "notice": "Returns the address to approve source tokens to for trading. This is the Kyber Network Proxy address"
      },
      "getTradeCalldata(address,address,address,uint256,uint256,bytes)": {
        "notice": "Calculate Kyber trade encoded calldata. To be invoked on the SetToken."
      }
    }
  }
}