{
  "contractName": "KyberNetworkProxyMock",
  "abi": [
    {
      "inputs": [
        {
          "internalType": "address",
          "name": "_mockWethAddress",
          "type": "address"
        }
      ],
      "stateMutability": "nonpayable",
      "type": "constructor"
    },
    {
      "inputs": [],
      "name": "mockWethAddress",
      "outputs": [
        {
          "internalType": "address",
          "name": "",
          "type": "address"
        }
      ],
      "stateMutability": "view",
      "type": "function"
    },
    {
      "inputs": [
        {
          "internalType": "address",
          "name": "",
          "type": "address"
        }
      ],
      "name": "tokens",
      "outputs": [
        {
          "internalType": "bool",
          "name": "exists",
          "type": "bool"
        },
        {
          "internalType": "uint256",
          "name": "rate",
          "type": "uint256"
        },
        {
          "internalType": "uint256",
          "name": "decimals",
          "type": "uint256"
        }
      ],
      "stateMutability": "view",
      "type": "function"
    },
    {
      "inputs": [
        {
          "internalType": "contract ERC20",
          "name": "_token",
          "type": "address"
        },
        {
          "internalType": "uint256",
          "name": "_rate",
          "type": "uint256"
        },
        {
          "internalType": "uint256",
          "name": "_decimals",
          "type": "uint256"
        }
      ],
      "name": "addToken",
      "outputs": [],
      "stateMutability": "nonpayable",
      "type": "function"
    },
    {
      "inputs": [
        {
          "internalType": "address",
          "name": "_src",
          "type": "address"
        },
        {
          "internalType": "address",
          "name": "_dest",
          "type": "address"
        },
        {
          "internalType": "uint256",
          "name": "_srcQty",
          "type": "uint256"
        }
      ],
      "name": "getExpectedRate",
      "outputs": [
        {
          "internalType": "uint256",
          "name": "expectedRate",
          "type": "uint256"
        },
        {
          "internalType": "uint256",
          "name": "slippageRate",
          "type": "uint256"
        }
      ],
      "stateMutability": "view",
      "type": "function"
    },
    {
      "inputs": [
        {
          "internalType": "contract ERC20",
          "name": "_src",
          "type": "address"
        },
        {
          "internalType": "uint256",
          "name": "_srcAmount",
          "type": "uint256"
        },
        {
          "internalType": "contract ERC20",
          "name": "_dest",
          "type": "address"
        },
        {
          "internalType": "address",
          "name": "_destAddress",
          "type": "address"
        },
        {
          "internalType": "uint256",
          "name": "_maxDestAmount",
          "type": "uint256"
        },
        {
          "internalType": "uint256",
          "name": "",
          "type": "uint256"
        },
        {
          "internalType": "address",
          "name": "",
          "type": "address"
        }
      ],
      "name": "trade",
      "outputs": [
        {
          "internalType": "uint256",
          "name": "destAmount",
          "type": "uint256"
        }
      ],
      "stateMutability": "payable",
      "type": "function"
    }
  ],
  "bytecode": "0x608060405234801561001057600080fd5b506040516112523803806112528339818101604052602081101561003357600080fd5b810190808051906020019092919050505080600160006101000a81548173ffffffffffffffffffffffffffffffffffffffff021916908373ffffffffffffffffffffffffffffffffffffffff16021790555033600260006101000a81548173ffffffffffffffffffffffffffffffffffffffff021916908373ffffffffffffffffffffffffffffffffffffffff1602179055505061117c806100d66000396000f3fe60806040526004361061004a5760003560e01c8063809a9e551461004f5780638cba9168146100e5578063cb3c28c71461013c578063dee1f2af14610212578063e486033914610277575b600080fd5b34801561005b57600080fd5b506100c86004803603606081101561007257600080fd5b81019080803573ffffffffffffffffffffffffffffffffffffffff169060200190929190803573ffffffffffffffffffffffffffffffffffffffff169060200190929190803590602001909291905050506102ee565b604051808381526020018281526020019250505060405180910390f35b3480156100f157600080fd5b506100fa6104c4565b604051808273ffffffffffffffffffffffffffffffffffffffff1673ffffffffffffffffffffffffffffffffffffffff16815260200191505060405180910390f35b6101fc600480360360e081101561015257600080fd5b81019080803573ffffffffffffffffffffffffffffffffffffffff16906020019092919080359060200190929190803573ffffffffffffffffffffffffffffffffffffffff169060200190929190803573ffffffffffffffffffffffffffffffffffffffff1690602001909291908035906020019092919080359060200190929190803573ffffffffffffffffffffffffffffffffffffffff1690602001909291905050506104ea565b6040518082815260200191505060405180910390f35b34801561021e57600080fd5b506102756004803603606081101561023557600080fd5b81019080803573ffffffffffffffffffffffffffffffffffffffff1690602001909291908035906020019092919080359060200190929190505050610d5f565b005b34801561028357600080fd5b506102c66004803603602081101561029a57600080fd5b81019080803573ffffffffffffffffffffffffffffffffffffffff169060200190929190505050610eba565b6040518084151515158152602001838152602001828152602001935050505060405180910390f35b600080600160009054906101000a900473ffffffffffffffffffffffffffffffffffffffff1673ffffffffffffffffffffffffffffffffffffffff168573ffffffffffffffffffffffffffffffffffffffff1614156103ab576000808573ffffffffffffffffffffffffffffffffffffffff1673ffffffffffffffffffffffffffffffffffffffff168152602001908152602001600020600101546ec097ce7bc90715b34b9f1000000000816103a057fe5b0491508190506104bc565b600160009054906101000a900473ffffffffffffffffffffffffffffffffffffffff1673ffffffffffffffffffffffffffffffffffffffff168473ffffffffffffffffffffffffffffffffffffffff16141561044d576000808673ffffffffffffffffffffffffffffffffffffffff1673ffffffffffffffffffffffffffffffffffffffff1681526020019081526020016000206001015491508190506104bb565b6040517f08c379a00000000000000000000000000000000000000000000000000000000081526004018080602001828103825260208152602001807f4b796265724e6574776f726b3a20556e6b6e6f776e20746f6b656e207061697281525060200191505060405180910390fd5b5b935093915050565b600160009054906101000a900473ffffffffffffffffffffffffffffffffffffffff1681565b6000806000600160009054906101000a900473ffffffffffffffffffffffffffffffffffffffff1673ffffffffffffffffffffffffffffffffffffffff168a73ffffffffffffffffffffffffffffffffffffffff1614156108f8576000808973ffffffffffffffffffffffffffffffffffffffff1673ffffffffffffffffffffffffffffffffffffffff168152602001908152602001600020600101546ec097ce7bc90715b34b9f10000000008161059e57fe5b04915061060d6000808a73ffffffffffffffffffffffffffffffffffffffff1673ffffffffffffffffffffffffffffffffffffffff16815260200190815260200160002060020154602403600a0a6105ff8b85610ef190919063ffffffff16565b610f7790919063ffffffff16565b92508583111561068d57859250610686826106786000808c73ffffffffffffffffffffffffffffffffffffffff1673ffffffffffffffffffffffffffffffffffffffff16815260200190815260200160002060020154602403600a0a89610ef190919063ffffffff16565b610f7790919063ffffffff16565b9050610691565b8890505b8973ffffffffffffffffffffffffffffffffffffffff166323b872dd3330846040518463ffffffff1660e01b8152600401808473ffffffffffffffffffffffffffffffffffffffff1673ffffffffffffffffffffffffffffffffffffffff1681526020018373ffffffffffffffffffffffffffffffffffffffff1673ffffffffffffffffffffffffffffffffffffffff1681526020018281526020019350505050602060405180830381600087803b15801561074c57600080fd5b505af1158015610760573d6000803e3d6000fd5b505050506040513d602081101561077657600080fd5b81019080805190602001909291905050506107dc576040517f08c379a00000000000000000000000000000000000000000000000000000000081526004018080602001828103825260268152602001806110886026913960400191505060405180910390fd5b8773ffffffffffffffffffffffffffffffffffffffff1663a9059cbb88856040518363ffffffff1660e01b8152600401808373ffffffffffffffffffffffffffffffffffffffff1673ffffffffffffffffffffffffffffffffffffffff16815260200182815260200192505050602060405180830381600087803b15801561086357600080fd5b505af1158015610877573d6000803e3d6000fd5b505050506040513d602081101561088d57600080fd5b81019080805190602001909291905050506108f3576040517f08c379a00000000000000000000000000000000000000000000000000000000081526004018080602001828103825260238152602001806110dc6023913960400191505060405180910390fd5b610d52565b600160009054906101000a900473ffffffffffffffffffffffffffffffffffffffff1673ffffffffffffffffffffffffffffffffffffffff168873ffffffffffffffffffffffffffffffffffffffff161415610ce3576000808b73ffffffffffffffffffffffffffffffffffffffff1673ffffffffffffffffffffffffffffffffffffffff1681526020019081526020016000206001015491506109fb6000808c73ffffffffffffffffffffffffffffffffffffffff1673ffffffffffffffffffffffffffffffffffffffff16815260200190815260200160002060020154600a0a6109ed8b85610ef190919063ffffffff16565b610f7790919063ffffffff16565b925085831115610a7857859250610a7182610a636000808e73ffffffffffffffffffffffffffffffffffffffff1673ffffffffffffffffffffffffffffffffffffffff16815260200190815260200160002060020154600a0a89610ef190919063ffffffff16565b610f7790919063ffffffff16565b9050610a7c565b8890505b8973ffffffffffffffffffffffffffffffffffffffff166323b872dd3330846040518463ffffffff1660e01b8152600401808473ffffffffffffffffffffffffffffffffffffffff1673ffffffffffffffffffffffffffffffffffffffff1681526020018373ffffffffffffffffffffffffffffffffffffffff1673ffffffffffffffffffffffffffffffffffffffff1681526020018281526020019350505050602060405180830381600087803b158015610b3757600080fd5b505af1158015610b4b573d6000803e3d6000fd5b505050506040513d6020811015610b6157600080fd5b8101908080519060200190929190505050610bc7576040517f08c379a00000000000000000000000000000000000000000000000000000000081526004018080602001828103825260278152602001806111206027913960400191505060405180910390fd5b8773ffffffffffffffffffffffffffffffffffffffff1663a9059cbb88856040518363ffffffff1660e01b8152600401808373ffffffffffffffffffffffffffffffffffffffff1673ffffffffffffffffffffffffffffffffffffffff16815260200182815260200192505050602060405180830381600087803b158015610c4e57600080fd5b505af1158015610c62573d6000803e3d6000fd5b505050506040513d6020811015610c7857600080fd5b8101908080519060200190929190505050610cde576040517f08c379a000000000000000000000000000000000000000000000000000000000815260040180806020018281038252602e8152602001806110ae602e913960400191505060405180910390fd5b610d51565b6040517f08c379a00000000000000000000000000000000000000000000000000000000081526004018080602001828103825260208152602001807f4b796265724e6574776f726b3a20556e6b6e6f776e20746f6b656e207061697281525060200191505060405180910390fd5b5b5050979650505050505050565b600260009054906101000a900473ffffffffffffffffffffffffffffffffffffffff1673ffffffffffffffffffffffffffffffffffffffff163373ffffffffffffffffffffffffffffffffffffffff1614610e22576040517f08c379a000000000000000000000000000000000000000000000000000000000815260040180806020018281038252601a8152602001807f4b796265724e6574776f726b3a20756e617574686f72697a656400000000000081525060200191505060405180910390fd5b6040518060600160405280600115158152602001838152602001828152506000808573ffffffffffffffffffffffffffffffffffffffff1673ffffffffffffffffffffffffffffffffffffffff16815260200190815260200160002060008201518160000160006101000a81548160ff0219169083151502179055506020820151816001015560408201518160020155905050505050565b60006020528060005260406000206000915090508060000160009054906101000a900460ff16908060010154908060020154905083565b600080831415610f045760009050610f71565b6000828402905082848281610f1557fe5b0414610f6c576040517f08c379a00000000000000000000000000000000000000000000000000000000081526004018080602001828103825260218152602001806110ff6021913960400191505060405180910390fd5b809150505b92915050565b6000610fb983836040518060400160405280601a81526020017f536166654d6174683a206469766973696f6e206279207a65726f000000000000815250610fc1565b905092915050565b6000808311829061106d576040517f08c379a00000000000000000000000000000000000000000000000000000000081526004018080602001828103825283818151815260200191508051906020019080838360005b83811015611032578082015181840152602081019050611017565b50505050905090810190601f16801561105f5780820380516001836020036101000a031916815260200191505b509250505060405180910390fd5b50600083858161107957fe5b04905080915050939250505056fe4b796265724e6574776f726b3a206e6f7420656e6f75676820574554482070726f76696465644b796265724e6574776f726b3a206e6f7420656e6f7567682057455448207472616e73666572726564206261636b4b796265724e6574776f726b3a204552433230207472616e73666572206661696c6564536166654d6174683a206d756c7469706c69636174696f6e206f766572666c6f774b796265724e6574776f726b3a206e6f7420656e6f7567682045524332302070726f7669646564a26469706673582212205e1542bd9000797ebaa023186d2ae237c06ec94b5b4ef20d9ceecb4d12625dbc64736f6c634300060a0033",
  "immutableReferences": {},
  "source": "/*\n    Copyright 2020 Set Labs Inc.\n\n    Licensed under the Apache License, Version 2.0 (the \"License\");\n    you may not use this file except in compliance with the License.\n    You may obtain a copy of the License at\n\n    http://www.apache.org/licenses/LICENSE-2.0\n\n    Unless required by applicable law or agreed to in writing, software\n    distributed under the License is distributed on an \"AS IS\" BASIS,\n    WITHOUT WARRANTIES OR CONDITIONS OF ANY KIND, either express or implied.\n    See the License for the specific language governing permissions and\n    limitations under the License.\n\n    SPDX-License-Identifier: Apache License, Version 2.0\n*/\n\npragma solidity 0.6.10;\n\nimport { ERC20 } from \"@openzeppelin/contracts/token/ERC20/ERC20.sol\";\nimport { SafeMath } from \"@openzeppelin/contracts/math/SafeMath.sol\";\n\n// Mock contract implementation of KyberNetworkProxy, where token can only be traded against WETH for simplicity.\n// Adapted from Argent mock Kyber implementation\ncontract KyberNetworkProxyMock {\n\n    using SafeMath for uint256;\n\n    struct Token {\n        bool exists;\n        uint256 rate;\n        uint256 decimals;\n    }\n\n    mapping (address => Token) public tokens;\n    address public mockWethAddress;\n    address owner;\n\n    constructor(\n        address _mockWethAddress\n    ) public {\n        mockWethAddress = _mockWethAddress;\n        owner = msg.sender;\n    }\n\n    /**\n     * Adds a tradable token to the Kyber instance\n     *\n     * @param _token        The token to add\n     * @param _rate         The rate for the token as 1 TOKN = (rate/10**18) ETH\n     * @param _decimals     The number of decimals for the token\n     */\n    function addToken(ERC20 _token, uint256 _rate, uint256 _decimals) public {\n        require(msg.sender == owner, \"KyberNetwork: unauthorized\");\n        tokens[address(_token)] = Token({exists: true, rate: _rate, decimals: _decimals});\n    }\n\n    function getExpectedRate(\n        address _src,\n        address _dest,\n        uint256 _srcQty\n    )\n        public\n        view\n        returns (uint256 expectedRate, uint256 slippageRate)\n    {\n        _srcQty; // Used to silence compiler warnings\n\n        if (_src == mockWethAddress) {\n            expectedRate = 10**36 / tokens[_dest].rate;\n            slippageRate = expectedRate;\n        } else if (_dest == mockWethAddress) {\n            expectedRate = tokens[_src].rate;\n            slippageRate = expectedRate;\n        } else {\n            revert(\"KyberNetwork: Unknown token pair\");\n        }\n    }\n\n    function trade(\n        ERC20 _src,\n        uint _srcAmount,\n        ERC20 _dest,\n        address _destAddress,\n        uint _maxDestAmount,\n        uint /* _minConversionRate */,\n        address /* _walletId */\n    )\n        public\n        payable\n        returns(uint destAmount)\n    {\n        uint expectedRate;\n        uint srcAmount;\n        if (address(_src) == mockWethAddress) {\n            expectedRate = 10**36 / tokens[address(_dest)].rate;\n            destAmount = expectedRate.mul(_srcAmount).div(10**(36 - tokens[address(_dest)].decimals));\n            if (destAmount > _maxDestAmount) {\n                destAmount = _maxDestAmount;\n                srcAmount = _maxDestAmount.mul(10**(36 - tokens[address(_dest)].decimals)).div(expectedRate);\n            } else {\n                srcAmount = _srcAmount;\n            }\n            require(_src.transferFrom(msg.sender, address(this), srcAmount), \"KyberNetwork: not enough WETH provided\");\n            require(ERC20(_dest).transfer(_destAddress, destAmount), \"KyberNetwork: ERC20 transfer failed\");\n        } else if (address(_dest) == mockWethAddress) {\n            expectedRate = tokens[address(_src)].rate;\n            destAmount = expectedRate.mul(_srcAmount).div(10**tokens[address(_src)].decimals);\n            if (destAmount > _maxDestAmount) {\n                destAmount = _maxDestAmount;\n                srcAmount = _maxDestAmount.mul(10**tokens[address(_src)].decimals).div(expectedRate);\n            } else {\n                srcAmount = _srcAmount;\n            }\n            require(_src.transferFrom(msg.sender, address(this), srcAmount), \"KyberNetwork: not enough ERC20 provided\");\n            require(_dest.transfer(_destAddress, destAmount), \"KyberNetwork: not enough WETH transferred back\");\n        } else {\n            revert(\"KyberNetwork: Unknown token pair\");\n        }\n    }\n}",
  "sourcePath": "/Users/tahadhailey/Documents/top5/top5swap/swap/contracts/mocks/external/KyberNetworkProxyMock.sol",
  "compiler": {
    "name": "solc",
    "version": "0.6.10+commit.00c0fcaf.Emscripten.clang"
  },
  "schemaVersion": "3.2.1",
  "updatedAt": "2021-01-21T08:20:37.595Z",
  "devdoc": {
    "methods": {
      "addToken(address,uint256,uint256)": {
        "params": {
          "_decimals": "The number of decimals for the token",
          "_rate": "The rate for the token as 1 TOKN = (rate/10**18) ETH",
          "_token": "The token to add"
        }
      }
    }
  },
  "userdoc": {
    "methods": {
      "addToken(address,uint256,uint256)": {
        "notice": "Adds a tradable token to the Kyber instance"
      }
    }
  }
}