{
  "contractName": "ModuleBaseMock",
  "abi": [
    {
      "inputs": [
        {
          "internalType": "contract IController",
          "name": "_controller",
          "type": "address"
        }
      ],
      "stateMutability": "nonpayable",
      "type": "constructor"
    },
    {
      "inputs": [],
      "name": "controller",
      "outputs": [
        {
          "internalType": "contract IController",
          "name": "",
          "type": "address"
        }
      ],
      "stateMutability": "view",
      "type": "function"
    },
    {
      "inputs": [],
      "name": "removed",
      "outputs": [
        {
          "internalType": "bool",
          "name": "",
          "type": "bool"
        }
      ],
      "stateMutability": "view",
      "type": "function"
    },
    {
      "inputs": [
        {
          "internalType": "contract IERC20",
          "name": "_token",
          "type": "address"
        },
        {
          "internalType": "address",
          "name": "_from",
          "type": "address"
        },
        {
          "internalType": "address",
          "name": "_to",
          "type": "address"
        },
        {
          "internalType": "uint256",
          "name": "_quantity",
          "type": "uint256"
        }
      ],
      "name": "testTransferFrom",
      "outputs": [],
      "stateMutability": "nonpayable",
      "type": "function"
    },
    {
      "inputs": [
        {
          "internalType": "contract ISetToken",
          "name": "_setToken",
          "type": "address"
        }
      ],
      "name": "testIsSetPendingInitialization",
      "outputs": [
        {
          "internalType": "bool",
          "name": "",
          "type": "bool"
        }
      ],
      "stateMutability": "view",
      "type": "function"
    },
    {
      "inputs": [
        {
          "internalType": "contract ISetToken",
          "name": "_setToken",
          "type": "address"
        },
        {
          "internalType": "address",
          "name": "_toCheck",
          "type": "address"
        }
      ],
      "name": "testIsSetManager",
      "outputs": [
        {
          "internalType": "bool",
          "name": "",
          "type": "bool"
        }
      ],
      "stateMutability": "view",
      "type": "function"
    },
    {
      "inputs": [
        {
          "internalType": "contract ISetToken",
          "name": "_setToken",
          "type": "address"
        }
      ],
      "name": "testIsSetValidAndInitialized",
      "outputs": [
        {
          "internalType": "bool",
          "name": "",
          "type": "bool"
        }
      ],
      "stateMutability": "view",
      "type": "function"
    },
    {
      "inputs": [
        {
          "internalType": "contract ISetToken",
          "name": "_setToken",
          "type": "address"
        }
      ],
      "name": "testOnlyManagerAndValidSet",
      "outputs": [],
      "stateMutability": "view",
      "type": "function"
    },
    {
      "inputs": [
        {
          "internalType": "string",
          "name": "_integrationName",
          "type": "string"
        }
      ],
      "name": "testGetAndValidateAdapter",
      "outputs": [
        {
          "internalType": "address",
          "name": "",
          "type": "address"
        }
      ],
      "stateMutability": "view",
      "type": "function"
    },
    {
      "inputs": [
        {
          "internalType": "bytes32",
          "name": "_integrationHash",
          "type": "bytes32"
        }
      ],
      "name": "testGetAndValidateAdapterWithHash",
      "outputs": [
        {
          "internalType": "address",
          "name": "",
          "type": "address"
        }
      ],
      "stateMutability": "view",
      "type": "function"
    },
    {
      "inputs": [
        {
          "internalType": "uint256",
          "name": "_feeIndex",
          "type": "uint256"
        },
        {
          "internalType": "uint256",
          "name": "_quantity",
          "type": "uint256"
        }
      ],
      "name": "testGetModuleFee",
      "outputs": [
        {
          "internalType": "uint256",
          "name": "",
          "type": "uint256"
        }
      ],
      "stateMutability": "view",
      "type": "function"
    },
    {
      "inputs": [
        {
          "internalType": "contract ISetToken",
          "name": "_setToken",
          "type": "address"
        },
        {
          "internalType": "address",
          "name": "_component",
          "type": "address"
        },
        {
          "internalType": "uint256",
          "name": "_feeQuantity",
          "type": "uint256"
        }
      ],
      "name": "testPayProtocolFeeFromSetToken",
      "outputs": [],
      "stateMutability": "nonpayable",
      "type": "function"
    },
    {
      "inputs": [
        {
          "internalType": "contract ISetToken",
          "name": "_setToken",
          "type": "address"
        }
      ],
      "name": "testOnlySetManager",
      "outputs": [],
      "stateMutability": "view",
      "type": "function"
    },
    {
      "inputs": [
        {
          "internalType": "contract ISetToken",
          "name": "_setToken",
          "type": "address"
        }
      ],
      "name": "testOnlyModule",
      "outputs": [],
      "stateMutability": "view",
      "type": "function"
    },
    {
      "inputs": [],
      "name": "removeModule",
      "outputs": [],
      "stateMutability": "nonpayable",
      "type": "function"
    },
    {
      "inputs": [
        {
          "internalType": "contract ISetToken",
          "name": "_setToken",
          "type": "address"
        }
      ],
      "name": "testOnlyValidAndInitializedSet",
      "outputs": [],
      "stateMutability": "view",
      "type": "function"
    },
    {
      "inputs": [
        {
          "internalType": "contract ISetToken",
          "name": "_setToken",
          "type": "address"
        }
      ],
      "name": "testOnlyValidInitialization",
      "outputs": [],
      "stateMutability": "view",
      "type": "function"
    },
    {
      "inputs": [
        {
          "internalType": "contract ISetToken",
          "name": "_setToken",
          "type": "address"
        }
      ],
      "name": "initializeModuleOnSet",
      "outputs": [],
      "stateMutability": "nonpayable",
      "type": "function"
    }
  ],
  "bytecode": "0x608060405234801561001057600080fd5b5060405161263f38038061263f8339818101604052602081101561003357600080fd5b810190808051906020019092919050505080806000806101000a81548173ffffffffffffffffffffffffffffffffffffffff021916908373ffffffffffffffffffffffffffffffffffffffff16021790555050506125a9806100966000396000f3fe608060405234801561001057600080fd5b506004361061010b5760003560e01c806392a11a35116100a2578063dedd3e1e11610071578063dedd3e1e146104ea578063eb0932a21461052e578063f631bc841461057a578063f77c479114610675578063fe4445fd146106bf5761010b565b806392a11a3514610378578063b20f5f72146103d4578063c380abcc14610418578063d6409d94146104a65761010b565b8063401b880f116100de578063401b880f14610260578063649979b6146102bc578063847ef08d146103005780638feaf4db1461030a5761010b565b80632487451e146101105780632bc4d18d1461017e5780633107ee4f146101fa5780633e55ea031461021c575b600080fd5b61013c6004803603602081101561012657600080fd5b8101908080359060200190929190505050610703565b604051808273ffffffffffffffffffffffffffffffffffffffff1673ffffffffffffffffffffffffffffffffffffffff16815260200191505060405180910390f35b6101e06004803603604081101561019457600080fd5b81019080803573ffffffffffffffffffffffffffffffffffffffff169060200190929190803573ffffffffffffffffffffffffffffffffffffffff169060200190929190505050610715565b604051808215151515815260200191505060405180910390f35b610202610729565b604051808215151515815260200191505060405180910390f35b61025e6004803603602081101561023257600080fd5b81019080803573ffffffffffffffffffffffffffffffffffffffff16906020019092919050505061073c565b005b6102a26004803603602081101561027657600080fd5b81019080803573ffffffffffffffffffffffffffffffffffffffff1690602001909291905050506107bf565b604051808215151515815260200191505060405180910390f35b6102fe600480360360208110156102d257600080fd5b81019080803573ffffffffffffffffffffffffffffffffffffffff1690602001909291905050506107d1565b005b610308610a46565b005b6103766004803603606081101561032057600080fd5b81019080803573ffffffffffffffffffffffffffffffffffffffff169060200190929190803573ffffffffffffffffffffffffffffffffffffffff16906020019092919080359060200190929190505050610a63565b005b6103ba6004803603602081101561038e57600080fd5b81019080803573ffffffffffffffffffffffffffffffffffffffff169060200190929190505050610a73565b604051808215151515815260200191505060405180910390f35b610416600480360360208110156103ea57600080fd5b81019080803573ffffffffffffffffffffffffffffffffffffffff169060200190929190505050610a85565b005b6104a46004803603608081101561042e57600080fd5b81019080803573ffffffffffffffffffffffffffffffffffffffff169060200190929190803573ffffffffffffffffffffffffffffffffffffffff169060200190929190803573ffffffffffffffffffffffffffffffffffffffff16906020019092919080359060200190929190505050610b64565b005b6104e8600480360360208110156104bc57600080fd5b81019080803573ffffffffffffffffffffffffffffffffffffffff169060200190929190505050610b76565b005b61052c6004803603602081101561050057600080fd5b81019080803573ffffffffffffffffffffffffffffffffffffffff169060200190929190505050610bd9565b005b6105646004803603604081101561054457600080fd5b810190808035906020019092919080359060200190929190505050610d87565b6040518082815260200191505060405180910390f35b6106336004803603602081101561059057600080fd5b81019080803590602001906401000000008111156105ad57600080fd5b8201836020820111156105bf57600080fd5b803590602001918460018302840111640100000000831117156105e157600080fd5b91908080601f016020809104026020016040519081016040528093929190818152602001838380828437600081840152601f19601f820116905080830192505050505050509192919290505050610d9b565b604051808273ffffffffffffffffffffffffffffffffffffffff1673ffffffffffffffffffffffffffffffffffffffff16815260200191505060405180910390f35b61067d610dad565b604051808273ffffffffffffffffffffffffffffffffffffffff1673ffffffffffffffffffffffffffffffffffffffff16815260200191505060405180910390f35b610701600480360360208110156106d557600080fd5b81019080803573ffffffffffffffffffffffffffffffffffffffff169060200190929190505050610dd2565b005b600061070e82610e35565b9050919050565b60006107218383610fe5565b905092915050565b600060149054906101000a900460ff1681565b80336107488282610fe5565b6107ba576040517f08c379a000000000000000000000000000000000000000000000000000000000815260040180806020018281038252601c8152602001807f4d7573742062652074686520536574546f6b656e206d616e616765720000000081525060200191505060405180910390fd5b505050565b60006107ca8261109e565b9050919050565b806002808111156107de57fe5b8173ffffffffffffffffffffffffffffffffffffffff166335bc4e52336040518263ffffffff1660e01b8152600401808273ffffffffffffffffffffffffffffffffffffffff1673ffffffffffffffffffffffffffffffffffffffff16815260200191505060206040518083038186803b15801561085b57600080fd5b505afa15801561086f573d6000803e3d6000fd5b505050506040513d602081101561088557600080fd5b810190808051906020019092919050505060028111156108a157fe5b14610914576040517f08c379a00000000000000000000000000000000000000000000000000000000081526004018080602001828103825260188152602001807f4f6e6c7920746865206d6f64756c652063616e2063616c6c000000000000000081525060200191505060405180910390fd5b6000809054906101000a900473ffffffffffffffffffffffffffffffffffffffff1673ffffffffffffffffffffffffffffffffffffffff166342f6e389336040518263ffffffff1660e01b8152600401808273ffffffffffffffffffffffffffffffffffffffff1673ffffffffffffffffffffffffffffffffffffffff16815260200191505060206040518083038186803b1580156109b257600080fd5b505afa1580156109c6573d6000803e3d6000fd5b505050506040513d60208110156109dc57600080fd5b8101908080519060200190929190505050610a42576040517f08c379a00000000000000000000000000000000000000000000000000000000081526004018080602001828103825260248152602001806125036024913960400191505060405180910390fd5b5050565b6001600060146101000a81548160ff021916908315150217905550565b610a6e83838361115f565b505050565b6000610a7e8261123c565b9050919050565b80610a908133610fe5565b610b02576040517f08c379a000000000000000000000000000000000000000000000000000000000815260040180806020018281038252601c8152602001807f4d7573742062652074686520536574546f6b656e206d616e616765720000000081525060200191505060405180910390fd5b610b0b8161123c565b610b60576040517f08c379a00000000000000000000000000000000000000000000000000000000081526004018080602001828103825260288152602001806124946028913960400191505060405180910390fd5b5050565b610b70848484846113de565b50505050565b8073ffffffffffffffffffffffffffffffffffffffff16630ffe0f1e6040518163ffffffff1660e01b8152600401600060405180830381600087803b158015610bbe57600080fd5b505af1158015610bd2573d6000803e3d6000fd5b5050505050565b806000809054906101000a900473ffffffffffffffffffffffffffffffffffffffff1673ffffffffffffffffffffffffffffffffffffffff166374ebe3ec826040518263ffffffff1660e01b8152600401808273ffffffffffffffffffffffffffffffffffffffff1673ffffffffffffffffffffffffffffffffffffffff16815260200191505060206040518083038186803b158015610c7857600080fd5b505afa158015610c8c573d6000803e3d6000fd5b505050506040513d6020811015610ca257600080fd5b8101908080519060200190929190505050610d08576040517f08c379a00000000000000000000000000000000000000000000000000000000081526004018080602001828103825260238152602001806125276023913960400191505060405180910390fd5b610d118161109e565b610d83576040517f08c379a000000000000000000000000000000000000000000000000000000000815260040180806020018281038252601e8152602001807f4d7573742062652070656e64696e6720696e697469616c697a6174696f6e000081525060200191505060405180910390fd5b5050565b6000610d9383836113f0565b905092915050565b6000610da6826114f2565b9050919050565b6000809054906101000a900473ffffffffffffffffffffffffffffffffffffffff1681565b80610ddc8161123c565b610e31576040517f08c379a00000000000000000000000000000000000000000000000000000000081526004018080602001828103825260288152602001806124946028913960400191505060405180910390fd5b5050565b600080610e786000809054906101000a900473ffffffffffffffffffffffffffffffffffffffff1673ffffffffffffffffffffffffffffffffffffffff16611511565b73ffffffffffffffffffffffffffffffffffffffff1663e6d642c530856040518363ffffffff1660e01b8152600401808373ffffffffffffffffffffffffffffffffffffffff1673ffffffffffffffffffffffffffffffffffffffff1681526020018281526020019250505060206040518083038186803b158015610efc57600080fd5b505afa158015610f10573d6000803e3d6000fd5b505050506040513d6020811015610f2657600080fd5b81019080805190602001909291905050509050600073ffffffffffffffffffffffffffffffffffffffff168173ffffffffffffffffffffffffffffffffffffffff161415610fdc576040517f08c379a00000000000000000000000000000000000000000000000000000000081526004018080602001828103825260158152602001807f4d7573742062652076616c69642061646170746572000000000000000000000081525060200191505060405180910390fd5b80915050919050565b60008173ffffffffffffffffffffffffffffffffffffffff168373ffffffffffffffffffffffffffffffffffffffff1663481c6a756040518163ffffffff1660e01b815260040160206040518083038186803b15801561104457600080fd5b505afa158015611058573d6000803e3d6000fd5b505050506040513d602081101561106e57600080fd5b810190808051906020019092919050505073ffffffffffffffffffffffffffffffffffffffff1614905092915050565b60008173ffffffffffffffffffffffffffffffffffffffff166353bae5f7306040518263ffffffff1660e01b8152600401808273ffffffffffffffffffffffffffffffffffffffff1673ffffffffffffffffffffffffffffffffffffffff16815260200191505060206040518083038186803b15801561111d57600080fd5b505afa158015611131573d6000803e3d6000fd5b505050506040513d602081101561114757600080fd5b81019080805190602001909291905050509050919050565b600081111561123757611236826000809054906101000a900473ffffffffffffffffffffffffffffffffffffffff1673ffffffffffffffffffffffffffffffffffffffff1663469048406040518163ffffffff1660e01b815260040160206040518083038186803b1580156111d357600080fd5b505afa1580156111e7573d6000803e3d6000fd5b505050506040513d60208110156111fd57600080fd5b8101908080519060200190929190505050838673ffffffffffffffffffffffffffffffffffffffff166115a7909392919063ffffffff16565b5b505050565b60008060009054906101000a900473ffffffffffffffffffffffffffffffffffffffff1673ffffffffffffffffffffffffffffffffffffffff166374ebe3ec836040518263ffffffff1660e01b8152600401808273ffffffffffffffffffffffffffffffffffffffff1673ffffffffffffffffffffffffffffffffffffffff16815260200191505060206040518083038186803b1580156112dc57600080fd5b505afa1580156112f0573d6000803e3d6000fd5b505050506040513d602081101561130657600080fd5b810190808051906020019092919050505080156113d757508173ffffffffffffffffffffffffffffffffffffffff1663d7f1b27c306040518263ffffffff1660e01b8152600401808273ffffffffffffffffffffffffffffffffffffffff1673ffffffffffffffffffffffffffffffffffffffff16815260200191505060206040518083038186803b15801561139b57600080fd5b505afa1580156113af573d6000803e3d6000fd5b505050506040513d60208110156113c557600080fd5b81019080805190602001909291905050505b9050919050565b6113ea848484846117c4565b50505050565b6000806000809054906101000a900473ffffffffffffffffffffffffffffffffffffffff1673ffffffffffffffffffffffffffffffffffffffff1663792aa04f30866040518363ffffffff1660e01b8152600401808373ffffffffffffffffffffffffffffffffffffffff1673ffffffffffffffffffffffffffffffffffffffff1681526020018281526020019250505060206040518083038186803b15801561149957600080fd5b505afa1580156114ad573d6000803e3d6000fd5b505050506040513d60208110156114c357600080fd5b810190808051906020019092919050505090506114e981846119e190919063ffffffff16565b91505092915050565b6000806114fe83611a18565b905061150981610e35565b915050919050565b60008173ffffffffffffffffffffffffffffffffffffffff1663e765ced660006040518263ffffffff1660e01b81526004018082815260200191505060206040518083038186803b15801561156557600080fd5b505afa158015611579573d6000803e3d6000fd5b505050506040513d602081101561158f57600080fd5b81019080805190602001909291905050509050919050565b60008111156117be5760008373ffffffffffffffffffffffffffffffffffffffff166370a08231866040518263ffffffff1660e01b8152600401808273ffffffffffffffffffffffffffffffffffffffff1673ffffffffffffffffffffffffffffffffffffffff16815260200191505060206040518083038186803b15801561162f57600080fd5b505afa158015611643573d6000803e3d6000fd5b505050506040513d602081101561165957600080fd5b8101908080519060200190929190505050905061167885858585611a29565b60008473ffffffffffffffffffffffffffffffffffffffff166370a08231876040518263ffffffff1660e01b8152600401808273ffffffffffffffffffffffffffffffffffffffff1673ffffffffffffffffffffffffffffffffffffffff16815260200191505060206040518083038186803b1580156116f757600080fd5b505afa15801561170b573d6000803e3d6000fd5b505050506040513d602081101561172157600080fd5b810190808051906020019092919050505090506117478383611cef90919063ffffffff16565b81146117bb576040517f08c379a000000000000000000000000000000000000000000000000000000000815260040180806020018281038252601d8152602001807f496e76616c696420706f7374207472616e736665722062616c616e636500000081525060200191505060405180910390fd5b50505b50505050565b60008111156119db5760008473ffffffffffffffffffffffffffffffffffffffff166370a08231846040518263ffffffff1660e01b8152600401808273ffffffffffffffffffffffffffffffffffffffff1673ffffffffffffffffffffffffffffffffffffffff16815260200191505060206040518083038186803b15801561184c57600080fd5b505afa158015611860573d6000803e3d6000fd5b505050506040513d602081101561187657600080fd5b8101908080519060200190929190505050905061189585858585611d39565b60008573ffffffffffffffffffffffffffffffffffffffff166370a08231856040518263ffffffff1660e01b8152600401808273ffffffffffffffffffffffffffffffffffffffff1673ffffffffffffffffffffffffffffffffffffffff16815260200191505060206040518083038186803b15801561191457600080fd5b505afa158015611928573d6000803e3d6000fd5b505050506040513d602081101561193e57600080fd5b810190808051906020019092919050505090506119648383611e2690919063ffffffff16565b81146119d8576040517f08c379a000000000000000000000000000000000000000000000000000000000815260040180806020018281038252601d8152602001807f496e76616c696420706f7374207472616e736665722062616c616e636500000081525060200191505060405180910390fd5b50505b50505050565b6000611a10670de0b6b3a7640000611a028486611eae90919063ffffffff16565b611f3490919063ffffffff16565b905092915050565b600081805190602001209050919050565b6000811115611ce95760608282604051602401808373ffffffffffffffffffffffffffffffffffffffff1673ffffffffffffffffffffffffffffffffffffffff168152602001828152602001925050506040516020818303038152906040527fa9059cbb000000000000000000000000000000000000000000000000000000007bffffffffffffffffffffffffffffffffffffffffffffffffffffffff19166020820180517bffffffffffffffffffffffffffffffffffffffffffffffffffffffff838183161783525050505090508473ffffffffffffffffffffffffffffffffffffffff16638f6f0332856000846040518463ffffffff1660e01b8152600401808473ffffffffffffffffffffffffffffffffffffffff1673ffffffffffffffffffffffffffffffffffffffff16815260200183815260200180602001828103825283818151815260200191508051906020019080838360005b83811015611b9f578082015181840152602081019050611b84565b50505050905090810190601f168015611bcc5780820380516001836020036101000a031916815260200191505b50945050505050600060405180830381600087803b158015611bed57600080fd5b505af1158015611c01573d6000803e3d6000fd5b505050506040513d6000823e3d601f19601f820116820180604052506020811015611c2b57600080fd5b8101908080516040519392919084640100000000821115611c4b57600080fd5b83820191506020820185811115611c6157600080fd5b8251866001820283011164010000000082111715611c7e57600080fd5b8083526020830192505050908051906020019080838360005b83811015611cb2578082015181840152602081019050611c97565b50505050905090810190601f168015611cdf5780820380516001836020036101000a031916815260200191505b5060405250505050505b50505050565b6000611d3183836040518060400160405280601e81526020017f536166654d6174683a207375627472616374696f6e206f766572666c6f770000815250611f7e565b905092915050565b611e20846323b872dd60e01b858585604051602401808473ffffffffffffffffffffffffffffffffffffffff1673ffffffffffffffffffffffffffffffffffffffff1681526020018373ffffffffffffffffffffffffffffffffffffffff1673ffffffffffffffffffffffffffffffffffffffff1681526020018281526020019350505050604051602081830303815290604052907bffffffffffffffffffffffffffffffffffffffffffffffffffffffff19166020820180517bffffffffffffffffffffffffffffffffffffffffffffffffffffffff838183161783525050505061203e565b50505050565b600080828401905083811015611ea4576040517f08c379a000000000000000000000000000000000000000000000000000000000815260040180806020018281038252601b8152602001807f536166654d6174683a206164646974696f6e206f766572666c6f77000000000081525060200191505060405180910390fd5b8091505092915050565b600080831415611ec15760009050611f2e565b6000828402905082848281611ed257fe5b0414611f29576040517f08c379a00000000000000000000000000000000000000000000000000000000081526004018080602001828103825260218152602001806124e26021913960400191505060405180910390fd5b809150505b92915050565b6000611f7683836040518060400160405280601a81526020017f536166654d6174683a206469766973696f6e206279207a65726f00000000000081525061212d565b905092915050565b600083831115829061202b576040517f08c379a00000000000000000000000000000000000000000000000000000000081526004018080602001828103825283818151815260200191508051906020019080838360005b83811015611ff0578082015181840152602081019050611fd5565b50505050905090810190601f16801561201d5780820380516001836020036101000a031916815260200191505b509250505060405180910390fd5b5060008385039050809150509392505050565b60606120a0826040518060400160405280602081526020017f5361666545524332303a206c6f772d6c6576656c2063616c6c206661696c65648152508573ffffffffffffffffffffffffffffffffffffffff166121f39092919063ffffffff16565b9050600081511115612128578080602001905160208110156120c157600080fd5b8101908080519060200190929190505050612127576040517f08c379a000000000000000000000000000000000000000000000000000000000815260040180806020018281038252602a81526020018061254a602a913960400191505060405180910390fd5b5b505050565b600080831182906121d9576040517f08c379a00000000000000000000000000000000000000000000000000000000081526004018080602001828103825283818151815260200191508051906020019080838360005b8381101561219e578082015181840152602081019050612183565b50505050905090810190601f1680156121cb5780820380516001836020036101000a031916815260200191505b509250505060405180910390fd5b5060008385816121e557fe5b049050809150509392505050565b6060612202848460008561220b565b90509392505050565b606082471015612266576040517f08c379a00000000000000000000000000000000000000000000000000000000081526004018080602001828103825260268152602001806124bc6026913960400191505060405180910390fd5b61226f856123b4565b6122e1576040517f08c379a000000000000000000000000000000000000000000000000000000000815260040180806020018281038252601d8152602001807f416464726573733a2063616c6c20746f206e6f6e2d636f6e747261637400000081525060200191505060405180910390fd5b600060608673ffffffffffffffffffffffffffffffffffffffff1685876040518082805190602001908083835b60208310612331578051825260208201915060208101905060208303925061230e565b6001836020036101000a03801982511681845116808217855250505050505090500191505060006040518083038185875af1925050503d8060008114612393576040519150601f19603f3d011682016040523d82523d6000602084013e612398565b606091505b50915091506123a88282866123c7565b92505050949350505050565b600080823b905060008111915050919050565b606083156123d75782905061248c565b6000835111156123ea5782518084602001fd5b816040517f08c379a00000000000000000000000000000000000000000000000000000000081526004018080602001828103825283818151815260200191508051906020019080838360005b83811015612451578082015181840152602081019050612436565b50505050905090810190601f16801561247e5780820380516001836020036101000a031916815260200191505b509250505060405180910390fd5b939250505056fe4d75737420626520612076616c696420616e6420696e697469616c697a656420536574546f6b656e416464726573733a20696e73756666696369656e742062616c616e636520666f722063616c6c536166654d6174683a206d756c7469706c69636174696f6e206f766572666c6f774d6f64756c65206d75737420626520656e61626c6564206f6e20636f6e74726f6c6c65724d75737420626520636f6e74726f6c6c65722d656e61626c656420536574546f6b656e5361666545524332303a204552433230206f7065726174696f6e20646964206e6f742073756363656564a2646970667358221220f4b9758783f14644ee9b036307097ad08a8cee03967fa8e34b4e92f1c81c903d64736f6c634300060a0033",
  "immutableReferences": {},
  "source": "/*\n    Copyright 2020 Set Labs Inc.\n\n    Licensed under the Apache License, Version 2.0 (the \"License\");\n    you may not use this file except in compliance with the License.\n    You may obtain a copy of the License at\n\n    http://www.apache.org/licenses/LICENSE-2.0\n\n    Unless required by applicable law or agreed to in writing, software\n    distributed under the License is distributed on an \"AS IS\" BASIS,\n    WITHOUT WARRANTIES OR CONDITIONS OF ANY KIND, either express or implied.\n    See the License for the specific language governing permissions and\n    limitations under the License.\n\n    SPDX-License-Identifier: Apache License, Version 2.0\n*/\n\npragma solidity 0.6.10;\n\nimport { IERC20 } from \"@openzeppelin/contracts/token/ERC20/IERC20.sol\";\n\nimport { IController } from \"../../../interfaces/IController.sol\";\nimport { ISetToken } from \"../../../interfaces/ISetToken.sol\";\nimport { ModuleBase } from \"../../../protocol/lib/ModuleBase.sol\";\n\ncontract ModuleBaseMock is ModuleBase {\n\n    bool public removed;\n\n    constructor(IController _controller) public ModuleBase(_controller) {}\n\n    /* ============ External Functions ============ */\n\n    function testTransferFrom(IERC20 _token, address _from, address _to, uint256 _quantity) external {\n        return transferFrom(_token, _from, _to, _quantity);\n    }\n\n\n    function testIsSetPendingInitialization(ISetToken _setToken) external view returns(bool) {\n        return isSetPendingInitialization(_setToken);\n    }\n\n    function testIsSetManager(ISetToken _setToken, address _toCheck) external view returns(bool) {\n        return isSetManager(_setToken, _toCheck);\n    }\n\n    function testIsSetValidAndInitialized(ISetToken _setToken) external view returns(bool) {\n        return isSetValidAndInitialized(_setToken);\n    }\n\n    function testOnlyManagerAndValidSet(ISetToken _setToken)\n        external\n        view\n        onlyManagerAndValidSet(_setToken)\n    {}\n\n    function testGetAndValidateAdapter(string memory _integrationName) external view returns(address) {\n        return getAndValidateAdapter(_integrationName);\n    }\n\n    function testGetAndValidateAdapterWithHash(bytes32 _integrationHash) external view returns(address) {\n        return getAndValidateAdapterWithHash(_integrationHash);\n    }\n\n    function testGetModuleFee(uint256 _feeIndex, uint256 _quantity) external view returns(uint256) {\n        return getModuleFee(_feeIndex, _quantity);\n    }\n\n    function testPayProtocolFeeFromSetToken(\n        ISetToken _setToken,\n        address _component,\n        uint256 _feeQuantity\n    ) external {\n        payProtocolFeeFromSetToken(_setToken, _component, _feeQuantity);\n    }\n\n    function testOnlySetManager(ISetToken _setToken)\n        external\n        view\n        onlySetManager(_setToken, msg.sender)\n    {}\n\n    function testOnlyModule(ISetToken _setToken)\n        external\n        view\n        onlyModule(_setToken)\n    {}\n\n\n    function removeModule() external override {\n        removed = true;\n    }\n\n    function testOnlyValidAndInitializedSet(ISetToken _setToken)\n        external view onlyValidAndInitializedSet(_setToken) {}\n\n    function testOnlyValidInitialization(ISetToken _setToken)\n        external view onlyValidAndPendingSet(_setToken) {}\n\n    /* ============ Helper Functions ============ */\n\n    function initializeModuleOnSet(ISetToken _setToken) external {\n        _setToken.initializeModule();\n    }\n}",
  "sourcePath": "/Users/tahadhailey/Documents/top5/top5swap/swap/contracts/mocks/protocol/lib/ModuleBaseMock.sol",
  "compiler": {
    "name": "solc",
    "version": "0.6.10+commit.00c0fcaf.Emscripten.clang"
  },
  "schemaVersion": "3.2.1",
  "updatedAt": "2021-01-21T08:20:37.625Z",
  "devdoc": {
    "methods": {}
  },
  "userdoc": {
    "methods": {}
  }
}