{
  "contractName": "ModuleIssuanceHookMock",
  "abi": [
    {
      "inputs": [
        {
          "internalType": "contract ISetToken",
          "name": "_setToken",
          "type": "address"
        }
      ],
      "name": "initialize",
      "outputs": [],
      "stateMutability": "nonpayable",
      "type": "function"
    },
    {
      "inputs": [
        {
          "internalType": "contract ISetToken",
          "name": "_setToken",
          "type": "address"
        },
        {
          "internalType": "uint256",
          "name": "_setTokenQuantity",
          "type": "uint256"
        },
        {
          "internalType": "address",
          "name": "_component",
          "type": "address"
        }
      ],
      "name": "issueHook",
      "outputs": [],
      "stateMutability": "nonpayable",
      "type": "function"
    },
    {
      "inputs": [
        {
          "internalType": "contract ISetToken",
          "name": "_setToken",
          "type": "address"
        },
        {
          "internalType": "uint256",
          "name": "_setTokenQuantity",
          "type": "uint256"
        },
        {
          "internalType": "address",
          "name": "_component",
          "type": "address"
        }
      ],
      "name": "redeemHook",
      "outputs": [],
      "stateMutability": "nonpayable",
      "type": "function"
    }
  ],
  "bytecode": "0x608060405234801561001057600080fd5b50610a4f806100206000396000f3fe608060405234801561001057600080fd5b50600436106100415760003560e01c80633d37b37514610046578063c4d66de8146100b4578063de1a3f51146100f8575b600080fd5b6100b26004803603606081101561005c57600080fd5b81019080803573ffffffffffffffffffffffffffffffffffffffff16906020019092919080359060200190929190803573ffffffffffffffffffffffffffffffffffffffff169060200190929190505050610166565b005b6100f6600480360360208110156100ca57600080fd5b81019080803573ffffffffffffffffffffffffffffffffffffffff16906020019092919050505061033f565b005b6101646004803603606081101561010e57600080fd5b81019080803573ffffffffffffffffffffffffffffffffffffffff16906020019092919080359060200190929190803573ffffffffffffffffffffffffffffffffffffffff1690602001909291905050506103a2565b005b60008373ffffffffffffffffffffffffffffffffffffffff166322ebeba483306040518363ffffffff1660e01b8152600401808373ffffffffffffffffffffffffffffffffffffffff1673ffffffffffffffffffffffffffffffffffffffff1681526020018273ffffffffffffffffffffffffffffffffffffffff1673ffffffffffffffffffffffffffffffffffffffff1681526020019250505060206040518083038186803b15801561021957600080fd5b505afa15801561022d573d6000803e3d6000fd5b505050506040513d602081101561024357600080fd5b810190808051906020019092919050505090506000610273610264836104e5565b8561056590919063ffffffff16565b90508273ffffffffffffffffffffffffffffffffffffffff1663a9059cbb86836040518363ffffffff1660e01b8152600401808373ffffffffffffffffffffffffffffffffffffffff1673ffffffffffffffffffffffffffffffffffffffff16815260200182815260200192505050602060405180830381600087803b1580156102fc57600080fd5b505af1158015610310573d6000803e3d6000fd5b505050506040513d602081101561032657600080fd5b8101908080519060200190929190505050505050505050565b8073ffffffffffffffffffffffffffffffffffffffff16630ffe0f1e6040518163ffffffff1660e01b8152600401600060405180830381600087803b15801561038757600080fd5b505af115801561039b573d6000803e3d6000fd5b5050505050565b60008373ffffffffffffffffffffffffffffffffffffffff166322ebeba483306040518363ffffffff1660e01b8152600401808373ffffffffffffffffffffffffffffffffffffffff1673ffffffffffffffffffffffffffffffffffffffff1681526020018273ffffffffffffffffffffffffffffffffffffffff1673ffffffffffffffffffffffffffffffffffffffff1681526020019250505060206040518083038186803b15801561045557600080fd5b505afa158015610469573d6000803e3d6000fd5b505050506040513d602081101561047f57600080fd5b8101908080519060200190929190505050905060006104af6104a0836104e5565b8561056590919063ffffffff16565b90506104de8330838873ffffffffffffffffffffffffffffffffffffffff1661059c909392919063ffffffff16565b5050505050565b60008082121561055d576040517f08c379a00000000000000000000000000000000000000000000000000000000081526004018080602001828103825260208152602001807f53616665436173743a2076616c7565206d75737420626520706f73697469766581525060200191505060405180910390fd5b819050919050565b6000610594670de0b6b3a7640000610586848661086290919063ffffffff16565b6108e890919063ffffffff16565b905092915050565b600081111561085c5760608282604051602401808373ffffffffffffffffffffffffffffffffffffffff1673ffffffffffffffffffffffffffffffffffffffff168152602001828152602001925050506040516020818303038152906040527fa9059cbb000000000000000000000000000000000000000000000000000000007bffffffffffffffffffffffffffffffffffffffffffffffffffffffff19166020820180517bffffffffffffffffffffffffffffffffffffffffffffffffffffffff838183161783525050505090508473ffffffffffffffffffffffffffffffffffffffff16638f6f0332856000846040518463ffffffff1660e01b8152600401808473ffffffffffffffffffffffffffffffffffffffff1673ffffffffffffffffffffffffffffffffffffffff16815260200183815260200180602001828103825283818151815260200191508051906020019080838360005b838110156107125780820151818401526020810190506106f7565b50505050905090810190601f16801561073f5780820380516001836020036101000a031916815260200191505b50945050505050600060405180830381600087803b15801561076057600080fd5b505af1158015610774573d6000803e3d6000fd5b505050506040513d6000823e3d601f19601f82011682018060405250602081101561079e57600080fd5b81019080805160405193929190846401000000008211156107be57600080fd5b838201915060208201858111156107d457600080fd5b82518660018202830111640100000000821117156107f157600080fd5b8083526020830192505050908051906020019080838360005b8381101561082557808201518184015260208101905061080a565b50505050905090810190601f1680156108525780820380516001836020036101000a031916815260200191505b5060405250505050505b50505050565b60008083141561087557600090506108e2565b600082840290508284828161088657fe5b04146108dd576040517f08c379a00000000000000000000000000000000000000000000000000000000081526004018080602001828103825260218152602001806109f96021913960400191505060405180910390fd5b809150505b92915050565b600061092a83836040518060400160405280601a81526020017f536166654d6174683a206469766973696f6e206279207a65726f000000000000815250610932565b905092915050565b600080831182906109de576040517f08c379a00000000000000000000000000000000000000000000000000000000081526004018080602001828103825283818151815260200191508051906020019080838360005b838110156109a3578082015181840152602081019050610988565b50505050905090810190601f1680156109d05780820380516001836020036101000a031916815260200191505b509250505060405180910390fd5b5060008385816109ea57fe5b04905080915050939250505056fe536166654d6174683a206d756c7469706c69636174696f6e206f766572666c6f77a26469706673582212201949c84626f53075bd6c8326994b7c09dca037e914ac3119e6d25bbbceb77fed64736f6c634300060a0033",
  "immutableReferences": {},
  "source": "/*\n    Copyright 2020 Set Labs Inc.\n\n    Licensed under the Apache License, Version 2.0 (the \"License\");\n    you may not use this file except in compliance with the License.\n    You may obtain a copy of the License at\n\n    http://www.apache.org/licenses/LICENSE-2.0\n\n    Unless required by applicable law or agreed to in writing, software\n    distributed under the License is distributed on an \"AS IS\" BASIS,\n    WITHOUT WARRANTIES OR CONDITIONS OF ANY KIND, either express or implied.\n    See the License for the specific language governing permissions and\n    limitations under the License.\n\n    SPDX-License-Identifier: Apache License, Version 2.0\n*/\npragma solidity 0.6.10;\n\nimport { IERC20 } from \"@openzeppelin/contracts/token/ERC20/IERC20.sol\";\nimport { SafeCast } from \"@openzeppelin/contracts/utils/SafeCast.sol\";\n\nimport { ISetToken } from \"../../../interfaces/ISetToken.sol\";\nimport { Invoke } from \"../../../protocol/lib/Invoke.sol\";\nimport { PreciseUnitMath } from \"../../../lib/PreciseUnitMath.sol\";\n\ncontract ModuleIssuanceHookMock {\n    using Invoke for ISetToken;\n    using SafeCast for int256;\n    using PreciseUnitMath for uint256;\n\n    function initialize(ISetToken _setToken) external {\n        _setToken.initializeModule();\n    }\n\n    function issueHook(\n        ISetToken _setToken,\n        uint256 _setTokenQuantity,\n        address _component\n    ) external {\n        int256 externalPositionUnit = _setToken.getExternalPositionRealUnit(_component, address(this));\n        uint256 totalNotionalExternalModule = _setTokenQuantity.preciseMul(externalPositionUnit.toUint256());\n\n        // Invoke the SetToken to send the token of total notional to this address\n        _setToken.invokeTransfer(_component, address(this), totalNotionalExternalModule);\n    }\n\n    function redeemHook(\n        ISetToken _setToken,\n        uint256 _setTokenQuantity,\n        address _component\n    ) external {\n        // Send the component to the settoken\n        int256 externalPositionUnit = _setToken.getExternalPositionRealUnit(_component, address(this));\n        uint256 totalNotionalExternalModule = _setTokenQuantity.preciseMul(externalPositionUnit.toUint256());\n        IERC20(_component).transfer(address(_setToken), totalNotionalExternalModule);\n    }\n}",
  "sourcePath": "/Users/tahadhailey/Documents/top5/top5swap/swap/contracts/mocks/protocol/module/ModuleIssuanceHookMock.sol",
  "compiler": {
    "name": "solc",
    "version": "0.6.10+commit.00c0fcaf.Emscripten.clang"
  },
  "schemaVersion": "3.2.1",
  "updatedAt": "2021-01-21T08:20:37.629Z",
  "devdoc": {
    "methods": {}
  },
  "userdoc": {
    "methods": {}
  }
}