{
  "contractName": "NavIssuanceModule",
  "abi": [
    {
      "inputs": [
        {
          "internalType": "contract IController",
          "name": "_controller",
          "type": "address"
        },
        {
          "internalType": "contract IWETH",
          "name": "_weth",
          "type": "address"
        }
      ],
      "stateMutability": "nonpayable",
      "type": "constructor"
    },
    {
      "anonymous": false,
      "inputs": [
        {
          "indexed": true,
          "internalType": "contract ISetToken",
          "name": "_setToken",
          "type": "address"
        },
        {
          "indexed": false,
          "internalType": "address",
          "name": "_feeRecipient",
          "type": "address"
        }
      ],
      "name": "FeeRecipientEdited",
      "type": "event"
    },
    {
      "anonymous": false,
      "inputs": [
        {
          "indexed": true,
          "internalType": "contract ISetToken",
          "name": "_setToken",
          "type": "address"
        },
        {
          "indexed": false,
          "internalType": "uint256",
          "name": "_newManagerFee",
          "type": "uint256"
        },
        {
          "indexed": false,
          "internalType": "uint256",
          "name": "_index",
          "type": "uint256"
        }
      ],
      "name": "ManagerFeeEdited",
      "type": "event"
    },
    {
      "anonymous": false,
      "inputs": [
        {
          "indexed": true,
          "internalType": "contract ISetToken",
          "name": "_setToken",
          "type": "address"
        },
        {
          "indexed": false,
          "internalType": "uint256",
          "name": "_newPremium",
          "type": "uint256"
        }
      ],
      "name": "PremiumEdited",
      "type": "event"
    },
    {
      "anonymous": false,
      "inputs": [
        {
          "indexed": true,
          "internalType": "contract ISetToken",
          "name": "_setToken",
          "type": "address"
        },
        {
          "indexed": false,
          "internalType": "address",
          "name": "_newReserveAsset",
          "type": "address"
        }
      ],
      "name": "ReserveAssetAdded",
      "type": "event"
    },
    {
      "anonymous": false,
      "inputs": [
        {
          "indexed": true,
          "internalType": "contract ISetToken",
          "name": "_setToken",
          "type": "address"
        },
        {
          "indexed": false,
          "internalType": "address",
          "name": "_removedReserveAsset",
          "type": "address"
        }
      ],
      "name": "ReserveAssetRemoved",
      "type": "event"
    },
    {
      "anonymous": false,
      "inputs": [
        {
          "indexed": true,
          "internalType": "contract ISetToken",
          "name": "_setToken",
          "type": "address"
        },
        {
          "indexed": false,
          "internalType": "address",
          "name": "_issuer",
          "type": "address"
        },
        {
          "indexed": false,
          "internalType": "address",
          "name": "_to",
          "type": "address"
        },
        {
          "indexed": false,
          "internalType": "address",
          "name": "_reserveAsset",
          "type": "address"
        },
        {
          "indexed": false,
          "internalType": "address",
          "name": "_hookContract",
          "type": "address"
        },
        {
          "indexed": false,
          "internalType": "uint256",
          "name": "_setTokenQuantity",
          "type": "uint256"
        },
        {
          "indexed": false,
          "internalType": "uint256",
          "name": "_managerFee",
          "type": "uint256"
        },
        {
          "indexed": false,
          "internalType": "uint256",
          "name": "_premium",
          "type": "uint256"
        }
      ],
      "name": "SetTokenNAVIssued",
      "type": "event"
    },
    {
      "anonymous": false,
      "inputs": [
        {
          "indexed": true,
          "internalType": "contract ISetToken",
          "name": "_setToken",
          "type": "address"
        },
        {
          "indexed": false,
          "internalType": "address",
          "name": "_redeemer",
          "type": "address"
        },
        {
          "indexed": false,
          "internalType": "address",
          "name": "_to",
          "type": "address"
        },
        {
          "indexed": false,
          "internalType": "address",
          "name": "_reserveAsset",
          "type": "address"
        },
        {
          "indexed": false,
          "internalType": "address",
          "name": "_hookContract",
          "type": "address"
        },
        {
          "indexed": false,
          "internalType": "uint256",
          "name": "_setTokenQuantity",
          "type": "uint256"
        },
        {
          "indexed": false,
          "internalType": "uint256",
          "name": "_managerFee",
          "type": "uint256"
        },
        {
          "indexed": false,
          "internalType": "uint256",
          "name": "_premium",
          "type": "uint256"
        }
      ],
      "name": "SetTokenNAVRedeemed",
      "type": "event"
    },
    {
      "inputs": [],
      "name": "controller",
      "outputs": [
        {
          "internalType": "contract IController",
          "name": "",
          "type": "address"
        }
      ],
      "stateMutability": "view",
      "type": "function"
    },
    {
      "inputs": [
        {
          "internalType": "contract ISetToken",
          "name": "",
          "type": "address"
        },
        {
          "internalType": "address",
          "name": "",
          "type": "address"
        }
      ],
      "name": "isReserveAsset",
      "outputs": [
        {
          "internalType": "bool",
          "name": "",
          "type": "bool"
        }
      ],
      "stateMutability": "view",
      "type": "function"
    },
    {
      "inputs": [
        {
          "internalType": "contract ISetToken",
          "name": "",
          "type": "address"
        }
      ],
      "name": "navIssuanceSettings",
      "outputs": [
        {
          "internalType": "contract INAVIssuanceHook",
          "name": "managerIssuanceHook",
          "type": "address"
        },
        {
          "internalType": "contract INAVIssuanceHook",
          "name": "managerRedemptionHook",
          "type": "address"
        },
        {
          "internalType": "address",
          "name": "feeRecipient",
          "type": "address"
        },
        {
          "internalType": "uint256",
          "name": "maxManagerFee",
          "type": "uint256"
        },
        {
          "internalType": "uint256",
          "name": "premiumPercentage",
          "type": "uint256"
        },
        {
          "internalType": "uint256",
          "name": "maxPremiumPercentage",
          "type": "uint256"
        },
        {
          "internalType": "uint256",
          "name": "minSetTokenSupply",
          "type": "uint256"
        }
      ],
      "stateMutability": "view",
      "type": "function"
    },
    {
      "inputs": [],
      "name": "weth",
      "outputs": [
        {
          "internalType": "contract IWETH",
          "name": "",
          "type": "address"
        }
      ],
      "stateMutability": "view",
      "type": "function"
    },
    {
      "stateMutability": "payable",
      "type": "receive"
    },
    {
      "inputs": [
        {
          "internalType": "contract ISetToken",
          "name": "_setToken",
          "type": "address"
        },
        {
          "internalType": "address",
          "name": "_reserveAsset",
          "type": "address"
        },
        {
          "internalType": "uint256",
          "name": "_reserveAssetQuantity",
          "type": "uint256"
        },
        {
          "internalType": "uint256",
          "name": "_minSetTokenReceiveQuantity",
          "type": "uint256"
        },
        {
          "internalType": "address",
          "name": "_to",
          "type": "address"
        }
      ],
      "name": "issue",
      "outputs": [],
      "stateMutability": "nonpayable",
      "type": "function"
    },
    {
      "inputs": [
        {
          "internalType": "contract ISetToken",
          "name": "_setToken",
          "type": "address"
        },
        {
          "internalType": "uint256",
          "name": "_minSetTokenReceiveQuantity",
          "type": "uint256"
        },
        {
          "internalType": "address",
          "name": "_to",
          "type": "address"
        }
      ],
      "name": "issueWithEther",
      "outputs": [],
      "stateMutability": "payable",
      "type": "function"
    },
    {
      "inputs": [
        {
          "internalType": "contract ISetToken",
          "name": "_setToken",
          "type": "address"
        },
        {
          "internalType": "address",
          "name": "_reserveAsset",
          "type": "address"
        },
        {
          "internalType": "uint256",
          "name": "_setTokenQuantity",
          "type": "uint256"
        },
        {
          "internalType": "uint256",
          "name": "_minReserveReceiveQuantity",
          "type": "uint256"
        },
        {
          "internalType": "address",
          "name": "_to",
          "type": "address"
        }
      ],
      "name": "redeem",
      "outputs": [],
      "stateMutability": "nonpayable",
      "type": "function"
    },
    {
      "inputs": [
        {
          "internalType": "contract ISetToken",
          "name": "_setToken",
          "type": "address"
        },
        {
          "internalType": "uint256",
          "name": "_setTokenQuantity",
          "type": "uint256"
        },
        {
          "internalType": "uint256",
          "name": "_minReserveReceiveQuantity",
          "type": "uint256"
        },
        {
          "internalType": "address payable",
          "name": "_to",
          "type": "address"
        }
      ],
      "name": "redeemIntoEther",
      "outputs": [],
      "stateMutability": "nonpayable",
      "type": "function"
    },
    {
      "inputs": [
        {
          "internalType": "contract ISetToken",
          "name": "_setToken",
          "type": "address"
        },
        {
          "internalType": "address",
          "name": "_reserveAsset",
          "type": "address"
        }
      ],
      "name": "addReserveAsset",
      "outputs": [],
      "stateMutability": "nonpayable",
      "type": "function"
    },
    {
      "inputs": [
        {
          "internalType": "contract ISetToken",
          "name": "_setToken",
          "type": "address"
        },
        {
          "internalType": "address",
          "name": "_reserveAsset",
          "type": "address"
        }
      ],
      "name": "removeReserveAsset",
      "outputs": [],
      "stateMutability": "nonpayable",
      "type": "function"
    },
    {
      "inputs": [
        {
          "internalType": "contract ISetToken",
          "name": "_setToken",
          "type": "address"
        },
        {
          "internalType": "uint256",
          "name": "_premiumPercentage",
          "type": "uint256"
        }
      ],
      "name": "editPremium",
      "outputs": [],
      "stateMutability": "nonpayable",
      "type": "function"
    },
    {
      "inputs": [
        {
          "internalType": "contract ISetToken",
          "name": "_setToken",
          "type": "address"
        },
        {
          "internalType": "uint256",
          "name": "_managerFeePercentage",
          "type": "uint256"
        },
        {
          "internalType": "uint256",
          "name": "_managerFeeIndex",
          "type": "uint256"
        }
      ],
      "name": "editManagerFee",
      "outputs": [],
      "stateMutability": "nonpayable",
      "type": "function"
    },
    {
      "inputs": [
        {
          "internalType": "contract ISetToken",
          "name": "_setToken",
          "type": "address"
        },
        {
          "internalType": "address",
          "name": "_managerFeeRecipient",
          "type": "address"
        }
      ],
      "name": "editFeeRecipient",
      "outputs": [],
      "stateMutability": "nonpayable",
      "type": "function"
    },
    {
      "inputs": [
        {
          "internalType": "contract ISetToken",
          "name": "_setToken",
          "type": "address"
        },
        {
          "components": [
            {
              "internalType": "contract INAVIssuanceHook",
              "name": "managerIssuanceHook",
              "type": "address"
            },
            {
              "internalType": "contract INAVIssuanceHook",
              "name": "managerRedemptionHook",
              "type": "address"
            },
            {
              "internalType": "address[]",
              "name": "reserveAssets",
              "type": "address[]"
            },
            {
              "internalType": "address",
              "name": "feeRecipient",
              "type": "address"
            },
            {
              "internalType": "uint256[2]",
              "name": "managerFees",
              "type": "uint256[2]"
            },
            {
              "internalType": "uint256",
              "name": "maxManagerFee",
              "type": "uint256"
            },
            {
              "internalType": "uint256",
              "name": "premiumPercentage",
              "type": "uint256"
            },
            {
              "internalType": "uint256",
              "name": "maxPremiumPercentage",
              "type": "uint256"
            },
            {
              "internalType": "uint256",
              "name": "minSetTokenSupply",
              "type": "uint256"
            }
          ],
          "internalType": "struct NavIssuanceModule.NAVIssuanceSettings",
          "name": "_navIssuanceSettings",
          "type": "tuple"
        }
      ],
      "name": "initialize",
      "outputs": [],
      "stateMutability": "nonpayable",
      "type": "function"
    },
    {
      "inputs": [],
      "name": "removeModule",
      "outputs": [],
      "stateMutability": "nonpayable",
      "type": "function"
    },
    {
      "inputs": [
        {
          "internalType": "contract ISetToken",
          "name": "_setToken",
          "type": "address"
        }
      ],
      "name": "getReserveAssets",
      "outputs": [
        {
          "internalType": "address[]",
          "name": "",
          "type": "address[]"
        }
      ],
      "stateMutability": "view",
      "type": "function"
    },
    {
      "inputs": [
        {
          "internalType": "contract ISetToken",
          "name": "_setToken",
          "type": "address"
        },
        {
          "internalType": "address",
          "name": "_reserveAsset",
          "type": "address"
        },
        {
          "internalType": "uint256",
          "name": "_reserveAssetQuantity",
          "type": "uint256"
        }
      ],
      "name": "getIssuePremium",
      "outputs": [
        {
          "internalType": "uint256",
          "name": "",
          "type": "uint256"
        }
      ],
      "stateMutability": "view",
      "type": "function"
    },
    {
      "inputs": [
        {
          "internalType": "contract ISetToken",
          "name": "_setToken",
          "type": "address"
        },
        {
          "internalType": "address",
          "name": "_reserveAsset",
          "type": "address"
        },
        {
          "internalType": "uint256",
          "name": "_setTokenQuantity",
          "type": "uint256"
        }
      ],
      "name": "getRedeemPremium",
      "outputs": [
        {
          "internalType": "uint256",
          "name": "",
          "type": "uint256"
        }
      ],
      "stateMutability": "view",
      "type": "function"
    },
    {
      "inputs": [
        {
          "internalType": "contract ISetToken",
          "name": "_setToken",
          "type": "address"
        },
        {
          "internalType": "uint256",
          "name": "_managerFeeIndex",
          "type": "uint256"
        }
      ],
      "name": "getManagerFee",
      "outputs": [
        {
          "internalType": "uint256",
          "name": "",
          "type": "uint256"
        }
      ],
      "stateMutability": "view",
      "type": "function"
    },
    {
      "inputs": [
        {
          "internalType": "contract ISetToken",
          "name": "_setToken",
          "type": "address"
        },
        {
          "internalType": "address",
          "name": "_reserveAsset",
          "type": "address"
        },
        {
          "internalType": "uint256",
          "name": "_reserveAssetQuantity",
          "type": "uint256"
        }
      ],
      "name": "getExpectedSetTokenIssueQuantity",
      "outputs": [
        {
          "internalType": "uint256",
          "name": "",
          "type": "uint256"
        }
      ],
      "stateMutability": "view",
      "type": "function"
    },
    {
      "inputs": [
        {
          "internalType": "contract ISetToken",
          "name": "_setToken",
          "type": "address"
        },
        {
          "internalType": "address",
          "name": "_reserveAsset",
          "type": "address"
        },
        {
          "internalType": "uint256",
          "name": "_setTokenQuantity",
          "type": "uint256"
        }
      ],
      "name": "getExpectedReserveRedeemQuantity",
      "outputs": [
        {
          "internalType": "uint256",
          "name": "",
          "type": "uint256"
        }
      ],
      "stateMutability": "view",
      "type": "function"
    },
    {
      "inputs": [
        {
          "internalType": "contract ISetToken",
          "name": "_setToken",
          "type": "address"
        },
        {
          "internalType": "address",
          "name": "_reserveAsset",
          "type": "address"
        },
        {
          "internalType": "uint256",
          "name": "_reserveAssetQuantity",
          "type": "uint256"
        }
      ],
      "name": "isIssueValid",
      "outputs": [
        {
          "internalType": "bool",
          "name": "",
          "type": "bool"
        }
      ],
      "stateMutability": "view",
      "type": "function"
    },
    {
      "inputs": [
        {
          "internalType": "contract ISetToken",
          "name": "_setToken",
          "type": "address"
        },
        {
          "internalType": "address",
          "name": "_reserveAsset",
          "type": "address"
        },
        {
          "internalType": "uint256",
          "name": "_setTokenQuantity",
          "type": "uint256"
        }
      ],
      "name": "isRedeemValid",
      "outputs": [
        {
          "internalType": "bool",
          "name": "",
          "type": "bool"
        }
      ],
      "stateMutability": "view",
      "type": "function"
    }
  ],
  "bytecode": "0x60a06040523480156200001157600080fd5b5060405162008258380380620082588339818101604052810190620000379190620000ed565b81806000806101000a81548173ffffffffffffffffffffffffffffffffffffffff021916908373ffffffffffffffffffffffffffffffffffffffff16021790555050600180819055508073ffffffffffffffffffffffffffffffffffffffff1660808173ffffffffffffffffffffffffffffffffffffffff1660601b815250505050620001be565b600081519050620000d0816200018a565b92915050565b600081519050620000e781620001a4565b92915050565b600080604083850312156200010157600080fd5b60006200011185828601620000bf565b92505060206200012485828601620000d6565b9150509250929050565b60006200013b826200016a565b9050919050565b60006200014f826200012e565b9050919050565b600062000163826200012e565b9050919050565b600073ffffffffffffffffffffffffffffffffffffffff82169050919050565b620001958162000142565b8114620001a157600080fd5b50565b620001af8162000156565b8114620001bb57600080fd5b50565b60805160601c618036620002226000398061064b52806106d052806106fb528061073052806107725280610f7b52806124fa528061253952806125de528061262c528061270a52806127355280612f735280613032528061319052506180366000f3fe6080604052600436106101445760003560e01c80637f977948116100b6578063b98b60301161006f578063b98b60301461048c578063d5f8394a146104b5578063df3fa714146104de578063ee673ac414610507578063f529c18a1461054a578063f77c4791146105875761014b565b80637f9779481461036c578063847ef08d146103a957806391819fb3146103c05780639c5ad283146103e95780639f6f6ba914610426578063add7745a1461044f5761014b565b80632f879fa3116101085780632f879fa31461022457806330b305f9146102615780633fc8cef31461028a5780634b79da0a146102b557806364b2dc7a146102f25780636ff7f6da1461032f5761014b565b806302c619d01461015057806304f1b5711461016c578063080b16f8146101a95780630e3af8ad146101d2578063281d0115146101fb5761014b565b3661014b57005b600080fd5b61016a6004803603810190610165919061637f565b6105b2565b005b34801561017857600080fd5b50610193600480360381019061018e9190616343565b6107a6565b6040516101a09190617c34565b60405180910390f35b3480156101b557600080fd5b506101d060048036038101906101cb91906161ed565b6107ff565b005b3480156101de57600080fd5b506101f960048036038101906101f49190616343565b6109d5565b005b34801561020757600080fd5b50610222600480360381019061021d91906161ed565b610b86565b005b34801561023057600080fd5b5061024b60048036038101906102469190616229565b610e6d565b6040516102589190617c34565b60405180910390f35b34801561026d57600080fd5b5061028860048036038101906102839190616278565b610e83565b005b34801561029657600080fd5b5061029f610f79565b6040516102ac91906176fc565b60405180910390f35b3480156102c157600080fd5b506102dc60048036038101906102d791906161c4565b610f9d565b6040516102e99190617574565b60405180910390f35b3480156102fe57600080fd5b50610319600480360381019061031491906161ed565b61106d565b6040516103269190617596565b60405180910390f35b34801561033b57600080fd5b5061035660048036038101906103519190616229565b61109c565b6040516103639190617c34565b60405180910390f35b34801561037857600080fd5b50610393600480360381019061038e9190616229565b6110ce565b6040516103a09190617c34565b60405180910390f35b3480156103b557600080fd5b506103be61117e565b005b3480156103cc57600080fd5b506103e760048036038101906103e291906161ed565b6113e1565b005b3480156103f557600080fd5b50610410600480360381019061040b9190616229565b61174a565b60405161041d9190617596565b60405180910390f35b34801561043257600080fd5b5061044d60048036038101906104489190616278565b6119ae565b005b34801561045b57600080fd5b5061047660048036038101906104719190616229565b611b42565b6040516104839190617596565b60405180910390f35b34801561049857600080fd5b506104b360048036038101906104ae91906162ef565b611cb4565b005b3480156104c157600080fd5b506104dc60048036038101906104d7919061641d565b61245d565b005b3480156104ea57600080fd5b50610505600480360381019061050091906163ce565b61276a565b005b34801561051357600080fd5b5061052e600480360381019061052991906161c4565b61292a565b60405161054197969594939291906175cc565b60405180910390f35b34801561055657600080fd5b50610571600480360381019061056c9190616229565b6129cc565b60405161057e9190617c34565b60405180910390f35b34801561059357600080fd5b5061059c6129e2565b6040516105a991906175b1565b60405180910390f35b600260015414156105f8576040517f08c379a00000000000000000000000000000000000000000000000000000000081526004016105ef90617c14565b60405180910390fd5b60026001819055508261060a81612a07565b610649576040517f08c379a0000000000000000000000000000000000000000000000000000000008152600401610640906177b4565b60405180910390fd5b7f000000000000000000000000000000000000000000000000000000000000000073ffffffffffffffffffffffffffffffffffffffff1663d0e30db0346040518263ffffffff1660e01b81526004016000604051808303818588803b1580156106b157600080fd5b505af11580156106c5573d6000803e3d6000fd5b50505050506106f5847f000000000000000000000000000000000000000000000000000000000000000034612b4b565b610722847f0000000000000000000000000000000000000000000000000000000000000000343386612c5c565b61072a615bae565b610755857f000000000000000000000000000000000000000000000000000000000000000034612d73565b9050610762858583612e9c565b61076c8582612f71565b610798857f000000000000000000000000000000000000000000000000000000000000000085846132a7565b505060018081905550505050565b6000600260008473ffffffffffffffffffffffffffffffffffffffff1673ffffffffffffffffffffffffffffffffffffffff16815260200190815260200160002060040182600281106107f557fe5b0154905092915050565b8161080a8133613485565b610849576040517f08c379a000000000000000000000000000000000000000000000000000000000815260040161084090617b74565b60405180910390fd5b61085281612a07565b610891576040517f08c379a0000000000000000000000000000000000000000000000000000000008152600401610888906177b4565b60405180910390fd5b600073ffffffffffffffffffffffffffffffffffffffff168273ffffffffffffffffffffffffffffffffffffffff161415610901576040517f08c379a00000000000000000000000000000000000000000000000000000000081526004016108f890617894565b60405180910390fd5b81600260008573ffffffffffffffffffffffffffffffffffffffff1673ffffffffffffffffffffffffffffffffffffffff16815260200190815260200160002060030160006101000a81548173ffffffffffffffffffffffffffffffffffffffff021916908373ffffffffffffffffffffffffffffffffffffffff1602179055508273ffffffffffffffffffffffffffffffffffffffff167fff78699124ce6ab1e48255152542b253d1e5c0fc925308a48852e674777ace35836040516109c891906173fa565b60405180910390a2505050565b816109e08133613485565b610a1f576040517f08c379a0000000000000000000000000000000000000000000000000000000008152600401610a1690617b74565b60405180910390fd5b610a2881612a07565b610a67576040517f08c379a0000000000000000000000000000000000000000000000000000000008152600401610a5e906177b4565b60405180910390fd5b600260008473ffffffffffffffffffffffffffffffffffffffff1673ffffffffffffffffffffffffffffffffffffffff16815260200190815260200160002060080154821115610aec576040517f08c379a0000000000000000000000000000000000000000000000000000000008152600401610ae390617994565b60405180910390fd5b81600260008573ffffffffffffffffffffffffffffffffffffffff1673ffffffffffffffffffffffffffffffffffffffff168152602001908152602001600020600701819055508273ffffffffffffffffffffffffffffffffffffffff167fd0db665d5987480b1c4e28f4484b1a9fabff141ffcb5a9ff9f384e4672155c0583604051610b799190617c34565b60405180910390a2505050565b81610b918133613485565b610bd0576040517f08c379a0000000000000000000000000000000000000000000000000000000008152600401610bc790617b74565b60405180910390fd5b610bd981612a07565b610c18576040517f08c379a0000000000000000000000000000000000000000000000000000000008152600401610c0f906177b4565b60405180910390fd5b600360008473ffffffffffffffffffffffffffffffffffffffff1673ffffffffffffffffffffffffffffffffffffffff16815260200190815260200160002060008373ffffffffffffffffffffffffffffffffffffffff1673ffffffffffffffffffffffffffffffffffffffff16815260200190815260200160002060009054906101000a900460ff1615610ce2576040517f08c379a0000000000000000000000000000000000000000000000000000000008152600401610cd9906178f4565b60405180910390fd5b600260008473ffffffffffffffffffffffffffffffffffffffff1673ffffffffffffffffffffffffffffffffffffffff168152602001908152602001600020600201829080600181540180825580915050600190039060005260206000200160009091909190916101000a81548173ffffffffffffffffffffffffffffffffffffffff021916908373ffffffffffffffffffffffffffffffffffffffff1602179055506001600360008573ffffffffffffffffffffffffffffffffffffffff1673ffffffffffffffffffffffffffffffffffffffff16815260200190815260200160002060008473ffffffffffffffffffffffffffffffffffffffff1673ffffffffffffffffffffffffffffffffffffffff16815260200190815260200160002060006101000a81548160ff0219169083151502179055508273ffffffffffffffffffffffffffffffffffffffff167f94257d51a6470b587cb1ae3068fee4bce93eff4d149a98bd05aee37ae491148783604051610e6091906173fa565b60405180910390a2505050565b6000610e7a84848461353b565b90509392505050565b60026001541415610ec9576040517f08c379a0000000000000000000000000000000000000000000000000000000008152600401610ec090617c14565b60405180910390fd5b600260018190555084610edb81612a07565b610f1a576040517f08c379a0000000000000000000000000000000000000000000000000000000008152600401610f11906177b4565b60405180910390fd5b610f25868686612b4b565b610f328686863386612c5c565b610f3a615bae565b610f45878787612d73565b9050610f52878583612e9c565b610f5d878783613589565b610f69878785846132a7565b5050600180819055505050505050565b7f000000000000000000000000000000000000000000000000000000000000000081565b6060600260008373ffffffffffffffffffffffffffffffffffffffff1673ffffffffffffffffffffffffffffffffffffffff16815260200190815260200160002060020180548060200260200160405190810160405280929190818152602001828054801561106157602002820191906000526020600020905b8160009054906101000a900473ffffffffffffffffffffffffffffffffffffffff1673ffffffffffffffffffffffffffffffffffffffff1681526020019060010190808311611017575b50505050509050919050565b60036020528160005260406000206020528060005260406000206000915091509054906101000a900460ff1681565b6000806110aa8585856136da565b905060006110be86836001600360016138a7565b9250505080925050509392505050565b6000806110e185846000600260006138a7565b9250505060008573ffffffffffffffffffffffffffffffffffffffff166318160ddd6040518163ffffffff1660e01b815260040160206040518083038186803b15801561112d57600080fd5b505afa158015611141573d6000803e3d6000fd5b505050506040513d601f19601f8201168201806040525081019061116591906164a9565b90506111738686848461392f565b925050509392505050565b600033905060008090505b600260008373ffffffffffffffffffffffffffffffffffffffff1673ffffffffffffffffffffffffffffffffffffffff168152602001908152602001600020600201805490508110156112e657600360008373ffffffffffffffffffffffffffffffffffffffff1673ffffffffffffffffffffffffffffffffffffffff1681526020019081526020016000206000600260008573ffffffffffffffffffffffffffffffffffffffff1673ffffffffffffffffffffffffffffffffffffffff168152602001908152602001600020600201838154811061126457fe5b9060005260206000200160009054906101000a900473ffffffffffffffffffffffffffffffffffffffff1673ffffffffffffffffffffffffffffffffffffffff1673ffffffffffffffffffffffffffffffffffffffff16815260200190815260200160002060006101000a81549060ff02191690558080600101915050611189565b50600260008273ffffffffffffffffffffffffffffffffffffffff1673ffffffffffffffffffffffffffffffffffffffff168152602001908152602001600020600080820160006101000a81549073ffffffffffffffffffffffffffffffffffffffff02191690556001820160006101000a81549073ffffffffffffffffffffffffffffffffffffffff02191690556002820160006113859190615bfa565b6003820160006101000a81549073ffffffffffffffffffffffffffffffffffffffff02191690556004820160006113bc9190615c1b565b6006820160009055600782016000905560088201600090556009820160009055505050565b816113ec8133613485565b61142b576040517f08c379a000000000000000000000000000000000000000000000000000000000815260040161142290617b74565b60405180910390fd5b61143481612a07565b611473576040517f08c379a000000000000000000000000000000000000000000000000000000000815260040161146a906177b4565b60405180910390fd5b600360008473ffffffffffffffffffffffffffffffffffffffff1673ffffffffffffffffffffffffffffffffffffffff16815260200190815260200160002060008373ffffffffffffffffffffffffffffffffffffffff1673ffffffffffffffffffffffffffffffffffffffff16815260200190815260200160002060009054906101000a900460ff1661153c576040517f08c379a0000000000000000000000000000000000000000000000000000000008152600401611533906178b4565b60405180910390fd5b61161582600260008673ffffffffffffffffffffffffffffffffffffffff1673ffffffffffffffffffffffffffffffffffffffff16815260200190815260200160002060020180548060200260200160405190810160405280929190818152602001828054801561160257602002820191906000526020600020905b8160009054906101000a900473ffffffffffffffffffffffffffffffffffffffff1673ffffffffffffffffffffffffffffffffffffffff16815260200190600101908083116115b8575b5050505050613b6090919063ffffffff16565b600260008573ffffffffffffffffffffffffffffffffffffffff1673ffffffffffffffffffffffffffffffffffffffff168152602001908152602001600020600201908051906020019061166a929190615c29565b50600360008473ffffffffffffffffffffffffffffffffffffffff1673ffffffffffffffffffffffffffffffffffffffff16815260200190815260200160002060008373ffffffffffffffffffffffffffffffffffffffff1673ffffffffffffffffffffffffffffffffffffffff16815260200190815260200160002060006101000a81549060ff02191690558273ffffffffffffffffffffffffffffffffffffffff167f3c59157886f089a91f7813e86300f9f9b36289e41e7c09c70f9cc208b810cd948360405161173d91906173fa565b60405180910390a2505050565b6000808473ffffffffffffffffffffffffffffffffffffffff166318160ddd6040518163ffffffff1660e01b815260040160206040518083038186803b15801561179357600080fd5b505afa1580156117a7573d6000803e3d6000fd5b505050506040513d601f19601f820116820180604052508101906117cb91906164a9565b905060008314806118635750600360008673ffffffffffffffffffffffffffffffffffffffff1673ffffffffffffffffffffffffffffffffffffffff16815260200190815260200160002060008573ffffffffffffffffffffffffffffffffffffffff1673ffffffffffffffffffffffffffffffffffffffff16815260200190815260200160002060009054906101000a900460ff16155b806118c157506118be83600260008873ffffffffffffffffffffffffffffffffffffffff1673ffffffffffffffffffffffffffffffffffffffff16815260200190815260200160002060090154613bce90919063ffffffff16565b81105b156118d05760009150506119a7565b60006118dd8686866136da565b905060006118f187836001600360016138a7565b9250505060006119888873ffffffffffffffffffffffffffffffffffffffff166366cb8d2f896040518263ffffffff1660e01b815260040161193391906173fa565b60206040518083038186803b15801561194b57600080fd5b505afa15801561195f573d6000803e3d6000fd5b505050506040513d601f19601f820116820180604052508101906119839190616480565b613c23565b90508161199e8583613c7090919063ffffffff16565b10159450505050505b9392505050565b600260015414156119f4576040517f08c379a00000000000000000000000000000000000000000000000000000000081526004016119eb90617c14565b60405180910390fd5b600260018190555084611a0681612a07565b611a45576040517f08c379a0000000000000000000000000000000000000000000000000000000008152600401611a3c906177b4565b60405180910390fd5b611a50868686612b4b565b611a5c86853385613ca7565b611a64615bae565b611a6f878787613dbb565b9050611a7d87858784613edc565b8673ffffffffffffffffffffffffffffffffffffffff16639dc29fac33876040518363ffffffff1660e01b8152600401611ab8929190617484565b600060405180830381600087803b158015611ad257600080fd5b505af1158015611ae6573d6000803e3d6000fd5b50505050611b1b868483606001518a73ffffffffffffffffffffffffffffffffffffffff16613fb2909392919063ffffffff16565b611b2687878361413e565b611b32878785846141f3565b5050600180819055505050505050565b6000808473ffffffffffffffffffffffffffffffffffffffff166318160ddd6040518163ffffffff1660e01b815260040160206040518083038186803b158015611b8b57600080fd5b505afa158015611b9f573d6000803e3d6000fd5b505050506040513d601f19601f82011682018060405250810190611bc391906164a9565b905060008314158015611c5c5750600360008673ffffffffffffffffffffffffffffffffffffffff1673ffffffffffffffffffffffffffffffffffffffff16815260200190815260200160002060008573ffffffffffffffffffffffffffffffffffffffff1673ffffffffffffffffffffffffffffffffffffffff16815260200190815260200160002060009054906101000a900460ff165b8015611caa5750600260008673ffffffffffffffffffffffffffffffffffffffff1673ffffffffffffffffffffffffffffffffffffffff168152602001908152602001600020600901548110155b9150509392505050565b8133611cc08282613485565b611cff576040517f08c379a0000000000000000000000000000000000000000000000000000000008152600401611cf690617b74565b60405180910390fd5b836000809054906101000a900473ffffffffffffffffffffffffffffffffffffffff1673ffffffffffffffffffffffffffffffffffffffff166374ebe3ec826040518263ffffffff1660e01b8152600401611d5a91906173fa565b60206040518083038186803b158015611d7257600080fd5b505afa158015611d86573d6000803e3d6000fd5b505050506040513d601f19601f82011682018060405250810190611daa919061615a565b611de9576040517f08c379a0000000000000000000000000000000000000000000000000000000008152600401611de090617b54565b60405180910390fd5b611df281614360565b611e31576040517f08c379a0000000000000000000000000000000000000000000000000000000008152600401611e2890617854565b60405180910390fd5b600084604001515111611e79576040517f08c379a0000000000000000000000000000000000000000000000000000000008152600401611e7090617914565b60405180910390fd5b611e816143f2565b8460a0015110611ec6576040517f08c379a0000000000000000000000000000000000000000000000000000000008152600401611ebd90617bd4565b60405180910390fd5b611ece6143f2565b8460e0015110611f13576040517f08c379a0000000000000000000000000000000000000000000000000000000008152600401611f0a90617a14565b60405180910390fd5b8360a001518460800151600060028110611f2957fe5b60200201511115611f6f576040517f08c379a0000000000000000000000000000000000000000000000000000000008152600401611f6690617ad4565b60405180910390fd5b8360a001518460800151600160028110611f8557fe5b60200201511115611fcb576040517f08c379a0000000000000000000000000000000000000000000000000000000008152600401611fc290617874565b60405180910390fd5b8360e001518460c001511115612016576040517f08c379a000000000000000000000000000000000000000000000000000000000815260040161200d90617834565b60405180910390fd5b600073ffffffffffffffffffffffffffffffffffffffff16846060015173ffffffffffffffffffffffffffffffffffffffff16141561208a576040517f08c379a000000000000000000000000000000000000000000000000000000000815260040161208190617af4565b60405180910390fd5b6000846101000151116120d2576040517f08c379a00000000000000000000000000000000000000000000000000000000081526004016120c9906177d4565b60405180910390fd5b60008090505b84604001515181101561227f57600360008773ffffffffffffffffffffffffffffffffffffffff1673ffffffffffffffffffffffffffffffffffffffff16815260200190815260200160002060008660400151838151811061213657fe5b602002602001015173ffffffffffffffffffffffffffffffffffffffff1673ffffffffffffffffffffffffffffffffffffffff16815260200190815260200160002060009054906101000a900460ff16156121c6576040517f08c379a00000000000000000000000000000000000000000000000000000000081526004016121bd90617a54565b60405180910390fd5b6001600360008873ffffffffffffffffffffffffffffffffffffffff1673ffffffffffffffffffffffffffffffffffffffff16815260200190815260200160002060008760400151848151811061221957fe5b602002602001015173ffffffffffffffffffffffffffffffffffffffff1673ffffffffffffffffffffffffffffffffffffffff16815260200190815260200160002060006101000a81548160ff02191690831515021790555080806001019150506120d8565b5083600260008773ffffffffffffffffffffffffffffffffffffffff1673ffffffffffffffffffffffffffffffffffffffff16815260200190815260200160002060008201518160000160006101000a81548173ffffffffffffffffffffffffffffffffffffffff021916908373ffffffffffffffffffffffffffffffffffffffff16021790555060208201518160010160006101000a81548173ffffffffffffffffffffffffffffffffffffffff021916908373ffffffffffffffffffffffffffffffffffffffff160217905550604082015181600201908051906020019061236a929190615c29565b5060608201518160030160006101000a81548173ffffffffffffffffffffffffffffffffffffffff021916908373ffffffffffffffffffffffffffffffffffffffff1602179055506080820151816004019060026123c9929190615cb3565b5060a0820151816006015560c0820151816007015560e0820151816008015561010082015181600901559050508473ffffffffffffffffffffffffffffffffffffffff16630ffe0f1e6040518163ffffffff1660e01b8152600401600060405180830381600087803b15801561243e57600080fd5b505af1158015612452573d6000803e3d6000fd5b505050505050505050565b600260015414156124a3576040517f08c379a000000000000000000000000000000000000000000000000000000000815260040161249a90617c14565b60405180910390fd5b6002600181905550836124b581612a07565b6124f4576040517f08c379a00000000000000000000000000000000000000000000000000000000081526004016124eb906177b4565b60405180910390fd5b61251f857f000000000000000000000000000000000000000000000000000000000000000086612b4b565b61252b85853385613ca7565b612533615bae565b61255e867f000000000000000000000000000000000000000000000000000000000000000087613dbb565b905061256c86858784613edc565b8573ffffffffffffffffffffffffffffffffffffffff16639dc29fac33876040518363ffffffff1660e01b81526004016125a7929190617484565b600060405180830381600087803b1580156125c157600080fd5b505af11580156125d5573d6000803e3d6000fd5b5050505061262a7f00000000000000000000000000000000000000000000000000000000000000003083606001518973ffffffffffffffffffffffffffffffffffffffff16613fb2909392919063ffffffff16565b7f000000000000000000000000000000000000000000000000000000000000000073ffffffffffffffffffffffffffffffffffffffff16632e1a7d4d82606001516040518263ffffffff1660e01b81526004016126879190617c34565b600060405180830381600087803b1580156126a157600080fd5b505af11580156126b5573d6000803e3d6000fd5b505050508273ffffffffffffffffffffffffffffffffffffffff166108fc82606001519081150290604051600060405180830381858888f19350505050158015612703573d6000803e3d6000fd5b5061272f867f00000000000000000000000000000000000000000000000000000000000000008361413e565b61275b867f000000000000000000000000000000000000000000000000000000000000000085846141f3565b50506001808190555050505050565b826127758133613485565b6127b4576040517f08c379a00000000000000000000000000000000000000000000000000000000081526004016127ab90617b74565b60405180910390fd5b6127bd81612a07565b6127fc576040517f08c379a00000000000000000000000000000000000000000000000000000000081526004016127f3906177b4565b60405180910390fd5b600260008573ffffffffffffffffffffffffffffffffffffffff1673ffffffffffffffffffffffffffffffffffffffff16815260200190815260200160002060060154831115612881576040517f08c379a000000000000000000000000000000000000000000000000000000000815260040161287890617b94565b60405180910390fd5b82600260008673ffffffffffffffffffffffffffffffffffffffff1673ffffffffffffffffffffffffffffffffffffffff16815260200190815260200160002060040183600281106128cf57fe5b01819055508373ffffffffffffffffffffffffffffffffffffffff167f4e913bee7cf10ece89b3c5593df3898d1a324864d38052df88792a7d87a17488848460405161291c929190617c4f565b60405180910390a250505050565b60026020528060005260406000206000915090508060000160009054906101000a900473ffffffffffffffffffffffffffffffffffffffff16908060010160009054906101000a900473ffffffffffffffffffffffffffffffffffffffff16908060030160009054906101000a900473ffffffffffffffffffffffffffffffffffffffff16908060060154908060070154908060080154908060090154905087565b60006129d9848484614402565b90509392505050565b6000809054906101000a900473ffffffffffffffffffffffffffffffffffffffff1681565b60008060009054906101000a900473ffffffffffffffffffffffffffffffffffffffff1673ffffffffffffffffffffffffffffffffffffffff166374ebe3ec836040518263ffffffff1660e01b8152600401612a6391906173fa565b60206040518083038186803b158015612a7b57600080fd5b505afa158015612a8f573d6000803e3d6000fd5b505050506040513d601f19601f82011682018060405250810190612ab3919061615a565b8015612b4457508173ffffffffffffffffffffffffffffffffffffffff1663d7f1b27c306040518263ffffffff1660e01b8152600401612af391906173fa565b60206040518083038186803b158015612b0b57600080fd5b505afa158015612b1f573d6000803e3d6000fd5b505050506040513d601f19601f82011682018060405250810190612b43919061615a565b5b9050919050565b60008111612b8e576040517f08c379a0000000000000000000000000000000000000000000000000000000008152600401612b8590617794565b60405180910390fd5b600360008473ffffffffffffffffffffffffffffffffffffffff1673ffffffffffffffffffffffffffffffffffffffff16815260200190815260200160002060008373ffffffffffffffffffffffffffffffffffffffff1673ffffffffffffffffffffffffffffffffffffffff16815260200190815260200160002060009054906101000a900460ff16612c57576040517f08c379a0000000000000000000000000000000000000000000000000000000008152600401612c4e906179b4565b60405180910390fd5b505050565b6000600260008773ffffffffffffffffffffffffffffffffffffffff1673ffffffffffffffffffffffffffffffffffffffff16815260200190815260200160002060000160009054906101000a900473ffffffffffffffffffffffffffffffffffffffff169050600073ffffffffffffffffffffffffffffffffffffffff168173ffffffffffffffffffffffffffffffffffffffff1614612d6b578073ffffffffffffffffffffffffffffffffffffffff1663fb42e7ec87878787876040518663ffffffff1660e01b8152600401612d38959493929190617664565b600060405180830381600087803b158015612d5257600080fd5b505af1158015612d66573d6000803e3d6000fd5b505050505b505050505050565b612d7b615bae565b612d83615bae565b8473ffffffffffffffffffffffffffffffffffffffff166318160ddd6040518163ffffffff1660e01b815260040160206040518083038186803b158015612dc957600080fd5b505afa158015612ddd573d6000803e3d6000fd5b505050506040513d601f19601f82011682018060405250810190612e0191906164a9565b8160a001818152505082816000018181525050612e288582600001516000600260006138a7565b836020018460400185606001838152508381525083815250505050612e57858583606001518460a0015161392f565b816080018181525050612e6a8582614450565b8260c0018360e00182815250828152505050612e8785858361453b565b81610100018181525050809150509392505050565b600260008473ffffffffffffffffffffffffffffffffffffffff1673ffffffffffffffffffffffffffffffffffffffff168152602001908152602001600020600901548160a001511015612f25576040517f08c379a0000000000000000000000000000000000000000000000000000000008152600401612f1c90617954565b60405180910390fd5b8181608001511015612f6c576040517f08c379a0000000000000000000000000000000000000000000000000000000008152600401612f63906177f4565b60405180910390fd5b505050565b7f000000000000000000000000000000000000000000000000000000000000000073ffffffffffffffffffffffffffffffffffffffff1663a9059cbb8383606001516040518363ffffffff1660e01b8152600401612fd092919061754b565b602060405180830381600087803b158015612fea57600080fd5b505af1158015612ffe573d6000803e3d6000fd5b505050506040513d601f19601f82011682018060405250810190613022919061615a565b50600081602001511115613181577f000000000000000000000000000000000000000000000000000000000000000073ffffffffffffffffffffffffffffffffffffffff1663a9059cbb6000809054906101000a900473ffffffffffffffffffffffffffffffffffffffff1673ffffffffffffffffffffffffffffffffffffffff1663469048406040518163ffffffff1660e01b815260040160206040518083038186803b1580156130d357600080fd5b505afa1580156130e7573d6000803e3d6000fd5b505050506040513d601f19601f8201168201806040525081019061310b91906160f0565b83602001516040518363ffffffff1660e01b815260040161312d92919061754b565b602060405180830381600087803b15801561314757600080fd5b505af115801561315b573d6000803e3d6000fd5b505050506040513d601f19601f8201168201806040525081019061317f919061615a565b505b6000816040015111156132a3577f000000000000000000000000000000000000000000000000000000000000000073ffffffffffffffffffffffffffffffffffffffff1663a9059cbb600260008573ffffffffffffffffffffffffffffffffffffffff1673ffffffffffffffffffffffffffffffffffffffff16815260200190815260200160002060030160009054906101000a900473ffffffffffffffffffffffffffffffffffffffff1683604001516040518363ffffffff1660e01b815260040161324f92919061754b565b602060405180830381600087803b15801561326957600080fd5b505af115801561327d573d6000803e3d6000fd5b505050506040513d601f19601f820116820180604052508101906132a1919061615a565b505b5050565b8373ffffffffffffffffffffffffffffffffffffffff1663c2de0e9d8260e001516040518263ffffffff1660e01b81526004016132e49190617717565b600060405180830381600087803b1580156132fe57600080fd5b505af1158015613312573d6000803e3d6000fd5b50505050613346838261010001518673ffffffffffffffffffffffffffffffffffffffff166146249092919063ffffffff16565b8373ffffffffffffffffffffffffffffffffffffffff166340c10f198383608001516040518363ffffffff1660e01b815260040161338592919061754b565b600060405180830381600087803b15801561339f57600080fd5b505af11580156133b3573d6000803e3d6000fd5b505050508373ffffffffffffffffffffffffffffffffffffffff167fab151ef72553d84db96b5656139e68d5e348f8273d15b1724db8f3c09832d80e338486600260008a73ffffffffffffffffffffffffffffffffffffffff1673ffffffffffffffffffffffffffffffffffffffff16815260200190815260200160002060000160009054906101000a900473ffffffffffffffffffffffffffffffffffffffff168660800151876040015188602001516040516134779796959493929190617415565b60405180910390a250505050565b60008173ffffffffffffffffffffffffffffffffffffffff168373ffffffffffffffffffffffffffffffffffffffff1663481c6a756040518163ffffffff1660e01b815260040160206040518083038186803b1580156134e457600080fd5b505afa1580156134f8573d6000803e3d6000fd5b505050506040513d601f19601f8201168201806040525081019061351c91906160f0565b73ffffffffffffffffffffffffffffffffffffffff1614905092915050565b6000600260008573ffffffffffffffffffffffffffffffffffffffff1673ffffffffffffffffffffffffffffffffffffffff1681526020019081526020016000206007015490509392505050565b61359982338584606001516147cd565b6000816020015111156136555761365482336000809054906101000a900473ffffffffffffffffffffffffffffffffffffffff1673ffffffffffffffffffffffffffffffffffffffff1663469048406040518163ffffffff1660e01b815260040160206040518083038186803b15801561361257600080fd5b505afa158015613626573d6000803e3d6000fd5b505050506040513d601f19601f8201168201806040525081019061364a91906160f0565b84602001516147cd565b5b6000816040015111156136d5576136d48233600260008773ffffffffffffffffffffffffffffffffffffffff1673ffffffffffffffffffffffffffffffffffffffff16815260200190815260200160002060030160009054906101000a900473ffffffffffffffffffffffffffffffffffffffff1684604001516147cd565b5b505050565b60008061371d6000809054906101000a900473ffffffffffffffffffffffffffffffffffffffff1673ffffffffffffffffffffffffffffffffffffffff166147df565b73ffffffffffffffffffffffffffffffffffffffff16636101c54086866040518363ffffffff1660e01b815260040161375792919061763b565b60206040518083038186803b15801561376f57600080fd5b505afa158015613783573d6000803e3d6000fd5b505050506040513d601f19601f820116820180604052508101906137a791906164a9565b905060006137be8285613c7090919063ffffffff16565b905060008573ffffffffffffffffffffffffffffffffffffffff1663313ce5676040518163ffffffff1660e01b815260040160206040518083038186803b15801561380857600080fd5b505afa15801561381c573d6000803e3d6000fd5b505050506040513d601f19601f8201168201806040525081019061384091906164d2565b60ff169050600061385d82600a0a84613c7090919063ffffffff16565b9050600061386c89898961353b565b90506000613883828461487290919063ffffffff16565b905061389881846148ec90919063ffffffff16565b96505050505050509392505050565b60008060008060006138bb8a898989614936565b9150915060006138d48a84613c7090919063ffffffff16565b905060006138eb8b84613c7090919063ffffffff16565b9050600061391482613906858f6148ec90919063ffffffff16565b6148ec90919063ffffffff16565b90508282829750975097505050505050955095509592505050565b60008061393d868686614402565b905060006139548286613c7090919063ffffffff16565b905060006139986000809054906101000a900473ffffffffffffffffffffffffffffffffffffffff1673ffffffffffffffffffffffffffffffffffffffff166147df565b73ffffffffffffffffffffffffffffffffffffffff16636101c54089896040518363ffffffff1660e01b81526004016139d292919061763b565b60206040518083038186803b1580156139ea57600080fd5b505afa1580156139fe573d6000803e3d6000fd5b505050506040513d601f19601f82011682018060405250810190613a2291906164a9565b905060008773ffffffffffffffffffffffffffffffffffffffff1663313ce5676040518163ffffffff1660e01b815260040160206040518083038186803b158015613a6c57600080fd5b505afa158015613a80573d6000803e3d6000fd5b505050506040513d601f19601f82011682018060405250810190613aa491906164d2565b60ff1690506000613ac182600a0a89614b4690919063ffffffff16565b90506000613aed83600a0a613adf878c6148ec90919063ffffffff16565b614b4690919063ffffffff16565b90506000613b2882613b1a85613b0c898e613c7090919063ffffffff16565b613bce90919063ffffffff16565b6148ec90919063ffffffff16565b9050613b4f81613b418b85613c7090919063ffffffff16565b614b4690919063ffffffff16565b975050505050505050949350505050565b6060600080613b6f8585614b7d565b9150915080613bb3576040517f08c379a0000000000000000000000000000000000000000000000000000000008152600401613baa90617754565b60405180910390fd5b6060613bbf8684614c27565b50905080935050505092915050565b600080828401905083811015613c19576040517f08c379a0000000000000000000000000000000000000000000000000000000008152600401613c1090617814565b60405180910390fd5b8091505092915050565b600080821215613c68576040517f08c379a0000000000000000000000000000000000000000000000000000000008152600401613c5f906179d4565b60405180910390fd5b819050919050565b6000613c9f670de0b6b3a7640000613c918486614dd590919063ffffffff16565b614e4590919063ffffffff16565b905092915050565b6000600260008673ffffffffffffffffffffffffffffffffffffffff1673ffffffffffffffffffffffffffffffffffffffff16815260200190815260200160002060010160009054906101000a900473ffffffffffffffffffffffffffffffffffffffff169050600073ffffffffffffffffffffffffffffffffffffffff168173ffffffffffffffffffffffffffffffffffffffff1614613db4578073ffffffffffffffffffffffffffffffffffffffff16639b19c2bf868686866040518563ffffffff1660e01b8152600401613d8194939291906176b7565b600060405180830381600087803b158015613d9b57600080fd5b505af1158015613daf573d6000803e3d6000fd5b505050505b5050505050565b613dc3615bae565b613dcb615bae565b82816080018181525050613de08585856136da565b816000018181525050613dfd8582600001516001600360016138a7565b8360200184604001856060018381525083815250838152505050508473ffffffffffffffffffffffffffffffffffffffff166318160ddd6040518163ffffffff1660e01b815260040160206040518083038186803b158015613e5e57600080fd5b505afa158015613e72573d6000803e3d6000fd5b505050506040513d601f19601f82011682018060405250810190613e9691906164a9565b8160a0018181525050613eaa858483614e8f565b8260c0018360e00182815250828152505050613ec7858583614f77565b81610100018181525050809150509392505050565b600260008573ffffffffffffffffffffffffffffffffffffffff1673ffffffffffffffffffffffffffffffffffffffff168152602001908152602001600020600901548160c001511015613f65576040517f08c379a0000000000000000000000000000000000000000000000000000000008152600401613f5c906178d4565b60405180910390fd5b8281606001511015613fac576040517f08c379a0000000000000000000000000000000000000000000000000000000008152600401613fa390617974565b60405180910390fd5b50505050565b60008111156141385760008373ffffffffffffffffffffffffffffffffffffffff166370a08231866040518263ffffffff1660e01b8152600401613ff691906173fa565b60206040518083038186803b15801561400e57600080fd5b505afa158015614022573d6000803e3d6000fd5b505050506040513d601f19601f8201168201806040525081019061404691906164a9565b9050614054858585856150d5565b60008473ffffffffffffffffffffffffffffffffffffffff166370a08231876040518263ffffffff1660e01b815260040161408f91906173fa565b60206040518083038186803b1580156140a757600080fd5b505afa1580156140bb573d6000803e3d6000fd5b505050506040513d601f19601f820116820180604052508101906140df91906164a9565b90506140f483836148ec90919063ffffffff16565b8114614135576040517f08c379a000000000000000000000000000000000000000000000000000000000815260040161412c90617ab4565b60405180910390fd5b50505b50505050565b61414d83838360200151615210565b6000816040015111156141ee576141ed82600260008673ffffffffffffffffffffffffffffffffffffffff1673ffffffffffffffffffffffffffffffffffffffff16815260200190815260200160002060030160009054906101000a900473ffffffffffffffffffffffffffffffffffffffff1683604001518673ffffffffffffffffffffffffffffffffffffffff16613fb2909392919063ffffffff16565b5b505050565b8373ffffffffffffffffffffffffffffffffffffffff1663c2de0e9d8260e001516040518263ffffffff1660e01b81526004016142309190617717565b600060405180830381600087803b15801561424a57600080fd5b505af115801561425e573d6000803e3d6000fd5b50505050614292838261010001518673ffffffffffffffffffffffffffffffffffffffff166146249092919063ffffffff16565b8373ffffffffffffffffffffffffffffffffffffffff167f76608da3459f30443b27df4954c2ee5953695a78cf2327545bc5992eca749f4f338486600260008a73ffffffffffffffffffffffffffffffffffffffff1673ffffffffffffffffffffffffffffffffffffffff16815260200190815260200160002060010160009054906101000a900473ffffffffffffffffffffffffffffffffffffffff168660800151876040015188602001516040516143529796959493929190617415565b60405180910390a250505050565b60008173ffffffffffffffffffffffffffffffffffffffff166353bae5f7306040518263ffffffff1660e01b815260040161439b91906173fa565b60206040518083038186803b1580156143b357600080fd5b505afa1580156143c7573d6000803e3d6000fd5b505050506040513d601f19601f820116820180604052508101906143eb919061615a565b9050919050565b6000670de0b6b3a7640000905090565b6000600260008573ffffffffffffffffffffffffffffffffffffffff1673ffffffffffffffffffffffffffffffffffffffff1681526020019081526020016000206007015490509392505050565b60008060006144708460a001518560800151613bce90919063ffffffff16565b9050600061452a614480836152ea565b61451c6144908860a001516152ea565b8973ffffffffffffffffffffffffffffffffffffffff16635230c3966040518163ffffffff1660e01b815260040160206040518083038186803b1580156144d657600080fd5b505afa1580156144ea573d6000803e3d6000fd5b505050506040513d601f19601f8201168201806040525081019061450e9190616480565b61535690919063ffffffff16565b61545490919063ffffffff16565b905081819350935050509250929050565b6000806145cf8573ffffffffffffffffffffffffffffffffffffffff166366cb8d2f866040518263ffffffff1660e01b815260040161457a91906173fa565b60206040518083038186803b15801561459257600080fd5b505afa1580156145a6573d6000803e3d6000fd5b505050506040513d601f19601f820116820180604052508101906145ca9190616480565b613c23565b9050600061460084606001516145f28660a0015185613c7090919063ffffffff16565b613bce90919063ffffffff16565b90506146198460c0015182614b4690919063ffffffff16565b925050509392505050565b6000614630848461553f565b9050801580156146405750600082115b156146c45761464f84846155d4565b6146bf578373ffffffffffffffffffffffffffffffffffffffff16634e353270846040518263ffffffff1660e01b815260040161468c91906173fa565b600060405180830381600087803b1580156146a657600080fd5b505af11580156146ba573d6000803e3d6000fd5b505050505b614752565b8080156146d15750600082145b15614751576146e084846155d4565b614750578373ffffffffffffffffffffffffffffffffffffffff16636f86c897846040518263ffffffff1660e01b815260040161471d91906173fa565b600060405180830381600087803b15801561473757600080fd5b505af115801561474b573d6000803e3d6000fd5b505050505b5b5b8373ffffffffffffffffffffffffffffffffffffffff16632ba57d1784614778856152ea565b6040518363ffffffff1660e01b81526004016147959291906174e4565b600060405180830381600087803b1580156147af57600080fd5b505af11580156147c3573d6000803e3d6000fd5b5050505050505050565b6147d98484848461566f565b50505050565b60008173ffffffffffffffffffffffffffffffffffffffff1663e765ced660026040518263ffffffff1660e01b815260040161481b9190617c34565b60206040518083038186803b15801561483357600080fd5b505afa158015614847573d6000803e3d6000fd5b505050506040513d601f19601f8201168201806040525081019061486b91906160f0565b9050919050565b6000808314806148825750600082145b1561489057600090506148e6565b6148e360016148d5670de0b6b3a76400006148c760016148b9888a614dd590919063ffffffff16565b6148ec90919063ffffffff16565b614e4590919063ffffffff16565b613bce90919063ffffffff16565b90505b92915050565b600061492e83836040518060400160405280601e81526020017f536166654d6174683a207375627472616374696f6e206f766572666c6f7700008152506157fb565b905092915050565b60008060008060009054906101000a900473ffffffffffffffffffffffffffffffffffffffff1673ffffffffffffffffffffffffffffffffffffffff1663792aa04f30876040518363ffffffff1660e01b8152600401614997929190617484565b60206040518083038186803b1580156149af57600080fd5b505afa1580156149c3573d6000803e3d6000fd5b505050506040513d601f19601f820116820180604052508101906149e791906164a9565b905060008060009054906101000a900473ffffffffffffffffffffffffffffffffffffffff1673ffffffffffffffffffffffffffffffffffffffff1663792aa04f30896040518363ffffffff1660e01b8152600401614a47929190617484565b60206040518083038186803b158015614a5f57600080fd5b505afa158015614a73573d6000803e3d6000fd5b505050506040513d601f19601f82011682018060405250810190614a9791906164a9565b90506000600260008a73ffffffffffffffffffffffffffffffffffffffff1673ffffffffffffffffffffffffffffffffffffffff1681526020019081526020016000206004018660028110614ae857fe5b015490506000614b018284613c7090919063ffffffff16565b90506000614b1882846148ec90919063ffffffff16565b90506000614b2f8684613bce90919063ffffffff16565b905081819750975050505050505094509492505050565b6000614b7582614b67670de0b6b3a764000086614dd590919063ffffffff16565b614e4590919063ffffffff16565b905092915050565b60008060008451905060008090505b81811015614bf6578473ffffffffffffffffffffffffffffffffffffffff16868281518110614bb757fe5b602002602001015173ffffffffffffffffffffffffffffffffffffffff161415614be957806001935093505050614c20565b8080600101915050614b8c565b507fffffffffffffffffffffffffffffffffffffffffffffffffffffffffffffffff600092509250505b9250929050565b60606000808451905084518410614c73576040517f08c379a0000000000000000000000000000000000000000000000000000000008152600401614c6a90617774565b60405180910390fd5b60606001820367ffffffffffffffff81118015614c8f57600080fd5b50604051908082528060200260200182016040528015614cbe5781602001602082028036833780820191505090505b50905060008090505b85811015614d3657868181518110614cdb57fe5b6020026020010151828281518110614cef57fe5b602002602001019073ffffffffffffffffffffffffffffffffffffffff16908173ffffffffffffffffffffffffffffffffffffffff16815250508080600101915050614cc7565b5060006001860190505b82811015614db257868181518110614d5457fe5b6020026020010151826001830381518110614d6b57fe5b602002602001019073ffffffffffffffffffffffffffffffffffffffff16908173ffffffffffffffffffffffffffffffffffffffff16815250508080600101915050614d40565b5080868681518110614dc057fe5b60200260200101519350935050509250929050565b600080831415614de85760009050614e3f565b6000828402905082848281614df957fe5b0414614e3a576040517f08c379a0000000000000000000000000000000000000000000000000000000008152600401614e3190617a74565b60405180910390fd5b809150505b92915050565b6000614e8783836040518060400160405280601a81526020017f536166654d6174683a206469766973696f6e206279207a65726f000000000000815250615856565b905092915050565b6000806000614eab858560a001516148ec90919063ffffffff16565b90506000614f65614ebb836152ea565b614f57614ecb8860a001516152ea565b8a73ffffffffffffffffffffffffffffffffffffffff16635230c3966040518163ffffffff1660e01b815260040160206040518083038186803b158015614f1157600080fd5b505afa158015614f25573d6000803e3d6000fd5b505050506040513d601f19601f82011682018060405250810190614f499190616480565b61535690919063ffffffff16565b61545490919063ffffffff16565b90508181935093505050935093915050565b60008061500b8573ffffffffffffffffffffffffffffffffffffffff166366cb8d2f866040518263ffffffff1660e01b8152600401614fb691906173fa565b60206040518083038186803b158015614fce57600080fd5b505afa158015614fe2573d6000803e3d6000fd5b505050506040513d601f19601f820116820180604052508101906150069190616480565b613c23565b905060006150268460a0015183613c7090919063ffffffff16565b9050600061505b856040015161504d87602001518860600151613bce90919063ffffffff16565b613bce90919063ffffffff16565b9050808210156150a0576040517f08c379a000000000000000000000000000000000000000000000000000000000815260040161509790617a34565b60405180910390fd5b6150c98560c001516150bb83856148ec90919063ffffffff16565b614b4690919063ffffffff16565b93505050509392505050565b600081111561520a57606082826040516024016150f392919061754b565b6040516020818303038152906040527fa9059cbb000000000000000000000000000000000000000000000000000000007bffffffffffffffffffffffffffffffffffffffffffffffffffffffff19166020820180517bffffffffffffffffffffffffffffffffffffffffffffffffffffffff838183161783525050505090508473ffffffffffffffffffffffffffffffffffffffff16638f6f0332856000846040518463ffffffff1660e01b81526004016151b09392919061750d565b600060405180830381600087803b1580156151ca57600080fd5b505af11580156151de573d6000803e3d6000fd5b505050506040513d6000823e3d601f19601f820116820180604052508101906152079190616183565b50505b50505050565b60008111156152e5576152e4826000809054906101000a900473ffffffffffffffffffffffffffffffffffffffff1673ffffffffffffffffffffffffffffffffffffffff1663469048406040518163ffffffff1660e01b815260040160206040518083038186803b15801561528457600080fd5b505afa158015615298573d6000803e3d6000fd5b505050506040513d601f19601f820116820180604052508101906152bc91906160f0565b838673ffffffffffffffffffffffffffffffffffffffff16613fb2909392919063ffffffff16565b5b505050565b60007f8000000000000000000000000000000000000000000000000000000000000000821061534e576040517f08c379a000000000000000000000000000000000000000000000000000000000815260040161534590617b34565b60405180910390fd5b819050919050565b600080831415615369576000905061544e565b7fffffffffffffffffffffffffffffffffffffffffffffffffffffffffffffffff831480156153b757507f800000000000000000000000000000000000000000000000000000000000000082145b156153f7576040517f08c379a00000000000000000000000000000000000000000000000000000000081526004016153ee90617a94565b60405180910390fd5b600082840290508284828161540857fe5b0514615449576040517f08c379a000000000000000000000000000000000000000000000000000000000815260040161544090617a94565b60405180910390fd5b809150505b92915050565b600080821415615499576040517f08c379a000000000000000000000000000000000000000000000000000000000815260040161549090617bf4565b60405180910390fd5b7fffffffffffffffffffffffffffffffffffffffffffffffffffffffffffffffff821480156154e757507f800000000000000000000000000000000000000000000000000000000000000083145b15615527576040517f08c379a000000000000000000000000000000000000000000000000000000000815260040161551e906179f4565b60405180910390fd5b600082848161553257fe5b0590508091505092915050565b6000808373ffffffffffffffffffffffffffffffffffffffff166366cb8d2f846040518263ffffffff1660e01b815260040161557b91906173fa565b60206040518083038186803b15801561559357600080fd5b505afa1580156155a7573d6000803e3d6000fd5b505050506040513d601f19601f820116820180604052508101906155cb9190616480565b13905092915050565b6000808373ffffffffffffffffffffffffffffffffffffffff1663a7bdad03846040518263ffffffff1660e01b815260040161561091906173fa565b60006040518083038186803b15801561562857600080fd5b505afa15801561563c573d6000803e3d6000fd5b505050506040513d6000823e3d601f19601f820116820180604052508101906156659190616119565b5111905092915050565b60008111156157f55760008473ffffffffffffffffffffffffffffffffffffffff166370a08231846040518263ffffffff1660e01b81526004016156b391906173fa565b60206040518083038186803b1580156156cb57600080fd5b505afa1580156156df573d6000803e3d6000fd5b505050506040513d601f19601f8201168201806040525081019061570391906164a9565b9050615711858585856158b7565b60008573ffffffffffffffffffffffffffffffffffffffff166370a08231856040518263ffffffff1660e01b815260040161574c91906173fa565b60206040518083038186803b15801561576457600080fd5b505afa158015615778573d6000803e3d6000fd5b505050506040513d601f19601f8201168201806040525081019061579c91906164a9565b90506157b18383613bce90919063ffffffff16565b81146157f2576040517f08c379a00000000000000000000000000000000000000000000000000000000081526004016157e990617ab4565b60405180910390fd5b50505b50505050565b6000838311158290615843576040517f08c379a000000000000000000000000000000000000000000000000000000000815260040161583a9190617732565b60405180910390fd5b5060008385039050809150509392505050565b6000808311829061589d576040517f08c379a00000000000000000000000000000000000000000000000000000000081526004016158949190617732565b60405180910390fd5b5060008385816158a957fe5b049050809150509392505050565b61593a846323b872dd60e01b8585856040516024016158d8939291906174ad565b604051602081830303815290604052907bffffffffffffffffffffffffffffffffffffffffffffffffffffffff19166020820180517bffffffffffffffffffffffffffffffffffffffffffffffffffffffff8381831617835250505050615940565b50505050565b60606159a2826040518060400160405280602081526020017f5361666545524332303a206c6f772d6c6576656c2063616c6c206661696c65648152508573ffffffffffffffffffffffffffffffffffffffff16615a079092919063ffffffff16565b9050600081511115615a0257808060200190518101906159c2919061615a565b615a01576040517f08c379a00000000000000000000000000000000000000000000000000000000081526004016159f890617bb4565b60405180910390fd5b5b505050565b6060615a168484600085615a1f565b90509392505050565b606082471015615a64576040517f08c379a0000000000000000000000000000000000000000000000000000000008152600401615a5b90617934565b60405180910390fd5b615a6d85615b34565b615aac576040517f08c379a0000000000000000000000000000000000000000000000000000000008152600401615aa390617b14565b60405180910390fd5b600060608673ffffffffffffffffffffffffffffffffffffffff168587604051615ad691906173e3565b60006040518083038185875af1925050503d8060008114615b13576040519150601f19603f3d011682016040523d82523d6000602084013e615b18565b606091505b5091509150615b28828286615b47565b92505050949350505050565b600080823b905060008111915050919050565b60608315615b5757829050615ba7565b600083511115615b6a5782518084602001fd5b816040517f08c379a0000000000000000000000000000000000000000000000000000000008152600401615b9e9190617732565b60405180910390fd5b9392505050565b6040518061012001604052806000815260200160008152602001600081526020016000815260200160008152602001600081526020016000815260200160008152602001600081525090565b5080546000825590600052602060002090810190615c189190615cf3565b50565b506000815560010160009055565b828054828255906000526020600020908101928215615ca2579160200282015b82811115615ca15782518260006101000a81548173ffffffffffffffffffffffffffffffffffffffff021916908373ffffffffffffffffffffffffffffffffffffffff16021790555091602001919060010190615c49565b5b509050615caf9190615d18565b5090565b8260028101928215615ce2579160200282015b82811115615ce1578251825591602001919060010190615cc6565b5b509050615cef9190615cf3565b5090565b615d1591905b80821115615d11576000816000905550600101615cf9565b5090565b90565b615d5891905b80821115615d5457600081816101000a81549073ffffffffffffffffffffffffffffffffffffffff021916905550600101615d1e565b5090565b90565b600081359050615d6a81617f48565b92915050565b600081519050615d7f81617f48565b92915050565b600081359050615d9481617f5f565b92915050565b600082601f830112615dab57600080fd5b8135615dbe615db982617ca5565b617c78565b91508181835260208401935060208101905083856020840282011115615de357600080fd5b60005b83811015615e135781615df98882615d5b565b845260208401935060208301925050600181019050615de6565b5050505092915050565b600082601f830112615e2e57600080fd5b8151615e41615e3c82617ca5565b617c78565b91508181835260208401935060208101905083856020840282011115615e6657600080fd5b60005b83811015615e965781615e7c8882615d70565b845260208401935060208301925050600181019050615e69565b5050505092915050565b600082601f830112615eb157600080fd5b6002615ec4615ebf82617ccd565b617c78565b91508183856020840282011115615eda57600080fd5b60005b83811015615f0a5781615ef088826160b1565b845260208401935060208301925050600181019050615edd565b5050505092915050565b600081519050615f2381617f76565b92915050565b600082601f830112615f3a57600080fd5b8151615f4d615f4882617cef565b617c78565b91508082526020830160208301858383011115615f6957600080fd5b615f74838284617f04565b50505092915050565b600081359050615f8c81617f8d565b92915050565b600081359050615fa181617fa4565b92915050565b600081519050615fb681617fbb565b92915050565b60006101408284031215615fcf57600080fd5b615fda610120617c78565b90506000615fea84828501615f7d565b6000830152506020615ffe84828501615f7d565b602083015250604082013567ffffffffffffffff81111561601e57600080fd5b61602a84828501615d9a565b604083015250606061603e84828501615d5b565b606083015250608061605284828501615ea0565b60808301525060c0616066848285016160b1565b60a08301525060e061607a848285016160b1565b60c08301525061010061608f848285016160b1565b60e0830152506101206160a4848285016160b1565b6101008301525092915050565b6000813590506160c081617fd2565b92915050565b6000815190506160d581617fd2565b92915050565b6000815190506160ea81617fe9565b92915050565b60006020828403121561610257600080fd5b600061611084828501615d70565b91505092915050565b60006020828403121561612b57600080fd5b600082015167ffffffffffffffff81111561614557600080fd5b61615184828501615e1d565b91505092915050565b60006020828403121561616c57600080fd5b600061617a84828501615f14565b91505092915050565b60006020828403121561619557600080fd5b600082015167ffffffffffffffff8111156161af57600080fd5b6161bb84828501615f29565b91505092915050565b6000602082840312156161d657600080fd5b60006161e484828501615f92565b91505092915050565b6000806040838503121561620057600080fd5b600061620e85828601615f92565b925050602061621f85828601615d5b565b9150509250929050565b60008060006060848603121561623e57600080fd5b600061624c86828701615f92565b935050602061625d86828701615d5b565b925050604061626e868287016160b1565b9150509250925092565b600080600080600060a0868803121561629057600080fd5b600061629e88828901615f92565b95505060206162af88828901615d5b565b94505060406162c0888289016160b1565b93505060606162d1888289016160b1565b92505060806162e288828901615d5b565b9150509295509295909350565b6000806040838503121561630257600080fd5b600061631085828601615f92565b925050602083013567ffffffffffffffff81111561632d57600080fd5b61633985828601615fbc565b9150509250929050565b6000806040838503121561635657600080fd5b600061636485828601615f92565b9250506020616375858286016160b1565b9150509250929050565b60008060006060848603121561639457600080fd5b60006163a286828701615f92565b93505060206163b3868287016160b1565b92505060406163c486828701615d5b565b9150509250925092565b6000806000606084860312156163e357600080fd5b60006163f186828701615f92565b9350506020616402868287016160b1565b9250506040616413868287016160b1565b9150509250925092565b6000806000806080858703121561643357600080fd5b600061644187828801615f92565b9450506020616452878288016160b1565b9350506040616463878288016160b1565b925050606061647487828801615d85565b91505092959194509250565b60006020828403121561649257600080fd5b60006164a084828501615fa7565b91505092915050565b6000602082840312156164bb57600080fd5b60006164c9848285016160c6565b91505092915050565b6000602082840312156164e457600080fd5b60006164f2848285016160db565b91505092915050565b60006165078383616522565b60208301905092915050565b61651c81617e2c565b82525050565b61652b81617d97565b82525050565b61653a81617d97565b82525050565b600061654b82617d2b565b6165558185617d59565b935061656083617d1b565b8060005b8381101561659157815161657888826164fb565b975061658383617d4c565b925050600181019050616564565b5085935050505092915050565b6165a781617dbb565b82525050565b60006165b882617d36565b6165c28185617d6a565b93506165d2818560208601617f04565b6165db81617f37565b840191505092915050565b60006165f182617d36565b6165fb8185617d7b565b935061660b818560208601617f04565b80840191505092915050565b61662081617e3e565b82525050565b61662f81617e62565b82525050565b61663e81617e86565b82525050565b61664d81617eaa565b82525050565b61665c81617deb565b82525050565b61666b81617ece565b82525050565b600061667c82617d41565b6166868185617d86565b9350616696818560208601617f04565b61669f81617f37565b840191505092915050565b60006166b7601583617d86565b91507f41646472657373206e6f7420696e2061727261792e00000000000000000000006000830152602082019050919050565b60006166f7601883617d86565b91507f496e646578206d757374206265203c2041206c656e67746800000000000000006000830152602082019050919050565b6000616737601483617d86565b91507f5175616e74697479206d757374206265203e20300000000000000000000000006000830152602082019050919050565b6000616777602883617d86565b91507f4d75737420626520612076616c696420616e6420696e697469616c697a65642060008301527f536574546f6b656e0000000000000000000000000000000000000000000000006020830152604082019050919050565b60006167dd602a83617d86565b91507f4d696e20536574546f6b656e20737570706c79206d757374206265206772656160008301527f746572207468616e2030000000000000000000000000000000000000000000006020830152604082019050919050565b6000616843602183617d86565b91507f4d7573742062652067726561746572207468616e206d696e20536574546f6b6560008301527f6e000000000000000000000000000000000000000000000000000000000000006020830152604082019050919050565b60006168a9601b83617d86565b91507f536166654d6174683a206164646974696f6e206f766572666c6f7700000000006000830152602082019050919050565b60006168e9601d83617d86565b91507f5072656d69756d206d757374206265206c657373207468616e206d61780000006000830152602082019050919050565b6000616929601e83617d86565b91507f4d7573742062652070656e64696e6720696e697469616c697a6174696f6e00006000830152602082019050919050565b6000616969602883617d86565b91507f4d616e616765722072656465656d20666565206d757374206265206c6573732060008301527f7468616e206d61780000000000000000000000000000000000000000000000006020830152604082019050919050565b60006169cf602383617d86565b91507f46656520726563697069656e74206d757374206e6f742062652030206164647260008301527f65737300000000000000000000000000000000000000000000000000000000006020830152604082019050919050565b6000616a35601c83617d86565b91507f5265736572766520617373657420646f6573206e6f74206578697374000000006000830152602082019050919050565b6000616a75603883617d86565b91507f537570706c79206d7573742062652067726561746572207468616e206d696e6960008301527f6d756d20746f20656e61626c6520726564656d7074696f6e00000000000000006020830152604082019050919050565b6000616adb601c83617d86565b91507f5265736572766520617373657420616c726561647920657869737473000000006000830152602082019050919050565b6000616b1b602583617d86565b91507f5265736572766520617373657473206d7573742062652067726561746572207460008301527f68616e20300000000000000000000000000000000000000000000000000000006020830152604082019050919050565b6000616b81602683617d86565b91507f416464726573733a20696e73756666696369656e742062616c616e636520666f60008301527f722063616c6c00000000000000000000000000000000000000000000000000006020830152604082019050919050565b6000616be7603683617d86565b91507f537570706c79206d7573742062652067726561746572207468616e206d696e6960008301527f6d756d20746f20656e61626c652069737375616e6365000000000000000000006020830152604082019050919050565b6000616c4d603183617d86565b91507f4d7573742062652067726561746572207468616e206d696e207265636569766560008301527f2072657365727665207175616e746974790000000000000000000000000000006020830152604082019050919050565b6000616cb3602983617d86565b91507f5072656d69756d206d757374206265206c657373207468616e206d6178696d7560008301527f6d20616c6c6f77656400000000000000000000000000000000000000000000006020830152604082019050919050565b6000616d19601b83617d86565b91507f4d7573742062652076616c6964207265736572766520617373657400000000006000830152602082019050919050565b6000616d59602083617d86565b91507f53616665436173743a2076616c7565206d75737420626520706f7369746976656000830152602082019050919050565b6000616d99602183617d86565b91507f5369676e6564536166654d6174683a206469766973696f6e206f766572666c6f60008301527f77000000000000000000000000000000000000000000000000000000000000006020830152604082019050919050565b6000616dff602d83617d86565b91507f4d6178207072656d69756d2070657263656e74616765206d757374206265206c60008301527f657373207468616e2031303025000000000000000000000000000000000000006020830152604082019050919050565b6000616e65602f83617d86565b91507f4d7573742062652067726561746572207468616e20746f74616c20617661696c60008301527f61626c6520636f6c6c61746572616c00000000000000000000000000000000006020830152604082019050919050565b6000616ecb601d83617d86565b91507f5265736572766520617373657473206d75737420626520756e697175650000006000830152602082019050919050565b6000616f0b602183617d86565b91507f536166654d6174683a206d756c7469706c69636174696f6e206f766572666c6f60008301527f77000000000000000000000000000000000000000000000000000000000000006020830152604082019050919050565b6000616f71602783617d86565b91507f5369676e6564536166654d6174683a206d756c7469706c69636174696f6e206f60008301527f766572666c6f77000000000000000000000000000000000000000000000000006020830152604082019050919050565b6000616fd7601d83617d86565b91507f496e76616c696420706f7374207472616e736665722062616c616e63650000006000830152602082019050919050565b6000617017602783617d86565b91507f4d616e6167657220697373756520666565206d757374206265206c657373207460008301527f68616e206d6178000000000000000000000000000000000000000000000000006020830152604082019050919050565b600061707d602783617d86565b91507f46656520526563697069656e74206d757374206265206e6f6e2d7a65726f206160008301527f6464726573732e000000000000000000000000000000000000000000000000006020830152604082019050919050565b60006170e3601d83617d86565b91507f416464726573733a2063616c6c20746f206e6f6e2d636f6e74726163740000006000830152602082019050919050565b6000617123602883617d86565b91507f53616665436173743a2076616c756520646f65736e27742066697420696e206160008301527f6e20696e743235360000000000000000000000000000000000000000000000006020830152604082019050919050565b6000617189602383617d86565b91507f4d75737420626520636f6e74726f6c6c65722d656e61626c656420536574546f60008301527f6b656e00000000000000000000000000000000000000000000000000000000006020830152604082019050919050565b60006171ef601c83617d86565b91507f4d7573742062652074686520536574546f6b656e206d616e61676572000000006000830152602082019050919050565b600061722f602d83617d86565b91507f4d616e6167657220666565206d757374206265206c657373207468616e206d6160008301527f78696d756d20616c6c6f776564000000000000000000000000000000000000006020830152604082019050919050565b6000617295602a83617d86565b91507f5361666545524332303a204552433230206f7065726174696f6e20646964206e60008301527f6f742073756363656564000000000000000000000000000000000000000000006020830152604082019050919050565b60006172fb602683617d86565b91507f4d6178206d616e6167657220666565206d757374206265206c6573732074686160008301527f6e203130302500000000000000000000000000000000000000000000000000006020830152604082019050919050565b6000617361602083617d86565b91507f5369676e6564536166654d6174683a206469766973696f6e206279207a65726f6000830152602082019050919050565b60006173a1601f83617d86565b91507f5265656e7472616e637947756172643a207265656e7472616e742063616c6c006000830152602082019050919050565b6173dd81617e15565b82525050565b60006173ef82846165e6565b915081905092915050565b600060208201905061740f6000830184616531565b92915050565b600060e08201905061742a600083018a616513565b6174376020830189616531565b6174446040830188616531565b6174516060830187616531565b61745e60808301866173d4565b61746b60a08301856173d4565b61747860c08301846173d4565b98975050505050505050565b60006040820190506174996000830185616513565b6174a660208301846173d4565b9392505050565b60006060820190506174c26000830186616531565b6174cf6020830185616531565b6174dc60408301846173d4565b949350505050565b60006040820190506174f96000830185616531565b6175066020830184616653565b9392505050565b60006060820190506175226000830186616531565b61752f6020830185616662565b818103604083015261754181846165ad565b9050949350505050565b60006040820190506175606000830185616531565b61756d60208301846173d4565b9392505050565b6000602082019050818103600083015261758e8184616540565b905092915050565b60006020820190506175ab600083018461659e565b92915050565b60006020820190506175c66000830184616617565b92915050565b600060e0820190506175e1600083018a616626565b6175ee6020830189616626565b6175fb6040830188616531565b61760860608301876173d4565b61761560808301866173d4565b61762260a08301856173d4565b61762f60c08301846173d4565b98975050505050505050565b60006040820190506176506000830185616635565b61765d6020830184616531565b9392505050565b600060a0820190506176796000830188616635565b6176866020830187616531565b61769360408301866173d4565b6176a06060830185616531565b6176ad6080830184616531565b9695505050505050565b60006080820190506176cc6000830187616635565b6176d960208301866173d4565b6176e66040830185616531565b6176f36060830184616531565b95945050505050565b60006020820190506177116000830184616644565b92915050565b600060208201905061772c6000830184616653565b92915050565b6000602082019050818103600083015261774c8184616671565b905092915050565b6000602082019050818103600083015261776d816166aa565b9050919050565b6000602082019050818103600083015261778d816166ea565b9050919050565b600060208201905081810360008301526177ad8161672a565b9050919050565b600060208201905081810360008301526177cd8161676a565b9050919050565b600060208201905081810360008301526177ed816167d0565b9050919050565b6000602082019050818103600083015261780d81616836565b9050919050565b6000602082019050818103600083015261782d8161689c565b9050919050565b6000602082019050818103600083015261784d816168dc565b9050919050565b6000602082019050818103600083015261786d8161691c565b9050919050565b6000602082019050818103600083015261788d8161695c565b9050919050565b600060208201905081810360008301526178ad816169c2565b9050919050565b600060208201905081810360008301526178cd81616a28565b9050919050565b600060208201905081810360008301526178ed81616a68565b9050919050565b6000602082019050818103600083015261790d81616ace565b9050919050565b6000602082019050818103600083015261792d81616b0e565b9050919050565b6000602082019050818103600083015261794d81616b74565b9050919050565b6000602082019050818103600083015261796d81616bda565b9050919050565b6000602082019050818103600083015261798d81616c40565b9050919050565b600060208201905081810360008301526179ad81616ca6565b9050919050565b600060208201905081810360008301526179cd81616d0c565b9050919050565b600060208201905081810360008301526179ed81616d4c565b9050919050565b60006020820190508181036000830152617a0d81616d8c565b9050919050565b60006020820190508181036000830152617a2d81616df2565b9050919050565b60006020820190508181036000830152617a4d81616e58565b9050919050565b60006020820190508181036000830152617a6d81616ebe565b9050919050565b60006020820190508181036000830152617a8d81616efe565b9050919050565b60006020820190508181036000830152617aad81616f64565b9050919050565b60006020820190508181036000830152617acd81616fca565b9050919050565b60006020820190508181036000830152617aed8161700a565b9050919050565b60006020820190508181036000830152617b0d81617070565b9050919050565b60006020820190508181036000830152617b2d816170d6565b9050919050565b60006020820190508181036000830152617b4d81617116565b9050919050565b60006020820190508181036000830152617b6d8161717c565b9050919050565b60006020820190508181036000830152617b8d816171e2565b9050919050565b60006020820190508181036000830152617bad81617222565b9050919050565b60006020820190508181036000830152617bcd81617288565b9050919050565b60006020820190508181036000830152617bed816172ee565b9050919050565b60006020820190508181036000830152617c0d81617354565b9050919050565b60006020820190508181036000830152617c2d81617394565b9050919050565b6000602082019050617c4960008301846173d4565b92915050565b6000604082019050617c6460008301856173d4565b617c7160208301846173d4565b9392505050565b6000604051905081810181811067ffffffffffffffff82111715617c9b57600080fd5b8060405250919050565b600067ffffffffffffffff821115617cbc57600080fd5b602082029050602081019050919050565b600067ffffffffffffffff821115617ce457600080fd5b602082029050919050565b600067ffffffffffffffff821115617d0657600080fd5b601f19601f8301169050602081019050919050565b6000819050602082019050919050565b600081519050919050565b600081519050919050565b600081519050919050565b6000602082019050919050565b600082825260208201905092915050565b600082825260208201905092915050565b600081905092915050565b600082825260208201905092915050565b6000617da282617df5565b9050919050565b6000617db482617df5565b9050919050565b60008115159050919050565b6000617dd282617d97565b9050919050565b6000617de482617d97565b9050919050565b6000819050919050565b600073ffffffffffffffffffffffffffffffffffffffff82169050919050565b6000819050919050565b600060ff82169050919050565b6000617e3782617ee0565b9050919050565b6000617e4982617e50565b9050919050565b6000617e5b82617df5565b9050919050565b6000617e6d82617e74565b9050919050565b6000617e7f82617df5565b9050919050565b6000617e9182617e98565b9050919050565b6000617ea382617df5565b9050919050565b6000617eb582617ebc565b9050919050565b6000617ec782617df5565b9050919050565b6000617ed982617e15565b9050919050565b6000617eeb82617ef2565b9050919050565b6000617efd82617df5565b9050919050565b60005b83811015617f22578082015181840152602081019050617f07565b83811115617f31576000848401525b50505050565b6000601f19601f8301169050919050565b617f5181617d97565b8114617f5c57600080fd5b50565b617f6881617da9565b8114617f7357600080fd5b50565b617f7f81617dbb565b8114617f8a57600080fd5b50565b617f9681617dc7565b8114617fa157600080fd5b50565b617fad81617dd9565b8114617fb857600080fd5b50565b617fc481617deb565b8114617fcf57600080fd5b50565b617fdb81617e15565b8114617fe657600080fd5b50565b617ff281617e1f565b8114617ffd57600080fd5b5056fea2646970667358221220d5edbade0dbe8e66def45893f4844e0cb36f831f9d7c25a98e155ac3b08a2bb864736f6c634300060a0033",
  "immutableReferences": {
    "17745": [
      {
        "length": 32,
        "start": 1611
      },
      {
        "length": 32,
        "start": 1744
      },
      {
        "length": 32,
        "start": 1787
      },
      {
        "length": 32,
        "start": 1840
      },
      {
        "length": 32,
        "start": 1906
      },
      {
        "length": 32,
        "start": 3963
      },
      {
        "length": 32,
        "start": 9466
      },
      {
        "length": 32,
        "start": 9529
      },
      {
        "length": 32,
        "start": 9694
      },
      {
        "length": 32,
        "start": 9772
      },
      {
        "length": 32,
        "start": 9994
      },
      {
        "length": 32,
        "start": 10037
      },
      {
        "length": 32,
        "start": 12147
      },
      {
        "length": 32,
        "start": 12338
      },
      {
        "length": 32,
        "start": 12688
      }
    ]
  },
  "source": "/*\n    Copyright 2020 Set Labs Inc.\n\n    Licensed under the Apache License, Version 2.0 (the \"License\");\n    you may not use this file except in compliance with the License.\n    You may obtain a copy of the License at\n\n    http://www.apache.org/licenses/LICENSE-2.0\n\n    Unless required by applicable law or agreed to in writing, software\n    distributed under the License is distributed on an \"AS IS\" BASIS,\n    WITHOUT WARRANTIES OR CONDITIONS OF ANY KIND, either express or implied.\n    See the License for the specific language governing permissions and\n    limitations under the License.\n\n    SPDX-License-Identifier: Apache License, Version 2.0\n*/\n\npragma solidity 0.6.10;\npragma experimental \"ABIEncoderV2\";\n\nimport { ERC20 } from \"@openzeppelin/contracts/token/ERC20/ERC20.sol\";\nimport { IERC20 } from \"@openzeppelin/contracts/token/ERC20/IERC20.sol\";\nimport { ReentrancyGuard } from \"@openzeppelin/contracts/utils/ReentrancyGuard.sol\";\nimport { SafeCast } from \"@openzeppelin/contracts/utils/SafeCast.sol\";\nimport { SafeMath } from \"@openzeppelin/contracts/math/SafeMath.sol\";\nimport { SignedSafeMath } from \"@openzeppelin/contracts/math/SignedSafeMath.sol\";\n\nimport { AddressArrayUtils } from \"../../lib/AddressArrayUtils.sol\";\nimport { IController } from \"../../interfaces/IController.sol\";\nimport { INAVIssuanceHook } from \"../../interfaces/INAVIssuanceHook.sol\";\nimport { Invoke } from \"../lib/Invoke.sol\";\nimport { ISetToken } from \"../../interfaces/ISetToken.sol\";\nimport { IWETH } from \"../../interfaces/external/IWETH.sol\";\nimport { ModuleBase } from \"../lib/ModuleBase.sol\";\nimport { Position } from \"../lib/Position.sol\";\nimport { PreciseUnitMath } from \"../../lib/PreciseUnitMath.sol\";\nimport { ResourceIdentifier } from \"../lib/ResourceIdentifier.sol\";\n\n\n/**\n * @title NavIssuanceModule\n * @author Set Protocol\n *\n * Module that enables issuance and redemption with any valid ERC20 token or ETH if allowed by the manager. Sender receives\n * a proportional amount of SetTokens on issuance or ERC20 token on redemption based on the calculated net asset value using\n * oracle prices. Manager is able to enforce a premium / discount on issuance / redemption to avoid arbitrage and front\n * running when relying on oracle prices. Managers can charge a fee (denominated in reserve asset).\n */\ncontract NavIssuanceModule is ModuleBase, ReentrancyGuard {\n    using AddressArrayUtils for address[];\n    using Invoke for ISetToken;\n    using Position for ISetToken;\n    using PreciseUnitMath for uint256;\n    using PreciseUnitMath for int256;\n    using ResourceIdentifier for IController;\n    using SafeMath for uint256;\n    using SafeCast for int256;\n    using SafeCast for uint256;\n    using SignedSafeMath for int256;\n\n    /* ============ Events ============ */\n\n    event SetTokenNAVIssued(\n        ISetToken indexed _setToken,\n        address _issuer,\n        address _to,\n        address _reserveAsset,\n        address _hookContract,\n        uint256 _setTokenQuantity,\n        uint256 _managerFee,\n        uint256 _premium\n    );\n\n    event SetTokenNAVRedeemed(\n        ISetToken indexed _setToken,\n        address _redeemer,\n        address _to,\n        address _reserveAsset,\n        address _hookContract,\n        uint256 _setTokenQuantity,\n        uint256 _managerFee,\n        uint256 _premium\n    );\n\n    event ReserveAssetAdded(\n        ISetToken indexed _setToken,\n        address _newReserveAsset\n    );\n\n    event ReserveAssetRemoved(\n        ISetToken indexed _setToken,\n        address _removedReserveAsset\n    );\n\n    event PremiumEdited(\n        ISetToken indexed _setToken,\n        uint256 _newPremium\n    );\n\n    event ManagerFeeEdited(\n        ISetToken indexed _setToken,\n        uint256 _newManagerFee,\n        uint256 _index\n    );\n\n    event FeeRecipientEdited(\n        ISetToken indexed _setToken,\n        address _feeRecipient\n    );\n\n    /* ============ Structs ============ */\n\n    struct NAVIssuanceSettings {\n        INAVIssuanceHook managerIssuanceHook;      // Issuance hook configurations\n        INAVIssuanceHook managerRedemptionHook;    // Redemption hook configurations\n        address[] reserveAssets;                       // Allowed reserve assets - Must have a price enabled with the price oracle\n        address feeRecipient;                          // Manager fee recipient\n        uint256[2] managerFees;                        // Manager fees. 0 index is issue and 1 index is redeem fee (0.01% = 1e14, 1% = 1e16)\n        uint256 maxManagerFee;                         // Maximum fee manager is allowed to set for issue and redeem\n        uint256 premiumPercentage;                     // Premium percentage (0.01% = 1e14, 1% = 1e16). This premium is a buffer around oracle\n                                                       // prices paid by user to the SetToken, which prevents arbitrage and oracle front running\n        uint256 maxPremiumPercentage;                  // Maximum premium percentage manager is allowed to set (configured by manager)\n        uint256 minSetTokenSupply;                     // Minimum SetToken supply required for issuance and redemption \n                                                       // to prevent dramatic inflationary changes to the SetToken's position multiplier\n    }\n\n    struct ActionInfo {\n        uint256 preFeeReserveQuantity;                 // Reserve value before fees; During issuance, represents raw quantity\n                                                       // During redeem, represents post-premium value\n        uint256 protocolFees;                          // Total protocol fees (direct + manager revenue share)\n        uint256 managerFee;                            // Total manager fee paid in reserve asset\n        uint256 netFlowQuantity;                       // When issuing, quantity of reserve asset sent to SetToken\n                                                       // When redeeming, quantity of reserve asset sent to redeemer\n        uint256 setTokenQuantity;                      // When issuing, quantity of SetTokens minted to mintee\n                                                       // When redeeming, quantity of SetToken redeemed\n        uint256 previousSetTokenSupply;                // SetToken supply prior to issue/redeem action\n        uint256 newSetTokenSupply;                     // SetToken supply after issue/redeem action\n        int256 newPositionMultiplier;                  // SetToken position multiplier after issue/redeem\n        uint256 newReservePositionUnit;                // SetToken reserve asset position unit after issue/redeem\n    }\n\n    /* ============ State Variables ============ */\n\n    // Wrapped ETH address\n    IWETH public immutable weth;\n\n    // Mapping of SetToken to NAV issuance settings struct\n    mapping(ISetToken => NAVIssuanceSettings) public navIssuanceSettings;\n    \n    // Mapping to efficiently check a SetToken's reserve asset validity\n    // SetToken => reserveAsset => isReserveAsset\n    mapping(ISetToken => mapping(address => bool)) public isReserveAsset;\n\n    /* ============ Constants ============ */\n\n    // 0 index stores the manager fee in managerFees array, percentage charged on issue (denominated in reserve asset)\n    uint256 constant internal MANAGER_ISSUE_FEE_INDEX = 0;\n\n    // 1 index stores the manager fee percentage in managerFees array, charged on redeem\n    uint256 constant internal MANAGER_REDEEM_FEE_INDEX = 1;\n\n    // 0 index stores the manager revenue share protocol fee % on the controller, charged in the issuance function\n    uint256 constant internal PROTOCOL_ISSUE_MANAGER_REVENUE_SHARE_FEE_INDEX = 0;\n\n    // 1 index stores the manager revenue share protocol fee % on the controller, charged in the redeem function\n    uint256 constant internal PROTOCOL_REDEEM_MANAGER_REVENUE_SHARE_FEE_INDEX = 1;\n\n    // 2 index stores the direct protocol fee % on the controller, charged in the issuance function\n    uint256 constant internal PROTOCOL_ISSUE_DIRECT_FEE_INDEX = 2;\n\n    // 3 index stores the direct protocol fee % on the controller, charged in the redeem function\n    uint256 constant internal PROTOCOL_REDEEM_DIRECT_FEE_INDEX = 3;\n\n    /* ============ Constructor ============ */\n\n    /**\n     * @param _controller               Address of controller contract\n     * @param _weth                     Address of wrapped eth\n     */\n    constructor(IController _controller, IWETH _weth) public ModuleBase(_controller) {\n        weth = _weth;\n    }\n\n    /* ============ External Functions ============ */\n    \n    /**\n     * Deposits the allowed reserve asset into the SetToken and mints the appropriate % of Net Asset Value of the SetToken\n     * to the specified _to address.\n     *\n     * @param _setToken                     Instance of the SetToken contract\n     * @param _reserveAsset                 Address of the reserve asset to issue with\n     * @param _reserveAssetQuantity         Quantity of the reserve asset to issue with\n     * @param _minSetTokenReceiveQuantity   Min quantity of SetToken to receive after issuance\n     * @param _to                           Address to mint SetToken to\n     */\n    function issue(\n        ISetToken _setToken,\n        address _reserveAsset,\n        uint256 _reserveAssetQuantity,\n        uint256 _minSetTokenReceiveQuantity,\n        address _to\n    ) \n        external\n        nonReentrant\n        onlyValidAndInitializedSet(_setToken)\n    {\n        _validateCommon(_setToken, _reserveAsset, _reserveAssetQuantity);\n        \n        _callPreIssueHooks(_setToken, _reserveAsset, _reserveAssetQuantity, msg.sender, _to);\n\n        ActionInfo memory issueInfo = _createIssuanceInfo(_setToken, _reserveAsset, _reserveAssetQuantity);\n\n        _validateIssuanceInfo(_setToken, _minSetTokenReceiveQuantity, issueInfo);\n\n        _transferCollateralAndHandleFees(_setToken, IERC20(_reserveAsset), issueInfo);\n\n        _handleIssueStateUpdates(_setToken, _reserveAsset, _to, issueInfo);\n    }\n\n    /**\n     * Wraps ETH and deposits WETH if allowed into the SetToken and mints the appropriate % of Net Asset Value of the SetToken\n     * to the specified _to address.\n     *\n     * @param _setToken                     Instance of the SetToken contract\n     * @param _minSetTokenReceiveQuantity   Min quantity of SetToken to receive after issuance\n     * @param _to                           Address to mint SetToken to\n     */\n    function issueWithEther(\n        ISetToken _setToken,\n        uint256 _minSetTokenReceiveQuantity,\n        address _to\n    ) \n        external\n        payable\n        nonReentrant\n        onlyValidAndInitializedSet(_setToken)\n    {\n        weth.deposit{ value: msg.value }();\n\n        _validateCommon(_setToken, address(weth), msg.value);\n        \n        _callPreIssueHooks(_setToken, address(weth), msg.value, msg.sender, _to);\n\n        ActionInfo memory issueInfo = _createIssuanceInfo(_setToken, address(weth), msg.value);\n\n        _validateIssuanceInfo(_setToken, _minSetTokenReceiveQuantity, issueInfo);\n\n        _transferWETHAndHandleFees(_setToken, issueInfo);\n\n        _handleIssueStateUpdates(_setToken, address(weth), _to, issueInfo);\n    }\n\n    /**\n     * Redeems a SetToken into a valid reserve asset representing the appropriate % of Net Asset Value of the SetToken\n     * to the specified _to address. Only valid if there are available reserve units on the SetToken.\n     *\n     * @param _setToken                     Instance of the SetToken contract\n     * @param _reserveAsset                 Address of the reserve asset to redeem with\n     * @param _setTokenQuantity             Quantity of SetTokens to redeem\n     * @param _minReserveReceiveQuantity    Min quantity of reserve asset to receive\n     * @param _to                           Address to redeem reserve asset to\n     */\n    function redeem(\n        ISetToken _setToken,\n        address _reserveAsset,\n        uint256 _setTokenQuantity,\n        uint256 _minReserveReceiveQuantity,\n        address _to\n    ) \n        external\n        nonReentrant\n        onlyValidAndInitializedSet(_setToken)\n    {\n        _validateCommon(_setToken, _reserveAsset, _setTokenQuantity);\n\n        _callPreRedeemHooks(_setToken, _setTokenQuantity, msg.sender, _to);\n\n        ActionInfo memory redeemInfo = _createRedemptionInfo(_setToken, _reserveAsset, _setTokenQuantity);\n\n        _validateRedemptionInfo(_setToken, _minReserveReceiveQuantity, _setTokenQuantity, redeemInfo);\n\n        _setToken.burn(msg.sender, _setTokenQuantity);\n\n        // Instruct the SetToken to transfer the reserve asset back to the user\n        _setToken.strictInvokeTransfer(\n            _reserveAsset,\n            _to,\n            redeemInfo.netFlowQuantity\n        );\n\n        _handleRedemptionFees(_setToken, _reserveAsset, redeemInfo);\n\n        _handleRedeemStateUpdates(_setToken, _reserveAsset, _to, redeemInfo);\n    }\n\n    /**\n     * Redeems a SetToken into Ether (if WETH is valid) representing the appropriate % of Net Asset Value of the SetToken\n     * to the specified _to address. Only valid if there are available WETH units on the SetToken.\n     *\n     * @param _setToken                     Instance of the SetToken contract\n     * @param _setTokenQuantity             Quantity of SetTokens to redeem\n     * @param _minReserveReceiveQuantity    Min quantity of reserve asset to receive\n     * @param _to                           Address to redeem reserve asset to\n     */\n    function redeemIntoEther(\n        ISetToken _setToken,\n        uint256 _setTokenQuantity,\n        uint256 _minReserveReceiveQuantity,\n        address payable _to\n    ) \n        external\n        nonReentrant\n        onlyValidAndInitializedSet(_setToken)\n    {\n        _validateCommon(_setToken, address(weth), _setTokenQuantity);\n\n        _callPreRedeemHooks(_setToken, _setTokenQuantity, msg.sender, _to);\n\n        ActionInfo memory redeemInfo = _createRedemptionInfo(_setToken, address(weth), _setTokenQuantity);\n\n        _validateRedemptionInfo(_setToken, _minReserveReceiveQuantity, _setTokenQuantity, redeemInfo);\n\n        _setToken.burn(msg.sender, _setTokenQuantity);\n\n        // Instruct the SetToken to transfer WETH from SetToken to module\n        _setToken.strictInvokeTransfer(\n            address(weth),\n            address(this),\n            redeemInfo.netFlowQuantity\n        );\n\n        weth.withdraw(redeemInfo.netFlowQuantity);\n        \n        _to.transfer(redeemInfo.netFlowQuantity);\n\n        _handleRedemptionFees(_setToken, address(weth), redeemInfo);\n\n        _handleRedeemStateUpdates(_setToken, address(weth), _to, redeemInfo);\n    }\n\n    /**\n     * SET MANAGER ONLY. Add an allowed reserve asset\n     *\n     * @param _setToken                     Instance of the SetToken\n     * @param _reserveAsset                 Address of the reserve asset to add\n     */\n    function addReserveAsset(ISetToken _setToken, address _reserveAsset) external onlyManagerAndValidSet(_setToken) {\n        require(!isReserveAsset[_setToken][_reserveAsset], \"Reserve asset already exists\");\n        \n        navIssuanceSettings[_setToken].reserveAssets.push(_reserveAsset);\n        isReserveAsset[_setToken][_reserveAsset] = true;\n\n        emit ReserveAssetAdded(_setToken, _reserveAsset);\n    }\n\n    /**\n     * SET MANAGER ONLY. Remove a reserve asset\n     *\n     * @param _setToken                     Instance of the SetToken\n     * @param _reserveAsset                 Address of the reserve asset to remove\n     */\n    function removeReserveAsset(ISetToken _setToken, address _reserveAsset) external onlyManagerAndValidSet(_setToken) {\n        require(isReserveAsset[_setToken][_reserveAsset], \"Reserve asset does not exist\");\n\n        navIssuanceSettings[_setToken].reserveAssets = navIssuanceSettings[_setToken].reserveAssets.remove(_reserveAsset);\n        delete isReserveAsset[_setToken][_reserveAsset];\n\n        emit ReserveAssetRemoved(_setToken, _reserveAsset);\n    }\n\n    /**\n     * SET MANAGER ONLY. Edit the premium percentage\n     *\n     * @param _setToken                     Instance of the SetToken\n     * @param _premiumPercentage            Premium percentage in 10e16 (e.g. 10e16 = 1%)\n     */\n    function editPremium(ISetToken _setToken, uint256 _premiumPercentage) external onlyManagerAndValidSet(_setToken) {\n        require(_premiumPercentage <= navIssuanceSettings[_setToken].maxPremiumPercentage, \"Premium must be less than maximum allowed\");\n        \n        navIssuanceSettings[_setToken].premiumPercentage = _premiumPercentage;\n\n        emit PremiumEdited(_setToken, _premiumPercentage);\n    }\n\n    /**\n     * SET MANAGER ONLY. Edit manager fee\n     *\n     * @param _setToken                     Instance of the SetToken\n     * @param _managerFeePercentage         Manager fee percentage in 10e16 (e.g. 10e16 = 1%)\n     * @param _managerFeeIndex              Manager fee index. 0 index is issue fee, 1 index is redeem fee\n     */\n    function editManagerFee(\n        ISetToken _setToken,\n        uint256 _managerFeePercentage,\n        uint256 _managerFeeIndex\n    )\n        external\n        onlyManagerAndValidSet(_setToken)\n    {\n        require(_managerFeePercentage <= navIssuanceSettings[_setToken].maxManagerFee, \"Manager fee must be less than maximum allowed\");\n        \n        navIssuanceSettings[_setToken].managerFees[_managerFeeIndex] = _managerFeePercentage;\n\n        emit ManagerFeeEdited(_setToken, _managerFeePercentage, _managerFeeIndex);\n    }\n\n    /**\n     * SET MANAGER ONLY. Edit the manager fee recipient\n     *\n     * @param _setToken                     Instance of the SetToken\n     * @param _managerFeeRecipient          Manager fee recipient\n     */\n    function editFeeRecipient(ISetToken _setToken, address _managerFeeRecipient) external onlyManagerAndValidSet(_setToken) {\n        require(_managerFeeRecipient != address(0), \"Fee recipient must not be 0 address\");\n        \n        navIssuanceSettings[_setToken].feeRecipient = _managerFeeRecipient;\n\n        emit FeeRecipientEdited(_setToken, _managerFeeRecipient);\n    }\n\n    /**\n     * SET MANAGER ONLY. Initializes this module to the SetToken with hooks, allowed reserve assets,\n     * fees and issuance premium. Only callable by the SetToken's manager. Hook addresses are optional.\n     * Address(0) means that no hook will be called.\n     *\n     * @param _setToken                     Instance of the SetToken to issue\n     * @param _navIssuanceSettings          NAVIssuanceSettings struct defining parameters\n     */\n    function initialize(\n        ISetToken _setToken,\n        NAVIssuanceSettings memory _navIssuanceSettings\n    )\n        external\n        onlySetManager(_setToken, msg.sender)\n        onlyValidAndPendingSet(_setToken)\n    {\n        require(_navIssuanceSettings.reserveAssets.length > 0, \"Reserve assets must be greater than 0\");\n        require(_navIssuanceSettings.maxManagerFee < PreciseUnitMath.preciseUnit(), \"Max manager fee must be less than 100%\");\n        require(_navIssuanceSettings.maxPremiumPercentage < PreciseUnitMath.preciseUnit(), \"Max premium percentage must be less than 100%\");\n        require(_navIssuanceSettings.managerFees[0] <= _navIssuanceSettings.maxManagerFee, \"Manager issue fee must be less than max\");\n        require(_navIssuanceSettings.managerFees[1] <= _navIssuanceSettings.maxManagerFee, \"Manager redeem fee must be less than max\");\n        require(_navIssuanceSettings.premiumPercentage <= _navIssuanceSettings.maxPremiumPercentage, \"Premium must be less than max\");\n        require(_navIssuanceSettings.feeRecipient != address(0), \"Fee Recipient must be non-zero address.\");\n        // Initial mint of Set cannot use NAVIssuance since minSetTokenSupply must be > 0\n        require(_navIssuanceSettings.minSetTokenSupply > 0, \"Min SetToken supply must be greater than 0\");\n\n        for (uint256 i = 0; i < _navIssuanceSettings.reserveAssets.length; i++) {\n            require(!isReserveAsset[_setToken][_navIssuanceSettings.reserveAssets[i]], \"Reserve assets must be unique\");\n            isReserveAsset[_setToken][_navIssuanceSettings.reserveAssets[i]] = true;\n        }\n\n        navIssuanceSettings[_setToken] = _navIssuanceSettings;\n\n        _setToken.initializeModule();\n    }\n\n    /**\n     * Removes this module from the SetToken, via call by the SetToken. Issuance settings and\n     * reserve asset states are deleted.\n     */\n    function removeModule() external override {\n        ISetToken setToken = ISetToken(msg.sender);\n        for (uint256 i = 0; i < navIssuanceSettings[setToken].reserveAssets.length; i++) {\n            delete isReserveAsset[setToken][navIssuanceSettings[setToken].reserveAssets[i]];\n        }\n        \n        delete navIssuanceSettings[setToken];\n    }\n\n    receive() external payable {}\n\n    /* ============ External Getter Functions ============ */\n\n    function getReserveAssets(ISetToken _setToken) external view returns (address[] memory) {\n        return navIssuanceSettings[_setToken].reserveAssets;\n    }\n\n    function getIssuePremium(\n        ISetToken _setToken,\n        address _reserveAsset,\n        uint256 _reserveAssetQuantity\n    )\n        external\n        view\n        returns (uint256)\n    {\n        return _getIssuePremium(_setToken, _reserveAsset, _reserveAssetQuantity);\n    }\n\n    function getRedeemPremium(\n        ISetToken _setToken,\n        address _reserveAsset,\n        uint256 _setTokenQuantity\n    )\n        external\n        view\n        returns (uint256)\n    {\n        return _getRedeemPremium(_setToken, _reserveAsset, _setTokenQuantity);\n    }\n\n    function getManagerFee(ISetToken _setToken, uint256 _managerFeeIndex) external view returns (uint256) {\n        return navIssuanceSettings[_setToken].managerFees[_managerFeeIndex];\n    }\n\n    /**\n     * Get the expected SetTokens minted to recipient on issuance\n     *\n     * @param _setToken                     Instance of the SetToken\n     * @param _reserveAsset                 Address of the reserve asset\n     * @param _reserveAssetQuantity         Quantity of the reserve asset to issue with\n     *\n     * @return  uint256                     Expected SetTokens to be minted to recipient\n     */\n    function getExpectedSetTokenIssueQuantity(\n        ISetToken _setToken,\n        address _reserveAsset,\n        uint256 _reserveAssetQuantity\n    )\n        external\n        view\n        returns (uint256)\n    {\n        (,, uint256 netReserveFlow) = _getFees(\n            _setToken,\n            _reserveAssetQuantity,\n            PROTOCOL_ISSUE_MANAGER_REVENUE_SHARE_FEE_INDEX,\n            PROTOCOL_ISSUE_DIRECT_FEE_INDEX,\n            MANAGER_ISSUE_FEE_INDEX\n        );\n\n        uint256 setTotalSupply = _setToken.totalSupply();\n\n        return _getSetTokenMintQuantity(\n            _setToken,\n            _reserveAsset,\n            netReserveFlow,\n            setTotalSupply\n        );\n    }\n\n    /**\n     * Get the expected reserve asset to be redeemed\n     *\n     * @param _setToken                     Instance of the SetToken\n     * @param _reserveAsset                 Address of the reserve asset\n     * @param _setTokenQuantity             Quantity of SetTokens to redeem\n     *\n     * @return  uint256                     Expected reserve asset quantity redeemed\n     */\n    function getExpectedReserveRedeemQuantity(\n        ISetToken _setToken,\n        address _reserveAsset,\n        uint256 _setTokenQuantity\n    )\n        external\n        view\n        returns (uint256)\n    {\n        uint256 preFeeReserveQuantity = _getRedeemReserveQuantity(_setToken, _reserveAsset, _setTokenQuantity);\n\n        (,, uint256 netReserveFlows) = _getFees(\n            _setToken,\n            preFeeReserveQuantity,\n            PROTOCOL_REDEEM_MANAGER_REVENUE_SHARE_FEE_INDEX,\n            PROTOCOL_REDEEM_DIRECT_FEE_INDEX,\n            MANAGER_REDEEM_FEE_INDEX\n        );\n\n        return netReserveFlows;\n    }\n\n    /**\n     * Checks if issue is valid\n     *\n     * @param _setToken                     Instance of the SetToken\n     * @param _reserveAsset                 Address of the reserve asset\n     * @param _reserveAssetQuantity         Quantity of the reserve asset to issue with\n     *\n     * @return  bool                        Returns true if issue is valid\n     */\n    function isIssueValid(\n        ISetToken _setToken,\n        address _reserveAsset,\n        uint256 _reserveAssetQuantity\n    )\n        external\n        view\n        returns (bool)\n    {\n        uint256 setTotalSupply = _setToken.totalSupply();\n\n    return _reserveAssetQuantity != 0\n            && isReserveAsset[_setToken][_reserveAsset]\n            && setTotalSupply >= navIssuanceSettings[_setToken].minSetTokenSupply;\n    }\n\n    /**\n     * Checks if redeem is valid\n     *\n     * @param _setToken                     Instance of the SetToken\n     * @param _reserveAsset                 Address of the reserve asset\n     * @param _setTokenQuantity             Quantity of SetTokens to redeem\n     *\n     * @return  bool                        Returns true if redeem is valid\n     */\n    function isRedeemValid(\n        ISetToken _setToken,\n        address _reserveAsset,\n        uint256 _setTokenQuantity\n    )\n        external\n        view\n        returns (bool)\n    {\n        uint256 setTotalSupply = _setToken.totalSupply();\n\n        if (\n            _setTokenQuantity == 0\n            || !isReserveAsset[_setToken][_reserveAsset]\n            || setTotalSupply < navIssuanceSettings[_setToken].minSetTokenSupply.add(_setTokenQuantity)\n        ) {\n            return false;\n        } else {\n            uint256 totalRedeemValue =_getRedeemReserveQuantity(_setToken, _reserveAsset, _setTokenQuantity);\n\n            (,, uint256 expectedRedeemQuantity) = _getFees(\n                _setToken,\n                totalRedeemValue,\n                PROTOCOL_REDEEM_MANAGER_REVENUE_SHARE_FEE_INDEX,\n                PROTOCOL_REDEEM_DIRECT_FEE_INDEX,\n                MANAGER_REDEEM_FEE_INDEX\n            );\n\n            uint256 existingUnit = _setToken.getDefaultPositionRealUnit(_reserveAsset).toUint256();\n\n            return existingUnit.preciseMul(setTotalSupply) >= expectedRedeemQuantity;\n        }\n    }\n\n    /* ============ Internal Functions ============ */\n\n    function _validateCommon(ISetToken _setToken, address _reserveAsset, uint256 _quantity) internal view {\n        require(_quantity > 0, \"Quantity must be > 0\");\n        require(isReserveAsset[_setToken][_reserveAsset], \"Must be valid reserve asset\");\n    }\n\n    function _validateIssuanceInfo(ISetToken _setToken, uint256 _minSetTokenReceiveQuantity, ActionInfo memory _issueInfo) internal view {\n        // Check that total supply is greater than min supply needed for issuance\n        // Note: A min supply amount is needed to avoid division by 0 when SetToken supply is 0\n        require(\n            _issueInfo.previousSetTokenSupply >= navIssuanceSettings[_setToken].minSetTokenSupply,\n            \"Supply must be greater than minimum to enable issuance\"\n        );\n\n        require(_issueInfo.setTokenQuantity >= _minSetTokenReceiveQuantity, \"Must be greater than min SetToken\");\n    }\n\n    function _validateRedemptionInfo(\n        ISetToken _setToken,\n        uint256 _minReserveReceiveQuantity,\n        uint256 _setTokenQuantity,\n        ActionInfo memory _redeemInfo\n    )\n        internal\n        view\n    {\n        // Check that new supply is more than min supply needed for redemption\n        // Note: A min supply amount is needed to avoid division by 0 when redeeming SetToken to 0\n        require(\n            _redeemInfo.newSetTokenSupply >= navIssuanceSettings[_setToken].minSetTokenSupply,\n            \"Supply must be greater than minimum to enable redemption\"\n        );\n\n        require(_redeemInfo.netFlowQuantity >= _minReserveReceiveQuantity, \"Must be greater than min receive reserve quantity\");\n    }\n\n    function _createIssuanceInfo(\n        ISetToken _setToken,\n        address _reserveAsset,\n        uint256 _reserveAssetQuantity\n    )\n        internal\n        view\n        returns (ActionInfo memory)\n    {\n        ActionInfo memory issueInfo;\n\n        issueInfo.previousSetTokenSupply = _setToken.totalSupply();\n\n        issueInfo.preFeeReserveQuantity = _reserveAssetQuantity;\n\n        (issueInfo.protocolFees, issueInfo.managerFee, issueInfo.netFlowQuantity) = _getFees(\n            _setToken,\n            issueInfo.preFeeReserveQuantity,\n            PROTOCOL_ISSUE_MANAGER_REVENUE_SHARE_FEE_INDEX,\n            PROTOCOL_ISSUE_DIRECT_FEE_INDEX,\n            MANAGER_ISSUE_FEE_INDEX\n        );\n\n        issueInfo.setTokenQuantity = _getSetTokenMintQuantity(\n            _setToken,\n            _reserveAsset,\n            issueInfo.netFlowQuantity,\n            issueInfo.previousSetTokenSupply\n        );\n\n        (issueInfo.newSetTokenSupply, issueInfo.newPositionMultiplier) = _getIssuePositionMultiplier(_setToken, issueInfo);\n\n        issueInfo.newReservePositionUnit = _getIssuePositionUnit(_setToken, _reserveAsset, issueInfo);\n\n        return issueInfo;\n    }\n\n    function _createRedemptionInfo(\n        ISetToken _setToken,\n        address _reserveAsset,\n        uint256 _setTokenQuantity\n    )\n        internal\n        view\n        returns (ActionInfo memory)\n    {\n        ActionInfo memory redeemInfo;\n\n        redeemInfo.setTokenQuantity = _setTokenQuantity;\n\n        redeemInfo.preFeeReserveQuantity =_getRedeemReserveQuantity(_setToken, _reserveAsset, _setTokenQuantity);\n\n        (redeemInfo.protocolFees, redeemInfo.managerFee, redeemInfo.netFlowQuantity) = _getFees(\n            _setToken,\n            redeemInfo.preFeeReserveQuantity,\n            PROTOCOL_REDEEM_MANAGER_REVENUE_SHARE_FEE_INDEX,\n            PROTOCOL_REDEEM_DIRECT_FEE_INDEX,\n            MANAGER_REDEEM_FEE_INDEX\n        );\n\n        redeemInfo.previousSetTokenSupply = _setToken.totalSupply();\n\n        (redeemInfo.newSetTokenSupply, redeemInfo.newPositionMultiplier) = _getRedeemPositionMultiplier(_setToken, _setTokenQuantity, redeemInfo);\n\n        redeemInfo.newReservePositionUnit = _getRedeemPositionUnit(_setToken, _reserveAsset, redeemInfo);\n\n        return redeemInfo;\n    }\n\n    /**\n     * Transfer reserve asset from user to SetToken and fees from user to appropriate fee recipients\n     */\n    function _transferCollateralAndHandleFees(ISetToken _setToken, IERC20 _reserveAsset, ActionInfo memory _issueInfo) internal {\n        transferFrom(_reserveAsset, msg.sender, address(_setToken), _issueInfo.netFlowQuantity);\n\n        if (_issueInfo.protocolFees > 0) {\n            transferFrom(_reserveAsset, msg.sender, controller.feeRecipient(), _issueInfo.protocolFees);\n        }\n\n        if (_issueInfo.managerFee > 0) {\n            transferFrom(_reserveAsset, msg.sender, navIssuanceSettings[_setToken].feeRecipient, _issueInfo.managerFee);\n        }\n    }\n\n\n    /**\n      * Transfer WETH from module to SetToken and fees from module to appropriate fee recipients\n     */\n    function _transferWETHAndHandleFees(ISetToken _setToken, ActionInfo memory _issueInfo) internal {\n        weth.transfer(address(_setToken), _issueInfo.netFlowQuantity);\n\n        if (_issueInfo.protocolFees > 0) {\n            weth.transfer(controller.feeRecipient(), _issueInfo.protocolFees);\n        }\n\n        if (_issueInfo.managerFee > 0) {\n            weth.transfer(navIssuanceSettings[_setToken].feeRecipient, _issueInfo.managerFee);\n        }\n    }\n\n    function _handleIssueStateUpdates(\n        ISetToken _setToken,\n        address _reserveAsset,\n        address _to,\n        ActionInfo memory _issueInfo\n    ) \n        internal\n    {\n        _setToken.editPositionMultiplier(_issueInfo.newPositionMultiplier);\n\n        _setToken.editDefaultPosition(_reserveAsset, _issueInfo.newReservePositionUnit);\n\n        _setToken.mint(_to, _issueInfo.setTokenQuantity);\n\n        emit SetTokenNAVIssued(\n            _setToken,\n            msg.sender,\n            _to,\n            _reserveAsset,\n            address(navIssuanceSettings[_setToken].managerIssuanceHook),\n            _issueInfo.setTokenQuantity,\n            _issueInfo.managerFee,\n            _issueInfo.protocolFees\n        );        \n    }\n\n    function _handleRedeemStateUpdates(\n        ISetToken _setToken,\n        address _reserveAsset,\n        address _to,\n        ActionInfo memory _redeemInfo\n    ) \n        internal\n    {\n        _setToken.editPositionMultiplier(_redeemInfo.newPositionMultiplier);\n\n        _setToken.editDefaultPosition(_reserveAsset, _redeemInfo.newReservePositionUnit);\n\n        emit SetTokenNAVRedeemed(\n            _setToken,\n            msg.sender,\n            _to,\n            _reserveAsset,\n            address(navIssuanceSettings[_setToken].managerRedemptionHook),\n            _redeemInfo.setTokenQuantity,\n            _redeemInfo.managerFee,\n            _redeemInfo.protocolFees\n        );      \n    }\n\n    function _handleRedemptionFees(ISetToken _setToken, address _reserveAsset, ActionInfo memory _redeemInfo) internal {\n        // Instruct the SetToken to transfer protocol fee to fee recipient if there is a fee\n        payProtocolFeeFromSetToken(_setToken, _reserveAsset, _redeemInfo.protocolFees);\n\n        // Instruct the SetToken to transfer manager fee to manager fee recipient if there is a fee\n        if (_redeemInfo.managerFee > 0) {\n            _setToken.strictInvokeTransfer(\n                _reserveAsset,\n                navIssuanceSettings[_setToken].feeRecipient,\n                _redeemInfo.managerFee\n            );\n        }\n    }\n\n    /**\n     * Returns the issue premium percentage. Virtual function that can be overridden in future versions of the module\n     * and can contain arbitrary logic to calculate the issuance premium.\n     */\n    function _getIssuePremium(\n        ISetToken _setToken,\n        address /* _reserveAsset */,\n        uint256 /* _reserveAssetQuantity */\n    )\n        virtual\n        internal\n        view\n        returns (uint256)\n    {\n        return navIssuanceSettings[_setToken].premiumPercentage;\n    }\n\n    /**\n     * Returns the redeem premium percentage. Virtual function that can be overridden in future versions of the module\n     * and can contain arbitrary logic to calculate the redemption premium.\n     */\n    function _getRedeemPremium(\n        ISetToken _setToken,\n        address /* _reserveAsset */,\n        uint256 /* _setTokenQuantity */\n    )\n        virtual\n        internal\n        view\n        returns (uint256)\n    {\n        return navIssuanceSettings[_setToken].premiumPercentage;\n    }\n\n    /**\n     * Returns the fees attributed to the manager and the protocol. The fees are calculated as follows:\n     *\n     * ManagerFee = (manager fee % - % to protocol) * reserveAssetQuantity\n     * Protocol Fee = (% manager fee share + direct fee %) * reserveAssetQuantity\n     *\n     * @param _setToken                     Instance of the SetToken\n     * @param _reserveAssetQuantity         Quantity of reserve asset to calculate fees from\n     * @param _protocolManagerFeeIndex      Index to pull rev share NAV Issuance fee from the Controller\n     * @param _protocolDirectFeeIndex       Index to pull direct NAV issuance fee from the Controller\n     * @param _managerFeeIndex              Index from NAVIssuanceSettings (0 = issue fee, 1 = redeem fee)\n     *\n     * @return  uint256                     Fees paid to the protocol in reserve asset\n     * @return  uint256                     Fees paid to the manager in reserve asset\n     * @return  uint256                     Net reserve to user net of fees\n     */\n    function _getFees(\n        ISetToken _setToken,\n        uint256 _reserveAssetQuantity,\n        uint256 _protocolManagerFeeIndex,\n        uint256 _protocolDirectFeeIndex,\n        uint256 _managerFeeIndex\n    )\n        internal\n        view\n        returns (uint256, uint256, uint256)\n    {\n        (uint256 protocolFeePercentage, uint256 managerFeePercentage) = _getProtocolAndManagerFeePercentages(\n            _setToken,\n            _protocolManagerFeeIndex,\n            _protocolDirectFeeIndex,\n            _managerFeeIndex\n        );\n\n        // Calculate total notional fees\n        uint256 protocolFees = protocolFeePercentage.preciseMul(_reserveAssetQuantity);\n        uint256 managerFee = managerFeePercentage.preciseMul(_reserveAssetQuantity);\n\n        uint256 netReserveFlow = _reserveAssetQuantity.sub(protocolFees).sub(managerFee);\n\n        return (protocolFees, managerFee, netReserveFlow);\n    }\n\n    function _getProtocolAndManagerFeePercentages(\n        ISetToken _setToken,\n        uint256 _protocolManagerFeeIndex,\n        uint256 _protocolDirectFeeIndex,\n        uint256 _managerFeeIndex\n    )\n        internal\n        view\n        returns(uint256, uint256)\n    {\n        // Get protocol fee percentages\n        uint256 protocolDirectFeePercent = controller.getModuleFee(address(this), _protocolDirectFeeIndex);\n        uint256 protocolManagerShareFeePercent = controller.getModuleFee(address(this), _protocolManagerFeeIndex);\n        uint256 managerFeePercent = navIssuanceSettings[_setToken].managerFees[_managerFeeIndex];\n        \n        // Calculate revenue share split percentage\n        uint256 protocolRevenueSharePercentage = protocolManagerShareFeePercent.preciseMul(managerFeePercent);\n        uint256 managerRevenueSharePercentage = managerFeePercent.sub(protocolRevenueSharePercentage);\n        uint256 totalProtocolFeePercentage = protocolRevenueSharePercentage.add(protocolDirectFeePercent);\n\n        return (managerRevenueSharePercentage, totalProtocolFeePercentage);\n    }\n\n    function _getSetTokenMintQuantity(\n        ISetToken _setToken,\n        address _reserveAsset,\n        uint256 _netReserveFlows,            // Value of reserve asset net of fees\n        uint256 _setTotalSupply\n    )\n        internal\n        view\n        returns (uint256)\n    {\n        uint256 premiumPercentage = _getIssuePremium(_setToken, _reserveAsset, _netReserveFlows);\n        uint256 premiumValue = _netReserveFlows.preciseMul(premiumPercentage);\n\n        // Get valuation of the SetToken with the quote asset as the reserve asset. Returns value in precise units (1e18)\n        // Reverts if price is not found\n        uint256 setTokenValuation = controller.getSetValuer().calculateSetTokenValuation(_setToken, _reserveAsset);\n\n        // Get reserve asset decimals\n        uint256 reserveAssetDecimals = ERC20(_reserveAsset).decimals();\n        uint256 normalizedTotalReserveQuantityNetFees = _netReserveFlows.preciseDiv(10 ** reserveAssetDecimals);\n        uint256 normalizedTotalReserveQuantityNetFeesAndPremium = _netReserveFlows.sub(premiumValue).preciseDiv(10 ** reserveAssetDecimals);\n\n        // Calculate SetTokens to mint to issuer\n        uint256 denominator = _setTotalSupply.preciseMul(setTokenValuation).add(normalizedTotalReserveQuantityNetFees).sub(normalizedTotalReserveQuantityNetFeesAndPremium);\n        return normalizedTotalReserveQuantityNetFeesAndPremium.preciseMul(_setTotalSupply).preciseDiv(denominator);\n    }\n\n    function _getRedeemReserveQuantity(\n        ISetToken _setToken,\n        address _reserveAsset,\n        uint256 _setTokenQuantity\n    )\n        internal\n        view\n        returns (uint256)\n    {\n        // Get valuation of the SetToken with the quote asset as the reserve asset. Returns value in precise units (10e18)\n        // Reverts if price is not found\n        uint256 setTokenValuation = controller.getSetValuer().calculateSetTokenValuation(_setToken, _reserveAsset);\n\n        uint256 totalRedeemValueInPreciseUnits = _setTokenQuantity.preciseMul(setTokenValuation);\n        // Get reserve asset decimals\n        uint256 reserveAssetDecimals = ERC20(_reserveAsset).decimals();\n        uint256 prePremiumReserveQuantity = totalRedeemValueInPreciseUnits.preciseMul(10 ** reserveAssetDecimals);\n\n        uint256 premiumPercentage = _getRedeemPremium(_setToken, _reserveAsset, _setTokenQuantity);\n        uint256 premiumQuantity = prePremiumReserveQuantity.preciseMulCeil(premiumPercentage);\n\n        return prePremiumReserveQuantity.sub(premiumQuantity);\n    }\n\n    /**\n     * The new position multiplier is calculated as follows:\n     * inflationPercentage = (newSupply - oldSupply) / newSupply\n     * newMultiplier = (1 - inflationPercentage) * positionMultiplier\n     */    \n    function _getIssuePositionMultiplier(\n        ISetToken _setToken,\n        ActionInfo memory _issueInfo\n    )\n        internal\n        view\n        returns (uint256, int256)\n    {\n        // Calculate inflation and new position multiplier. Note: Round inflation up in order to round position multiplier down\n        uint256 newTotalSupply = _issueInfo.setTokenQuantity.add(_issueInfo.previousSetTokenSupply);\n        int256 newPositionMultiplier = _setToken.positionMultiplier()\n            .mul(_issueInfo.previousSetTokenSupply.toInt256())\n            .div(newTotalSupply.toInt256());\n\n        return (newTotalSupply, newPositionMultiplier);\n    }\n\n    /**\n     * Calculate deflation and new position multiplier. Note: Round deflation down in order to round position multiplier down\n     * \n     * The new position multiplier is calculated as follows:\n     * deflationPercentage = (oldSupply - newSupply) / newSupply\n     * newMultiplier = (1 + deflationPercentage) * positionMultiplier\n     */ \n    function _getRedeemPositionMultiplier(\n        ISetToken _setToken,\n        uint256 _setTokenQuantity,\n        ActionInfo memory _redeemInfo\n    )\n        internal\n        view\n        returns (uint256, int256)\n    {\n        uint256 newTotalSupply = _redeemInfo.previousSetTokenSupply.sub(_setTokenQuantity);\n        int256 newPositionMultiplier = _setToken.positionMultiplier()\n            .mul(_redeemInfo.previousSetTokenSupply.toInt256())\n            .div(newTotalSupply.toInt256());\n\n        return (newTotalSupply, newPositionMultiplier);\n    }\n\n    /**\n     * The new position reserve asset unit is calculated as follows:\n     * totalReserve = (oldUnit * oldSetTokenSupply) + reserveQuantity\n     * newUnit = totalReserve / newSetTokenSupply\n     */ \n    function _getIssuePositionUnit(\n        ISetToken _setToken,\n        address _reserveAsset,\n        ActionInfo memory _issueInfo\n    )\n        internal\n        view\n        returns (uint256)\n    {\n        uint256 existingUnit = _setToken.getDefaultPositionRealUnit(_reserveAsset).toUint256();\n        uint256 totalReserve = existingUnit\n            .preciseMul(_issueInfo.previousSetTokenSupply)\n            .add(_issueInfo.netFlowQuantity);\n\n        return totalReserve.preciseDiv(_issueInfo.newSetTokenSupply);\n    }\n\n    /**\n     * The new position reserve asset unit is calculated as follows:\n     * totalReserve = (oldUnit * oldSetTokenSupply) - reserveQuantityToSendOut\n     * newUnit = totalReserve / newSetTokenSupply\n     */ \n    function _getRedeemPositionUnit(\n        ISetToken _setToken,\n        address _reserveAsset,\n        ActionInfo memory _redeemInfo\n    )\n        internal\n        view\n        returns (uint256)\n    {\n        uint256 existingUnit = _setToken.getDefaultPositionRealUnit(_reserveAsset).toUint256();\n        uint256 totalExistingUnits = existingUnit.preciseMul(_redeemInfo.previousSetTokenSupply);\n\n        uint256 outflow = _redeemInfo.netFlowQuantity.add(_redeemInfo.protocolFees).add(_redeemInfo.managerFee);\n\n        // Require withdrawable quantity is greater than existing collateral\n        require(totalExistingUnits >= outflow, \"Must be greater than total available collateral\");\n\n        return totalExistingUnits.sub(outflow).preciseDiv(_redeemInfo.newSetTokenSupply);\n    }\n\n    /**\n     * If a pre-issue hook has been configured, call the external-protocol contract. Pre-issue hook logic\n     * can contain arbitrary logic including validations, external function calls, etc.\n     */\n    function _callPreIssueHooks(\n        ISetToken _setToken,\n        address _reserveAsset,\n        uint256 _reserveAssetQuantity,\n        address _caller,\n        address _to\n    )\n        internal\n    {\n        INAVIssuanceHook preIssueHook = navIssuanceSettings[_setToken].managerIssuanceHook;\n        if (address(preIssueHook) != address(0)) {\n            preIssueHook.invokePreIssueHook(_setToken, _reserveAsset, _reserveAssetQuantity, _caller, _to);\n        }\n    }\n\n    /**\n     * If a pre-redeem hook has been configured, call the external-protocol contract.\n     */\n    function _callPreRedeemHooks(ISetToken _setToken, uint256 _setQuantity, address _caller, address _to) internal {\n        INAVIssuanceHook preRedeemHook = navIssuanceSettings[_setToken].managerRedemptionHook;\n        if (address(preRedeemHook) != address(0)) {\n            preRedeemHook.invokePreRedeemHook(_setToken, _setQuantity, _caller, _to);\n        }\n    }\n}",
  "sourcePath": "/Users/tahadhailey/Documents/top5/top5swap/swap/contracts/protocol/modules/NAVIssuanceModule.sol",
  "compiler": {
    "name": "solc",
    "version": "0.6.10+commit.00c0fcaf.Emscripten.clang"
  },
  "schemaVersion": "3.2.1",
  "updatedAt": "2021-01-21T08:20:37.763Z",
  "devdoc": {
    "author": "Set Protocol Module that enables issuance and redemption with any valid ERC20 token or ETH if allowed by the manager. Sender receives a proportional amount of SetTokens on issuance or ERC20 token on redemption based on the calculated net asset value using oracle prices. Manager is able to enforce a premium / discount on issuance / redemption to avoid arbitrage and front running when relying on oracle prices. Managers can charge a fee (denominated in reserve asset).",
    "methods": {
      "addReserveAsset(address,address)": {
        "params": {
          "_reserveAsset": "Address of the reserve asset to add",
          "_setToken": "Instance of the SetToken"
        }
      },
      "constructor": {
        "params": {
          "_controller": "Address of controller contract",
          "_weth": "Address of wrapped eth"
        }
      },
      "editFeeRecipient(address,address)": {
        "params": {
          "_managerFeeRecipient": "Manager fee recipient",
          "_setToken": "Instance of the SetToken"
        }
      },
      "editManagerFee(address,uint256,uint256)": {
        "params": {
          "_managerFeeIndex": "Manager fee index. 0 index is issue fee, 1 index is redeem fee",
          "_managerFeePercentage": "Manager fee percentage in 10e16 (e.g. 10e16 = 1%)",
          "_setToken": "Instance of the SetToken"
        }
      },
      "editPremium(address,uint256)": {
        "params": {
          "_premiumPercentage": "Premium percentage in 10e16 (e.g. 10e16 = 1%)",
          "_setToken": "Instance of the SetToken"
        }
      },
      "getExpectedReserveRedeemQuantity(address,address,uint256)": {
        "params": {
          "_reserveAsset": "Address of the reserve asset",
          "_setToken": "Instance of the SetToken",
          "_setTokenQuantity": "Quantity of SetTokens to redeem"
        },
        "returns": {
          "_0": "uint256                     Expected reserve asset quantity redeemed"
        }
      },
      "getExpectedSetTokenIssueQuantity(address,address,uint256)": {
        "params": {
          "_reserveAsset": "Address of the reserve asset",
          "_reserveAssetQuantity": "Quantity of the reserve asset to issue with",
          "_setToken": "Instance of the SetToken"
        },
        "returns": {
          "_0": "uint256                     Expected SetTokens to be minted to recipient"
        }
      },
      "initialize(address,(address,address,address[],address,uint256[2],uint256,uint256,uint256,uint256))": {
        "params": {
          "_navIssuanceSettings": "NAVIssuanceSettings struct defining parameters",
          "_setToken": "Instance of the SetToken to issue"
        }
      },
      "isIssueValid(address,address,uint256)": {
        "params": {
          "_reserveAsset": "Address of the reserve asset",
          "_reserveAssetQuantity": "Quantity of the reserve asset to issue with",
          "_setToken": "Instance of the SetToken"
        },
        "returns": {
          "_0": "bool                        Returns true if issue is valid"
        }
      },
      "isRedeemValid(address,address,uint256)": {
        "params": {
          "_reserveAsset": "Address of the reserve asset",
          "_setToken": "Instance of the SetToken",
          "_setTokenQuantity": "Quantity of SetTokens to redeem"
        },
        "returns": {
          "_0": "bool                        Returns true if redeem is valid"
        }
      },
      "issue(address,address,uint256,uint256,address)": {
        "params": {
          "_minSetTokenReceiveQuantity": "Min quantity of SetToken to receive after issuance",
          "_reserveAsset": "Address of the reserve asset to issue with",
          "_reserveAssetQuantity": "Quantity of the reserve asset to issue with",
          "_setToken": "Instance of the SetToken contract",
          "_to": "Address to mint SetToken to"
        }
      },
      "issueWithEther(address,uint256,address)": {
        "params": {
          "_minSetTokenReceiveQuantity": "Min quantity of SetToken to receive after issuance",
          "_setToken": "Instance of the SetToken contract",
          "_to": "Address to mint SetToken to"
        }
      },
      "redeem(address,address,uint256,uint256,address)": {
        "params": {
          "_minReserveReceiveQuantity": "Min quantity of reserve asset to receive",
          "_reserveAsset": "Address of the reserve asset to redeem with",
          "_setToken": "Instance of the SetToken contract",
          "_setTokenQuantity": "Quantity of SetTokens to redeem",
          "_to": "Address to redeem reserve asset to"
        }
      },
      "redeemIntoEther(address,uint256,uint256,address)": {
        "params": {
          "_minReserveReceiveQuantity": "Min quantity of reserve asset to receive",
          "_setToken": "Instance of the SetToken contract",
          "_setTokenQuantity": "Quantity of SetTokens to redeem",
          "_to": "Address to redeem reserve asset to"
        }
      },
      "removeReserveAsset(address,address)": {
        "params": {
          "_reserveAsset": "Address of the reserve asset to remove",
          "_setToken": "Instance of the SetToken"
        }
      }
    },
    "title": "NavIssuanceModule"
  },
  "userdoc": {
    "methods": {
      "addReserveAsset(address,address)": {
        "notice": "SET MANAGER ONLY. Add an allowed reserve asset"
      },
      "editFeeRecipient(address,address)": {
        "notice": "SET MANAGER ONLY. Edit the manager fee recipient"
      },
      "editManagerFee(address,uint256,uint256)": {
        "notice": "SET MANAGER ONLY. Edit manager fee"
      },
      "editPremium(address,uint256)": {
        "notice": "SET MANAGER ONLY. Edit the premium percentage"
      },
      "getExpectedReserveRedeemQuantity(address,address,uint256)": {
        "notice": "Get the expected reserve asset to be redeemed"
      },
      "getExpectedSetTokenIssueQuantity(address,address,uint256)": {
        "notice": "Get the expected SetTokens minted to recipient on issuance"
      },
      "initialize(address,(address,address,address[],address,uint256[2],uint256,uint256,uint256,uint256))": {
        "notice": "SET MANAGER ONLY. Initializes this module to the SetToken with hooks, allowed reserve assets, fees and issuance premium. Only callable by the SetToken's manager. Hook addresses are optional. Address(0) means that no hook will be called."
      },
      "isIssueValid(address,address,uint256)": {
        "notice": "Checks if issue is valid"
      },
      "isRedeemValid(address,address,uint256)": {
        "notice": "Checks if redeem is valid"
      },
      "issue(address,address,uint256,uint256,address)": {
        "notice": "Deposits the allowed reserve asset into the SetToken and mints the appropriate % of Net Asset Value of the SetToken to the specified _to address."
      },
      "issueWithEther(address,uint256,address)": {
        "notice": "Wraps ETH and deposits WETH if allowed into the SetToken and mints the appropriate % of Net Asset Value of the SetToken to the specified _to address."
      },
      "redeem(address,address,uint256,uint256,address)": {
        "notice": "Redeems a SetToken into a valid reserve asset representing the appropriate % of Net Asset Value of the SetToken to the specified _to address. Only valid if there are available reserve units on the SetToken."
      },
      "redeemIntoEther(address,uint256,uint256,address)": {
        "notice": "Redeems a SetToken into Ether (if WETH is valid) representing the appropriate % of Net Asset Value of the SetToken to the specified _to address. Only valid if there are available WETH units on the SetToken."
      },
      "removeModule()": {
        "notice": "Removes this module from the SetToken, via call by the SetToken. Issuance settings and reserve asset states are deleted."
      },
      "removeReserveAsset(address,address)": {
        "notice": "SET MANAGER ONLY. Remove a reserve asset"
      }
    }
  }
}