{
  "contractName": "NAVIssuanceCaller",
  "abi": [
    {
      "inputs": [
        {
          "internalType": "contract INAVIssuanceModule",
          "name": "_navIssuance",
          "type": "address"
        }
      ],
      "stateMutability": "nonpayable",
      "type": "constructor"
    },
    {
      "inputs": [],
      "name": "navIssuance",
      "outputs": [
        {
          "internalType": "contract INAVIssuanceModule",
          "name": "",
          "type": "address"
        }
      ],
      "stateMutability": "view",
      "type": "function"
    },
    {
      "inputs": [
        {
          "internalType": "contract ISetToken",
          "name": "_setToken",
          "type": "address"
        },
        {
          "internalType": "address",
          "name": "_reserveAsset",
          "type": "address"
        },
        {
          "internalType": "uint256",
          "name": "_reserveAssetQuantity",
          "type": "uint256"
        },
        {
          "internalType": "uint256",
          "name": "_minSetTokenReceiveQuantity",
          "type": "uint256"
        },
        {
          "internalType": "address",
          "name": "_to",
          "type": "address"
        }
      ],
      "name": "issue",
      "outputs": [],
      "stateMutability": "nonpayable",
      "type": "function"
    },
    {
      "inputs": [
        {
          "internalType": "contract ISetToken",
          "name": "_setToken",
          "type": "address"
        },
        {
          "internalType": "address",
          "name": "_reserveAsset",
          "type": "address"
        },
        {
          "internalType": "uint256",
          "name": "_setTokenQuantity",
          "type": "uint256"
        },
        {
          "internalType": "uint256",
          "name": "_minReserveReceiveQuantity",
          "type": "uint256"
        },
        {
          "internalType": "address",
          "name": "_to",
          "type": "address"
        }
      ],
      "name": "redeem",
      "outputs": [],
      "stateMutability": "nonpayable",
      "type": "function"
    }
  ],
  "bytecode": "0x608060405234801561001057600080fd5b506040516106c13803806106c18339818101604052810190610032919061008d565b806000806101000a81548173ffffffffffffffffffffffffffffffffffffffff021916908373ffffffffffffffffffffffffffffffffffffffff16021790555050610111565b600081519050610087816100fa565b92915050565b60006020828403121561009f57600080fd5b60006100ad84828501610078565b91505092915050565b60006100c1826100da565b9050919050565b60006100d3826100b6565b9050919050565b600073ffffffffffffffffffffffffffffffffffffffff82169050919050565b610103816100c8565b811461010e57600080fd5b50565b6105a1806101206000396000f3fe608060405234801561001057600080fd5b50600436106100415760003560e01c80631272ba331461004657806330b305f9146100645780639f6f6ba914610080575b600080fd5b61004e61009c565b60405161005b91906103ff565b60405180910390f35b61007e60048036038101906100799190610323565b6100c1565b005b61009a60048036038101906100959190610323565b61020b565b005b6000809054906101000a900473ffffffffffffffffffffffffffffffffffffffff1681565b8373ffffffffffffffffffffffffffffffffffffffff1663095ea7b36000809054906101000a900473ffffffffffffffffffffffffffffffffffffffff16856040518363ffffffff1660e01b815260040161011d9291906103d6565b602060405180830381600087803b15801561013757600080fd5b505af115801561014b573d6000803e3d6000fd5b505050506040513d601f19601f8201168201806040525081019061016f91906102fa565b506000809054906101000a900473ffffffffffffffffffffffffffffffffffffffff1673ffffffffffffffffffffffffffffffffffffffff166330b305f986868686866040518663ffffffff1660e01b81526004016101d295949392919061041a565b600060405180830381600087803b1580156101ec57600080fd5b505af1158015610200573d6000803e3d6000fd5b505050505050505050565b6000809054906101000a900473ffffffffffffffffffffffffffffffffffffffff1673ffffffffffffffffffffffffffffffffffffffff16639f6f6ba986868686866040518663ffffffff1660e01b815260040161026d95949392919061041a565b600060405180830381600087803b15801561028757600080fd5b505af115801561029b573d6000803e3d6000fd5b505050505050505050565b6000813590506102b58161050f565b92915050565b6000815190506102ca81610526565b92915050565b6000813590506102df8161053d565b92915050565b6000813590506102f481610554565b92915050565b60006020828403121561030c57600080fd5b600061031a848285016102bb565b91505092915050565b600080600080600060a0868803121561033b57600080fd5b6000610349888289016102d0565b955050602061035a888289016102a6565b945050604061036b888289016102e5565b935050606061037c888289016102e5565b925050608061038d888289016102a6565b9150509295509295909350565b6103a38161046d565b82525050565b6103b2816104c7565b82525050565b6103c1816104eb565b82525050565b6103d0816104bd565b82525050565b60006040820190506103eb600083018561039a565b6103f860208301846103c7565b9392505050565b600060208201905061041460008301846103a9565b92915050565b600060a08201905061042f60008301886103b8565b61043c602083018761039a565b61044960408301866103c7565b61045660608301856103c7565b610463608083018461039a565b9695505050505050565b60006104788261049d565b9050919050565b60008115159050919050565b60006104968261046d565b9050919050565b600073ffffffffffffffffffffffffffffffffffffffff82169050919050565b6000819050919050565b60006104d2826104d9565b9050919050565b60006104e48261049d565b9050919050565b60006104f6826104fd565b9050919050565b60006105088261049d565b9050919050565b6105188161046d565b811461052357600080fd5b50565b61052f8161047f565b811461053a57600080fd5b50565b6105468161048b565b811461055157600080fd5b50565b61055d816104bd565b811461056857600080fd5b5056fea264697066735822122034b08cb22c89bff4910b094e056a85a5ab7ed52ed434a8e44b1e7eac8be365c064736f6c634300060a0033",
  "immutableReferences": {},
  "source": "/*\n    Copyright 2020 Set Labs Inc.\n\n    Licensed under the Apache License, Version 2.0 (the \"License\");\n    you may not use this file except in compliance with the License.\n    You may obtain a copy of the License at\n\n    http://www.apache.org/licenses/LICENSE-2.0\n\n    Unless required by applicable law or agreed to in writing, software\n    distributed under the License is distributed on an \"AS IS\" BASIS,\n    WITHOUT WARRANTIES OR CONDITIONS OF ANY KIND, either express or implied.\n    See the License for the specific language governing permissions and\n    limitations under the License.\n\n    SPDX-License-Identifier: Apache License, Version 2.0\n*/\n\npragma solidity 0.6.10;\npragma experimental \"ABIEncoderV2\";\n\nimport { IERC20 } from \"@openzeppelin/contracts/token/ERC20/IERC20.sol\";\n\nimport { INAVIssuanceModule } from \"../../../interfaces/INAVIssuanceModule.sol\";\nimport { ISetToken } from \"../../../interfaces/ISetToken.sol\";\n\n\ncontract NAVIssuanceCaller {\n    INAVIssuanceModule public navIssuance;\n\n    constructor(INAVIssuanceModule _navIssuance) public { navIssuance = _navIssuance; }\n\n    function issue(\n        ISetToken _setToken,\n        address _reserveAsset,\n        uint256 _reserveAssetQuantity,\n        uint256 _minSetTokenReceiveQuantity,\n        address _to\n    ) \n        external\n    {\n        IERC20(_reserveAsset).approve(address(navIssuance), _reserveAssetQuantity);\n        navIssuance.issue(\n            _setToken,\n            _reserveAsset,\n            _reserveAssetQuantity,\n            _minSetTokenReceiveQuantity,\n            _to\n        );\n    }\n\n    function redeem(\n        ISetToken _setToken,\n        address _reserveAsset,\n        uint256 _setTokenQuantity,\n        uint256 _minReserveReceiveQuantity,\n        address _to\n    ) \n        external\n    {\n        navIssuance.redeem(\n            _setToken,\n            _reserveAsset,\n            _setTokenQuantity,\n            _minReserveReceiveQuantity,\n            _to\n        );\n    }\n}",
  "sourcePath": "/Users/tahadhailey/Documents/top5/top5swap/swap/contracts/mocks/protocol/module/NAVIssuanceCaller.sol",
  "compiler": {
    "name": "solc",
    "version": "0.6.10+commit.00c0fcaf.Emscripten.clang"
  },
  "schemaVersion": "3.2.1",
  "updatedAt": "2021-01-21T08:20:37.630Z",
  "devdoc": {
    "methods": {}
  },
  "userdoc": {
    "methods": {}
  }
}