{
  "contractName": "OneInchExchangeMock",
  "abi": [
    {
      "inputs": [
        {
          "internalType": "address",
          "name": "_mockSendToken",
          "type": "address"
        },
        {
          "internalType": "address",
          "name": "_mockReceiveToken",
          "type": "address"
        },
        {
          "internalType": "uint256",
          "name": "_mockSendAmount",
          "type": "uint256"
        },
        {
          "internalType": "uint256",
          "name": "_mockReceiveAmount",
          "type": "uint256"
        }
      ],
      "stateMutability": "nonpayable",
      "type": "constructor"
    },
    {
      "inputs": [],
      "name": "mockReceiveAmount",
      "outputs": [
        {
          "internalType": "uint256",
          "name": "",
          "type": "uint256"
        }
      ],
      "stateMutability": "view",
      "type": "function"
    },
    {
      "inputs": [],
      "name": "mockReceiveToken",
      "outputs": [
        {
          "internalType": "address",
          "name": "",
          "type": "address"
        }
      ],
      "stateMutability": "view",
      "type": "function"
    },
    {
      "inputs": [],
      "name": "mockSendAmount",
      "outputs": [
        {
          "internalType": "uint256",
          "name": "",
          "type": "uint256"
        }
      ],
      "stateMutability": "view",
      "type": "function"
    },
    {
      "inputs": [],
      "name": "mockSendToken",
      "outputs": [
        {
          "internalType": "address",
          "name": "",
          "type": "address"
        }
      ],
      "stateMutability": "view",
      "type": "function"
    },
    {
      "inputs": [],
      "name": "setTokenAddress",
      "outputs": [
        {
          "internalType": "address",
          "name": "",
          "type": "address"
        }
      ],
      "stateMutability": "view",
      "type": "function"
    },
    {
      "inputs": [
        {
          "internalType": "address",
          "name": "_setTokenAddress",
          "type": "address"
        }
      ],
      "name": "addSetTokenAddress",
      "outputs": [],
      "stateMutability": "nonpayable",
      "type": "function"
    },
    {
      "inputs": [
        {
          "internalType": "address",
          "name": "_fromToken",
          "type": "address"
        },
        {
          "internalType": "address",
          "name": "_toToken",
          "type": "address"
        },
        {
          "internalType": "uint256",
          "name": "_fromTokenAmount",
          "type": "uint256"
        },
        {
          "internalType": "uint256",
          "name": "_minReturnAmount",
          "type": "uint256"
        },
        {
          "internalType": "uint256",
          "name": "_guaranteedAmount",
          "type": "uint256"
        },
        {
          "internalType": "address payable",
          "name": "_referrer",
          "type": "address"
        },
        {
          "internalType": "address[]",
          "name": "_callAddresses",
          "type": "address[]"
        },
        {
          "internalType": "bytes",
          "name": "_callDataConcat",
          "type": "bytes"
        },
        {
          "internalType": "uint256[]",
          "name": "_starts",
          "type": "uint256[]"
        },
        {
          "internalType": "uint256[]",
          "name": "_gasLimitsAndValues",
          "type": "uint256[]"
        }
      ],
      "name": "swap",
      "outputs": [
        {
          "internalType": "uint256",
          "name": "returnAmount",
          "type": "uint256"
        }
      ],
      "stateMutability": "payable",
      "type": "function"
    }
  ],
  "bytecode": "0x608060405234801561001057600080fd5b506040516109673803806109678339818101604052608081101561003357600080fd5b810190808051906020019092919080519060200190929190805190602001909291908051906020019092919050505083600160006101000a81548173ffffffffffffffffffffffffffffffffffffffff021916908373ffffffffffffffffffffffffffffffffffffffff160217905550826000806101000a81548173ffffffffffffffffffffffffffffffffffffffff021916908373ffffffffffffffffffffffffffffffffffffffff160217905550816003819055508060028190555050505050610863806101046000396000f3fe6080604052600436106100705760003560e01c8063800accc21161004e578063800accc214610148578063bce3c75114610173578063dc00152f146101ca578063f88309d71461022157610070565b8063474858151461007557806361d97404146100a057806375e9141d146100f7575b600080fd5b34801561008157600080fd5b5061008a61042c565b6040518082815260200191505060405180910390f35b3480156100ac57600080fd5b506100b5610432565b604051808273ffffffffffffffffffffffffffffffffffffffff1673ffffffffffffffffffffffffffffffffffffffff16815260200191505060405180910390f35b34801561010357600080fd5b506101466004803603602081101561011a57600080fd5b81019080803573ffffffffffffffffffffffffffffffffffffffff169060200190929190505050610458565b005b34801561015457600080fd5b5061015d61049c565b6040518082815260200191505060405180910390f35b34801561017f57600080fd5b506101886104a2565b604051808273ffffffffffffffffffffffffffffffffffffffff1673ffffffffffffffffffffffffffffffffffffffff16815260200191505060405180910390f35b3480156101d657600080fd5b506101df6104c7565b604051808273ffffffffffffffffffffffffffffffffffffffff1673ffffffffffffffffffffffffffffffffffffffff16815260200191505060405180910390f35b610416600480360361014081101561023857600080fd5b81019080803573ffffffffffffffffffffffffffffffffffffffff169060200190929190803573ffffffffffffffffffffffffffffffffffffffff169060200190929190803590602001909291908035906020019092919080359060200190929190803573ffffffffffffffffffffffffffffffffffffffff169060200190929190803590602001906401000000008111156102d357600080fd5b8201836020820111156102e557600080fd5b8035906020019184602083028401116401000000008311171561030757600080fd5b90919293919293908035906020019064010000000081111561032857600080fd5b82018360208201111561033a57600080fd5b8035906020019184600183028401116401000000008311171561035c57600080fd5b90919293919293908035906020019064010000000081111561037d57600080fd5b82018360208201111561038f57600080fd5b803590602001918460208302840111640100000000831117156103b157600080fd5b9091929391929390803590602001906401000000008111156103d257600080fd5b8201836020820111156103e457600080fd5b8035906020019184602083028401116401000000008311171561040657600080fd5b90919293919293905050506104ed565b6040518082815260200191505060405180910390f35b60025481565b600160009054906101000a900473ffffffffffffffffffffffffffffffffffffffff1681565b80600460006101000a81548173ffffffffffffffffffffffffffffffffffffffff021916908373ffffffffffffffffffffffffffffffffffffffff16021790555050565b60035481565b6000809054906101000a900473ffffffffffffffffffffffffffffffffffffffff1681565b600460009054906101000a900473ffffffffffffffffffffffffffffffffffffffff1681565b6000600160009054906101000a900473ffffffffffffffffffffffffffffffffffffffff1673ffffffffffffffffffffffffffffffffffffffff166323b872dd600460009054906101000a900473ffffffffffffffffffffffffffffffffffffffff16306003546040518463ffffffff1660e01b8152600401808473ffffffffffffffffffffffffffffffffffffffff1673ffffffffffffffffffffffffffffffffffffffff1681526020018373ffffffffffffffffffffffffffffffffffffffff1673ffffffffffffffffffffffffffffffffffffffff1681526020018281526020019350505050602060405180830381600087803b1580156105f057600080fd5b505af1158015610604573d6000803e3d6000fd5b505050506040513d602081101561061a57600080fd5b810190808051906020019092919050505061069d576040517f08c379a00000000000000000000000000000000000000000000000000000000081526004018080602001828103825260198152602001807f4552433230205472616e7366657246726f6d206661696c65640000000000000081525060200191505060405180910390fd5b6000809054906101000a900473ffffffffffffffffffffffffffffffffffffffff1673ffffffffffffffffffffffffffffffffffffffff1663a9059cbb600460009054906101000a900473ffffffffffffffffffffffffffffffffffffffff166002546040518363ffffffff1660e01b8152600401808373ffffffffffffffffffffffffffffffffffffffff1673ffffffffffffffffffffffffffffffffffffffff16815260200182815260200192505050602060405180830381600087803b15801561076957600080fd5b505af115801561077d573d6000803e3d6000fd5b505050506040513d602081101561079357600080fd5b8101908080519060200190929190505050610816576040517f08c379a00000000000000000000000000000000000000000000000000000000081526004018080602001828103825260158152602001807f4552433230207472616e73666572206661696c6564000000000000000000000081525060200191505060405180910390fd5b60025490509e9d505050505050505050505050505056fea264697066735822122024c57547866cddaf45886cc215b0145efbb76653af7c47f2ad02919189cb7bca64736f6c634300060a0033",
  "immutableReferences": {},
  "source": "/*\n    Copyright 2020 Set Labs Inc.\n\n    Licensed under the Apache License, Version 2.0 (the \"License\");\n    you may not use this file except in compliance with the License.\n    You may obtain a copy of the License at\n\n    http://www.apache.org/licenses/LICENSE-2.0\n\n    Unless required by applicable law or agreed to in writing, software\n    distributed under the License is distributed on an \"AS IS\" BASIS,\n    WITHOUT WARRANTIES OR CONDITIONS OF ANY KIND, either express or implied.\n    See the License for the specific language governing permissions and\n    limitations under the License.\n\n    SPDX-License-Identifier: Apache License, Version 2.0\n*/\n\npragma solidity 0.6.10;\n\nimport { ERC20 } from \"@openzeppelin/contracts/token/ERC20/ERC20.sol\";\nimport { SafeMath } from \"@openzeppelin/contracts/math/SafeMath.sol\";\n\n// Mock contract implementation of 1Inch\ncontract OneInchExchangeMock {\n\n    using SafeMath for uint256;\n\n    address public mockReceiveToken;\n    address public mockSendToken;\n    uint256 public mockReceiveAmount;\n    uint256 public mockSendAmount;\n    // Address of SetToken which will send/receive token\n    address public setTokenAddress;\n\n    constructor(\n        address _mockSendToken,\n        address _mockReceiveToken,\n        uint256 _mockSendAmount,\n        uint256 _mockReceiveAmount\n    ) public {\n        mockSendToken = _mockSendToken;\n        mockReceiveToken = _mockReceiveToken;\n        mockSendAmount = _mockSendAmount;\n        mockReceiveAmount = _mockReceiveAmount;\n    }\n\n    // Initialize SetToken address which will send/receive tokens for the trade\n    function addSetTokenAddress(address _setTokenAddress) external {\n        setTokenAddress = _setTokenAddress;\n    }\n\n    // Conform to 1Inch Swap interface\n    function swap(\n        address _fromToken,\n        address _toToken,\n        uint256 _fromTokenAmount,\n        uint256 _minReturnAmount,\n        uint256 _guaranteedAmount,\n        address payable _referrer,\n        address[] calldata _callAddresses,\n        bytes calldata _callDataConcat,\n        uint256[] calldata _starts,\n        uint256[] calldata _gasLimitsAndValues\n    )\n        external\n        payable\n        returns (uint256 returnAmount)\n    {\n        require(ERC20(mockSendToken).transferFrom(setTokenAddress, address(this), mockSendAmount), \"ERC20 TransferFrom failed\");\n        require(ERC20(mockReceiveToken).transfer(setTokenAddress, mockReceiveAmount), \"ERC20 transfer failed\");\n\n        // Used to silence compiler warnings\n        _fromToken;\n        _toToken;\n        _fromTokenAmount;\n        _minReturnAmount;\n        _guaranteedAmount;\n        _referrer;\n        _callAddresses;\n        _callDataConcat;\n        _starts;\n        _gasLimitsAndValues;\n\n        return mockReceiveAmount;\n    }\n}",
  "sourcePath": "/Users/tahadhailey/Documents/top5/top5swap/swap/contracts/mocks/external/OneInchExchangeMock.sol",
  "compiler": {
    "name": "solc",
    "version": "0.6.10+commit.00c0fcaf.Emscripten.clang"
  },
  "schemaVersion": "3.2.1",
  "updatedAt": "2021-01-21T08:20:37.602Z",
  "devdoc": {
    "methods": {}
  },
  "userdoc": {
    "methods": {}
  }
}