{
  "contractName": "OneInchExchangeAdapter",
  "abi": [
    {
      "inputs": [
        {
          "internalType": "address",
          "name": "_oneInchApprovalAddress",
          "type": "address"
        },
        {
          "internalType": "address",
          "name": "_oneInchExchangeAddress",
          "type": "address"
        },
        {
          "internalType": "bytes4",
          "name": "_oneInchFunctionSignature",
          "type": "bytes4"
        }
      ],
      "stateMutability": "nonpayable",
      "type": "constructor"
    },
    {
      "inputs": [],
      "name": "oneInchApprovalAddress",
      "outputs": [
        {
          "internalType": "address",
          "name": "",
          "type": "address"
        }
      ],
      "stateMutability": "view",
      "type": "function"
    },
    {
      "inputs": [],
      "name": "oneInchExchangeAddress",
      "outputs": [
        {
          "internalType": "address",
          "name": "",
          "type": "address"
        }
      ],
      "stateMutability": "view",
      "type": "function"
    },
    {
      "inputs": [],
      "name": "oneInchFunctionSignature",
      "outputs": [
        {
          "internalType": "bytes4",
          "name": "",
          "type": "bytes4"
        }
      ],
      "stateMutability": "view",
      "type": "function"
    },
    {
      "inputs": [
        {
          "internalType": "address",
          "name": "_sourceToken",
          "type": "address"
        },
        {
          "internalType": "address",
          "name": "_destinationToken",
          "type": "address"
        },
        {
          "internalType": "address",
          "name": "",
          "type": "address"
        },
        {
          "internalType": "uint256",
          "name": "_sourceQuantity",
          "type": "uint256"
        },
        {
          "internalType": "uint256",
          "name": "_minDestinationQuantity",
          "type": "uint256"
        },
        {
          "internalType": "bytes",
          "name": "_data",
          "type": "bytes"
        }
      ],
      "name": "getTradeCalldata",
      "outputs": [
        {
          "internalType": "address",
          "name": "",
          "type": "address"
        },
        {
          "internalType": "uint256",
          "name": "",
          "type": "uint256"
        },
        {
          "internalType": "bytes",
          "name": "",
          "type": "bytes"
        }
      ],
      "stateMutability": "view",
      "type": "function"
    },
    {
      "inputs": [],
      "name": "getSpender",
      "outputs": [
        {
          "internalType": "address",
          "name": "",
          "type": "address"
        }
      ],
      "stateMutability": "view",
      "type": "function"
    }
  ],
  "bytecode": "0x608060405234801561001057600080fd5b50604051610b7e380380610b7e83398181016040528101906100329190610103565b826000806101000a81548173ffffffffffffffffffffffffffffffffffffffff021916908373ffffffffffffffffffffffffffffffffffffffff16021790555081600160006101000a81548173ffffffffffffffffffffffffffffffffffffffff021916908373ffffffffffffffffffffffffffffffffffffffff16021790555080600160146101000a81548163ffffffff021916908360e01c02179055505050506101de565b6000815190506100e8816101b0565b92915050565b6000815190506100fd816101c7565b92915050565b60008060006060848603121561011857600080fd5b6000610126868287016100d9565b9350506020610137868287016100d9565b9250506040610148868287016100ee565b9150509250925092565b600061015d82610190565b9050919050565b60007fffffffff0000000000000000000000000000000000000000000000000000000082169050919050565b600073ffffffffffffffffffffffffffffffffffffffff82169050919050565b6101b981610152565b81146101c457600080fd5b50565b6101d081610164565b81146101db57600080fd5b50565b610991806101ed6000396000f3fe608060405234801561001057600080fd5b50600436106100575760003560e01c8063334fc2891461005c57806364a6c8661461007a57806369fd263114610098578063c7868ace146100b6578063e171fcab146100d4575b600080fd5b610064610106565b60405161007191906106d8565b60405180910390f35b61008261012f565b60405161008f91906106d8565b60405180910390f35b6100a0610154565b6040516100ad9190610731565b60405180910390f35b6100be610167565b6040516100cb91906106d8565b60405180910390f35b6100ee60048036038101906100e9919061046b565b61018d565b6040516100fd939291906106f3565b60405180910390f35b60008060009054906101000a900473ffffffffffffffffffffffffffffffffffffffff16905090565b6000809054906101000a900473ffffffffffffffffffffffffffffffffffffffff1681565b600160149054906101000a900460e01b81565b600160009054906101000a900473ffffffffffffffffffffffffffffffffffffffff1681565b600080606060008060008060006020890151945060248901519350604489015192506064890151915060848901519050600160149054906101000a900460e01b7bffffffffffffffffffffffffffffffffffffffffffffffffffffffff1916857bffffffffffffffffffffffffffffffffffffffffffffffffffffffff19161461024c576040517f08c379a00000000000000000000000000000000000000000000000000000000081526004016102439061074c565b60405180910390fd5b8d73ffffffffffffffffffffffffffffffffffffffff168473ffffffffffffffffffffffffffffffffffffffff16146102ba576040517f08c379a00000000000000000000000000000000000000000000000000000000081526004016102b1906107ac565b60405180910390fd5b8c73ffffffffffffffffffffffffffffffffffffffff168373ffffffffffffffffffffffffffffffffffffffff1614610328576040517f08c379a000000000000000000000000000000000000000000000000000000000815260040161031f9061078c565b60405180910390fd5b8a821461036a576040517f08c379a00000000000000000000000000000000000000000000000000000000081526004016103619061076c565b60405180910390fd5b898110156103ad576040517f08c379a00000000000000000000000000000000000000000000000000000000081526004016103a4906107cc565b60405180910390fd5b600160009054906101000a900473ffffffffffffffffffffffffffffffffffffffff1660008a819150975097509750505050505096509650969350505050565b6000813590506103fc8161092d565b92915050565b600082601f83011261041357600080fd5b813561042661042182610819565b6107ec565b9150808252602083016020830185838301111561044257600080fd5b61044d8382846108da565b50505092915050565b60008135905061046581610944565b92915050565b60008060008060008060c0878903121561048457600080fd5b600061049289828a016103ed565b96505060206104a389828a016103ed565b95505060406104b489828a016103ed565b94505060606104c589828a01610456565b93505060806104d689828a01610456565b92505060a087013567ffffffffffffffff8111156104f357600080fd5b6104ff89828a01610402565b9150509295509295509295565b61051581610872565b82525050565b61052481610884565b82525050565b600061053582610845565b61053f8185610850565b935061054f8185602086016108e9565b6105588161091c565b840191505092915050565b6000610570601a83610861565b91507f4e6f74204f6e6520496e636820537761702046756e6374696f6e0000000000006000830152602082019050919050565b60006105b0601883610861565b91507f536f75726365207175616e74697479206d69736d6174636800000000000000006000830152602082019050919050565b60006105f0601583610861565b91507f496e76616c6964207265636569766520746f6b656e00000000000000000000006000830152602082019050919050565b6000610630601283610861565b91507f496e76616c69642073656e6420746f6b656e00000000000000000000000000006000830152602082019050919050565b6000610670602183610861565b91507f4d696e2064657374696e6174696f6e207175616e74697479206d69736d61746360008301527f68000000000000000000000000000000000000000000000000000000000000006020830152604082019050919050565b6106d2816108d0565b82525050565b60006020820190506106ed600083018461050c565b92915050565b6000606082019050610708600083018661050c565b61071560208301856106c9565b8181036040830152610727818461052a565b9050949350505050565b6000602082019050610746600083018461051b565b92915050565b6000602082019050818103600083015261076581610563565b9050919050565b60006020820190508181036000830152610785816105a3565b9050919050565b600060208201905081810360008301526107a5816105e3565b9050919050565b600060208201905081810360008301526107c581610623565b9050919050565b600060208201905081810360008301526107e581610663565b9050919050565b6000604051905081810181811067ffffffffffffffff8211171561080f57600080fd5b8060405250919050565b600067ffffffffffffffff82111561083057600080fd5b601f19601f8301169050602081019050919050565b600081519050919050565b600082825260208201905092915050565b600082825260208201905092915050565b600061087d826108b0565b9050919050565b60007fffffffff0000000000000000000000000000000000000000000000000000000082169050919050565b600073ffffffffffffffffffffffffffffffffffffffff82169050919050565b6000819050919050565b82818337600083830152505050565b60005b838110156109075780820151818401526020810190506108ec565b83811115610916576000848401525b50505050565b6000601f19601f8301169050919050565b61093681610872565b811461094157600080fd5b50565b61094d816108d0565b811461095857600080fd5b5056fea26469706673582212203184ed61d015977d9ec1dbf34ce67100fcf3c05d7a82a3d656bb64e947b8a68864736f6c634300060a0033",
  "immutableReferences": {},
  "source": "/*\n    Copyright 2020 Set Labs Inc.\n\n    Licensed under the Apache License, Version 2.0 (the \"License\");\n    you may not use this file except in compliance with the License.\n    You may obtain a copy of the License at\n\n    http://www.apache.org/licenses/LICENSE-2.0\n\n    Unless required by applicable law or agreed to in writing, software\n    distributed under the License is distributed on an \"AS IS\" BASIS,\n    WITHOUT WARRANTIES OR CONDITIONS OF ANY KIND, either express or implied.\n    See the License for the specific language governing permissions and\n    limitations under the License.\n\n    SPDX-License-Identifier: Apache License, Version 2.0\n*/\n\npragma solidity 0.6.10;\npragma experimental \"ABIEncoderV2\";\n\n/**\n * @title OneInchExchangeAdapter\n * @author Set Protocol\n *\n * Exchange adapter for 1Inch exchange that returns data for trades\n */\n\ncontract OneInchExchangeAdapter {\n\n    /* ============ State Variables ============ */\n    \n    // Address of 1Inch approve token address\n    address public oneInchApprovalAddress;\n\n    // Address of 1Inch exchange address\n    address public oneInchExchangeAddress;\n\n    // Bytes to check 1Inch function signature\n    bytes4 public oneInchFunctionSignature;\n\n    /* ============ Constructor ============ */\n\n    /**\n     * Set state variables\n     *\n     * @param _oneInchApprovalAddress       Address of 1inch approval contract\n     * @param _oneInchExchangeAddress       Address of 1inch exchange contract\n     * @param _oneInchFunctionSignature     Bytes of 1inch function signature\n     */\n    constructor(\n        address _oneInchApprovalAddress,\n        address _oneInchExchangeAddress,\n        bytes4 _oneInchFunctionSignature\n    )\n        public\n    {\n        oneInchApprovalAddress = _oneInchApprovalAddress;\n        oneInchExchangeAddress = _oneInchExchangeAddress;\n        oneInchFunctionSignature = _oneInchFunctionSignature;\n    }\n\n    /* ============ External Getter Functions ============ */\n\n    /**\n     * Return 1inch calldata which is already generated from the 1inch API\n     *\n     * @param  _sourceToken              Address of source token to be sold\n     * @param  _destinationToken         Address of destination token to buy\n     * @param  _sourceQuantity           Amount of source token to sell\n     * @param  _minDestinationQuantity   Min amount of destination token to buy\n     * @param  _data                     Arbitrage bytes containing trade call data\n     *\n     * @return address                   Target contract address\n     * @return uint256                   Call value\n     * @return bytes                     Trade calldata\n     */\n    function getTradeCalldata(\n        address _sourceToken,\n        address _destinationToken,\n        address /* _destinationAddress */,\n        uint256 _sourceQuantity,\n        uint256 _minDestinationQuantity,\n        bytes memory _data\n    )\n        external\n        view\n        returns (address, uint256, bytes memory)\n    {   \n        bytes4 signature;\n        address fromToken;\n        address toToken;\n        uint256 fromTokenAmount;\n        uint256 minReturnAmount;\n\n        // Parse 1inch calldata and validate parameters match expected inputs\n        // solium-disable-next-line security/no-inline-assembly\n        assembly {\n            signature := mload(add(_data, 32))\n            fromToken := mload(add(_data, 36))\n            toToken := mload(add(_data, 68))\n            fromTokenAmount := mload(add(_data, 100))\n            minReturnAmount := mload(add(_data, 132))\n        }\n\n        require(\n            signature == oneInchFunctionSignature,\n            \"Not One Inch Swap Function\"\n        );\n\n        require(\n            fromToken == _sourceToken,\n            \"Invalid send token\"\n        );\n\n        require(\n            toToken == _destinationToken,\n            \"Invalid receive token\"\n        );\n\n        require(\n            fromTokenAmount == _sourceQuantity,\n            \"Source quantity mismatch\"\n        );\n\n        require(\n            minReturnAmount >= _minDestinationQuantity,\n            \"Min destination quantity mismatch\"\n        );\n\n        return (oneInchExchangeAddress, 0, _data);\n    }\n\n    /**\n     * Returns the address to approve source tokens to for trading. This is the TokenTaker address\n     *\n     * @return address             Address of the contract to approve tokens to\n     */\n    function getSpender()\n        external\n        view\n        returns (address)\n    {\n        return oneInchApprovalAddress;\n    }\n}",
  "sourcePath": "/Users/tahadhailey/Documents/top5/top5swap/swap/contracts/protocol/integration/OneInchExchangeAdapter.sol",
  "compiler": {
    "name": "solc",
    "version": "0.6.10+commit.00c0fcaf.Emscripten.clang"
  },
  "schemaVersion": "3.2.1",
  "updatedAt": "2021-01-21T08:20:37.697Z",
  "devdoc": {
    "author": "Set Protocol Exchange adapter for 1Inch exchange that returns data for trades",
    "methods": {
      "constructor": {
        "params": {
          "_oneInchApprovalAddress": "Address of 1inch approval contract",
          "_oneInchExchangeAddress": "Address of 1inch exchange contract",
          "_oneInchFunctionSignature": "Bytes of 1inch function signature"
        }
      },
      "getSpender()": {
        "returns": {
          "_0": "address             Address of the contract to approve tokens to"
        }
      },
      "getTradeCalldata(address,address,address,uint256,uint256,bytes)": {
        "params": {
          "_data": "Arbitrage bytes containing trade call data",
          "_destinationToken": "Address of destination token to buy",
          "_minDestinationQuantity": "Min amount of destination token to buy",
          "_sourceQuantity": "Amount of source token to sell",
          "_sourceToken": "Address of source token to be sold"
        },
        "returns": {
          "_0": "address                   Target contract address",
          "_1": "uint256                   Call value",
          "_2": "bytes                     Trade calldata"
        }
      }
    },
    "title": "OneInchExchangeAdapter"
  },
  "userdoc": {
    "methods": {
      "constructor": "Set state variables",
      "getSpender()": {
        "notice": "Returns the address to approve source tokens to for trading. This is the TokenTaker address"
      },
      "getTradeCalldata(address,address,address,uint256,uint256,bytes)": {
        "notice": "Return 1inch calldata which is already generated from the 1inch API"
      }
    }
  }
}