{
  "contractName": "OracleMock",
  "abi": [
    {
      "inputs": [
        {
          "internalType": "uint256",
          "name": "_startingPrice",
          "type": "uint256"
        }
      ],
      "stateMutability": "nonpayable",
      "type": "constructor"
    },
    {
      "inputs": [],
      "name": "price",
      "outputs": [
        {
          "internalType": "uint256",
          "name": "",
          "type": "uint256"
        }
      ],
      "stateMutability": "view",
      "type": "function"
    },
    {
      "inputs": [
        {
          "internalType": "uint256",
          "name": "_newPrice",
          "type": "uint256"
        }
      ],
      "name": "updatePrice",
      "outputs": [],
      "stateMutability": "nonpayable",
      "type": "function"
    },
    {
      "inputs": [],
      "name": "read",
      "outputs": [
        {
          "internalType": "uint256",
          "name": "",
          "type": "uint256"
        }
      ],
      "stateMutability": "view",
      "type": "function"
    }
  ],
  "bytecode": "0x608060405234801561001057600080fd5b5060405161014d38038061014d8339818101604052602081101561003357600080fd5b8101908080519060200190929190505050806000819055505060f38061005a6000396000f3fe6080604052348015600f57600080fd5b5060043610603c5760003560e01c806357de26a41460415780638d6cc56d14605d578063a035b1fe146088575b600080fd5b604760a4565b6040518082815260200191505060405180910390f35b608660048036036020811015607157600080fd5b810190808035906020019092919050505060ad565b005b608e60b7565b6040518082815260200191505060405180910390f35b60008054905090565b8060008190555050565b6000548156fea2646970667358221220eda04ebe3e56f5650443647071eaa5cecb8a0cf504d2b046fc66c904eb205b3e64736f6c634300060a0033",
  "immutableReferences": {},
  "source": "/*\n    Copyright 2020 Set Labs Inc.\n\n    Licensed under the Apache License, Version 2.0 (the \"License\");\n    you may not use this file except in compliance with the License.\n    You may obtain a copy of the License at\n\n    http://www.apache.org/licenses/LICENSE-2.0\n\n    Unless required by applicable law or agreed to in writing, software\n    distributed under the License is distributed on an \"AS IS\" BASIS,\n    WITHOUT WARRANTIES OR CONDITIONS OF ANY KIND, either express or implied.\n    See the License for the specific language governing permissions and\n    limitations under the License.\n\n    SPDX-License-Identifier: Apache License, Version 2.0\n*/\n\npragma solidity 0.6.10;\n\ncontract OracleMock {\n    uint256 public price;\n\n    constructor(uint256 _startingPrice) public {\n        price = _startingPrice;\n    }\n\n    /* ============ External Functions ============ */\n    function updatePrice(uint256 _newPrice) external {\n        price = _newPrice;\n    }\n\n    /**\n     * Returns the queried data from an oracle returning uint256\n     *\n     * @return  Current price of asset represented in uint256\n     */\n    function read() external view returns (uint256) {\n        return price;\n    }\n}",
  "sourcePath": "/Users/tahadhailey/Documents/top5/top5swap/swap/contracts/mocks/OracleMock.sol",
  "compiler": {
    "name": "solc",
    "version": "0.6.10+commit.00c0fcaf.Emscripten.clang"
  },
  "schemaVersion": "3.2.1",
  "updatedAt": "2021-01-21T08:20:37.582Z",
  "devdoc": {
    "methods": {
      "read()": {
        "returns": {
          "_0": "Current price of asset represented in uint256"
        }
      }
    }
  },
  "userdoc": {
    "methods": {
      "read()": {
        "notice": "Returns the queried data from an oracle returning uint256"
      }
    }
  }
}