{
  "contractName": "PositionMock",
  "abi": [
    {
      "inputs": [],
      "stateMutability": "nonpayable",
      "type": "constructor"
    },
    {
      "inputs": [
        {
          "internalType": "contract ISetToken",
          "name": "_setToken",
          "type": "address"
        }
      ],
      "name": "initialize",
      "outputs": [],
      "stateMutability": "nonpayable",
      "type": "function"
    },
    {
      "inputs": [
        {
          "internalType": "contract ISetToken",
          "name": "_setToken",
          "type": "address"
        },
        {
          "internalType": "address",
          "name": "_component",
          "type": "address"
        }
      ],
      "name": "testHasDefaultPosition",
      "outputs": [
        {
          "internalType": "bool",
          "name": "",
          "type": "bool"
        }
      ],
      "stateMutability": "view",
      "type": "function"
    },
    {
      "inputs": [
        {
          "internalType": "contract ISetToken",
          "name": "_setToken",
          "type": "address"
        },
        {
          "internalType": "address",
          "name": "_component",
          "type": "address"
        }
      ],
      "name": "testHasExternalPosition",
      "outputs": [
        {
          "internalType": "bool",
          "name": "",
          "type": "bool"
        }
      ],
      "stateMutability": "view",
      "type": "function"
    },
    {
      "inputs": [
        {
          "internalType": "contract ISetToken",
          "name": "_setToken",
          "type": "address"
        },
        {
          "internalType": "address",
          "name": "_component",
          "type": "address"
        },
        {
          "internalType": "uint256",
          "name": "_unit",
          "type": "uint256"
        }
      ],
      "name": "testHasSufficientDefaultUnits",
      "outputs": [
        {
          "internalType": "bool",
          "name": "",
          "type": "bool"
        }
      ],
      "stateMutability": "view",
      "type": "function"
    },
    {
      "inputs": [
        {
          "internalType": "contract ISetToken",
          "name": "_setToken",
          "type": "address"
        },
        {
          "internalType": "address",
          "name": "_component",
          "type": "address"
        },
        {
          "internalType": "address",
          "name": "_module",
          "type": "address"
        },
        {
          "internalType": "uint256",
          "name": "_unit",
          "type": "uint256"
        }
      ],
      "name": "testHasSufficientExternalUnits",
      "outputs": [
        {
          "internalType": "bool",
          "name": "",
          "type": "bool"
        }
      ],
      "stateMutability": "view",
      "type": "function"
    },
    {
      "inputs": [
        {
          "internalType": "contract ISetToken",
          "name": "_setToken",
          "type": "address"
        },
        {
          "internalType": "address",
          "name": "_component",
          "type": "address"
        },
        {
          "internalType": "uint256",
          "name": "_newUnit",
          "type": "uint256"
        }
      ],
      "name": "testEditDefaultPosition",
      "outputs": [],
      "stateMutability": "nonpayable",
      "type": "function"
    },
    {
      "inputs": [
        {
          "internalType": "contract ISetToken",
          "name": "_setToken",
          "type": "address"
        },
        {
          "internalType": "address",
          "name": "_component",
          "type": "address"
        },
        {
          "internalType": "address",
          "name": "_module",
          "type": "address"
        },
        {
          "internalType": "int256",
          "name": "_newUnit",
          "type": "int256"
        },
        {
          "internalType": "bytes",
          "name": "_data",
          "type": "bytes"
        }
      ],
      "name": "testEditExternalPosition",
      "outputs": [],
      "stateMutability": "nonpayable",
      "type": "function"
    },
    {
      "inputs": [
        {
          "internalType": "uint256",
          "name": "_setTokenSupply",
          "type": "uint256"
        },
        {
          "internalType": "uint256",
          "name": "_positionUnit",
          "type": "uint256"
        }
      ],
      "name": "testGetDefaultTotalNotional",
      "outputs": [
        {
          "internalType": "uint256",
          "name": "",
          "type": "uint256"
        }
      ],
      "stateMutability": "pure",
      "type": "function"
    },
    {
      "inputs": [
        {
          "internalType": "uint256",
          "name": "_setTokenSupply",
          "type": "uint256"
        },
        {
          "internalType": "uint256",
          "name": "_totalNotional",
          "type": "uint256"
        }
      ],
      "name": "testGetDefaultPositionUnit",
      "outputs": [
        {
          "internalType": "uint256",
          "name": "",
          "type": "uint256"
        }
      ],
      "stateMutability": "pure",
      "type": "function"
    },
    {
      "inputs": [
        {
          "internalType": "contract ISetToken",
          "name": "_setToken",
          "type": "address"
        },
        {
          "internalType": "address",
          "name": "_component",
          "type": "address"
        }
      ],
      "name": "testGetDefaultTrackedBalance",
      "outputs": [
        {
          "internalType": "uint256",
          "name": "",
          "type": "uint256"
        }
      ],
      "stateMutability": "view",
      "type": "function"
    },
    {
      "inputs": [
        {
          "internalType": "contract ISetToken",
          "name": "_setToken",
          "type": "address"
        },
        {
          "internalType": "address",
          "name": "_component",
          "type": "address"
        },
        {
          "internalType": "uint256",
          "name": "_setTotalSupply",
          "type": "uint256"
        },
        {
          "internalType": "uint256",
          "name": "_componentPreviousBalance",
          "type": "uint256"
        }
      ],
      "name": "testCalculateAndEditDefaultPosition",
      "outputs": [
        {
          "internalType": "uint256",
          "name": "",
          "type": "uint256"
        },
        {
          "internalType": "uint256",
          "name": "",
          "type": "uint256"
        },
        {
          "internalType": "uint256",
          "name": "",
          "type": "uint256"
        }
      ],
      "stateMutability": "nonpayable",
      "type": "function"
    },
    {
      "inputs": [
        {
          "internalType": "uint256",
          "name": "_setTokenSupply",
          "type": "uint256"
        },
        {
          "internalType": "uint256",
          "name": "_preTotalNotional",
          "type": "uint256"
        },
        {
          "internalType": "uint256",
          "name": "_postTotalNotional",
          "type": "uint256"
        },
        {
          "internalType": "uint256",
          "name": "_prePositionUnit",
          "type": "uint256"
        }
      ],
      "name": "testCalculateDefaultEditPositionUnit",
      "outputs": [
        {
          "internalType": "uint256",
          "name": "",
          "type": "uint256"
        }
      ],
      "stateMutability": "pure",
      "type": "function"
    }
  ],
  "bytecode": "0x608060405234801561001057600080fd5b50612069806100206000396000f3fe608060405234801561001057600080fd5b50600436106100b45760003560e01c8063a6c10f7c11610071578063a6c10f7c146101b3578063a8dccfa4146101e3578063ad91431114610213578063c4d66de814610243578063fa688e3d1461025f578063fcab87971461028f576100b4565b8063068f42eb146100b9578063088f08bc146100e95780630cffd3621461010557806314d0d5ef1461013757806326517c48146101675780634699427b14610197575b600080fd5b6100d360048036038101906100ce919061170e565b6102bf565b6040516100e09190611d21565b60405180910390f35b61010360048036038101906100fe919061174a565b6102d3565b005b61011f600480360381019061011a919061188b565b6102e7565b60405161012e93929190611e19565b60405180910390f35b610151600480360381019061014c919061170e565b610308565b60405161015e9190611d21565b60405180910390f35b610181600480360381019061017c919061183c565b61031c565b60405161018e9190611d21565b60405180910390f35b6101b160048036038101906101ac919061183c565b610332565b005b6101cd60048036038101906101c891906117d9565b610342565b6040516101da9190611d21565b60405180910390f35b6101fd60048036038101906101f89190611940565b61035a565b60405161020a9190611dfe565b60405180910390f35b61022d60048036038101906102289190611940565b61036e565b60405161023a9190611dfe565b60405180910390f35b61025d600480360381019061025891906116e5565b610382565b005b6102796004803603810190610274919061197c565b6103e5565b6040516102869190611dfe565b60405180910390f35b6102a960048036038101906102a4919061170e565b6103fd565b6040516102b69190611dfe565b60405180910390f35b60006102cb8383610411565b905092915050565b6102e085858585856104a6565b5050505050565b60008060006102f887878787610b64565b9250925092509450945094915050565b60006103148383610ccd565b905092915050565b6000610329848484610d68565b90509392505050565b61033d838383610e07565b505050565b600061035085858585610fb0565b9050949350505050565b60006103668383611052565b905092915050565b600061037a838361106f565b905092915050565b8073ffffffffffffffffffffffffffffffffffffffff16630ffe0f1e6040518163ffffffff1660e01b8152600401600060405180830381600087803b1580156103ca57600080fd5b505af11580156103de573d6000803e3d6000fd5b5050505050565b60006103f38585858561108c565b9050949350505050565b600061040983836110e6565b905092915050565b6000808373ffffffffffffffffffffffffffffffffffffffff166366cb8d2f846040518263ffffffff1660e01b815260040161044d9190611c3f565b60206040518083038186803b15801561046557600080fd5b505afa158015610479573d6000803e3d6000fd5b505050506040513d601f19601f8201168201806040525081019061049d91906118ee565b13905092915050565b600082146107f9578473ffffffffffffffffffffffffffffffffffffffff1663df5e9b29856040518263ffffffff1660e01b81526004016104e79190611c3f565b60206040518083038186803b1580156104ff57600080fd5b505afa158015610513573d6000803e3d6000fd5b505050506040513d601f19601f8201168201806040525081019061053791906116bc565b610618578473ffffffffffffffffffffffffffffffffffffffff16634e353270856040518263ffffffff1660e01b81526004016105749190611c3f565b600060405180830381600087803b15801561058e57600080fd5b505af11580156105a2573d6000803e3d6000fd5b505050508473ffffffffffffffffffffffffffffffffffffffff1663ea0ee55985856040518363ffffffff1660e01b81526004016105e1929190611c5a565b600060405180830381600087803b1580156105fb57600080fd5b505af115801561060f573d6000803e3d6000fd5b50505050610716565b8473ffffffffffffffffffffffffffffffffffffffff16637d96659385856040518363ffffffff1660e01b8152600401610653929190611c5a565b60206040518083038186803b15801561066b57600080fd5b505afa15801561067f573d6000803e3d6000fd5b505050506040513d601f19601f820116820180604052508101906106a391906116bc565b610715578473ffffffffffffffffffffffffffffffffffffffff1663ea0ee55985856040518363ffffffff1660e01b81526004016106e2929190611c5a565b600060405180830381600087803b1580156106fc57600080fd5b505af1158015610710573d6000803e3d6000fd5b505050505b5b8473ffffffffffffffffffffffffffffffffffffffff166363a90fc18585856040518463ffffffff1660e01b815260040161075393929190611cc1565b600060405180830381600087803b15801561076d57600080fd5b505af1158015610781573d6000803e3d6000fd5b505050508473ffffffffffffffffffffffffffffffffffffffff166326898fe18585846040518463ffffffff1660e01b81526004016107c293929190611c83565b600060405180830381600087803b1580156107dc57600080fd5b505af11580156107f0573d6000803e3d6000fd5b50505050610b5d565b600081511461083d576040517f08c379a000000000000000000000000000000000000000000000000000000000815260040161083490611dbe565b60405180910390fd5b60008573ffffffffffffffffffffffffffffffffffffffff166322ebeba486866040518363ffffffff1660e01b815260040161087a929190611c5a565b60206040518083038186803b15801561089257600080fd5b505afa1580156108a6573d6000803e3d6000fd5b505050506040513d601f19601f820116820180604052508101906108ca91906118ee565b14610b5c5760608573ffffffffffffffffffffffffffffffffffffffff1663a7bdad03866040518263ffffffff1660e01b815260040161090a9190611c3f565b60006040518083038186803b15801561092257600080fd5b505afa158015610936573d6000803e3d6000fd5b505050506040513d6000823e3d601f19601f8201168201806040525081019061095f919061167b565b905060008673ffffffffffffffffffffffffffffffffffffffff166366cb8d2f876040518263ffffffff1660e01b815260040161099c9190611c3f565b60206040518083038186803b1580156109b457600080fd5b505afa1580156109c8573d6000803e3d6000fd5b505050506040513d601f19601f820116820180604052508101906109ec91906118ee565b1480156109fa575060018151145b15610aed578373ffffffffffffffffffffffffffffffffffffffff1681600081518110610a2357fe5b602002602001015173ffffffffffffffffffffffffffffffffffffffff1614610a81576040517f08c379a0000000000000000000000000000000000000000000000000000000008152600401610a7890611d7e565b60405180910390fd5b8573ffffffffffffffffffffffffffffffffffffffff16636f86c897866040518263ffffffff1660e01b8152600401610aba9190611c3f565b600060405180830381600087803b158015610ad457600080fd5b505af1158015610ae8573d6000803e3d6000fd5b505050505b8573ffffffffffffffffffffffffffffffffffffffff1663acf3f07786866040518363ffffffff1660e01b8152600401610b28929190611c5a565b600060405180830381600087803b158015610b4257600080fd5b505af1158015610b56573d6000803e3d6000fd5b50505050505b5b5050505050565b6000806000808673ffffffffffffffffffffffffffffffffffffffff166370a08231896040518263ffffffff1660e01b8152600401610ba39190611c3f565b60206040518083038186803b158015610bbb57600080fd5b505afa158015610bcf573d6000803e3d6000fd5b505050506040513d601f19601f82011682018060405250810190610bf39190611917565b90506000610c888973ffffffffffffffffffffffffffffffffffffffff166366cb8d2f8a6040518263ffffffff1660e01b8152600401610c339190611c3f565b60206040518083038186803b158015610c4b57600080fd5b505afa158015610c5f573d6000803e3d6000fd5b505050506040513d601f19601f82011682018060405250810190610c8391906118ee565b611215565b9050600080831115610ca757610ca08888858561108c565b9050610cac565b600090505b610cb78a8a83610e07565b8282829550955095505050509450945094915050565b6000808373ffffffffffffffffffffffffffffffffffffffff1663a7bdad03846040518263ffffffff1660e01b8152600401610d099190611c3f565b60006040518083038186803b158015610d2157600080fd5b505afa158015610d35573d6000803e3d6000fd5b505050506040513d6000823e3d601f19601f82011682018060405250810190610d5e919061167b565b5111905092915050565b6000610d7382611262565b8473ffffffffffffffffffffffffffffffffffffffff166366cb8d2f856040518263ffffffff1660e01b8152600401610dac9190611c3f565b60206040518083038186803b158015610dc457600080fd5b505afa158015610dd8573d6000803e3d6000fd5b505050506040513d601f19601f82011682018060405250810190610dfc91906118ee565b121590509392505050565b6000610e138484610411565b905080158015610e235750600082115b15610ea757610e328484610ccd565b610ea2578373ffffffffffffffffffffffffffffffffffffffff16634e353270846040518263ffffffff1660e01b8152600401610e6f9190611c3f565b600060405180830381600087803b158015610e8957600080fd5b505af1158015610e9d573d6000803e3d6000fd5b505050505b610f35565b808015610eb45750600082145b15610f3457610ec38484610ccd565b610f33578373ffffffffffffffffffffffffffffffffffffffff16636f86c897846040518263ffffffff1660e01b8152600401610f009190611c3f565b600060405180830381600087803b158015610f1a57600080fd5b505af1158015610f2e573d6000803e3d6000fd5b505050505b5b5b8373ffffffffffffffffffffffffffffffffffffffff16632ba57d1784610f5b85611262565b6040518363ffffffff1660e01b8152600401610f78929190611cf8565b600060405180830381600087803b158015610f9257600080fd5b505af1158015610fa6573d6000803e3d6000fd5b5050505050505050565b6000610fbb82611262565b8573ffffffffffffffffffffffffffffffffffffffff166322ebeba486866040518363ffffffff1660e01b8152600401610ff6929190611c5a565b60206040518083038186803b15801561100e57600080fd5b505afa158015611022573d6000803e3d6000fd5b505050506040513d601f19601f8201168201806040525081019061104691906118ee565b12159050949350505050565b600061106782846112ce90919063ffffffff16565b905092915050565b6000611084838361130590919063ffffffff16565b905092915050565b6000806110b46110a587856112ce90919063ffffffff16565b8661133c90919063ffffffff16565b90506110db866110cd838761133c90919063ffffffff16565b61130590919063ffffffff16565b915050949350505050565b6000808373ffffffffffffffffffffffffffffffffffffffff166366cb8d2f846040518263ffffffff1660e01b81526004016111229190611c3f565b60206040518083038186803b15801561113a57600080fd5b505afa15801561114e573d6000803e3d6000fd5b505050506040513d601f19601f8201168201806040525081019061117291906118ee565b905061120c61118082611215565b8573ffffffffffffffffffffffffffffffffffffffff166318160ddd6040518163ffffffff1660e01b815260040160206040518083038186803b1580156111c657600080fd5b505afa1580156111da573d6000803e3d6000fd5b505050506040513d601f19601f820116820180604052508101906111fe9190611917565b6112ce90919063ffffffff16565b91505092915050565b60008082121561125a576040517f08c379a000000000000000000000000000000000000000000000000000000000815260040161125190611d5e565b60405180910390fd5b819050919050565b60007f800000000000000000000000000000000000000000000000000000000000000082106112c6576040517f08c379a00000000000000000000000000000000000000000000000000000000081526004016112bd90611dde565b60405180910390fd5b819050919050565b60006112fd670de0b6b3a76400006112ef848661138690919063ffffffff16565b6113f690919063ffffffff16565b905092915050565b600061133482611326670de0b6b3a76400008661138690919063ffffffff16565b6113f690919063ffffffff16565b905092915050565b600061137e83836040518060400160405280601e81526020017f536166654d6174683a207375627472616374696f6e206f766572666c6f770000815250611440565b905092915050565b60008083141561139957600090506113f0565b60008284029050828482816113aa57fe5b04146113eb576040517f08c379a00000000000000000000000000000000000000000000000000000000081526004016113e290611d9e565b60405180910390fd5b809150505b92915050565b600061143883836040518060400160405280601a81526020017f536166654d6174683a206469766973696f6e206279207a65726f00000000000081525061149b565b905092915050565b6000838311158290611488576040517f08c379a000000000000000000000000000000000000000000000000000000000815260040161147f9190611d3c565b60405180910390fd5b5060008385039050809150509392505050565b600080831182906114e2576040517f08c379a00000000000000000000000000000000000000000000000000000000081526004016114d99190611d3c565b60405180910390fd5b5060008385816114ee57fe5b049050809150509392505050565b60008135905061150b81611fc0565b92915050565b60008151905061152081611fc0565b92915050565b600082601f83011261153757600080fd5b815161154a61154582611e7d565b611e50565b9150818183526020840193506020810190508385602084028201111561156f57600080fd5b60005b8381101561159f57816115858882611511565b845260208401935060208301925050600181019050611572565b5050505092915050565b6000815190506115b881611fd7565b92915050565b600082601f8301126115cf57600080fd5b81356115e26115dd82611ea5565b611e50565b915080825260208301602083018583830111156115fe57600080fd5b611609838284611f6d565b50505092915050565b60008135905061162181611fee565b92915050565b60008135905061163681612005565b92915050565b60008151905061164b81612005565b92915050565b6000813590506116608161201c565b92915050565b6000815190506116758161201c565b92915050565b60006020828403121561168d57600080fd5b600082015167ffffffffffffffff8111156116a757600080fd5b6116b384828501611526565b91505092915050565b6000602082840312156116ce57600080fd5b60006116dc848285016115a9565b91505092915050565b6000602082840312156116f757600080fd5b600061170584828501611612565b91505092915050565b6000806040838503121561172157600080fd5b600061172f85828601611612565b9250506020611740858286016114fc565b9150509250929050565b600080600080600060a0868803121561176257600080fd5b600061177088828901611612565b9550506020611781888289016114fc565b9450506040611792888289016114fc565b93505060606117a388828901611627565b925050608086013567ffffffffffffffff8111156117c057600080fd5b6117cc888289016115be565b9150509295509295909350565b600080600080608085870312156117ef57600080fd5b60006117fd87828801611612565b945050602061180e878288016114fc565b935050604061181f878288016114fc565b925050606061183087828801611651565b91505092959194509250565b60008060006060848603121561185157600080fd5b600061185f86828701611612565b9350506020611870868287016114fc565b925050604061188186828701611651565b9150509250925092565b600080600080608085870312156118a157600080fd5b60006118af87828801611612565b94505060206118c0878288016114fc565b93505060406118d187828801611651565b92505060606118e287828801611651565b91505092959194509250565b60006020828403121561190057600080fd5b600061190e8482850161163c565b91505092915050565b60006020828403121561192957600080fd5b600061193784828501611666565b91505092915050565b6000806040838503121561195357600080fd5b600061196185828601611651565b925050602061197285828601611651565b9150509250929050565b6000806000806080858703121561199257600080fd5b60006119a087828801611651565b94505060206119b187828801611651565b93505060406119c287828801611651565b92505060606119d387828801611651565b91505092959194509250565b6119e881611f09565b82525050565b6119f781611f1b565b82525050565b6000611a0882611ed1565b611a128185611ee7565b9350611a22818560208601611f7c565b611a2b81611faf565b840191505092915050565b611a3f81611f39565b82525050565b6000611a5082611edc565b611a5a8185611ef8565b9350611a6a818560208601611f7c565b611a7381611faf565b840191505092915050565b6000611a8b602083611ef8565b91507f53616665436173743a2076616c7565206d75737420626520706f7369746976656000830152602082019050919050565b6000611acb603083611ef8565b91507f45787465726e616c20706f736974696f6e73206d757374206265203020746f2060008301527f72656d6f766520636f6d706f6e656e74000000000000000000000000000000006020830152604082019050919050565b6000611b31602183611ef8565b91507f536166654d6174683a206d756c7469706c69636174696f6e206f766572666c6f60008301527f77000000000000000000000000000000000000000000000000000000000000006020830152604082019050919050565b6000611b97601883611ef8565b91507f5061737365642064617461206d757374206265206e756c6c00000000000000006000830152602082019050919050565b6000611bd7602883611ef8565b91507f53616665436173743a2076616c756520646f65736e27742066697420696e206160008301527f6e20696e743235360000000000000000000000000000000000000000000000006020830152604082019050919050565b611c3981611f63565b82525050565b6000602082019050611c5460008301846119df565b92915050565b6000604082019050611c6f60008301856119df565b611c7c60208301846119df565b9392505050565b6000606082019050611c9860008301866119df565b611ca560208301856119df565b8181036040830152611cb781846119fd565b9050949350505050565b6000606082019050611cd660008301866119df565b611ce360208301856119df565b611cf06040830184611a36565b949350505050565b6000604082019050611d0d60008301856119df565b611d1a6020830184611a36565b9392505050565b6000602082019050611d3660008301846119ee565b92915050565b60006020820190508181036000830152611d568184611a45565b905092915050565b60006020820190508181036000830152611d7781611a7e565b9050919050565b60006020820190508181036000830152611d9781611abe565b9050919050565b60006020820190508181036000830152611db781611b24565b9050919050565b60006020820190508181036000830152611dd781611b8a565b9050919050565b60006020820190508181036000830152611df781611bca565b9050919050565b6000602082019050611e136000830184611c30565b92915050565b6000606082019050611e2e6000830186611c30565b611e3b6020830185611c30565b611e486040830184611c30565b949350505050565b6000604051905081810181811067ffffffffffffffff82111715611e7357600080fd5b8060405250919050565b600067ffffffffffffffff821115611e9457600080fd5b602082029050602081019050919050565b600067ffffffffffffffff821115611ebc57600080fd5b601f19601f8301169050602081019050919050565b600081519050919050565b600081519050919050565b600082825260208201905092915050565b600082825260208201905092915050565b6000611f1482611f43565b9050919050565b60008115159050919050565b6000611f3282611f09565b9050919050565b6000819050919050565b600073ffffffffffffffffffffffffffffffffffffffff82169050919050565b6000819050919050565b82818337600083830152505050565b60005b83811015611f9a578082015181840152602081019050611f7f565b83811115611fa9576000848401525b50505050565b6000601f19601f8301169050919050565b611fc981611f09565b8114611fd457600080fd5b50565b611fe081611f1b565b8114611feb57600080fd5b50565b611ff781611f27565b811461200257600080fd5b50565b61200e81611f39565b811461201957600080fd5b50565b61202581611f63565b811461203057600080fd5b5056fea2646970667358221220599830e1f4e9fadf73409e7c3ff569494f0b9951f60c8e02ea766513cc76533764736f6c634300060a0033",
  "immutableReferences": {},
  "source": "/*\n    Copyright 2020 Set Labs Inc.\n\n    Licensed under the Apache License, Version 2.0 (the \"License\");\n    you may not use this file except in compliance with the License.\n    You may obtain a copy of the License at\n\n    http://www.apache.org/licenses/LICENSE-2.0\n\n    Unless required by applicable law or agreed to in writing, software\n    distributed under the License is distributed on an \"AS IS\" BASIS,\n    WITHOUT WARRANTIES OR CONDITIONS OF ANY KIND, either express or implied.\n    See the License for the specific language governing permissions and\n    limitations under the License.\n\n    SPDX-License-Identifier: Apache License, Version 2.0\n*/\n\npragma solidity 0.6.10;\npragma experimental \"ABIEncoderV2\";\n\nimport { ISetToken } from \"../interfaces/ISetToken.sol\";\nimport { Position } from \"../protocol/lib/Position.sol\";\n\n\n// Mock contract implementation of Position functions\ncontract PositionMock {\n    constructor()\n        public\n    {}\n\n    function initialize(ISetToken _setToken) external {\n        _setToken.initializeModule();\n    }\n\n    function testHasDefaultPosition(ISetToken _setToken, address _component) external view returns(bool) {\n        return Position.hasDefaultPosition(_setToken, _component);    \n    }\n\n    function testHasExternalPosition(ISetToken _setToken, address _component) external view returns(bool) {\n        return Position.hasExternalPosition(_setToken, _component);\n    }\n    function testHasSufficientDefaultUnits(ISetToken _setToken, address _component, uint256 _unit) external view returns(bool) {\n        return Position.hasSufficientDefaultUnits(_setToken, _component, _unit);    \n    }\n    function testHasSufficientExternalUnits(\n        ISetToken _setToken,\n        address _component,\n        address _module,\n        uint256 _unit\n    )\n        external\n        view\n        returns(bool)\n    {\n        return Position.hasSufficientExternalUnits(_setToken, _component, _module, _unit);    \n    }\n\n    function testEditDefaultPosition(ISetToken _setToken, address _component, uint256 _newUnit) external {\n        return Position.editDefaultPosition(_setToken, _component, _newUnit);   \n    }\n\n    function testEditExternalPosition(\n        ISetToken _setToken,\n        address _component,\n        address _module,\n        int256 _newUnit,\n        bytes memory _data\n    )\n        external\n    {\n        Position.editExternalPosition(_setToken, _component, _module, _newUnit, _data);\n    }\n\n    function testGetDefaultTotalNotional(\n        uint256 _setTokenSupply,\n        uint256 _positionUnit\n    )\n        external\n        pure\n        returns (uint256)\n    {\n        return Position.getDefaultTotalNotional(_setTokenSupply, _positionUnit);\n    }\n\n    function testGetDefaultPositionUnit(\n        uint256 _setTokenSupply,\n        uint256 _totalNotional\n    )\n        external\n        pure\n        returns (uint256)\n    {\n        return Position.getDefaultPositionUnit(_setTokenSupply, _totalNotional);\n    }\n\n    function testGetDefaultTrackedBalance(ISetToken _setToken, address _component)\n        external\n        view\n        returns (uint256)\n    {\n        return Position.getDefaultTrackedBalance(_setToken, _component);\n    }\n\n    function testCalculateAndEditDefaultPosition(\n        ISetToken _setToken,\n        address _component,\n        uint256 _setTotalSupply,\n        uint256 _componentPreviousBalance\n    )\n        external\n        returns (uint256, uint256, uint256)\n    {\n        return Position.calculateAndEditDefaultPosition(\n            _setToken,\n            _component,\n            _setTotalSupply,\n            _componentPreviousBalance\n        );\n    }\n\n    function testCalculateDefaultEditPositionUnit(\n        uint256 _setTokenSupply,\n        uint256 _preTotalNotional,\n        uint256 _postTotalNotional,\n        uint256 _prePositionUnit\n    )\n        external\n        pure\n        returns (uint256)\n    {\n        return Position.calculateDefaultEditPositionUnit(\n            _setTokenSupply,\n            _preTotalNotional,\n            _postTotalNotional,\n            _prePositionUnit\n        );\n    }\n}",
  "sourcePath": "/Users/tahadhailey/Documents/top5/top5swap/swap/contracts/mocks/PositionMock.sol",
  "compiler": {
    "name": "solc",
    "version": "0.6.10+commit.00c0fcaf.Emscripten.clang"
  },
  "schemaVersion": "3.2.1",
  "updatedAt": "2021-01-21T08:20:37.583Z",
  "devdoc": {
    "methods": {}
  },
  "userdoc": {
    "methods": {}
  }
}