{
  "contractName": "PreciseUnitMathMock",
  "abi": [
    {
      "inputs": [],
      "name": "preciseUnit",
      "outputs": [
        {
          "internalType": "uint256",
          "name": "",
          "type": "uint256"
        }
      ],
      "stateMutability": "pure",
      "type": "function"
    },
    {
      "inputs": [],
      "name": "preciseUnitInt",
      "outputs": [
        {
          "internalType": "int256",
          "name": "",
          "type": "int256"
        }
      ],
      "stateMutability": "pure",
      "type": "function"
    },
    {
      "inputs": [],
      "name": "maxInt256",
      "outputs": [
        {
          "internalType": "int256",
          "name": "",
          "type": "int256"
        }
      ],
      "stateMutability": "pure",
      "type": "function"
    },
    {
      "inputs": [],
      "name": "minInt256",
      "outputs": [
        {
          "internalType": "int256",
          "name": "",
          "type": "int256"
        }
      ],
      "stateMutability": "pure",
      "type": "function"
    },
    {
      "inputs": [
        {
          "internalType": "uint256",
          "name": "a",
          "type": "uint256"
        },
        {
          "internalType": "uint256",
          "name": "b",
          "type": "uint256"
        }
      ],
      "name": "preciseMul",
      "outputs": [
        {
          "internalType": "uint256",
          "name": "",
          "type": "uint256"
        }
      ],
      "stateMutability": "pure",
      "type": "function"
    },
    {
      "inputs": [
        {
          "internalType": "int256",
          "name": "a",
          "type": "int256"
        },
        {
          "internalType": "int256",
          "name": "b",
          "type": "int256"
        }
      ],
      "name": "preciseMulInt",
      "outputs": [
        {
          "internalType": "int256",
          "name": "",
          "type": "int256"
        }
      ],
      "stateMutability": "pure",
      "type": "function"
    },
    {
      "inputs": [
        {
          "internalType": "uint256",
          "name": "a",
          "type": "uint256"
        },
        {
          "internalType": "uint256",
          "name": "b",
          "type": "uint256"
        }
      ],
      "name": "preciseMulCeil",
      "outputs": [
        {
          "internalType": "uint256",
          "name": "",
          "type": "uint256"
        }
      ],
      "stateMutability": "pure",
      "type": "function"
    },
    {
      "inputs": [
        {
          "internalType": "int256",
          "name": "a",
          "type": "int256"
        },
        {
          "internalType": "int256",
          "name": "b",
          "type": "int256"
        }
      ],
      "name": "preciseDiv",
      "outputs": [
        {
          "internalType": "int256",
          "name": "",
          "type": "int256"
        }
      ],
      "stateMutability": "pure",
      "type": "function"
    },
    {
      "inputs": [
        {
          "internalType": "uint256",
          "name": "a",
          "type": "uint256"
        },
        {
          "internalType": "uint256",
          "name": "b",
          "type": "uint256"
        }
      ],
      "name": "preciseDiv",
      "outputs": [
        {
          "internalType": "uint256",
          "name": "",
          "type": "uint256"
        }
      ],
      "stateMutability": "pure",
      "type": "function"
    },
    {
      "inputs": [
        {
          "internalType": "uint256",
          "name": "a",
          "type": "uint256"
        },
        {
          "internalType": "uint256",
          "name": "b",
          "type": "uint256"
        }
      ],
      "name": "preciseDivCeil",
      "outputs": [
        {
          "internalType": "uint256",
          "name": "",
          "type": "uint256"
        }
      ],
      "stateMutability": "pure",
      "type": "function"
    },
    {
      "inputs": [
        {
          "internalType": "int256",
          "name": "a",
          "type": "int256"
        },
        {
          "internalType": "int256",
          "name": "b",
          "type": "int256"
        }
      ],
      "name": "divDown",
      "outputs": [
        {
          "internalType": "int256",
          "name": "",
          "type": "int256"
        }
      ],
      "stateMutability": "pure",
      "type": "function"
    },
    {
      "inputs": [
        {
          "internalType": "int256",
          "name": "a",
          "type": "int256"
        },
        {
          "internalType": "int256",
          "name": "b",
          "type": "int256"
        }
      ],
      "name": "conservativePreciseMul",
      "outputs": [
        {
          "internalType": "int256",
          "name": "",
          "type": "int256"
        }
      ],
      "stateMutability": "pure",
      "type": "function"
    },
    {
      "inputs": [
        {
          "internalType": "int256",
          "name": "a",
          "type": "int256"
        },
        {
          "internalType": "int256",
          "name": "b",
          "type": "int256"
        }
      ],
      "name": "conservativePreciseDiv",
      "outputs": [
        {
          "internalType": "int256",
          "name": "",
          "type": "int256"
        }
      ],
      "stateMutability": "pure",
      "type": "function"
    },
    {
      "inputs": [
        {
          "internalType": "uint256",
          "name": "a",
          "type": "uint256"
        },
        {
          "internalType": "uint256",
          "name": "b",
          "type": "uint256"
        }
      ],
      "name": "safePower",
      "outputs": [
        {
          "internalType": "uint256",
          "name": "",
          "type": "uint256"
        }
      ],
      "stateMutability": "pure",
      "type": "function"
    }
  ],
  "bytecode": "0x608060405234801561001057600080fd5b506112b7806100206000396000f3fe608060405234801561001057600080fd5b50600436106100ea5760003560e01c8063ad8b9b9b1161008c578063ddb29e9211610066578063ddb29e9214610287578063dfcc00f2146102b7578063e22cfd3f146102e7578063ebf5853014610317576100ea565b8063ad8b9b9b14610209578063d5e5e6e614610239578063db43cf9214610257576100ea565b80636749ab9a116100c85780636749ab9a1461016d57806370f0e27a1461019d5780637c1bd7c8146101cd57806393b027b4146101eb576100ea565b8063127a30f1146100ef5780631ad505861461010d578063576dcc3d1461013d575b600080fd5b6100f7610347565b6040516101049190611087565b60405180910390f35b61012760048036038101906101229190610d82565b610356565b60405161013491906111c4565b60405180910390f35b61015760048036038101906101529190610d82565b610373565b60405161016491906111c4565b60405180910390f35b61018760048036038101906101829190610d82565b610390565b60405161019491906111c4565b60405180910390f35b6101b760048036038101906101b29190610d46565b6103ad565b6040516101c49190611087565b60405180910390f35b6101d56103ca565b6040516101e29190611087565b60405180910390f35b6101f36103d9565b6040516102009190611087565b60405180910390f35b610223600480360381019061021e9190610d46565b6103e8565b6040516102309190611087565b60405180910390f35b610241610405565b60405161024e91906111c4565b60405180910390f35b610271600480360381019061026c9190610d82565b610414565b60405161027e91906111c4565b60405180910390f35b6102a1600480360381019061029c9190610d46565b610431565b6040516102ae9190611087565b60405180910390f35b6102d160048036038101906102cc9190610d46565b61044e565b6040516102de9190611087565b60405180910390f35b61030160048036038101906102fc9190610d46565b61046b565b60405161030e9190611087565b60405180910390f35b610331600480360381019061032c9190610d82565b610488565b60405161033e91906111c4565b60405180910390f35b60006103516104a5565b905090565b600061036b82846104b590919063ffffffff16565b905092915050565b6000610388828461054090919063ffffffff16565b905092915050565b60006103a582846105f090919063ffffffff16565b905092915050565b60006103c2828461066a90919063ffffffff16565b905092915050565b60006103d4610698565b905090565b60006103e36106c0565b905090565b60006103fd82846106e890919063ffffffff16565b905092915050565b600061040f610716565b905090565b6000610429828461072690919063ffffffff16565b905092915050565b6000610446828461075d90919063ffffffff16565b905092915050565b6000610463828461087990919063ffffffff16565b905092915050565b600061048082846108b090919063ffffffff16565b905092915050565b600061049d82846108e790919063ffffffff16565b905092915050565b6000670de0b6b3a7640000905090565b60008083116104f9576040517f08c379a00000000000000000000000000000000000000000000000000000000081526004016104f0906110e4565b60405180910390fd5b60006001905060008090505b83811015610535576000829050610525868261091e90919063ffffffff16565b9250508080600101915050610505565b508091505092915050565b600080821415610585576040517f08c379a000000000000000000000000000000000000000000000000000000000815260040161057c906111a4565b60405180910390fd5b600083116105945760006105e8565b6105e760016105d9846105cb60016105bd670de0b6b3a76400008a61091e90919063ffffffff16565b61098e90919063ffffffff16565b6109d890919063ffffffff16565b610a2290919063ffffffff16565b5b905092915050565b6000808314806106005750600082145b1561060e5760009050610664565b6106616001610653670de0b6b3a76400006106456001610637888a61091e90919063ffffffff16565b61098e90919063ffffffff16565b6109d890919063ffffffff16565b610a2290919063ffffffff16565b90505b92915050565b60006106906106828385610a7790919063ffffffff16565b670de0b6b3a764000061075d565b905092915050565b60007f8000000000000000000000000000000000000000000000000000000000000000905090565b60007f7fffffffffffffffffffffffffffffffffffffffffffffffffffffffffffffff905090565b600061070e610708670de0b6b3a764000085610a7790919063ffffffff16565b8361075d565b905092915050565b6000670de0b6b3a7640000905090565b6000610755670de0b6b3a7640000610747848661091e90919063ffffffff16565b6109d890919063ffffffff16565b905092915050565b6000808214156107a2576040517f08c379a0000000000000000000000000000000000000000000000000000000008152600401610799906111a4565b60405180910390fd5b7f8000000000000000000000000000000000000000000000000000000000000000831415806107f157507fffffffffffffffffffffffffffffffffffffffffffffffffffffffffffffffff8214155b610830576040517f08c379a000000000000000000000000000000000000000000000000000000000815260040161082790611164565b60405180910390fd5b60006108458385610b7590919063ffffffff16565b905060008385181280156108635750600083858161085f57fe5b0714155b1561086f576001810390505b8091505092915050565b60006108a8670de0b6b3a764000061089a8486610a7790919063ffffffff16565b610b7590919063ffffffff16565b905092915050565b60006108df826108d1670de0b6b3a764000086610a7790919063ffffffff16565b610b7590919063ffffffff16565b905092915050565b600061091682610908670de0b6b3a76400008661091e90919063ffffffff16565b6109d890919063ffffffff16565b905092915050565b6000808314156109315760009050610988565b600082840290508284828161094257fe5b0414610983576040517f08c379a000000000000000000000000000000000000000000000000000000000815260040161097a90611124565b60405180910390fd5b809150505b92915050565b60006109d083836040518060400160405280601e81526020017f536166654d6174683a207375627472616374696f6e206f766572666c6f770000815250610c60565b905092915050565b6000610a1a83836040518060400160405280601a81526020017f536166654d6174683a206469766973696f6e206279207a65726f000000000000815250610cbb565b905092915050565b600080828401905083811015610a6d576040517f08c379a0000000000000000000000000000000000000000000000000000000008152600401610a64906110c4565b60405180910390fd5b8091505092915050565b600080831415610a8a5760009050610b6f565b7fffffffffffffffffffffffffffffffffffffffffffffffffffffffffffffffff83148015610ad857507f800000000000000000000000000000000000000000000000000000000000000082145b15610b18576040517f08c379a0000000000000000000000000000000000000000000000000000000008152600401610b0f90611144565b60405180910390fd5b6000828402905082848281610b2957fe5b0514610b6a576040517f08c379a0000000000000000000000000000000000000000000000000000000008152600401610b6190611144565b60405180910390fd5b809150505b92915050565b600080821415610bba576040517f08c379a0000000000000000000000000000000000000000000000000000000008152600401610bb190611184565b60405180910390fd5b7fffffffffffffffffffffffffffffffffffffffffffffffffffffffffffffffff82148015610c0857507f800000000000000000000000000000000000000000000000000000000000000083145b15610c48576040517f08c379a0000000000000000000000000000000000000000000000000000000008152600401610c3f90611104565b60405180910390fd5b6000828481610c5357fe5b0590508091505092915050565b6000838311158290610ca8576040517f08c379a0000000000000000000000000000000000000000000000000000000008152600401610c9f91906110a2565b60405180910390fd5b5060008385039050809150509392505050565b60008083118290610d02576040517f08c379a0000000000000000000000000000000000000000000000000000000008152600401610cf991906110a2565b60405180910390fd5b506000838581610d0e57fe5b049050809150509392505050565b600081359050610d2b81611253565b92915050565b600081359050610d408161126a565b92915050565b60008060408385031215610d5957600080fd5b6000610d6785828601610d1c565b9250506020610d7885828601610d1c565b9150509250929050565b60008060408385031215610d9557600080fd5b6000610da385828601610d31565b9250506020610db485828601610d31565b9150509250929050565b610dc7816111fb565b82525050565b6000610dd8826111df565b610de281856111ea565b9350610df281856020860161120f565b610dfb81611242565b840191505092915050565b6000610e13601b836111ea565b91507f536166654d6174683a206164646974696f6e206f766572666c6f7700000000006000830152602082019050919050565b6000610e536016836111ea565b91507f56616c7565206d75737420626520706f736974697665000000000000000000006000830152602082019050919050565b6000610e936021836111ea565b91507f5369676e6564536166654d6174683a206469766973696f6e206f766572666c6f60008301527f77000000000000000000000000000000000000000000000000000000000000006020830152604082019050919050565b6000610ef96021836111ea565b91507f536166654d6174683a206d756c7469706c69636174696f6e206f766572666c6f60008301527f77000000000000000000000000000000000000000000000000000000000000006020830152604082019050919050565b6000610f5f6027836111ea565b91507f5369676e6564536166654d6174683a206d756c7469706c69636174696f6e206f60008301527f766572666c6f77000000000000000000000000000000000000000000000000006020830152604082019050919050565b6000610fc5600d836111ea565b91507f496e76616c696420696e707574000000000000000000000000000000000000006000830152602082019050919050565b60006110056020836111ea565b91507f5369676e6564536166654d6174683a206469766973696f6e206279207a65726f6000830152602082019050919050565b60006110456010836111ea565b91507f43616e74206469766964652062792030000000000000000000000000000000006000830152602082019050919050565b61108181611205565b82525050565b600060208201905061109c6000830184610dbe565b92915050565b600060208201905081810360008301526110bc8184610dcd565b905092915050565b600060208201905081810360008301526110dd81610e06565b9050919050565b600060208201905081810360008301526110fd81610e46565b9050919050565b6000602082019050818103600083015261111d81610e86565b9050919050565b6000602082019050818103600083015261113d81610eec565b9050919050565b6000602082019050818103600083015261115d81610f52565b9050919050565b6000602082019050818103600083015261117d81610fb8565b9050919050565b6000602082019050818103600083015261119d81610ff8565b9050919050565b600060208201905081810360008301526111bd81611038565b9050919050565b60006020820190506111d96000830184611078565b92915050565b600081519050919050565b600082825260208201905092915050565b6000819050919050565b6000819050919050565b60005b8381101561122d578082015181840152602081019050611212565b8381111561123c576000848401525b50505050565b6000601f19601f8301169050919050565b61125c816111fb565b811461126757600080fd5b50565b61127381611205565b811461127e57600080fd5b5056fea264697066735822122047bb3cce9433455fec31a30fedc27f7f8cbeba99ce89f17665a6268ee3d9af3464736f6c634300060a0033",
  "immutableReferences": {},
  "source": "/*\n    Copyright 2020 Set Labs Inc.\n\n    Licensed under the Apache License, Version 2.0 (the \"License\");\n    you may not use this file except in compliance with the License.\n    You may obtain a copy of the License at\n\n    http://www.apache.org/licenses/LICENSE-2.0\n\n    Unless required by applicable law or agreed to in writing, software\n    distributed under the License is distributed on an \"AS IS\" BASIS,\n    WITHOUT WARRANTIES OR CONDITIONS OF ANY KIND, either express or implied.\n    See the License for the specific language governing permissions and\n    limitations under the License.\n\n    SPDX-License-Identifier: Apache License, Version 2.0\n*/\n\npragma solidity 0.6.10;\npragma experimental \"ABIEncoderV2\";\n\nimport { PreciseUnitMath } from \"../lib/PreciseUnitMath.sol\";\n\n\ncontract PreciseUnitMathMock {\n    using PreciseUnitMath for uint256;\n    using PreciseUnitMath for int256;\n\n    function preciseUnit() external pure returns(uint256) {\n        return PreciseUnitMath.preciseUnit();\n    }\n\n    function preciseUnitInt() external pure returns(int256) {\n        return PreciseUnitMath.preciseUnitInt();\n    }\n\n    function maxInt256() external pure returns(int256) {\n        return PreciseUnitMath.maxInt256();\n    }\n\n    function minInt256() external pure returns(int256) {\n        return PreciseUnitMath.minInt256();\n    }\n\n    function preciseMul(uint256 a, uint256 b) external pure returns(uint256) {\n        return a.preciseMul(b);\n    }\n\n    function preciseMulInt(int256 a, int256 b) external pure returns(int256) {\n        return a.preciseMul(b);\n    }\n\n    function preciseMulCeil(uint256 a, uint256 b) external pure returns(uint256) {\n        return a.preciseMulCeil(b);\n    }\n\n    function preciseDiv(uint256 a, uint256 b) external pure returns(uint256) {\n        return a.preciseDiv(b);\n    }\n\n    function preciseDiv(int256 a, int256 b) external pure returns(int256) {\n        return a.preciseDiv(b);\n    }\n\n    function preciseDivCeil(uint256 a, uint256 b) external pure returns(uint256) {\n        return a.preciseDivCeil(b);\n    }\n\n    function divDown(int256 a, int256 b) external pure returns(int256) {\n        return a.divDown(b);\n    }\n\n    function conservativePreciseMul(int256 a, int256 b) external pure returns(int256) {\n        return a.conservativePreciseMul(b);\n    }\n\n    function conservativePreciseDiv(int256 a, int256 b) external pure returns(int256) {\n        return a.conservativePreciseDiv(b);\n    }\n\n    function safePower(uint256 a, uint256 b) external pure returns(uint256) {\n        return a.safePower(b);\n    }\n}",
  "sourcePath": "/Users/tahadhailey/Documents/top5/top5swap/swap/contracts/mocks/PreciseUnitMathMock.sol",
  "compiler": {
    "name": "solc",
    "version": "0.6.10+commit.00c0fcaf.Emscripten.clang"
  },
  "schemaVersion": "3.2.1",
  "updatedAt": "2021-01-21T08:20:37.586Z",
  "devdoc": {
    "methods": {}
  },
  "userdoc": {
    "methods": {}
  }
}