{
  "contractName": "PriceOracle",
  "abi": [
    {
      "inputs": [
        {
          "internalType": "contract IController",
          "name": "_controller",
          "type": "address"
        },
        {
          "internalType": "address",
          "name": "_masterQuoteAsset",
          "type": "address"
        },
        {
          "internalType": "address[]",
          "name": "_adapters",
          "type": "address[]"
        },
        {
          "internalType": "address[]",
          "name": "_assetOnes",
          "type": "address[]"
        },
        {
          "internalType": "address[]",
          "name": "_assetTwos",
          "type": "address[]"
        },
        {
          "internalType": "contract IOracle[]",
          "name": "_oracles",
          "type": "address[]"
        }
      ],
      "stateMutability": "nonpayable",
      "type": "constructor"
    },
    {
      "anonymous": false,
      "inputs": [
        {
          "indexed": false,
          "internalType": "address",
          "name": "_adapter",
          "type": "address"
        }
      ],
      "name": "AdapterAdded",
      "type": "event"
    },
    {
      "anonymous": false,
      "inputs": [
        {
          "indexed": false,
          "internalType": "address",
          "name": "_adapter",
          "type": "address"
        }
      ],
      "name": "AdapterRemoved",
      "type": "event"
    },
    {
      "anonymous": false,
      "inputs": [
        {
          "indexed": false,
          "internalType": "address",
          "name": "_newMasterQuote",
          "type": "address"
        }
      ],
      "name": "MasterQuoteAssetEdited",
      "type": "event"
    },
    {
      "anonymous": false,
      "inputs": [
        {
          "indexed": true,
          "internalType": "address",
          "name": "previousOwner",
          "type": "address"
        },
        {
          "indexed": true,
          "internalType": "address",
          "name": "newOwner",
          "type": "address"
        }
      ],
      "name": "OwnershipTransferred",
      "type": "event"
    },
    {
      "anonymous": false,
      "inputs": [
        {
          "indexed": true,
          "internalType": "address",
          "name": "_assetOne",
          "type": "address"
        },
        {
          "indexed": true,
          "internalType": "address",
          "name": "_assetTwo",
          "type": "address"
        },
        {
          "indexed": false,
          "internalType": "address",
          "name": "_oracle",
          "type": "address"
        }
      ],
      "name": "PairAdded",
      "type": "event"
    },
    {
      "anonymous": false,
      "inputs": [
        {
          "indexed": true,
          "internalType": "address",
          "name": "_assetOne",
          "type": "address"
        },
        {
          "indexed": true,
          "internalType": "address",
          "name": "_assetTwo",
          "type": "address"
        },
        {
          "indexed": false,
          "internalType": "address",
          "name": "_newOracle",
          "type": "address"
        }
      ],
      "name": "PairEdited",
      "type": "event"
    },
    {
      "anonymous": false,
      "inputs": [
        {
          "indexed": true,
          "internalType": "address",
          "name": "_assetOne",
          "type": "address"
        },
        {
          "indexed": true,
          "internalType": "address",
          "name": "_assetTwo",
          "type": "address"
        },
        {
          "indexed": false,
          "internalType": "address",
          "name": "_oracle",
          "type": "address"
        }
      ],
      "name": "PairRemoved",
      "type": "event"
    },
    {
      "inputs": [
        {
          "internalType": "uint256",
          "name": "",
          "type": "uint256"
        }
      ],
      "name": "adapters",
      "outputs": [
        {
          "internalType": "address",
          "name": "",
          "type": "address"
        }
      ],
      "stateMutability": "view",
      "type": "function"
    },
    {
      "inputs": [],
      "name": "controller",
      "outputs": [
        {
          "internalType": "contract IController",
          "name": "",
          "type": "address"
        }
      ],
      "stateMutability": "view",
      "type": "function"
    },
    {
      "inputs": [],
      "name": "masterQuoteAsset",
      "outputs": [
        {
          "internalType": "address",
          "name": "",
          "type": "address"
        }
      ],
      "stateMutability": "view",
      "type": "function"
    },
    {
      "inputs": [
        {
          "internalType": "address",
          "name": "",
          "type": "address"
        },
        {
          "internalType": "address",
          "name": "",
          "type": "address"
        }
      ],
      "name": "oracles",
      "outputs": [
        {
          "internalType": "contract IOracle",
          "name": "",
          "type": "address"
        }
      ],
      "stateMutability": "view",
      "type": "function"
    },
    {
      "inputs": [],
      "name": "owner",
      "outputs": [
        {
          "internalType": "address",
          "name": "",
          "type": "address"
        }
      ],
      "stateMutability": "view",
      "type": "function"
    },
    {
      "inputs": [],
      "name": "renounceOwnership",
      "outputs": [],
      "stateMutability": "nonpayable",
      "type": "function"
    },
    {
      "inputs": [
        {
          "internalType": "address",
          "name": "newOwner",
          "type": "address"
        }
      ],
      "name": "transferOwnership",
      "outputs": [],
      "stateMutability": "nonpayable",
      "type": "function"
    },
    {
      "inputs": [
        {
          "internalType": "address",
          "name": "_assetOne",
          "type": "address"
        },
        {
          "internalType": "address",
          "name": "_assetTwo",
          "type": "address"
        }
      ],
      "name": "getPrice",
      "outputs": [
        {
          "internalType": "uint256",
          "name": "",
          "type": "uint256"
        }
      ],
      "stateMutability": "view",
      "type": "function"
    },
    {
      "inputs": [
        {
          "internalType": "address",
          "name": "_assetOne",
          "type": "address"
        },
        {
          "internalType": "address",
          "name": "_assetTwo",
          "type": "address"
        },
        {
          "internalType": "contract IOracle",
          "name": "_oracle",
          "type": "address"
        }
      ],
      "name": "addPair",
      "outputs": [],
      "stateMutability": "nonpayable",
      "type": "function"
    },
    {
      "inputs": [
        {
          "internalType": "address",
          "name": "_assetOne",
          "type": "address"
        },
        {
          "internalType": "address",
          "name": "_assetTwo",
          "type": "address"
        },
        {
          "internalType": "contract IOracle",
          "name": "_oracle",
          "type": "address"
        }
      ],
      "name": "editPair",
      "outputs": [],
      "stateMutability": "nonpayable",
      "type": "function"
    },
    {
      "inputs": [
        {
          "internalType": "address",
          "name": "_assetOne",
          "type": "address"
        },
        {
          "internalType": "address",
          "name": "_assetTwo",
          "type": "address"
        }
      ],
      "name": "removePair",
      "outputs": [],
      "stateMutability": "nonpayable",
      "type": "function"
    },
    {
      "inputs": [
        {
          "internalType": "address",
          "name": "_adapter",
          "type": "address"
        }
      ],
      "name": "addAdapter",
      "outputs": [],
      "stateMutability": "nonpayable",
      "type": "function"
    },
    {
      "inputs": [
        {
          "internalType": "address",
          "name": "_adapter",
          "type": "address"
        }
      ],
      "name": "removeAdapter",
      "outputs": [],
      "stateMutability": "nonpayable",
      "type": "function"
    },
    {
      "inputs": [
        {
          "internalType": "address",
          "name": "_newMasterQuoteAsset",
          "type": "address"
        }
      ],
      "name": "editMasterQuoteAsset",
      "outputs": [],
      "stateMutability": "nonpayable",
      "type": "function"
    },
    {
      "inputs": [],
      "name": "getAdapters",
      "outputs": [
        {
          "internalType": "address[]",
          "name": "",
          "type": "address[]"
        }
      ],
      "stateMutability": "view",
      "type": "function"
    }
  ],
  "bytecode": "0x60806040523480156200001157600080fd5b50604051620034ad380380620034ad833981810160405281019062000037919062000535565b600062000049620002f960201b60201c565b9050806000806101000a81548173ffffffffffffffffffffffffffffffffffffffff021916908373ffffffffffffffffffffffffffffffffffffffff1602179055508073ffffffffffffffffffffffffffffffffffffffff16600073ffffffffffffffffffffffffffffffffffffffff167f8be0079c531659141344cd1fd0a4f28419497f9722a3daafe3b4186f6b6457e060405160405180910390a35085600160006101000a81548173ffffffffffffffffffffffffffffffffffffffff021916908373ffffffffffffffffffffffffffffffffffffffff16021790555084600360006101000a81548173ffffffffffffffffffffffffffffffffffffffff021916908373ffffffffffffffffffffffffffffffffffffffff16021790555083600490805190602001906200018192919062000301565b508151835114801562000195575080518251145b620001d7576040517f08c379a0000000000000000000000000000000000000000000000000000000008152600401620001ce9062000671565b60405180910390fd5b60008090505b8351811015620002ec57818181518110620001f457fe5b6020026020010151600260008684815181106200020d57fe5b602002602001015173ffffffffffffffffffffffffffffffffffffffff1673ffffffffffffffffffffffffffffffffffffffff16815260200190815260200160002060008584815181106200025e57fe5b602002602001015173ffffffffffffffffffffffffffffffffffffffff1673ffffffffffffffffffffffffffffffffffffffff16815260200190815260200160002060006101000a81548173ffffffffffffffffffffffffffffffffffffffff021916908373ffffffffffffffffffffffffffffffffffffffff1602179055508080600101915050620001dd565b50505050505050620007ce565b600033905090565b8280548282559060005260206000209081019282156200037d579160200282015b828111156200037c5782518260006101000a81548173ffffffffffffffffffffffffffffffffffffffff021916908373ffffffffffffffffffffffffffffffffffffffff1602179055509160200191906001019062000322565b5b5090506200038c919062000390565b5090565b620003d391905b80821115620003cf57600081816101000a81549073ffffffffffffffffffffffffffffffffffffffff02191690555060010162000397565b5090565b90565b600081519050620003e78162000780565b92915050565b600082601f830112620003ff57600080fd5b8151620004166200041082620006c1565b62000693565b915081818352602084019350602081019050838560208402820111156200043c57600080fd5b60005b83811015620004705781620004558882620003d6565b8452602084019350602083019250506001810190506200043f565b5050505092915050565b600082601f8301126200048c57600080fd5b8151620004a36200049d82620006ea565b62000693565b91508181835260208401935060208101905083856020840282011115620004c957600080fd5b60005b83811015620004fd5781620004e288826200051e565b845260208401935060208301925050600181019050620004cc565b5050505092915050565b60008151905062000518816200079a565b92915050565b6000815190506200052f81620007b4565b92915050565b60008060008060008060c087890312156200054f57600080fd5b60006200055f89828a0162000507565b96505060206200057289828a01620003d6565b955050604087015167ffffffffffffffff8111156200059057600080fd5b6200059e89828a01620003ed565b945050606087015167ffffffffffffffff811115620005bc57600080fd5b620005ca89828a01620003ed565b935050608087015167ffffffffffffffff811115620005e857600080fd5b620005f689828a01620003ed565b92505060a087015167ffffffffffffffff8111156200061457600080fd5b6200062289828a016200047a565b9150509295509295509295565b60006200063e601b8362000713565b91507f4172726179206c656e6774687320646f206e6f74206d617463682e00000000006000830152602082019050919050565b600060208201905081810360008301526200068c816200062f565b9050919050565b6000604051905081810181811067ffffffffffffffff82111715620006b757600080fd5b8060405250919050565b600067ffffffffffffffff821115620006d957600080fd5b602082029050602081019050919050565b600067ffffffffffffffff8211156200070257600080fd5b602082029050602081019050919050565b600082825260208201905092915050565b6000620007318262000760565b9050919050565b6000620007458262000724565b9050919050565b6000620007598262000724565b9050919050565b600073ffffffffffffffffffffffffffffffffffffffff82169050919050565b6200078b8162000724565b81146200079757600080fd5b50565b620007a58162000738565b8114620007b157600080fd5b50565b620007bf816200074c565b8114620007cb57600080fd5b50565b612ccf80620007de6000396000f3fe608060405234801561001057600080fd5b50600436106100f55760003560e01c806361d5b14411610097578063b82e16e311610066578063b82e16e31461025c578063f1ec23cf1461027a578063f2fde38b14610296578063f77c4791146102b2576100f5565b806361d5b144146101e8578063715018a6146102045780638da5cb5b1461020e578063ac41865a1461022c576100f5565b806352a03c03116100d357806352a03c0314610164578063585cd34b146101945780635861b227146101b057806360d54d41146101cc576100f5565b806304289853146100fa57806334283354146101165780634ef501ac14610134575b600080fd5b610114600480360381019061010f91906121f3565b6102d0565b005b61011e610597565b60405161012b9190612858565b60405180910390f35b61014e600480360381019061014991906122a7565b6105bd565b60405161015b9190612858565b60405180910390f35b61017e600480360381019061017991906121b7565b6105f9565b60405161018b91906128f4565b60405180910390f35b6101ae60048036038101906101a9919061218e565b61063b565b005b6101ca60048036038101906101c591906121b7565b610892565b005b6101e660048036038101906101e1919061218e565b610bde565b005b61020260048036038101906101fd919061218e565b610dea565b005b61020c610efb565b005b610216611050565b6040516102239190612858565b60405180910390f35b610246600480360381019061024191906121b7565b611079565b6040516102539190612ab1565b60405180910390f35b6102646111f5565b60405161027191906128b7565b60405180910390f35b610294600480360381019061028f91906121f3565b611283565b005b6102b060048036038101906102ab919061218e565b611549565b005b6102ba61170d565b6040516102c791906128d9565b60405180910390f35b6102d8611733565b73ffffffffffffffffffffffffffffffffffffffff166000809054906101000a900473ffffffffffffffffffffffffffffffffffffffff1673ffffffffffffffffffffffffffffffffffffffff1614610366576040517f08c379a000000000000000000000000000000000000000000000000000000000815260040161035d90612a51565b60405180910390fd5b600073ffffffffffffffffffffffffffffffffffffffff16600260008573ffffffffffffffffffffffffffffffffffffffff1673ffffffffffffffffffffffffffffffffffffffff16815260200190815260200160002060008473ffffffffffffffffffffffffffffffffffffffff1673ffffffffffffffffffffffffffffffffffffffff16815260200190815260200160002060009054906101000a900473ffffffffffffffffffffffffffffffffffffffff1673ffffffffffffffffffffffffffffffffffffffff161415610472576040517f08c379a000000000000000000000000000000000000000000000000000000000815260040161046990612a71565b60405180910390fd5b80600260008573ffffffffffffffffffffffffffffffffffffffff1673ffffffffffffffffffffffffffffffffffffffff16815260200190815260200160002060008473ffffffffffffffffffffffffffffffffffffffff1673ffffffffffffffffffffffffffffffffffffffff16815260200190815260200160002060006101000a81548173ffffffffffffffffffffffffffffffffffffffff021916908373ffffffffffffffffffffffffffffffffffffffff1602179055508173ffffffffffffffffffffffffffffffffffffffff168373ffffffffffffffffffffffffffffffffffffffff167f31639ce2bfc7c00ec8297cb6df66924b38918a7417c8e6b10eb7dc9f958389108360405161058a9190612858565b60405180910390a3505050565b600360009054906101000a900473ffffffffffffffffffffffffffffffffffffffff1681565b600481815481106105ca57fe5b906000526020600020016000915054906101000a900473ffffffffffffffffffffffffffffffffffffffff1681565b60026020528160005260406000206020528060005260406000206000915091509054906101000a900473ffffffffffffffffffffffffffffffffffffffff1681565b610643611733565b73ffffffffffffffffffffffffffffffffffffffff166000809054906101000a900473ffffffffffffffffffffffffffffffffffffffff1673ffffffffffffffffffffffffffffffffffffffff16146106d1576040517f08c379a00000000000000000000000000000000000000000000000000000000081526004016106c890612a51565b60405180910390fd5b61076a81600480548060200260200160405190810160405280929190818152602001828054801561075757602002820191906000526020600020905b8160009054906101000a900473ffffffffffffffffffffffffffffffffffffffff1673ffffffffffffffffffffffffffffffffffffffff168152602001906001019080831161070d575b505050505061173b90919063ffffffff16565b6107a9576040517f08c379a00000000000000000000000000000000000000000000000000000000081526004016107a090612991565b60405180910390fd5b61084281600480548060200260200160405190810160405280929190818152602001828054801561082f57602002820191906000526020600020905b8160009054906101000a900473ffffffffffffffffffffffffffffffffffffffff1673ffffffffffffffffffffffffffffffffffffffff16815260200190600101908083116107e5575b505050505061175590919063ffffffff16565b60049080519060200190610857929190612058565b507fdf980d21d8c7bb34800e668dbe003299093bac8e693614151d3c57f73f98a93d816040516108879190612858565b60405180910390a150565b61089a611733565b73ffffffffffffffffffffffffffffffffffffffff166000809054906101000a900473ffffffffffffffffffffffffffffffffffffffff1673ffffffffffffffffffffffffffffffffffffffff1614610928576040517f08c379a000000000000000000000000000000000000000000000000000000000815260040161091f90612a51565b60405180910390fd5b600073ffffffffffffffffffffffffffffffffffffffff16600260008473ffffffffffffffffffffffffffffffffffffffff1673ffffffffffffffffffffffffffffffffffffffff16815260200190815260200160002060008373ffffffffffffffffffffffffffffffffffffffff1673ffffffffffffffffffffffffffffffffffffffff16815260200190815260200160002060009054906101000a900473ffffffffffffffffffffffffffffffffffffffff1673ffffffffffffffffffffffffffffffffffffffff161415610a34576040517f08c379a0000000000000000000000000000000000000000000000000000000008152600401610a2b90612a91565b60405180910390fd5b6000600260008473ffffffffffffffffffffffffffffffffffffffff1673ffffffffffffffffffffffffffffffffffffffff16815260200190815260200160002060008373ffffffffffffffffffffffffffffffffffffffff1673ffffffffffffffffffffffffffffffffffffffff16815260200190815260200160002060009054906101000a900473ffffffffffffffffffffffffffffffffffffffff169050600260008473ffffffffffffffffffffffffffffffffffffffff1673ffffffffffffffffffffffffffffffffffffffff16815260200190815260200160002060008373ffffffffffffffffffffffffffffffffffffffff1673ffffffffffffffffffffffffffffffffffffffff16815260200190815260200160002060006101000a81549073ffffffffffffffffffffffffffffffffffffffff02191690558173ffffffffffffffffffffffffffffffffffffffff168373ffffffffffffffffffffffffffffffffffffffff167fd9001d4fd555e50f50619eeca8a260400b5e944989042d0652c5834aa2b9686083604051610bd19190612858565b60405180910390a3505050565b610be6611733565b73ffffffffffffffffffffffffffffffffffffffff166000809054906101000a900473ffffffffffffffffffffffffffffffffffffffff1673ffffffffffffffffffffffffffffffffffffffff1614610c74576040517f08c379a0000000000000000000000000000000000000000000000000000000008152600401610c6b90612a51565b60405180910390fd5b610d0d816004805480602002602001604051908101604052809291908181526020018280548015610cfa57602002820191906000526020600020905b8160009054906101000a900473ffffffffffffffffffffffffffffffffffffffff1673ffffffffffffffffffffffffffffffffffffffff1681526020019060010190808311610cb0575b505050505061173b90919063ffffffff16565b15610d4d576040517f08c379a0000000000000000000000000000000000000000000000000000000008152600401610d44906129f1565b60405180910390fd5b6004819080600181540180825580915050600190039060005260206000200160009091909190916101000a81548173ffffffffffffffffffffffffffffffffffffffff021916908373ffffffffffffffffffffffffffffffffffffffff1602179055507fcf9c2c7f9adbb156bd76affb04df84595f8f5e69cab2e61221b05b05a902fa2681604051610ddf9190612858565b60405180910390a150565b610df2611733565b73ffffffffffffffffffffffffffffffffffffffff166000809054906101000a900473ffffffffffffffffffffffffffffffffffffffff1673ffffffffffffffffffffffffffffffffffffffff1614610e80576040517f08c379a0000000000000000000000000000000000000000000000000000000008152600401610e7790612a51565b60405180910390fd5b80600360006101000a81548173ffffffffffffffffffffffffffffffffffffffff021916908373ffffffffffffffffffffffffffffffffffffffff1602179055507f748818fcd84486bc2804c035b8dec2300489b070a39a4a290d8311cd9791d86781604051610ef09190612858565b60405180910390a150565b610f03611733565b73ffffffffffffffffffffffffffffffffffffffff166000809054906101000a900473ffffffffffffffffffffffffffffffffffffffff1673ffffffffffffffffffffffffffffffffffffffff1614610f91576040517f08c379a0000000000000000000000000000000000000000000000000000000008152600401610f8890612a51565b60405180910390fd5b600073ffffffffffffffffffffffffffffffffffffffff166000809054906101000a900473ffffffffffffffffffffffffffffffffffffffff1673ffffffffffffffffffffffffffffffffffffffff167f8be0079c531659141344cd1fd0a4f28419497f9722a3daafe3b4186f6b6457e060405160405180910390a360008060006101000a81548173ffffffffffffffffffffffffffffffffffffffff021916908373ffffffffffffffffffffffffffffffffffffffff160217905550565b60008060009054906101000a900473ffffffffffffffffffffffffffffffffffffffff16905090565b6000600160009054906101000a900473ffffffffffffffffffffffffffffffffffffffff1673ffffffffffffffffffffffffffffffffffffffff166313bc6d4b336040518263ffffffff1660e01b81526004016110d69190612873565b60206040518083038186803b1580156110ee57600080fd5b505afa158015611102573d6000803e3d6000fd5b505050506040513d601f19601f820116820180604052508101906111269190612242565b611165576040517f08c379a000000000000000000000000000000000000000000000000000000000815260040161115c90612a11565b60405180910390fd5b60008061117285856117c3565b809250819350505081611192576111898585611a35565b80925081935050505b816111aa576111a18585611ae5565b80925081935050505b816111ea576040517f08c379a00000000000000000000000000000000000000000000000000000000081526004016111e1906129b1565b60405180910390fd5b809250505092915050565b6060600480548060200260200160405190810160405280929190818152602001828054801561127957602002820191906000526020600020905b8160009054906101000a900473ffffffffffffffffffffffffffffffffffffffff1673ffffffffffffffffffffffffffffffffffffffff168152602001906001019080831161122f575b5050505050905090565b61128b611733565b73ffffffffffffffffffffffffffffffffffffffff166000809054906101000a900473ffffffffffffffffffffffffffffffffffffffff1673ffffffffffffffffffffffffffffffffffffffff1614611319576040517f08c379a000000000000000000000000000000000000000000000000000000000815260040161131090612a51565b60405180910390fd5b600073ffffffffffffffffffffffffffffffffffffffff16600260008573ffffffffffffffffffffffffffffffffffffffff1673ffffffffffffffffffffffffffffffffffffffff16815260200190815260200160002060008473ffffffffffffffffffffffffffffffffffffffff1673ffffffffffffffffffffffffffffffffffffffff16815260200190815260200160002060009054906101000a900473ffffffffffffffffffffffffffffffffffffffff1673ffffffffffffffffffffffffffffffffffffffff1614611424576040517f08c379a000000000000000000000000000000000000000000000000000000000815260040161141b906129d1565b60405180910390fd5b80600260008573ffffffffffffffffffffffffffffffffffffffff1673ffffffffffffffffffffffffffffffffffffffff16815260200190815260200160002060008473ffffffffffffffffffffffffffffffffffffffff1673ffffffffffffffffffffffffffffffffffffffff16815260200190815260200160002060006101000a81548173ffffffffffffffffffffffffffffffffffffffff021916908373ffffffffffffffffffffffffffffffffffffffff1602179055508173ffffffffffffffffffffffffffffffffffffffff168373ffffffffffffffffffffffffffffffffffffffff167f7f46075c67ca5bbd3aaf82d8e324282141f27b7cba3376e5498a6b70c9931c2a8360405161153c9190612858565b60405180910390a3505050565b611551611733565b73ffffffffffffffffffffffffffffffffffffffff166000809054906101000a900473ffffffffffffffffffffffffffffffffffffffff1673ffffffffffffffffffffffffffffffffffffffff16146115df576040517f08c379a00000000000000000000000000000000000000000000000000000000081526004016115d690612a51565b60405180910390fd5b600073ffffffffffffffffffffffffffffffffffffffff168173ffffffffffffffffffffffffffffffffffffffff16141561164f576040517f08c379a000000000000000000000000000000000000000000000000000000000815260040161164690612971565b60405180910390fd5b8073ffffffffffffffffffffffffffffffffffffffff166000809054906101000a900473ffffffffffffffffffffffffffffffffffffffff1673ffffffffffffffffffffffffffffffffffffffff167f8be0079c531659141344cd1fd0a4f28419497f9722a3daafe3b4186f6b6457e060405160405180910390a3806000806101000a81548173ffffffffffffffffffffffffffffffffffffffff021916908373ffffffffffffffffffffffffffffffffffffffff16021790555050565b600160009054906101000a900473ffffffffffffffffffffffffffffffffffffffff1681565b600033905090565b6000806117488484611bf9565b9150508091505092915050565b60606000806117648585611bf9565b91509150806117a8576040517f08c379a000000000000000000000000000000000000000000000000000000000815260040161179f90612931565b60405180910390fd5b60606117b48684611ca3565b50905080935050505092915050565b6000806000600260008673ffffffffffffffffffffffffffffffffffffffff1673ffffffffffffffffffffffffffffffffffffffff16815260200190815260200160002060008573ffffffffffffffffffffffffffffffffffffffff1673ffffffffffffffffffffffffffffffffffffffff16815260200190815260200160002060009054906101000a900473ffffffffffffffffffffffffffffffffffffffff16905060008073ffffffffffffffffffffffffffffffffffffffff168273ffffffffffffffffffffffffffffffffffffffff1614159050801561192c5760018273ffffffffffffffffffffffffffffffffffffffff166357de26a46040518163ffffffff1660e01b815260040160206040518083038186803b1580156118e957600080fd5b505afa1580156118fd573d6000803e3d6000fd5b505050506040513d601f19601f8201168201806040525081019061192191906122d0565b935093505050611a2e565b6000600260008773ffffffffffffffffffffffffffffffffffffffff1673ffffffffffffffffffffffffffffffffffffffff16815260200190815260200160002060008873ffffffffffffffffffffffffffffffffffffffff1673ffffffffffffffffffffffffffffffffffffffff16815260200190815260200160002060009054906101000a900473ffffffffffffffffffffffffffffffffffffffff16905060008073ffffffffffffffffffffffffffffffffffffffff168273ffffffffffffffffffffffffffffffffffffffff16141590508015611a1f576001611a1283611e51565b9550955050505050611a2e565b60008080905095509550505050505b9250929050565b600080600080611a6786600360009054906101000a900473ffffffffffffffffffffffffffffffffffffffff166117c3565b91509150600080611a9a87600360009054906101000a900473ffffffffffffffffffffffffffffffffffffffff166117c3565b91509150838015611aa85750815b15611acf576001611ac28285611ef690919063ffffffff16565b9550955050505050611ade565b60008080905095509550505050505b9250929050565b60008060008090505b600480549050811015611be65760008060048381548110611b0b57fe5b9060005260206000200160009054906101000a900473ffffffffffffffffffffffffffffffffffffffff1673ffffffffffffffffffffffffffffffffffffffff1663ac41865a88886040518363ffffffff1660e01b8152600401611b7092919061288e565b604080518083038186803b158015611b8757600080fd5b505afa158015611b9b573d6000803e3d6000fd5b505050506040513d601f19601f82011682018060405250810190611bbf919061226b565b915091508115611bd757818194509450505050611bf2565b50508080600101915050611aee565b50600080809050915091505b9250929050565b60008060008451905060008090505b81811015611c72578473ffffffffffffffffffffffffffffffffffffffff16868281518110611c3357fe5b602002602001015173ffffffffffffffffffffffffffffffffffffffff161415611c6557806001935093505050611c9c565b8080600101915050611c08565b507fffffffffffffffffffffffffffffffffffffffffffffffffffffffffffffffff600092509250505b9250929050565b60606000808451905084518410611cef576040517f08c379a0000000000000000000000000000000000000000000000000000000008152600401611ce690612951565b60405180910390fd5b60606001820367ffffffffffffffff81118015611d0b57600080fd5b50604051908082528060200260200182016040528015611d3a5781602001602082028036833780820191505090505b50905060008090505b85811015611db257868181518110611d5757fe5b6020026020010151828281518110611d6b57fe5b602002602001019073ffffffffffffffffffffffffffffffffffffffff16908173ffffffffffffffffffffffffffffffffffffffff16815250508080600101915050611d43565b5060006001860190505b82811015611e2e57868181518110611dd057fe5b6020026020010151826001830381518110611de757fe5b602002602001019073ffffffffffffffffffffffffffffffffffffffff16908173ffffffffffffffffffffffffffffffffffffffff16815250508080600101915050611dbc565b5080868681518110611e3c57fe5b60200260200101519350935050509250929050565b6000808273ffffffffffffffffffffffffffffffffffffffff166357de26a46040518163ffffffff1660e01b815260040160206040518083038186803b158015611e9a57600080fd5b505afa158015611eae573d6000803e3d6000fd5b505050506040513d601f19601f82011682018060405250810190611ed291906122d0565b9050611eee81611ee0611f2d565b611ef690919063ffffffff16565b915050919050565b6000611f2582611f17670de0b6b3a764000086611f3d90919063ffffffff16565b611fad90919063ffffffff16565b905092915050565b6000670de0b6b3a7640000905090565b600080831415611f505760009050611fa7565b6000828402905082848281611f6157fe5b0414611fa2576040517f08c379a0000000000000000000000000000000000000000000000000000000008152600401611f9990612a31565b60405180910390fd5b809150505b92915050565b6000611fef83836040518060400160405280601a81526020017f536166654d6174683a206469766973696f6e206279207a65726f000000000000815250611ff7565b905092915050565b6000808311829061203e576040517f08c379a0000000000000000000000000000000000000000000000000000000008152600401612035919061290f565b60405180910390fd5b50600083858161204a57fe5b049050809150509392505050565b8280548282559060005260206000209081019282156120d1579160200282015b828111156120d05782518260006101000a81548173ffffffffffffffffffffffffffffffffffffffff021916908373ffffffffffffffffffffffffffffffffffffffff16021790555091602001919060010190612078565b5b5090506120de91906120e2565b5090565b61212291905b8082111561211e57600081816101000a81549073ffffffffffffffffffffffffffffffffffffffff0219169055506001016120e8565b5090565b90565b60008135905061213481612c3d565b92915050565b60008151905061214981612c54565b92915050565b60008135905061215e81612c6b565b92915050565b60008135905061217381612c82565b92915050565b60008151905061218881612c82565b92915050565b6000602082840312156121a057600080fd5b60006121ae84828501612125565b91505092915050565b600080604083850312156121ca57600080fd5b60006121d885828601612125565b92505060206121e985828601612125565b9150509250929050565b60008060006060848603121561220857600080fd5b600061221686828701612125565b935050602061222786828701612125565b92505060406122388682870161214f565b9150509250925092565b60006020828403121561225457600080fd5b60006122628482850161213a565b91505092915050565b6000806040838503121561227e57600080fd5b600061228c8582860161213a565b925050602061229d85828601612179565b9150509250929050565b6000602082840312156122b957600080fd5b60006122c784828501612164565b91505092915050565b6000602082840312156122e257600080fd5b60006122f084828501612179565b91505092915050565b60006123058383612320565b60208301905092915050565b61231a81612b7b565b82525050565b61232981612b21565b82525050565b61233881612b21565b82525050565b600061234982612adc565b6123538185612aff565b935061235e83612acc565b8060005b8381101561238f57815161237688826122f9565b975061238183612af2565b925050600181019050612362565b5085935050505092915050565b6123a581612b8d565b82525050565b6123b481612bb1565b82525050565b60006123c582612ae7565b6123cf8185612b10565b93506123df818560208601612bf9565b6123e881612c2c565b840191505092915050565b6000612400601583612b10565b91507f41646472657373206e6f7420696e2061727261792e00000000000000000000006000830152602082019050919050565b6000612440601883612b10565b91507f496e646578206d757374206265203c2041206c656e67746800000000000000006000830152602082019050919050565b6000612480602683612b10565b91507f4f776e61626c653a206e6577206f776e657220697320746865207a65726f206160008301527f64647265737300000000000000000000000000000000000000000000000000006020830152604082019050919050565b60006124e6603283612b10565b91507f50726963654f7261636c652e72656d6f7665416461707465723a20416461707460008301527f657220646f6573206e6f742065786973742e00000000000000000000000000006020830152604082019050919050565b600061254c602683612b10565b91507f50726963654f7261636c652e67657450726963653a205072696365206e6f742060008301527f666f756e642e00000000000000000000000000000000000000000000000000006020830152604082019050919050565b60006125b2602983612b10565b91507f50726963654f7261636c652e616464506169723a205061697220616c7265616460008301527f79206578697374732e00000000000000000000000000000000000000000000006020830152604082019050919050565b6000612618602f83612b10565b91507f50726963654f7261636c652e616464416461707465723a20416461707465722060008301527f616c7265616479206578697374732e00000000000000000000000000000000006020830152604082019050919050565b600061267e603583612b10565b91507f50726963654f7261636c652e67657450726963653a2043616c6c6572206d757360008301527f742062652073797374656d20636f6e74726163742e00000000000000000000006020830152604082019050919050565b60006126e4602183612b10565b91507f536166654d6174683a206d756c7469706c69636174696f6e206f766572666c6f60008301527f77000000000000000000000000000000000000000000000000000000000000006020830152604082019050919050565b600061274a602083612b10565b91507f4f776e61626c653a2063616c6c6572206973206e6f7420746865206f776e65726000830152602082019050919050565b600061278a602983612b10565b91507f50726963654f7261636c652e65646974506169723a205061697220646f65736e60008301527f27742065786973742e00000000000000000000000000000000000000000000006020830152604082019050919050565b60006127f0602b83612b10565b91507f50726963654f7261636c652e72656d6f7665506169723a205061697220646f6560008301527f736e27742065786973742e0000000000000000000000000000000000000000006020830152604082019050919050565b61285281612b71565b82525050565b600060208201905061286d600083018461232f565b92915050565b60006020820190506128886000830184612311565b92915050565b60006040820190506128a3600083018561232f565b6128b0602083018461232f565b9392505050565b600060208201905081810360008301526128d1818461233e565b905092915050565b60006020820190506128ee600083018461239c565b92915050565b600060208201905061290960008301846123ab565b92915050565b6000602082019050818103600083015261292981846123ba565b905092915050565b6000602082019050818103600083015261294a816123f3565b9050919050565b6000602082019050818103600083015261296a81612433565b9050919050565b6000602082019050818103600083015261298a81612473565b9050919050565b600060208201905081810360008301526129aa816124d9565b9050919050565b600060208201905081810360008301526129ca8161253f565b9050919050565b600060208201905081810360008301526129ea816125a5565b9050919050565b60006020820190508181036000830152612a0a8161260b565b9050919050565b60006020820190508181036000830152612a2a81612671565b9050919050565b60006020820190508181036000830152612a4a816126d7565b9050919050565b60006020820190508181036000830152612a6a8161273d565b9050919050565b60006020820190508181036000830152612a8a8161277d565b9050919050565b60006020820190508181036000830152612aaa816127e3565b9050919050565b6000602082019050612ac66000830184612849565b92915050565b6000819050602082019050919050565b600081519050919050565b600081519050919050565b6000602082019050919050565b600082825260208201905092915050565b600082825260208201905092915050565b6000612b2c82612b51565b9050919050565b60008115159050919050565b6000612b4a82612b21565b9050919050565b600073ffffffffffffffffffffffffffffffffffffffff82169050919050565b6000819050919050565b6000612b8682612bd5565b9050919050565b6000612b9882612b9f565b9050919050565b6000612baa82612b51565b9050919050565b6000612bbc82612bc3565b9050919050565b6000612bce82612b51565b9050919050565b6000612be082612be7565b9050919050565b6000612bf282612b51565b9050919050565b60005b83811015612c17578082015181840152602081019050612bfc565b83811115612c26576000848401525b50505050565b6000601f19601f8301169050919050565b612c4681612b21565b8114612c5157600080fd5b50565b612c5d81612b33565b8114612c6857600080fd5b50565b612c7481612b3f565b8114612c7f57600080fd5b50565b612c8b81612b71565b8114612c9657600080fd5b5056fea2646970667358221220bd60edf3d59ed6804666fa3c42b2cf589f576db191b648ea9a99fccdb559c76b64736f6c634300060a0033",
  "immutableReferences": {},
  "source": "/*\n    Copyright 2020 Set Labs Inc.\n\n    Licensed under the Apache License, Version 2.0 (the \"License\");\n    you may not use this file except in compliance with the License.\n    You may obtain a copy of the License at\n\n    http://www.apache.org/licenses/LICENSE-2.0\n\n    Unless required by applicable law or agreed to in writing, software\n    distributed under the License is distributed on an \"AS IS\" BASIS,\n    WITHOUT WARRANTIES OR CONDITIONS OF ANY KIND, either express or implied.\n    See the License for the specific language governing permissions and\n    limitations under the License.\n\n    SPDX-License-Identifier: Apache License, Version 2.0\n*/\n\npragma solidity 0.6.10;\npragma experimental \"ABIEncoderV2\";\n\nimport { Ownable } from \"@openzeppelin/contracts/access/Ownable.sol\";\n\nimport { AddressArrayUtils } from \"../lib/AddressArrayUtils.sol\";\nimport { IController } from \"../interfaces/IController.sol\";\nimport { IOracle } from \"../interfaces/IOracle.sol\";\nimport { IOracleAdapter } from \"../interfaces/IOracleAdapter.sol\";\nimport { PreciseUnitMath } from \"../lib/PreciseUnitMath.sol\";\n\n\n/**\n * @title PriceOracle\n * @author Set Protocol\n *\n * Contract that returns the price for any given asset pair. Price is retrieved either directly from an oracle,\n * calculated using common asset pairs, or uses external data to calculate price.\n * Note: Prices are returned in preciseUnits (i.e. 18 decimals of precision)\n */\ncontract PriceOracle is Ownable {\n    using PreciseUnitMath for uint256;\n    using AddressArrayUtils for address[];\n\n    /* ============ Events ============ */\n\n    event PairAdded(address indexed _assetOne, address indexed _assetTwo, address _oracle);\n    event PairRemoved(address indexed _assetOne, address indexed _assetTwo, address _oracle);\n    event PairEdited(address indexed _assetOne, address indexed _assetTwo, address _newOracle);\n    event AdapterAdded(address _adapter);\n    event AdapterRemoved(address _adapter);\n    event MasterQuoteAssetEdited(address _newMasterQuote);\n\n    /* ============ State Variables ============ */\n\n    // Address of the Controller contract\n    IController public controller;\n\n    // Mapping between assetA/assetB and its associated Price Oracle\n    // Asset 1 -> Asset 2 -> IOracle Interface\n    mapping(address => mapping(address => IOracle)) public oracles;\n\n    // Token address of the bridge asset that prices are derived from if the specified pair price is missing\n    address public masterQuoteAsset;\n\n    // List of IOracleAdapters used to return prices of third party protocols (e.g. Uniswap, Compound, Balancer)\n    address[] public adapters;\n\n    /* ============ Constructor ============ */\n\n    /**\n     * Set state variables and map asset pairs to their oracles\n     *\n     * @param _controller             Address of controller contract\n     * @param _masterQuoteAsset       Address of asset that can be used to link unrelated asset pairs\n     * @param _adapters               List of adapters used to price assets created by other protocols\n     * @param _assetOnes              List of first asset in pair, index i maps to same index in assetTwos and oracles\n     * @param _assetTwos              List of second asset in pair, index i maps to same index in assetOnes and oracles\n     * @param _oracles                List of oracles, index i maps to same index in assetOnes and assetTwos\n     */\n    constructor(\n        IController _controller,\n        address _masterQuoteAsset,\n        address[] memory _adapters,\n        address[] memory _assetOnes,\n        address[] memory _assetTwos,\n        IOracle[] memory _oracles\n    )\n        public\n    {\n        controller = _controller;\n        masterQuoteAsset = _masterQuoteAsset;\n        adapters = _adapters;\n        require(\n            _assetOnes.length == _assetTwos.length && _assetTwos.length == _oracles.length,\n            \"Array lengths do not match.\"\n        );\n\n        for (uint256 i = 0; i < _assetOnes.length; i++) {\n            oracles[_assetOnes[i]][_assetTwos[i]] = _oracles[i];\n        }\n    }\n\n    /* ============ External Functions ============ */\n\n    /**\n     * SYSTEM-ONLY PRIVELEGE: Find price of passed asset pair, if possible. The steps it takes are:\n     *  1) Check to see if a direct or inverse oracle of the pair exists,\n     *  2) If not, use masterQuoteAsset to link pairs together (i.e. BTC/ETH and ETH/USDC\n     *     could be used to calculate BTC/USDC).\n     *  3) If not, check oracle adapters in case one or more of the assets needs external protocol data\n     *     to price.\n     *  4) If all steps fail, revert.\n     *\n     * @param _assetOne         Address of first asset in pair\n     * @param _assetTwo         Address of second asset in pair\n     * @return                  Price of asset pair to 18 decimals of precision\n     */\n    function getPrice(address _assetOne, address _assetTwo) external view returns (uint256) {\n        require(\n            controller.isSystemContract(msg.sender),\n            \"PriceOracle.getPrice: Caller must be system contract.\"\n        );\n\n        bool priceFound;\n        uint256 price;\n\n        (priceFound, price) = _getDirectOrInversePrice(_assetOne, _assetTwo);\n\n        if (!priceFound) {\n            (priceFound, price) = _getPriceFromMasterQuote(_assetOne, _assetTwo);\n        }\n\n        if (!priceFound) {\n            (priceFound, price) = _getPriceFromAdapters(_assetOne, _assetTwo);\n        }\n\n        require(priceFound, \"PriceOracle.getPrice: Price not found.\");\n\n        return price;\n    }\n\n    /**\n     * GOVERNANCE FUNCTION: Add new asset pair oracle.\n     *\n     * @param _assetOne         Address of first asset in pair\n     * @param _assetTwo         Address of second asset in pair\n     * @param _oracle           Address of asset pair's oracle\n     */\n    function addPair(address _assetOne, address _assetTwo, IOracle _oracle) external onlyOwner {\n        require(\n            address(oracles[_assetOne][_assetTwo]) == address(0),\n            \"PriceOracle.addPair: Pair already exists.\"\n        );\n        oracles[_assetOne][_assetTwo] = _oracle;\n\n        emit PairAdded(_assetOne, _assetTwo, address(_oracle));\n    }\n\n    /**\n     * GOVERNANCE FUNCTION: Edit an existing asset pair's oracle.\n     *\n     * @param _assetOne         Address of first asset in pair\n     * @param _assetTwo         Address of second asset in pair\n     * @param _oracle           Address of asset pair's new oracle\n     */\n    function editPair(address _assetOne, address _assetTwo, IOracle _oracle) external onlyOwner {\n        require(\n            address(oracles[_assetOne][_assetTwo]) != address(0),\n            \"PriceOracle.editPair: Pair doesn't exist.\"\n        );\n        oracles[_assetOne][_assetTwo] = _oracle;\n\n        emit PairEdited(_assetOne, _assetTwo, address(_oracle));\n    }\n\n    /**\n     * GOVERNANCE FUNCTION: Remove asset pair's oracle.\n     *\n     * @param _assetOne         Address of first asset in pair\n     * @param _assetTwo         Address of second asset in pair\n     */\n    function removePair(address _assetOne, address _assetTwo) external onlyOwner {\n        require(\n            address(oracles[_assetOne][_assetTwo]) != address(0),\n            \"PriceOracle.removePair: Pair doesn't exist.\"\n        );\n        IOracle oldOracle = oracles[_assetOne][_assetTwo];\n        delete oracles[_assetOne][_assetTwo];\n\n        emit PairRemoved(_assetOne, _assetTwo, address(oldOracle));\n    }\n\n    /**\n     * GOVERNANCE FUNCTION: Add new oracle adapter.\n     *\n     * @param _adapter         Address of new adapter\n     */\n    function addAdapter(address _adapter) external onlyOwner {\n        require(\n            !adapters.contains(_adapter),\n            \"PriceOracle.addAdapter: Adapter already exists.\"\n        );\n        adapters.push(_adapter);\n\n        emit AdapterAdded(_adapter);\n    }\n\n    /**\n     * GOVERNANCE FUNCTION: Remove oracle adapter.\n     *\n     * @param _adapter         Address of adapter to remove\n     */\n    function removeAdapter(address _adapter) external onlyOwner {\n        require(\n            adapters.contains(_adapter),\n            \"PriceOracle.removeAdapter: Adapter does not exist.\"\n        );\n        adapters = adapters.remove(_adapter);\n\n        emit AdapterRemoved(_adapter);\n    }\n\n    /**\n     * GOVERNANCE FUNCTION: Change the master quote asset.\n     *\n     * @param _newMasterQuoteAsset         New address of master quote asset\n     */\n    function editMasterQuoteAsset(address _newMasterQuoteAsset) external onlyOwner {\n        masterQuoteAsset = _newMasterQuoteAsset;\n\n        emit MasterQuoteAssetEdited(_newMasterQuoteAsset);\n    }\n\n    /* ============ External View Functions ============ */\n\n    /**\n     * Returns an array of adapters\n     */\n    function getAdapters() external view returns (address[] memory) {\n        return adapters;\n    }\n\n    /* ============ Internal Functions ============ */\n\n    /**\n     * Check if direct or inverse oracle exists. If so return that price along with boolean indicating\n     * it exists. Otherwise return boolean indicating oracle doesn't exist.\n     *\n     * @param _assetOne         Address of first asset in pair\n     * @param _assetTwo         Address of second asset in pair\n     * @return bool             Boolean indicating if oracle exists\n     * @return uint256          Price of asset pair to 18 decimal precision (if exists, otherwise 0)\n     */\n    function _getDirectOrInversePrice(\n        address _assetOne,\n        address _assetTwo\n    )\n        internal\n        view\n        returns (bool, uint256)\n    {\n        IOracle directOracle = oracles[_assetOne][_assetTwo];\n        bool hasDirectOracle = address(directOracle) != address(0);\n\n        // Check asset1 -> asset 2. If exists, then return value\n        if (hasDirectOracle) {\n            return (true, directOracle.read());\n        }\n\n        IOracle inverseOracle = oracles[_assetTwo][_assetOne];\n        bool hasInverseOracle = address(inverseOracle) != address(0);\n\n        // If not, check asset 2 -> asset 1. If exists, then return 1 / asset1 -> asset2\n        if (hasInverseOracle) {\n            return (true, _calculateInversePrice(inverseOracle));\n        }\n\n        return (false, 0);\n    }\n\n    /**\n     * Try to calculate asset pair price by getting each asset in the pair's price relative to master\n     * quote asset. Both prices must exist otherwise function returns false and no price.\n     *\n     * @param _assetOne         Address of first asset in pair\n     * @param _assetTwo         Address of second asset in pair\n     * @return bool             Boolean indicating if oracle exists\n     * @return uint256          Price of asset pair to 18 decimal precision (if exists, otherwise 0)\n     */\n    function _getPriceFromMasterQuote(\n        address _assetOne,\n        address _assetTwo\n    )\n        internal\n        view\n        returns (bool, uint256)\n    {\n        (\n            bool priceFoundOne,\n            uint256 assetOnePrice\n        ) = _getDirectOrInversePrice(_assetOne, masterQuoteAsset);\n\n        (\n            bool priceFoundTwo,\n            uint256 assetTwoPrice\n        ) = _getDirectOrInversePrice(_assetTwo, masterQuoteAsset);\n\n        if (priceFoundOne && priceFoundTwo) {\n            return (true, assetOnePrice.preciseDiv(assetTwoPrice));\n        }\n\n        return (false, 0);\n    }\n\n    /**\n     * Scan adapters to see if one or more of the assets needs external protocol data to be priced. If\n     * does not exist return false and no price.\n     *\n     * @param _assetOne         Address of first asset in pair\n     * @param _assetTwo         Address of second asset in pair\n     * @return bool             Boolean indicating if oracle exists\n     * @return uint256          Price of asset pair to 18 decimal precision (if exists, otherwise 0)\n     */\n    function _getPriceFromAdapters(\n        address _assetOne,\n        address _assetTwo\n    )\n        internal\n        view\n        returns (bool, uint256)\n    {\n        for (uint256 i = 0; i < adapters.length; i++) {\n            (\n                bool priceFound,\n                uint256 price\n            ) = IOracleAdapter(adapters[i]).getPrice(_assetOne, _assetTwo);\n\n            if (priceFound) {\n                return (priceFound, price);\n            }\n        }\n\n        return (false, 0);\n    }\n\n    /**\n     * Calculate inverse price of passed oracle. The inverse price is 1 (or 1e18) / inverse price\n     *\n     * @param _inverseOracle        Address of oracle to invert\n     * @return uint256              Inverted price of asset pair to 18 decimal precision\n     */\n    function _calculateInversePrice(IOracle _inverseOracle) internal view returns(uint256) {\n        uint256 inverseValue = _inverseOracle.read();\n\n        return PreciseUnitMath.preciseUnit().preciseDiv(inverseValue);\n    }\n}\n",
  "sourcePath": "/Users/tahadhailey/Documents/top5/top5swap/swap/contracts/protocol/PriceOracle.sol",
  "compiler": {
    "name": "solc",
    "version": "0.6.10+commit.00c0fcaf.Emscripten.clang"
  },
  "schemaVersion": "3.2.1",
  "updatedAt": "2021-01-21T08:20:37.661Z",
  "devdoc": {
    "author": "Set Protocol Contract that returns the price for any given asset pair. Price is retrieved either directly from an oracle, calculated using common asset pairs, or uses external data to calculate price. Note: Prices are returned in preciseUnits (i.e. 18 decimals of precision)",
    "methods": {
      "addAdapter(address)": {
        "params": {
          "_adapter": "Address of new adapter"
        }
      },
      "addPair(address,address,address)": {
        "params": {
          "_assetOne": "Address of first asset in pair",
          "_assetTwo": "Address of second asset in pair",
          "_oracle": "Address of asset pair's oracle"
        }
      },
      "constructor": {
        "params": {
          "_adapters": "List of adapters used to price assets created by other protocols",
          "_assetOnes": "List of first asset in pair, index i maps to same index in assetTwos and oracles",
          "_assetTwos": "List of second asset in pair, index i maps to same index in assetOnes and oracles",
          "_controller": "Address of controller contract",
          "_masterQuoteAsset": "Address of asset that can be used to link unrelated asset pairs",
          "_oracles": "List of oracles, index i maps to same index in assetOnes and assetTwos"
        }
      },
      "editMasterQuoteAsset(address)": {
        "params": {
          "_newMasterQuoteAsset": "New address of master quote asset"
        }
      },
      "editPair(address,address,address)": {
        "params": {
          "_assetOne": "Address of first asset in pair",
          "_assetTwo": "Address of second asset in pair",
          "_oracle": "Address of asset pair's new oracle"
        }
      },
      "getPrice(address,address)": {
        "params": {
          "_assetOne": "Address of first asset in pair",
          "_assetTwo": "Address of second asset in pair"
        },
        "returns": {
          "_0": "Price of asset pair to 18 decimals of precision"
        }
      },
      "owner()": {
        "details": "Returns the address of the current owner."
      },
      "removeAdapter(address)": {
        "params": {
          "_adapter": "Address of adapter to remove"
        }
      },
      "removePair(address,address)": {
        "params": {
          "_assetOne": "Address of first asset in pair",
          "_assetTwo": "Address of second asset in pair"
        }
      },
      "renounceOwnership()": {
        "details": "Leaves the contract without owner. It will not be possible to call `onlyOwner` functions anymore. Can only be called by the current owner. NOTE: Renouncing ownership will leave the contract without an owner, thereby removing any functionality that is only available to the owner."
      },
      "transferOwnership(address)": {
        "details": "Transfers ownership of the contract to a new account (`newOwner`). Can only be called by the current owner."
      }
    },
    "title": "PriceOracle"
  },
  "userdoc": {
    "methods": {
      "addAdapter(address)": {
        "notice": "GOVERNANCE FUNCTION: Add new oracle adapter."
      },
      "addPair(address,address,address)": {
        "notice": "GOVERNANCE FUNCTION: Add new asset pair oracle."
      },
      "constructor": "Set state variables and map asset pairs to their oracles",
      "editMasterQuoteAsset(address)": {
        "notice": "GOVERNANCE FUNCTION: Change the master quote asset."
      },
      "editPair(address,address,address)": {
        "notice": "GOVERNANCE FUNCTION: Edit an existing asset pair's oracle."
      },
      "getAdapters()": {
        "notice": "Returns an array of adapters"
      },
      "getPrice(address,address)": {
        "notice": "SYSTEM-ONLY PRIVELEGE: Find price of passed asset pair, if possible. The steps it takes are:  1) Check to see if a direct or inverse oracle of the pair exists,  2) If not, use masterQuoteAsset to link pairs together (i.e. BTC/ETH and ETH/USDC     could be used to calculate BTC/USDC).  3) If not, check oracle adapters in case one or more of the assets needs external protocol data     to price.  4) If all steps fail, revert."
      },
      "removeAdapter(address)": {
        "notice": "GOVERNANCE FUNCTION: Remove oracle adapter."
      },
      "removePair(address,address)": {
        "notice": "GOVERNANCE FUNCTION: Remove asset pair's oracle."
      }
    }
  }
}