{
  "contractName": "ProtocolViewer",
  "abi": [
    {
      "inputs": [],
      "stateMutability": "nonpayable",
      "type": "constructor"
    },
    {
      "inputs": [
        {
          "internalType": "contract ISetToken[]",
          "name": "_setTokens",
          "type": "address[]"
        }
      ],
      "name": "batchFetchManagers",
      "outputs": [
        {
          "internalType": "address[]",
          "name": "",
          "type": "address[]"
        }
      ],
      "stateMutability": "view",
      "type": "function"
    },
    {
      "inputs": [
        {
          "internalType": "contract ISetToken[]",
          "name": "_setTokens",
          "type": "address[]"
        },
        {
          "internalType": "address[]",
          "name": "_modules",
          "type": "address[]"
        }
      ],
      "name": "batchFetchModuleStates",
      "outputs": [
        {
          "internalType": "enum ISetToken.ModuleState[][]",
          "name": "",
          "type": "uint8[][]"
        }
      ],
      "stateMutability": "view",
      "type": "function"
    },
    {
      "inputs": [
        {
          "internalType": "contract IStreamingFeeModule",
          "name": "_streamingFeeModule",
          "type": "address"
        },
        {
          "internalType": "contract ISetToken[]",
          "name": "_setTokens",
          "type": "address[]"
        }
      ],
      "name": "batchFetchStreamingFeeInfo",
      "outputs": [
        {
          "components": [
            {
              "internalType": "address",
              "name": "feeRecipient",
              "type": "address"
            },
            {
              "internalType": "uint256",
              "name": "streamingFeePercentage",
              "type": "uint256"
            },
            {
              "internalType": "uint256",
              "name": "unaccruedFees",
              "type": "uint256"
            }
          ],
          "internalType": "struct StreamingFeeModuleViewer.StreamingFeeInfo[]",
          "name": "",
          "type": "tuple[]"
        }
      ],
      "stateMutability": "view",
      "type": "function"
    },
    {
      "inputs": [
        {
          "internalType": "contract ISetToken",
          "name": "_setToken",
          "type": "address"
        },
        {
          "internalType": "address[]",
          "name": "_moduleList",
          "type": "address[]"
        }
      ],
      "name": "getSetDetails",
      "outputs": [
        {
          "components": [
            {
              "internalType": "string",
              "name": "name",
              "type": "string"
            },
            {
              "internalType": "string",
              "name": "symbol",
              "type": "string"
            },
            {
              "internalType": "address",
              "name": "manager",
              "type": "address"
            },
            {
              "internalType": "address[]",
              "name": "modules",
              "type": "address[]"
            },
            {
              "internalType": "enum ISetToken.ModuleState[]",
              "name": "moduleStatuses",
              "type": "uint8[]"
            },
            {
              "components": [
                {
                  "internalType": "address",
                  "name": "component",
                  "type": "address"
                },
                {
                  "internalType": "address",
                  "name": "module",
                  "type": "address"
                },
                {
                  "internalType": "int256",
                  "name": "unit",
                  "type": "int256"
                },
                {
                  "internalType": "uint8",
                  "name": "positionState",
                  "type": "uint8"
                },
                {
                  "internalType": "bytes",
                  "name": "data",
                  "type": "bytes"
                }
              ],
              "internalType": "struct ISetToken.Position[]",
              "name": "positions",
              "type": "tuple[]"
            },
            {
              "internalType": "uint256",
              "name": "totalSupply",
              "type": "uint256"
            }
          ],
          "internalType": "struct SetTokenViewer.SetDetails",
          "name": "",
          "type": "tuple"
        }
      ],
      "stateMutability": "view",
      "type": "function"
    }
  ],
  "bytecode": "0x608060405234801561001057600080fd5b50611c69806100206000396000f3fe608060405234801561001057600080fd5b506004361061004c5760003560e01c80631453a29914610051578063429d506f14610081578063c094686e146100b1578063e7aed7ab146100e1575b600080fd5b61006b60048036038101906100669190610ff0565b610111565b6040516100789190611782565b60405180910390f35b61009b6004803603810190610096919061113a565b61025b565b6040516100a891906117c6565b60405180910390f35b6100cb60048036038101906100c691906110e2565b610472565b6040516100d89190611803565b60405180910390f35b6100fb60048036038101906100f69190611031565b610881565b60405161010891906117a4565b60405180910390f35b606080825167ffffffffffffffff8111801561012c57600080fd5b5060405190808252806020026020018201604052801561015b5781602001602082028036833780820191505090505b50905060008090505b83518110156102515783818151811061017957fe5b602002602001015173ffffffffffffffffffffffffffffffffffffffff1663481c6a756040518163ffffffff1660e01b815260040160206040518083038186803b1580156101c657600080fd5b505afa1580156101da573d6000803e3d6000fd5b505050506040513d601f19601f820116820180604052508101906101fe9190610f86565b82828151811061020a57fe5b602002602001019073ffffffffffffffffffffffffffffffffffffffff16908173ffffffffffffffffffffffffffffffffffffffff16815250508080600101915050610164565b5080915050919050565b606080825167ffffffffffffffff8111801561027657600080fd5b506040519080825280602002602001820160405280156102b057816020015b61029d610a6d565b8152602001906001900390816102955790505b50905060008090505b8351811015610467576102ca610aa4565b8573ffffffffffffffffffffffffffffffffffffffff16638e7bdd488684815181106102f257fe5b60200260200101516040518263ffffffff1660e01b815260040161031691906117e8565b60806040518083038186803b15801561032e57600080fd5b505afa158015610342573d6000803e3d6000fd5b505050506040513d601f19601f8201168201806040525081019061036691906111f8565b905060008673ffffffffffffffffffffffffffffffffffffffff1663b88c914887858151811061039257fe5b60200260200101516040518263ffffffff1660e01b81526004016103b691906117e8565b60206040518083038186803b1580156103ce57600080fd5b505afa1580156103e2573d6000803e3d6000fd5b505050506040513d601f19601f820116820180604052508101906104069190611221565b90506040518060600160405280836000015173ffffffffffffffffffffffffffffffffffffffff168152602001836040015181526020018281525084848151811061044d57fe5b6020026020010181905250505080806001019150506102b9565b508091505092915050565b61047a610ae2565b6060600167ffffffffffffffff8111801561049457600080fd5b506040519080825280602002602001820160405280156104c35781602001602082028036833780820191505090505b50905084816000815181106104d457fe5b602002602001019073ffffffffffffffffffffffffffffffffffffffff16908173ffffffffffffffffffffffffffffffffffffffff16815250506040518060e001604052808673ffffffffffffffffffffffffffffffffffffffff166306fdde036040518163ffffffff1660e01b815260040160006040518083038186803b15801561055f57600080fd5b505afa158015610573573d6000803e3d6000fd5b505050506040513d6000823e3d601f19601f8201168201806040525081019061059c91906111b7565b81526020018673ffffffffffffffffffffffffffffffffffffffff166395d89b416040518163ffffffff1660e01b815260040160006040518083038186803b1580156105e757600080fd5b505afa1580156105fb573d6000803e3d6000fd5b505050506040513d6000823e3d601f19601f8201168201806040525081019061062491906111b7565b81526020018673ffffffffffffffffffffffffffffffffffffffff1663481c6a756040518163ffffffff1660e01b815260040160206040518083038186803b15801561066f57600080fd5b505afa158015610683573d6000803e3d6000fd5b505050506040513d601f19601f820116820180604052508101906106a79190610f86565b73ffffffffffffffffffffffffffffffffffffffff1681526020018673ffffffffffffffffffffffffffffffffffffffff1663b2494df36040518163ffffffff1660e01b815260040160006040518083038186803b15801561070857600080fd5b505afa15801561071c573d6000803e3d6000fd5b505050506040513d6000823e3d601f19601f820116820180604052508101906107459190610faf565b8152602001610755838787610881565b60008151811061076157fe5b602002602001015181526020018673ffffffffffffffffffffffffffffffffffffffff1663802758606040518163ffffffff1660e01b815260040160006040518083038186803b1580156107b457600080fd5b505afa1580156107c8573d6000803e3d6000fd5b505050506040513d6000823e3d601f19601f820116820180604052508101906107f191906110a1565b81526020018673ffffffffffffffffffffffffffffffffffffffff166318160ddd6040518163ffffffff1660e01b815260040160206040518083038186803b15801561083c57600080fd5b505afa158015610850573d6000803e3d6000fd5b505050506040513d601f19601f820116820180604052508101906108749190611221565b8152509150509392505050565b606080845167ffffffffffffffff8111801561089c57600080fd5b506040519080825280602002602001820160405280156108d057816020015b60608152602001906001900390816108bb5790505b50905060008090505b8551811015610a615760608585905067ffffffffffffffff811180156108fe57600080fd5b5060405190808252806020026020018201604052801561092d5781602001602082028036833780820191505090505b50905060008090505b86869050811015610a3a5787838151811061094d57fe5b602002602001015173ffffffffffffffffffffffffffffffffffffffff166335bc4e5288888481811061097c57fe5b90506020020160208101906109919190610f5d565b6040518263ffffffff1660e01b81526004016109ad9190611767565b60206040518083038186803b1580156109c557600080fd5b505afa1580156109d9573d6000803e3d6000fd5b505050506040513d601f19601f820116820180604052508101906109fd919061118e565b828281518110610a0957fe5b60200260200101906002811115610a1c57fe5b90816002811115610a2957fe5b815250508080600101915050610936565b5080838381518110610a4857fe5b60200260200101819052505080806001019150506108d9565b50809150509392505050565b6040518060600160405280600073ffffffffffffffffffffffffffffffffffffffff16815260200160008152602001600081525090565b6040518060800160405280600073ffffffffffffffffffffffffffffffffffffffff1681526020016000815260200160008152602001600081525090565b6040518060e001604052806060815260200160608152602001600073ffffffffffffffffffffffffffffffffffffffff168152602001606081526020016060815260200160608152602001600081525090565b600081359050610b4481611b99565b92915050565b600081519050610b5981611b99565b92915050565b60008083601f840112610b7157600080fd5b8235905067ffffffffffffffff811115610b8a57600080fd5b602083019150836020820283011115610ba257600080fd5b9250929050565b600082601f830112610bba57600080fd5b8151610bcd610bc882611852565b611825565b91508181835260208401935060208101905083856020840282011115610bf257600080fd5b60005b83811015610c225781610c088882610b4a565b845260208401935060208301925050600181019050610bf5565b5050505092915050565b600082601f830112610c3d57600080fd5b8135610c50610c4b8261187a565b611825565b91508181835260208401935060208101905083856020840282011115610c7557600080fd5b60005b83811015610ca55781610c8b8882610d77565b845260208401935060208301925050600181019050610c78565b5050505092915050565b600082601f830112610cc057600080fd5b8151610cd3610cce826118a2565b611825565b9150818183526020840193506020810190508360005b83811015610d195781518601610cff8882610e93565b845260208401935060208301925050600181019050610ce9565b5050505092915050565b600082601f830112610d3457600080fd5b8151610d47610d42826118ca565b611825565b91508082526020830160208301858383011115610d6357600080fd5b610d6e838284611b48565b50505092915050565b600081359050610d8681611bb0565b92915050565b600081359050610d9b81611bc7565b92915050565b600081519050610db081611bde565b92915050565b600081519050610dc581611bee565b92915050565b600082601f830112610ddc57600080fd5b8151610def610dea826118f6565b611825565b91508082526020830160208301858383011115610e0b57600080fd5b610e16838284611b48565b50505092915050565b600060808284031215610e3157600080fd5b610e3b6080611825565b90506000610e4b84828501610b4a565b6000830152506020610e5f84828501610f33565b6020830152506040610e7384828501610f33565b6040830152506060610e8784828501610f33565b60608301525092915050565b600060a08284031215610ea557600080fd5b610eaf60a0611825565b90506000610ebf84828501610b4a565b6000830152506020610ed384828501610b4a565b6020830152506040610ee784828501610db6565b6040830152506060610efb84828501610f48565b606083015250608082015167ffffffffffffffff811115610f1b57600080fd5b610f2784828501610d23565b60808301525092915050565b600081519050610f4281611c05565b92915050565b600081519050610f5781611c1c565b92915050565b600060208284031215610f6f57600080fd5b6000610f7d84828501610b35565b91505092915050565b600060208284031215610f9857600080fd5b6000610fa684828501610b4a565b91505092915050565b600060208284031215610fc157600080fd5b600082015167ffffffffffffffff811115610fdb57600080fd5b610fe784828501610ba9565b91505092915050565b60006020828403121561100257600080fd5b600082013567ffffffffffffffff81111561101c57600080fd5b61102884828501610c2c565b91505092915050565b60008060006040848603121561104657600080fd5b600084013567ffffffffffffffff81111561106057600080fd5b61106c86828701610c2c565b935050602084013567ffffffffffffffff81111561108957600080fd5b61109586828701610b5f565b92509250509250925092565b6000602082840312156110b357600080fd5b600082015167ffffffffffffffff8111156110cd57600080fd5b6110d984828501610caf565b91505092915050565b6000806000604084860312156110f757600080fd5b600061110586828701610d77565b935050602084013567ffffffffffffffff81111561112257600080fd5b61112e86828701610b5f565b92509250509250925092565b6000806040838503121561114d57600080fd5b600061115b85828601610d8c565b925050602083013567ffffffffffffffff81111561117857600080fd5b61118485828601610c2c565b9150509250929050565b6000602082840312156111a057600080fd5b60006111ae84828501610da1565b91505092915050565b6000602082840312156111c957600080fd5b600082015167ffffffffffffffff8111156111e357600080fd5b6111ef84828501610dcb565b91505092915050565b60006080828403121561120a57600080fd5b600061121884828501610e1f565b91505092915050565b60006020828403121561123357600080fd5b600061124184828501610f33565b91505092915050565b600061125683836112ba565b60208301905092915050565b600061126e8383611409565b905092915050565b60006112828383611582565b60208301905092915050565b600061129a83836115d9565b905092915050565b60006112ae8383611707565b60608301905092915050565b6112c381611a88565b82525050565b6112d281611a88565b82525050565b60006112e382611972565b6112ed8185611a00565b93506112f883611922565b8060005b83811015611329578151611310888261124a565b975061131b836119bf565b9250506001810190506112fc565b5085935050505092915050565b600061134182611972565b61134b8185611a11565b935061135683611922565b8060005b8381101561138757815161136e888261124a565b9750611379836119bf565b92505060018101905061135a565b5085935050505092915050565b600061139f8261197d565b6113a98185611a22565b9350836020820285016113bb85611932565b8060005b858110156113f757848403895281516113d88582611262565b94506113e3836119cc565b925060208a019950506001810190506113bf565b50829750879550505050505092915050565b600061141482611988565b61141e8185611a55565b935061142983611942565b8060005b8381101561145a5781516114418882611276565b975061144c836119d9565b92505060018101905061142d565b5085935050505092915050565b600061147282611993565b61147c8185611a33565b93508360208202850161148e85611952565b8060005b858110156114ca57848403895281516114ab858261128e565b94506114b6836119e6565b925060208a01995050600181019050611492565b50829750879550505050505092915050565b60006114e78261199e565b6114f18185611a44565b93506114fc83611962565b8060005b8381101561152d57815161151488826112a2565b975061151f836119f3565b925050600181019050611500565b5085935050505092915050565b6000611545826119a9565b61154f8185611a66565b935061155f818560208601611b48565b61156881611b7b565b840191505092915050565b61157c81611b12565b82525050565b61158b81611b36565b82525050565b61159a81611ad1565b82525050565b60006115ab826119b4565b6115b58185611a77565b93506115c5818560208601611b48565b6115ce81611b7b565b840191505092915050565b600060a0830160008301516115f160008601826112ba565b50602083015161160460208601826112ba565b5060408301516116176040860182611591565b50606083015161162a6060860182611758565b5060808301518482036080860152611642828261153a565b9150508091505092915050565b600060e083016000830151848203600086015261166c82826115a0565b9150506020830151848203602086015261168682826115a0565b915050604083015161169b60408601826112ba565b50606083015184820360608601526116b382826112d8565b915050608083015184820360808601526116cd8282611409565b91505060a083015184820360a08601526116e78282611467565b91505060c08301516116fc60c0860182611749565b508091505092915050565b60608201600082015161171d60008501826112ba565b5060208201516117306020850182611749565b5060408201516117436040850182611749565b50505050565b61175281611afb565b82525050565b61176181611b05565b82525050565b600060208201905061177c60008301846112c9565b92915050565b6000602082019050818103600083015261179c8184611336565b905092915050565b600060208201905081810360008301526117be8184611394565b905092915050565b600060208201905081810360008301526117e081846114dc565b905092915050565b60006020820190506117fd6000830184611573565b92915050565b6000602082019050818103600083015261181d818461164f565b905092915050565b6000604051905081810181811067ffffffffffffffff8211171561184857600080fd5b8060405250919050565b600067ffffffffffffffff82111561186957600080fd5b602082029050602081019050919050565b600067ffffffffffffffff82111561189157600080fd5b602082029050602081019050919050565b600067ffffffffffffffff8211156118b957600080fd5b602082029050602081019050919050565b600067ffffffffffffffff8211156118e157600080fd5b601f19601f8301169050602081019050919050565b600067ffffffffffffffff82111561190d57600080fd5b601f19601f8301169050602081019050919050565b6000819050602082019050919050565b6000819050602082019050919050565b6000819050602082019050919050565b6000819050602082019050919050565b6000819050602082019050919050565b600081519050919050565b600081519050919050565b600081519050919050565b600081519050919050565b600081519050919050565b600081519050919050565b600081519050919050565b6000602082019050919050565b6000602082019050919050565b6000602082019050919050565b6000602082019050919050565b6000602082019050919050565b600082825260208201905092915050565b600082825260208201905092915050565b600082825260208201905092915050565b600082825260208201905092915050565b600082825260208201905092915050565b600082825260208201905092915050565b600082825260208201905092915050565b600082825260208201905092915050565b6000611a9382611adb565b9050919050565b6000611aa582611a88565b9050919050565b6000611ab782611a88565b9050919050565b6000819050611acc82611b8c565b919050565b6000819050919050565b600073ffffffffffffffffffffffffffffffffffffffff82169050919050565b6000819050919050565b600060ff82169050919050565b6000611b1d82611b24565b9050919050565b6000611b2f82611adb565b9050919050565b6000611b4182611abe565b9050919050565b60005b83811015611b66578082015181840152602081019050611b4b565b83811115611b75576000848401525b50505050565b6000601f19601f8301169050919050565b60038110611b9657fe5b50565b611ba281611a88565b8114611bad57600080fd5b50565b611bb981611a9a565b8114611bc457600080fd5b50565b611bd081611aac565b8114611bdb57600080fd5b50565b60038110611beb57600080fd5b50565b611bf781611ad1565b8114611c0257600080fd5b50565b611c0e81611afb565b8114611c1957600080fd5b50565b611c2581611b05565b8114611c3057600080fd5b5056fea264697066735822122004122dd89eeb05fa4b6ce236d08409277ca38df4d833d824db28a9c1e86be72c64736f6c634300060a0033",
  "immutableReferences": {},
  "source": "/*\n    Copyright 2020 Set Labs Inc.\n\n    Licensed under the Apache License, Version 2.0 (the \"License\");\n    you may not use this file except in compliance with the License.\n    You may obtain a copy of the License at\n\n    http://www.apache.org/licenses/LICENSE-2.0\n\n    Unless required by applicable law or agreed to in writing, software\n    distributed under the License is distributed on an \"AS IS\" BASIS,\n    WITHOUT WARRANTIES OR CONDITIONS OF ANY KIND, either express or implied.\n    See the License for the specific language governing permissions and\n    limitations under the License.\n\n    SPDX-License-Identifier: Apache License, Version 2.0\n*/\npragma solidity 0.6.10;\npragma experimental \"ABIEncoderV2\";\n\n\nimport { SetTokenViewer } from \"./SetTokenViewer.sol\";\nimport { StreamingFeeModuleViewer } from \"./StreamingFeeModuleViewer.sol\";\n\n\n/**\n * @title StreamingFeeModuleViewer\n * @author Set Protocol\n *\n * ProtocolViewer enables atch queries of various protocol state.\n */\ncontract ProtocolViewer is\n    SetTokenViewer,\n    StreamingFeeModuleViewer\n{\n    constructor() public {}\n}",
  "sourcePath": "/Users/tahadhailey/Documents/top5/top5swap/swap/contracts/protocol-viewers/ProtocolViewer.sol",
  "compiler": {
    "name": "solc",
    "version": "0.6.10+commit.00c0fcaf.Emscripten.clang"
  },
  "schemaVersion": "3.2.1",
  "updatedAt": "2021-01-21T08:20:37.642Z",
  "devdoc": {
    "author": "Set Protocol ProtocolViewer enables atch queries of various protocol state.",
    "methods": {},
    "title": "StreamingFeeModuleViewer"
  },
  "userdoc": {
    "methods": {}
  }
}