{
  "contractName": "ResourceIdentifierMock",
  "abi": [
    {
      "inputs": [
        {
          "internalType": "contract IController",
          "name": "_controller",
          "type": "address"
        }
      ],
      "name": "testGetIntegrationRegistry",
      "outputs": [
        {
          "internalType": "contract IIntegrationRegistry",
          "name": "",
          "type": "address"
        }
      ],
      "stateMutability": "view",
      "type": "function"
    },
    {
      "inputs": [
        {
          "internalType": "contract IController",
          "name": "_controller",
          "type": "address"
        }
      ],
      "name": "testGetPriceOracle",
      "outputs": [
        {
          "internalType": "contract IPriceOracle",
          "name": "",
          "type": "address"
        }
      ],
      "stateMutability": "view",
      "type": "function"
    },
    {
      "inputs": [
        {
          "internalType": "contract IController",
          "name": "_controller",
          "type": "address"
        }
      ],
      "name": "testGetSetValuer",
      "outputs": [
        {
          "internalType": "contract ISetValuer",
          "name": "",
          "type": "address"
        }
      ],
      "stateMutability": "view",
      "type": "function"
    }
  ],
  "bytecode": "0x608060405234801561001057600080fd5b50610400806100206000396000f3fe608060405234801561001057600080fd5b50600436106100415760003560e01c80634939a1861461004657806391d47662146100ca578063b565b9d81461014e575b600080fd5b6100886004803603602081101561005c57600080fd5b81019080803573ffffffffffffffffffffffffffffffffffffffff1690602001909291905050506101d2565b604051808273ffffffffffffffffffffffffffffffffffffffff1673ffffffffffffffffffffffffffffffffffffffff16815260200191505060405180910390f35b61010c600480360360208110156100e057600080fd5b81019080803573ffffffffffffffffffffffffffffffffffffffff1690602001909291905050506101e4565b604051808273ffffffffffffffffffffffffffffffffffffffff1673ffffffffffffffffffffffffffffffffffffffff16815260200191505060405180910390f35b6101906004803603602081101561016457600080fd5b81019080803573ffffffffffffffffffffffffffffffffffffffff1690602001909291905050506101f6565b604051808273ffffffffffffffffffffffffffffffffffffffff1673ffffffffffffffffffffffffffffffffffffffff16815260200191505060405180910390f35b60006101dd82610208565b9050919050565b60006101ef8261029e565b9050919050565b600061020182610334565b9050919050565b60008173ffffffffffffffffffffffffffffffffffffffff1663e765ced660006040518263ffffffff1660e01b81526004018082815260200191505060206040518083038186803b15801561025c57600080fd5b505afa158015610270573d6000803e3d6000fd5b505050506040513d602081101561028657600080fd5b81019080805190602001909291905050509050919050565b60008173ffffffffffffffffffffffffffffffffffffffff1663e765ced660026040518263ffffffff1660e01b81526004018082815260200191505060206040518083038186803b1580156102f257600080fd5b505afa158015610306573d6000803e3d6000fd5b505050506040513d602081101561031c57600080fd5b81019080805190602001909291905050509050919050565b60008173ffffffffffffffffffffffffffffffffffffffff1663e765ced660016040518263ffffffff1660e01b81526004018082815260200191505060206040518083038186803b15801561038857600080fd5b505afa15801561039c573d6000803e3d6000fd5b505050506040513d60208110156103b257600080fd5b8101908080519060200190929190505050905091905056fea26469706673582212202b7ff63256fac865164d03ef2847860689de925562b67a736eca61f8c2d3aae764736f6c634300060a0033",
  "immutableReferences": {},
  "source": "/*\n    Copyright 2020 Set Labs Inc.\n\n    Licensed under the Apache License, Version 2.0 (the \"License\");\n    you may not use this file except in compliance with the License.\n    You may obtain a copy of the License at\n\n    http://www.apache.org/licenses/LICENSE-2.0\n\n    Unless required by applicable law or agreed to in writing, software\n    distributed under the License is distributed on an \"AS IS\" BASIS,\n    WITHOUT WARRANTIES OR CONDITIONS OF ANY KIND, either express or implied.\n    See the License for the specific language governing permissions and\n    limitations under the License.\n\n    SPDX-License-Identifier: Apache License, Version 2.0\n*/\n\npragma solidity 0.6.10;\n\nimport { IController } from \"../../../interfaces/IController.sol\";\nimport { IIntegrationRegistry } from \"../../../interfaces/IIntegrationRegistry.sol\";\nimport { IPriceOracle } from \"../../../interfaces/IPriceOracle.sol\";\nimport { ISetValuer } from \"../../../interfaces/ISetValuer.sol\";\nimport { ResourceIdentifier } from \"../../../protocol/lib/ResourceIdentifier.sol\";\n\ncontract ResourceIdentifierMock {\n\n    /* ============ External Functions ============ */\n\n    function testGetIntegrationRegistry(IController _controller) external view returns (IIntegrationRegistry) {\n        \n        return ResourceIdentifier.getIntegrationRegistry(_controller);\n    }\n\n    function testGetPriceOracle(IController _controller) external view returns (IPriceOracle) {\n        return ResourceIdentifier.getPriceOracle(_controller);\n    }\n\n    function testGetSetValuer(IController _controller) external view returns (ISetValuer) {\n        return ResourceIdentifier.getSetValuer(_controller);\n    }\n}",
  "sourcePath": "/Users/tahadhailey/Documents/top5/top5swap/swap/contracts/mocks/protocol/lib/ResourceIdentifierMock.sol",
  "compiler": {
    "name": "solc",
    "version": "0.6.10+commit.00c0fcaf.Emscripten.clang"
  },
  "schemaVersion": "3.2.1",
  "updatedAt": "2021-01-21T08:20:37.627Z",
  "devdoc": {
    "methods": {}
  },
  "userdoc": {
    "methods": {}
  }
}