{
  "contractName": "SetTokenCreator",
  "abi": [
    {
      "inputs": [
        {
          "internalType": "contract IController",
          "name": "_controller",
          "type": "address"
        }
      ],
      "stateMutability": "nonpayable",
      "type": "constructor"
    },
    {
      "anonymous": false,
      "inputs": [
        {
          "indexed": true,
          "internalType": "address",
          "name": "_setToken",
          "type": "address"
        },
        {
          "indexed": false,
          "internalType": "address",
          "name": "_manager",
          "type": "address"
        },
        {
          "indexed": false,
          "internalType": "string",
          "name": "_name",
          "type": "string"
        },
        {
          "indexed": false,
          "internalType": "string",
          "name": "_symbol",
          "type": "string"
        }
      ],
      "name": "SetTokenCreated",
      "type": "event"
    },
    {
      "inputs": [],
      "name": "controller",
      "outputs": [
        {
          "internalType": "contract IController",
          "name": "",
          "type": "address"
        }
      ],
      "stateMutability": "view",
      "type": "function"
    },
    {
      "inputs": [
        {
          "internalType": "address[]",
          "name": "_components",
          "type": "address[]"
        },
        {
          "internalType": "int256[]",
          "name": "_units",
          "type": "int256[]"
        },
        {
          "internalType": "address[]",
          "name": "_modules",
          "type": "address[]"
        },
        {
          "internalType": "address",
          "name": "_manager",
          "type": "address"
        },
        {
          "internalType": "string",
          "name": "_name",
          "type": "string"
        },
        {
          "internalType": "string",
          "name": "_symbol",
          "type": "string"
        }
      ],
      "name": "create",
      "outputs": [
        {
          "internalType": "address",
          "name": "",
          "type": "address"
        }
      ],
      "stateMutability": "nonpayable",
      "type": "function"
    }
  ],
  "bytecode": "0x60806040523480156200001157600080fd5b5060405162007c6238038062007c62833981810160405281019062000037919062000095565b806000806101000a81548173ffffffffffffffffffffffffffffffffffffffff021916908373ffffffffffffffffffffffffffffffffffffffff1602179055505062000123565b6000815190506200008f8162000109565b92915050565b600060208284031215620000a857600080fd5b6000620000b8848285016200007e565b91505092915050565b6000620000ce82620000e9565b9050919050565b6000620000e282620000c1565b9050919050565b600073ffffffffffffffffffffffffffffffffffffffff82169050919050565b6200011481620000d5565b81146200012057600080fd5b50565b617b2f80620001336000396000f3fe60806040523480156200001157600080fd5b50600436106200003a5760003560e01c8063a949dc3e146200003f578063f77c47911462000075575b600080fd5b6200005d6004803603810190620000579190620008a3565b62000097565b6040516200006c919062000e44565b60405180910390f35b6200007f620005af565b6040516200008e919062000f69565b60405180910390f35b600080875111620000df576040517f08c379a0000000000000000000000000000000000000000000000000000000008152600401620000d69062000fa8565b60405180910390fd5b855187511462000126576040517f08c379a00000000000000000000000000000000000000000000000000000000081526004016200011d9062001074565b60405180910390fd5b6200013187620005d4565b1562000174576040517f08c379a00000000000000000000000000000000000000000000000000000000081526004016200016b9062000f86565b60405180910390fd5b6000855111620001bb576040517f08c379a0000000000000000000000000000000000000000000000000000000008152600401620001b29062000fca565b60405180910390fd5b600073ffffffffffffffffffffffffffffffffffffffff168473ffffffffffffffffffffffffffffffffffffffff1614156200022e576040517f08c379a0000000000000000000000000000000000000000000000000000000008152600401620002259062001030565b60405180910390fd5b60008090505b87518110156200032d57600073ffffffffffffffffffffffffffffffffffffffff168882815181106200026357fe5b602002602001015173ffffffffffffffffffffffffffffffffffffffff161415620002c5576040517f08c379a0000000000000000000000000000000000000000000000000000000008152600401620002bc9062001052565b60405180910390fd5b6000878281518110620002d457fe5b6020026020010151136200031f576040517f08c379a0000000000000000000000000000000000000000000000000000000008152600401620003169062000fec565b60405180910390fd5b808060010191505062000234565b5060008090505b855181101562000452576000809054906101000a900473ffffffffffffffffffffffffffffffffffffffff1673ffffffffffffffffffffffffffffffffffffffff166342f6e3898783815181106200038857fe5b60200260200101516040518263ffffffff1660e01b8152600401620003ae919062000e44565b60206040518083038186803b158015620003c757600080fd5b505afa158015620003dc573d6000803e3d6000fd5b505050506040513d601f19601f82011682018060405250810190620004029190620009b6565b62000444576040517f08c379a00000000000000000000000000000000000000000000000000000000081526004016200043b906200100e565b60405180910390fd5b808060010191505062000334565b5060008787876000809054906101000a900473ffffffffffffffffffffffffffffffffffffffff168888886040516200048b90620006da565b6200049d979695949392919062000ec9565b604051809103906000f080158015620004ba573d6000803e3d6000fd5b5090506000809054906101000a900473ffffffffffffffffffffffffffffffffffffffff1673ffffffffffffffffffffffffffffffffffffffff1663d580ded4826040518263ffffffff1660e01b815260040162000519919062000e61565b600060405180830381600087803b1580156200053457600080fd5b505af115801562000549573d6000803e3d6000fd5b505050508073ffffffffffffffffffffffffffffffffffffffff167fb7b1e89d4bb640b93b0cb96b27077ceb558d073e00531c0a712a4afc9ccf06fe868686604051620005999392919062000e7e565b60405180910390a2809150509695505050505050565b6000809054906101000a900473ffffffffffffffffffffffffffffffffffffffff1681565b6000808251116200061c576040517f08c379a0000000000000000000000000000000000000000000000000000000008152600401620006139062001096565b60405180910390fd5b60008090505b6001835103811015620006cf5760008382815181106200063e57fe5b6020026020010151905060006001830190505b8451811015620006bf578481815181106200066857fe5b602002602001015173ffffffffffffffffffffffffffffffffffffffff168273ffffffffffffffffffffffffffffffffffffffff161415620006b15760019350505050620006d5565b808060010191505062000651565b5050808060010191505062000622565b50600090505b919050565b6167b4806200134683390190565b600081359050620006f981620012f7565b92915050565b600082601f8301126200071157600080fd5b8135620007286200072282620010e6565b620010b8565b915081818352602084019350602081019050838560208402820111156200074e57600080fd5b60005b83811015620007825781620007678882620006e8565b84526020840193506020830192505060018101905062000751565b5050505092915050565b600082601f8301126200079e57600080fd5b8135620007b5620007af826200110f565b620010b8565b91508181835260208401935060208101905083856020840282011115620007db57600080fd5b60005b838110156200080f5781620007f4888262000830565b845260208401935060208301925050600181019050620007de565b5050505092915050565b6000815190506200082a8162001311565b92915050565b60008135905062000841816200132b565b92915050565b600082601f8301126200085957600080fd5b8135620008706200086a8262001138565b620010b8565b915080825260208301602083018583830111156200088d57600080fd5b6200089a838284620012a1565b50505092915050565b60008060008060008060c08789031215620008bd57600080fd5b600087013567ffffffffffffffff811115620008d857600080fd5b620008e689828a01620006ff565b965050602087013567ffffffffffffffff8111156200090457600080fd5b6200091289828a016200078c565b955050604087013567ffffffffffffffff8111156200093057600080fd5b6200093e89828a01620006ff565b94505060606200095189828a01620006e8565b935050608087013567ffffffffffffffff8111156200096f57600080fd5b6200097d89828a0162000847565b92505060a087013567ffffffffffffffff8111156200099b57600080fd5b620009a989828a0162000847565b9150509295509295509295565b600060208284031215620009c957600080fd5b6000620009d98482850162000819565b91505092915050565b6000620009f0838362000a27565b60208301905092915050565b600062000a0a838362000b2e565b60208301905092915050565b62000a21816200123d565b82525050565b62000a3281620011f3565b82525050565b62000a4381620011f3565b82525050565b600062000a568262001185565b62000a628185620011c0565b935062000a6f8362001165565b8060005b8381101562000aa657815162000a8a8882620009e2565b975062000a9783620011a6565b92505060018101905062000a73565b5085935050505092915050565b600062000ac08262001190565b62000acc8185620011d1565b935062000ad98362001175565b8060005b8381101562000b1057815162000af48882620009fc565b975062000b0183620011b3565b92505060018101905062000add565b5085935050505092915050565b62000b288162001251565b82525050565b62000b398162001213565b82525050565b600062000b4c826200119b565b62000b588185620011e2565b935062000b6a818560208601620012b0565b62000b7581620012e6565b840191505092915050565b600062000b8f602483620011e2565b91507f436f6d706f6e656e7473206d757374206e6f7420686176652061206475706c6960008301527f63617465000000000000000000000000000000000000000000000000000000006020830152604082019050919050565b600062000bf7601e83620011e2565b91507f4d7573742068617665206174206c65617374203120636f6d706f6e656e7400006000830152602082019050919050565b600062000c39601b83620011e2565b91507f4d7573742068617665206174206c656173742031206d6f64756c6500000000006000830152602082019050919050565b600062000c7b601c83620011e2565b91507f556e697473206d7573742062652067726561746572207468616e2030000000006000830152602082019050919050565b600062000cbd601683620011e2565b91507f4d75737420626520656e61626c6564206d6f64756c65000000000000000000006000830152602082019050919050565b600062000cff601983620011e2565b91507f4d616e61676572206d757374206e6f7420626520656d707479000000000000006000830152602082019050919050565b600062000d41602283620011e2565b91507f436f6d706f6e656e74206d757374206e6f74206265206e756c6c20616464726560008301527f73730000000000000000000000000000000000000000000000000000000000006020830152604082019050919050565b600062000da9602b83620011e2565b91507f436f6d706f6e656e7420616e6420756e6974206c656e67746873206d7573742060008301527f6265207468652073616d650000000000000000000000000000000000000000006020830152604082019050919050565b600062000e11600a83620011e2565b91507f4120697320656d707479000000000000000000000000000000000000000000006000830152602082019050919050565b600060208201905062000e5b600083018462000a38565b92915050565b600060208201905062000e78600083018462000a16565b92915050565b600060608201905062000e95600083018662000a38565b818103602083015262000ea9818562000b3f565b9050818103604083015262000ebf818462000b3f565b9050949350505050565b600060e082019050818103600083015262000ee5818a62000a49565b9050818103602083015262000efb818962000ab3565b9050818103604083015262000f11818862000a49565b905062000f22606083018762000b1d565b62000f31608083018662000a38565b81810360a083015262000f45818562000b3f565b905081810360c083015262000f5b818462000b3f565b905098975050505050505050565b600060208201905062000f80600083018462000b1d565b92915050565b6000602082019050818103600083015262000fa18162000b80565b9050919050565b6000602082019050818103600083015262000fc38162000be8565b9050919050565b6000602082019050818103600083015262000fe58162000c2a565b9050919050565b60006020820190508181036000830152620010078162000c6c565b9050919050565b60006020820190508181036000830152620010298162000cae565b9050919050565b600060208201905081810360008301526200104b8162000cf0565b9050919050565b600060208201905081810360008301526200106d8162000d32565b9050919050565b600060208201905081810360008301526200108f8162000d9a565b9050919050565b60006020820190508181036000830152620010b18162000e02565b9050919050565b6000604051905081810181811067ffffffffffffffff82111715620010dc57600080fd5b8060405250919050565b600067ffffffffffffffff821115620010fe57600080fd5b602082029050602081019050919050565b600067ffffffffffffffff8211156200112757600080fd5b602082029050602081019050919050565b600067ffffffffffffffff8211156200115057600080fd5b601f19601f8301169050602081019050919050565b6000819050602082019050919050565b6000819050602082019050919050565b600081519050919050565b600081519050919050565b600081519050919050565b6000602082019050919050565b6000602082019050919050565b600082825260208201905092915050565b600082825260208201905092915050565b600082825260208201905092915050565b600062001200826200121d565b9050919050565b60008115159050919050565b6000819050919050565b600073ffffffffffffffffffffffffffffffffffffffff82169050919050565b60006200124a8262001279565b9050919050565b60006200125e8262001265565b9050919050565b600062001272826200121d565b9050919050565b600062001286826200128d565b9050919050565b60006200129a826200121d565b9050919050565b82818337600083830152505050565b60005b83811015620012d0578082015181840152602081019050620012b3565b83811115620012e0576000848401525b50505050565b6000601f19601f8301169050919050565b6200130281620011f3565b81146200130e57600080fd5b50565b6200131c8162001207565b81146200132857600080fd5b50565b620013368162001213565b81146200134257600080fd5b5056fe60806040523480156200001157600080fd5b50604051620067b4380380620067b48339818101604052810190620000379190620005be565b81818160039080519060200190620000519291906200027f565b5080600490805190602001906200006a9291906200027f565b506012600560006101000a81548160ff021916908360ff160217905550505083600560016101000a81548173ffffffffffffffffffffffffffffffffffffffff021916908373ffffffffffffffffffffffffffffffffffffffff16021790555082600660006101000a81548173ffffffffffffffffffffffffffffffffffffffff021916908373ffffffffffffffffffffffffffffffffffffffff160217905550620001206200026f60201b62002bf51760201c565b600d8190555086600b90805190602001906200013e92919062000306565b5060008090505b8551811015620001d3576001600960008884815181106200016257fe5b602002602001015173ffffffffffffffffffffffffffffffffffffffff1673ffffffffffffffffffffffffffffffffffffffff16815260200190815260200160002060006101000a81548160ff02191690836002811115620001c057fe5b0217905550808060010191505062000145565b5060008090505b87518110156200026157868181518110620001f157fe5b6020026020010151600c60008a84815181106200020a57fe5b602002602001015173ffffffffffffffffffffffffffffffffffffffff1673ffffffffffffffffffffffffffffffffffffffff168152602001908152602001600020600001819055508080600101915050620001da565b50505050505050506200086b565b6000670de0b6b3a7640000905090565b828054600181600116156101000203166002900490600052602060002090601f016020900481019282601f10620002c257805160ff1916838001178555620002f3565b82800160010185558215620002f3579182015b82811115620002f2578251825591602001919060010190620002d5565b5b50905062000302919062000395565b5090565b82805482825590600052602060002090810192821562000382579160200282015b82811115620003815782518260006101000a81548173ffffffffffffffffffffffffffffffffffffffff021916908373ffffffffffffffffffffffffffffffffffffffff1602179055509160200191906001019062000327565b5b509050620003919190620003bd565b5090565b620003ba91905b80821115620003b65760008160009055506001016200039c565b5090565b90565b6200040091905b80821115620003fc57600081816101000a81549073ffffffffffffffffffffffffffffffffffffffff021916905550600101620003c4565b5090565b90565b60008151905062000414816200081d565b92915050565b600082601f8301126200042c57600080fd5b8151620004436200043d8262000716565b620006e8565b915081818352602084019350602081019050838560208402820111156200046957600080fd5b60005b838110156200049d578162000482888262000403565b8452602084019350602083019250506001810190506200046c565b5050505092915050565b600082601f830112620004b957600080fd5b8151620004d0620004ca826200073f565b620006e8565b91508181835260208401935060208101905083856020840282011115620004f657600080fd5b60005b838110156200052a57816200050f88826200054b565b845260208401935060208301925050600181019050620004f9565b5050505092915050565b600081519050620005458162000837565b92915050565b6000815190506200055c8162000851565b92915050565b600082601f8301126200057457600080fd5b81516200058b620005858262000768565b620006e8565b91508082526020830160208301858383011115620005a857600080fd5b620005b5838284620007e7565b50505092915050565b600080600080600080600060e0888a031215620005da57600080fd5b600088015167ffffffffffffffff811115620005f557600080fd5b620006038a828b016200041a565b975050602088015167ffffffffffffffff8111156200062157600080fd5b6200062f8a828b01620004a7565b965050604088015167ffffffffffffffff8111156200064d57600080fd5b6200065b8a828b016200041a565b95505060606200066e8a828b0162000534565b9450506080620006818a828b0162000403565b93505060a088015167ffffffffffffffff8111156200069f57600080fd5b620006ad8a828b0162000562565b92505060c088015167ffffffffffffffff811115620006cb57600080fd5b620006d98a828b0162000562565b91505092959891949750929550565b6000604051905081810181811067ffffffffffffffff821117156200070c57600080fd5b8060405250919050565b600067ffffffffffffffff8211156200072e57600080fd5b602082029050602081019050919050565b600067ffffffffffffffff8211156200075757600080fd5b602082029050602081019050919050565b600067ffffffffffffffff8211156200078057600080fd5b601f19601f8301169050602081019050919050565b6000620007a282620007c7565b9050919050565b6000620007b68262000795565b9050919050565b6000819050919050565b600073ffffffffffffffffffffffffffffffffffffffff82169050919050565b60005b8381101562000807578082015181840152602081019050620007ea565b8381111562000817576000848401525b50505050565b620008288162000795565b81146200083457600080fd5b50565b6200084281620007a9565b81146200084e57600080fd5b50565b6200085c81620007bd565b81146200086857600080fd5b50565b615f39806200087b6000396000f3fe6080604052600436106102b25760003560e01c80638ae458da11610175578063b2494df3116100dc578063d7f1b27c11610095578063ea0ee5591161006f578063ea0ee55914610b61578063eaf993e114610b8a578063f77c479114610bc7578063f83d08ba14610bf2576102b9565b8063d7f1b27c14610aaa578063dd62ed3e14610ae7578063df5e9b2914610b24576102b9565b8063b2494df31461099c578063c2de0e9d146109c7578063c5d574fe146109f0578063c756401714610a2d578063d0ebdbe714610a56578063d7b96d4e14610a7f576102b9565b8063a457c2d71161012e578063a457c2d71461087a578063a4e2d634146108b7578063a69df4b5146108e2578063a7bdad03146108f9578063a9059cbb14610936578063acf3f07714610973576102b9565b80638ae458da146107585780638f6f03321461079557806395d89b41146107d257806399d50d5d146107fd5780639dc29fac14610828578063a063246114610851576102b9565b806340c10f191161021957806366cb8d2f116101d257806366cb8d2f146106105780636f86c8971461064d57806370a08231146106765780637d966593146106b357806380275860146106f057806381b2248a1461071b576102b9565b806340c10f1914610502578063481c6a751461052b5780634e353270146105565780635230c3961461057f57806353bae5f7146105aa57806363a90fc1146105e7576102b9565b806323b872dd1161026b57806323b872dd146103ce57806326898fe11461040b5780632ba57d1714610434578063313ce5671461045d57806335bc4e521461048857806339509351146104c5576102b9565b806306fdde03146102be578063095ea7b3146102e95780630ffe0f1e1461032657806318160ddd1461033d5780631ed86f191461036857806322ebeba414610391576102b9565b366102b957005b600080fd5b3480156102ca57600080fd5b506102d3610c09565b6040516102e091906157ad565b60405180910390f35b3480156102f557600080fd5b50610310600480360381019061030b9190614860565b610cab565b60405161031d91906156c2565b60405180910390f35b34801561033257600080fd5b5061033b610cc9565b005b34801561034957600080fd5b50610352610ec7565b60405161035f9190615baf565b60405180910390f35b34801561037457600080fd5b5061038f600480360381019061038a91906146b5565b610ed1565b005b34801561039d57600080fd5b506103b860048036038101906103b391906146de565b61110f565b6040516103c59190615792565b60405180910390f35b3480156103da57600080fd5b506103f560048036038101906103f091906147d5565b61112b565b60405161040291906156c2565b60405180910390f35b34801561041757600080fd5b50610432600480360381019061042d919061471a565b611204565b005b34801561044057600080fd5b5061045b60048036038101906104569190614824565b611313565b005b34801561046957600080fd5b506104726113ca565b60405161047f9190615bca565b60405180910390f35b34801561049457600080fd5b506104af60048036038101906104aa91906146b5565b6113e1565b6040516104bc9190615777565b60405180910390f35b3480156104d157600080fd5b506104ec60048036038101906104e79190614860565b611401565b6040516104f991906156c2565b60405180910390f35b34801561050e57600080fd5b5061052960048036038101906105249190614860565b6114b4565b005b34801561053757600080fd5b506105406114d2565b60405161054d919061561f565b60405180910390f35b34801561056257600080fd5b5061057d600480360381019061057891906146b5565b6114f8565b005b34801561058b57600080fd5b506105946115b1565b6040516105a19190615792565b60405180910390f35b3480156105b657600080fd5b506105d160048036038101906105cc91906146b5565b6115b7565b6040516105de91906156c2565b60405180910390f35b3480156105f357600080fd5b5061060e60048036038101906106099190614786565b611626565b005b34801561061c57600080fd5b50610637600480360381019061063291906146b5565b611735565b6040516106449190615792565b60405180910390f35b34801561065957600080fd5b50610674600480360381019061066f91906146b5565b61174f565b005b34801561068257600080fd5b5061069d600480360381019061069891906146b5565b611854565b6040516106aa9190615baf565b60405180910390f35b3480156106bf57600080fd5b506106da60048036038101906106d591906146de565b61189c565b6040516106e791906156c2565b60405180910390f35b3480156106fc57600080fd5b506107056118c1565b60405161071291906156a0565b60405180910390f35b34801561072757600080fd5b50610742600480360381019061073d919061495a565b611af6565b60405161074f919061561f565b60405180910390f35b34801561076457600080fd5b5061077f600480360381019061077a91906146de565b611b32565b60405161078c919061573a565b60405180910390f35b3480156107a157600080fd5b506107bc60048036038101906107b7919061489c565b611b46565b6040516107c9919061573a565b60405180910390f35b3480156107de57600080fd5b506107e7611c27565b6040516107f491906157ad565b60405180910390f35b34801561080957600080fd5b50610812611cc9565b60405161081f919061567e565b60405180910390f35b34801561083457600080fd5b5061084f600480360381019061084a9190614860565b611d57565b005b34801561085d57600080fd5b50610878600480360381019061087391906146b5565b611d75565b005b34801561088657600080fd5b506108a1600480360381019061089c9190614860565b612027565b6040516108ae91906156c2565b60405180910390f35b3480156108c357600080fd5b506108cc6120f4565b6040516108d991906156c2565b60405180910390f35b3480156108ee57600080fd5b506108f7612107565b005b34801561090557600080fd5b50610920600480360381019061091b91906146b5565b612230565b60405161092d919061567e565b60405180910390f35b34801561094257600080fd5b5061095d60048036038101906109589190614860565b612242565b60405161096a91906156c2565b60405180910390f35b34801561097f57600080fd5b5061099a600480360381019061099591906146de565b612260565b005b3480156109a857600080fd5b506109b16123d9565b6040516109be919061567e565b60405180910390f35b3480156109d357600080fd5b506109ee60048036038101906109e99190614931565b612467565b005b3480156109fc57600080fd5b50610a176004803603810190610a12919061495a565b6124fb565b604051610a24919061561f565b60405180910390f35b348015610a3957600080fd5b50610a546004803603810190610a4f91906146b5565b612537565b005b348015610a6257600080fd5b50610a7d6004803603810190610a7891906146b5565b6126db565b005b348015610a8b57600080fd5b50610a946127d8565b604051610aa1919061561f565b60405180910390f35b348015610ab657600080fd5b50610ad16004803603810190610acc91906146b5565b6127fe565b604051610ade91906156c2565b60405180910390f35b348015610af357600080fd5b50610b0e6004803603810190610b0991906146de565b61286c565b604051610b1b9190615baf565b60405180910390f35b348015610b3057600080fd5b50610b4b6004803603810190610b4691906146b5565b6128f3565b604051610b5891906156c2565b60405180910390f35b348015610b6d57600080fd5b50610b886004803603810190610b8391906146de565b612995565b005b348015610b9657600080fd5b50610bb16004803603810190610bac91906146b5565b612aa6565b604051610bbe9190615792565b60405180910390f35b348015610bd357600080fd5b50610bdc612b19565b604051610be9919061575c565b60405180910390f35b348015610bfe57600080fd5b50610c07612b3f565b005b606060038054600181600116156101000203166002900480601f016020809104026020016040519081016040528092919081815260200182805460018160011615610100020316600290048015610ca15780601f10610c7657610100808354040283529160200191610ca1565b820191906000526020600020905b815481529060010190602001808311610c8457829003601f168201915b5050505050905090565b6000610cbf610cb8612c05565b8484612c0d565b6001905092915050565b600a60009054906101000a900460ff1615610d19576040517f08c379a0000000000000000000000000000000000000000000000000000000008152600401610d1090615aef565b60405180910390fd5b60016002811115610d2657fe5b600960003373ffffffffffffffffffffffffffffffffffffffff1673ffffffffffffffffffffffffffffffffffffffff16815260200190815260200160002060009054906101000a900460ff166002811115610d7e57fe5b14610dbe576040517f08c379a0000000000000000000000000000000000000000000000000000000008152600401610db590615b4f565b60405180910390fd5b6002600960003373ffffffffffffffffffffffffffffffffffffffff1673ffffffffffffffffffffffffffffffffffffffff16815260200190815260200160002060006101000a81548160ff02191690836002811115610e1a57fe5b02179055506008339080600181540180825580915050600190039060005260206000200160009091909190916101000a81548173ffffffffffffffffffffffffffffffffffffffff021916908373ffffffffffffffffffffffffffffffffffffffff1602179055503373ffffffffffffffffffffffffffffffffffffffff167f27b541a16df0902e262f34789782092ab25125513b8ed73608e802951771b92860405160405180910390a2565b6000600254905090565b610ed9612dd8565b60006002811115610ee657fe5b600960008373ffffffffffffffffffffffffffffffffffffffff1673ffffffffffffffffffffffffffffffffffffffff16815260200190815260200160002060009054906101000a900460ff166002811115610f3e57fe5b14610f7e576040517f08c379a0000000000000000000000000000000000000000000000000000000008152600401610f759061584f565b60405180910390fd5b600560019054906101000a900473ffffffffffffffffffffffffffffffffffffffff1673ffffffffffffffffffffffffffffffffffffffff166342f6e389826040518263ffffffff1660e01b8152600401610fd9919061561f565b60206040518083038186803b158015610ff157600080fd5b505afa158015611005573d6000803e3d6000fd5b505050506040513d601f19601f820116820180604052508101906110299190614908565b611068576040517f08c379a000000000000000000000000000000000000000000000000000000000815260040161105f906159af565b60405180910390fd5b6001600960008373ffffffffffffffffffffffffffffffffffffffff1673ffffffffffffffffffffffffffffffffffffffff16815260200190815260200160002060006101000a81548160ff021916908360028111156110c457fe5b02179055508073ffffffffffffffffffffffffffffffffffffffff167fead6a006345da1073a106d5f32372d2d2204f46cb0b4bca8f5ebafcbbed12b8a60405160405180910390a250565b600061112361111e8484612e6a565b612ef7565b905092915050565b6000611138848484612f15565b6111f984611144612c05565b6111f485604051806060016040528060288152602001615eb760289139600160008b73ffffffffffffffffffffffffffffffffffffffff1673ffffffffffffffffffffffffffffffffffffffff16815260200190815260200160002060006111aa612c05565b73ffffffffffffffffffffffffffffffffffffffff1673ffffffffffffffffffffffffffffffffffffffff168152602001908152602001600020546131aa9092919063ffffffff16565b612c0d565b600190509392505050565b61120c613205565b611214613395565b8181600c60008773ffffffffffffffffffffffffffffffffffffffff1673ffffffffffffffffffffffffffffffffffffffff16815260200190815260200160002060020160008673ffffffffffffffffffffffffffffffffffffffff1673ffffffffffffffffffffffffffffffffffffffff16815260200190815260200160002060010191906112a59291906143ff565b508273ffffffffffffffffffffffffffffffffffffffff168473ffffffffffffffffffffffffffffffffffffffff167fb373eedb8e9038a2dcba31f06b2735887c1a904125e5c9f0021ba41ed972318e84846040516113059291906156dd565b60405180910390a350505050565b61131b613205565b611323613395565b600061132e8261343d565b905080600c60008573ffffffffffffffffffffffffffffffffffffffff1673ffffffffffffffffffffffffffffffffffffffff168152602001908152602001600020600001819055508273ffffffffffffffffffffffffffffffffffffffff167f8133e2bf34edab764b55c59d1d41f9df637e7c22828bb6b0a9d55b429d008a97836040516113bd9190615792565b60405180910390a2505050565b6000600560009054906101000a900460ff16905090565b60096020528060005260406000206000915054906101000a900460ff1681565b60006114aa61140e612c05565b846114a5856001600061141f612c05565b73ffffffffffffffffffffffffffffffffffffffff1673ffffffffffffffffffffffffffffffffffffffff16815260200190815260200160002060008973ffffffffffffffffffffffffffffffffffffffff1673ffffffffffffffffffffffffffffffffffffffff168152602001908152602001600020546134b090919063ffffffff16565b612c0d565b6001905092915050565b6114bc613205565b6114c4613395565b6114ce8282613505565b5050565b600660009054906101000a900473ffffffffffffffffffffffffffffffffffffffff1681565b611500613205565b611508613395565b600b819080600181540180825580915050600190039060005260206000200160009091909190916101000a81548173ffffffffffffffffffffffffffffffffffffffff021916908373ffffffffffffffffffffffffffffffffffffffff1602179055508073ffffffffffffffffffffffffffffffffffffffff167f76da6cf8b40dd2b2c223a5956831e0ff4e75522538a86782108a0bbe1577e29860405160405180910390a250565b600d5481565b6000600160028111156115c657fe5b600960008473ffffffffffffffffffffffffffffffffffffffff1673ffffffffffffffffffffffffffffffffffffffff16815260200190815260200160002060009054906101000a900460ff16600281111561161e57fe5b149050919050565b61162e613205565b611636613395565b60006116418261343d565b905080600c60008673ffffffffffffffffffffffffffffffffffffffff1673ffffffffffffffffffffffffffffffffffffffff16815260200190815260200160002060020160008573ffffffffffffffffffffffffffffffffffffffff1673ffffffffffffffffffffffffffffffffffffffff168152602001908152602001600020600001819055508273ffffffffffffffffffffffffffffffffffffffff168473ffffffffffffffffffffffffffffffffffffffff167f81a422e27f503e1b92cdb616a6e653aac10a8e0c3fa6832a58dc616c080fd7bd846040516117279190615792565b60405180910390a350505050565b600061174861174383613699565b612ef7565b9050919050565b611757613205565b61175f613395565b6117f881600b8054806020026020016040519081016040528092919081815260200182805480156117e557602002820191906000526020600020905b8160009054906101000a900473ffffffffffffffffffffffffffffffffffffffff1673ffffffffffffffffffffffffffffffffffffffff168152602001906001019080831161179b575b50505050506136e590919063ffffffff16565b600b908051906020019061180d92919061447f565b508073ffffffffffffffffffffffffffffffffffffffff167fc605d0bf97f9b921340106a2e59f9428d5eb9039b16866159e0cdd2bf8e963df60405160405180910390a250565b60008060008373ffffffffffffffffffffffffffffffffffffffff1673ffffffffffffffffffffffffffffffffffffffff168152602001908152602001600020549050919050565b60006118b9826118ab85613753565b61382390919063ffffffff16565b905092915050565b6060806118cc61383d565b67ffffffffffffffff811180156118e257600080fd5b5060405190808252806020026020018201604052801561191c57816020015b611909614509565b8152602001906001900390816119015790505b509050600080905060008090505b600b80549050811015611aed576000600b828154811061194657fe5b9060005260206000200160009054906101000a900473ffffffffffffffffffffffffffffffffffffffff169050600061197e82613699565b1315611a13576040518060a001604052808273ffffffffffffffffffffffffffffffffffffffff168152602001600073ffffffffffffffffffffffffffffffffffffffff1681526020016119d183611735565b8152602001600060ff168152602001604051806020016040528060008152508152508484815181106119ff57fe5b602002602001018190525082806001019350505b6060611a1e82613753565b905060008090505b8151811015611add576000828281518110611a3d57fe5b602002602001015190506040518060a001604052808573ffffffffffffffffffffffffffffffffffffffff1681526020018273ffffffffffffffffffffffffffffffffffffffff168152602001611a94868461110f565b8152602001600160ff168152602001611aad86846138ee565b815250878781518110611abc57fe5b60200260200101819052508580600101965050508080600101915050611a26565b505050808060010191505061192a565b50819250505090565b60088181548110611b0357fe5b906000526020600020016000915054906101000a900473ffffffffffffffffffffffffffffffffffffffff1681565b6060611b3e83836138ee565b905092915050565b6060611b50613205565b611b58613395565b611bc783838080601f016020809104026020016040519081016040528093929190818152602001838380828437600081840152601f19601f82011690508083019250505050505050858773ffffffffffffffffffffffffffffffffffffffff16613a139092919063ffffffff16565b9050838573ffffffffffffffffffffffffffffffffffffffff167f2a936dbabeaea30adc1ddad138b1958497988474bef8b09a29411f0105ab8ab2858585604051611c1493929190615701565b60405180910390a3809050949350505050565b606060048054600181600116156101000203166002900480601f016020809104026020016040519081016040528092919081815260200182805460018160011615610100020316600290048015611cbf5780601f10611c9457610100808354040283529160200191611cbf565b820191906000526020600020905b815481529060010190602001808311611ca257829003601f168201915b5050505050905090565b6060600b805480602002602001604051908101604052809291908181526020018280548015611d4d57602002820191906000526020600020905b8160009054906101000a900473ffffffffffffffffffffffffffffffffffffffff1673ffffffffffffffffffffffffffffffffffffffff1681526020019060010190808311611d03575b5050505050905090565b611d5f613205565b611d67613395565b611d718282613a42565b5050565b611d7d612dd8565b600a60009054906101000a900460ff1615611dcd576040517f08c379a0000000000000000000000000000000000000000000000000000000008152600401611dc490615aef565b60405180910390fd5b600280811115611dd957fe5b600960008373ffffffffffffffffffffffffffffffffffffffff1673ffffffffffffffffffffffffffffffffffffffff16815260200190815260200160002060009054906101000a900460ff166002811115611e3157fe5b14611e71576040517f08c379a0000000000000000000000000000000000000000000000000000000008152600401611e689061590f565b60405180910390fd5b8073ffffffffffffffffffffffffffffffffffffffff1663847ef08d6040518163ffffffff1660e01b8152600401600060405180830381600087803b158015611eb957600080fd5b505af1158015611ecd573d6000803e3d6000fd5b505050506000600960008373ffffffffffffffffffffffffffffffffffffffff1673ffffffffffffffffffffffffffffffffffffffff16815260200190815260200160002060006101000a81548160ff02191690836002811115611f2d57fe5b0217905550611fcb816008805480602002602001604051908101604052809291908181526020018280548015611fb857602002820191906000526020600020905b8160009054906101000a900473ffffffffffffffffffffffffffffffffffffffff1673ffffffffffffffffffffffffffffffffffffffff1681526020019060010190808311611f6e575b50505050506136e590919063ffffffff16565b60089080519060200190611fe092919061447f565b508073ffffffffffffffffffffffffffffffffffffffff167f0a1ee69f55c33d8467c69ca59ce2007a737a88603d75392972520bf67cb513b860405160405180910390a250565b60006120ea612034612c05565b846120e585604051806060016040528060258152602001615edf602591396001600061205e612c05565b73ffffffffffffffffffffffffffffffffffffffff1673ffffffffffffffffffffffffffffffffffffffff16815260200190815260200160002060008a73ffffffffffffffffffffffffffffffffffffffff1673ffffffffffffffffffffffffffffffffffffffff168152602001908152602001600020546131aa9092919063ffffffff16565b612c0d565b6001905092915050565b600a60009054906101000a900460ff1681565b61210f613205565b600a60009054906101000a900460ff1661215e576040517f08c379a0000000000000000000000000000000000000000000000000000000008152600401612155906159ef565b60405180910390fd5b3373ffffffffffffffffffffffffffffffffffffffff16600760009054906101000a900473ffffffffffffffffffffffffffffffffffffffff1673ffffffffffffffffffffffffffffffffffffffff16146121ee576040517f08c379a00000000000000000000000000000000000000000000000000000000081526004016121e590615a4f565b60405180910390fd5b600760006101000a81549073ffffffffffffffffffffffffffffffffffffffff02191690556000600a60006101000a81548160ff021916908315150217905550565b606061223b82613753565b9050919050565b600061225661224f612c05565b8484612f15565b6001905092915050565b612268613205565b612270613395565b61228b8161227d84613753565b6136e590919063ffffffff16565b600c60008473ffffffffffffffffffffffffffffffffffffffff1673ffffffffffffffffffffffffffffffffffffffff16815260200190815260200160002060010190805190602001906122e092919061447f565b50600c60008373ffffffffffffffffffffffffffffffffffffffff1673ffffffffffffffffffffffffffffffffffffffff16815260200190815260200160002060020160008273ffffffffffffffffffffffffffffffffffffffff1673ffffffffffffffffffffffffffffffffffffffff1681526020019081526020016000206000808201600090556001820160006123799190614567565b50508073ffffffffffffffffffffffffffffffffffffffff168273ffffffffffffffffffffffffffffffffffffffff167f5d0275f68d583838a7e2be68e3ef8ac2c1f9d4eeaa4b223360f4cd093a160d7560405160405180910390a35050565b6060600880548060200260200160405190810160405280929190818152602001828054801561245d57602002820191906000526020600020905b8160009054906101000a900473ffffffffffffffffffffffffffffffffffffffff1673ffffffffffffffffffffffffffffffffffffffff1681526020019060010190808311612413575b5050505050905090565b61246f613205565b612477613395565b600081136124ba576040517f08c379a00000000000000000000000000000000000000000000000000000000081526004016124b19061592f565b60405180910390fd5b80600d819055507fc4e78b3245dc105eefced18655b978e194ff858545a1080f2888dc3b6ae8df0a816040516124f09190615792565b60405180910390a150565b600b818154811061250857fe5b906000526020600020016000915054906101000a900473ffffffffffffffffffffffffffffffffffffffff1681565b61253f612dd8565b600a60009054906101000a900460ff161561258f576040517f08c379a000000000000000000000000000000000000000000000000000000000815260040161258690615aef565b60405180910390fd5b6001600281111561259c57fe5b600960008373ffffffffffffffffffffffffffffffffffffffff1673ffffffffffffffffffffffffffffffffffffffff16815260200190815260200160002060009054906101000a900460ff1660028111156125f457fe5b14612634576040517f08c379a000000000000000000000000000000000000000000000000000000000815260040161262b90615b4f565b60405180910390fd5b6000600960008373ffffffffffffffffffffffffffffffffffffffff1673ffffffffffffffffffffffffffffffffffffffff16815260200190815260200160002060006101000a81548160ff0219169083600281111561269057fe5b02179055508073ffffffffffffffffffffffffffffffffffffffff167fd6b18042563148f38d728c1c4d339ffd515b632d0ad2e1833b822412f3f4d87760405160405180910390a250565b6126e3612dd8565b600a60009054906101000a900460ff1615612733576040517f08c379a000000000000000000000000000000000000000000000000000000000815260040161272a90615aef565b60405180910390fd5b6000600660009054906101000a900473ffffffffffffffffffffffffffffffffffffffff16905081600660006101000a81548173ffffffffffffffffffffffffffffffffffffffff021916908373ffffffffffffffffffffffffffffffffffffffff1602179055507f43fcfef38622d6a5b118be09c27a6ed8cbdbfca21f0ea9245412ce8031c0423c82826040516127cc929190615655565b60405180910390a15050565b600760009054906101000a900473ffffffffffffffffffffffffffffffffffffffff1681565b600060028081111561280c57fe5b600960008473ffffffffffffffffffffffffffffffffffffffff1673ffffffffffffffffffffffffffffffffffffffff16815260200190815260200160002060009054906101000a900460ff16600281111561286457fe5b149050919050565b6000600160008473ffffffffffffffffffffffffffffffffffffffff1673ffffffffffffffffffffffffffffffffffffffff16815260200190815260200160002060008373ffffffffffffffffffffffffffffffffffffffff1673ffffffffffffffffffffffffffffffffffffffff16815260200190815260200160002054905092915050565b600061298e82600b80548060200260200160405190810160405280929190818152602001828054801561297b57602002820191906000526020600020905b8160009054906101000a900473ffffffffffffffffffffffffffffffffffffffff1673ffffffffffffffffffffffffffffffffffffffff1681526020019060010190808311612931575b505050505061382390919063ffffffff16565b9050919050565b61299d613205565b6129a5613395565b600c60008373ffffffffffffffffffffffffffffffffffffffff1673ffffffffffffffffffffffffffffffffffffffff168152602001908152602001600020600101819080600181540180825580915050600190039060005260206000200160009091909190916101000a81548173ffffffffffffffffffffffffffffffffffffffff021916908373ffffffffffffffffffffffffffffffffffffffff1602179055508073ffffffffffffffffffffffffffffffffffffffff168273ffffffffffffffffffffffffffffffffffffffff167ff71324fa78e1894b364a1fc8d0535c4208f28c7b380f752afe00c8ce386023fb60405160405180910390a35050565b600080612ab283611735565b90506060612abf84613753565b905060008090505b8151811015612b0e57612aff612af086848481518110612ae357fe5b602002602001015161110f565b84613bf090919063ffffffff16565b92508080600101915050612ac7565b508192505050919050565b600560019054906101000a900473ffffffffffffffffffffffffffffffffffffffff1681565b612b47613205565b600a60009054906101000a900460ff1615612b97576040517f08c379a0000000000000000000000000000000000000000000000000000000008152600401612b8e906157cf565b60405180910390fd5b33600760006101000a81548173ffffffffffffffffffffffffffffffffffffffff021916908373ffffffffffffffffffffffffffffffffffffffff1602179055506001600a60006101000a81548160ff021916908315150217905550565b6000670de0b6b3a7640000905090565b600033905090565b600073ffffffffffffffffffffffffffffffffffffffff168373ffffffffffffffffffffffffffffffffffffffff161415612c7d576040517f08c379a0000000000000000000000000000000000000000000000000000000008152600401612c7490615a8f565b60405180910390fd5b600073ffffffffffffffffffffffffffffffffffffffff168273ffffffffffffffffffffffffffffffffffffffff161415612ced576040517f08c379a0000000000000000000000000000000000000000000000000000000008152600401612ce49061586f565b60405180910390fd5b80600160008573ffffffffffffffffffffffffffffffffffffffff1673ffffffffffffffffffffffffffffffffffffffff16815260200190815260200160002060008473ffffffffffffffffffffffffffffffffffffffff1673ffffffffffffffffffffffffffffffffffffffff168152602001908152602001600020819055508173ffffffffffffffffffffffffffffffffffffffff168373ffffffffffffffffffffffffffffffffffffffff167f8c5be1e5ebec7d5bd14f71427d1e84f3dd0314c0f7b2291e5b200ac8c7c3b92583604051612dcb9190615baf565b60405180910390a3505050565b600660009054906101000a900473ffffffffffffffffffffffffffffffffffffffff1673ffffffffffffffffffffffffffffffffffffffff163373ffffffffffffffffffffffffffffffffffffffff1614612e68576040517f08c379a0000000000000000000000000000000000000000000000000000000008152600401612e5f90615b0f565b60405180910390fd5b565b6000600c60008473ffffffffffffffffffffffffffffffffffffffff1673ffffffffffffffffffffffffffffffffffffffff16815260200190815260200160002060020160008373ffffffffffffffffffffffffffffffffffffffff1673ffffffffffffffffffffffffffffffffffffffff16815260200190815260200160002060000154905092915050565b6000612f0e600d5483613c6890919063ffffffff16565b9050919050565b600073ffffffffffffffffffffffffffffffffffffffff168373ffffffffffffffffffffffffffffffffffffffff161415612f85576040517f08c379a0000000000000000000000000000000000000000000000000000000008152600401612f7c90615a6f565b60405180910390fd5b600073ffffffffffffffffffffffffffffffffffffffff168273ffffffffffffffffffffffffffffffffffffffff161415612ff5576040517f08c379a0000000000000000000000000000000000000000000000000000000008152600401612fec906157ef565b60405180910390fd5b613000838383613c96565b61306b81604051806060016040528060268152602001615e68602691396000808773ffffffffffffffffffffffffffffffffffffffff1673ffffffffffffffffffffffffffffffffffffffff168152602001908152602001600020546131aa9092919063ffffffff16565b6000808573ffffffffffffffffffffffffffffffffffffffff1673ffffffffffffffffffffffffffffffffffffffff168152602001908152602001600020819055506130fe816000808573ffffffffffffffffffffffffffffffffffffffff1673ffffffffffffffffffffffffffffffffffffffff168152602001908152602001600020546134b090919063ffffffff16565b6000808473ffffffffffffffffffffffffffffffffffffffff1673ffffffffffffffffffffffffffffffffffffffff168152602001908152602001600020819055508173ffffffffffffffffffffffffffffffffffffffff168373ffffffffffffffffffffffffffffffffffffffff167fddf252ad1be2c89b69c2b068fc378daa952ba7f163c4a11628f55a4df523b3ef8360405161319d9190615baf565b60405180910390a3505050565b60008383111582906131f2576040517f08c379a00000000000000000000000000000000000000000000000000000000081526004016131e991906157ad565b60405180910390fd5b5060008385039050809150509392505050565b60028081111561321157fe5b600960003373ffffffffffffffffffffffffffffffffffffffff1673ffffffffffffffffffffffffffffffffffffffff16815260200190815260200160002060009054906101000a900460ff16600281111561326957fe5b146132a9576040517f08c379a00000000000000000000000000000000000000000000000000000000081526004016132a09061596f565b60405180910390fd5b600560019054906101000a900473ffffffffffffffffffffffffffffffffffffffff1673ffffffffffffffffffffffffffffffffffffffff166342f6e389336040518263ffffffff1660e01b8152600401613304919061563a565b60206040518083038186803b15801561331c57600080fd5b505afa158015613330573d6000803e3d6000fd5b505050506040513d601f19601f820116820180604052508101906133549190614908565b613393576040517f08c379a000000000000000000000000000000000000000000000000000000000815260040161338a90615acf565b60405180910390fd5b565b600a60009054906101000a900460ff161561343b57600760009054906101000a900473ffffffffffffffffffffffffffffffffffffffff1673ffffffffffffffffffffffffffffffffffffffff163373ffffffffffffffffffffffffffffffffffffffff161461343a576040517f08c379a00000000000000000000000000000000000000000000000000000000081526004016134319061594f565b60405180910390fd5b5b565b600080613455600d5484613c9b90919063ffffffff16565b90506000831380156134675750600081145b156134a7576040517f08c379a000000000000000000000000000000000000000000000000000000000815260040161349e906158ef565b60405180910390fd5b80915050919050565b6000808284019050838110156134fb576040517f08c379a00000000000000000000000000000000000000000000000000000000081526004016134f29061588f565b60405180910390fd5b8091505092915050565b600073ffffffffffffffffffffffffffffffffffffffff168273ffffffffffffffffffffffffffffffffffffffff161415613575576040517f08c379a000000000000000000000000000000000000000000000000000000000815260040161356c90615b6f565b60405180910390fd5b61358160008383613c96565b613596816002546134b090919063ffffffff16565b6002819055506135ed816000808573ffffffffffffffffffffffffffffffffffffffff1673ffffffffffffffffffffffffffffffffffffffff168152602001908152602001600020546134b090919063ffffffff16565b6000808473ffffffffffffffffffffffffffffffffffffffff1673ffffffffffffffffffffffffffffffffffffffff168152602001908152602001600020819055508173ffffffffffffffffffffffffffffffffffffffff16600073ffffffffffffffffffffffffffffffffffffffff167fddf252ad1be2c89b69c2b068fc378daa952ba7f163c4a11628f55a4df523b3ef8360405161368d9190615baf565b60405180910390a35050565b6000600c60008373ffffffffffffffffffffffffffffffffffffffff1673ffffffffffffffffffffffffffffffffffffffff168152602001908152602001600020600001549050919050565b60606000806136f48585613cc9565b9150915080613738576040517f08c379a000000000000000000000000000000000000000000000000000000000815260040161372f9061580f565b60405180910390fd5b60606137448684613d73565b50905080935050505092915050565b6060600c60008373ffffffffffffffffffffffffffffffffffffffff1673ffffffffffffffffffffffffffffffffffffffff16815260200190815260200160002060010180548060200260200160405190810160405280929190818152602001828054801561381757602002820191906000526020600020905b8160009054906101000a900473ffffffffffffffffffffffffffffffffffffffff1673ffffffffffffffffffffffffffffffffffffffff16815260200190600101908083116137cd575b50505050509050919050565b6000806138308484613cc9565b9150508091505092915050565b60008060008090505b600b805490508110156138e6576000600b828154811061386257fe5b9060005260206000200160009054906101000a900473ffffffffffffffffffffffffffffffffffffffff169050600061389a82613699565b13156138a95782806001019350505b60606138b482613753565b90506000815111156138d7576138d48151856134b090919063ffffffff16565b93505b50508080600101915050613846565b508091505090565b6060600c60008473ffffffffffffffffffffffffffffffffffffffff1673ffffffffffffffffffffffffffffffffffffffff16815260200190815260200160002060020160008373ffffffffffffffffffffffffffffffffffffffff1673ffffffffffffffffffffffffffffffffffffffff1681526020019081526020016000206001018054600181600116156101000203166002900480601f016020809104026020016040519081016040528092919081815260200182805460018160011615610100020316600290048015613a065780601f106139db57610100808354040283529160200191613a06565b820191906000526020600020905b8154815290600101906020018083116139e957829003601f168201915b5050505050905092915050565b6060613a39848484604051806060016040528060298152602001615e8e60299139613f21565b90509392505050565b600073ffffffffffffffffffffffffffffffffffffffff168273ffffffffffffffffffffffffffffffffffffffff161415613ab2576040517f08c379a0000000000000000000000000000000000000000000000000000000008152600401613aa990615a2f565b60405180910390fd5b613abe82600083613c96565b613b2981604051806060016040528060228152602001615e46602291396000808673ffffffffffffffffffffffffffffffffffffffff1673ffffffffffffffffffffffffffffffffffffffff168152602001908152602001600020546131aa9092919063ffffffff16565b6000808473ffffffffffffffffffffffffffffffffffffffff1673ffffffffffffffffffffffffffffffffffffffff16815260200190815260200160002081905550613b808160025461403690919063ffffffff16565b600281905550600073ffffffffffffffffffffffffffffffffffffffff168273ffffffffffffffffffffffffffffffffffffffff167fddf252ad1be2c89b69c2b068fc378daa952ba7f163c4a11628f55a4df523b3ef83604051613be49190615baf565b60405180910390a35050565b600080828401905060008312158015613c095750838112155b80613c1f5750600083128015613c1e57508381125b5b613c5e576040517f08c379a0000000000000000000000000000000000000000000000000000000008152600401613c55906158af565b60405180910390fd5b8091505092915050565b6000613c8e613c80838561408090919063ffffffff16565b670de0b6b3a764000061417e565b905092915050565b505050565b6000613cc1613cbb670de0b6b3a76400008561408090919063ffffffff16565b8361417e565b905092915050565b60008060008451905060008090505b81811015613d42578473ffffffffffffffffffffffffffffffffffffffff16868281518110613d0357fe5b602002602001015173ffffffffffffffffffffffffffffffffffffffff161415613d3557806001935093505050613d6c565b8080600101915050613cd8565b507fffffffffffffffffffffffffffffffffffffffffffffffffffffffffffffffff600092509250505b9250929050565b60606000808451905084518410613dbf576040517f08c379a0000000000000000000000000000000000000000000000000000000008152600401613db69061582f565b60405180910390fd5b60606001820367ffffffffffffffff81118015613ddb57600080fd5b50604051908082528060200260200182016040528015613e0a5781602001602082028036833780820191505090505b50905060008090505b85811015613e8257868181518110613e2757fe5b6020026020010151828281518110613e3b57fe5b602002602001019073ffffffffffffffffffffffffffffffffffffffff16908173ffffffffffffffffffffffffffffffffffffffff16815250508080600101915050613e13565b5060006001860190505b82811015613efe57868181518110613ea057fe5b6020026020010151826001830381518110613eb757fe5b602002602001019073ffffffffffffffffffffffffffffffffffffffff16908173ffffffffffffffffffffffffffffffffffffffff16815250508080600101915050613e8c565b5080868681518110613f0c57fe5b60200260200101519350935050509250929050565b606082471015613f66576040517f08c379a0000000000000000000000000000000000000000000000000000000008152600401613f5d906158cf565b60405180910390fd5b613f6f8561429a565b613fae576040517f08c379a0000000000000000000000000000000000000000000000000000000008152600401613fa590615aaf565b60405180910390fd5b600060608673ffffffffffffffffffffffffffffffffffffffff168587604051613fd89190615608565b60006040518083038185875af1925050503d8060008114614015576040519150601f19603f3d011682016040523d82523d6000602084013e61401a565b606091505b509150915061402a8282866142ad565b92505050949350505050565b600061407883836040518060400160405280601e81526020017f536166654d6174683a207375627472616374696f6e206f766572666c6f7700008152506131aa565b905092915050565b6000808314156140935760009050614178565b7fffffffffffffffffffffffffffffffffffffffffffffffffffffffffffffffff831480156140e157507f800000000000000000000000000000000000000000000000000000000000000082145b15614121576040517f08c379a0000000000000000000000000000000000000000000000000000000008152600401614118906159cf565b60405180910390fd5b600082840290508284828161413257fe5b0514614173576040517f08c379a000000000000000000000000000000000000000000000000000000000815260040161416a906159cf565b60405180910390fd5b809150505b92915050565b6000808214156141c3576040517f08c379a00000000000000000000000000000000000000000000000000000000081526004016141ba90615b8f565b60405180910390fd5b7f80000000000000000000000000000000000000000000000000000000000000008314158061421257507fffffffffffffffffffffffffffffffffffffffffffffffffffffffffffffffff8214155b614251576040517f08c379a000000000000000000000000000000000000000000000000000000000815260040161424890615a0f565b60405180910390fd5b6000614266838561431490919063ffffffff16565b905060008385181280156142845750600083858161428057fe5b0714155b15614290576001810390505b8091505092915050565b600080823b905060008111915050919050565b606083156142bd5782905061430d565b6000835111156142d05782518084602001fd5b816040517f08c379a000000000000000000000000000000000000000000000000000000000815260040161430491906157ad565b60405180910390fd5b9392505050565b600080821415614359576040517f08c379a000000000000000000000000000000000000000000000000000000000815260040161435090615b2f565b60405180910390fd5b7fffffffffffffffffffffffffffffffffffffffffffffffffffffffffffffffff821480156143a757507f800000000000000000000000000000000000000000000000000000000000000083145b156143e7576040517f08c379a00000000000000000000000000000000000000000000000000000000081526004016143de9061598f565b60405180910390fd5b60008284816143f257fe5b0590508091505092915050565b828054600181600116156101000203166002900490600052602060002090601f016020900481019282601f1061444057803560ff191683800117855561446e565b8280016001018555821561446e579182015b8281111561446d578235825591602001919060010190614452565b5b50905061447b91906145af565b5090565b8280548282559060005260206000209081019282156144f8579160200282015b828111156144f75782518260006101000a81548173ffffffffffffffffffffffffffffffffffffffff021916908373ffffffffffffffffffffffffffffffffffffffff1602179055509160200191906001019061449f565b5b50905061450591906145d4565b5090565b6040518060a00160405280600073ffffffffffffffffffffffffffffffffffffffff168152602001600073ffffffffffffffffffffffffffffffffffffffff16815260200160008152602001600060ff168152602001606081525090565b50805460018160011615610100020316600290046000825580601f1061458d57506145ac565b601f0160209004906000526020600020908101906145ab91906145af565b5b50565b6145d191905b808211156145cd5760008160009055506001016145b5565b5090565b90565b61461491905b8082111561461057600081816101000a81549073ffffffffffffffffffffffffffffffffffffffff0219169055506001016145da565b5090565b90565b60008135905061462681615de9565b92915050565b60008151905061463b81615e00565b92915050565b60008083601f84011261465357600080fd5b8235905067ffffffffffffffff81111561466c57600080fd5b60208301915083600182028301111561468457600080fd5b9250929050565b60008135905061469a81615e17565b92915050565b6000813590506146af81615e2e565b92915050565b6000602082840312156146c757600080fd5b60006146d584828501614617565b91505092915050565b600080604083850312156146f157600080fd5b60006146ff85828601614617565b925050602061471085828601614617565b9150509250929050565b6000806000806060858703121561473057600080fd5b600061473e87828801614617565b945050602061474f87828801614617565b935050604085013567ffffffffffffffff81111561476c57600080fd5b61477887828801614641565b925092505092959194509250565b60008060006060848603121561479b57600080fd5b60006147a986828701614617565b93505060206147ba86828701614617565b92505060406147cb8682870161468b565b9150509250925092565b6000806000606084860312156147ea57600080fd5b60006147f886828701614617565b935050602061480986828701614617565b925050604061481a868287016146a0565b9150509250925092565b6000806040838503121561483757600080fd5b600061484585828601614617565b92505060206148568582860161468b565b9150509250929050565b6000806040838503121561487357600080fd5b600061488185828601614617565b9250506020614892858286016146a0565b9150509250929050565b600080600080606085870312156148b257600080fd5b60006148c087828801614617565b94505060206148d1878288016146a0565b935050604085013567ffffffffffffffff8111156148ee57600080fd5b6148fa87828801614641565b925092505092959194509250565b60006020828403121561491a57600080fd5b60006149288482850161462c565b91505092915050565b60006020828403121561494357600080fd5b60006149518482850161468b565b91505092915050565b60006020828403121561496c57600080fd5b600061497a848285016146a0565b91505092915050565b600061498f83836149be565b60208301905092915050565b60006149a78383615565565b905092915050565b6149b881615d1d565b82525050565b6149c781615cab565b82525050565b6149d681615cab565b82525050565b60006149e782615c05565b6149f18185615c4b565b93506149fc83615be5565b8060005b83811015614a2d578151614a148882614983565b9750614a1f83615c31565b925050600181019050614a00565b5085935050505092915050565b6000614a4582615c10565b614a4f8185615c5c565b935083602082028501614a6185615bf5565b8060005b85811015614a9d5784840389528151614a7e858261499b565b9450614a8983615c3e565b925060208a01995050600181019050614a65565b50829750879550505050505092915050565b614ab881615cbd565b82525050565b6000614aca8385615c7e565b9350614ad7838584615d89565b614ae083615dcb565b840190509392505050565b6000614af682615c1b565b614b008185615c6d565b9350614b10818560208601615d98565b614b1981615dcb565b840191505092915050565b6000614b2f82615c1b565b614b398185615c7e565b9350614b49818560208601615d98565b614b5281615dcb565b840191505092915050565b6000614b6882615c1b565b614b728185615c8f565b9350614b82818560208601615d98565b80840191505092915050565b614b9781615d2f565b82525050565b614ba681615d53565b82525050565b614bb581615cdc565b82525050565b614bc481615cdc565b82525050565b6000614bd582615c26565b614bdf8185615c9a565b9350614bef818560208601615d98565b614bf881615dcb565b840191505092915050565b6000614c10601283615c9a565b91507f4d757374206e6f74206265206c6f636b656400000000000000000000000000006000830152602082019050919050565b6000614c50602383615c9a565b91507f45524332303a207472616e7366657220746f20746865207a65726f206164647260008301527f65737300000000000000000000000000000000000000000000000000000000006020830152604082019050919050565b6000614cb6601583615c9a565b91507f41646472657373206e6f7420696e2061727261792e00000000000000000000006000830152602082019050919050565b6000614cf6601883615c9a565b91507f496e646578206d757374206265203c2041206c656e67746800000000000000006000830152602082019050919050565b6000614d36601883615c9a565b91507f4d6f64756c65206d757374206e6f7420626520616464656400000000000000006000830152602082019050919050565b6000614d76602283615c9a565b91507f45524332303a20617070726f766520746f20746865207a65726f20616464726560008301527f73730000000000000000000000000000000000000000000000000000000000006020830152604082019050919050565b6000614ddc601b83615c9a565b91507f536166654d6174683a206164646974696f6e206f766572666c6f7700000000006000830152602082019050919050565b6000614e1c602183615c9a565b91507f5369676e6564536166654d6174683a206164646974696f6e206f766572666c6f60008301527f77000000000000000000000000000000000000000000000000000000000000006020830152604082019050919050565b6000614e82602683615c9a565b91507f416464726573733a20696e73756666696369656e742062616c616e636520666f60008301527f722063616c6c00000000000000000000000000000000000000000000000000006020830152604082019050919050565b6000614ee8601f83615c9a565b91507f5669727475616c20756e697420636f6e76657273696f6e20696e76616c6964006000830152602082019050919050565b6000614f28601483615c9a565b91507f4d6f64756c65206d7573742062652061646465640000000000000000000000006000830152602082019050919050565b6000614f68601683615c9a565b91507f4d7573742062652067726561746572207468616e2030000000000000000000006000830152602082019050919050565b6000614fa8602583615c9a565b91507f5768656e206c6f636b65642c206f6e6c7920746865206c6f636b65722063616e60008301527f2063616c6c0000000000000000000000000000000000000000000000000000006020830152604082019050919050565b600061500e601883615c9a565b91507f4f6e6c7920746865206d6f64756c652063616e2063616c6c00000000000000006000830152602082019050919050565b600061504e602183615c9a565b91507f5369676e6564536166654d6174683a206469766973696f6e206f766572666c6f60008301527f77000000000000000000000000000000000000000000000000000000000000006020830152604082019050919050565b60006150b4601d83615c9a565b91507f4d75737420626520656e61626c6564206f6e20436f6e74726f6c6c65720000006000830152602082019050919050565b60006150f4602783615c9a565b91507f5369676e6564536166654d6174683a206d756c7469706c69636174696f6e206f60008301527f766572666c6f77000000000000000000000000000000000000000000000000006020830152604082019050919050565b600061515a600e83615c9a565b91507f4d757374206265206c6f636b65640000000000000000000000000000000000006000830152602082019050919050565b600061519a600d83615c9a565b91507f496e76616c696420696e707574000000000000000000000000000000000000006000830152602082019050919050565b60006151da602183615c9a565b91507f45524332303a206275726e2066726f6d20746865207a65726f2061646472657360008301527f73000000000000000000000000000000000000000000000000000000000000006020830152604082019050919050565b6000615240600e83615c9a565b91507f4d757374206265206c6f636b65720000000000000000000000000000000000006000830152602082019050919050565b6000615280602583615c9a565b91507f45524332303a207472616e736665722066726f6d20746865207a65726f20616460008301527f64726573730000000000000000000000000000000000000000000000000000006020830152604082019050919050565b60006152e6602483615c9a565b91507f45524332303a20617070726f76652066726f6d20746865207a65726f2061646460008301527f72657373000000000000000000000000000000000000000000000000000000006020830152604082019050919050565b600061534c601d83615c9a565b91507f416464726573733a2063616c6c20746f206e6f6e2d636f6e74726163740000006000830152602082019050919050565b600061538c602483615c9a565b91507f4d6f64756c65206d75737420626520656e61626c6564206f6e20636f6e74726f60008301527f6c6c6572000000000000000000000000000000000000000000000000000000006020830152604082019050919050565b60006153f2601283615c9a565b91507f4f6e6c79207768656e20756e6c6f636b656400000000000000000000000000006000830152602082019050919050565b6000615432601583615c9a565b91507f4f6e6c79206d616e616765722063616e2063616c6c00000000000000000000006000830152602082019050919050565b6000615472602083615c9a565b91507f5369676e6564536166654d6174683a206469766973696f6e206279207a65726f6000830152602082019050919050565b60006154b2601683615c9a565b91507f4d6f64756c65206d7573742062652070656e64696e67000000000000000000006000830152602082019050919050565b60006154f2601f83615c9a565b91507f45524332303a206d696e7420746f20746865207a65726f2061646472657373006000830152602082019050919050565b6000615532601083615c9a565b91507f43616e74206469766964652062792030000000000000000000000000000000006000830152602082019050919050565b600060a08301600083015161557d60008601826149be565b50602083015161559060208601826149be565b5060408301516155a36040860182614bac565b5060608301516155b660608601826155ea565b50608083015184820360808601526155ce8282614aeb565b9150508091505092915050565b6155e481615d06565b82525050565b6155f381615d10565b82525050565b61560281615d10565b82525050565b60006156148284614b5d565b915081905092915050565b600060208201905061563460008301846149cd565b92915050565b600060208201905061564f60008301846149af565b92915050565b600060408201905061566a60008301856149cd565b61567760208301846149cd565b9392505050565b6000602082019050818103600083015261569881846149dc565b905092915050565b600060208201905081810360008301526156ba8184614a3a565b905092915050565b60006020820190506156d76000830184614aaf565b92915050565b600060208201905081810360008301526156f8818486614abe565b90509392505050565b6000604082019050818103600083015261571c818587614abe565b905081810360208301526157308184614b24565b9050949350505050565b600060208201905081810360008301526157548184614b24565b905092915050565b60006020820190506157716000830184614b8e565b92915050565b600060208201905061578c6000830184614b9d565b92915050565b60006020820190506157a76000830184614bbb565b92915050565b600060208201905081810360008301526157c78184614bca565b905092915050565b600060208201905081810360008301526157e881614c03565b9050919050565b6000602082019050818103600083015261580881614c43565b9050919050565b6000602082019050818103600083015261582881614ca9565b9050919050565b6000602082019050818103600083015261584881614ce9565b9050919050565b6000602082019050818103600083015261586881614d29565b9050919050565b6000602082019050818103600083015261588881614d69565b9050919050565b600060208201905081810360008301526158a881614dcf565b9050919050565b600060208201905081810360008301526158c881614e0f565b9050919050565b600060208201905081810360008301526158e881614e75565b9050919050565b6000602082019050818103600083015261590881614edb565b9050919050565b6000602082019050818103600083015261592881614f1b565b9050919050565b6000602082019050818103600083015261594881614f5b565b9050919050565b6000602082019050818103600083015261596881614f9b565b9050919050565b6000602082019050818103600083015261598881615001565b9050919050565b600060208201905081810360008301526159a881615041565b9050919050565b600060208201905081810360008301526159c8816150a7565b9050919050565b600060208201905081810360008301526159e8816150e7565b9050919050565b60006020820190508181036000830152615a088161514d565b9050919050565b60006020820190508181036000830152615a288161518d565b9050919050565b60006020820190508181036000830152615a48816151cd565b9050919050565b60006020820190508181036000830152615a6881615233565b9050919050565b60006020820190508181036000830152615a8881615273565b9050919050565b60006020820190508181036000830152615aa8816152d9565b9050919050565b60006020820190508181036000830152615ac88161533f565b9050919050565b60006020820190508181036000830152615ae88161537f565b9050919050565b60006020820190508181036000830152615b08816153e5565b9050919050565b60006020820190508181036000830152615b2881615425565b9050919050565b60006020820190508181036000830152615b4881615465565b9050919050565b60006020820190508181036000830152615b68816154a5565b9050919050565b60006020820190508181036000830152615b88816154e5565b9050919050565b60006020820190508181036000830152615ba881615525565b9050919050565b6000602082019050615bc460008301846155db565b92915050565b6000602082019050615bdf60008301846155f9565b92915050565b6000819050602082019050919050565b6000819050602082019050919050565b600081519050919050565b600081519050919050565b600081519050919050565b600081519050919050565b6000602082019050919050565b6000602082019050919050565b600082825260208201905092915050565b600082825260208201905092915050565b600082825260208201905092915050565b600082825260208201905092915050565b600081905092915050565b600082825260208201905092915050565b6000615cb682615ce6565b9050919050565b60008115159050919050565b6000819050615cd782615ddc565b919050565b6000819050919050565b600073ffffffffffffffffffffffffffffffffffffffff82169050919050565b6000819050919050565b600060ff82169050919050565b6000615d2882615d65565b9050919050565b6000615d3a82615d41565b9050919050565b6000615d4c82615ce6565b9050919050565b6000615d5e82615cc9565b9050919050565b6000615d7082615d77565b9050919050565b6000615d8282615ce6565b9050919050565b82818337600083830152505050565b60005b83811015615db6578082015181840152602081019050615d9b565b83811115615dc5576000848401525b50505050565b6000601f19601f8301169050919050565b60038110615de657fe5b50565b615df281615cab565b8114615dfd57600080fd5b50565b615e0981615cbd565b8114615e1457600080fd5b50565b615e2081615cdc565b8114615e2b57600080fd5b50565b615e3781615d06565b8114615e4257600080fd5b5056fe45524332303a206275726e20616d6f756e7420657863656564732062616c616e636545524332303a207472616e7366657220616d6f756e7420657863656564732062616c616e6365416464726573733a206c6f772d6c6576656c2063616c6c20776974682076616c7565206661696c656445524332303a207472616e7366657220616d6f756e74206578636565647320616c6c6f77616e636545524332303a2064656372656173656420616c6c6f77616e63652062656c6f77207a65726fa26469706673582212205c7ca1b14a6edcbe165eb247f9f50d5e3caac3c7bb9bdd4bd37fb128a29f147e64736f6c634300060a0033a26469706673582212203b5b6d19a6371eaece7bb85a073f55eb2e18c21524a5b8a587ed5bfe7fd329a564736f6c634300060a0033",
  "immutableReferences": {},
  "source": "/*\n    Copyright 2020 Set Labs Inc.\n\n    Licensed under the Apache License, Version 2.0 (the \"License\");\n    you may not use this file except in compliance with the License.\n    You may obtain a copy of the License at\n\n    http://www.apache.org/licenses/LICENSE-2.0\n\n    Unless required by applicable law or agreed to in writing, software\n    distributed under the License is distributed on an \"AS IS\" BASIS,\n    WITHOUT WARRANTIES OR CONDITIONS OF ANY KIND, either express or implied.\n    See the License for the specific language governing permissions and\n    limitations under the License.\n\n    SPDX-License-Identifier: Apache License, Version 2.0\n*/\n\npragma solidity 0.6.10;\npragma experimental \"ABIEncoderV2\";\n\nimport { IController } from \"../interfaces/IController.sol\";\nimport { SetToken } from \"./SetToken.sol\";\nimport { AddressArrayUtils } from \"../lib/AddressArrayUtils.sol\";\n\n/**\n * @title SetTokenCreator\n * @author Set Protocol\n *\n * SetTokenCreator is a smart contract used to deploy new SetToken contracts. The SetTokenCreator\n * is a Factory contract that is enabled by the controller to create and register new SetTokens.\n */\ncontract SetTokenCreator {\n    using AddressArrayUtils for address[];\n\n    /* ============ Events ============ */\n\n    event SetTokenCreated(address indexed _setToken, address _manager, string _name, string _symbol);\n\n    /* ============ State Variables ============ */\n\n    // Instance of the controller smart contract\n    IController public controller;\n\n    /* ============ Functions ============ */\n\n    /**\n     * @param _controller          Instance of the controller\n     */\n    constructor(IController _controller) public {\n        controller = _controller;\n    }\n\n    /**\n     * Creates a SetToken smart contract and registers the SetToken with the controller. The SetTokens are composed\n     * of positions that are instantiated as DEFAULT (positionState = 0) state.\n     *\n     * @param _components             List of addresses of components for initial Positions\n     * @param _units                  List of units. Each unit is the # of components per 10^18 of a SetToken\n     * @param _modules                List of modules to enable. All modules must be approved by the Controller\n     * @param _manager                Address of the manager\n     * @param _name                   Name of the SetToken\n     * @param _symbol                 Symbol of the SetToken\n     * @return address                Address of the newly created SetToken\n     */\n    function create(\n        address[] memory _components,\n        int256[] memory _units,\n        address[] memory _modules,\n        address _manager,\n        string memory _name,\n        string memory _symbol\n    )\n        external\n        returns (address)\n    {\n        require(_components.length > 0, \"Must have at least 1 component\");\n        require(_components.length == _units.length, \"Component and unit lengths must be the same\");\n        require(!_components.hasDuplicate(), \"Components must not have a duplicate\");\n        require(_modules.length > 0, \"Must have at least 1 module\");\n        require(_manager != address(0), \"Manager must not be empty\");\n\n        for (uint256 i = 0; i < _components.length; i++) {\n            require(_components[i] != address(0), \"Component must not be null address\");\n            require(_units[i] > 0, \"Units must be greater than 0\");\n        }\n\n        for (uint256 j = 0; j < _modules.length; j++) {\n            require(controller.isModule(_modules[j]), \"Must be enabled module\");\n        }\n\n        // Creates a new SetToken instance\n        SetToken setToken = new SetToken(\n            _components,\n            _units,\n            _modules,\n            controller,\n            _manager,\n            _name,\n            _symbol\n        );\n\n        // Registers Set with controller\n        controller.addSet(address(setToken));\n\n        emit SetTokenCreated(address(setToken), _manager, _name, _symbol);\n\n        return address(setToken);\n    }\n}\n\n",
  "sourcePath": "/Users/tahadhailey/Documents/top5/top5swap/swap/contracts/protocol/SetTokenCreator.sol",
  "compiler": {
    "name": "solc",
    "version": "0.6.10+commit.00c0fcaf.Emscripten.clang"
  },
  "schemaVersion": "3.2.1",
  "updatedAt": "2021-01-21T08:20:37.682Z",
  "devdoc": {
    "author": "Set Protocol SetTokenCreator is a smart contract used to deploy new SetToken contracts. The SetTokenCreator is a Factory contract that is enabled by the controller to create and register new SetTokens.",
    "methods": {
      "constructor": {
        "params": {
          "_controller": "Instance of the controller"
        }
      },
      "create(address[],int256[],address[],address,string,string)": {
        "params": {
          "_components": "List of addresses of components for initial Positions",
          "_manager": "Address of the manager",
          "_modules": "List of modules to enable. All modules must be approved by the Controller",
          "_name": "Name of the SetToken",
          "_symbol": "Symbol of the SetToken",
          "_units": "List of units. Each unit is the # of components per 10^18 of a SetToken"
        },
        "returns": {
          "_0": "address                Address of the newly created SetToken"
        }
      }
    },
    "title": "SetTokenCreator"
  },
  "userdoc": {
    "methods": {
      "create(address[],int256[],address[],address,string,string)": {
        "notice": "Creates a SetToken smart contract and registers the SetToken with the controller. The SetTokens are composed of positions that are instantiated as DEFAULT (positionState = 0) state."
      }
    }
  }
}