{
  "contractName": "SetTokenViewer",
  "abi": [
    {
      "inputs": [
        {
          "internalType": "contract ISetToken[]",
          "name": "_setTokens",
          "type": "address[]"
        }
      ],
      "name": "batchFetchManagers",
      "outputs": [
        {
          "internalType": "address[]",
          "name": "",
          "type": "address[]"
        }
      ],
      "stateMutability": "view",
      "type": "function"
    },
    {
      "inputs": [
        {
          "internalType": "contract ISetToken[]",
          "name": "_setTokens",
          "type": "address[]"
        },
        {
          "internalType": "address[]",
          "name": "_modules",
          "type": "address[]"
        }
      ],
      "name": "batchFetchModuleStates",
      "outputs": [
        {
          "internalType": "enum ISetToken.ModuleState[][]",
          "name": "",
          "type": "uint8[][]"
        }
      ],
      "stateMutability": "view",
      "type": "function"
    },
    {
      "inputs": [
        {
          "internalType": "contract ISetToken",
          "name": "_setToken",
          "type": "address"
        },
        {
          "internalType": "address[]",
          "name": "_moduleList",
          "type": "address[]"
        }
      ],
      "name": "getSetDetails",
      "outputs": [
        {
          "components": [
            {
              "internalType": "string",
              "name": "name",
              "type": "string"
            },
            {
              "internalType": "string",
              "name": "symbol",
              "type": "string"
            },
            {
              "internalType": "address",
              "name": "manager",
              "type": "address"
            },
            {
              "internalType": "address[]",
              "name": "modules",
              "type": "address[]"
            },
            {
              "internalType": "enum ISetToken.ModuleState[]",
              "name": "moduleStatuses",
              "type": "uint8[]"
            },
            {
              "components": [
                {
                  "internalType": "address",
                  "name": "component",
                  "type": "address"
                },
                {
                  "internalType": "address",
                  "name": "module",
                  "type": "address"
                },
                {
                  "internalType": "int256",
                  "name": "unit",
                  "type": "int256"
                },
                {
                  "internalType": "uint8",
                  "name": "positionState",
                  "type": "uint8"
                },
                {
                  "internalType": "bytes",
                  "name": "data",
                  "type": "bytes"
                }
              ],
              "internalType": "struct ISetToken.Position[]",
              "name": "positions",
              "type": "tuple[]"
            },
            {
              "internalType": "uint256",
              "name": "totalSupply",
              "type": "uint256"
            }
          ],
          "internalType": "struct SetTokenViewer.SetDetails",
          "name": "",
          "type": "tuple"
        }
      ],
      "stateMutability": "view",
      "type": "function"
    }
  ],
  "bytecode": "0x608060405234801561001057600080fd5b50611712806100206000396000f3fe608060405234801561001057600080fd5b50600436106100415760003560e01c80631453a29914610046578063c094686e14610076578063e7aed7ab146100a6575b600080fd5b610060600480360381019061005b9190610ca0565b6100d6565b60405161006d91906112ee565b60405180910390f35b610090600480360381019061008b9190610d92565b610220565b60405161009d9190611332565b60405180910390f35b6100c060048036038101906100bb9190610ce1565b61062f565b6040516100cd9190611310565b60405180910390f35b606080825167ffffffffffffffff811180156100f157600080fd5b506040519080825280602002602001820160405280156101205781602001602082028036833780820191505090505b50905060008090505b83518110156102165783818151811061013e57fe5b602002602001015173ffffffffffffffffffffffffffffffffffffffff1663481c6a756040518163ffffffff1660e01b815260040160206040518083038186803b15801561018b57600080fd5b505afa15801561019f573d6000803e3d6000fd5b505050506040513d601f19601f820116820180604052508101906101c39190610c36565b8282815181106101cf57fe5b602002602001019073ffffffffffffffffffffffffffffffffffffffff16908173ffffffffffffffffffffffffffffffffffffffff16815250508080600101915050610129565b5080915050919050565b61022861081b565b6060600167ffffffffffffffff8111801561024257600080fd5b506040519080825280602002602001820160405280156102715781602001602082028036833780820191505090505b509050848160008151811061028257fe5b602002602001019073ffffffffffffffffffffffffffffffffffffffff16908173ffffffffffffffffffffffffffffffffffffffff16815250506040518060e001604052808673ffffffffffffffffffffffffffffffffffffffff166306fdde036040518163ffffffff1660e01b815260040160006040518083038186803b15801561030d57600080fd5b505afa158015610321573d6000803e3d6000fd5b505050506040513d6000823e3d601f19601f8201168201806040525081019061034a9190610e13565b81526020018673ffffffffffffffffffffffffffffffffffffffff166395d89b416040518163ffffffff1660e01b815260040160006040518083038186803b15801561039557600080fd5b505afa1580156103a9573d6000803e3d6000fd5b505050506040513d6000823e3d601f19601f820116820180604052508101906103d29190610e13565b81526020018673ffffffffffffffffffffffffffffffffffffffff1663481c6a756040518163ffffffff1660e01b815260040160206040518083038186803b15801561041d57600080fd5b505afa158015610431573d6000803e3d6000fd5b505050506040513d601f19601f820116820180604052508101906104559190610c36565b73ffffffffffffffffffffffffffffffffffffffff1681526020018673ffffffffffffffffffffffffffffffffffffffff1663b2494df36040518163ffffffff1660e01b815260040160006040518083038186803b1580156104b657600080fd5b505afa1580156104ca573d6000803e3d6000fd5b505050506040513d6000823e3d601f19601f820116820180604052508101906104f39190610c5f565b815260200161050383878761062f565b60008151811061050f57fe5b602002602001015181526020018673ffffffffffffffffffffffffffffffffffffffff1663802758606040518163ffffffff1660e01b815260040160006040518083038186803b15801561056257600080fd5b505afa158015610576573d6000803e3d6000fd5b505050506040513d6000823e3d601f19601f8201168201806040525081019061059f9190610d51565b81526020018673ffffffffffffffffffffffffffffffffffffffff166318160ddd6040518163ffffffff1660e01b815260040160206040518083038186803b1580156105ea57600080fd5b505afa1580156105fe573d6000803e3d6000fd5b505050506040513d601f19601f820116820180604052508101906106229190610e54565b8152509150509392505050565b606080845167ffffffffffffffff8111801561064a57600080fd5b5060405190808252806020026020018201604052801561067e57816020015b60608152602001906001900390816106695790505b50905060008090505b855181101561080f5760608585905067ffffffffffffffff811180156106ac57600080fd5b506040519080825280602002602001820160405280156106db5781602001602082028036833780820191505090505b50905060008090505b868690508110156107e8578783815181106106fb57fe5b602002602001015173ffffffffffffffffffffffffffffffffffffffff166335bc4e5288888481811061072a57fe5b905060200201602081019061073f9190610c0d565b6040518263ffffffff1660e01b815260040161075b91906112d3565b60206040518083038186803b15801561077357600080fd5b505afa158015610787573d6000803e3d6000fd5b505050506040513d601f19601f820116820180604052508101906107ab9190610dea565b8282815181106107b757fe5b602002602001019060028111156107ca57fe5b908160028111156107d757fe5b8152505080806001019150506106e4565b50808383815181106107f657fe5b6020026020010181905250508080600101915050610687565b50809150509392505050565b6040518060e001604052806060815260200160608152602001600073ffffffffffffffffffffffffffffffffffffffff168152602001606081526020016060815260200160608152602001600081525090565b60008135905061087d81611659565b92915050565b60008151905061089281611659565b92915050565b60008083601f8401126108aa57600080fd5b8235905067ffffffffffffffff8111156108c357600080fd5b6020830191508360208202830111156108db57600080fd5b9250929050565b600082601f8301126108f357600080fd5b815161090661090182611381565b611354565b9150818183526020840193506020810190508385602084028201111561092b57600080fd5b60005b8381101561095b57816109418882610883565b84526020840193506020830192505060018101905061092e565b5050505092915050565b600082601f83011261097657600080fd5b8135610989610984826113a9565b611354565b915081818352602084019350602081019050838560208402820111156109ae57600080fd5b60005b838110156109de57816109c48882610ab0565b8452602084019350602083019250506001810190506109b1565b5050505092915050565b600082601f8301126109f957600080fd5b8151610a0c610a07826113d1565b611354565b9150818183526020840193506020810190508360005b83811015610a525781518601610a388882610b43565b845260208401935060208301925050600181019050610a22565b5050505092915050565b600082601f830112610a6d57600080fd5b8151610a80610a7b826113f9565b611354565b91508082526020830160208301858383011115610a9c57600080fd5b610aa7838284611608565b50505092915050565b600081359050610abf81611670565b92915050565b600081519050610ad481611687565b92915050565b600081519050610ae981611697565b92915050565b600082601f830112610b0057600080fd5b8151610b13610b0e82611425565b611354565b91508082526020830160208301858383011115610b2f57600080fd5b610b3a838284611608565b50505092915050565b600060a08284031215610b5557600080fd5b610b5f60a0611354565b90506000610b6f84828501610883565b6000830152506020610b8384828501610883565b6020830152506040610b9784828501610ada565b6040830152506060610bab84828501610bf8565b606083015250608082015167ffffffffffffffff811115610bcb57600080fd5b610bd784828501610a5c565b60808301525092915050565b600081519050610bf2816116ae565b92915050565b600081519050610c07816116c5565b92915050565b600060208284031215610c1f57600080fd5b6000610c2d8482850161086e565b91505092915050565b600060208284031215610c4857600080fd5b6000610c5684828501610883565b91505092915050565b600060208284031215610c7157600080fd5b600082015167ffffffffffffffff811115610c8b57600080fd5b610c97848285016108e2565b91505092915050565b600060208284031215610cb257600080fd5b600082013567ffffffffffffffff811115610ccc57600080fd5b610cd884828501610965565b91505092915050565b600080600060408486031215610cf657600080fd5b600084013567ffffffffffffffff811115610d1057600080fd5b610d1c86828701610965565b935050602084013567ffffffffffffffff811115610d3957600080fd5b610d4586828701610898565b92509250509250925092565b600060208284031215610d6357600080fd5b600082015167ffffffffffffffff811115610d7d57600080fd5b610d89848285016109e8565b91505092915050565b600080600060408486031215610da757600080fd5b6000610db586828701610ab0565b935050602084013567ffffffffffffffff811115610dd257600080fd5b610dde86828701610898565b92509250509250925092565b600060208284031215610dfc57600080fd5b6000610e0a84828501610ac5565b91505092915050565b600060208284031215610e2557600080fd5b600082015167ffffffffffffffff811115610e3f57600080fd5b610e4b84828501610aef565b91505092915050565b600060208284031215610e6657600080fd5b6000610e7484828501610be3565b91505092915050565b6000610e898383610ed5565b60208301905092915050565b6000610ea18383611024565b905092915050565b6000610eb58383611130565b60208301905092915050565b6000610ecd8383611187565b905092915050565b610ede8161157e565b82525050565b610eed8161157e565b82525050565b6000610efe82611491565b610f088185611507565b9350610f1383611451565b8060005b83811015610f44578151610f2b8882610e7d565b9750610f36836114d3565b925050600181019050610f17565b5085935050505092915050565b6000610f5c82611491565b610f668185611518565b9350610f7183611451565b8060005b83811015610fa2578151610f898882610e7d565b9750610f94836114d3565b925050600181019050610f75565b5085935050505092915050565b6000610fba8261149c565b610fc48185611529565b935083602082028501610fd685611461565b8060005b858110156110125784840389528151610ff38582610e95565b9450610ffe836114e0565b925060208a01995050600181019050610fda565b50829750879550505050505092915050565b600061102f826114a7565b611039818561154b565b935061104483611471565b8060005b8381101561107557815161105c8882610ea9565b9750611067836114ed565b925050600181019050611048565b5085935050505092915050565b600061108d826114b2565b611097818561153a565b9350836020820285016110a985611481565b8060005b858110156110e557848403895281516110c68582610ec1565b94506110d1836114fa565b925060208a019950506001810190506110ad565b50829750879550505050505092915050565b6000611102826114bd565b61110c818561155c565b935061111c818560208601611608565b6111258161163b565b840191505092915050565b611139816115f6565b82525050565b611148816115b5565b82525050565b6000611159826114c8565b611163818561156d565b9350611173818560208601611608565b61117c8161163b565b840191505092915050565b600060a08301600083015161119f6000860182610ed5565b5060208301516111b26020860182610ed5565b5060408301516111c5604086018261113f565b5060608301516111d860608601826112c4565b50608083015184820360808601526111f082826110f7565b9150508091505092915050565b600060e083016000830151848203600086015261121a828261114e565b91505060208301518482036020860152611234828261114e565b91505060408301516112496040860182610ed5565b50606083015184820360608601526112618282610ef3565b9150506080830151848203608086015261127b8282611024565b91505060a083015184820360a08601526112958282611082565b91505060c08301516112aa60c08601826112b5565b508091505092915050565b6112be816115df565b82525050565b6112cd816115e9565b82525050565b60006020820190506112e86000830184610ee4565b92915050565b600060208201905081810360008301526113088184610f51565b905092915050565b6000602082019050818103600083015261132a8184610faf565b905092915050565b6000602082019050818103600083015261134c81846111fd565b905092915050565b6000604051905081810181811067ffffffffffffffff8211171561137757600080fd5b8060405250919050565b600067ffffffffffffffff82111561139857600080fd5b602082029050602081019050919050565b600067ffffffffffffffff8211156113c057600080fd5b602082029050602081019050919050565b600067ffffffffffffffff8211156113e857600080fd5b602082029050602081019050919050565b600067ffffffffffffffff82111561141057600080fd5b601f19601f8301169050602081019050919050565b600067ffffffffffffffff82111561143c57600080fd5b601f19601f8301169050602081019050919050565b6000819050602082019050919050565b6000819050602082019050919050565b6000819050602082019050919050565b6000819050602082019050919050565b600081519050919050565b600081519050919050565b600081519050919050565b600081519050919050565b600081519050919050565b600081519050919050565b6000602082019050919050565b6000602082019050919050565b6000602082019050919050565b6000602082019050919050565b600082825260208201905092915050565b600082825260208201905092915050565b600082825260208201905092915050565b600082825260208201905092915050565b600082825260208201905092915050565b600082825260208201905092915050565b600082825260208201905092915050565b6000611589826115bf565b9050919050565b600061159b8261157e565b9050919050565b60008190506115b08261164c565b919050565b6000819050919050565b600073ffffffffffffffffffffffffffffffffffffffff82169050919050565b6000819050919050565b600060ff82169050919050565b6000611601826115a2565b9050919050565b60005b8381101561162657808201518184015260208101905061160b565b83811115611635576000848401525b50505050565b6000601f19601f8301169050919050565b6003811061165657fe5b50565b6116628161157e565b811461166d57600080fd5b50565b61167981611590565b811461168457600080fd5b50565b6003811061169457600080fd5b50565b6116a0816115b5565b81146116ab57600080fd5b50565b6116b7816115df565b81146116c257600080fd5b50565b6116ce816115e9565b81146116d957600080fd5b5056fea26469706673582212206c184e1d05a8b4483be7bad7c4de14b7f800d27fff432dcf20cce7dce01525c764736f6c634300060a0033",
  "immutableReferences": {},
  "source": "/*\n    Copyright 2020 Set Labs Inc.\n\n    Licensed under the Apache License, Version 2.0 (the \"License\");\n    you may not use this file except in compliance with the License.\n    You may obtain a copy of the License at\n\n    http://www.apache.org/licenses/LICENSE-2.0\n\n    Unless required by applicable law or agreed to in writing, software\n    distributed under the License is distributed on an \"AS IS\" BASIS,\n    WITHOUT WARRANTIES OR CONDITIONS OF ANY KIND, either express or implied.\n    See the License for the specific language governing permissions and\n    limitations under the License.\n\n    SPDX-License-Identifier: Apache License, Version 2.0\n*/\npragma solidity 0.6.10;\npragma experimental \"ABIEncoderV2\";\n\n\nimport { ERC20 } from \"@openzeppelin/contracts/token/ERC20/ERC20.sol\";\nimport { ISetToken } from \"../interfaces/ISetToken.sol\";\n\n\n/**\n * @title SetTokenViewer\n * @author Set Protocol\n *\n * SetTokenViewer enables batch queries of SetToken state.\n *\n * UPDATE:\n * - Added getSetDetails functions\n */\ncontract SetTokenViewer {\n\n    struct SetDetails {\n        string name;\n        string symbol;\n        address manager;\n        address[] modules;\n        ISetToken.ModuleState[] moduleStatuses;\n        ISetToken.Position[] positions;\n        uint256 totalSupply;\n    }\n\n    function batchFetchManagers(ISetToken[] memory _setTokens) external view returns (address[] memory) {\n        address[] memory managers = new address[](_setTokens.length);\n\n        for (uint256 i = 0; i < _setTokens.length; i++) {\n            managers[i] = _setTokens[i].manager();\n        }\n        return managers;\n    }\n\n    function batchFetchModuleStates(\n        ISetToken[] memory _setTokens,\n        address[] calldata _modules\n    )\n        public\n        view\n        returns (ISetToken.ModuleState[][] memory)\n    {\n        ISetToken.ModuleState[][] memory states = new ISetToken.ModuleState[][](_setTokens.length);\n        for (uint256 i = 0; i < _setTokens.length; i++) {\n            ISetToken.ModuleState[] memory moduleStates = new ISetToken.ModuleState[](_modules.length);\n            for (uint256 j = 0; j < _modules.length; j++) {\n                moduleStates[j] = _setTokens[i].moduleStates(_modules[j]);\n            }\n            states[i] = moduleStates;\n        }\n        return states;\n    }\n\n    function getSetDetails(\n        ISetToken _setToken,\n        address[] calldata _moduleList\n    ) external view returns(SetDetails memory) {\n        ISetToken[] memory _setTokens = new ISetToken[](1);\n        _setTokens[0] = _setToken;\n        \n        return SetDetails({\n            name: ERC20(address(_setToken)).name(),\n            symbol: ERC20(address(_setToken)).symbol(),\n            manager: _setToken.manager(),\n            modules: _setToken.getModules(),\n            moduleStatuses: batchFetchModuleStates(_setTokens, _moduleList)[0],\n            positions: _setToken.getPositions(),\n            totalSupply: _setToken.totalSupply()\n        });\n    }\n}",
  "sourcePath": "/Users/tahadhailey/Documents/top5/top5swap/swap/contracts/protocol-viewers/SetTokenViewer.sol",
  "compiler": {
    "name": "solc",
    "version": "0.6.10+commit.00c0fcaf.Emscripten.clang"
  },
  "schemaVersion": "3.2.1",
  "updatedAt": "2021-01-21T08:20:37.643Z",
  "devdoc": {
    "author": "Set Protocol SetTokenViewer enables batch queries of SetToken state. UPDATE: - Added getSetDetails functions",
    "methods": {},
    "title": "SetTokenViewer"
  },
  "userdoc": {
    "methods": {}
  }
}