{
  "contractName": "SetValuer",
  "abi": [
    {
      "inputs": [
        {
          "internalType": "contract IController",
          "name": "_controller",
          "type": "address"
        }
      ],
      "stateMutability": "nonpayable",
      "type": "constructor"
    },
    {
      "inputs": [],
      "name": "controller",
      "outputs": [
        {
          "internalType": "contract IController",
          "name": "",
          "type": "address"
        }
      ],
      "stateMutability": "view",
      "type": "function"
    },
    {
      "inputs": [
        {
          "internalType": "contract ISetToken",
          "name": "_setToken",
          "type": "address"
        },
        {
          "internalType": "address",
          "name": "_quoteAsset",
          "type": "address"
        }
      ],
      "name": "calculateSetTokenValuation",
      "outputs": [
        {
          "internalType": "uint256",
          "name": "",
          "type": "uint256"
        }
      ],
      "stateMutability": "view",
      "type": "function"
    }
  ],
  "bytecode": "0x60806040523480156200001157600080fd5b50604051620011ad380380620011ad833981810160405281019062000037919062000095565b806000806101000a81548173ffffffffffffffffffffffffffffffffffffffff021916908373ffffffffffffffffffffffffffffffffffffffff1602179055505062000123565b6000815190506200008f8162000109565b92915050565b600060208284031215620000a857600080fd5b6000620000b8848285016200007e565b91505092915050565b6000620000ce82620000e9565b9050919050565b6000620000e282620000c1565b9050919050565b600073ffffffffffffffffffffffffffffffffffffffff82169050919050565b6200011481620000d5565b81146200012057600080fd5b50565b61107a80620001336000396000f3fe608060405234801561001057600080fd5b50600436106100365760003560e01c80636101c5401461003b578063f77c47911461006b575b600080fd5b61005560048036038101906100509190610aac565b610089565b6040516100629190610ec7565b60405180910390f35b610073610501565b6040516100809190610dec565b60405180910390f35b6000806100cc6000809054906101000a900473ffffffffffffffffffffffffffffffffffffffff1673ffffffffffffffffffffffffffffffffffffffff16610526565b905060008173ffffffffffffffffffffffffffffffffffffffff1663342833546040518163ffffffff1660e01b815260040160206040518083038186803b15801561011657600080fd5b505afa15801561012a573d6000803e3d6000fd5b505050506040513d601f19601f8201168201806040525081019061014e9190610a42565b905060608573ffffffffffffffffffffffffffffffffffffffff166399d50d5d6040518163ffffffff1660e01b815260040160006040518083038186803b15801561019857600080fd5b505afa1580156101ac573d6000803e3d6000fd5b505050506040513d6000823e3d601f19601f820116820180604052508101906101d59190610a6b565b9050600080600090505b825181101561040a5760008382815181106101f657fe5b6020026020010151905060008673ffffffffffffffffffffffffffffffffffffffff1663ac41865a83886040518363ffffffff1660e01b815260040161023d929190610dc3565b60206040518083038186803b15801561025557600080fd5b505afa158015610269573d6000803e3d6000fd5b505050506040513d601f19601f8201168201806040525081019061028d9190610b11565b905060008a73ffffffffffffffffffffffffffffffffffffffff1663eaf993e1846040518263ffffffff1660e01b81526004016102ca9190610da8565b60206040518083038186803b1580156102e257600080fd5b505afa1580156102f6573d6000803e3d6000fd5b505050506040513d601f19601f8201168201806040525081019061031a9190610ae8565b905060008373ffffffffffffffffffffffffffffffffffffffff1663313ce5676040518163ffffffff1660e01b815260040160206040518083038186803b15801561036457600080fd5b505afa158015610378573d6000803e3d6000fd5b505050506040513d601f19601f8201168201806040525081019061039c9190610b3a565b60ff169050600081600a0a905060006103c66103b7836105b9565b8561062590919063ffffffff16565b90506103f5886103e76103d8886105b9565b8461065c90919063ffffffff16565b61069390919063ffffffff16565b975050505050505080806001019150506101df565b508573ffffffffffffffffffffffffffffffffffffffff168373ffffffffffffffffffffffffffffffffffffffff16146104ec5760008473ffffffffffffffffffffffffffffffffffffffff1663ac41865a88866040518363ffffffff1660e01b815260040161047b929190610dc3565b60206040518083038186803b15801561049357600080fd5b505afa1580156104a7573d6000803e3d6000fd5b505050506040513d601f19601f820116820180604052508101906104cb9190610b11565b90506104e86104d9826105b9565b8361062590919063ffffffff16565b9150505b6104f58161070b565b94505050505092915050565b6000809054906101000a900473ffffffffffffffffffffffffffffffffffffffff1681565b60008173ffffffffffffffffffffffffffffffffffffffff1663e765ced660016040518263ffffffff1660e01b81526004016105629190610ec7565b60206040518083038186803b15801561057a57600080fd5b505afa15801561058e573d6000803e3d6000fd5b505050506040513d601f19601f820116820180604052508101906105b29190610a42565b9050919050565b60007f8000000000000000000000000000000000000000000000000000000000000000821061061d576040517f08c379a000000000000000000000000000000000000000000000000000000000815260040161061490610e87565b60405180910390fd5b819050919050565b600061065482610646670de0b6b3a76400008661075890919063ffffffff16565b61085690919063ffffffff16565b905092915050565b600061068b670de0b6b3a764000061067d848661075890919063ffffffff16565b61085690919063ffffffff16565b905092915050565b6000808284019050600083121580156106ac5750838112155b806106c257506000831280156106c157508381125b5b610701576040517f08c379a00000000000000000000000000000000000000000000000000000000081526004016106f890610e07565b60405180910390fd5b8091505092915050565b600080821215610750576040517f08c379a000000000000000000000000000000000000000000000000000000000815260040161074790610e27565b60405180910390fd5b819050919050565b60008083141561076b5760009050610850565b7fffffffffffffffffffffffffffffffffffffffffffffffffffffffffffffffff831480156107b957507f800000000000000000000000000000000000000000000000000000000000000082145b156107f9576040517f08c379a00000000000000000000000000000000000000000000000000000000081526004016107f090610e67565b60405180910390fd5b600082840290508284828161080a57fe5b051461084b576040517f08c379a000000000000000000000000000000000000000000000000000000000815260040161084290610e67565b60405180910390fd5b809150505b92915050565b60008082141561089b576040517f08c379a000000000000000000000000000000000000000000000000000000000815260040161089290610ea7565b60405180910390fd5b7fffffffffffffffffffffffffffffffffffffffffffffffffffffffffffffffff821480156108e957507f800000000000000000000000000000000000000000000000000000000000000083145b15610929576040517f08c379a000000000000000000000000000000000000000000000000000000000815260040161092090610e47565b60405180910390fd5b600082848161093457fe5b0590508091505092915050565b60008135905061095081610fd1565b92915050565b60008151905061096581610fd1565b92915050565b600082601f83011261097c57600080fd5b815161098f61098a82610f0f565b610ee2565b915081818352602084019350602081019050838560208402820111156109b457600080fd5b60005b838110156109e457816109ca8882610956565b8452602084019350602083019250506001810190506109b7565b5050505092915050565b6000813590506109fd81610fe8565b92915050565b600081519050610a1281610fff565b92915050565b600081519050610a2781611016565b92915050565b600081519050610a3c8161102d565b92915050565b600060208284031215610a5457600080fd5b6000610a6284828501610956565b91505092915050565b600060208284031215610a7d57600080fd5b600082015167ffffffffffffffff811115610a9757600080fd5b610aa38482850161096b565b91505092915050565b60008060408385031215610abf57600080fd5b6000610acd858286016109ee565b9250506020610ade85828601610941565b9150509250929050565b600060208284031215610afa57600080fd5b6000610b0884828501610a03565b91505092915050565b600060208284031215610b2357600080fd5b6000610b3184828501610a18565b91505092915050565b600060208284031215610b4c57600080fd5b6000610b5a84828501610a2d565b91505092915050565b610b6c81610f48565b82525050565b610b7b81610fad565b82525050565b6000610b8e602183610f37565b91507f5369676e6564536166654d6174683a206164646974696f6e206f766572666c6f60008301527f77000000000000000000000000000000000000000000000000000000000000006020830152604082019050919050565b6000610bf4602083610f37565b91507f53616665436173743a2076616c7565206d75737420626520706f7369746976656000830152602082019050919050565b6000610c34602183610f37565b91507f5369676e6564536166654d6174683a206469766973696f6e206f766572666c6f60008301527f77000000000000000000000000000000000000000000000000000000000000006020830152604082019050919050565b6000610c9a602783610f37565b91507f5369676e6564536166654d6174683a206d756c7469706c69636174696f6e206f60008301527f766572666c6f77000000000000000000000000000000000000000000000000006020830152604082019050919050565b6000610d00602883610f37565b91507f53616665436173743a2076616c756520646f65736e27742066697420696e206160008301527f6e20696e743235360000000000000000000000000000000000000000000000006020830152604082019050919050565b6000610d66602083610f37565b91507f5369676e6564536166654d6174683a206469766973696f6e206279207a65726f6000830152602082019050919050565b610da281610f96565b82525050565b6000602082019050610dbd6000830184610b63565b92915050565b6000604082019050610dd86000830185610b63565b610de56020830184610b63565b9392505050565b6000602082019050610e016000830184610b72565b92915050565b60006020820190508181036000830152610e2081610b81565b9050919050565b60006020820190508181036000830152610e4081610be7565b9050919050565b60006020820190508181036000830152610e6081610c27565b9050919050565b60006020820190508181036000830152610e8081610c8d565b9050919050565b60006020820190508181036000830152610ea081610cf3565b9050919050565b60006020820190508181036000830152610ec081610d59565b9050919050565b6000602082019050610edc6000830184610d99565b92915050565b6000604051905081810181811067ffffffffffffffff82111715610f0557600080fd5b8060405250919050565b600067ffffffffffffffff821115610f2657600080fd5b602082029050602081019050919050565b600082825260208201905092915050565b6000610f5382610f76565b9050919050565b6000610f6582610f48565b9050919050565b6000819050919050565b600073ffffffffffffffffffffffffffffffffffffffff82169050919050565b6000819050919050565b600060ff82169050919050565b6000610fb882610fbf565b9050919050565b6000610fca82610f76565b9050919050565b610fda81610f48565b8114610fe557600080fd5b50565b610ff181610f5a565b8114610ffc57600080fd5b50565b61100881610f6c565b811461101357600080fd5b50565b61101f81610f96565b811461102a57600080fd5b50565b61103681610fa0565b811461104157600080fd5b5056fea2646970667358221220596157c0980e44364eacb2b9944aaf6ab1ce3613fae6492c971d05bfe6dbe37964736f6c634300060a0033",
  "immutableReferences": {},
  "source": "/*\n    Copyright 2020 Set Labs Inc.\n\n    Licensed under the Apache License, Version 2.0 (the \"License\");\n    you may not use this file except in compliance with the License.\n    You may obtain a copy of the License at\n\n    http://www.apache.org/licenses/LICENSE-2.0\n\n    Unless required by applicable law or agreed to in writing, software\n    distributed under the License is distributed on an \"AS IS\" BASIS,\n    WITHOUT WARRANTIES OR CONDITIONS OF ANY KIND, either express or implied.\n    See the License for the specific language governing permissions and\n    limitations under the License.\n\n    SPDX-License-Identifier: Apache License, Version 2.0\n*/\n\npragma solidity 0.6.10;\npragma experimental \"ABIEncoderV2\";\n\nimport { ERC20 } from \"@openzeppelin/contracts/token/ERC20/ERC20.sol\";\nimport { SafeCast } from \"@openzeppelin/contracts/utils/SafeCast.sol\";\nimport { SignedSafeMath } from \"@openzeppelin/contracts/math/SignedSafeMath.sol\";\n\nimport { IController } from \"../interfaces/IController.sol\";\nimport { ISetToken } from \"../interfaces/ISetToken.sol\";\nimport { IPriceOracle } from \"../interfaces/IPriceOracle.sol\";\nimport { PreciseUnitMath } from \"../lib/PreciseUnitMath.sol\";\nimport { Position } from \"./lib/Position.sol\";\nimport { ResourceIdentifier } from \"./lib/ResourceIdentifier.sol\";\n\n\n/**\n * @title SetValuer\n * @author Set Protocol\n *\n * Contract that returns the valuation of SetTokens using price oracle data used in contracts\n * that are external to the system.\n *\n * Note: Prices are returned in preciseUnits (i.e. 18 decimals of precision)\n */\ncontract SetValuer {\n    using PreciseUnitMath for int256;\n    using PreciseUnitMath for uint256;\n    using Position for ISetToken;\n    using ResourceIdentifier for IController;\n    using SafeCast for int256;\n    using SafeCast for uint256;\n    using SignedSafeMath for int256;\n    \n    /* ============ State Variables ============ */\n\n    // Instance of the Controller contract\n    IController public controller;\n\n    /* ============ Constructor ============ */\n\n    /**\n     * Set state variables and map asset pairs to their oracles\n     *\n     * @param _controller             Address of controller contract\n     */\n    constructor(IController _controller) public {\n        controller = _controller;\n    }\n\n    /* ============ External Functions ============ */\n\n    /**\n     * Gets the valuation of a SetToken using data from the price oracle. Reverts\n     * if no price exists for a component in the SetToken. Note: this works for external\n     * positions and negative (debt) positions.\n     * \n     * Note: There is a risk that the valuation is off if airdrops aren't retrieved or\n     * debt builds up via interest and its not reflected in the position\n     *\n     * @param _setToken        SetToken instance to get valuation\n     * @param _quoteAsset      Address of token to quote valuation in\n     *\n     * @return                 SetToken valuation in terms of quote asset in precise units 1e18\n     */\n    function calculateSetTokenValuation(ISetToken _setToken, address _quoteAsset) external view returns (uint256) {\n        IPriceOracle priceOracle = controller.getPriceOracle();\n        address masterQuoteAsset = priceOracle.masterQuoteAsset();\n        address[] memory components = _setToken.getComponents();\n        int256 valuation;\n\n        for (uint256 i = 0; i < components.length; i++) {\n            address component = components[i];\n            // Get component price from price oracle. If price does not exist, revert.\n            uint256 componentPrice = priceOracle.getPrice(component, masterQuoteAsset);\n\n            int256 aggregateUnits = _setToken.getTotalComponentRealUnits(component);\n\n            // Normalize each position unit to preciseUnits 1e18 and cast to signed int\n            uint256 unitDecimals = ERC20(component).decimals();\n            uint256 baseUnits = 10 ** unitDecimals;\n            int256 normalizedUnits = aggregateUnits.preciseDiv(baseUnits.toInt256());\n\n            // Calculate valuation of the component. Debt positions are effectively subtracted\n            valuation = normalizedUnits.preciseMul(componentPrice.toInt256()).add(valuation);\n        }\n\n        if (masterQuoteAsset != _quoteAsset) {\n            uint256 quoteToMaster = priceOracle.getPrice(_quoteAsset, masterQuoteAsset);\n            valuation = valuation.preciseDiv(quoteToMaster.toInt256());\n        }\n\n        return valuation.toUint256();\n    }\n}\n",
  "sourcePath": "/Users/tahadhailey/Documents/top5/top5swap/swap/contracts/protocol/SetValuer.sol",
  "compiler": {
    "name": "solc",
    "version": "0.6.10+commit.00c0fcaf.Emscripten.clang"
  },
  "schemaVersion": "3.2.1",
  "updatedAt": "2021-01-21T08:20:37.685Z",
  "devdoc": {
    "author": "Set Protocol Contract that returns the valuation of SetTokens using price oracle data used in contracts that are external to the system. Note: Prices are returned in preciseUnits (i.e. 18 decimals of precision)",
    "methods": {
      "calculateSetTokenValuation(address,address)": {
        "params": {
          "_quoteAsset": "Address of token to quote valuation in",
          "_setToken": "SetToken instance to get valuation"
        },
        "returns": {
          "_0": "SetToken valuation in terms of quote asset in precise units 1e18"
        }
      },
      "constructor": {
        "params": {
          "_controller": "Address of controller contract"
        }
      }
    },
    "title": "SetValuer"
  },
  "userdoc": {
    "methods": {
      "calculateSetTokenValuation(address,address)": {
        "notice": "Gets the valuation of a SetToken using data from the price oracle. Reverts if no price exists for a component in the SetToken. Note: this works for external positions and negative (debt) positions.  Note: There is a risk that the valuation is off if airdrops aren't retrieved or debt builds up via interest and its not reflected in the position"
      },
      "constructor": "Set state variables and map asset pairs to their oracles"
    }
  }
}