{
  "contractName": "SingleIndexModule",
  "abi": [
    {
      "inputs": [
        {
          "internalType": "contract IController",
          "name": "_controller",
          "type": "address"
        },
        {
          "internalType": "contract IWETH",
          "name": "_weth",
          "type": "address"
        },
        {
          "internalType": "address",
          "name": "_uniswapRouter",
          "type": "address"
        },
        {
          "internalType": "address",
          "name": "_sushiswapRouter",
          "type": "address"
        },
        {
          "internalType": "address",
          "name": "_balancerProxy",
          "type": "address"
        }
      ],
      "stateMutability": "nonpayable",
      "type": "constructor"
    },
    {
      "anonymous": false,
      "inputs": [
        {
          "indexed": true,
          "internalType": "bool",
          "name": "_status",
          "type": "bool"
        }
      ],
      "name": "AnyoneTradeUpdated",
      "type": "event"
    },
    {
      "anonymous": false,
      "inputs": [
        {
          "indexed": true,
          "internalType": "address",
          "name": "_component",
          "type": "address"
        },
        {
          "indexed": false,
          "internalType": "uint256",
          "name": "_newExchange",
          "type": "uint256"
        }
      ],
      "name": "AssetExchangeUpdated",
      "type": "event"
    },
    {
      "anonymous": false,
      "inputs": [
        {
          "indexed": true,
          "internalType": "address",
          "name": "_component",
          "type": "address"
        },
        {
          "indexed": false,
          "internalType": "uint256",
          "name": "_newCoolOffPeriod",
          "type": "uint256"
        }
      ],
      "name": "CoolOffPeriodUpdated",
      "type": "event"
    },
    {
      "anonymous": false,
      "inputs": [
        {
          "indexed": true,
          "internalType": "address",
          "name": "_component",
          "type": "address"
        },
        {
          "indexed": false,
          "internalType": "uint256",
          "name": "_newUnit",
          "type": "uint256"
        },
        {
          "indexed": false,
          "internalType": "uint256",
          "name": "_positionMultiplier",
          "type": "uint256"
        }
      ],
      "name": "TargetUnitsUpdated",
      "type": "event"
    },
    {
      "anonymous": false,
      "inputs": [
        {
          "indexed": true,
          "internalType": "address",
          "name": "_executor",
          "type": "address"
        },
        {
          "indexed": true,
          "internalType": "address",
          "name": "_sellComponent",
          "type": "address"
        },
        {
          "indexed": true,
          "internalType": "address",
          "name": "_buyComponent",
          "type": "address"
        },
        {
          "indexed": false,
          "internalType": "uint256",
          "name": "_amountSold",
          "type": "uint256"
        },
        {
          "indexed": false,
          "internalType": "uint256",
          "name": "_amountBought",
          "type": "uint256"
        }
      ],
      "name": "TradeExecuted",
      "type": "event"
    },
    {
      "anonymous": false,
      "inputs": [
        {
          "indexed": true,
          "internalType": "address",
          "name": "_component",
          "type": "address"
        },
        {
          "indexed": false,
          "internalType": "uint256",
          "name": "_newMaximum",
          "type": "uint256"
        }
      ],
      "name": "TradeMaximumUpdated",
      "type": "event"
    },
    {
      "anonymous": false,
      "inputs": [
        {
          "indexed": true,
          "internalType": "address",
          "name": "_trader",
          "type": "address"
        },
        {
          "indexed": false,
          "internalType": "bool",
          "name": "_status",
          "type": "bool"
        }
      ],
      "name": "TraderStatusUpdated",
      "type": "event"
    },
    {
      "inputs": [],
      "name": "anyoneTrade",
      "outputs": [
        {
          "internalType": "bool",
          "name": "",
          "type": "bool"
        }
      ],
      "stateMutability": "view",
      "type": "function"
    },
    {
      "inputs": [
        {
          "internalType": "address",
          "name": "",
          "type": "address"
        }
      ],
      "name": "assetInfo",
      "outputs": [
        {
          "internalType": "uint256",
          "name": "targetUnit",
          "type": "uint256"
        },
        {
          "internalType": "uint256",
          "name": "maxSize",
          "type": "uint256"
        },
        {
          "internalType": "uint256",
          "name": "coolOffPeriod",
          "type": "uint256"
        },
        {
          "internalType": "uint256",
          "name": "lastTradeTimestamp",
          "type": "uint256"
        },
        {
          "internalType": "uint256",
          "name": "exchange",
          "type": "uint256"
        }
      ],
      "stateMutability": "view",
      "type": "function"
    },
    {
      "inputs": [],
      "name": "balancerProxy",
      "outputs": [
        {
          "internalType": "address",
          "name": "",
          "type": "address"
        }
      ],
      "stateMutability": "view",
      "type": "function"
    },
    {
      "inputs": [],
      "name": "controller",
      "outputs": [
        {
          "internalType": "contract IController",
          "name": "",
          "type": "address"
        }
      ],
      "stateMutability": "view",
      "type": "function"
    },
    {
      "inputs": [],
      "name": "index",
      "outputs": [
        {
          "internalType": "contract ISetToken",
          "name": "",
          "type": "address"
        }
      ],
      "stateMutability": "view",
      "type": "function"
    },
    {
      "inputs": [],
      "name": "positionMultiplier",
      "outputs": [
        {
          "internalType": "uint256",
          "name": "",
          "type": "uint256"
        }
      ],
      "stateMutability": "view",
      "type": "function"
    },
    {
      "inputs": [
        {
          "internalType": "uint256",
          "name": "",
          "type": "uint256"
        }
      ],
      "name": "rebalanceComponents",
      "outputs": [
        {
          "internalType": "address",
          "name": "",
          "type": "address"
        }
      ],
      "stateMutability": "view",
      "type": "function"
    },
    {
      "inputs": [],
      "name": "sushiswapRouter",
      "outputs": [
        {
          "internalType": "address",
          "name": "",
          "type": "address"
        }
      ],
      "stateMutability": "view",
      "type": "function"
    },
    {
      "inputs": [
        {
          "internalType": "address",
          "name": "",
          "type": "address"
        }
      ],
      "name": "tradeAllowList",
      "outputs": [
        {
          "internalType": "bool",
          "name": "",
          "type": "bool"
        }
      ],
      "stateMutability": "view",
      "type": "function"
    },
    {
      "inputs": [],
      "name": "uniswapRouter",
      "outputs": [
        {
          "internalType": "address",
          "name": "",
          "type": "address"
        }
      ],
      "stateMutability": "view",
      "type": "function"
    },
    {
      "inputs": [],
      "name": "weth",
      "outputs": [
        {
          "internalType": "contract IWETH",
          "name": "",
          "type": "address"
        }
      ],
      "stateMutability": "view",
      "type": "function"
    },
    {
      "inputs": [
        {
          "internalType": "address[]",
          "name": "_newComponents",
          "type": "address[]"
        },
        {
          "internalType": "uint256[]",
          "name": "_newComponentsTargetUnits",
          "type": "uint256[]"
        },
        {
          "internalType": "uint256[]",
          "name": "_oldComponentsTargetUnits",
          "type": "uint256[]"
        },
        {
          "internalType": "uint256",
          "name": "_positionMultiplier",
          "type": "uint256"
        }
      ],
      "name": "startRebalance",
      "outputs": [],
      "stateMutability": "nonpayable",
      "type": "function"
    },
    {
      "inputs": [
        {
          "internalType": "address",
          "name": "_component",
          "type": "address"
        }
      ],
      "name": "trade",
      "outputs": [],
      "stateMutability": "nonpayable",
      "type": "function"
    },
    {
      "inputs": [
        {
          "internalType": "address",
          "name": "_component",
          "type": "address"
        }
      ],
      "name": "tradeRemainingWETH",
      "outputs": [],
      "stateMutability": "nonpayable",
      "type": "function"
    },
    {
      "inputs": [],
      "name": "raiseAssetTargets",
      "outputs": [],
      "stateMutability": "nonpayable",
      "type": "function"
    },
    {
      "inputs": [
        {
          "internalType": "address[]",
          "name": "_components",
          "type": "address[]"
        },
        {
          "internalType": "uint256[]",
          "name": "_tradeMaximums",
          "type": "uint256[]"
        }
      ],
      "name": "setTradeMaximums",
      "outputs": [],
      "stateMutability": "nonpayable",
      "type": "function"
    },
    {
      "inputs": [
        {
          "internalType": "address[]",
          "name": "_components",
          "type": "address[]"
        },
        {
          "internalType": "uint256[]",
          "name": "_exchanges",
          "type": "uint256[]"
        }
      ],
      "name": "setExchanges",
      "outputs": [],
      "stateMutability": "nonpayable",
      "type": "function"
    },
    {
      "inputs": [
        {
          "internalType": "address[]",
          "name": "_components",
          "type": "address[]"
        },
        {
          "internalType": "uint256[]",
          "name": "_coolOffPeriods",
          "type": "uint256[]"
        }
      ],
      "name": "setCoolOffPeriods",
      "outputs": [],
      "stateMutability": "nonpayable",
      "type": "function"
    },
    {
      "inputs": [
        {
          "internalType": "address[]",
          "name": "_traders",
          "type": "address[]"
        },
        {
          "internalType": "bool[]",
          "name": "_statuses",
          "type": "bool[]"
        }
      ],
      "name": "updateTraderStatus",
      "outputs": [],
      "stateMutability": "nonpayable",
      "type": "function"
    },
    {
      "inputs": [
        {
          "internalType": "bool",
          "name": "_status",
          "type": "bool"
        }
      ],
      "name": "updateAnyoneTrade",
      "outputs": [],
      "stateMutability": "nonpayable",
      "type": "function"
    },
    {
      "inputs": [
        {
          "internalType": "contract ISetToken",
          "name": "_index",
          "type": "address"
        }
      ],
      "name": "initialize",
      "outputs": [],
      "stateMutability": "nonpayable",
      "type": "function"
    },
    {
      "inputs": [],
      "name": "removeModule",
      "outputs": [],
      "stateMutability": "nonpayable",
      "type": "function"
    },
    {
      "inputs": [
        {
          "internalType": "address[]",
          "name": "_components",
          "type": "address[]"
        }
      ],
      "name": "getTargetUnits",
      "outputs": [
        {
          "internalType": "uint256[]",
          "name": "",
          "type": "uint256[]"
        }
      ],
      "stateMutability": "view",
      "type": "function"
    },
    {
      "inputs": [],
      "name": "getRebalanceComponents",
      "outputs": [
        {
          "internalType": "address[]",
          "name": "",
          "type": "address[]"
        }
      ],
      "stateMutability": "view",
      "type": "function"
    }
  ],
  "bytecode": "0x60806040523480156200001157600080fd5b5060405162006ad038038062006ad08339818101604052810190620000379190620001d4565b84806000806101000a81548173ffffffffffffffffffffffffffffffffffffffff021916908373ffffffffffffffffffffffffffffffffffffffff160217905550506001808190555083600760006101000a81548173ffffffffffffffffffffffffffffffffffffffff021916908373ffffffffffffffffffffffffffffffffffffffff16021790555082600860006101000a81548173ffffffffffffffffffffffffffffffffffffffff021916908373ffffffffffffffffffffffffffffffffffffffff16021790555081600960006101000a81548173ffffffffffffffffffffffffffffffffffffffff021916908373ffffffffffffffffffffffffffffffffffffffff16021790555080600a60006101000a81548173ffffffffffffffffffffffffffffffffffffffff021916908373ffffffffffffffffffffffffffffffffffffffff160217905550505050505062000300565b600081519050620001a081620002b2565b92915050565b600081519050620001b781620002cc565b92915050565b600081519050620001ce81620002e6565b92915050565b600080600080600060a08688031215620001ed57600080fd5b6000620001fd88828901620001a6565b95505060206200021088828901620001bd565b945050604062000223888289016200018f565b935050606062000236888289016200018f565b925050608062000249888289016200018f565b9150509295509295909350565b6000620002638262000292565b9050919050565b6000620002778262000256565b9050919050565b60006200028b8262000256565b9050919050565b600073ffffffffffffffffffffffffffffffffffffffff82169050919050565b620002bd8162000256565b8114620002c957600080fd5b50565b620002d7816200026a565b8114620002e357600080fd5b50565b620002f1816200027e565b8114620002fd57600080fd5b50565b6167c080620003106000396000f3fe608060405234801561001057600080fd5b50600436106101585760003560e01c806395550981116100c3578063d1472f1d1161007c578063d1472f1d14610391578063d1bfa023146103ad578063d1da9334146103dd578063e9240c2d146103f9578063eebd30ff14610417578063f77c47911461042157610158565b806395550981146102bb578063a6d68db2146102eb578063b46f72a414610309578063c39dba4714610339578063c4d66de814610357578063cbeef0221461037357610158565b80635230c396116101155780635230c396146102095780635a41aeb2146102275780636d182ed614610243578063735de9f71461025f578063847ef08d1461027d5780638b0dcb4e1461028757610158565b8063056ba0561461015d5780632986c0e5146101795780633fc8cef31461019757806344385891146101b55780634afdd22f146101d15780634e362459146101ed575b600080fd5b61017760048036038101906101729190614eea565b61043f565b005b6101816105d1565b60405161018e9190615ecd565b60405180910390f35b61019f6105f7565b6040516101ac9190615ee8565b60405180910390f35b6101cf60048036038101906101ca9190614ff6565b61061d565b005b6101eb60048036038101906101e69190614ff6565b61084f565b005b610207600480360381019061020291906151a6565b610a2e565b005b610211610b2f565b60405161021e9190616285565b60405180910390f35b610241600480360381019061023c9190614ff6565b610b35565b005b61025d60048036038101906102589190614f81565b610d14565b005b610267610ff7565b6040516102749190615d55565b60405180910390f35b61028561101d565b005b6102a1600480360381019061029c9190614eea565b61101f565b6040516102b2959493929190616323565b60405180910390f35b6102d560048036038101906102d0919061528b565b611055565b6040516102e29190615d55565b60405180910390f35b6102f3611091565b6040516103009190615e53565b60405180910390f35b610323600480360381019061031e9190614f3c565b61111f565b6040516103309190615e75565b60405180910390f35b610341611287565b60405161034e9190615d55565b60405180910390f35b610371600480360381019061036c9190615239565b6112ad565b005b61037b6116c9565b6040516103889190615e97565b60405180910390f35b6103ab60048036038101906103a69190614eea565b6116dc565b005b6103c760048036038101906103c29190614eea565b611afc565b6040516103d49190615e97565b60405180910390f35b6103f760048036038101906103f2919061506b565b611b1c565b005b610401611fe3565b60405161040e9190615d55565b60405180910390f35b61041f612009565b005b6104296121ec565b6040516104369190615eb2565b60405180910390f35b60026001541415610485576040517f08c379a000000000000000000000000000000000000000000000000000000000815260040161047c90616245565b60405180910390fd5b60026001819055503361049781612211565b6104d6576040517f08c379a00000000000000000000000000000000000000000000000000000000081526004016104cd90615fc5565b60405180910390fd5b3273ffffffffffffffffffffffffffffffffffffffff163373ffffffffffffffffffffffffffffffffffffffff1614610544576040517f08c379a000000000000000000000000000000000000000000000000000000000815260040161053b90615f65565b60405180910390fd5b61054d8261227e565b60008061055984612490565b9150915081156105725761056d84826127cb565b61057d565b61057c84826129f3565b5b42600260008673ffffffffffffffffffffffffffffffffffffffff1673ffffffffffffffffffffffffffffffffffffffff168152602001908152602001600020600301819055505050506001808190555050565b600660019054906101000a900473ffffffffffffffffffffffffffffffffffffffff1681565b600760009054906101000a900473ffffffffffffffffffffffffffffffffffffffff1681565b600660019054906101000a900473ffffffffffffffffffffffffffffffffffffffff1661064a8133612c1b565b610689576040517f08c379a0000000000000000000000000000000000000000000000000000000008152600401610680906161e5565b60405180910390fd5b61069281612cd1565b6106d1576040517f08c379a00000000000000000000000000000000000000000000000000000000081526004016106c890615f85565b60405180910390fd5b6106dd85858585612e15565b60008090505b858590508110156108475760008484838181106106fc57fe5b90506020020135905060048081111561071157fe5b8110610752576040517f08c379a000000000000000000000000000000000000000000000000000000000815260040161074990615fa5565b60405180910390fd5b84848381811061075e57fe5b905060200201356002600089898681811061077557fe5b905060200201602081019061078a9190614eea565b73ffffffffffffffffffffffffffffffffffffffff1673ffffffffffffffffffffffffffffffffffffffff168152602001908152602001600020600401819055508686838181106107d757fe5b90506020020160208101906107ec9190614eea565b73ffffffffffffffffffffffffffffffffffffffff167f6cda250e3510d021217be0a4cf0d0cafcf6a1d8fd88758881e22dda86026565a826040516108319190616285565b60405180910390a25080806001019150506106e3565b505050505050565b600660019054906101000a900473ffffffffffffffffffffffffffffffffffffffff1661087c8133612c1b565b6108bb576040517f08c379a00000000000000000000000000000000000000000000000000000000081526004016108b2906161e5565b60405180910390fd5b6108c481612cd1565b610903576040517f08c379a00000000000000000000000000000000000000000000000000000000081526004016108fa90615f85565b60405180910390fd5b61090f85858585612e15565b60008090505b85859050811015610a265783838281811061092c57fe5b905060200201356002600088888581811061094357fe5b90506020020160208101906109589190614eea565b73ffffffffffffffffffffffffffffffffffffffff1673ffffffffffffffffffffffffffffffffffffffff168152602001908152602001600020600101819055508585828181106109a557fe5b90506020020160208101906109ba9190614eea565b73ffffffffffffffffffffffffffffffffffffffff167f8ed585a5166d974578dfb366fb290f0ebbd201018644122adaef2f4f224f37548585848181106109fd57fe5b90506020020135604051610a119190616285565b60405180910390a28080600101915050610915565b505050505050565b600660019054906101000a900473ffffffffffffffffffffffffffffffffffffffff16610a5b8133612c1b565b610a9a576040517f08c379a0000000000000000000000000000000000000000000000000000000008152600401610a91906161e5565b60405180910390fd5b610aa381612cd1565b610ae2576040517f08c379a0000000000000000000000000000000000000000000000000000000008152600401610ad990615f85565b60405180910390fd5b81600660006101000a81548160ff0219169083151502179055508115157f0fc54d8c9cf44d4c689906554c60dce4f6b9fb1ff4e4b362349967b912ec230060405160405180910390a25050565b60045481565b600660019054906101000a900473ffffffffffffffffffffffffffffffffffffffff16610b628133612c1b565b610ba1576040517f08c379a0000000000000000000000000000000000000000000000000000000008152600401610b98906161e5565b60405180910390fd5b610baa81612cd1565b610be9576040517f08c379a0000000000000000000000000000000000000000000000000000000008152600401610be090615f85565b60405180910390fd5b610bf585858585612e15565b60008090505b85859050811015610d0c57838382818110610c1257fe5b9050602002013560026000888885818110610c2957fe5b9050602002016020810190610c3e9190614eea565b73ffffffffffffffffffffffffffffffffffffffff1673ffffffffffffffffffffffffffffffffffffffff16815260200190815260200160002060020181905550858582818110610c8b57fe5b9050602002016020810190610ca09190614eea565b73ffffffffffffffffffffffffffffffffffffffff167fa06538565669c334f2748499277e2747fc102fe777bcec613a9f9836cc96030e858584818110610ce357fe5b90506020020135604051610cf79190616285565b60405180910390a28080600101915050610bfb565b505050505050565b600660019054906101000a900473ffffffffffffffffffffffffffffffffffffffff16610d418133612c1b565b610d80576040517f08c379a0000000000000000000000000000000000000000000000000000000008152600401610d77906161e5565b60405180910390fd5b610d8981612cd1565b610dc8576040517f08c379a0000000000000000000000000000000000000000000000000000000008152600401610dbf90615f85565b60405180910390fd5b828290508585905014610e10576040517f08c379a0000000000000000000000000000000000000000000000000000000008152600401610e0790615f45565b60405180910390fd5b60008585905011610e56576040517f08c379a0000000000000000000000000000000000000000000000000000000008152600401610e4d90616185565b60405180910390fd5b610ea0858580806020026020016040519081016040528093929190818152602001838360200280828437600081840152601f19601f82011690508083019250505050505050612f33565b15610ee0576040517f08c379a0000000000000000000000000000000000000000000000000000000008152600401610ed790616125565b60405180910390fd5b60008090505b85859050811015610fef576000868683818110610eff57fe5b9050602002016020810190610f149190614eea565b90506000858584818110610f2457fe5b9050602002016020810190610f3991906151a6565b905080600560008473ffffffffffffffffffffffffffffffffffffffff1673ffffffffffffffffffffffffffffffffffffffff16815260200190815260200160002060006101000a81548160ff0219169083151502179055508173ffffffffffffffffffffffffffffffffffffffff167f2151742bf02141f8d0d719bc4154470f2b1f5111a182b4170a872b671411126182604051610fd89190615e97565b60405180910390a250508080600101915050610ee6565b505050505050565b600860009054906101000a900473ffffffffffffffffffffffffffffffffffffffff1681565b565b60026020528060005260406000206000915090508060000154908060010154908060020154908060030154908060040154905085565b6003818154811061106257fe5b906000526020600020016000915054906101000a900473ffffffffffffffffffffffffffffffffffffffff1681565b6060600380548060200260200160405190810160405280929190818152602001828054801561111557602002820191906000526020600020905b8160009054906101000a900473ffffffffffffffffffffffffffffffffffffffff1673ffffffffffffffffffffffffffffffffffffffff16815260200190600101908083116110cb575b5050505050905090565b606060006111cb600660019054906101000a900473ffffffffffffffffffffffffffffffffffffffff1673ffffffffffffffffffffffffffffffffffffffff16635230c3966040518163ffffffff1660e01b815260040160206040518083038186803b15801561118e57600080fd5b505afa1580156111a2573d6000803e3d6000fd5b505050506040513d601f19601f820116820180604052508101906111c69190615262565b61302e565b905060608484905067ffffffffffffffff811180156111e957600080fd5b506040519080825280602002602001820160405280156112185781602001602082028036833780820191505090505b50905060008090505b8585905081101561127b5761125686868381811061123b57fe5b90506020020160208101906112509190614eea565b8461307b565b82828151811061126257fe5b6020026020010181815250508080600101915050611221565b50809250505092915050565b600a60009054906101000a900473ffffffffffffffffffffffffffffffffffffffff1681565b80336112b98282612c1b565b6112f8576040517f08c379a00000000000000000000000000000000000000000000000000000000081526004016112ef906161e5565b60405180910390fd5b826000809054906101000a900473ffffffffffffffffffffffffffffffffffffffff1673ffffffffffffffffffffffffffffffffffffffff166374ebe3ec826040518263ffffffff1660e01b81526004016113539190615d55565b60206040518083038186803b15801561136b57600080fd5b505afa15801561137f573d6000803e3d6000fd5b505050506040513d601f19601f820116820180604052508101906113a391906151cf565b6113e2576040517f08c379a00000000000000000000000000000000000000000000000000000000081526004016113d9906161c5565b60405180910390fd5b6113eb816130ee565b61142a576040517f08c379a000000000000000000000000000000000000000000000000000000000815260040161142190616005565b60405180910390fd5b600073ffffffffffffffffffffffffffffffffffffffff16600660019054906101000a900473ffffffffffffffffffffffffffffffffffffffff1673ffffffffffffffffffffffffffffffffffffffff16146114bb576040517f08c379a00000000000000000000000000000000000000000000000000000000081526004016114b290616105565b60405180910390fd5b60608473ffffffffffffffffffffffffffffffffffffffff1663802758606040518163ffffffff1660e01b815260040160006040518083038186803b15801561150357600080fd5b505afa158015611517573d6000803e3d6000fd5b505050506040513d6000823e3d601f19601f820116820180604052508101906115409190615165565b905060008090505b815181101561162057611559614a0a565b82828151811061156557fe5b6020026020010151905061157c816040015161302e565b60026000836000015173ffffffffffffffffffffffffffffffffffffffff1673ffffffffffffffffffffffffffffffffffffffff16815260200190815260200160002060000181905550600060026000836000015173ffffffffffffffffffffffffffffffffffffffff1673ffffffffffffffffffffffffffffffffffffffff16815260200190815260200160002060030181905550508080600101915050611548565b5084600660016101000a81548173ffffffffffffffffffffffffffffffffffffffff021916908373ffffffffffffffffffffffffffffffffffffffff1602179055508473ffffffffffffffffffffffffffffffffffffffff16630ffe0f1e6040518163ffffffff1660e01b8152600401600060405180830381600087803b1580156116aa57600080fd5b505af11580156116be573d6000803e3d6000fd5b505050505050505050565b600660009054906101000a900460ff1681565b60026001541415611722576040517f08c379a000000000000000000000000000000000000000000000000000000000815260040161171990616245565b60405180910390fd5b60026001819055503361173481612211565b611773576040517f08c379a000000000000000000000000000000000000000000000000000000000815260040161176a90615fc5565b60405180910390fd5b3273ffffffffffffffffffffffffffffffffffffffff163373ffffffffffffffffffffffffffffffffffffffff16146117e1576040517f08c379a00000000000000000000000000000000000000000000000000000000081526004016117d890615f65565b60405180910390fd5b6117e9613180565b611828576040517f08c379a000000000000000000000000000000000000000000000000000000000815260040161181f90616225565b60405180910390fd5b6118318261227e565b600061183c83612490565b91505060008373ffffffffffffffffffffffffffffffffffffffff166370a08231600660019054906101000a900473ffffffffffffffffffffffffffffffffffffffff166040518263ffffffff1660e01b815260040161189c9190615d55565b60206040518083038186803b1580156118b457600080fd5b505afa1580156118c8573d6000803e3d6000fd5b505050506040513d601f19601f820116820180604052508101906118ec91906152b4565b90506000600760009054906101000a900473ffffffffffffffffffffffffffffffffffffffff1673ffffffffffffffffffffffffffffffffffffffff166370a08231600660019054906101000a900473ffffffffffffffffffffffffffffffffffffffff166040518263ffffffff1660e01b815260040161196d9190615d55565b60206040518083038186803b15801561198557600080fd5b505afa158015611999573d6000803e3d6000fd5b505050506040513d601f19601f820116820180604052508101906119bd91906152b4565b9050611a31600760009054906101000a900473ffffffffffffffffffffffffffffffffffffffff1686600184600260008b73ffffffffffffffffffffffffffffffffffffffff1673ffffffffffffffffffffffffffffffffffffffff1681526020019081526020016000206004015461336a565b6000611a61600760009054906101000a900473ffffffffffffffffffffffffffffffffffffffff168784866135e9565b915050838110611aa6576040517f08c379a0000000000000000000000000000000000000000000000000000000008152600401611a9d906160a5565b60405180910390fd5b42600260008873ffffffffffffffffffffffffffffffffffffffff1673ffffffffffffffffffffffffffffffffffffffff1681526020019081526020016000206003018190555050505050506001808190555050565b60056020528060005260406000206000915054906101000a900460ff1681565b600660019054906101000a900473ffffffffffffffffffffffffffffffffffffffff16611b498133612c1b565b611b88576040517f08c379a0000000000000000000000000000000000000000000000000000000008152600401611b7f906161e5565b60405180910390fd5b611b9181612cd1565b611bd0576040517f08c379a0000000000000000000000000000000000000000000000000000000008152600401611bc790615f85565b60405180910390fd5b858590508888905014611c18576040517f08c379a0000000000000000000000000000000000000000000000000000000008152600401611c0f90615f45565b60405180910390fd5b6060600660019054906101000a900473ffffffffffffffffffffffffffffffffffffffff1673ffffffffffffffffffffffffffffffffffffffff166399d50d5d6040518163ffffffff1660e01b815260040160006040518083038186803b158015611c8257600080fd5b505afa158015611c96573d6000803e3d6000fd5b505050506040513d6000823e3d601f19601f82011682018060405250810190611cbf9190615124565b905084849050815114611d07576040517f08c379a0000000000000000000000000000000000000000000000000000000008152600401611cfe90616045565b60405180910390fd5b6060611d5d8a8a80806020026020016040519081016040528093929190818152602001838360200280828437600081840152601f19601f82011690508083019250505050505050836137ee90919063ffffffff16565b90506060611df6898980806020026020016040519081016040528093929190818152602001838360200280828437600081840152601f19601f82011690508083019250505050505050888880806020026020016040519081016040528093929190818152602001838360200280828437600081840152601f19601f8201169050808301925050505050505061394390919063ffffffff16565b9050611e0182612f33565b15611e41576040517f08c379a0000000000000000000000000000000000000000000000000000000008152600401611e38906160c5565b60405180910390fd5b60008090505b8251811015611fb7576000838281518110611e5e57fe5b602002602001015190506000838381518110611e7657fe5b60200260200101519050600760009054906101000a900473ffffffffffffffffffffffffffffffffffffffff1673ffffffffffffffffffffffffffffffffffffffff168273ffffffffffffffffffffffffffffffffffffffff161415611f11576040517f08c379a0000000000000000000000000000000000000000000000000000000008152600401611f0890616025565b60405180910390fd5b80600260008473ffffffffffffffffffffffffffffffffffffffff1673ffffffffffffffffffffffffffffffffffffffff168152602001908152602001600020600001819055508173ffffffffffffffffffffffffffffffffffffffff167ffdd15d607f52297e9a37790659c4861b2aa4d97f31337e60a84b4dca6acc99cd828a604051611fa09291906162a0565b60405180910390a250508080600101915050611e47565b508160039080519060200190611fce929190614a68565b50846004819055505050505050505050505050565b600960009054906101000a900473ffffffffffffffffffffffffffffffffffffffff1681565b6002600154141561204f576040517f08c379a000000000000000000000000000000000000000000000000000000000815260040161204690616245565b60405180910390fd5b60026001819055503361206181612211565b6120a0576040517f08c379a000000000000000000000000000000000000000000000000000000000815260040161209790615fc5565b60405180910390fd5b6120a8613a3c565b801561218057506000600660019054906101000a900473ffffffffffffffffffffffffffffffffffffffff1673ffffffffffffffffffffffffffffffffffffffff166366cb8d2f600760009054906101000a900473ffffffffffffffffffffffffffffffffffffffff166040518263ffffffff1660e01b815260040161212e9190615d55565b60206040518083038186803b15801561214657600080fd5b505afa15801561215a573d6000803e3d6000fd5b505050506040513d601f19601f8201168201806040525081019061217e9190615262565b135b6121bf576040517f08c379a00000000000000000000000000000000000000000000000000000000081526004016121b690615f25565b60405180910390fd5b6121dc670de9987043544000600454613c2790919063ffffffff16565b6004819055505060018081905550565b6000809054906101000a900473ffffffffffffffffffffffffffffffffffffffff1681565b6000600660009054906101000a900460ff16806122775750600560008373ffffffffffffffffffffffffffffffffffffffff1673ffffffffffffffffffffffffffffffffffffffff16815260200190815260200160002060009054906101000a900460ff165b9050919050565b61231781600380548060200260200160405190810160405280929190818152602001828054801561230457602002820191906000526020600020905b8160009054906101000a900473ffffffffffffffffffffffffffffffffffffffff1673ffffffffffffffffffffffffffffffffffffffff16815260200190600101908083116122ba575b5050505050613c5e90919063ffffffff16565b612356576040517f08c379a000000000000000000000000000000000000000000000000000000000815260040161234d90616145565b60405180910390fd5b61235e614af2565b600260008373ffffffffffffffffffffffffffffffffffffffff1673ffffffffffffffffffffffffffffffffffffffff1681526020019081526020016000206040518060a0016040529081600082015481526020016001820154815260200160028201548152602001600382015481526020016004820154815250509050600060048111156123e957fe5b8160800151141561242f576040517f08c379a000000000000000000000000000000000000000000000000000000000815260040161242690616065565b60405180910390fd5b4261244b82604001518360600151613c7890919063ffffffff16565b111561248c576040517f08c379a000000000000000000000000000000000000000000000000000000000815260040161248390616205565b60405180910390fd5b5050565b6000806000600660019054906101000a900473ffffffffffffffffffffffffffffffffffffffff1673ffffffffffffffffffffffffffffffffffffffff166318160ddd6040518163ffffffff1660e01b815260040160206040518083038186803b1580156124fd57600080fd5b505afa158015612511573d6000803e3d6000fd5b505050506040513d601f19601f8201168201806040525081019061253591906152b4565b90506000600260008673ffffffffffffffffffffffffffffffffffffffff1673ffffffffffffffffffffffffffffffffffffffff1681526020019081526020016000206001015490506000612628600660019054906101000a900473ffffffffffffffffffffffffffffffffffffffff1673ffffffffffffffffffffffffffffffffffffffff16635230c3966040518163ffffffff1660e01b815260040160206040518083038186803b1580156125eb57600080fd5b505afa1580156125ff573d6000803e3d6000fd5b505050506040513d601f19601f820116820180604052508101906126239190615262565b61302e565b905060006126df600660019054906101000a900473ffffffffffffffffffffffffffffffffffffffff1673ffffffffffffffffffffffffffffffffffffffff166366cb8d2f896040518263ffffffff1660e01b815260040161268a9190615d55565b60206040518083038186803b1580156126a257600080fd5b505afa1580156126b6573d6000803e3d6000fd5b505050506040513d601f19601f820116820180604052508101906126da9190615262565b61302e565b905060006126ed888461307b565b905080821415612732576040517f08c379a000000000000000000000000000000000000000000000000000000000815260040161272990616165565b60405180910390fd5b60006127478387613ccd90919063ffffffff16565b9050600061275e8388613cea90919063ffffffff16565b905081811161279357600061278e61277f8385613d6490919063ffffffff16565b88613dae90919063ffffffff16565b6127bb565b60016127ba6127ab8484613d6490919063ffffffff16565b88613dae90919063ffffffff16565b5b9850985050505050505050915091565b60008273ffffffffffffffffffffffffffffffffffffffff166370a08231600660019054906101000a900473ffffffffffffffffffffffffffffffffffffffff166040518263ffffffff1660e01b81526004016128289190615d55565b60206040518083038186803b15801561284057600080fd5b505afa158015612854573d6000803e3d6000fd5b505050506040513d601f19601f8201168201806040525081019061287891906152b4565b90506000600760009054906101000a900473ffffffffffffffffffffffffffffffffffffffff1673ffffffffffffffffffffffffffffffffffffffff166370a08231600660019054906101000a900473ffffffffffffffffffffffffffffffffffffffff166040518263ffffffff1660e01b81526004016128f99190615d55565b60206040518083038186803b15801561291157600080fd5b505afa158015612925573d6000803e3d6000fd5b505050506040513d601f19601f8201168201806040525081019061294991906152b4565b90506129bd600760009054906101000a900473ffffffffffffffffffffffffffffffffffffffff1685600086600260008a73ffffffffffffffffffffffffffffffffffffffff1673ffffffffffffffffffffffffffffffffffffffff1681526020019081526020016000206004015461336a565b6129eb600760009054906101000a900473ffffffffffffffffffffffffffffffffffffffff168583856135e9565b505050505050565b6000600760009054906101000a900473ffffffffffffffffffffffffffffffffffffffff1673ffffffffffffffffffffffffffffffffffffffff166370a08231600660019054906101000a900473ffffffffffffffffffffffffffffffffffffffff166040518263ffffffff1660e01b8152600401612a729190615d55565b60206040518083038186803b158015612a8a57600080fd5b505afa158015612a9e573d6000803e3d6000fd5b505050506040513d601f19601f82011682018060405250810190612ac291906152b4565b905060008373ffffffffffffffffffffffffffffffffffffffff166370a08231600660019054906101000a900473ffffffffffffffffffffffffffffffffffffffff166040518263ffffffff1660e01b8152600401612b219190615d55565b60206040518083038186803b158015612b3957600080fd5b505afa158015612b4d573d6000803e3d6000fd5b505050506040513d601f19601f82011682018060405250810190612b7191906152b4565b9050612be584600760009054906101000a900473ffffffffffffffffffffffffffffffffffffffff16600186600260008a73ffffffffffffffffffffffffffffffffffffffff1673ffffffffffffffffffffffffffffffffffffffff1681526020019081526020016000206004015461336a565b612c1384600760009054906101000a900473ffffffffffffffffffffffffffffffffffffffff1683856135e9565b505050505050565b60008173ffffffffffffffffffffffffffffffffffffffff168373ffffffffffffffffffffffffffffffffffffffff1663481c6a756040518163ffffffff1660e01b815260040160206040518083038186803b158015612c7a57600080fd5b505afa158015612c8e573d6000803e3d6000fd5b505050506040513d601f19601f82011682018060405250810190612cb29190614f13565b73ffffffffffffffffffffffffffffffffffffffff1614905092915050565b60008060009054906101000a900473ffffffffffffffffffffffffffffffffffffffff1673ffffffffffffffffffffffffffffffffffffffff166374ebe3ec836040518263ffffffff1660e01b8152600401612d2d9190615d55565b60206040518083038186803b158015612d4557600080fd5b505afa158015612d59573d6000803e3d6000fd5b505050506040513d601f19601f82011682018060405250810190612d7d91906151cf565b8015612e0e57508173ffffffffffffffffffffffffffffffffffffffff1663d7f1b27c306040518263ffffffff1660e01b8152600401612dbd9190615d55565b60206040518083038186803b158015612dd557600080fd5b505afa158015612de9573d6000803e3d6000fd5b505050506040513d601f19601f82011682018060405250810190612e0d91906151cf565b5b9050919050565b818190508484905014612e5d576040517f08c379a0000000000000000000000000000000000000000000000000000000008152600401612e5490615f45565b60405180910390fd5b60008484905011612ea3576040517f08c379a0000000000000000000000000000000000000000000000000000000008152600401612e9a90616185565b60405180910390fd5b612eed848480806020026020016040519081016040528093929190818152602001838360200280828437600081840152601f19601f82011690508083019250505050505050612f33565b15612f2d576040517f08c379a0000000000000000000000000000000000000000000000000000000008152600401612f24906160c5565b60405180910390fd5b50505050565b600080825111612f78576040517f08c379a0000000000000000000000000000000000000000000000000000000008152600401612f6f90616265565b60405180910390fd5b60008090505b6001835103811015613023576000838281518110612f9857fe5b6020026020010151905060006001830190505b845181101561301457848181518110612fc057fe5b602002602001015173ffffffffffffffffffffffffffffffffffffffff168273ffffffffffffffffffffffffffffffffffffffff1614156130075760019350505050613029565b8080600101915050612fab565b50508080600101915050612f7e565b50600090505b919050565b600080821215613073576040517f08c379a000000000000000000000000000000000000000000000000000000000815260040161306a90616085565b60405180910390fd5b819050919050565b60006130e66004546130d884600260008873ffffffffffffffffffffffffffffffffffffffff1673ffffffffffffffffffffffffffffffffffffffff16815260200190815260200160002060000154613dc790919063ffffffff16565b613e3790919063ffffffff16565b905092915050565b60008173ffffffffffffffffffffffffffffffffffffffff166353bae5f7306040518263ffffffff1660e01b81526004016131299190615d55565b60206040518083038186803b15801561314157600080fd5b505afa158015613155573d6000803e3d6000fd5b505050506040513d601f19601f8201168201806040525081019061317991906151cf565b9050919050565b60008061322b600660019054906101000a900473ffffffffffffffffffffffffffffffffffffffff1673ffffffffffffffffffffffffffffffffffffffff16635230c3966040518163ffffffff1660e01b815260040160206040518083038186803b1580156131ee57600080fd5b505afa158015613202573d6000803e3d6000fd5b505050506040513d601f19601f820116820180604052508101906132269190615262565b61302e565b905060008090505b6003805490508110156133605760006003828154811061324f57fe5b9060005260206000200160009054906101000a900473ffffffffffffffffffffffffffffffffffffffff1690506000613331600660019054906101000a900473ffffffffffffffffffffffffffffffffffffffff1673ffffffffffffffffffffffffffffffffffffffff166366cb8d2f846040518263ffffffff1660e01b81526004016132dc9190615d55565b60206040518083038186803b1580156132f457600080fd5b505afa158015613308573d6000803e3d6000fd5b505050506040513d601f19601f8201168201806040525081019061332c9190615262565b61302e565b61333b838661307b565b1090508015613351576000945050505050613367565b50508080600101915050613233565b5060019150505b90565b6000600760009054906101000a900473ffffffffffffffffffffffffffffffffffffffff1673ffffffffffffffffffffffffffffffffffffffff166370a08231600660019054906101000a900473ffffffffffffffffffffffffffffffffffffffff166040518263ffffffff1660e01b81526004016133e99190615d55565b60206040518083038186803b15801561340157600080fd5b505afa158015613415573d6000803e3d6000fd5b505050506040513d601f19601f8201168201806040525081019061343991906152b4565b9050600060606003600481111561344c57fe5b84146134645761345f8888888888613e81565b613472565b61347188888888876140f1565b5b915091506000600760009054906101000a900473ffffffffffffffffffffffffffffffffffffffff1673ffffffffffffffffffffffffffffffffffffffff168973ffffffffffffffffffffffffffffffffffffffff16146134d357856134d5565b835b9050613526898483600660019054906101000a900473ffffffffffffffffffffffffffffffffffffffff1673ffffffffffffffffffffffffffffffffffffffff1661420c909392919063ffffffff16565b600660019054906101000a900473ffffffffffffffffffffffffffffffffffffffff1673ffffffffffffffffffffffffffffffffffffffff16638f6f0332846000856040518463ffffffff1660e01b815260040161358693929190615dec565b600060405180830381600087803b1580156135a057600080fd5b505af11580156135b4573d6000803e3d6000fd5b505050506040513d6000823e3d601f19601f820116820180604052508101906135dd91906151f8565b50505050505050505050565b6000806000600660019054906101000a900473ffffffffffffffffffffffffffffffffffffffff1673ffffffffffffffffffffffffffffffffffffffff166318160ddd6040518163ffffffff1660e01b815260040160206040518083038186803b15801561365657600080fd5b505afa15801561366a573d6000803e3d6000fd5b505050506040513d601f19601f8201168201806040525081019061368e91906152b4565b905060006136e1888388600660019054906101000a900473ffffffffffffffffffffffffffffffffffffffff1673ffffffffffffffffffffffffffffffffffffffff1661433d909392919063ffffffff16565b505090506000613736888488600660019054906101000a900473ffffffffffffffffffffffffffffffffffffffff1673ffffffffffffffffffffffffffffffffffffffff1661433d909392919063ffffffff16565b5050905061374d8288613d6490919063ffffffff16565b94506137628682613d6490919063ffffffff16565b93508773ffffffffffffffffffffffffffffffffffffffff168973ffffffffffffffffffffffffffffffffffffffff163373ffffffffffffffffffffffffffffffffffffffff167f3fcfb2f2e0146d5be7268f9e4cd3c4c0ce3428f68805db227b7fc378db7519ac88886040516137da9291906162a0565b60405180910390a450505094509492505050565b6060600083519050600083519050606081830167ffffffffffffffff8111801561381757600080fd5b506040519080825280602002602001820160405280156138465781602001602082028036833780820191505090505b50905060008090505b838110156138be5786818151811061386357fe5b602002602001015182828151811061387757fe5b602002602001019073ffffffffffffffffffffffffffffffffffffffff16908173ffffffffffffffffffffffffffffffffffffffff1681525050808060010191505061384f565b5060008090505b82811015613936578581815181106138d957fe5b602002602001015182828601815181106138ef57fe5b602002602001019073ffffffffffffffffffffffffffffffffffffffff16908173ffffffffffffffffffffffffffffffffffffffff168152505080806001019150506138c5565b5080935050505092915050565b6060600083519050600083519050606081830167ffffffffffffffff8111801561396c57600080fd5b5060405190808252806020026020018201604052801561399b5781602001602082028036833780820191505090505b50905060008090505b838110156139e5578681815181106139b857fe5b60200260200101518282815181106139cc57fe5b60200260200101818152505080806001019150506139a4565b5060008090505b82811015613a2f57858181518110613a0057fe5b60200260200101518282860181518110613a1657fe5b60200260200101818152505080806001019150506139ec565b5080935050505092915050565b600080613ae7600660019054906101000a900473ffffffffffffffffffffffffffffffffffffffff1673ffffffffffffffffffffffffffffffffffffffff16635230c3966040518163ffffffff1660e01b815260040160206040518083038186803b158015613aaa57600080fd5b505afa158015613abe573d6000803e3d6000fd5b505050506040513d601f19601f82011682018060405250810190613ae29190615262565b61302e565b905060008090505b600380549050811015613c1d57600060038281548110613b0b57fe5b9060005260206000200160009054906101000a900473ffffffffffffffffffffffffffffffffffffffff1690506000613bed600660019054906101000a900473ffffffffffffffffffffffffffffffffffffffff1673ffffffffffffffffffffffffffffffffffffffff166366cb8d2f846040518263ffffffff1660e01b8152600401613b989190615d55565b60206040518083038186803b158015613bb057600080fd5b505afa158015613bc4573d6000803e3d6000fd5b505050506040513d601f19601f82011682018060405250810190613be89190615262565b61302e565b613bf7838661307b565b141590508015613c0e576000945050505050613c24565b50508080600101915050613aef565b5060019150505b90565b6000613c5682613c48670de0b6b3a764000086613dc790919063ffffffff16565b613e3790919063ffffffff16565b905092915050565b600080613c6b84846144a6565b9150508091505092915050565b600080828401905083811015613cc3576040517f08c379a0000000000000000000000000000000000000000000000000000000008152600401613cba90615fe5565b60405180910390fd5b8091505092915050565b6000613ce2828461455090919063ffffffff16565b905092915050565b600080831480613cfa5750600082145b15613d085760009050613d5e565b613d5b6001613d4d670de0b6b3a7640000613d3f6001613d31888a613dc790919063ffffffff16565b613d6490919063ffffffff16565b613e3790919063ffffffff16565b613c7890919063ffffffff16565b90505b92915050565b6000613da683836040518060400160405280601e81526020017f536166654d6174683a207375627472616374696f6e206f766572666c6f770000815250614587565b905092915050565b6000818310613dbd5781613dbf565b825b905092915050565b600080831415613dda5760009050613e31565b6000828402905082848281613deb57fe5b0414613e2c576040517f08c379a0000000000000000000000000000000000000000000000000000000008152600401613e23906160e5565b60405180910390fd5b809150505b92915050565b6000613e7983836040518060400160405280601a81526020017f536166654d6174683a206469766973696f6e206279207a65726f0000000000008152506145e2565b905092915050565b60006060600060016004811115613e9457fe5b8414613ec257600960009054906101000a900473ffffffffffffffffffffffffffffffffffffffff16613ee6565b600860009054906101000a900473ffffffffffffffffffffffffffffffffffffffff165b9050606080600267ffffffffffffffff81118015613f0357600080fd5b50604051908082528060200260200182016040528015613f325781602001602082028036833780820191505090505b50905060008815613f61576040518060800160405280604381526020016166cb60439139925060019050613f87565b60405180608001604052806043815260200161670e604391399250613f84614643565b90505b8a82600081518110613f9557fe5b602002602001019073ffffffffffffffffffffffffffffffffffffffff16908173ffffffffffffffffffffffffffffffffffffffff16815250508982600181518110613fdd57fe5b602002602001019073ffffffffffffffffffffffffffffffffffffffff16908173ffffffffffffffffffffffffffffffffffffffff1681525050606083898385600660019054906101000a900473ffffffffffffffffffffffffffffffffffffffff1661405460b442613c7890919063ffffffff16565b6040516024016140689594939291906162c9565b604051602081830303815290604052906040516140859190615d3e565b60405180910390207bffffffffffffffffffffffffffffffffffffffffffffffffffffffff19166020820180517bffffffffffffffffffffffffffffffffffffffffffffffffffffffff8381831617835250505050905084819650965050505050509550959350505050565b600060606000600a60009054906101000a900473ffffffffffffffffffffffffffffffffffffffff1690506060600087614144576040518060600160405280603a8152602001616751603a913986614163565b6040518060600160405280603981526020016166926039913960018090505b915091506060828b8b8a856003604051602401614184959493929190615d70565b604051602081830303815290604052906040516141a19190615d3e565b60405180910390207bffffffffffffffffffffffffffffffffffffffffffffffffffffffff19166020820180517bffffffffffffffffffffffffffffffffffffffffffffffffffffffff83818316178352505050509050838195509550505050509550959350505050565b60608282604051602401614221929190615e2a565b6040516020818303038152906040527f095ea7b3000000000000000000000000000000000000000000000000000000007bffffffffffffffffffffffffffffffffffffffffffffffffffffffff19166020820180517bffffffffffffffffffffffffffffffffffffffffffffffffffffffff838183161783525050505090508473ffffffffffffffffffffffffffffffffffffffff16638f6f0332856000846040518463ffffffff1660e01b81526004016142de93929190615dec565b600060405180830381600087803b1580156142f857600080fd5b505af115801561430c573d6000803e3d6000fd5b505050506040513d6000823e3d601f19601f8201168201806040525081019061433591906151f8565b505050505050565b6000806000808673ffffffffffffffffffffffffffffffffffffffff166370a08231896040518263ffffffff1660e01b815260040161437c9190615d55565b60206040518083038186803b15801561439457600080fd5b505afa1580156143a8573d6000803e3d6000fd5b505050506040513d601f19601f820116820180604052508101906143cc91906152b4565b905060006144618973ffffffffffffffffffffffffffffffffffffffff166366cb8d2f8a6040518263ffffffff1660e01b815260040161440c9190615d55565b60206040518083038186803b15801561442457600080fd5b505afa158015614438573d6000803e3d6000fd5b505050506040513d601f19601f8201168201806040525081019061445c9190615262565b61302e565b9050600080831115614480576144798888858561466b565b9050614485565b600090505b6144908a8a836146c5565b8282829550955095505050509450945094915050565b60008060008451905060008090505b8181101561451f578473ffffffffffffffffffffffffffffffffffffffff168682815181106144e057fe5b602002602001015173ffffffffffffffffffffffffffffffffffffffff16141561451257806001935093505050614549565b80806001019150506144b5565b507fffffffffffffffffffffffffffffffffffffffffffffffffffffffffffffffff600092509250505b9250929050565b600061457f670de0b6b3a76400006145718486613dc790919063ffffffff16565b613e3790919063ffffffff16565b905092915050565b60008383111582906145cf576040517f08c379a00000000000000000000000000000000000000000000000000000000081526004016145c69190615f03565b60405180910390fd5b5060008385039050809150509392505050565b60008083118290614629576040517f08c379a00000000000000000000000000000000000000000000000000000000081526004016146209190615f03565b60405180910390fd5b50600083858161463557fe5b049050809150509392505050565b60007fffffffffffffffffffffffffffffffffffffffffffffffffffffffffffffffff905090565b600080614693614684878561455090919063ffffffff16565b86613d6490919063ffffffff16565b90506146ba866146ac8387613d6490919063ffffffff16565b613c2790919063ffffffff16565b915050949350505050565b60006146d1848461486e565b9050801580156146e15750600082115b15614765576146f08484614903565b614760578373ffffffffffffffffffffffffffffffffffffffff16634e353270846040518263ffffffff1660e01b815260040161472d9190615d55565b600060405180830381600087803b15801561474757600080fd5b505af115801561475b573d6000803e3d6000fd5b505050505b6147f3565b8080156147725750600082145b156147f2576147818484614903565b6147f1578373ffffffffffffffffffffffffffffffffffffffff16636f86c897846040518263ffffffff1660e01b81526004016147be9190615d55565b600060405180830381600087803b1580156147d857600080fd5b505af11580156147ec573d6000803e3d6000fd5b505050505b5b5b8373ffffffffffffffffffffffffffffffffffffffff16632ba57d17846148198561499e565b6040518363ffffffff1660e01b8152600401614836929190615dc3565b600060405180830381600087803b15801561485057600080fd5b505af1158015614864573d6000803e3d6000fd5b5050505050505050565b6000808373ffffffffffffffffffffffffffffffffffffffff166366cb8d2f846040518263ffffffff1660e01b81526004016148aa9190615d55565b60206040518083038186803b1580156148c257600080fd5b505afa1580156148d6573d6000803e3d6000fd5b505050506040513d601f19601f820116820180604052508101906148fa9190615262565b13905092915050565b6000808373ffffffffffffffffffffffffffffffffffffffff1663a7bdad03846040518263ffffffff1660e01b815260040161493f9190615d55565b60006040518083038186803b15801561495757600080fd5b505afa15801561496b573d6000803e3d6000fd5b505050506040513d6000823e3d601f19601f820116820180604052508101906149949190615124565b5111905092915050565b60007f80000000000000000000000000000000000000000000000000000000000000008210614a02576040517f08c379a00000000000000000000000000000000000000000000000000000000081526004016149f9906161a5565b60405180910390fd5b819050919050565b6040518060a00160405280600073ffffffffffffffffffffffffffffffffffffffff168152602001600073ffffffffffffffffffffffffffffffffffffffff16815260200160008152602001600060ff168152602001606081525090565b828054828255906000526020600020908101928215614ae1579160200282015b82811115614ae05782518260006101000a81548173ffffffffffffffffffffffffffffffffffffffff021916908373ffffffffffffffffffffffffffffffffffffffff16021790555091602001919060010190614a88565b5b509050614aee9190614b21565b5090565b6040518060a0016040528060008152602001600081526020016000815260200160008152602001600081525090565b614b6191905b80821115614b5d57600081816101000a81549073ffffffffffffffffffffffffffffffffffffffff021916905550600101614b27565b5090565b90565b600081359050614b7381616607565b92915050565b600081519050614b8881616607565b92915050565b60008083601f840112614ba057600080fd5b8235905067ffffffffffffffff811115614bb957600080fd5b602083019150836020820283011115614bd157600080fd5b9250929050565b600082601f830112614be957600080fd5b8151614bfc614bf7826163a3565b616376565b91508181835260208401935060208101905083856020840282011115614c2157600080fd5b60005b83811015614c515781614c378882614b79565b845260208401935060208301925050600181019050614c24565b5050505092915050565b60008083601f840112614c6d57600080fd5b8235905067ffffffffffffffff811115614c8657600080fd5b602083019150836020820283011115614c9e57600080fd5b9250929050565b600082601f830112614cb657600080fd5b8151614cc9614cc4826163cb565b616376565b9150818183526020840193506020810190508360005b83811015614d0f5781518601614cf58882614e0b565b845260208401935060208301925050600181019050614cdf565b5050505092915050565b60008083601f840112614d2b57600080fd5b8235905067ffffffffffffffff811115614d4457600080fd5b602083019150836020820283011115614d5c57600080fd5b9250929050565b600081359050614d728161661e565b92915050565b600081519050614d878161661e565b92915050565b600082601f830112614d9e57600080fd5b8151614db1614dac826163f3565b616376565b91508082526020830160208301858383011115614dcd57600080fd5b614dd88382846165c3565b50505092915050565b600081359050614df081616635565b92915050565b600081519050614e058161664c565b92915050565b600060a08284031215614e1d57600080fd5b614e2760a0616376565b90506000614e3784828501614b79565b6000830152506020614e4b84828501614b79565b6020830152506040614e5f84828501614df6565b6040830152506060614e7384828501614ed5565b606083015250608082015167ffffffffffffffff811115614e9357600080fd5b614e9f84828501614d8d565b60808301525092915050565b600081359050614eba81616663565b92915050565b600081519050614ecf81616663565b92915050565b600081519050614ee48161667a565b92915050565b600060208284031215614efc57600080fd5b6000614f0a84828501614b64565b91505092915050565b600060208284031215614f2557600080fd5b6000614f3384828501614b79565b91505092915050565b60008060208385031215614f4f57600080fd5b600083013567ffffffffffffffff811115614f6957600080fd5b614f7585828601614b8e565b92509250509250929050565b60008060008060408587031215614f9757600080fd5b600085013567ffffffffffffffff811115614fb157600080fd5b614fbd87828801614b8e565b9450945050602085013567ffffffffffffffff811115614fdc57600080fd5b614fe887828801614c5b565b925092505092959194509250565b6000806000806040858703121561500c57600080fd5b600085013567ffffffffffffffff81111561502657600080fd5b61503287828801614b8e565b9450945050602085013567ffffffffffffffff81111561505157600080fd5b61505d87828801614d19565b925092505092959194509250565b60008060008060008060006080888a03121561508657600080fd5b600088013567ffffffffffffffff8111156150a057600080fd5b6150ac8a828b01614b8e565b9750975050602088013567ffffffffffffffff8111156150cb57600080fd5b6150d78a828b01614d19565b9550955050604088013567ffffffffffffffff8111156150f657600080fd5b6151028a828b01614d19565b935093505060606151158a828b01614eab565b91505092959891949750929550565b60006020828403121561513657600080fd5b600082015167ffffffffffffffff81111561515057600080fd5b61515c84828501614bd8565b91505092915050565b60006020828403121561517757600080fd5b600082015167ffffffffffffffff81111561519157600080fd5b61519d84828501614ca5565b91505092915050565b6000602082840312156151b857600080fd5b60006151c684828501614d63565b91505092915050565b6000602082840312156151e157600080fd5b60006151ef84828501614d78565b91505092915050565b60006020828403121561520a57600080fd5b600082015167ffffffffffffffff81111561522457600080fd5b61523084828501614d8d565b91505092915050565b60006020828403121561524b57600080fd5b600061525984828501614de1565b91505092915050565b60006020828403121561527457600080fd5b600061528284828501614df6565b91505092915050565b60006020828403121561529d57600080fd5b60006152ab84828501614eab565b91505092915050565b6000602082840312156152c657600080fd5b60006152d484828501614ec0565b91505092915050565b60006152e9838361530d565b60208301905092915050565b60006153018383615d20565b60208301905092915050565b615316816164d4565b82525050565b615325816164d4565b82525050565b60006153368261643f565b6153408185616485565b935061534b8361641f565b8060005b8381101561537c57815161536388826152dd565b975061536e8361646b565b92505060018101905061534f565b5085935050505092915050565b60006153948261644a565b61539e8185616496565b93506153a98361642f565b8060005b838110156153da5781516153c188826152f5565b97506153cc83616478565b9250506001810190506153ad565b5085935050505092915050565b6153f0816164e6565b82525050565b600061540182616455565b61540b81856164a7565b935061541b8185602086016165c3565b615424816165f6565b840191505092915050565b61543881616545565b82525050565b61544781616569565b82525050565b6154568161658d565b82525050565b61546581616504565b82525050565b615474816165b1565b82525050565b600061548582616460565b61548f81856164b8565b935061549f8185602086016165c3565b6154a8816165f6565b840191505092915050565b60006154be82616460565b6154c881856164c9565b93506154d88185602086016165c3565b80840191505092915050565b60006154f1603e836164b8565b91507f54617267657473206d757374206265206d657420616e64204554482072656d6160008301527f696e696e6720696e206f7264657220746f2072616973652074617267657400006020830152604082019050919050565b60006155576015836164b8565b91507f4172726179206c656e677468206d69736d6174636800000000000000000000006000830152602082019050919050565b6000615597601a836164b8565b91507f43616c6c6572206d75737420626520454f4120416464726573730000000000006000830152602082019050919050565b60006155d76028836164b8565b91507f4d75737420626520612076616c696420616e6420696e697469616c697a65642060008301527f536574546f6b656e0000000000000000000000000000000000000000000000006020830152604082019050919050565b600061563d6020836164b8565b91507f556e7265636f676e697a65642065786368616e6765206964656e7469666965726000830152602082019050919050565b600061567d601e836164b8565b91507f41646472657373206e6f74207065726d697474656420746f20747261646500006000830152602082019050919050565b60006156bd601b836164b8565b91507f536166654d6174683a206164646974696f6e206f766572666c6f7700000000006000830152602082019050919050565b60006156fd601e836164b8565b91507f4d7573742062652070656e64696e6720696e697469616c697a6174696f6e00006000830152602082019050919050565b600061573d6021836164b8565b91507f574554482063616e6e6f7420626520616e20696e64657820636f6d706f6e656e60008301527f74000000000000000000000000000000000000000000000000000000000000006020830152604082019050919050565b60006157a36036836164b8565b91507f4e657720616c6c6f636174696f6e206d7573742068617665207461726765742060008301527f666f7220616c6c206f6c6420636f6d706f6e656e7473000000000000000000006020830152604082019050919050565b6000615809601a836164b8565b91507f45786368616e6765206d757374206265207370656369666965640000000000006000830152602082019050919050565b60006158496020836164b8565b91507f53616665436173743a2076616c7565206d75737420626520706f7369746976656000830152602082019050919050565b60006158896023836164b8565b91507f54726164652073697a6520657863656564732074726164652073697a65206c6960008301527f6d697400000000000000000000000000000000000000000000000000000000006020830152604082019050919050565b60006158ef601b836164b8565b91507f43616e6e6f74206475706c696361746520636f6d706f6e656e747300000000006000830152602082019050919050565b600061592f6021836164b8565b91507f536166654d6174683a206d756c7469706c69636174696f6e206f766572666c6f60008301527f77000000000000000000000000000000000000000000000000000000000000006020830152604082019050919050565b60006159956015836164b8565b91507f4d6f64756c6520616c726561647920696e2075736500000000000000000000006000830152602082019050919050565b60006159d56018836164b8565b91507f43616e6e6f74206475706c6963617465207472616465727300000000000000006000830152602082019050919050565b6000615a15602a836164b8565b91507f50617373656420636f6d706f6e656e74206e6f7420696e636c7564656420696e60008301527f20726562616c616e6365000000000000000000000000000000000000000000006020830152604082019050919050565b6000615a7b6012836164b8565b91507f54617267657420616c7265616479206d657400000000000000000000000000006000830152602082019050919050565b6000615abb6018836164b8565b91507f4172726179206c656e677468206d757374206265203e203000000000000000006000830152602082019050919050565b6000615afb6028836164b8565b91507f53616665436173743a2076616c756520646f65736e27742066697420696e206160008301527f6e20696e743235360000000000000000000000000000000000000000000000006020830152604082019050919050565b6000615b616023836164b8565b91507f4d75737420626520636f6e74726f6c6c65722d656e61626c656420536574546f60008301527f6b656e00000000000000000000000000000000000000000000000000000000006020830152604082019050919050565b6000615bc7601c836164b8565b91507f4d7573742062652074686520536574546f6b656e206d616e61676572000000006000830152602082019050919050565b6000615c076020836164b8565b91507f436f6f6c206f666620706572696f6420686173206e6f7420656c61707365642e6000830152602082019050919050565b6000615c476032836164b8565b91507f4d7573742073656c6c20616c6c2073656c6c61626c6520746f6b656e7320626560008301527f666f72652063616e2062652063616c6c656400000000000000000000000000006020830152604082019050919050565b6000615cad601f836164b8565b91507f5265656e7472616e637947756172643a207265656e7472616e742063616c6c006000830152602082019050919050565b6000615ced600a836164b8565b91507f4120697320656d707479000000000000000000000000000000000000000000006000830152602082019050919050565b615d298161652e565b82525050565b615d388161652e565b82525050565b6000615d4a82846154b3565b915081905092915050565b6000602082019050615d6a600083018461531c565b92915050565b600060a082019050615d85600083018861531c565b615d92602083018761531c565b615d9f6040830186615d2f565b615dac6060830185615d2f565b615db96080830184615d2f565b9695505050505050565b6000604082019050615dd8600083018561531c565b615de5602083018461545c565b9392505050565b6000606082019050615e01600083018661531c565b615e0e602083018561546b565b8181036040830152615e2081846153f6565b9050949350505050565b6000604082019050615e3f600083018561531c565b615e4c6020830184615d2f565b9392505050565b60006020820190508181036000830152615e6d818461532b565b905092915050565b60006020820190508181036000830152615e8f8184615389565b905092915050565b6000602082019050615eac60008301846153e7565b92915050565b6000602082019050615ec7600083018461542f565b92915050565b6000602082019050615ee2600083018461543e565b92915050565b6000602082019050615efd600083018461544d565b92915050565b60006020820190508181036000830152615f1d818461547a565b905092915050565b60006020820190508181036000830152615f3e816154e4565b9050919050565b60006020820190508181036000830152615f5e8161554a565b9050919050565b60006020820190508181036000830152615f7e8161558a565b9050919050565b60006020820190508181036000830152615f9e816155ca565b9050919050565b60006020820190508181036000830152615fbe81615630565b9050919050565b60006020820190508181036000830152615fde81615670565b9050919050565b60006020820190508181036000830152615ffe816156b0565b9050919050565b6000602082019050818103600083015261601e816156f0565b9050919050565b6000602082019050818103600083015261603e81615730565b9050919050565b6000602082019050818103600083015261605e81615796565b9050919050565b6000602082019050818103600083015261607e816157fc565b9050919050565b6000602082019050818103600083015261609e8161583c565b9050919050565b600060208201905081810360008301526160be8161587c565b9050919050565b600060208201905081810360008301526160de816158e2565b9050919050565b600060208201905081810360008301526160fe81615922565b9050919050565b6000602082019050818103600083015261611e81615988565b9050919050565b6000602082019050818103600083015261613e816159c8565b9050919050565b6000602082019050818103600083015261615e81615a08565b9050919050565b6000602082019050818103600083015261617e81615a6e565b9050919050565b6000602082019050818103600083015261619e81615aae565b9050919050565b600060208201905081810360008301526161be81615aee565b9050919050565b600060208201905081810360008301526161de81615b54565b9050919050565b600060208201905081810360008301526161fe81615bba565b9050919050565b6000602082019050818103600083015261621e81615bfa565b9050919050565b6000602082019050818103600083015261623e81615c3a565b9050919050565b6000602082019050818103600083015261625e81615ca0565b9050919050565b6000602082019050818103600083015261627e81615ce0565b9050919050565b600060208201905061629a6000830184615d2f565b92915050565b60006040820190506162b56000830185615d2f565b6162c26020830184615d2f565b9392505050565b600060a0820190506162de6000830188615d2f565b6162eb6020830187615d2f565b81810360408301526162fd818661532b565b905061630c606083018561531c565b6163196080830184615d2f565b9695505050505050565b600060a0820190506163386000830188615d2f565b6163456020830187615d2f565b6163526040830186615d2f565b61635f6060830185615d2f565b61636c6080830184615d2f565b9695505050505050565b6000604051905081810181811067ffffffffffffffff8211171561639957600080fd5b8060405250919050565b600067ffffffffffffffff8211156163ba57600080fd5b602082029050602081019050919050565b600067ffffffffffffffff8211156163e257600080fd5b602082029050602081019050919050565b600067ffffffffffffffff82111561640a57600080fd5b601f19601f8301169050602081019050919050565b6000819050602082019050919050565b6000819050602082019050919050565b600081519050919050565b600081519050919050565b600081519050919050565b600081519050919050565b6000602082019050919050565b6000602082019050919050565b600082825260208201905092915050565b600082825260208201905092915050565b600082825260208201905092915050565b600082825260208201905092915050565b600081905092915050565b60006164df8261650e565b9050919050565b60008115159050919050565b60006164fd826164d4565b9050919050565b6000819050919050565b600073ffffffffffffffffffffffffffffffffffffffff82169050919050565b6000819050919050565b600060ff82169050919050565b600061655082616557565b9050919050565b60006165628261650e565b9050919050565b60006165748261657b565b9050919050565b60006165868261650e565b9050919050565b60006165988261659f565b9050919050565b60006165aa8261650e565b9050919050565b60006165bc8261652e565b9050919050565b60005b838110156165e15780820151818401526020810190506165c6565b838111156165f0576000848401525b50505050565b6000601f19601f8301169050919050565b616610816164d4565b811461661b57600080fd5b50565b616627816164e6565b811461663257600080fd5b50565b61663e816164f2565b811461664957600080fd5b50565b61665581616504565b811461666057600080fd5b50565b61666c8161652e565b811461667757600080fd5b50565b61668381616538565b811461668e57600080fd5b5056fe736d617274537761704578616374496e28616464726573732c616464726573732c75696e743235362c75696e743235362c75696e7432353629737761704578616374546f6b656e73466f72546f6b656e732875696e743235362c75696e743235362c616464726573735b5d2c616464726573732c75696e743235362973776170546f6b656e73466f724578616374546f6b656e732875696e743235362c75696e743235362c616464726573735b5d2c616464726573732c75696e7432353629736d6172745377617045786163744f757428616464726573732c616464726573732c75696e743235362c75696e743235362c75696e7432353629a26469706673582212208e40593a6948bfcff9bc2839ce2c40b61b36d5fbe13e577407751b1f2caf1b3164736f6c634300060a0033",
  "immutableReferences": {},
  "source": "/*\n    Copyright 2020 Set Labs Inc.\n\n    Licensed under the Apache License, Version 2.0 (the \"License\");\n    you may not use this file except in compliance with the License.\n    You may obtain a copy of the License at\n\n    http://www.apache.org/licenses/LICENSE-2.0\n\n    Unless required by applicable law or agreed to in writing, software\n    distributed under the License is distributed on an \"AS IS\" BASIS,\n    WITHOUT WARRANTIES OR CONDITIONS OF ANY KIND, either express or implied.\n    See the License for the specific language governing permissions and\n    limitations under the License.\n\n    SPDX-License-Identifier: Apache License, Version 2.0\n*/\n\npragma solidity 0.6.10;\npragma experimental \"ABIEncoderV2\";\n\nimport { IERC20 } from \"@openzeppelin/contracts/token/ERC20/IERC20.sol\";\nimport { Math } from \"@openzeppelin/contracts/math/Math.sol\";\nimport { ReentrancyGuard } from \"@openzeppelin/contracts/utils/ReentrancyGuard.sol\";\nimport { SafeCast } from \"@openzeppelin/contracts/utils/SafeCast.sol\";\nimport { SafeMath } from \"@openzeppelin/contracts/math/SafeMath.sol\";\n\nimport { AddressArrayUtils } from \"../../lib/AddressArrayUtils.sol\";\nimport { IController } from \"../../interfaces/IController.sol\";\nimport { Invoke } from \"../lib/Invoke.sol\";\nimport { ISetToken } from \"../../interfaces/ISetToken.sol\";\nimport { IWETH } from \"../../interfaces/external/IWETH.sol\";\nimport { ModuleBase } from \"../lib/ModuleBase.sol\";\nimport { Position } from \"../lib/Position.sol\";\nimport { PreciseUnitMath } from \"../../lib/PreciseUnitMath.sol\";\nimport { Uint256ArrayUtils } from \"../../lib/Uint256ArrayUtils.sol\";\n\n\n/**\n * @title SingleIndexModule\n * @author Set Protocol\n *\n * Smart contract that facilitates rebalances for indices. Manager can set target unit amounts, max trade sizes, the\n * exchange to trade on, and the cool down period between trades (on a per asset basis). As currently constructed\n * the module only works for one Set at a time.\n *\n * SECURITY ASSUMPTION:\n *  - Works with following modules: StreamingFeeModule, BasicIssuanceModule (any other module additions to Sets using\n      this module need to be examined separately)\n */\ncontract SingleIndexModule is ModuleBase, ReentrancyGuard {\n    using SafeCast for int256;\n    using SafeCast for uint256;\n    using SafeMath for uint256;\n    using Position for uint256;\n    using Math for uint256;\n    using Position for ISetToken;\n    using Invoke for ISetToken;\n    using AddressArrayUtils for address[];\n    using Uint256ArrayUtils for uint256[];\n\n    /* ============ Structs ============ */\n\n    struct AssetTradeInfo {\n        uint256 targetUnit;              // Target unit for the asset during current rebalance period\n        uint256 maxSize;                 // Max trade size in precise units\n        uint256 coolOffPeriod;           // Required time between trades for the asset\n        uint256 lastTradeTimestamp;      // Timestamp of last trade\n        uint256 exchange;                // Integer representing ID of exchange to use\n    }\n\n    /* ============ Enums ============ */\n\n    // Enum of exchange Ids\n    enum ExchangeId {\n        None,\n        Uniswap,\n        Sushiswap,\n        Balancer,\n        Last\n    }\n\n    /* ============ Events ============ */\n\n    event TargetUnitsUpdated(address indexed _component, uint256 _newUnit, uint256 _positionMultiplier);\n    event TradeMaximumUpdated(address indexed _component, uint256 _newMaximum);\n    event AssetExchangeUpdated(address indexed _component, uint256 _newExchange);\n    event CoolOffPeriodUpdated(address indexed _component, uint256 _newCoolOffPeriod);\n    event TraderStatusUpdated(address indexed _trader, bool _status);\n    event AnyoneTradeUpdated(bool indexed _status);\n    event TradeExecuted(\n        address indexed _executor,\n        address indexed _sellComponent,\n        address indexed _buyComponent,\n        uint256 _amountSold,\n        uint256 _amountBought\n    );\n\n    /* ============ Constants ============ */\n\n    uint256 private constant TARGET_RAISE_DIVISOR = 1.0025e18;       // Raise targets 25 bps\n    uint256 private constant BALANCER_POOL_LIMIT = 3;                // Amount of pools examined when fetching quote\n\n    string private constant UNISWAP_OUT = \"swapTokensForExactTokens(uint256,uint256,address[],address,uint256)\";\n    string private constant UNISWAP_IN = \"swapExactTokensForTokens(uint256,uint256,address[],address,uint256)\";\n    string private constant BALANCER_OUT = \"smartSwapExactOut(address,address,uint256,uint256,uint256)\";\n    string private constant BALANCER_IN = \"smartSwapExactIn(address,address,uint256,uint256,uint256)\";\n\n    /* ============ State Variables ============ */\n\n    mapping(address => AssetTradeInfo) public assetInfo;    // Mapping of component to component restrictions\n    address[] public rebalanceComponents;                   // Components having units updated during current rebalance\n    uint256 public positionMultiplier;                      // Position multiplier when current rebalance units were devised\n    mapping(address => bool) public tradeAllowList;         // Mapping of addresses allowed to call trade()\n    bool public anyoneTrade;                                // Toggles on or off skipping the tradeAllowList\n    ISetToken public index;                                 // Index being managed with contract\n    IWETH public weth;                                      // Weth contract address\n    address public uniswapRouter;                           // Uniswap router address\n    address public sushiswapRouter;                         // Sushiswap router address\n    address public balancerProxy;                           // Balancer exchange proxy address\n\n    /* ============ Modifiers ============ */\n\n    modifier onlyAllowedTrader(address _caller) {\n        require(_isAllowedTrader(_caller), \"Address not permitted to trade\");\n        _;\n    }\n\n    modifier onlyEOA() {\n        require(msg.sender == tx.origin, \"Caller must be EOA Address\");\n        _;\n    }\n\n    /* ============ Constructor ============ */\n\n    constructor(\n        IController _controller,\n        IWETH _weth,\n        address _uniswapRouter,\n        address _sushiswapRouter,\n        address _balancerProxy\n    )\n        public\n        ModuleBase(_controller)\n    {\n        weth = _weth;\n        uniswapRouter = _uniswapRouter;\n        sushiswapRouter = _sushiswapRouter;\n        balancerProxy = _balancerProxy;\n    }\n\n    /**\n     * MANAGER ONLY: Set new target units, zeroing out any units for components being removed from index. Log position multiplier to\n     * adjust target units in case fees are accrued. Validate that weth is not a part of the new allocation and that all components\n     * in current allocation are in _components array.\n     *\n     * @param _newComponents                    Array of new components to add to allocation\n     * @param _newComponentsTargetUnits         Array of target units at end of rebalance for new components, maps to same index of component\n     * @param _oldComponentsTargetUnits         Array of target units at end of rebalance for old component, maps to same index of component,\n     *                                               if component being removed set to 0.\n     * @param _positionMultiplier               Position multiplier when target units were calculated, needed in order to adjust target units\n     *                                               if fees accrued\n     */\n    function startRebalance(\n        address[] calldata _newComponents,\n        uint256[] calldata _newComponentsTargetUnits,\n        uint256[] calldata _oldComponentsTargetUnits,\n        uint256 _positionMultiplier\n    )\n        external\n        onlyManagerAndValidSet(index)\n    {   \n        // Don't use validate arrays because empty arrays are valid\n        require(_newComponents.length == _newComponentsTargetUnits.length, \"Array length mismatch\");\n\n        address[] memory currentComponents = index.getComponents();\n        require(currentComponents.length == _oldComponentsTargetUnits.length, \"New allocation must have target for all old components\");\n\n        address[] memory aggregateComponents = currentComponents.extend(_newComponents);\n        uint256[] memory aggregateTargetUnits = _oldComponentsTargetUnits.extend(_newComponentsTargetUnits);\n\n        require(!aggregateComponents.hasDuplicate(), \"Cannot duplicate components\");\n\n        for (uint256 i = 0; i < aggregateComponents.length; i++) {\n            address component = aggregateComponents[i];\n            uint256 targetUnit = aggregateTargetUnits[i];\n\n            require(address(component) != address(weth), \"WETH cannot be an index component\");\n            assetInfo[component].targetUnit = targetUnit;\n\n            emit TargetUnitsUpdated(component, targetUnit, _positionMultiplier);\n        }\n\n        rebalanceComponents = aggregateComponents;\n        positionMultiplier = _positionMultiplier;\n    }\n\n    /**\n     * ACCESS LIMITED: Only approved addresses can call if anyoneTrade is false. Determines trade size\n     * and direction and swaps into or out of WETH on exchange specified by manager.\n     *\n     * @param _component            Component to trade\n     */\n    function trade(address _component) external nonReentrant onlyAllowedTrader(msg.sender) onlyEOA() virtual {\n\n        _validateTradeParameters(_component);\n\n        (\n            bool isBuy,\n            uint256 tradeAmount\n        ) = _calculateTradeSizeAndDirection(_component);\n\n        if (isBuy) {\n            _buyUnderweight(_component, tradeAmount);\n        } else {\n            _sellOverweight(_component, tradeAmount);\n        }\n\n        assetInfo[_component].lastTradeTimestamp = block.timestamp;\n    }\n\n    /**\n     * ACCESS LIMITED: Only approved addresses can call if anyoneTrade is false. Only callable when 1) there are no\n     * more components to be sold and, 2) entire remaining WETH amount can be traded such that resulting inflows won't\n     * exceed components maxTradeSize nor overshoot the target unit. To be used near the end of rebalances when a\n     * component's calculated trade size is greater in value than remaining WETH.\n     *\n     * @param _component            Component to trade\n     */\n    function tradeRemainingWETH(address _component) external nonReentrant onlyAllowedTrader(msg.sender) onlyEOA() virtual {\n        require(_noTokensToSell(), \"Must sell all sellable tokens before can be called\");\n\n        _validateTradeParameters(_component);\n\n        (, uint256 tradeLimit) = _calculateTradeSizeAndDirection(_component);\n\n        uint256 preTradeComponentAmount = IERC20(_component).balanceOf(address(index));\n        uint256 preTradeWethAmount = weth.balanceOf(address(index));\n\n        _executeTrade(address(weth), _component, true, preTradeWethAmount, assetInfo[_component].exchange);\n\n        (,\n            uint256 componentTradeSize\n        ) = _updatePositionState(address(weth), _component, preTradeWethAmount, preTradeComponentAmount);\n\n        require(componentTradeSize < tradeLimit, \"Trade size exceeds trade size limit\");\n\n        assetInfo[_component].lastTradeTimestamp = block.timestamp;\n    }\n\n    /**\n     * ACCESS LIMITED: For situation where all target units met and remaining WETH, uniformly raise targets by same\n     * percentage in order to allow further trading. Can be called multiple times if necessary, increase should be\n     * small in order to reduce tracking error.\n     */\n    function raiseAssetTargets() external nonReentrant onlyAllowedTrader(msg.sender) virtual {\n        require(\n            _allTargetsMet() && index.getDefaultPositionRealUnit(address(weth)) > 0,\n            \"Targets must be met and ETH remaining in order to raise target\"\n        );\n\n        positionMultiplier = positionMultiplier.preciseDiv(TARGET_RAISE_DIVISOR);\n    }\n\n    /**\n     * MANAGER ONLY: Set trade maximums for passed components\n     *\n     * @param _components            Array of components\n     * @param _tradeMaximums         Array of trade maximums mapping to correct component\n     */\n    function setTradeMaximums(\n        address[] calldata _components,\n        uint256[] calldata _tradeMaximums\n    )\n        external\n        onlyManagerAndValidSet(index)\n    {\n        _validateArrays(_components, _tradeMaximums);\n\n        for (uint256 i = 0; i < _components.length; i++) {\n            assetInfo[_components[i]].maxSize = _tradeMaximums[i];\n            emit TradeMaximumUpdated(_components[i], _tradeMaximums[i]);\n        }\n    }\n\n    /**\n     * MANAGER ONLY: Set exchange for passed components\n     *\n     * @param _components        Array of components\n     * @param _exchanges         Array of exchanges mapping to correct component, uint256 used to signify exchange\n     */\n    function setExchanges(\n        address[] calldata _components,\n        uint256[] calldata _exchanges\n    )\n        external\n        onlyManagerAndValidSet(index)\n    {\n        _validateArrays(_components, _exchanges);\n\n        for (uint256 i = 0; i < _components.length; i++) {\n            uint256 exchange = _exchanges[i];\n            require(exchange < uint256(ExchangeId.Last), \"Unrecognized exchange identifier\");\n            assetInfo[_components[i]].exchange = _exchanges[i];\n\n            emit AssetExchangeUpdated(_components[i], exchange);\n        }\n    }\n\n    /**\n     * MANAGER ONLY: Set exchange for passed components\n     *\n     * @param _components           Array of components\n     * @param _coolOffPeriods       Array of cool off periods to correct component\n     */\n    function setCoolOffPeriods(\n        address[] calldata _components,\n        uint256[] calldata _coolOffPeriods\n    )\n        external\n        onlyManagerAndValidSet(index)\n    {\n        _validateArrays(_components, _coolOffPeriods);\n\n        for (uint256 i = 0; i < _components.length; i++) {\n            assetInfo[_components[i]].coolOffPeriod = _coolOffPeriods[i];\n            emit CoolOffPeriodUpdated(_components[i], _coolOffPeriods[i]);\n        }\n    }\n\n    /**\n     * MANAGER ONLY: Toggle ability for passed addresses to trade from current state \n     *\n     * @param _traders           Array trader addresses to toggle status\n     * @param _statuses          Booleans indicating if matching trader can trade\n     */\n    function updateTraderStatus(address[] calldata _traders, bool[] calldata _statuses) external onlyManagerAndValidSet(index) {\n        require(_traders.length == _statuses.length, \"Array length mismatch\");\n        require(_traders.length > 0, \"Array length must be > 0\");\n        require(!_traders.hasDuplicate(), \"Cannot duplicate traders\");\n\n        for (uint256 i = 0; i < _traders.length; i++) {\n            address trader = _traders[i];\n            bool status = _statuses[i];\n            tradeAllowList[trader] = status;\n            emit TraderStatusUpdated(trader, status);\n        }\n    }\n\n    /**\n     * MANAGER ONLY: Toggle whether anyone can trade, bypassing the traderAllowList\n     *\n     * @param _status           Boolean indicating if anyone can trade\n     */\n    function updateAnyoneTrade(bool _status) external onlyManagerAndValidSet(index) {\n        anyoneTrade = _status;\n        emit AnyoneTradeUpdated(_status);\n    }\n\n    /**\n     * MANAGER ONLY: Set target units to current units and last trade to zero. Initialize module.\n     *\n     * @param _index            Address of index being used for this Set\n     */\n    function initialize(ISetToken _index)\n        external\n        onlySetManager(_index, msg.sender)\n        onlyValidAndPendingSet(_index)\n    {\n        require(address(index) == address(0), \"Module already in use\");\n\n        ISetToken.Position[] memory positions = _index.getPositions();\n\n        for (uint256 i = 0; i < positions.length; i++) {\n            ISetToken.Position memory position = positions[i];\n            assetInfo[position.component].targetUnit = position.unit.toUint256();\n            assetInfo[position.component].lastTradeTimestamp = 0;\n        }\n\n        index = _index;\n        _index.initializeModule();\n    }\n\n    function removeModule() external override {}\n\n    /* ============ Getter Functions ============ */\n\n    /**\n     * Get target units for passed components, normalized to current positionMultiplier.\n     *\n     * @param _components           Array of components to get target units for\n     * @return                      Array of targetUnits mapping to passed components\n     */\n    function getTargetUnits(address[] calldata _components) external view returns(uint256[] memory) {\n        uint256 currentPositionMultiplier = index.positionMultiplier().toUint256();\n        \n        uint256[] memory targetUnits = new uint256[](_components.length);\n        for (uint256 i = 0; i < _components.length; i++) {\n            targetUnits[i] = _normalizeTargetUnit(_components[i], currentPositionMultiplier);\n        }\n\n        return targetUnits;\n    }\n\n    function getRebalanceComponents() external view returns(address[] memory) {\n        return rebalanceComponents;\n    }\n\n    /* ============ Internal Functions ============ */\n\n    /**\n     * Validate that enough time has elapsed since component's last trade and component isn't WETH.\n     */\n    function _validateTradeParameters(address _component) internal view virtual {\n        require(rebalanceComponents.contains(_component), \"Passed component not included in rebalance\");\n\n        AssetTradeInfo memory componentInfo = assetInfo[_component];\n        require(componentInfo.exchange != uint256(ExchangeId.None), \"Exchange must be specified\");\n        require(\n            componentInfo.lastTradeTimestamp.add(componentInfo.coolOffPeriod) <= block.timestamp,\n            \"Cool off period has not elapsed.\"\n        );\n    }\n\n    /**\n     * Calculate trade size and whether trade is buy. Trade size is the minimum of the max size and components left to trade.\n     * Reverts if target quantity is already met. Target unit is adjusted based on ratio of position multiplier when target was defined\n     * and the current positionMultiplier.\n     */\n    function _calculateTradeSizeAndDirection(address _component) internal view returns (bool isBuy, uint256) {\n        uint256 totalSupply = index.totalSupply();\n\n        uint256 componentMaxSize = assetInfo[_component].maxSize;\n        uint256 currentPositionMultiplier = index.positionMultiplier().toUint256();\n\n        uint256 currentUnit = index.getDefaultPositionRealUnit(_component).toUint256();\n        uint256 targetUnit = _normalizeTargetUnit(_component, currentPositionMultiplier);\n\n        require(currentUnit != targetUnit, \"Target already met\");\n\n        uint256 currentNotional = totalSupply.getDefaultTotalNotional(currentUnit);\n        uint256 targetNotional = totalSupply.preciseMulCeil(targetUnit);\n\n        return targetNotional > currentNotional ? (true, componentMaxSize.min(targetNotional.sub(currentNotional))) :\n            (false, componentMaxSize.min(currentNotional.sub(targetNotional)));\n    }\n\n    /**\n     * Buy an underweight asset by selling an unfixed amount of WETH for a fixed amount of the component.\n     */\n    function _buyUnderweight(address _component, uint256 _amount) internal {\n        uint256 preTradeBuyComponentAmount = IERC20(_component).balanceOf(address(index));\n        uint256 preTradeSellComponentAmount = weth.balanceOf(address(index));\n\n        _executeTrade(address(weth), _component, false, _amount, assetInfo[_component].exchange);\n\n        _updatePositionState(address(weth), _component, preTradeSellComponentAmount, preTradeBuyComponentAmount);\n    }\n\n    /**\n     * Sell an overweight asset by selling a fixed amount of component for an unfixed amount of WETH.\n     */\n    function _sellOverweight(address _component, uint256 _amount) internal {\n        uint256 preTradeBuyComponentAmount = weth.balanceOf(address(index));\n        uint256 preTradeSellComponentAmount = IERC20(_component).balanceOf(address(index));\n\n        _executeTrade(_component, address(weth), true, _amount, assetInfo[_component].exchange);\n\n        _updatePositionState(_component, address(weth), preTradeSellComponentAmount, preTradeBuyComponentAmount);\n    }\n\n    /**\n     * Determine parameters for trade and invoke trade on index using correct exchange.\n     */\n    function _executeTrade(\n        address _sellComponent,\n        address _buyComponent,\n        bool _fixIn,\n        uint256 _amount,\n        uint256 _exchange\n    )\n        internal\n        virtual\n    {\n        uint256 wethBalance = weth.balanceOf(address(index));\n        \n        (\n            address exchangeAddress,\n            bytes memory tradeCallData\n        ) = _exchange == uint256(ExchangeId.Balancer) ? _getBalancerTradeData(_sellComponent, _buyComponent, _fixIn, _amount, wethBalance) :\n            _getUniswapLikeTradeData(_sellComponent, _buyComponent, _fixIn, _amount, _exchange);\n\n        uint256 approveAmount = _sellComponent == address(weth) ? wethBalance : _amount;\n        index.invokeApprove(_sellComponent, exchangeAddress, approveAmount);\n        index.invoke(exchangeAddress, 0, tradeCallData);\n    }\n\n    /**\n     * Update position units on index. Emit event.\n     */\n    function _updatePositionState(\n        address _sellComponent,\n        address _buyComponent,\n        uint256 _preTradeSellComponentAmount,\n        uint256 _preTradeBuyComponentAmount\n    )\n        internal\n        returns (uint256 sellAmount, uint256 buyAmount)\n    {\n        uint256 totalSupply = index.totalSupply();\n\n        (uint256 postTradeSellComponentAmount,,) = index.calculateAndEditDefaultPosition(\n            _sellComponent,\n            totalSupply,\n            _preTradeSellComponentAmount\n        );\n        (uint256 postTradeBuyComponentAmount,,) = index.calculateAndEditDefaultPosition(\n            _buyComponent,\n            totalSupply,\n            _preTradeBuyComponentAmount\n        );\n\n        sellAmount = _preTradeSellComponentAmount.sub(postTradeSellComponentAmount);\n        buyAmount = postTradeBuyComponentAmount.sub(_preTradeBuyComponentAmount);\n\n        emit TradeExecuted(\n            msg.sender,\n            _sellComponent,\n            _buyComponent,\n            sellAmount,\n            buyAmount\n        );\n    }\n\n    /**\n     * Create Balancer trade call data\n     */\n    function _getBalancerTradeData(\n        address _sellComponent,\n        address _buyComponent,\n        bool _fixIn,\n        uint256 _amount,\n        uint256 _maxOut\n    )\n        internal\n        view\n        returns(address, bytes memory)\n    {\n        address exchangeAddress = balancerProxy;\n        (\n            string memory functionSignature,\n            uint256 limit\n        ) = _fixIn ? (BALANCER_IN, 1) : (BALANCER_OUT, _maxOut);\n\n        bytes memory tradeCallData = abi.encodeWithSignature(\n            functionSignature,\n            _sellComponent,\n            _buyComponent,\n            _amount,\n            limit,\n            BALANCER_POOL_LIMIT\n        );\n\n        return (exchangeAddress, tradeCallData);       \n    }\n\n    /**\n     * Determine whether exchange to call is Uniswap or Sushiswap and generate necessary call data.\n     */\n    function _getUniswapLikeTradeData(\n        address _sellComponent,\n        address _buyComponent,\n        bool _fixIn,\n        uint256 _amount,\n        uint256 _exchange\n    )\n        internal\n        view\n        returns(address, bytes memory)\n    {\n        address exchangeAddress = _exchange == uint256(ExchangeId.Uniswap) ? uniswapRouter : sushiswapRouter;\n        \n        string memory functionSignature;\n        address[] memory path = new address[](2);\n        uint256 limit;\n        if (_fixIn) {\n            functionSignature = UNISWAP_IN;\n            limit = 1;\n        } else {\n            functionSignature = UNISWAP_OUT;\n            limit = PreciseUnitMath.maxUint256();\n        }\n        path[0] = _sellComponent;\n        path[1] = _buyComponent;\n        \n        bytes memory tradeCallData = abi.encodeWithSignature(\n            functionSignature,\n            _amount,\n            limit,\n            path,\n            address(index),\n            now.add(180)\n        );\n\n        return (exchangeAddress, tradeCallData);\n    }\n\n    /**\n     * Check if there are any more tokens to sell.\n     */\n    function _noTokensToSell() internal view returns (bool) {\n        uint256 currentPositionMultiplier = index.positionMultiplier().toUint256();\n        for (uint256 i = 0; i < rebalanceComponents.length; i++) {\n            address component = rebalanceComponents[i];\n            bool canSell = _normalizeTargetUnit(component, currentPositionMultiplier) < index.getDefaultPositionRealUnit(\n                component\n            ).toUint256();\n            if (canSell) { return false; }\n        }\n        return true;\n    }\n\n    /**\n     * Check if all targets are met\n     */\n    function _allTargetsMet() internal view returns (bool) {\n        uint256 currentPositionMultiplier = index.positionMultiplier().toUint256();\n        for (uint256 i = 0; i < rebalanceComponents.length; i++) {\n            address component = rebalanceComponents[i];\n            bool targetUnmet = _normalizeTargetUnit(component, currentPositionMultiplier) != index.getDefaultPositionRealUnit(\n                component\n            ).toUint256();\n            if (targetUnmet) { return false; }\n        }\n        return true;\n    }\n\n    /**\n     * Normalize target unit to current position multiplier in case fees have been accrued.\n     */\n    function _normalizeTargetUnit(address _component, uint256 _currentPositionMultiplier) internal view returns(uint256) {\n        return assetInfo[_component].targetUnit.mul(_currentPositionMultiplier).div(positionMultiplier);\n    }\n\n    /**\n     * Determine if passed address is allowed to call trade. If anyoneTrade set to true anyone can call otherwise needs to be approved.\n     */\n    function _isAllowedTrader(address _caller) internal view virtual returns (bool) {\n        return anyoneTrade || tradeAllowList[_caller];\n    }\n\n    /**\n     * Validate arrays are of equal length and not empty.\n     */\n    function _validateArrays(address[] calldata _components, uint256[] calldata _data) internal pure {\n        require(_components.length == _data.length, \"Array length mismatch\");\n        require(_components.length > 0, \"Array length must be > 0\");\n        require(!_components.hasDuplicate(), \"Cannot duplicate components\");\n    }\n}",
  "sourcePath": "/Users/tahadhailey/Documents/top5/top5swap/swap/contracts/protocol/modules/SingleIndexModule.sol",
  "compiler": {
    "name": "solc",
    "version": "0.6.10+commit.00c0fcaf.Emscripten.clang"
  },
  "schemaVersion": "3.2.1",
  "updatedAt": "2021-01-21T08:20:37.791Z",
  "devdoc": {
    "author": "Set Protocol Smart contract that facilitates rebalances for indices. Manager can set target unit amounts, max trade sizes, the exchange to trade on, and the cool down period between trades (on a per asset basis). As currently constructed the module only works for one Set at a time. SECURITY ASSUMPTION:  - Works with following modules: StreamingFeeModule, BasicIssuanceModule (any other module additions to Sets using this module need to be examined separately)",
    "methods": {
      "getTargetUnits(address[])": {
        "params": {
          "_components": "Array of components to get target units for"
        },
        "returns": {
          "_0": "Array of targetUnits mapping to passed components"
        }
      },
      "initialize(address)": {
        "params": {
          "_index": "Address of index being used for this Set"
        }
      },
      "setCoolOffPeriods(address[],uint256[])": {
        "params": {
          "_components": "Array of components",
          "_coolOffPeriods": "Array of cool off periods to correct component"
        }
      },
      "setExchanges(address[],uint256[])": {
        "params": {
          "_components": "Array of components",
          "_exchanges": "Array of exchanges mapping to correct component, uint256 used to signify exchange"
        }
      },
      "setTradeMaximums(address[],uint256[])": {
        "params": {
          "_components": "Array of components",
          "_tradeMaximums": "Array of trade maximums mapping to correct component"
        }
      },
      "startRebalance(address[],uint256[],uint256[],uint256)": {
        "params": {
          "_newComponents": "Array of new components to add to allocation",
          "_newComponentsTargetUnits": "Array of target units at end of rebalance for new components, maps to same index of component",
          "_oldComponentsTargetUnits": "Array of target units at end of rebalance for old component, maps to same index of component,                                               if component being removed set to 0.",
          "_positionMultiplier": "Position multiplier when target units were calculated, needed in order to adjust target units                                               if fees accrued"
        }
      },
      "trade(address)": {
        "params": {
          "_component": "Component to trade"
        }
      },
      "tradeRemainingWETH(address)": {
        "params": {
          "_component": "Component to trade"
        }
      },
      "updateAnyoneTrade(bool)": {
        "params": {
          "_status": "Boolean indicating if anyone can trade"
        }
      },
      "updateTraderStatus(address[],bool[])": {
        "params": {
          "_statuses": "Booleans indicating if matching trader can trade",
          "_traders": "Array trader addresses to toggle status"
        }
      }
    },
    "title": "SingleIndexModule"
  },
  "userdoc": {
    "methods": {
      "getTargetUnits(address[])": {
        "notice": "Get target units for passed components, normalized to current positionMultiplier."
      },
      "initialize(address)": {
        "notice": "MANAGER ONLY: Set target units to current units and last trade to zero. Initialize module."
      },
      "raiseAssetTargets()": {
        "notice": "ACCESS LIMITED: For situation where all target units met and remaining WETH, uniformly raise targets by same percentage in order to allow further trading. Can be called multiple times if necessary, increase should be small in order to reduce tracking error."
      },
      "setCoolOffPeriods(address[],uint256[])": {
        "notice": "MANAGER ONLY: Set exchange for passed components"
      },
      "setExchanges(address[],uint256[])": {
        "notice": "MANAGER ONLY: Set exchange for passed components"
      },
      "setTradeMaximums(address[],uint256[])": {
        "notice": "MANAGER ONLY: Set trade maximums for passed components"
      },
      "startRebalance(address[],uint256[],uint256[],uint256)": {
        "notice": "MANAGER ONLY: Set new target units, zeroing out any units for components being removed from index. Log position multiplier to adjust target units in case fees are accrued. Validate that weth is not a part of the new allocation and that all components in current allocation are in _components array."
      },
      "trade(address)": {
        "notice": "ACCESS LIMITED: Only approved addresses can call if anyoneTrade is false. Determines trade size and direction and swaps into or out of WETH on exchange specified by manager."
      },
      "tradeRemainingWETH(address)": {
        "notice": "ACCESS LIMITED: Only approved addresses can call if anyoneTrade is false. Only callable when 1) there are no more components to be sold and, 2) entire remaining WETH amount can be traded such that resulting inflows won't exceed components maxTradeSize nor overshoot the target unit. To be used near the end of rebalances when a component's calculated trade size is greater in value than remaining WETH."
      },
      "updateAnyoneTrade(bool)": {
        "notice": "MANAGER ONLY: Toggle whether anyone can trade, bypassing the traderAllowList"
      },
      "updateTraderStatus(address[],bool[])": {
        "notice": "MANAGER ONLY: Toggle ability for passed addresses to trade from current state "
      }
    }
  }
}