{
  "contractName": "StakingModule",
  "abi": [
    {
      "inputs": [
        {
          "internalType": "contract IController",
          "name": "_controller",
          "type": "address"
        }
      ],
      "stateMutability": "nonpayable",
      "type": "constructor"
    },
    {
      "anonymous": false,
      "inputs": [
        {
          "indexed": true,
          "internalType": "contract ISetToken",
          "name": "_setToken",
          "type": "address"
        },
        {
          "indexed": true,
          "internalType": "address",
          "name": "_component",
          "type": "address"
        },
        {
          "indexed": true,
          "internalType": "address",
          "name": "_stakingContract",
          "type": "address"
        },
        {
          "indexed": false,
          "internalType": "uint256",
          "name": "_componentPositionUnits",
          "type": "uint256"
        },
        {
          "indexed": false,
          "internalType": "contract IStakingAdapter",
          "name": "_adapter",
          "type": "address"
        }
      ],
      "name": "ComponentStaked",
      "type": "event"
    },
    {
      "anonymous": false,
      "inputs": [
        {
          "indexed": true,
          "internalType": "contract ISetToken",
          "name": "_setToken",
          "type": "address"
        },
        {
          "indexed": true,
          "internalType": "address",
          "name": "_component",
          "type": "address"
        },
        {
          "indexed": true,
          "internalType": "address",
          "name": "_stakingContract",
          "type": "address"
        },
        {
          "indexed": false,
          "internalType": "uint256",
          "name": "_componentPositionUnits",
          "type": "uint256"
        },
        {
          "indexed": false,
          "internalType": "contract IStakingAdapter",
          "name": "_adapter",
          "type": "address"
        }
      ],
      "name": "ComponentUnstaked",
      "type": "event"
    },
    {
      "inputs": [],
      "name": "controller",
      "outputs": [
        {
          "internalType": "contract IController",
          "name": "",
          "type": "address"
        }
      ],
      "stateMutability": "view",
      "type": "function"
    },
    {
      "inputs": [
        {
          "internalType": "contract ISetToken",
          "name": "_setToken",
          "type": "address"
        },
        {
          "internalType": "address",
          "name": "_stakeContract",
          "type": "address"
        },
        {
          "internalType": "address",
          "name": "_component",
          "type": "address"
        },
        {
          "internalType": "string",
          "name": "_adapterName",
          "type": "string"
        },
        {
          "internalType": "uint256",
          "name": "_componentPositionUnits",
          "type": "uint256"
        }
      ],
      "name": "stake",
      "outputs": [],
      "stateMutability": "nonpayable",
      "type": "function"
    },
    {
      "inputs": [
        {
          "internalType": "contract ISetToken",
          "name": "_setToken",
          "type": "address"
        },
        {
          "internalType": "address",
          "name": "_stakeContract",
          "type": "address"
        },
        {
          "internalType": "address",
          "name": "_component",
          "type": "address"
        },
        {
          "internalType": "string",
          "name": "_adapterName",
          "type": "string"
        },
        {
          "internalType": "uint256",
          "name": "_componentPositionUnits",
          "type": "uint256"
        }
      ],
      "name": "unstake",
      "outputs": [],
      "stateMutability": "nonpayable",
      "type": "function"
    },
    {
      "inputs": [
        {
          "internalType": "contract ISetToken",
          "name": "_setToken",
          "type": "address"
        },
        {
          "internalType": "uint256",
          "name": "_setTokenQuantity",
          "type": "uint256"
        },
        {
          "internalType": "address",
          "name": "_component",
          "type": "address"
        }
      ],
      "name": "issueHook",
      "outputs": [],
      "stateMutability": "nonpayable",
      "type": "function"
    },
    {
      "inputs": [
        {
          "internalType": "contract ISetToken",
          "name": "_setToken",
          "type": "address"
        },
        {
          "internalType": "uint256",
          "name": "_setTokenQuantity",
          "type": "uint256"
        },
        {
          "internalType": "address",
          "name": "_component",
          "type": "address"
        }
      ],
      "name": "redeemHook",
      "outputs": [],
      "stateMutability": "nonpayable",
      "type": "function"
    },
    {
      "inputs": [
        {
          "internalType": "contract ISetToken",
          "name": "_setToken",
          "type": "address"
        }
      ],
      "name": "initialize",
      "outputs": [],
      "stateMutability": "nonpayable",
      "type": "function"
    },
    {
      "inputs": [],
      "name": "removeModule",
      "outputs": [],
      "stateMutability": "nonpayable",
      "type": "function"
    },
    {
      "inputs": [
        {
          "internalType": "contract ISetToken",
          "name": "_setToken",
          "type": "address"
        },
        {
          "internalType": "address",
          "name": "_component",
          "type": "address"
        },
        {
          "internalType": "address",
          "name": "_stakeContract",
          "type": "address"
        }
      ],
      "name": "hasStakingPosition",
      "outputs": [
        {
          "internalType": "bool",
          "name": "",
          "type": "bool"
        }
      ],
      "stateMutability": "view",
      "type": "function"
    },
    {
      "inputs": [
        {
          "internalType": "contract ISetToken",
          "name": "_setToken",
          "type": "address"
        },
        {
          "internalType": "address",
          "name": "_component",
          "type": "address"
        }
      ],
      "name": "getStakingContracts",
      "outputs": [
        {
          "internalType": "address[]",
          "name": "",
          "type": "address[]"
        }
      ],
      "stateMutability": "view",
      "type": "function"
    },
    {
      "inputs": [
        {
          "internalType": "contract ISetToken",
          "name": "_setToken",
          "type": "address"
        },
        {
          "internalType": "address",
          "name": "_component",
          "type": "address"
        },
        {
          "internalType": "address",
          "name": "_stakeContract",
          "type": "address"
        }
      ],
      "name": "getStakingPosition",
      "outputs": [
        {
          "components": [
            {
              "internalType": "bytes32",
              "name": "adapterHash",
              "type": "bytes32"
            },
            {
              "internalType": "uint256",
              "name": "componentPositionUnits",
              "type": "uint256"
            }
          ],
          "internalType": "struct StakingModule.StakingPosition",
          "name": "",
          "type": "tuple"
        }
      ],
      "stateMutability": "view",
      "type": "function"
    },
    {
      "inputs": [
        {
          "internalType": "contract ISetToken",
          "name": "_setToken",
          "type": "address"
        },
        {
          "internalType": "address",
          "name": "_component",
          "type": "address"
        },
        {
          "internalType": "address",
          "name": "_stakeContract",
          "type": "address"
        }
      ],
      "name": "getStakingPositionUnit",
      "outputs": [
        {
          "internalType": "uint256",
          "name": "",
          "type": "uint256"
        }
      ],
      "stateMutability": "view",
      "type": "function"
    }
  ],
  "bytecode": "0x60806040523480156200001157600080fd5b5060405162004d7338038062004d73833981810160405281019062000037919062000097565b80806000806101000a81548173ffffffffffffffffffffffffffffffffffffffff021916908373ffffffffffffffffffffffffffffffffffffffff160217905550505062000125565b60008151905062000091816200010b565b92915050565b600060208284031215620000aa57600080fd5b6000620000ba8482850162000080565b91505092915050565b6000620000d082620000eb565b9050919050565b6000620000e482620000c3565b9050919050565b600073ffffffffffffffffffffffffffffffffffffffff82169050919050565b6200011681620000d7565b81146200012257600080fd5b50565b614c3e80620001356000396000f3fe608060405234801561001057600080fd5b50600436106100a95760003560e01c8063a0c5ef3611610071578063a0c5ef3614610150578063c4d66de814610180578063ca1a249c1461019c578063db736183146101b8578063de1a3f51146101e8578063f77c479114610204576100a9565b80630551822f146100ae5780633d37b375146100de578063482104b8146100fa578063523f33bb14610116578063847ef08d14610146575b600080fd5b6100c860048036038101906100c39190613967565b610222565b6040516100d5919061459d565b60405180910390f35b6100f860048036038101906100f39190613a81565b610330565b005b610114600480360381019061010f91906139f2565b610586565b005b610130600480360381019061012b91906139a3565b610790565b60405161013d91906145bf565b60405180910390f35b61014e6107b7565b005b61016a600480360381019061016591906139a3565b61093c565b60405161017791906148d2565b60405180910390f35b61019a6004803603810190610195919061393e565b610956565b005b6101b660048036038101906101b191906139f2565b610b39565b005b6101d260048036038101906101cd91906139a3565b610d61565b6040516101df91906148b7565b60405180910390f35b61020260048036038101906101fd9190613a81565b610e4d565b005b61020c6110a3565b60405161021991906145da565b60405180910390f35b6060600160008473ffffffffffffffffffffffffffffffffffffffff1673ffffffffffffffffffffffffffffffffffffffff16815260200190815260200160002060008373ffffffffffffffffffffffffffffffffffffffff1673ffffffffffffffffffffffffffffffffffffffff16815260200190815260200160002060000180548060200260200160405190810160405280929190818152602001828054801561032357602002820191906000526020600020905b8160009054906101000a900473ffffffffffffffffffffffffffffffffffffffff1673ffffffffffffffffffffffffffffffffffffffff16815260200190600101908083116102d9575b5050505050905092915050565b8260028081111561033d57fe5b8173ffffffffffffffffffffffffffffffffffffffff166335bc4e52336040518263ffffffff1660e01b815260040161037691906143ed565b60206040518083038186803b15801561038e57600080fd5b505afa1580156103a2573d6000803e3d6000fd5b505050506040513d601f19601f820116820180604052508101906103c69190613ad0565b60028111156103d157fe5b14610411576040517f08c379a000000000000000000000000000000000000000000000000000000000815260040161040890614717565b60405180910390fd5b6000809054906101000a900473ffffffffffffffffffffffffffffffffffffffff1673ffffffffffffffffffffffffffffffffffffffff166342f6e389336040518263ffffffff1660e01b815260040161046b91906143ed565b60206040518083038186803b15801561048357600080fd5b505afa158015610497573d6000803e3d6000fd5b505050506040513d601f19601f820116820180604052508101906104bb91906138d4565b6104fa576040517f08c379a00000000000000000000000000000000000000000000000000000000081526004016104f190614837565b60405180910390fd5b60606105068584610222565b905060008090505b815181101561057e5761051f613546565b61053d878685858151811061053057fe5b6020026020010151610d61565b90506105708784848151811061054f57fe5b60200260200101518761056585600001516110c8565b85602001518b611210565b50808060010191505061050e565b505050505050565b8461059181336114d4565b6105d0576040517f08c379a00000000000000000000000000000000000000000000000000000000081526004016105c790614877565b60405180910390fd5b6105d98161158a565b610618576040517f08c379a000000000000000000000000000000000000000000000000000000000815260040161060f90614657565b60405180910390fd5b8161062487868861093c565b1015610665576040517f08c379a000000000000000000000000000000000000000000000000000000000815260040161065c906147b7565b60405180910390fd5b6000610670846116ce565b90506106fd87878784878c73ffffffffffffffffffffffffffffffffffffffff166318160ddd6040518163ffffffff1660e01b815260040160206040518083038186803b1580156106c057600080fd5b505afa1580156106d4573d6000803e3d6000fd5b505050506040513d601f19601f820116820180604052508101906106f89190613b22565b611210565b610709878787866116ed565b8573ffffffffffffffffffffffffffffffffffffffff168573ffffffffffffffffffffffffffffffffffffffff168873ffffffffffffffffffffffffffffffffffffffff167f73ea6957dfd247b502b5e495d1d5ebfe33d5d3151569ebb5bf6dde77c399f5c8868560405161077f9291906148ed565b60405180910390a450505050505050565b60006107ae826107a08686610222565b611b2190919063ffffffff16565b90509392505050565b600033905060608173ffffffffffffffffffffffffffffffffffffffff166399d50d5d6040518163ffffffff1660e01b815260040160006040518083038186803b15801561080457600080fd5b505afa158015610818573d6000803e3d6000fd5b505050506040513d6000823e3d601f19601f820116820180604052508101906108419190613893565b905060008090505b8151811015610937576000600160008573ffffffffffffffffffffffffffffffffffffffff1673ffffffffffffffffffffffffffffffffffffffff16815260200190815260200160002060008484815181106108a157fe5b602002602001015173ffffffffffffffffffffffffffffffffffffffff1673ffffffffffffffffffffffffffffffffffffffff168152602001908152602001600020600001805490501461092a576040517f08c379a000000000000000000000000000000000000000000000000000000000815260040161092190614737565b60405180910390fd5b8080600101915050610849565b505050565b6000610949848484610d61565b6020015190509392505050565b803361096282826114d4565b6109a1576040517f08c379a000000000000000000000000000000000000000000000000000000000815260040161099890614877565b60405180910390fd5b826000809054906101000a900473ffffffffffffffffffffffffffffffffffffffff1673ffffffffffffffffffffffffffffffffffffffff166374ebe3ec826040518263ffffffff1660e01b81526004016109fc91906143d2565b60206040518083038186803b158015610a1457600080fd5b505afa158015610a28573d6000803e3d6000fd5b505050506040513d601f19601f82011682018060405250810190610a4c91906138d4565b610a8b576040517f08c379a0000000000000000000000000000000000000000000000000000000008152600401610a8290614857565b60405180910390fd5b610a9481611b3b565b610ad3576040517f08c379a0000000000000000000000000000000000000000000000000000000008152600401610aca90614697565b60405180910390fd5b8373ffffffffffffffffffffffffffffffffffffffff16630ffe0f1e6040518163ffffffff1660e01b8152600401600060405180830381600087803b158015610b1b57600080fd5b505af1158015610b2f573d6000803e3d6000fd5b5050505050505050565b84610b4481336114d4565b610b83576040517f08c379a0000000000000000000000000000000000000000000000000000000008152600401610b7a90614877565b60405180910390fd5b610b8c8161158a565b610bcb576040517f08c379a0000000000000000000000000000000000000000000000000000000008152600401610bc290614657565b60405180910390fd5b610bf684838873ffffffffffffffffffffffffffffffffffffffff16611bcd9092919063ffffffff16565b610c35576040517f08c379a0000000000000000000000000000000000000000000000000000000008152600401610c2c90614777565b60405180910390fd5b6000610c40846116ce565b9050610ccd87878784878c73ffffffffffffffffffffffffffffffffffffffff166318160ddd6040518163ffffffff1660e01b815260040160206040518083038186803b158015610c9057600080fd5b505afa158015610ca4573d6000803e3d6000fd5b505050506040513d601f19601f82011682018060405250810190610cc89190613b22565b611c6c565b610cda8787878787611e7a565b8573ffffffffffffffffffffffffffffffffffffffff168573ffffffffffffffffffffffffffffffffffffffff168873ffffffffffffffffffffffffffffffffffffffff167fc54d6e2d37daa93204f86f89bce56ac6dbae5b1f2413c32f3ede589408ab8af98685604051610d509291906148ed565b60405180910390a450505050505050565b610d69613546565b600160008573ffffffffffffffffffffffffffffffffffffffff1673ffffffffffffffffffffffffffffffffffffffff16815260200190815260200160002060008473ffffffffffffffffffffffffffffffffffffffff1673ffffffffffffffffffffffffffffffffffffffff16815260200190815260200160002060010160008373ffffffffffffffffffffffffffffffffffffffff1673ffffffffffffffffffffffffffffffffffffffff1681526020019081526020016000206040518060400160405290816000820154815260200160018201548152505090509392505050565b82600280811115610e5a57fe5b8173ffffffffffffffffffffffffffffffffffffffff166335bc4e52336040518263ffffffff1660e01b8152600401610e9391906143ed565b60206040518083038186803b158015610eab57600080fd5b505afa158015610ebf573d6000803e3d6000fd5b505050506040513d601f19601f82011682018060405250810190610ee39190613ad0565b6002811115610eee57fe5b14610f2e576040517f08c379a0000000000000000000000000000000000000000000000000000000008152600401610f2590614717565b60405180910390fd5b6000809054906101000a900473ffffffffffffffffffffffffffffffffffffffff1673ffffffffffffffffffffffffffffffffffffffff166342f6e389336040518263ffffffff1660e01b8152600401610f8891906143ed565b60206040518083038186803b158015610fa057600080fd5b505afa158015610fb4573d6000803e3d6000fd5b505050506040513d601f19601f82011682018060405250810190610fd891906138d4565b611017576040517f08c379a000000000000000000000000000000000000000000000000000000000815260040161100e90614837565b60405180910390fd5b60606110238584610222565b905060008090505b815181101561109b5761103c613546565b61105a878685858151811061104d57fe5b6020026020010151610d61565b905061108d8784848151811061106c57fe5b60200260200101518761108285600001516110c8565b85602001518b611c6c565b50808060010191505061102b565b505050505050565b6000809054906101000a900473ffffffffffffffffffffffffffffffffffffffff1681565b60008061110b6000809054906101000a900473ffffffffffffffffffffffffffffffffffffffff1673ffffffffffffffffffffffffffffffffffffffff16612302565b73ffffffffffffffffffffffffffffffffffffffff1663e6d642c530856040518363ffffffff1660e01b81526004016111459291906144a6565b60206040518083038186803b15801561115d57600080fd5b505afa158015611171573d6000803e3d6000fd5b505050506040513d601f19601f820116820180604052508101906111959190613803565b9050600073ffffffffffffffffffffffffffffffffffffffff168173ffffffffffffffffffffffffffffffffffffffff161415611207576040517f08c379a00000000000000000000000000000000000000000000000000000000081526004016111fe906146d7565b60405180910390fd5b80915050919050565b60008473ffffffffffffffffffffffffffffffffffffffff166370a08231886040518263ffffffff1660e01b815260040161124b91906143d2565b60206040518083038186803b15801561126357600080fd5b505afa158015611277573d6000803e3d6000fd5b505050506040513d601f19601f8201168201806040525081019061129b9190613b22565b905060006112b2848461239590919063ffffffff16565b905060008060608773ffffffffffffffffffffffffffffffffffffffff16639971c1658b866040518363ffffffff1660e01b81526004016112f4929190614536565b60006040518083038186803b15801561130c57600080fd5b505afa158015611320573d6000803e3d6000fd5b505050506040513d6000823e3d601f19601f82011682018060405250810190611349919061382c565b9250925092508a73ffffffffffffffffffffffffffffffffffffffff16638f6f03328484846040518463ffffffff1660e01b815260040161138c9392919061455f565b600060405180830381600087803b1580156113a657600080fd5b505af11580156113ba573d6000803e3d6000fd5b505050506040513d6000823e3d601f19601f820116820180604052508101906113e391906138fd565b5060008973ffffffffffffffffffffffffffffffffffffffff166370a082318d6040518263ffffffff1660e01b815260040161141f91906143d2565b60206040518083038186803b15801561143757600080fd5b505afa15801561144b573d6000803e3d6000fd5b505050506040513d601f19601f8201168201806040525081019061146f9190613b22565b90508061148586886123b290919063ffffffff16565b11156114c6576040517f08c379a00000000000000000000000000000000000000000000000000000000081526004016114bd906147f7565b60405180910390fd5b505050505050505050505050565b60008173ffffffffffffffffffffffffffffffffffffffff168373ffffffffffffffffffffffffffffffffffffffff1663481c6a756040518163ffffffff1660e01b815260040160206040518083038186803b15801561153357600080fd5b505afa158015611547573d6000803e3d6000fd5b505050506040513d601f19601f8201168201806040525081019061156b9190613803565b73ffffffffffffffffffffffffffffffffffffffff1614905092915050565b60008060009054906101000a900473ffffffffffffffffffffffffffffffffffffffff1673ffffffffffffffffffffffffffffffffffffffff166374ebe3ec836040518263ffffffff1660e01b81526004016115e691906143d2565b60206040518083038186803b1580156115fe57600080fd5b505afa158015611612573d6000803e3d6000fd5b505050506040513d601f19601f8201168201806040525081019061163691906138d4565b80156116c757508173ffffffffffffffffffffffffffffffffffffffff1663d7f1b27c306040518263ffffffff1660e01b815260040161167691906143d2565b60206040518083038186803b15801561168e57600080fd5b505afa1580156116a2573d6000803e3d6000fd5b505050506040513d601f19601f820116820180604052508101906116c691906138d4565b5b9050919050565b6000806116da83612407565b90506116e5816110c8565b915050919050565b600061170c826116fe87868861093c565b61241890919063ffffffff16565b905060008111156117e05780600160008773ffffffffffffffffffffffffffffffffffffffff1673ffffffffffffffffffffffffffffffffffffffff16815260200190815260200160002060008573ffffffffffffffffffffffffffffffffffffffff1673ffffffffffffffffffffffffffffffffffffffff16815260200190815260200160002060010160008673ffffffffffffffffffffffffffffffffffffffff1673ffffffffffffffffffffffffffffffffffffffff1681526020019081526020016000206001018190555061195f565b6117fc846117ee8786610222565b61246290919063ffffffff16565b600160008773ffffffffffffffffffffffffffffffffffffffff1673ffffffffffffffffffffffffffffffffffffffff16815260200190815260200160002060008573ffffffffffffffffffffffffffffffffffffffff1673ffffffffffffffffffffffffffffffffffffffff168152602001908152602001600020600001908051906020019061188e929190613563565b50600160008673ffffffffffffffffffffffffffffffffffffffff1673ffffffffffffffffffffffffffffffffffffffff16815260200190815260200160002060008473ffffffffffffffffffffffffffffffffffffffff1673ffffffffffffffffffffffffffffffffffffffff16815260200190815260200160002060010160008573ffffffffffffffffffffffffffffffffffffffff1673ffffffffffffffffffffffffffffffffffffffff168152602001908152602001600020600080820160009055600182016000905550505b6000611a04836119f68873ffffffffffffffffffffffffffffffffffffffff166366cb8d2f886040518263ffffffff1660e01b81526004016119a191906143d2565b60206040518083038186803b1580156119b957600080fd5b505afa1580156119cd573d6000803e3d6000fd5b505050506040513d601f19601f820116820180604052508101906119f19190613af9565b6124d0565b6123b290919063ffffffff16565b9050611a3184828873ffffffffffffffffffffffffffffffffffffffff1661251d9092919063ffffffff16565b6000611ad8611a3f856126c6565b8873ffffffffffffffffffffffffffffffffffffffff166322ebeba488306040518363ffffffff1660e01b8152600401611a7a929190614408565b60206040518083038186803b158015611a9257600080fd5b505afa158015611aa6573d6000803e3d6000fd5b505050506040513d601f19601f82011682018060405250810190611aca9190613af9565b61273290919063ffffffff16565b9050611b18853083604051806020016040528060008152508b73ffffffffffffffffffffffffffffffffffffffff166127aa90949392919063ffffffff16565b50505050505050565b600080611b2e8484612e68565b9150508091505092915050565b60008173ffffffffffffffffffffffffffffffffffffffff166353bae5f7306040518263ffffffff1660e01b8152600401611b7691906143d2565b60206040518083038186803b158015611b8e57600080fd5b505afa158015611ba2573d6000803e3d6000fd5b505050506040513d601f19601f82011682018060405250810190611bc691906138d4565b9050919050565b6000611bd8826126c6565b8473ffffffffffffffffffffffffffffffffffffffff166366cb8d2f856040518263ffffffff1660e01b8152600401611c1191906143d2565b60206040518083038186803b158015611c2957600080fd5b505afa158015611c3d573d6000803e3d6000fd5b505050506040513d601f19601f82011682018060405250810190611c619190613af9565b121590509392505050565b6000611c81838361239590919063ffffffff16565b905060008473ffffffffffffffffffffffffffffffffffffffff16630e8edd86886040518263ffffffff1660e01b8152600401611cbe91906143d2565b60206040518083038186803b158015611cd657600080fd5b505afa158015611cea573d6000803e3d6000fd5b505050506040513d601f19601f82011682018060405250810190611d0e9190613803565b9050611d3d8682848b73ffffffffffffffffffffffffffffffffffffffff16612f12909392919063ffffffff16565b60008060608773ffffffffffffffffffffffffffffffffffffffff16630d6976038b876040518363ffffffff1660e01b8152600401611d7d929190614536565b60006040518083038186803b158015611d9557600080fd5b505afa158015611da9573d6000803e3d6000fd5b505050506040513d6000823e3d601f19601f82011682018060405250810190611dd2919061382c565b9250925092508a73ffffffffffffffffffffffffffffffffffffffff16638f6f03328484846040518463ffffffff1660e01b8152600401611e159392919061455f565b600060405180830381600087803b158015611e2f57600080fd5b505af1158015611e43573d6000803e3d6000fd5b505050506040513d6000823e3d601f19601f82011682018060405250810190611e6c91906138fd565b505050505050505050505050565b611e85858486610790565b15611f6f57611ea7611e9886858761093c565b826123b290919063ffffffff16565b600160008773ffffffffffffffffffffffffffffffffffffffff1673ffffffffffffffffffffffffffffffffffffffff16815260200190815260200160002060008573ffffffffffffffffffffffffffffffffffffffff1673ffffffffffffffffffffffffffffffffffffffff16815260200190815260200160002060010160008673ffffffffffffffffffffffffffffffffffffffff1673ffffffffffffffffffffffffffffffffffffffff16815260200190815260200160002060010181905550612140565b600160008673ffffffffffffffffffffffffffffffffffffffff1673ffffffffffffffffffffffffffffffffffffffff16815260200190815260200160002060008473ffffffffffffffffffffffffffffffffffffffff1673ffffffffffffffffffffffffffffffffffffffff168152602001908152602001600020600001849080600181540180825580915050600190039060005260206000200160009091909190916101000a81548173ffffffffffffffffffffffffffffffffffffffff021916908373ffffffffffffffffffffffffffffffffffffffff160217905550604051806040016040528061206384612407565b815260200182815250600160008773ffffffffffffffffffffffffffffffffffffffff1673ffffffffffffffffffffffffffffffffffffffff16815260200190815260200160002060008573ffffffffffffffffffffffffffffffffffffffff1673ffffffffffffffffffffffffffffffffffffffff16815260200190815260200160002060010160008673ffffffffffffffffffffffffffffffffffffffff1673ffffffffffffffffffffffffffffffffffffffff16815260200190815260200160002060008201518160000155602082015181600101559050505b60006121e5826121d78873ffffffffffffffffffffffffffffffffffffffff166366cb8d2f886040518263ffffffff1660e01b815260040161218291906143d2565b60206040518083038186803b15801561219a57600080fd5b505afa1580156121ae573d6000803e3d6000fd5b505050506040513d601f19601f820116820180604052508101906121d29190613af9565b6124d0565b61241890919063ffffffff16565b905061221284828873ffffffffffffffffffffffffffffffffffffffff1661251d9092919063ffffffff16565b60006122b9612220846126c6565b8873ffffffffffffffffffffffffffffffffffffffff166322ebeba488306040518363ffffffff1660e01b815260040161225b929190614408565b60206040518083038186803b15801561227357600080fd5b505afa158015612287573d6000803e3d6000fd5b505050506040513d601f19601f820116820180604052508101906122ab9190613af9565b61304390919063ffffffff16565b90506122f9853083604051806020016040528060008152508b73ffffffffffffffffffffffffffffffffffffffff166127aa90949392919063ffffffff16565b50505050505050565b60008173ffffffffffffffffffffffffffffffffffffffff1663e765ced660006040518263ffffffff1660e01b815260040161233e91906148d2565b60206040518083038186803b15801561235657600080fd5b505afa15801561236a573d6000803e3d6000fd5b505050506040513d601f19601f8201168201806040525081019061238e9190613803565b9050919050565b60006123aa82846130bb90919063ffffffff16565b905092915050565b6000808284019050838110156123fd576040517f08c379a00000000000000000000000000000000000000000000000000000000081526004016123f490614677565b60405180910390fd5b8091505092915050565b600081805190602001209050919050565b600061245a83836040518060400160405280601e81526020017f536166654d6174683a207375627472616374696f6e206f766572666c6f7700008152506130f2565b905092915050565b60606000806124718585612e68565b91509150806124b5576040517f08c379a00000000000000000000000000000000000000000000000000000000081526004016124ac90614617565b60405180910390fd5b60606124c1868461314d565b50905080935050505092915050565b600080821215612515576040517f08c379a000000000000000000000000000000000000000000000000000000000815260040161250c906146f7565b60405180910390fd5b819050919050565b600061252984846132fb565b9050801580156125395750600082115b156125bd576125488484613390565b6125b8578373ffffffffffffffffffffffffffffffffffffffff16634e353270846040518263ffffffff1660e01b815260040161258591906143d2565b600060405180830381600087803b15801561259f57600080fd5b505af11580156125b3573d6000803e3d6000fd5b505050505b61264b565b8080156125ca5750600082145b1561264a576125d98484613390565b612649578373ffffffffffffffffffffffffffffffffffffffff16636f86c897846040518263ffffffff1660e01b815260040161261691906143d2565b600060405180830381600087803b15801561263057600080fd5b505af1158015612644573d6000803e3d6000fd5b505050505b5b5b8373ffffffffffffffffffffffffffffffffffffffff16632ba57d1784612671856126c6565b6040518363ffffffff1660e01b815260040161268e9291906144cf565b600060405180830381600087803b1580156126a857600080fd5b505af11580156126bc573d6000803e3d6000fd5b5050505050505050565b60007f8000000000000000000000000000000000000000000000000000000000000000821061272a576040517f08c379a000000000000000000000000000000000000000000000000000000000815260040161272190614817565b60405180910390fd5b819050919050565b60008082840390506000831215801561274b5750838113155b80612761575060008312801561276057508381135b5b6127a0576040517f08c379a000000000000000000000000000000000000000000000000000000000815260040161279790614897565b60405180910390fd5b8091505092915050565b60008214612afd578473ffffffffffffffffffffffffffffffffffffffff1663df5e9b29856040518263ffffffff1660e01b81526004016127eb91906143d2565b60206040518083038186803b15801561280357600080fd5b505afa158015612817573d6000803e3d6000fd5b505050506040513d601f19601f8201168201806040525081019061283b91906138d4565b61291c578473ffffffffffffffffffffffffffffffffffffffff16634e353270856040518263ffffffff1660e01b815260040161287891906143d2565b600060405180830381600087803b15801561289257600080fd5b505af11580156128a6573d6000803e3d6000fd5b505050508473ffffffffffffffffffffffffffffffffffffffff1663ea0ee55985856040518363ffffffff1660e01b81526004016128e5929190614408565b600060405180830381600087803b1580156128ff57600080fd5b505af1158015612913573d6000803e3d6000fd5b50505050612a1a565b8473ffffffffffffffffffffffffffffffffffffffff16637d96659385856040518363ffffffff1660e01b8152600401612957929190614408565b60206040518083038186803b15801561296f57600080fd5b505afa158015612983573d6000803e3d6000fd5b505050506040513d601f19601f820116820180604052508101906129a791906138d4565b612a19578473ffffffffffffffffffffffffffffffffffffffff1663ea0ee55985856040518363ffffffff1660e01b81526004016129e6929190614408565b600060405180830381600087803b158015612a0057600080fd5b505af1158015612a14573d6000803e3d6000fd5b505050505b5b8473ffffffffffffffffffffffffffffffffffffffff166363a90fc18585856040518463ffffffff1660e01b8152600401612a579392919061446f565b600060405180830381600087803b158015612a7157600080fd5b505af1158015612a85573d6000803e3d6000fd5b505050508473ffffffffffffffffffffffffffffffffffffffff166326898fe18585846040518463ffffffff1660e01b8152600401612ac693929190614431565b600060405180830381600087803b158015612ae057600080fd5b505af1158015612af4573d6000803e3d6000fd5b50505050612e61565b6000815114612b41576040517f08c379a0000000000000000000000000000000000000000000000000000000008152600401612b38906147d7565b60405180910390fd5b60008573ffffffffffffffffffffffffffffffffffffffff166322ebeba486866040518363ffffffff1660e01b8152600401612b7e929190614408565b60206040518083038186803b158015612b9657600080fd5b505afa158015612baa573d6000803e3d6000fd5b505050506040513d601f19601f82011682018060405250810190612bce9190613af9565b14612e605760608573ffffffffffffffffffffffffffffffffffffffff1663a7bdad03866040518263ffffffff1660e01b8152600401612c0e91906143d2565b60006040518083038186803b158015612c2657600080fd5b505afa158015612c3a573d6000803e3d6000fd5b505050506040513d6000823e3d601f19601f82011682018060405250810190612c639190613893565b905060008673ffffffffffffffffffffffffffffffffffffffff166366cb8d2f876040518263ffffffff1660e01b8152600401612ca091906143d2565b60206040518083038186803b158015612cb857600080fd5b505afa158015612ccc573d6000803e3d6000fd5b505050506040513d601f19601f82011682018060405250810190612cf09190613af9565b148015612cfe575060018151145b15612df1578373ffffffffffffffffffffffffffffffffffffffff1681600081518110612d2757fe5b602002602001015173ffffffffffffffffffffffffffffffffffffffff1614612d85576040517f08c379a0000000000000000000000000000000000000000000000000000000008152600401612d7c90614757565b60405180910390fd5b8573ffffffffffffffffffffffffffffffffffffffff16636f86c897866040518263ffffffff1660e01b8152600401612dbe91906143d2565b600060405180830381600087803b158015612dd857600080fd5b505af1158015612dec573d6000803e3d6000fd5b505050505b8573ffffffffffffffffffffffffffffffffffffffff1663acf3f07786866040518363ffffffff1660e01b8152600401612e2c929190614408565b600060405180830381600087803b158015612e4657600080fd5b505af1158015612e5a573d6000803e3d6000fd5b50505050505b5b5050505050565b60008060008451905060008090505b81811015612ee1578473ffffffffffffffffffffffffffffffffffffffff16868281518110612ea257fe5b602002602001015173ffffffffffffffffffffffffffffffffffffffff161415612ed457806001935093505050612f0b565b8080600101915050612e77565b507fffffffffffffffffffffffffffffffffffffffffffffffffffffffffffffffff600092509250505b9250929050565b60608282604051602401612f27929190614536565b6040516020818303038152906040527f095ea7b3000000000000000000000000000000000000000000000000000000007bffffffffffffffffffffffffffffffffffffffffffffffffffffffff19166020820180517bffffffffffffffffffffffffffffffffffffffffffffffffffffffff838183161783525050505090508473ffffffffffffffffffffffffffffffffffffffff16638f6f0332856000846040518463ffffffff1660e01b8152600401612fe4939291906144f8565b600060405180830381600087803b158015612ffe57600080fd5b505af1158015613012573d6000803e3d6000fd5b505050506040513d6000823e3d601f19601f8201168201806040525081019061303b91906138fd565b505050505050565b60008082840190506000831215801561305c5750838112155b80613072575060008312801561307157508381125b5b6130b1576040517f08c379a00000000000000000000000000000000000000000000000000000000081526004016130a8906146b7565b60405180910390fd5b8091505092915050565b60006130ea670de0b6b3a76400006130dc848661342b90919063ffffffff16565b61349b90919063ffffffff16565b905092915050565b600083831115829061313a576040517f08c379a000000000000000000000000000000000000000000000000000000000815260040161313191906145f5565b60405180910390fd5b5060008385039050809150509392505050565b60606000808451905084518410613199576040517f08c379a000000000000000000000000000000000000000000000000000000000815260040161319090614637565b60405180910390fd5b60606001820367ffffffffffffffff811180156131b557600080fd5b506040519080825280602002602001820160405280156131e45781602001602082028036833780820191505090505b50905060008090505b8581101561325c5786818151811061320157fe5b602002602001015182828151811061321557fe5b602002602001019073ffffffffffffffffffffffffffffffffffffffff16908173ffffffffffffffffffffffffffffffffffffffff168152505080806001019150506131ed565b5060006001860190505b828110156132d85786818151811061327a57fe5b602002602001015182600183038151811061329157fe5b602002602001019073ffffffffffffffffffffffffffffffffffffffff16908173ffffffffffffffffffffffffffffffffffffffff16815250508080600101915050613266565b50808686815181106132e657fe5b60200260200101519350935050509250929050565b6000808373ffffffffffffffffffffffffffffffffffffffff166366cb8d2f846040518263ffffffff1660e01b815260040161333791906143d2565b60206040518083038186803b15801561334f57600080fd5b505afa158015613363573d6000803e3d6000fd5b505050506040513d601f19601f820116820180604052508101906133879190613af9565b13905092915050565b6000808373ffffffffffffffffffffffffffffffffffffffff1663a7bdad03846040518263ffffffff1660e01b81526004016133cc91906143d2565b60006040518083038186803b1580156133e457600080fd5b505afa1580156133f8573d6000803e3d6000fd5b505050506040513d6000823e3d601f19601f820116820180604052508101906134219190613893565b5111905092915050565b60008083141561343e5760009050613495565b600082840290508284828161344f57fe5b0414613490576040517f08c379a000000000000000000000000000000000000000000000000000000000815260040161348790614797565b60405180910390fd5b809150505b92915050565b60006134dd83836040518060400160405280601a81526020017f536166654d6174683a206469766973696f6e206279207a65726f0000000000008152506134e5565b905092915050565b6000808311829061352c576040517f08c379a000000000000000000000000000000000000000000000000000000000815260040161352391906145f5565b60405180910390fd5b50600083858161353857fe5b049050809150509392505050565b604051806040016040528060008019168152602001600081525090565b8280548282559060005260206000209081019282156135dc579160200282015b828111156135db5782518260006101000a81548173ffffffffffffffffffffffffffffffffffffffff021916908373ffffffffffffffffffffffffffffffffffffffff16021790555091602001919060010190613583565b5b5090506135e991906135ed565b5090565b61362d91905b8082111561362957600081816101000a81549073ffffffffffffffffffffffffffffffffffffffff0219169055506001016135f3565b5090565b90565b60008135905061363f81614b85565b92915050565b60008151905061365481614b85565b92915050565b600082601f83011261366b57600080fd5b815161367e61367982614943565b614916565b915081818352602084019350602081019050838560208402820111156136a357600080fd5b60005b838110156136d357816136b98882613645565b8452602084019350602083019250506001810190506136a6565b5050505092915050565b6000815190506136ec81614b9c565b92915050565b600082601f83011261370357600080fd5b81516137166137118261496b565b614916565b9150808252602083016020830185838301111561373257600080fd5b61373d838284614b41565b50505092915050565b60008135905061375581614bb3565b92915050565b60008151905061376a81614bca565b92915050565b60008151905061377f81614bda565b92915050565b600082601f83011261379657600080fd5b81356137a96137a482614997565b614916565b915080825260208301602083018583830111156137c557600080fd5b6137d0838284614b32565b50505092915050565b6000813590506137e881614bf1565b92915050565b6000815190506137fd81614bf1565b92915050565b60006020828403121561381557600080fd5b600061382384828501613645565b91505092915050565b60008060006060848603121561384157600080fd5b600061384f86828701613645565b9350506020613860868287016137ee565b925050604084015167ffffffffffffffff81111561387d57600080fd5b613889868287016136f2565b9150509250925092565b6000602082840312156138a557600080fd5b600082015167ffffffffffffffff8111156138bf57600080fd5b6138cb8482850161365a565b91505092915050565b6000602082840312156138e657600080fd5b60006138f4848285016136dd565b91505092915050565b60006020828403121561390f57600080fd5b600082015167ffffffffffffffff81111561392957600080fd5b613935848285016136f2565b91505092915050565b60006020828403121561395057600080fd5b600061395e84828501613746565b91505092915050565b6000806040838503121561397a57600080fd5b600061398885828601613746565b925050602061399985828601613630565b9150509250929050565b6000806000606084860312156139b857600080fd5b60006139c686828701613746565b93505060206139d786828701613630565b92505060406139e886828701613630565b9150509250925092565b600080600080600060a08688031215613a0a57600080fd5b6000613a1888828901613746565b9550506020613a2988828901613630565b9450506040613a3a88828901613630565b935050606086013567ffffffffffffffff811115613a5757600080fd5b613a6388828901613785565b9250506080613a74888289016137d9565b9150509295509295909350565b600080600060608486031215613a9657600080fd5b6000613aa486828701613746565b9350506020613ab5868287016137d9565b9250506040613ac686828701613630565b9150509250925092565b600060208284031215613ae257600080fd5b6000613af08482850161375b565b91505092915050565b600060208284031215613b0b57600080fd5b6000613b1984828501613770565b91505092915050565b600060208284031215613b3457600080fd5b6000613b42848285016137ee565b91505092915050565b6000613b578383613b72565b60208301905092915050565b613b6c81614aa2565b82525050565b613b7b81614a34565b82525050565b613b8a81614a34565b82525050565b6000613b9b826149d3565b613ba58185614a01565b9350613bb0836149c3565b8060005b83811015613be1578151613bc88882613b4b565b9750613bd3836149f4565b925050600181019050613bb4565b5085935050505092915050565b613bf781614a46565b82525050565b613c0681614a52565b82525050565b613c1581614a52565b82525050565b6000613c26826149de565b613c308185614a12565b9350613c40818560208601614b41565b613c4981614b74565b840191505092915050565b613c5d81614ab4565b82525050565b613c6c81614ad8565b82525050565b613c7b81614a6e565b82525050565b613c8a81614afc565b82525050565b6000613c9b826149e9565b613ca58185614a23565b9350613cb5818560208601614b41565b613cbe81614b74565b840191505092915050565b6000613cd6601583614a23565b91507f41646472657373206e6f7420696e2061727261792e00000000000000000000006000830152602082019050919050565b6000613d16601883614a23565b91507f496e646578206d757374206265203c2041206c656e67746800000000000000006000830152602082019050919050565b6000613d56602883614a23565b91507f4d75737420626520612076616c696420616e6420696e697469616c697a65642060008301527f536574546f6b656e0000000000000000000000000000000000000000000000006020830152604082019050919050565b6000613dbc601b83614a23565b91507f536166654d6174683a206164646974696f6e206f766572666c6f7700000000006000830152602082019050919050565b6000613dfc601e83614a23565b91507f4d7573742062652070656e64696e6720696e697469616c697a6174696f6e00006000830152602082019050919050565b6000613e3c602183614a23565b91507f5369676e6564536166654d6174683a206164646974696f6e206f766572666c6f60008301527f77000000000000000000000000000000000000000000000000000000000000006020830152604082019050919050565b6000613ea2601583614a23565b91507f4d7573742062652076616c6964206164617074657200000000000000000000006000830152602082019050919050565b6000613ee2602083614a23565b91507f53616665436173743a2076616c7565206d75737420626520706f7369746976656000830152602082019050919050565b6000613f22601883614a23565b91507f4f6e6c7920746865206d6f64756c652063616e2063616c6c00000000000000006000830152602082019050919050565b6000613f62601d83614a23565b91507f4f70656e20706f736974696f6e73206d75737420626520636c6f7365640000006000830152602082019050919050565b6000613fa2603083614a23565b91507f45787465726e616c20706f736974696f6e73206d757374206265203020746f2060008301527f72656d6f766520636f6d706f6e656e74000000000000000000000000000000006020830152604082019050919050565b6000614008601d83614a23565b91507f4e6f7420656e6f75676820636f6d706f6e656e7420746f207374616b650000006000830152602082019050919050565b6000614048602183614a23565b91507f536166654d6174683a206d756c7469706c69636174696f6e206f766572666c6f60008301527f77000000000000000000000000000000000000000000000000000000000000006020830152604082019050919050565b60006140ae602283614a23565b91507f4e6f7420656e6f75676820636f6d706f6e656e7420746f6b656e73207374616b60008301527f65640000000000000000000000000000000000000000000000000000000000006020830152604082019050919050565b6000614114601883614a23565b91507f5061737365642064617461206d757374206265206e756c6c00000000000000006000830152602082019050919050565b6000614154602e83614a23565b91507f4e6f7420656e6f75676820746f6b656e732072657475726e65642066726f6d2060008301527f7374616b6520636f6e74726163740000000000000000000000000000000000006020830152604082019050919050565b60006141ba602883614a23565b91507f53616665436173743a2076616c756520646f65736e27742066697420696e206160008301527f6e20696e743235360000000000000000000000000000000000000000000000006020830152604082019050919050565b6000614220602483614a23565b91507f4d6f64756c65206d75737420626520656e61626c6564206f6e20636f6e74726f60008301527f6c6c6572000000000000000000000000000000000000000000000000000000006020830152604082019050919050565b6000614286602383614a23565b91507f4d75737420626520636f6e74726f6c6c65722d656e61626c656420536574546f60008301527f6b656e00000000000000000000000000000000000000000000000000000000006020830152604082019050919050565b60006142ec601c83614a23565b91507f4d7573742062652074686520536574546f6b656e206d616e61676572000000006000830152602082019050919050565b600061432c602483614a23565b91507f5369676e6564536166654d6174683a207375627472616374696f6e206f76657260008301527f666c6f77000000000000000000000000000000000000000000000000000000006020830152604082019050919050565b60408201600082015161439b6000850182613bfd565b5060208201516143ae60208501826143b4565b50505050565b6143bd81614a98565b82525050565b6143cc81614a98565b82525050565b60006020820190506143e76000830184613b81565b92915050565b60006020820190506144026000830184613b63565b92915050565b600060408201905061441d6000830185613b81565b61442a6020830184613b81565b9392505050565b60006060820190506144466000830186613b81565b6144536020830185613b81565b81810360408301526144658184613c1b565b9050949350505050565b60006060820190506144846000830186613b81565b6144916020830185613b81565b61449e6040830184613c72565b949350505050565b60006040820190506144bb6000830185613b81565b6144c86020830184613c0c565b9392505050565b60006040820190506144e46000830185613b81565b6144f16020830184613c72565b9392505050565b600060608201905061450d6000830186613b81565b61451a6020830185613c81565b818103604083015261452c8184613c1b565b9050949350505050565b600060408201905061454b6000830185613b81565b61455860208301846143c3565b9392505050565b60006060820190506145746000830186613b81565b61458160208301856143c3565b81810360408301526145938184613c1b565b9050949350505050565b600060208201905081810360008301526145b78184613b90565b905092915050565b60006020820190506145d46000830184613bee565b92915050565b60006020820190506145ef6000830184613c54565b92915050565b6000602082019050818103600083015261460f8184613c90565b905092915050565b6000602082019050818103600083015261463081613cc9565b9050919050565b6000602082019050818103600083015261465081613d09565b9050919050565b6000602082019050818103600083015261467081613d49565b9050919050565b6000602082019050818103600083015261469081613daf565b9050919050565b600060208201905081810360008301526146b081613def565b9050919050565b600060208201905081810360008301526146d081613e2f565b9050919050565b600060208201905081810360008301526146f081613e95565b9050919050565b6000602082019050818103600083015261471081613ed5565b9050919050565b6000602082019050818103600083015261473081613f15565b9050919050565b6000602082019050818103600083015261475081613f55565b9050919050565b6000602082019050818103600083015261477081613f95565b9050919050565b6000602082019050818103600083015261479081613ffb565b9050919050565b600060208201905081810360008301526147b08161403b565b9050919050565b600060208201905081810360008301526147d0816140a1565b9050919050565b600060208201905081810360008301526147f081614107565b9050919050565b6000602082019050818103600083015261481081614147565b9050919050565b60006020820190508181036000830152614830816141ad565b9050919050565b6000602082019050818103600083015261485081614213565b9050919050565b6000602082019050818103600083015261487081614279565b9050919050565b60006020820190508181036000830152614890816142df565b9050919050565b600060208201905081810360008301526148b08161431f565b9050919050565b60006040820190506148cc6000830184614385565b92915050565b60006020820190506148e760008301846143c3565b92915050565b600060408201905061490260008301856143c3565b61490f6020830184613c63565b9392505050565b6000604051905081810181811067ffffffffffffffff8211171561493957600080fd5b8060405250919050565b600067ffffffffffffffff82111561495a57600080fd5b602082029050602081019050919050565b600067ffffffffffffffff82111561498257600080fd5b601f19601f8301169050602081019050919050565b600067ffffffffffffffff8211156149ae57600080fd5b601f19601f8301169050602081019050919050565b6000819050602082019050919050565b600081519050919050565b600081519050919050565b600081519050919050565b6000602082019050919050565b600082825260208201905092915050565b600082825260208201905092915050565b600082825260208201905092915050565b6000614a3f82614a78565b9050919050565b60008115159050919050565b6000819050919050565b6000614a6782614a34565b9050919050565b6000819050919050565b600073ffffffffffffffffffffffffffffffffffffffff82169050919050565b6000819050919050565b6000614aad82614b0e565b9050919050565b6000614abf82614ac6565b9050919050565b6000614ad182614a78565b9050919050565b6000614ae382614aea565b9050919050565b6000614af582614a78565b9050919050565b6000614b0782614a98565b9050919050565b6000614b1982614b20565b9050919050565b6000614b2b82614a78565b9050919050565b82818337600083830152505050565b60005b83811015614b5f578082015181840152602081019050614b44565b83811115614b6e576000848401525b50505050565b6000601f19601f8301169050919050565b614b8e81614a34565b8114614b9957600080fd5b50565b614ba581614a46565b8114614bb057600080fd5b50565b614bbc81614a5c565b8114614bc757600080fd5b50565b60038110614bd757600080fd5b50565b614be381614a6e565b8114614bee57600080fd5b50565b614bfa81614a98565b8114614c0557600080fd5b5056fea26469706673582212208bdb38f891b9a0dd25d459729e46575f3418c5b2c33dbf1aeed5d0757d355c3664736f6c634300060a0033",
  "immutableReferences": {},
  "source": "/*\n    Copyright 2020 Set Labs Inc.\n\n    Licensed under the Apache License, Version 2.0 (the \"License\");\n    you may not use this file except in compliance with the License.\n    You may obtain a copy of the License at\n\n    http://www.apache.org/licenses/LICENSE-2.0\n\n    Unless required by applicable law or agreed to in writing, software\n    distributed under the License is distributed on an \"AS IS\" BASIS,\n    WITHOUT WARRANTIES OR CONDITIONS OF ANY KIND, either express or implied.\n    See the License for the specific language governing permissions and\n    limitations under the License.\n\n    SPDX-License-Identifier: Apache License, Version 2.0\n*/\n\npragma solidity 0.6.10;\npragma experimental \"ABIEncoderV2\";\n\nimport { IERC20 } from \"@openzeppelin/contracts/token/ERC20/IERC20.sol\";\nimport { SafeCast } from \"@openzeppelin/contracts/utils/SafeCast.sol\";\nimport { SafeMath } from \"@openzeppelin/contracts/math/SafeMath.sol\";\nimport { SignedSafeMath } from \"@openzeppelin/contracts/math/SignedSafeMath.sol\";\n\nimport { AddressArrayUtils } from \"../../lib/AddressArrayUtils.sol\";\nimport { IController } from \"../../interfaces/IController.sol\";\nimport { IModuleIssuanceHook } from \"../../interfaces/IModuleIssuanceHook.sol\";\nimport { Invoke } from \"../lib/Invoke.sol\";\nimport { ISetToken } from \"../../interfaces/ISetToken.sol\";\nimport { IStakingAdapter } from \"../../interfaces/IStakingAdapter.sol\";\nimport { ModuleBase } from \"../lib/ModuleBase.sol\";\nimport { Position } from \"../lib/Position.sol\";\n\n\n/**\n * @title StakingModule\n * @author Set Protocol\n *\n * Module that enables managers to stake tokens in external protocols in order to take advantage of token distributions.\n * Managers are in charge of opening and closing staking positions. When issuing new SetTokens the IssuanceModule can call\n * the StakingModule in order to facilitate replicating existing staking positions.\n *\n * The StakingModule works in conjunction with StakingAdapters, in which the claimAdapterID / integrationNames are stored\n * on the integration registry. StakingAdapters for the StakingModule are more functional in nature as the same staking\n * contracts are being used across multiple protocols.\n *\n * An example of staking actions include staking yCRV tokens in CRV Liquidity Gauge\n */\ncontract StakingModule is ModuleBase, IModuleIssuanceHook {\n    using AddressArrayUtils for address[];\n    using Invoke for ISetToken;\n    using Position for ISetToken;\n    using SafeCast for int256;\n    using SignedSafeMath for int256;\n    using SafeCast for uint256;\n    using SafeMath for uint256;\n    using Position for uint256;\n\n    /* ============ Events ============ */\n\n    event ComponentStaked(\n        ISetToken indexed _setToken,\n        address indexed _component,\n        address indexed _stakingContract,\n        uint256 _componentPositionUnits,\n        IStakingAdapter _adapter\n    );\n\n    event ComponentUnstaked(\n        ISetToken indexed _setToken,\n        address indexed _component,\n        address indexed _stakingContract,\n        uint256 _componentPositionUnits,\n        IStakingAdapter _adapter\n    );\n\n    /* ============ Structs ============ */\n\n    struct StakingPosition {\n        bytes32 adapterHash;                // Hash of adapter name\n        uint256 componentPositionUnits;     // The amount of tokens, per Set, being staked on associated staking contract\n    }\n\n    struct ComponentPositions {\n        address[] stakingContracts;                         // List of staking contracts component is being staked on\n        mapping(address => StakingPosition) positions;      // Details of each stakingContract's position\n    }\n\n    /* ============ State Variables ============ */\n    // Mapping relating SetToken to a component to a struct holding all the external staking positions for the component\n    mapping(ISetToken => mapping(address => ComponentPositions)) internal stakingPositions;\n\n    /* ============ Constructor ============ */\n\n    constructor(IController _controller) public ModuleBase(_controller) {}\n\n    /* ============ External Functions ============ */\n\n    /**\n     * MANAGER ONLY: Stake _component in external staking contract. Update state on StakingModule and SetToken to reflect\n     * new position. Manager states the contract they are wishing to stake the passed component in as well as how many\n     * position units they wish to stake. Manager must also identify the adapter they wish to use.\n     *\n     * @param _setToken                 Address of SetToken contract\n     * @param _stakeContract            Address of staking contract\n     * @param _component                Address of token being staked\n     * @param _adapterName              Name of adapter used to interact with staking contract\n     * @param _componentPositionUnits   Quantity of token to stake in position units\n     */\n    function stake(\n        ISetToken _setToken,\n        address _stakeContract,\n        address _component,\n        string memory _adapterName,\n        uint256 _componentPositionUnits\n    )\n        external\n        onlyManagerAndValidSet(_setToken)\n    {\n        require(_setToken.hasSufficientDefaultUnits(_component, _componentPositionUnits), \"Not enough component to stake\");\n\n        IStakingAdapter adapter = IStakingAdapter(getAndValidateAdapter(_adapterName));\n\n        _stake(_setToken, _stakeContract, _component, adapter, _componentPositionUnits, _setToken.totalSupply());\n\n        _updateStakeState(_setToken, _stakeContract, _component, _adapterName, _componentPositionUnits);\n\n        emit ComponentStaked(\n            _setToken,\n            _component,\n            _stakeContract,\n            _componentPositionUnits,\n            adapter\n        );\n    }\n\n    /**\n     * MANAGER ONLY: Unstake _component from external staking contract. Update state on StakingModule and SetToken to reflect\n     * new position.\n     *\n     * @param _setToken                 Address of SetToken contract\n     * @param _stakeContract            Address of staking contract\n     * @param _component                Address of token being staked\n     * @param _adapterName              Name of adapter used to interact with staking contract\n     * @param _componentPositionUnits   Quantity of token to unstake in position units\n     */\n    function unstake(\n        ISetToken _setToken,\n        address _stakeContract,\n        address _component,\n        string memory _adapterName,\n        uint256 _componentPositionUnits\n    )\n        external\n        onlyManagerAndValidSet(_setToken)\n    {\n        require(\n            getStakingPositionUnit(_setToken, _component, _stakeContract) >= _componentPositionUnits,\n            \"Not enough component tokens staked\"\n        );\n\n        IStakingAdapter adapter = IStakingAdapter(getAndValidateAdapter(_adapterName));\n\n        _unstake(_setToken, _stakeContract, _component, adapter, _componentPositionUnits, _setToken.totalSupply());\n\n        _updateUnstakeState(_setToken, _stakeContract, _component, _componentPositionUnits);\n\n        emit ComponentUnstaked(\n            _setToken,\n            _component,\n            _stakeContract,\n            _componentPositionUnits,\n            adapter\n        );\n    }\n\n    /**\n     * MODULE ONLY: On issuance, replicates all staking positions for a given component by staking the component transferred into\n     * the SetToken by an issuer. The amount staked should only be the notional amount required to replicate a _setTokenQuantity\n     * amount of a position. No updates to positions should take place. \n     *\n     * @param _setToken                 Address of SetToken contract\n     * @param _component                Address of token being staked\n     * @param _setTokenQuantity         Quantity of SetToken being issued\n     */\n    function issueHook(ISetToken _setToken, uint256 _setTokenQuantity, address _component) external override onlyModule(_setToken) {\n        address[] memory stakingContracts = getStakingContracts(_setToken, _component);\n        for (uint256 i = 0; i < stakingContracts.length; i++) {\n            // NOTE: We assume here that the calling module has transferred component tokens to the SetToken from the issuer\n            StakingPosition memory stakingPosition = getStakingPosition(_setToken, _component, stakingContracts[i]);\n\n            _stake(\n                _setToken,\n                stakingContracts[i],\n                _component,\n                IStakingAdapter(getAndValidateAdapterWithHash(stakingPosition.adapterHash)),\n                stakingPosition.componentPositionUnits,\n                _setTokenQuantity\n            );\n        }\n    }\n\n    /**\n     * MODULE ONLY: On redemption, unwind all staking positions for a given asset by unstaking the given component. The amount\n     * unstaked should only be the notional amount required to unwind a _setTokenQuantity amount of a position. No updates to\n     * positions should take place. \n     *\n     * @param _setToken                 Address of SetToken contract\n     * @param _component                Address of token being staked\n     * @param _setTokenQuantity         Quantity of SetToken being issued\n     */\n    function redeemHook(ISetToken _setToken, uint256 _setTokenQuantity, address _component) external override onlyModule(_setToken) {\n        address[] memory stakingContracts = getStakingContracts(_setToken, _component);\n        for (uint256 i = 0; i < stakingContracts.length; i++) {\n            StakingPosition memory stakingPosition = getStakingPosition(_setToken, _component, stakingContracts[i]);\n\n            _unstake(\n                _setToken,\n                stakingContracts[i],\n                _component,\n                IStakingAdapter(getAndValidateAdapterWithHash(stakingPosition.adapterHash)),\n                stakingPosition.componentPositionUnits,\n                _setTokenQuantity\n            );\n        }\n    }\n\n    /**\n     * Initializes this module to the SetToken. Only callable by the SetToken's manager.\n     *\n     * @param _setToken             Instance of the SetToken to issue\n     */\n    function initialize(\n        ISetToken _setToken\n    )\n        external\n        onlySetManager(_setToken, msg.sender)\n        onlyValidAndPendingSet(_setToken)\n    {\n        _setToken.initializeModule();\n    }\n\n    /**\n     * Removes this module from the SetToken, via call by the SetToken. If an outstanding staking position remains using\n     * this module then it cannot be removed. Outstanding staking must be closed out first before removal.\n     */\n    function removeModule() external override {\n        ISetToken setToken = ISetToken(msg.sender);\n        address[] memory components = setToken.getComponents();\n        for (uint256 i = 0; i < components.length; i++) {\n            require(stakingPositions[setToken][components[i]].stakingContracts.length == 0, \"Open positions must be closed\");\n        }\n    }\n\n\n    /* ============ External Getter Functions ============ */\n\n    function hasStakingPosition(ISetToken _setToken, address _component, address _stakeContract) public view returns(bool) {\n        return getStakingContracts(_setToken, _component).contains(_stakeContract);\n    }\n    \n    function getStakingContracts(ISetToken _setToken, address _component) public view returns(address[] memory) {\n        return stakingPositions[_setToken][_component].stakingContracts;\n    }\n\n    function getStakingPosition(ISetToken _setToken, address _component, address _stakeContract)\n        public\n        view\n        returns(StakingPosition memory)\n    {\n        return stakingPositions[_setToken][_component].positions[_stakeContract];\n    }\n\n    function getStakingPositionUnit(ISetToken _setToken, address _component, address _stakeContract)\n        public\n        view\n        returns(uint256)\n    {\n        return getStakingPosition(_setToken, _component, _stakeContract).componentPositionUnits;\n    }\n\n    /* ============ Internal Functions ============ */\n\n    /**\n     * Stake _component in external staking contract.\n     *\n     * @param _setToken                 Address of SetToken contract\n     * @param _stakeContract            Address of staking contract\n     * @param _component                Address of token being staked\n     * @param _adapter                  Address of adapter used to interact with staking contract\n     * @param _componentPositionUnits   Quantity of token to stake in position units\n     * @param _setTokenStakeQuantity    Quantity of SetTokens to stake\n     */\n    function _stake(\n        ISetToken _setToken,\n        address _stakeContract,\n        address _component,\n        IStakingAdapter _adapter,\n        uint256 _componentPositionUnits,\n        uint256 _setTokenStakeQuantity\n    )\n        internal\n    {\n        uint256 notionalStakeQuantity = _setTokenStakeQuantity.getDefaultTotalNotional(_componentPositionUnits);\n\n        address spender = _adapter.getSpenderAddress(_stakeContract);\n\n        _setToken.invokeApprove(_component, spender, notionalStakeQuantity);\n\n        (\n            address target, uint256 callValue, bytes memory methodData\n        ) = _adapter.getStakeCallData(_stakeContract, notionalStakeQuantity);\n\n        _setToken.invoke(target, callValue, methodData);\n    }\n\n    /**\n     * Unstake position from external staking contract and validates expected components were received.\n     *\n     * @param _setToken                 Address of SetToken contract\n     * @param _stakeContract            Address of staking contract\n     * @param _component                Address of token being unstaked\n     * @param _adapter                  Address of adapter used to interact with staking contract\n     * @param _componentPositionUnits   Quantity of token to unstake in position units\n     */\n    function _unstake(\n        ISetToken _setToken,\n        address _stakeContract,\n        address _component,\n        IStakingAdapter _adapter,\n        uint256 _componentPositionUnits,\n        uint256 _setTokenUnstakeQuantity\n    )\n        internal\n    {\n        uint256 preActionBalance = IERC20(_component).balanceOf(address(_setToken));\n\n        uint256 notionalUnstakeQuantity = _setTokenUnstakeQuantity.getDefaultTotalNotional(_componentPositionUnits);\n        (\n            address target, uint256 callValue, bytes memory methodData\n        ) = _adapter.getUnstakeCallData(_stakeContract, notionalUnstakeQuantity);\n\n        _setToken.invoke(target, callValue, methodData);\n\n        uint256 postActionBalance = IERC20(_component).balanceOf(address(_setToken));\n        require(preActionBalance.add(notionalUnstakeQuantity) <= postActionBalance, \"Not enough tokens returned from stake contract\");\n    }\n\n    /**\n     * Update positions on SetToken and tracking on StakingModule after staking is complete. Includes the following updates:\n     *  - If adding to position then add positionUnits to existing position amount on StakingModule\n     *  - If opening new staking position add stakeContract to stakingContracts list and create position entry in position mapping\n     *    (on StakingModule)\n     *  - Subtract from Default position of _component on SetToken\n     *  - Add to external position of _component on SetToken referencing this module\n     *\n     * @param _setToken                 Address of SetToken contract\n     * @param _stakeContract            Address of staking contract\n     * @param _component                Address of token being unstaked\n     * @param _adapterName              Address of adapter used to interact with staking contract\n     * @param _componentPositionUnits   Quantity of token to stake in position units\n     */\n    function _updateStakeState(\n        ISetToken _setToken,\n        address _stakeContract,\n        address _component,\n        string memory _adapterName,\n        uint256 _componentPositionUnits\n    )\n        internal\n    {\n        if (hasStakingPosition(_setToken, _component, _stakeContract)) {\n            stakingPositions[_setToken][_component].positions[_stakeContract].componentPositionUnits = _componentPositionUnits.add(\n                getStakingPositionUnit(_setToken, _component, _stakeContract)\n            );\n        } else {\n            stakingPositions[_setToken][_component].stakingContracts.push(_stakeContract);\n            stakingPositions[_setToken][_component].positions[_stakeContract] = StakingPosition({\n                componentPositionUnits: _componentPositionUnits,\n                adapterHash: getNameHash(_adapterName)\n            });\n        }\n\n        uint256 newDefaultTokenUnit = _setToken.getDefaultPositionRealUnit(_component).toUint256().sub(_componentPositionUnits);\n        _setToken.editDefaultPosition(_component, newDefaultTokenUnit);\n        \n        int256 newExternalTokenUnit = _setToken.getExternalPositionRealUnit(_component, address(this))\n            .add(_componentPositionUnits.toInt256());\n        _setToken.editExternalPosition(_component, address(this), newExternalTokenUnit, \"\");\n    }\n\n    /**\n     * Update positions on SetToken and tracking on StakingModule after unstaking is complete. Includes the following updates:\n     *  - If paring down position then subtract positionUnits from existing position amount on StakingModule\n     *  - If closing staking position remove _stakeContract from stakingContracts list and delete position entry in position mapping\n     *    (on StakingModule)\n     *  - Add to Default position of _component on SetToken\n     *  - Subtract from external position of _component on SetToken referencing this module\n     *\n     * @param _setToken                 Address of SetToken contract\n     * @param _stakeContract            Address of staking contract\n     * @param _component                Address of token being unstaked\n     * @param _componentPositionUnits   Quantity of token to stake in position units\n     */\n    function _updateUnstakeState(\n        ISetToken _setToken,\n        address _stakeContract,\n        address _component,\n        uint256 _componentPositionUnits\n    )\n        internal\n    {   \n        uint256 remainingPositionUnits = getStakingPositionUnit(_setToken, _component, _stakeContract).sub(_componentPositionUnits);\n\n        if (remainingPositionUnits > 0) {\n            stakingPositions[_setToken][_component].positions[_stakeContract].componentPositionUnits = remainingPositionUnits;\n        } else {\n            stakingPositions[_setToken][_component].stakingContracts = getStakingContracts(_setToken, _component).remove(_stakeContract);\n            delete stakingPositions[_setToken][_component].positions[_stakeContract];\n        }\n\n        uint256 newTokenUnit = _setToken.getDefaultPositionRealUnit(_component).toUint256().add(_componentPositionUnits);\n        \n        _setToken.editDefaultPosition(_component, newTokenUnit);\n        \n        int256 newExternalTokenUnit = _setToken.getExternalPositionRealUnit(_component, address(this))\n            .sub(_componentPositionUnits.toInt256());\n        \n        _setToken.editExternalPosition(_component, address(this), newExternalTokenUnit, \"\");\n    }\n}",
  "sourcePath": "/Users/tahadhailey/Documents/top5/top5swap/swap/contracts/protocol/modules/StakingModule.sol",
  "compiler": {
    "name": "solc",
    "version": "0.6.10+commit.00c0fcaf.Emscripten.clang"
  },
  "schemaVersion": "3.2.1",
  "updatedAt": "2021-01-21T08:20:37.810Z",
  "devdoc": {
    "author": "Set Protocol Module that enables managers to stake tokens in external protocols in order to take advantage of token distributions. Managers are in charge of opening and closing staking positions. When issuing new SetTokens the IssuanceModule can call the StakingModule in order to facilitate replicating existing staking positions. The StakingModule works in conjunction with StakingAdapters, in which the claimAdapterID / integrationNames are stored on the integration registry. StakingAdapters for the StakingModule are more functional in nature as the same staking contracts are being used across multiple protocols. An example of staking actions include staking yCRV tokens in CRV Liquidity Gauge",
    "methods": {
      "initialize(address)": {
        "params": {
          "_setToken": "Instance of the SetToken to issue"
        }
      },
      "issueHook(address,uint256,address)": {
        "params": {
          "_component": "Address of token being staked",
          "_setToken": "Address of SetToken contract",
          "_setTokenQuantity": "Quantity of SetToken being issued"
        }
      },
      "redeemHook(address,uint256,address)": {
        "params": {
          "_component": "Address of token being staked",
          "_setToken": "Address of SetToken contract",
          "_setTokenQuantity": "Quantity of SetToken being issued"
        }
      },
      "stake(address,address,address,string,uint256)": {
        "params": {
          "_adapterName": "Name of adapter used to interact with staking contract",
          "_component": "Address of token being staked",
          "_componentPositionUnits": "Quantity of token to stake in position units",
          "_setToken": "Address of SetToken contract",
          "_stakeContract": "Address of staking contract"
        }
      },
      "unstake(address,address,address,string,uint256)": {
        "params": {
          "_adapterName": "Name of adapter used to interact with staking contract",
          "_component": "Address of token being staked",
          "_componentPositionUnits": "Quantity of token to unstake in position units",
          "_setToken": "Address of SetToken contract",
          "_stakeContract": "Address of staking contract"
        }
      }
    },
    "title": "StakingModule"
  },
  "userdoc": {
    "methods": {
      "initialize(address)": {
        "notice": "Initializes this module to the SetToken. Only callable by the SetToken's manager."
      },
      "issueHook(address,uint256,address)": {
        "notice": "MODULE ONLY: On issuance, replicates all staking positions for a given component by staking the component transferred into the SetToken by an issuer. The amount staked should only be the notional amount required to replicate a _setTokenQuantity amount of a position. No updates to positions should take place. "
      },
      "redeemHook(address,uint256,address)": {
        "notice": "MODULE ONLY: On redemption, unwind all staking positions for a given asset by unstaking the given component. The amount unstaked should only be the notional amount required to unwind a _setTokenQuantity amount of a position. No updates to positions should take place. "
      },
      "removeModule()": {
        "notice": "Removes this module from the SetToken, via call by the SetToken. If an outstanding staking position remains using this module then it cannot be removed. Outstanding staking must be closed out first before removal."
      },
      "stake(address,address,address,string,uint256)": {
        "notice": "MANAGER ONLY: Stake _component in external staking contract. Update state on StakingModule and SetToken to reflect new position. Manager states the contract they are wishing to stake the passed component in as well as how many position units they wish to stake. Manager must also identify the adapter they wish to use."
      },
      "unstake(address,address,address,string,uint256)": {
        "notice": "MANAGER ONLY: Unstake _component from external staking contract. Update state on StakingModule and SetToken to reflect new position."
      }
    }
  }
}