{
  "contractName": "StreamingFeeModule",
  "abi": [
    {
      "inputs": [
        {
          "internalType": "contract IController",
          "name": "_controller",
          "type": "address"
        }
      ],
      "stateMutability": "nonpayable",
      "type": "constructor"
    },
    {
      "anonymous": false,
      "inputs": [
        {
          "indexed": true,
          "internalType": "address",
          "name": "_setToken",
          "type": "address"
        },
        {
          "indexed": false,
          "internalType": "uint256",
          "name": "_managerFee",
          "type": "uint256"
        },
        {
          "indexed": false,
          "internalType": "uint256",
          "name": "_protocolFee",
          "type": "uint256"
        }
      ],
      "name": "FeeActualized",
      "type": "event"
    },
    {
      "anonymous": false,
      "inputs": [
        {
          "indexed": true,
          "internalType": "address",
          "name": "_setToken",
          "type": "address"
        },
        {
          "indexed": false,
          "internalType": "address",
          "name": "_newFeeRecipient",
          "type": "address"
        }
      ],
      "name": "FeeRecipientUpdated",
      "type": "event"
    },
    {
      "anonymous": false,
      "inputs": [
        {
          "indexed": true,
          "internalType": "address",
          "name": "_setToken",
          "type": "address"
        },
        {
          "indexed": false,
          "internalType": "uint256",
          "name": "_newStreamingFee",
          "type": "uint256"
        }
      ],
      "name": "StreamingFeeUpdated",
      "type": "event"
    },
    {
      "inputs": [],
      "name": "controller",
      "outputs": [
        {
          "internalType": "contract IController",
          "name": "",
          "type": "address"
        }
      ],
      "stateMutability": "view",
      "type": "function"
    },
    {
      "inputs": [
        {
          "internalType": "contract ISetToken",
          "name": "",
          "type": "address"
        }
      ],
      "name": "feeStates",
      "outputs": [
        {
          "internalType": "address",
          "name": "feeRecipient",
          "type": "address"
        },
        {
          "internalType": "uint256",
          "name": "maxStreamingFeePercentage",
          "type": "uint256"
        },
        {
          "internalType": "uint256",
          "name": "streamingFeePercentage",
          "type": "uint256"
        },
        {
          "internalType": "uint256",
          "name": "lastStreamingFeeTimestamp",
          "type": "uint256"
        }
      ],
      "stateMutability": "view",
      "type": "function"
    },
    {
      "inputs": [
        {
          "internalType": "contract ISetToken",
          "name": "_setToken",
          "type": "address"
        }
      ],
      "name": "accrueFee",
      "outputs": [],
      "stateMutability": "nonpayable",
      "type": "function"
    },
    {
      "inputs": [
        {
          "internalType": "contract ISetToken",
          "name": "_setToken",
          "type": "address"
        },
        {
          "components": [
            {
              "internalType": "address",
              "name": "feeRecipient",
              "type": "address"
            },
            {
              "internalType": "uint256",
              "name": "maxStreamingFeePercentage",
              "type": "uint256"
            },
            {
              "internalType": "uint256",
              "name": "streamingFeePercentage",
              "type": "uint256"
            },
            {
              "internalType": "uint256",
              "name": "lastStreamingFeeTimestamp",
              "type": "uint256"
            }
          ],
          "internalType": "struct StreamingFeeModule.FeeState",
          "name": "_settings",
          "type": "tuple"
        }
      ],
      "name": "initialize",
      "outputs": [],
      "stateMutability": "nonpayable",
      "type": "function"
    },
    {
      "inputs": [],
      "name": "removeModule",
      "outputs": [],
      "stateMutability": "nonpayable",
      "type": "function"
    },
    {
      "inputs": [
        {
          "internalType": "contract ISetToken",
          "name": "_setToken",
          "type": "address"
        },
        {
          "internalType": "uint256",
          "name": "_newFee",
          "type": "uint256"
        }
      ],
      "name": "updateStreamingFee",
      "outputs": [],
      "stateMutability": "nonpayable",
      "type": "function"
    },
    {
      "inputs": [
        {
          "internalType": "contract ISetToken",
          "name": "_setToken",
          "type": "address"
        },
        {
          "internalType": "address",
          "name": "_newFeeRecipient",
          "type": "address"
        }
      ],
      "name": "updateFeeRecipient",
      "outputs": [],
      "stateMutability": "nonpayable",
      "type": "function"
    },
    {
      "inputs": [
        {
          "internalType": "contract ISetToken",
          "name": "_setToken",
          "type": "address"
        }
      ],
      "name": "getFee",
      "outputs": [
        {
          "internalType": "uint256",
          "name": "",
          "type": "uint256"
        }
      ],
      "stateMutability": "view",
      "type": "function"
    }
  ],
  "bytecode": "0x60806040523480156200001157600080fd5b50604051620025cb380380620025cb83398181016040528101906200003791906200009e565b80806000806101000a81548173ffffffffffffffffffffffffffffffffffffffff021916908373ffffffffffffffffffffffffffffffffffffffff1602179055505060018081905550506200012c565b600081519050620000988162000112565b92915050565b600060208284031215620000b157600080fd5b6000620000c18482850162000087565b91505092915050565b6000620000d782620000f2565b9050919050565b6000620000eb82620000ca565b9050919050565b600073ffffffffffffffffffffffffffffffffffffffff82169050919050565b6200011d81620000de565b81146200012957600080fd5b50565b61248f806200013c6000396000f3fe608060405234801561001057600080fd5b50600436106100885760003560e01c80638e7bdd481161005b5780638e7bdd48146100eb578063b88c91481461011e578063eb78e5ee1461014e578063f77c47911461016a57610088565b80632f3eec491461008d57806345cb3fde146100a95780635d98c373146100c5578063847ef08d146100e1575b600080fd5b6100a760048036038101906100a291906119be565b610188565b005b6100c360048036038101906100be9190611a5f565b610311565b005b6100df60048036038101906100da91906119e7565b610494565b005b6100e961066e565b005b610105600480360381019061010091906119be565b6106f1565b6040516101159493929190612030565b60405180910390f35b610138600480360381019061013391906119be565b610741565b604051610145919061228d565b60405180910390f35b61016860048036038101906101639190611a23565b610753565b005b610172610af5565b60405161017f9190612075565b60405180910390f35b600260015414156101ce576040517f08c379a00000000000000000000000000000000000000000000000000000000081526004016101c59061226d565b60405180910390fd5b6002600181905550806101e081610b1a565b61021f576040517f08c379a0000000000000000000000000000000000000000000000000000000008152600401610216906120ed565b60405180910390fd5b600080600061022d85610c5e565b111561026d57600061023e85610caa565b9050600061024c8683610d03565b90506102588682610dd9565b809450819550505061026a868361105b565b50505b42600260008673ffffffffffffffffffffffffffffffffffffffff1673ffffffffffffffffffffffffffffffffffffffff168152602001908152602001600020600301819055508373ffffffffffffffffffffffffffffffffffffffff167faca81f8dfdb5e554ef873ba451d1ca28d6701b3d9c3ab5e56c699ae0b37bade183836040516102fc9291906122a8565b60405180910390a25050506001808190555050565b813361031d8282611186565b61035c576040517f08c379a00000000000000000000000000000000000000000000000000000000081526004016103539061222d565b60405180910390fd5b8361036681610b1a565b6103a5576040517f08c379a000000000000000000000000000000000000000000000000000000000815260040161039c906120ed565b60405180910390fd5b6103ae8561123c565b84106103ef576040517f08c379a00000000000000000000000000000000000000000000000000000000081526004016103e69061212d565b60405180910390fd5b6103f885610188565b83600260008773ffffffffffffffffffffffffffffffffffffffff1673ffffffffffffffffffffffffffffffffffffffff168152602001908152602001600020600201819055508473ffffffffffffffffffffffffffffffffffffffff167fa648920efd9baafceb9a4c0163ddc4d7c9df1d0f9a58f8e376bd0ec68e0f749885604051610485919061228d565b60405180910390a25050505050565b81336104a08282611186565b6104df576040517f08c379a00000000000000000000000000000000000000000000000000000000081526004016104d69061222d565b60405180910390fd5b836104e981610b1a565b610528576040517f08c379a000000000000000000000000000000000000000000000000000000000815260040161051f906120ed565b60405180910390fd5b600073ffffffffffffffffffffffffffffffffffffffff168473ffffffffffffffffffffffffffffffffffffffff161415610598576040517f08c379a000000000000000000000000000000000000000000000000000000000815260040161058f906121ad565b60405180910390fd5b83600260008773ffffffffffffffffffffffffffffffffffffffff1673ffffffffffffffffffffffffffffffffffffffff16815260200190815260200160002060000160006101000a81548173ffffffffffffffffffffffffffffffffffffffff021916908373ffffffffffffffffffffffffffffffffffffffff1602179055508473ffffffffffffffffffffffffffffffffffffffff167faaebcf1bfa00580e41d966056b48521fa9f202645c86d4ddf28113e617c1b1d38560405161065f9190611fec565b60405180910390a25050505050565b600260003373ffffffffffffffffffffffffffffffffffffffff1673ffffffffffffffffffffffffffffffffffffffff168152602001908152602001600020600080820160006101000a81549073ffffffffffffffffffffffffffffffffffffffff02191690556001820160009055600282016000905560038201600090555050565b60026020528060005260406000206000915090508060000160009054906101000a900473ffffffffffffffffffffffffffffffffffffffff16908060010154908060020154908060030154905084565b600061074c82610caa565b9050919050565b813361075f8282611186565b61079e576040517f08c379a00000000000000000000000000000000000000000000000000000000081526004016107959061222d565b60405180910390fd5b836000809054906101000a900473ffffffffffffffffffffffffffffffffffffffff1673ffffffffffffffffffffffffffffffffffffffff166374ebe3ec826040518263ffffffff1660e01b81526004016107f99190611fec565b60206040518083038186803b15801561081157600080fd5b505afa158015610825573d6000803e3d6000fd5b505050506040513d601f19601f820116820180604052508101906108499190611995565b610888576040517f08c379a000000000000000000000000000000000000000000000000000000000815260040161087f9061220d565b60405180910390fd5b61089181611288565b6108d0576040517f08c379a00000000000000000000000000000000000000000000000000000000081526004016108c79061210d565b60405180910390fd5b600073ffffffffffffffffffffffffffffffffffffffff16846000015173ffffffffffffffffffffffffffffffffffffffff161415610944576040517f08c379a000000000000000000000000000000000000000000000000000000000815260040161093b906121ad565b60405180910390fd5b61094c61131a565b846020015110610991576040517f08c379a0000000000000000000000000000000000000000000000000000000008152600401610988906120cd565b60405180910390fd5b8360200151846040015111156109dc576040517f08c379a00000000000000000000000000000000000000000000000000000000081526004016109d3906121cd565b60405180910390fd5b4284606001818152505083600260008773ffffffffffffffffffffffffffffffffffffffff1673ffffffffffffffffffffffffffffffffffffffff16815260200190815260200160002060008201518160000160006101000a81548173ffffffffffffffffffffffffffffffffffffffff021916908373ffffffffffffffffffffffffffffffffffffffff1602179055506020820151816001015560408201518160020155606082015181600301559050508473ffffffffffffffffffffffffffffffffffffffff16630ffe0f1e6040518163ffffffff1660e01b8152600401600060405180830381600087803b158015610ad657600080fd5b505af1158015610aea573d6000803e3d6000fd5b505050505050505050565b6000809054906101000a900473ffffffffffffffffffffffffffffffffffffffff1681565b60008060009054906101000a900473ffffffffffffffffffffffffffffffffffffffff1673ffffffffffffffffffffffffffffffffffffffff166374ebe3ec836040518263ffffffff1660e01b8152600401610b769190611fec565b60206040518083038186803b158015610b8e57600080fd5b505afa158015610ba2573d6000803e3d6000fd5b505050506040513d601f19601f82011682018060405250810190610bc69190611995565b8015610c5757508173ffffffffffffffffffffffffffffffffffffffff1663d7f1b27c306040518263ffffffff1660e01b8152600401610c069190611fec565b60206040518083038186803b158015610c1e57600080fd5b505afa158015610c32573d6000803e3d6000fd5b505050506040513d601f19601f82011682018060405250810190610c569190611995565b5b9050919050565b6000600260008373ffffffffffffffffffffffffffffffffffffffff1673ffffffffffffffffffffffffffffffffffffffff168152602001908152602001600020600201549050919050565b600080610cc8610cb98461132a565b4261137690919063ffffffff16565b9050610cfb6301e187e0610ced610cde86610c5e565b846113c090919063ffffffff16565b61143090919063ffffffff16565b915050919050565b6000808373ffffffffffffffffffffffffffffffffffffffff166318160ddd6040518163ffffffff1660e01b815260040160206040518083038186803b158015610d4c57600080fd5b505afa158015610d60573d6000803e3d6000fd5b505050506040513d601f19601f82011682018060405250810190610d849190611ac4565b90506000610d9b82856113c090919063ffffffff16565b90506000610db985610dab61131a565b61137690919063ffffffff16565b9050610dce818361143090919063ffffffff16565b935050505092915050565b60008060008060009054906101000a900473ffffffffffffffffffffffffffffffffffffffff1673ffffffffffffffffffffffffffffffffffffffff1663469048406040518163ffffffff1660e01b815260040160206040518083038186803b158015610e4557600080fd5b505afa158015610e59573d6000803e3d6000fd5b505050506040513d601f19601f82011682018060405250810190610e7d919061196c565b905060008060009054906101000a900473ffffffffffffffffffffffffffffffffffffffff1673ffffffffffffffffffffffffffffffffffffffff1663792aa04f3060006040518363ffffffff1660e01b8152600401610ede929190612007565b60206040518083038186803b158015610ef657600080fd5b505afa158015610f0a573d6000803e3d6000fd5b505050506040513d601f19601f82011682018060405250810190610f2e9190611ac4565b90506000610f45828761147a90919063ffffffff16565b90506000610f5c828861137690919063ffffffff16565b90508773ffffffffffffffffffffffffffffffffffffffff166340c10f19610f838a6114b1565b836040518363ffffffff1660e01b8152600401610fa1929190612007565b600060405180830381600087803b158015610fbb57600080fd5b505af1158015610fcf573d6000803e3d6000fd5b50505050600082111561104a578773ffffffffffffffffffffffffffffffffffffffff166340c10f1985846040518363ffffffff1660e01b8152600401611017929190612007565b600060405180830381600087803b15801561103157600080fd5b505af1158015611045573d6000803e3d6000fd5b505050505b808295509550505050509250929050565b60008273ffffffffffffffffffffffffffffffffffffffff16635230c3966040518163ffffffff1660e01b815260040160206040518083038186803b1580156110a357600080fd5b505afa1580156110b7573d6000803e3d6000fd5b505050506040513d601f19601f820116820180604052508101906110db9190611a9b565b905060006111136111046110ff856110f161131a565b61137690919063ffffffff16565b61151d565b8361158990919063ffffffff16565b90508373ffffffffffffffffffffffffffffffffffffffff1663c2de0e9d826040518263ffffffff1660e01b815260040161114e9190612090565b600060405180830381600087803b15801561116857600080fd5b505af115801561117c573d6000803e3d6000fd5b5050505050505050565b60008173ffffffffffffffffffffffffffffffffffffffff168373ffffffffffffffffffffffffffffffffffffffff1663481c6a756040518163ffffffff1660e01b815260040160206040518083038186803b1580156111e557600080fd5b505afa1580156111f9573d6000803e3d6000fd5b505050506040513d601f19601f8201168201806040525081019061121d919061196c565b73ffffffffffffffffffffffffffffffffffffffff1614905092915050565b6000600260008373ffffffffffffffffffffffffffffffffffffffff1673ffffffffffffffffffffffffffffffffffffffff168152602001908152602001600020600101549050919050565b60008173ffffffffffffffffffffffffffffffffffffffff166353bae5f7306040518263ffffffff1660e01b81526004016112c39190611fec565b60206040518083038186803b1580156112db57600080fd5b505afa1580156112ef573d6000803e3d6000fd5b505050506040513d601f19601f820116820180604052508101906113139190611995565b9050919050565b6000670de0b6b3a7640000905090565b6000600260008373ffffffffffffffffffffffffffffffffffffffff1673ffffffffffffffffffffffffffffffffffffffff168152602001908152602001600020600301549050919050565b60006113b883836040518060400160405280601e81526020017f536166654d6174683a207375627472616374696f6e206f766572666c6f7700008152506115c0565b905092915050565b6000808314156113d3576000905061142a565b60008284029050828482816113e457fe5b0414611425576040517f08c379a000000000000000000000000000000000000000000000000000000000815260040161141c9061216d565b60405180910390fd5b809150505b92915050565b600061147283836040518060400160405280601a81526020017f536166654d6174683a206469766973696f6e206279207a65726f00000000000081525061161b565b905092915050565b60006114a9670de0b6b3a764000061149b84866113c090919063ffffffff16565b61143090919063ffffffff16565b905092915050565b6000600260008373ffffffffffffffffffffffffffffffffffffffff1673ffffffffffffffffffffffffffffffffffffffff16815260200190815260200160002060000160009054906101000a900473ffffffffffffffffffffffffffffffffffffffff169050919050565b60007f80000000000000000000000000000000000000000000000000000000000000008210611581576040517f08c379a0000000000000000000000000000000000000000000000000000000008152600401611578906121ed565b60405180910390fd5b819050919050565b60006115b8670de0b6b3a76400006115aa848661167c90919063ffffffff16565b61177a90919063ffffffff16565b905092915050565b6000838311158290611608576040517f08c379a00000000000000000000000000000000000000000000000000000000081526004016115ff91906120ab565b60405180910390fd5b5060008385039050809150509392505050565b60008083118290611662576040517f08c379a000000000000000000000000000000000000000000000000000000000815260040161165991906120ab565b60405180910390fd5b50600083858161166e57fe5b049050809150509392505050565b60008083141561168f5760009050611774565b7fffffffffffffffffffffffffffffffffffffffffffffffffffffffffffffffff831480156116dd57507f800000000000000000000000000000000000000000000000000000000000000082145b1561171d576040517f08c379a00000000000000000000000000000000000000000000000000000000081526004016117149061218d565b60405180910390fd5b600082840290508284828161172e57fe5b051461176f576040517f08c379a00000000000000000000000000000000000000000000000000000000081526004016117669061218d565b60405180910390fd5b809150505b92915050565b6000808214156117bf576040517f08c379a00000000000000000000000000000000000000000000000000000000081526004016117b69061224d565b60405180910390fd5b7fffffffffffffffffffffffffffffffffffffffffffffffffffffffffffffffff8214801561180d57507f800000000000000000000000000000000000000000000000000000000000000083145b1561184d576040517f08c379a00000000000000000000000000000000000000000000000000000000081526004016118449061214d565b60405180910390fd5b600082848161185857fe5b0590508091505092915050565b600081359050611874816123e6565b92915050565b600081519050611889816123e6565b92915050565b60008151905061189e816123fd565b92915050565b6000813590506118b381612414565b92915050565b6000815190506118c88161242b565b92915050565b6000608082840312156118e057600080fd5b6118ea60806122d1565b905060006118fa84828501611865565b600083015250602061190e84828501611942565b602083015250604061192284828501611942565b604083015250606061193684828501611942565b60608301525092915050565b60008135905061195181612442565b92915050565b60008151905061196681612442565b92915050565b60006020828403121561197e57600080fd5b600061198c8482850161187a565b91505092915050565b6000602082840312156119a757600080fd5b60006119b58482850161188f565b91505092915050565b6000602082840312156119d057600080fd5b60006119de848285016118a4565b91505092915050565b600080604083850312156119fa57600080fd5b6000611a08858286016118a4565b9250506020611a1985828601611865565b9150509250929050565b60008060a08385031215611a3657600080fd5b6000611a44858286016118a4565b9250506020611a55858286016118ce565b9150509250929050565b60008060408385031215611a7257600080fd5b6000611a80858286016118a4565b9250506020611a9185828601611942565b9150509250929050565b600060208284031215611aad57600080fd5b6000611abb848285016118b9565b91505092915050565b600060208284031215611ad657600080fd5b6000611ae484828501611957565b91505092915050565b611af68161231a565b82525050565b611b058161237e565b82525050565b611b148161234a565b82525050565b6000611b25826122fe565b611b2f8185612309565b9350611b3f8185602086016123a2565b611b48816123d5565b840191505092915050565b6000611b60601783612309565b91507f4d617820666565206d757374206265203c20313030252e0000000000000000006000830152602082019050919050565b6000611ba0602883612309565b91507f4d75737420626520612076616c696420616e6420696e697469616c697a65642060008301527f536574546f6b656e0000000000000000000000000000000000000000000000006020830152604082019050919050565b6000611c06601e83612309565b91507f4d7573742062652070656e64696e6720696e697469616c697a6174696f6e00006000830152602082019050919050565b6000611c46601983612309565b91507f466565206d757374206265206c657373207468616e206d6178000000000000006000830152602082019050919050565b6000611c86602183612309565b91507f5369676e6564536166654d6174683a206469766973696f6e206f766572666c6f60008301527f77000000000000000000000000000000000000000000000000000000000000006020830152604082019050919050565b6000611cec602183612309565b91507f536166654d6174683a206d756c7469706c69636174696f6e206f766572666c6f60008301527f77000000000000000000000000000000000000000000000000000000000000006020830152604082019050919050565b6000611d52602783612309565b91507f5369676e6564536166654d6174683a206d756c7469706c69636174696f6e206f60008301527f766572666c6f77000000000000000000000000000000000000000000000000006020830152604082019050919050565b6000611db8602783612309565b91507f46656520526563697069656e74206d757374206265206e6f6e2d7a65726f206160008301527f6464726573732e000000000000000000000000000000000000000000000000006020830152604082019050919050565b6000611e1e601383612309565b91507f466565206d757374206265203c3d206d61782e000000000000000000000000006000830152602082019050919050565b6000611e5e602883612309565b91507f53616665436173743a2076616c756520646f65736e27742066697420696e206160008301527f6e20696e743235360000000000000000000000000000000000000000000000006020830152604082019050919050565b6000611ec4602383612309565b91507f4d75737420626520636f6e74726f6c6c65722d656e61626c656420536574546f60008301527f6b656e00000000000000000000000000000000000000000000000000000000006020830152604082019050919050565b6000611f2a601c83612309565b91507f4d7573742062652074686520536574546f6b656e206d616e61676572000000006000830152602082019050919050565b6000611f6a602083612309565b91507f5369676e6564536166654d6174683a206469766973696f6e206279207a65726f6000830152602082019050919050565b6000611faa601f83612309565b91507f5265656e7472616e637947756172643a207265656e7472616e742063616c6c006000830152602082019050919050565b611fe681612374565b82525050565b60006020820190506120016000830184611aed565b92915050565b600060408201905061201c6000830185611aed565b6120296020830184611fdd565b9392505050565b60006080820190506120456000830187611aed565b6120526020830186611fdd565b61205f6040830185611fdd565b61206c6060830184611fdd565b95945050505050565b600060208201905061208a6000830184611afc565b92915050565b60006020820190506120a56000830184611b0b565b92915050565b600060208201905081810360008301526120c58184611b1a565b905092915050565b600060208201905081810360008301526120e681611b53565b9050919050565b6000602082019050818103600083015261210681611b93565b9050919050565b6000602082019050818103600083015261212681611bf9565b9050919050565b6000602082019050818103600083015261214681611c39565b9050919050565b6000602082019050818103600083015261216681611c79565b9050919050565b6000602082019050818103600083015261218681611cdf565b9050919050565b600060208201905081810360008301526121a681611d45565b9050919050565b600060208201905081810360008301526121c681611dab565b9050919050565b600060208201905081810360008301526121e681611e11565b9050919050565b6000602082019050818103600083015261220681611e51565b9050919050565b6000602082019050818103600083015261222681611eb7565b9050919050565b6000602082019050818103600083015261224681611f1d565b9050919050565b6000602082019050818103600083015261226681611f5d565b9050919050565b6000602082019050818103600083015261228681611f9d565b9050919050565b60006020820190506122a26000830184611fdd565b92915050565b60006040820190506122bd6000830185611fdd565b6122ca6020830184611fdd565b9392505050565b6000604051905081810181811067ffffffffffffffff821117156122f457600080fd5b8060405250919050565b600081519050919050565b600082825260208201905092915050565b600061232582612354565b9050919050565b60008115159050919050565b60006123438261231a565b9050919050565b6000819050919050565b600073ffffffffffffffffffffffffffffffffffffffff82169050919050565b6000819050919050565b600061238982612390565b9050919050565b600061239b82612354565b9050919050565b60005b838110156123c05780820151818401526020810190506123a5565b838111156123cf576000848401525b50505050565b6000601f19601f8301169050919050565b6123ef8161231a565b81146123fa57600080fd5b50565b6124068161232c565b811461241157600080fd5b50565b61241d81612338565b811461242857600080fd5b50565b6124348161234a565b811461243f57600080fd5b50565b61244b81612374565b811461245657600080fd5b5056fea26469706673582212205bb51d6864f1a2133cff47b3ca35c8033af4ee7511b1864151afa2e01e1159c864736f6c634300060a0033",
  "immutableReferences": {},
  "source": "/*\n    Copyright 2020 Set Labs Inc.\n\n    Licensed under the Apache License, Version 2.0 (the \"License\");\n    you may not use this file except in compliance with the License.\n    You may obtain a copy of the License at\n\n    http://www.apache.org/licenses/LICENSE-2.0\n\n    Unless required by applicable law or agreed to in writing, software\n    distributed under the License is distributed on an \"AS IS\" BASIS,\n    WITHOUT WARRANTIES OR CONDITIONS OF ANY KIND, either express or implied.\n    See the License for the specific language governing permissions and\n    limitations under the License.\n\n    SPDX-License-Identifier: Apache License, Version 2.0\n*/\n\npragma solidity 0.6.10;\npragma experimental \"ABIEncoderV2\";\n\nimport { ReentrancyGuard } from \"@openzeppelin/contracts/utils/ReentrancyGuard.sol\";\nimport { SafeCast } from \"@openzeppelin/contracts/utils/SafeCast.sol\";\nimport { SafeMath } from \"@openzeppelin/contracts/math/SafeMath.sol\";\nimport { SignedSafeMath } from \"@openzeppelin/contracts/math/SignedSafeMath.sol\";\n\nimport { IController } from \"../../interfaces/IController.sol\";\nimport { ISetToken } from \"../../interfaces/ISetToken.sol\";\nimport { ModuleBase } from \"../lib/ModuleBase.sol\";\nimport { PreciseUnitMath } from \"../../lib/PreciseUnitMath.sol\";\n\n\n/**\n * @title StreamingFeeModule\n * @author Set Protocol\n *\n * Smart contract that accrues streaming fees for Set managers. Streaming fees are denominated as percent\n * per year and realized as Set inflation rewarded to the manager.\n */\ncontract StreamingFeeModule is ModuleBase, ReentrancyGuard {\n    using SafeMath for uint256;\n    using PreciseUnitMath for uint256;\n    using SafeCast for uint256;\n\n    using SignedSafeMath for int256;\n    using PreciseUnitMath for int256;\n    using SafeCast for int256;\n\n\n    /* ============ Structs ============ */\n\n    struct FeeState {\n        address feeRecipient;                   // Address to accrue fees to\n        uint256 maxStreamingFeePercentage;      // Max streaming fee maanager commits to using (1% = 1e16, 100% = 1e18)\n        uint256 streamingFeePercentage;         // Percent of Set accruing to manager annually (1% = 1e16, 100% = 1e18)\n        uint256 lastStreamingFeeTimestamp;      // Timestamp last streaming fee was accrued\n    }\n\n    /* ============ Events ============ */\n\n    event FeeActualized(address indexed _setToken, uint256 _managerFee, uint256 _protocolFee);\n    event StreamingFeeUpdated(address indexed _setToken, uint256 _newStreamingFee);\n    event FeeRecipientUpdated(address indexed _setToken, address _newFeeRecipient);\n\n    /* ============ Constants ============ */\n\n    uint256 private constant ONE_YEAR_IN_SECONDS = 365.25 days;\n    uint256 private constant PROTOCOL_STREAMING_FEE_INDEX = 0;\n\n    /* ============ State Variables ============ */\n\n    mapping(ISetToken => FeeState) public feeStates;\n\n    /* ============ Constructor ============ */\n\n    constructor(IController _controller) public ModuleBase(_controller) {}\n\n    /* ============ External Functions ============ */\n\n    /*\n     * Calculates total inflation percentage then mints new Sets to the fee recipient. Position units are\n     * then adjusted down (in magnitude) in order to ensure full collateralization. Callable by anyone.\n     *\n     * @param _setToken       Address of SetToken\n     */\n    function accrueFee(ISetToken _setToken) public nonReentrant onlyValidAndInitializedSet(_setToken) {\n        uint256 managerFee;\n        uint256 protocolFee;\n\n        if (_streamingFeePercentage(_setToken) > 0) {\n            uint256 inflationFeePercentage = _calculateStreamingFee(_setToken);\n\n            // Calculate incentiveFee inflation\n            uint256 feeQuantity = _calculateStreamingFeeInflation(_setToken, inflationFeePercentage);\n\n            // Mint new Sets to manager and protocol\n            (\n                managerFee,\n                protocolFee\n            ) = _mintManagerAndProtocolFee(_setToken, feeQuantity);\n\n            _editPositionMultiplier(_setToken, inflationFeePercentage);\n        }\n\n        feeStates[_setToken].lastStreamingFeeTimestamp = block.timestamp;\n\n        emit FeeActualized(address(_setToken), managerFee, protocolFee);\n    }\n\n    /**\n     * SET MANAGER ONLY. Initialize module with SetToken and set the fee state for the SetToken. Passed\n     * _settings will have lastStreamingFeeTimestamp over-written.\n     *\n     * @param _setToken                 Address of SetToken\n     * @param _settings                 FeeState struct defining fee parameters\n     */\n    function initialize(\n        ISetToken _setToken,\n        FeeState memory _settings\n    )\n        external\n        onlySetManager(_setToken, msg.sender)\n        onlyValidAndPendingSet(_setToken)\n    {\n        require(_settings.feeRecipient != address(0), \"Fee Recipient must be non-zero address.\");\n        require(_settings.maxStreamingFeePercentage < PreciseUnitMath.preciseUnit(), \"Max fee must be < 100%.\");\n        require(_settings.streamingFeePercentage <= _settings.maxStreamingFeePercentage, \"Fee must be <= max.\");\n\n        _settings.lastStreamingFeeTimestamp = block.timestamp;\n\n        feeStates[_setToken] = _settings;\n        _setToken.initializeModule();\n    }\n\n    /**\n     * Removes this module from the SetToken, via call by the SetToken. Manager's feeState is deleted. Fees\n     * are not accrued in case reason for removing module is related to fee accrual.\n     */\n    function removeModule() external override {\n        delete feeStates[ISetToken(msg.sender)];\n    }\n\n    /*\n     * Set new streaming fee. Fees accrue at current rate then new rate is set.\n     * Fees are accrued to prevent the manager from unfairly accruing a larger percentage.\n     *\n     * @param _setToken       Address of SetToken\n     * @param _newFee         New streaming fee 18 decimal precision\n     */\n    function updateStreamingFee(\n        ISetToken _setToken,\n        uint256 _newFee\n    )\n        external\n        onlySetManager(_setToken, msg.sender)\n        onlyValidAndInitializedSet(_setToken)\n    {\n        require(_newFee < _maxStreamingFeePercentage(_setToken), \"Fee must be less than max\");\n        accrueFee(_setToken);\n\n        feeStates[_setToken].streamingFeePercentage = _newFee;\n\n        emit StreamingFeeUpdated(address(_setToken), _newFee);\n    }\n\n    /*\n     * Set new fee recipient.\n     *\n     * @param _setToken             Address of SetToken\n     * @param _newFeeRecipient      New fee recipient\n     */\n    function updateFeeRecipient(ISetToken _setToken, address _newFeeRecipient)\n        external\n        onlySetManager(_setToken, msg.sender)\n        onlyValidAndInitializedSet(_setToken)\n    {\n        require(_newFeeRecipient != address(0), \"Fee Recipient must be non-zero address.\");\n\n        feeStates[_setToken].feeRecipient = _newFeeRecipient;\n\n        emit FeeRecipientUpdated(address(_setToken), _newFeeRecipient);\n    }\n\n    /*\n     * Calculates total inflation percentage in order to accrue fees to manager.\n     *\n     * @param _setToken       Address of SetToken\n     * @return  uint256       Percent inflation of supply\n     */\n    function getFee(ISetToken _setToken) external view returns (uint256) {\n        return _calculateStreamingFee(_setToken);\n    }\n\n    /* ============ Internal Functions ============ */\n\n    /**\n     * Calculates streaming fee by multiplying streamingFeePercentage by the elapsed amount of time since the last fee\n     * was collected divided by one year in seconds, since the fee is a yearly fee.\n     *\n     * @param  _setToken          Address of Set to have feeState updated\n     * @return uint256            Streaming fee denominated in percentage of totalSupply\n     */\n    function _calculateStreamingFee(ISetToken _setToken) internal view returns(uint256) {\n        uint256 timeSinceLastFee = block.timestamp.sub(_lastStreamingFeeTimestamp(_setToken));\n\n        // Streaming fee is streaming fee times years since last fee\n        return timeSinceLastFee.mul(_streamingFeePercentage(_setToken)).div(ONE_YEAR_IN_SECONDS);\n    }\n\n    /**\n     * Returns the new incentive fee denominated in the number of SetTokens to mint. The calculation for the fee involves\n     * implying mint quantity so that the feeRecipient owns the fee percentage of the entire supply of the Set.\n     *\n     * The formula to solve for fee is:\n     * (feeQuantity / feeQuantity) + totalSupply = fee / scaleFactor\n     *\n     * The simplified formula utilized below is:\n     * feeQuantity = fee * totalSupply / (scaleFactor - fee)\n     *\n     * @param   _setToken               SetToken instance\n     * @param   _feePercentage          Fee levied to feeRecipient\n     * @return  uint256                 New RebalancingSet issue quantity\n     */\n    function _calculateStreamingFeeInflation(\n        ISetToken _setToken,\n        uint256 _feePercentage\n    )\n        internal\n        view\n        returns (uint256)\n    {\n        uint256 totalSupply = _setToken.totalSupply();\n\n        // fee * totalSupply\n        uint256 a = _feePercentage.mul(totalSupply);\n\n        // ScaleFactor (10e18) - fee\n        uint256 b = PreciseUnitMath.preciseUnit().sub(_feePercentage);\n\n        return a.div(b);\n    }\n\n    /**\n     * Mints sets to both the manager and the protocol. Protocol takes a percentage fee of the total amount of Sets\n     * minted to manager.\n     *\n     * @param   _setToken               SetToken instance\n     * @param   _feeQuantity            Amount of Sets to be minted as fees\n     * @return  uint256                 Amount of Sets accrued to manager as fee\n     * @return  uint256                 Amount of Sets accrued to protocol as fee\n     */\n    function _mintManagerAndProtocolFee(ISetToken _setToken, uint256 _feeQuantity) internal returns (uint256, uint256) {\n        address protocolFeeRecipient = controller.feeRecipient();\n        uint256 protocolFee = controller.getModuleFee(address(this), PROTOCOL_STREAMING_FEE_INDEX);\n\n        uint256 protocolFeeAmount = _feeQuantity.preciseMul(protocolFee);\n        uint256 managerFeeAmount = _feeQuantity.sub(protocolFeeAmount);\n\n        _setToken.mint(_feeRecipient(_setToken), managerFeeAmount);\n\n        if (protocolFeeAmount > 0) {\n            _setToken.mint(protocolFeeRecipient, protocolFeeAmount);\n        }\n\n        return (managerFeeAmount, protocolFeeAmount);\n    }\n\n    /**\n     * Calculates new position multiplier according to following formula:\n     *\n     * newMultiplier = oldMultiplier * (1-inflationFee)\n     *\n     * This reduces position sizes to offset increase in supply due to fee collection.\n     *\n     * @param   _setToken               SetToken instance\n     * @param   _inflationFee           Fee inflation rate\n     */\n    function _editPositionMultiplier(ISetToken _setToken, uint256 _inflationFee) internal {\n        int256 currentMultipler = _setToken.positionMultiplier();\n        int256 newMultiplier = currentMultipler.preciseMul(PreciseUnitMath.preciseUnit().sub(_inflationFee).toInt256());\n\n        _setToken.editPositionMultiplier(newMultiplier);\n    }\n\n    function _feeRecipient(ISetToken _set) internal view returns (address) {\n        return feeStates[_set].feeRecipient;\n    }\n\n    function _lastStreamingFeeTimestamp(ISetToken _set) internal view returns (uint256) {\n        return feeStates[_set].lastStreamingFeeTimestamp;\n    }\n\n    function _maxStreamingFeePercentage(ISetToken _set) internal view returns (uint256) {\n        return feeStates[_set].maxStreamingFeePercentage;\n    }\n\n    function _streamingFeePercentage(ISetToken _set) internal view returns (uint256) {\n        return feeStates[_set].streamingFeePercentage;\n    }\n}",
  "sourcePath": "/Users/tahadhailey/Documents/top5/top5swap/swap/contracts/protocol/modules/StreamingFeeModule.sol",
  "compiler": {
    "name": "solc",
    "version": "0.6.10+commit.00c0fcaf.Emscripten.clang"
  },
  "schemaVersion": "3.2.1",
  "updatedAt": "2021-01-21T08:20:37.819Z",
  "devdoc": {
    "author": "Set Protocol Smart contract that accrues streaming fees for Set managers. Streaming fees are denominated as percent per year and realized as Set inflation rewarded to the manager.",
    "methods": {
      "initialize(address,(address,uint256,uint256,uint256))": {
        "params": {
          "_setToken": "Address of SetToken",
          "_settings": "FeeState struct defining fee parameters"
        }
      }
    },
    "title": "StreamingFeeModule"
  },
  "userdoc": {
    "methods": {
      "initialize(address,(address,uint256,uint256,uint256))": {
        "notice": "SET MANAGER ONLY. Initialize module with SetToken and set the fee state for the SetToken. Passed _settings will have lastStreamingFeeTimestamp over-written."
      },
      "removeModule()": {
        "notice": "Removes this module from the SetToken, via call by the SetToken. Manager's feeState is deleted. Fees are not accrued in case reason for removing module is related to fee accrual."
      }
    }
  }
}