{
  "contractName": "StreamingFeeModuleViewer",
  "abi": [
    {
      "inputs": [
        {
          "internalType": "contract IStreamingFeeModule",
          "name": "_streamingFeeModule",
          "type": "address"
        },
        {
          "internalType": "contract ISetToken[]",
          "name": "_setTokens",
          "type": "address[]"
        }
      ],
      "name": "batchFetchStreamingFeeInfo",
      "outputs": [
        {
          "components": [
            {
              "internalType": "address",
              "name": "feeRecipient",
              "type": "address"
            },
            {
              "internalType": "uint256",
              "name": "streamingFeePercentage",
              "type": "uint256"
            },
            {
              "internalType": "uint256",
              "name": "unaccruedFees",
              "type": "uint256"
            }
          ],
          "internalType": "struct StreamingFeeModuleViewer.StreamingFeeInfo[]",
          "name": "",
          "type": "tuple[]"
        }
      ],
      "stateMutability": "view",
      "type": "function"
    }
  ],
  "bytecode": "0x608060405234801561001057600080fd5b506107a3806100206000396000f3fe608060405234801561001057600080fd5b506004361061002b5760003560e01c8063429d506f14610030575b600080fd5b61004a60048036038101906100459190610437565b610060565b60405161005791906105c2565b60405180910390f35b606080825167ffffffffffffffff8111801561007b57600080fd5b506040519080825280602002602001820160405280156100b557816020015b6100a2610277565b81526020019060019003908161009a5790505b50905060008090505b835181101561026c576100cf6102ae565b8573ffffffffffffffffffffffffffffffffffffffff16638e7bdd488684815181106100f757fe5b60200260200101516040518263ffffffff1660e01b815260040161011b91906105e4565b60806040518083038186803b15801561013357600080fd5b505afa158015610147573d6000803e3d6000fd5b505050506040513d601f19601f8201168201806040525081019061016b919061048b565b905060008673ffffffffffffffffffffffffffffffffffffffff1663b88c914887858151811061019757fe5b60200260200101516040518263ffffffff1660e01b81526004016101bb91906105e4565b60206040518083038186803b1580156101d357600080fd5b505afa1580156101e7573d6000803e3d6000fd5b505050506040513d601f19601f8201168201806040525081019061020b91906104b4565b90506040518060600160405280836000015173ffffffffffffffffffffffffffffffffffffffff168152602001836040015181526020018281525084848151811061025257fe5b6020026020010181905250505080806001019150506100be565b508091505092915050565b6040518060600160405280600073ffffffffffffffffffffffffffffffffffffffff16815260200160008152602001600081525090565b6040518060800160405280600073ffffffffffffffffffffffffffffffffffffffff1681526020016000815260200160008152602001600081525090565b6000815190506102fb81610711565b92915050565b600082601f83011261031257600080fd5b81356103256103208261062c565b6105ff565b9150818183526020840193506020810190508385602084028201111561034a57600080fd5b60005b8381101561037a57816103608882610384565b84526020840193506020830192505060018101905061034d565b5050505092915050565b60008135905061039381610728565b92915050565b6000813590506103a88161073f565b92915050565b6000608082840312156103c057600080fd5b6103ca60806105ff565b905060006103da848285016102ec565b60008301525060206103ee84828501610422565b602083015250604061040284828501610422565b604083015250606061041684828501610422565b60608301525092915050565b60008151905061043181610756565b92915050565b6000806040838503121561044a57600080fd5b600061045885828601610399565b925050602083013567ffffffffffffffff81111561047557600080fd5b61048185828601610301565b9150509250929050565b60006080828403121561049d57600080fd5b60006104ab848285016103ae565b91505092915050565b6000602082840312156104c657600080fd5b60006104d484828501610422565b91505092915050565b60006104e98383610571565b60608301905092915050565b6104fe8161068d565b82525050565b600061050f82610664565b610519818561067c565b935061052483610654565b8060005b8381101561055557815161053c88826104dd565b97506105478361066f565b925050600181019050610528565b5085935050505092915050565b61056b816106ed565b82525050565b60608201600082015161058760008501826104f5565b50602082015161059a60208501826105b3565b5060408201516105ad60408501826105b3565b50505050565b6105bc816106e3565b82525050565b600060208201905081810360008301526105dc8184610504565b905092915050565b60006020820190506105f96000830184610562565b92915050565b6000604051905081810181811067ffffffffffffffff8211171561062257600080fd5b8060405250919050565b600067ffffffffffffffff82111561064357600080fd5b602082029050602081019050919050565b6000819050602082019050919050565b600081519050919050565b6000602082019050919050565b600082825260208201905092915050565b6000610698826106c3565b9050919050565b60006106aa8261068d565b9050919050565b60006106bc8261068d565b9050919050565b600073ffffffffffffffffffffffffffffffffffffffff82169050919050565b6000819050919050565b60006106f8826106ff565b9050919050565b600061070a826106c3565b9050919050565b61071a8161068d565b811461072557600080fd5b50565b6107318161069f565b811461073c57600080fd5b50565b610748816106b1565b811461075357600080fd5b50565b61075f816106e3565b811461076a57600080fd5b5056fea264697066735822122054ed3f922b34b65d076ad8250b8c82769ab1d4e1570bb0414ae8abf3dd4b81fd64736f6c634300060a0033",
  "immutableReferences": {},
  "source": "/*\n    Copyright 2020 Set Labs Inc.\n\n    Licensed under the Apache License, Version 2.0 (the \"License\");\n    you may not use this file except in compliance with the License.\n    You may obtain a copy of the License at\n\n    http://www.apache.org/licenses/LICENSE-2.0\n\n    Unless required by applicable law or agreed to in writing, software\n    distributed under the License is distributed on an \"AS IS\" BASIS,\n    WITHOUT WARRANTIES OR CONDITIONS OF ANY KIND, either express or implied.\n    See the License for the specific language governing permissions and\n    limitations under the License.\n\n    SPDX-License-Identifier: Apache License, Version 2.0\n*/\npragma solidity 0.6.10;\npragma experimental \"ABIEncoderV2\";\n\n\nimport { ISetToken } from \"../interfaces/ISetToken.sol\";\nimport { IStreamingFeeModule } from \"../interfaces/IStreamingFeeModule.sol\";\nimport { StreamingFeeModule } from \"../protocol/modules/StreamingFeeModule.sol\";\n\n\n/**\n * @title StreamingFeeModuleViewer\n * @author Set Protocol\n *\n * StreamingFeeModuleViewer enables batch queries of StreamingFeeModule state.\n */\ncontract StreamingFeeModuleViewer {\n\n    struct StreamingFeeInfo {\n        address feeRecipient;\n        uint256 streamingFeePercentage;\n        uint256 unaccruedFees;\n    }\n\n    function batchFetchStreamingFeeInfo(\n        IStreamingFeeModule _streamingFeeModule,\n        ISetToken[] memory _setTokens\n    )\n        external\n        view\n        returns (StreamingFeeInfo[] memory)\n    {\n        StreamingFeeInfo[] memory feeInfo = new StreamingFeeInfo[](_setTokens.length);\n\n        for (uint256 i = 0; i < _setTokens.length; i++) {\n            StreamingFeeModule.FeeState memory feeState = _streamingFeeModule.feeStates(_setTokens[i]);\n            uint256 unaccruedFees = _streamingFeeModule.getFee(_setTokens[i]);\n\n            feeInfo[i] = StreamingFeeInfo({\n                feeRecipient: feeState.feeRecipient,\n                streamingFeePercentage: feeState.streamingFeePercentage,\n                unaccruedFees: unaccruedFees\n            });\n        }\n\n        return feeInfo;\n    }\n}",
  "sourcePath": "/Users/tahadhailey/Documents/top5/top5swap/swap/contracts/protocol-viewers/StreamingFeeModuleViewer.sol",
  "compiler": {
    "name": "solc",
    "version": "0.6.10+commit.00c0fcaf.Emscripten.clang"
  },
  "schemaVersion": "3.2.1",
  "updatedAt": "2021-01-21T08:20:37.645Z",
  "devdoc": {
    "author": "Set Protocol StreamingFeeModuleViewer enables batch queries of StreamingFeeModule state.",
    "methods": {},
    "title": "StreamingFeeModuleViewer"
  },
  "userdoc": {
    "methods": {}
  }
}