{
  "contractName": "TradeModule",
  "abi": [
    {
      "inputs": [
        {
          "internalType": "contract IController",
          "name": "_controller",
          "type": "address"
        }
      ],
      "stateMutability": "nonpayable",
      "type": "constructor"
    },
    {
      "anonymous": false,
      "inputs": [
        {
          "indexed": true,
          "internalType": "contract ISetToken",
          "name": "_setToken",
          "type": "address"
        },
        {
          "indexed": true,
          "internalType": "address",
          "name": "_sendToken",
          "type": "address"
        },
        {
          "indexed": true,
          "internalType": "address",
          "name": "_receiveToken",
          "type": "address"
        },
        {
          "indexed": false,
          "internalType": "contract IExchangeAdapter",
          "name": "_exchangeAdapter",
          "type": "address"
        },
        {
          "indexed": false,
          "internalType": "uint256",
          "name": "_totalSendAmount",
          "type": "uint256"
        },
        {
          "indexed": false,
          "internalType": "uint256",
          "name": "_totalReceiveAmount",
          "type": "uint256"
        },
        {
          "indexed": false,
          "internalType": "uint256",
          "name": "_protocolFee",
          "type": "uint256"
        }
      ],
      "name": "ComponentExchanged",
      "type": "event"
    },
    {
      "inputs": [],
      "name": "controller",
      "outputs": [
        {
          "internalType": "contract IController",
          "name": "",
          "type": "address"
        }
      ],
      "stateMutability": "view",
      "type": "function"
    },
    {
      "inputs": [
        {
          "internalType": "contract ISetToken",
          "name": "_setToken",
          "type": "address"
        }
      ],
      "name": "initialize",
      "outputs": [],
      "stateMutability": "nonpayable",
      "type": "function"
    },
    {
      "inputs": [
        {
          "internalType": "contract ISetToken",
          "name": "_setToken",
          "type": "address"
        },
        {
          "internalType": "string",
          "name": "_exchangeName",
          "type": "string"
        },
        {
          "internalType": "address",
          "name": "_sendToken",
          "type": "address"
        },
        {
          "internalType": "uint256",
          "name": "_sendQuantity",
          "type": "uint256"
        },
        {
          "internalType": "address",
          "name": "_receiveToken",
          "type": "address"
        },
        {
          "internalType": "uint256",
          "name": "_minReceiveQuantity",
          "type": "uint256"
        },
        {
          "internalType": "bytes",
          "name": "_data",
          "type": "bytes"
        }
      ],
      "name": "trade",
      "outputs": [],
      "stateMutability": "nonpayable",
      "type": "function"
    },
    {
      "inputs": [],
      "name": "removeModule",
      "outputs": [],
      "stateMutability": "nonpayable",
      "type": "function"
    }
  ],
  "bytecode": "0x60806040523480156200001157600080fd5b50604051620030523803806200305283398181016040528101906200003791906200009e565b80806000806101000a81548173ffffffffffffffffffffffffffffffffffffffff021916908373ffffffffffffffffffffffffffffffffffffffff1602179055505060018081905550506200012c565b600081519050620000988162000112565b92915050565b600060208284031215620000b157600080fd5b6000620000c18482850162000087565b91505092915050565b6000620000d782620000f2565b9050919050565b6000620000eb82620000ca565b9050919050565b600073ffffffffffffffffffffffffffffffffffffffff82169050919050565b6200011d81620000de565b81146200012957600080fd5b50565b612f16806200013c6000396000f3fe608060405234801561001057600080fd5b506004361061004c5760003560e01c80630a5cb52914610051578063847ef08d1461006d578063c4d66de814610077578063f77c479114610093575b600080fd5b61006b600480360381019061006691906122bd565b6100b1565b005b610075610284565b005b610091600480360381019061008c9190612294565b610286565b005b61009b610469565b6040516100a89190612a30565b60405180910390f35b600260015414156100f7576040517f08c379a00000000000000000000000000000000000000000000000000000000081526004016100ee90612c12565b60405180910390fd5b60026001819055508661010a813361048e565b610149576040517f08c379a000000000000000000000000000000000000000000000000000000000815260040161014090612bf2565b60405180910390fd5b61015281610544565b610191576040517f08c379a000000000000000000000000000000000000000000000000000000000815260040161018890612ad2565b60405180910390fd5b610199611ea3565b6101a7898989888a89610688565b90506101b38187610968565b6101bd8184610a25565b60006101c882610c3a565b905060006101d68383610d37565b90506000806101e485610d64565b915091508873ffffffffffffffffffffffffffffffffffffffff168b73ffffffffffffffffffffffffffffffffffffffff168e73ffffffffffffffffffffffffffffffffffffffff167ff26ad8d17d1f980b62e857e137d0a000ce14bcf3b2aa54e1a0c7d57cf907e1a488602001518686896040516102669493929190612a4b565b60405180910390a45050505050506001808190555050505050505050565b565b806000809054906101000a900473ffffffffffffffffffffffffffffffffffffffff1673ffffffffffffffffffffffffffffffffffffffff166374ebe3ec826040518263ffffffff1660e01b81526004016102e191906128b6565b60206040518083038186803b1580156102f957600080fd5b505afa15801561030d573d6000803e3d6000fd5b505050506040513d601f19601f82011682018060405250810190610331919061222a565b610370576040517f08c379a000000000000000000000000000000000000000000000000000000000815260040161036790612bd2565b60405180910390fd5b61037981610e28565b6103b8576040517f08c379a00000000000000000000000000000000000000000000000000000000081526004016103af90612af2565b60405180910390fd5b81336103c4828261048e565b610403576040517f08c379a00000000000000000000000000000000000000000000000000000000081526004016103fa90612bf2565b60405180910390fd5b8373ffffffffffffffffffffffffffffffffffffffff16630ffe0f1e6040518163ffffffff1660e01b8152600401600060405180830381600087803b15801561044b57600080fd5b505af115801561045f573d6000803e3d6000fd5b5050505050505050565b6000809054906101000a900473ffffffffffffffffffffffffffffffffffffffff1681565b60008173ffffffffffffffffffffffffffffffffffffffff168373ffffffffffffffffffffffffffffffffffffffff1663481c6a756040518163ffffffff1660e01b815260040160206040518083038186803b1580156104ed57600080fd5b505afa158015610501573d6000803e3d6000fd5b505050506040513d601f19601f820116820180604052508101906105259190612159565b73ffffffffffffffffffffffffffffffffffffffff1614905092915050565b60008060009054906101000a900473ffffffffffffffffffffffffffffffffffffffff1673ffffffffffffffffffffffffffffffffffffffff166374ebe3ec836040518263ffffffff1660e01b81526004016105a091906128b6565b60206040518083038186803b1580156105b857600080fd5b505afa1580156105cc573d6000803e3d6000fd5b505050506040513d601f19601f820116820180604052508101906105f0919061222a565b801561068157508173ffffffffffffffffffffffffffffffffffffffff1663d7f1b27c306040518263ffffffff1660e01b815260040161063091906128b6565b60206040518083038186803b15801561064857600080fd5b505afa15801561065c573d6000803e3d6000fd5b505050506040513d601f19601f82011682018060405250810190610680919061222a565b5b9050919050565b610690611ea3565b610698611ea3565b87816000019073ffffffffffffffffffffffffffffffffffffffff16908173ffffffffffffffffffffffffffffffffffffffff16815250506106d987610eba565b816020019073ffffffffffffffffffffffffffffffffffffffff16908173ffffffffffffffffffffffffffffffffffffffff168152505085816040019073ffffffffffffffffffffffffffffffffffffffff16908173ffffffffffffffffffffffffffffffffffffffff168152505084816060019073ffffffffffffffffffffffffffffffffffffffff16908173ffffffffffffffffffffffffffffffffffffffff16815250508773ffffffffffffffffffffffffffffffffffffffff166318160ddd6040518163ffffffff1660e01b815260040160206040518083038186803b1580156107c657600080fd5b505afa1580156107da573d6000803e3d6000fd5b505050506040513d601f19601f820116820180604052508101906107fe91906123b4565b816080018181525050610815816080015185610ed9565b8160a001818152505061082c816080015184610ed9565b8160c00181815250508573ffffffffffffffffffffffffffffffffffffffff166370a08231896040518263ffffffff1660e01b815260040161086e91906128b6565b60206040518083038186803b15801561088657600080fd5b505afa15801561089a573d6000803e3d6000fd5b505050506040513d601f19601f820116820180604052508101906108be91906123b4565b8160e00181815250508473ffffffffffffffffffffffffffffffffffffffff166370a08231896040518263ffffffff1660e01b815260040161090091906128b6565b60206040518083038186803b15801561091857600080fd5b505afa15801561092c573d6000803e3d6000fd5b505050506040513d601f19601f8201168201806040525081019061095091906123b4565b81610100018181525050809150509695505050505050565b60008260a00151116109af576040517f08c379a00000000000000000000000000000000000000000000000000000000081526004016109a690612c32565b60405180910390fd5b6109e2826040015182846000015173ffffffffffffffffffffffffffffffffffffffff16610ef69092919063ffffffff16565b610a21576040517f08c379a0000000000000000000000000000000000000000000000000000000008152600401610a1890612b92565b60405180910390fd5b5050565b610adf8260400151836020015173ffffffffffffffffffffffffffffffffffffffff1663334fc2896040518163ffffffff1660e01b815260040160206040518083038186803b158015610a7757600080fd5b505afa158015610a8b573d6000803e3d6000fd5b505050506040513d601f19601f82011682018060405250810190610aaf9190612159565b8460a00151856000015173ffffffffffffffffffffffffffffffffffffffff16610f95909392919063ffffffff16565b6000806060846020015173ffffffffffffffffffffffffffffffffffffffff1663e171fcab8660400151876060015188600001518960a001518a60c001518a6040518763ffffffff1660e01b8152600401610b3f969594939291906128d1565b60006040518083038186803b158015610b5757600080fd5b505afa158015610b6b573d6000803e3d6000fd5b505050506040513d6000823e3d601f19601f82011682018060405250810190610b949190612182565b925092509250846000015173ffffffffffffffffffffffffffffffffffffffff16638f6f03328484846040518463ffffffff1660e01b8152600401610bdb939291906129f2565b600060405180830381600087803b158015610bf557600080fd5b505af1158015610c09573d6000803e3d6000fd5b505050506040513d6000823e3d601f19601f82011682018060405250810190610c329190612253565b505050505050565b600080610ce5836101000151846060015173ffffffffffffffffffffffffffffffffffffffff166370a0823186600001516040518263ffffffff1660e01b8152600401610c8791906128b6565b60206040518083038186803b158015610c9f57600080fd5b505afa158015610cb3573d6000803e3d6000fd5b505050506040513d601f19601f82011682018060405250810190610cd791906123b4565b6110c690919063ffffffff16565b90508260c00151811015610d2e576040517f08c379a0000000000000000000000000000000000000000000000000000000008152600401610d2590612ab2565b60405180910390fd5b80915050919050565b600080610d45600084611110565b9050610d5a84600001518560600151836111dd565b8091505092915050565b6000806000610da6846040015185608001518660e00151876000015173ffffffffffffffffffffffffffffffffffffffff166112b7909392919063ffffffff16565b505090506000610dea85606001518660800151876101000151886000015173ffffffffffffffffffffffffffffffffffffffff166112b7909392919063ffffffff16565b50509050610e05828660e001516110c690919063ffffffff16565b610e1d866101000151836110c690919063ffffffff16565b935093505050915091565b60008173ffffffffffffffffffffffffffffffffffffffff166353bae5f7306040518263ffffffff1660e01b8152600401610e6391906128b6565b60206040518083038186803b158015610e7b57600080fd5b505afa158015610e8f573d6000803e3d6000fd5b505050506040513d601f19601f82011682018060405250810190610eb3919061222a565b9050919050565b600080610ec683611420565b9050610ed181611431565b915050919050565b6000610eee828461157990919063ffffffff16565b905092915050565b6000610f01826115b0565b8473ffffffffffffffffffffffffffffffffffffffff166366cb8d2f856040518263ffffffff1660e01b8152600401610f3a91906128b6565b60206040518083038186803b158015610f5257600080fd5b505afa158015610f66573d6000803e3d6000fd5b505050506040513d601f19601f82011682018060405250810190610f8a919061238b565b121590509392505050565b60608282604051602401610faa9291906129c9565b6040516020818303038152906040527f095ea7b3000000000000000000000000000000000000000000000000000000007bffffffffffffffffffffffffffffffffffffffffffffffffffffffff19166020820180517bffffffffffffffffffffffffffffffffffffffffffffffffffffffff838183161783525050505090508473ffffffffffffffffffffffffffffffffffffffff16638f6f0332856000846040518463ffffffff1660e01b81526004016110679392919061298b565b600060405180830381600087803b15801561108157600080fd5b505af1158015611095573d6000803e3d6000fd5b505050506040513d6000823e3d601f19601f820116820180604052508101906110be9190612253565b505050505050565b600061110883836040518060400160405280601e81526020017f536166654d6174683a207375627472616374696f6e206f766572666c6f77000081525061161c565b905092915050565b6000806000809054906101000a900473ffffffffffffffffffffffffffffffffffffffff1673ffffffffffffffffffffffffffffffffffffffff1663792aa04f30866040518363ffffffff1660e01b815260040161116f9291906129c9565b60206040518083038186803b15801561118757600080fd5b505afa15801561119b573d6000803e3d6000fd5b505050506040513d601f19601f820116820180604052508101906111bf91906123b4565b90506111d4818461157990919063ffffffff16565b91505092915050565b60008111156112b2576112b1826000809054906101000a900473ffffffffffffffffffffffffffffffffffffffff1673ffffffffffffffffffffffffffffffffffffffff1663469048406040518163ffffffff1660e01b815260040160206040518083038186803b15801561125157600080fd5b505afa158015611265573d6000803e3d6000fd5b505050506040513d601f19601f820116820180604052508101906112899190612159565b838673ffffffffffffffffffffffffffffffffffffffff16611677909392919063ffffffff16565b5b505050565b6000806000808673ffffffffffffffffffffffffffffffffffffffff166370a08231896040518263ffffffff1660e01b81526004016112f691906128b6565b60206040518083038186803b15801561130e57600080fd5b505afa158015611322573d6000803e3d6000fd5b505050506040513d601f19601f8201168201806040525081019061134691906123b4565b905060006113db8973ffffffffffffffffffffffffffffffffffffffff166366cb8d2f8a6040518263ffffffff1660e01b815260040161138691906128b6565b60206040518083038186803b15801561139e57600080fd5b505afa1580156113b2573d6000803e3d6000fd5b505050506040513d601f19601f820116820180604052508101906113d6919061238b565b611803565b90506000808311156113fa576113f388888585611850565b90506113ff565b600090505b61140a8a8a836118aa565b8282829550955095505050509450945094915050565b600081805190602001209050919050565b6000806114746000809054906101000a900473ffffffffffffffffffffffffffffffffffffffff1673ffffffffffffffffffffffffffffffffffffffff16611a53565b73ffffffffffffffffffffffffffffffffffffffff1663e6d642c530856040518363ffffffff1660e01b81526004016114ae929190612939565b60206040518083038186803b1580156114c657600080fd5b505afa1580156114da573d6000803e3d6000fd5b505050506040513d601f19601f820116820180604052508101906114fe9190612159565b9050600073ffffffffffffffffffffffffffffffffffffffff168173ffffffffffffffffffffffffffffffffffffffff161415611570576040517f08c379a000000000000000000000000000000000000000000000000000000000815260040161156790612b12565b60405180910390fd5b80915050919050565b60006115a8670de0b6b3a764000061159a8486611ae690919063ffffffff16565b611b5690919063ffffffff16565b905092915050565b60007f80000000000000000000000000000000000000000000000000000000000000008210611614576040517f08c379a000000000000000000000000000000000000000000000000000000000815260040161160b90612bb2565b60405180910390fd5b819050919050565b6000838311158290611664576040517f08c379a000000000000000000000000000000000000000000000000000000000815260040161165b9190612a90565b60405180910390fd5b5060008385039050809150509392505050565b60008111156117fd5760008373ffffffffffffffffffffffffffffffffffffffff166370a08231866040518263ffffffff1660e01b81526004016116bb91906128b6565b60206040518083038186803b1580156116d357600080fd5b505afa1580156116e7573d6000803e3d6000fd5b505050506040513d601f19601f8201168201806040525081019061170b91906123b4565b905061171985858585611ba0565b60008473ffffffffffffffffffffffffffffffffffffffff166370a08231876040518263ffffffff1660e01b815260040161175491906128b6565b60206040518083038186803b15801561176c57600080fd5b505afa158015611780573d6000803e3d6000fd5b505050506040513d601f19601f820116820180604052508101906117a491906123b4565b90506117b983836110c690919063ffffffff16565b81146117fa576040517f08c379a00000000000000000000000000000000000000000000000000000000081526004016117f190612b72565b60405180910390fd5b50505b50505050565b600080821215611848576040517f08c379a000000000000000000000000000000000000000000000000000000000815260040161183f90612b32565b60405180910390fd5b819050919050565b600080611878611869878561157990919063ffffffff16565b866110c690919063ffffffff16565b905061189f8661189183876110c690919063ffffffff16565b611cdb90919063ffffffff16565b915050949350505050565b60006118b68484611d12565b9050801580156118c65750600082115b1561194a576118d58484611da7565b611945578373ffffffffffffffffffffffffffffffffffffffff16634e353270846040518263ffffffff1660e01b815260040161191291906128b6565b600060405180830381600087803b15801561192c57600080fd5b505af1158015611940573d6000803e3d6000fd5b505050505b6119d8565b8080156119575750600082145b156119d7576119668484611da7565b6119d6578373ffffffffffffffffffffffffffffffffffffffff16636f86c897846040518263ffffffff1660e01b81526004016119a391906128b6565b600060405180830381600087803b1580156119bd57600080fd5b505af11580156119d1573d6000803e3d6000fd5b505050505b5b5b8373ffffffffffffffffffffffffffffffffffffffff16632ba57d17846119fe856115b0565b6040518363ffffffff1660e01b8152600401611a1b929190612962565b600060405180830381600087803b158015611a3557600080fd5b505af1158015611a49573d6000803e3d6000fd5b5050505050505050565b60008173ffffffffffffffffffffffffffffffffffffffff1663e765ced660006040518263ffffffff1660e01b8152600401611a8f9190612c52565b60206040518083038186803b158015611aa757600080fd5b505afa158015611abb573d6000803e3d6000fd5b505050506040513d601f19601f82011682018060405250810190611adf9190612159565b9050919050565b600080831415611af95760009050611b50565b6000828402905082848281611b0a57fe5b0414611b4b576040517f08c379a0000000000000000000000000000000000000000000000000000000008152600401611b4290612b52565b60405180910390fd5b809150505b92915050565b6000611b9883836040518060400160405280601a81526020017f536166654d6174683a206469766973696f6e206279207a65726f000000000000815250611e42565b905092915050565b6000811115611cd55760608282604051602401611bbe9291906129c9565b6040516020818303038152906040527fa9059cbb000000000000000000000000000000000000000000000000000000007bffffffffffffffffffffffffffffffffffffffffffffffffffffffff19166020820180517bffffffffffffffffffffffffffffffffffffffffffffffffffffffff838183161783525050505090508473ffffffffffffffffffffffffffffffffffffffff16638f6f0332856000846040518463ffffffff1660e01b8152600401611c7b9392919061298b565b600060405180830381600087803b158015611c9557600080fd5b505af1158015611ca9573d6000803e3d6000fd5b505050506040513d6000823e3d601f19601f82011682018060405250810190611cd29190612253565b50505b50505050565b6000611d0a82611cfc670de0b6b3a764000086611ae690919063ffffffff16565b611b5690919063ffffffff16565b905092915050565b6000808373ffffffffffffffffffffffffffffffffffffffff166366cb8d2f846040518263ffffffff1660e01b8152600401611d4e91906128b6565b60206040518083038186803b158015611d6657600080fd5b505afa158015611d7a573d6000803e3d6000fd5b505050506040513d601f19601f82011682018060405250810190611d9e919061238b565b13905092915050565b6000808373ffffffffffffffffffffffffffffffffffffffff1663a7bdad03846040518263ffffffff1660e01b8152600401611de391906128b6565b60006040518083038186803b158015611dfb57600080fd5b505afa158015611e0f573d6000803e3d6000fd5b505050506040513d6000823e3d601f19601f82011682018060405250810190611e3891906121e9565b5111905092915050565b60008083118290611e89576040517f08c379a0000000000000000000000000000000000000000000000000000000008152600401611e809190612a90565b60405180910390fd5b506000838581611e9557fe5b049050809150509392505050565b604051806101200160405280600073ffffffffffffffffffffffffffffffffffffffff168152602001600073ffffffffffffffffffffffffffffffffffffffff168152602001600073ffffffffffffffffffffffffffffffffffffffff168152602001600073ffffffffffffffffffffffffffffffffffffffff16815260200160008152602001600081526020016000815260200160008152602001600081525090565b600081359050611f5681612e6d565b92915050565b600081519050611f6b81612e6d565b92915050565b600082601f830112611f8257600080fd5b8151611f95611f9082612c9a565b612c6d565b91508181835260208401935060208101905083856020840282011115611fba57600080fd5b60005b83811015611fea5781611fd08882611f5c565b845260208401935060208301925050600181019050611fbd565b5050505092915050565b60008151905061200381612e84565b92915050565b600082601f83011261201a57600080fd5b813561202d61202882612cc2565b612c6d565b9150808252602083016020830185838301111561204957600080fd5b612054838284612e1a565b50505092915050565b600082601f83011261206e57600080fd5b815161208161207c82612cc2565b612c6d565b9150808252602083016020830185838301111561209d57600080fd5b6120a8838284612e29565b50505092915050565b6000813590506120c081612e9b565b92915050565b6000815190506120d581612eb2565b92915050565b600082601f8301126120ec57600080fd5b81356120ff6120fa82612cee565b612c6d565b9150808252602083016020830185838301111561211b57600080fd5b612126838284612e1a565b50505092915050565b60008135905061213e81612ec9565b92915050565b60008151905061215381612ec9565b92915050565b60006020828403121561216b57600080fd5b600061217984828501611f5c565b91505092915050565b60008060006060848603121561219757600080fd5b60006121a586828701611f5c565b93505060206121b686828701612144565b925050604084015167ffffffffffffffff8111156121d357600080fd5b6121df8682870161205d565b9150509250925092565b6000602082840312156121fb57600080fd5b600082015167ffffffffffffffff81111561221557600080fd5b61222184828501611f71565b91505092915050565b60006020828403121561223c57600080fd5b600061224a84828501611ff4565b91505092915050565b60006020828403121561226557600080fd5b600082015167ffffffffffffffff81111561227f57600080fd5b61228b8482850161205d565b91505092915050565b6000602082840312156122a657600080fd5b60006122b4848285016120b1565b91505092915050565b600080600080600080600060e0888a0312156122d857600080fd5b60006122e68a828b016120b1565b975050602088013567ffffffffffffffff81111561230357600080fd5b61230f8a828b016120db565b96505060406123208a828b01611f47565b95505060606123318a828b0161212f565b94505060806123428a828b01611f47565b93505060a06123538a828b0161212f565b92505060c088013567ffffffffffffffff81111561237057600080fd5b61237c8a828b01612009565b91505092959891949750929550565b60006020828403121561239d57600080fd5b60006123ab848285016120c6565b91505092915050565b6000602082840312156123c657600080fd5b60006123d484828501612144565b91505092915050565b6123e681612d52565b82525050565b6123f581612d70565b82525050565b600061240682612d1a565b6124108185612d30565b9350612420818560208601612e29565b61242981612e5c565b840191505092915050565b61243d81612dc0565b82525050565b61244c81612de4565b82525050565b61245b81612d8c565b82525050565b61246a81612e08565b82525050565b600061247b82612d25565b6124858185612d41565b9350612495818560208601612e29565b61249e81612e5c565b840191505092915050565b60006124b6601d83612d41565b91507f536c6970706167652067726561746572207468616e20616c6c6f7765640000006000830152602082019050919050565b60006124f6602883612d41565b91507f4d75737420626520612076616c696420616e6420696e697469616c697a65642060008301527f536574546f6b656e0000000000000000000000000000000000000000000000006020830152604082019050919050565b600061255c601e83612d41565b91507f4d7573742062652070656e64696e6720696e697469616c697a6174696f6e00006000830152602082019050919050565b600061259c601583612d41565b91507f4d7573742062652076616c6964206164617074657200000000000000000000006000830152602082019050919050565b60006125dc602083612d41565b91507f53616665436173743a2076616c7565206d75737420626520706f7369746976656000830152602082019050919050565b600061261c602183612d41565b91507f536166654d6174683a206d756c7469706c69636174696f6e206f766572666c6f60008301527f77000000000000000000000000000000000000000000000000000000000000006020830152604082019050919050565b6000612682601d83612d41565b91507f496e76616c696420706f7374207472616e736665722062616c616e63650000006000830152602082019050919050565b60006126c2602283612d41565b91507f556e69742063616e742062652067726561746572207468616e2065786973746960008301527f6e670000000000000000000000000000000000000000000000000000000000006020830152604082019050919050565b6000612728602883612d41565b91507f53616665436173743a2076616c756520646f65736e27742066697420696e206160008301527f6e20696e743235360000000000000000000000000000000000000000000000006020830152604082019050919050565b600061278e602383612d41565b91507f4d75737420626520636f6e74726f6c6c65722d656e61626c656420536574546f60008301527f6b656e00000000000000000000000000000000000000000000000000000000006020830152604082019050919050565b60006127f4601c83612d41565b91507f4d7573742062652074686520536574546f6b656e206d616e61676572000000006000830152602082019050919050565b6000612834601f83612d41565b91507f5265656e7472616e637947756172643a207265656e7472616e742063616c6c006000830152602082019050919050565b6000612874601d83612d41565b91507f546f6b656e20746f2073656c6c206d757374206265206e6f6e7a65726f0000006000830152602082019050919050565b6128b081612db6565b82525050565b60006020820190506128cb60008301846123dd565b92915050565b600060c0820190506128e660008301896123dd565b6128f360208301886123dd565b61290060408301876123dd565b61290d60608301866128a7565b61291a60808301856128a7565b81810360a083015261292c81846123fb565b9050979650505050505050565b600060408201905061294e60008301856123dd565b61295b60208301846123ec565b9392505050565b600060408201905061297760008301856123dd565b6129846020830184612452565b9392505050565b60006060820190506129a060008301866123dd565b6129ad6020830185612461565b81810360408301526129bf81846123fb565b9050949350505050565b60006040820190506129de60008301856123dd565b6129eb60208301846128a7565b9392505050565b6000606082019050612a0760008301866123dd565b612a1460208301856128a7565b8181036040830152612a2681846123fb565b9050949350505050565b6000602082019050612a456000830184612434565b92915050565b6000608082019050612a606000830187612443565b612a6d60208301866128a7565b612a7a60408301856128a7565b612a8760608301846128a7565b95945050505050565b60006020820190508181036000830152612aaa8184612470565b905092915050565b60006020820190508181036000830152612acb816124a9565b9050919050565b60006020820190508181036000830152612aeb816124e9565b9050919050565b60006020820190508181036000830152612b0b8161254f565b9050919050565b60006020820190508181036000830152612b2b8161258f565b9050919050565b60006020820190508181036000830152612b4b816125cf565b9050919050565b60006020820190508181036000830152612b6b8161260f565b9050919050565b60006020820190508181036000830152612b8b81612675565b9050919050565b60006020820190508181036000830152612bab816126b5565b9050919050565b60006020820190508181036000830152612bcb8161271b565b9050919050565b60006020820190508181036000830152612beb81612781565b9050919050565b60006020820190508181036000830152612c0b816127e7565b9050919050565b60006020820190508181036000830152612c2b81612827565b9050919050565b60006020820190508181036000830152612c4b81612867565b9050919050565b6000602082019050612c6760008301846128a7565b92915050565b6000604051905081810181811067ffffffffffffffff82111715612c9057600080fd5b8060405250919050565b600067ffffffffffffffff821115612cb157600080fd5b602082029050602081019050919050565b600067ffffffffffffffff821115612cd957600080fd5b601f19601f8301169050602081019050919050565b600067ffffffffffffffff821115612d0557600080fd5b601f19601f8301169050602081019050919050565b600081519050919050565b600081519050919050565b600082825260208201905092915050565b600082825260208201905092915050565b6000612d5d82612d96565b9050919050565b60008115159050919050565b6000819050919050565b6000612d8582612d52565b9050919050565b6000819050919050565b600073ffffffffffffffffffffffffffffffffffffffff82169050919050565b6000819050919050565b6000612dcb82612dd2565b9050919050565b6000612ddd82612d96565b9050919050565b6000612def82612df6565b9050919050565b6000612e0182612d96565b9050919050565b6000612e1382612db6565b9050919050565b82818337600083830152505050565b60005b83811015612e47578082015181840152602081019050612e2c565b83811115612e56576000848401525b50505050565b6000601f19601f8301169050919050565b612e7681612d52565b8114612e8157600080fd5b50565b612e8d81612d64565b8114612e9857600080fd5b50565b612ea481612d7a565b8114612eaf57600080fd5b50565b612ebb81612d8c565b8114612ec657600080fd5b50565b612ed281612db6565b8114612edd57600080fd5b5056fea2646970667358221220f421c6f05b0347c6bcc8a69c15c518819531d23835215cf1c9a864554261ff3364736f6c634300060a0033",
  "immutableReferences": {},
  "source": "/*\n    Copyright 2020 Set Labs Inc.\n\n    Licensed under the Apache License, Version 2.0 (the \"License\");\n    you may not use this file except in compliance with the License.\n    You may obtain a copy of the License at\n\n    http://www.apache.org/licenses/LICENSE-2.0\n\n    Unless required by applicable law or agreed to in writing, software\n    distributed under the License is distributed on an \"AS IS\" BASIS,\n    WITHOUT WARRANTIES OR CONDITIONS OF ANY KIND, either express or implied.\n    See the License for the specific language governing permissions and\n    limitations under the License.\n\n    SPDX-License-Identifier: Apache License, Version 2.0\n*/\n\npragma solidity ^0.6.10;\npragma experimental \"ABIEncoderV2\";\n\nimport { ReentrancyGuard } from \"@openzeppelin/contracts/utils/ReentrancyGuard.sol\";\nimport { SafeMath } from \"@openzeppelin/contracts/math/SafeMath.sol\";\nimport { SafeCast } from \"@openzeppelin/contracts/utils/SafeCast.sol\";\n\nimport { IController } from \"../../interfaces/IController.sol\";\nimport { IERC20 } from \"@openzeppelin/contracts/token/ERC20/IERC20.sol\";\nimport { IExchangeAdapter } from \"../../interfaces/IExchangeAdapter.sol\";\nimport { IIntegrationRegistry } from \"../../interfaces/IIntegrationRegistry.sol\";\nimport { Invoke } from \"../lib/Invoke.sol\";\nimport { ISetToken } from \"../../interfaces/ISetToken.sol\";\nimport { ModuleBase } from \"../lib/ModuleBase.sol\";\nimport { Position } from \"../lib/Position.sol\";\nimport { PreciseUnitMath } from \"../../lib/PreciseUnitMath.sol\";\n\n/**\n * @title TradeModule\n * @author Set Protocol\n *\n * Module that enables SetTokens to perform atomic trades using Decentralized Exchanges\n * such as 1inch or Kyber. Integrations mappings are stored on the IntegrationRegistry contract.\n */\ncontract TradeModule is ModuleBase, ReentrancyGuard {\n    using SafeCast for int256;\n    using SafeMath for uint256;\n\n    using Invoke for ISetToken;\n    using Position for ISetToken;\n    using PreciseUnitMath for uint256;\n\n    /* ============ Struct ============ */\n\n    struct TradeInfo {\n        ISetToken setToken;                             // Instance of SetToken\n        IExchangeAdapter exchangeAdapter;               // Instance of exchange adapter contract\n        address sendToken;                              // Address of token being sold\n        address receiveToken;                           // Address of token being bought\n        uint256 setTotalSupply;                         // Total supply of SetToken in Precise Units (10^18)\n        uint256 totalSendQuantity;                      // Total quantity of sold token (position unit x total supply)\n        uint256 totalMinReceiveQuantity;                // Total minimum quantity of token to receive back\n        uint256 preTradeSendTokenBalance;               // Total initial balance of token being sold\n        uint256 preTradeReceiveTokenBalance;            // Total initial balance of token being bought\n    }\n\n    /* ============ Events ============ */\n\n    event ComponentExchanged(\n        ISetToken indexed _setToken,\n        address indexed _sendToken,\n        address indexed _receiveToken,\n        IExchangeAdapter _exchangeAdapter,\n        uint256 _totalSendAmount,\n        uint256 _totalReceiveAmount,\n        uint256 _protocolFee\n    );\n\n    /* ============ Constants ============ */\n\n    // 0 index stores the fee % charged in the trade function\n    uint256 constant internal TRADE_MODULE_PROTOCOL_FEE_INDEX = 0;\n\n    /* ============ Constructor ============ */\n\n    constructor(IController _controller) public ModuleBase(_controller) {}\n\n    /* ============ External Functions ============ */\n\n    /**\n     * Initializes this module to the SetToken. Only callable by the SetToken's manager.\n     *\n     * @param _setToken                 Instance of the SetToken to initialize\n     */\n    function initialize(\n        ISetToken _setToken\n    )\n        external\n        onlyValidAndPendingSet(_setToken)\n        onlySetManager(_setToken, msg.sender)\n    {\n        _setToken.initializeModule();\n    }\n\n    /**\n     * Executes a trade on a supported DEX. Only callable by the SetToken's manager.\n     * @dev Although the SetToken units are passed in for the send and receive quantities, the total quantity\n     * sent and received is the quantity of SetToken units multiplied by the SetToken totalSupply.\n     *\n     * @param _setToken             Instance of the SetToken to trade\n     * @param _exchangeName         Human readable name of the exchange in the integrations registry\n     * @param _sendToken            Address of the token to be sent to the exchange\n     * @param _sendQuantity         Units of token in SetToken sent to the exchange\n     * @param _receiveToken         Address of the token that will be received from the exchange\n     * @param _minReceiveQuantity   Min units of token in SetToken to be received from the exchange\n     * @param _data                 Arbitrary bytes to be used to construct trade call data\n     */\n    function trade(\n        ISetToken _setToken,\n        string memory _exchangeName,\n        address _sendToken,\n        uint256 _sendQuantity,\n        address _receiveToken,\n        uint256 _minReceiveQuantity,\n        bytes memory _data\n    )\n        external\n        nonReentrant\n        onlyManagerAndValidSet(_setToken)\n    {\n        TradeInfo memory tradeInfo = _createTradeInfo(\n            _setToken,\n            _exchangeName,\n            _sendToken,\n            _receiveToken,\n            _sendQuantity,\n            _minReceiveQuantity\n        );\n\n        _validatePreTradeData(tradeInfo, _sendQuantity);\n\n        _executeTrade(tradeInfo, _data);\n\n        uint256 exchangedQuantity = _validatePostTrade(tradeInfo);\n\n        uint256 protocolFee = _accrueProtocolFee(tradeInfo, exchangedQuantity);\n\n        (\n            uint256 netSendAmount,\n            uint256 netReceiveAmount\n        ) = _updateSetTokenPositions(tradeInfo);\n\n        emit ComponentExchanged(\n            _setToken,\n            _sendToken,\n            _receiveToken,\n            tradeInfo.exchangeAdapter,\n            netSendAmount,\n            netReceiveAmount,\n            protocolFee\n        );\n    }\n\n    /**\n     * Removes this module from the SetToken, via call by the SetToken. Left with empty logic\n     * here because there are no check needed to verify removal.\n     */\n    function removeModule() external override {}\n\n    /* ============ Internal Functions ============ */\n\n    /**\n     * Create and return TradeInfo struct\n     *\n     * @param _setToken             Instance of the SetToken to trade\n     * @param _exchangeName         Human readable name of the exchange in the integrations registry\n     * @param _sendToken            Address of the token to be sent to the exchange\n     * @param _receiveToken         Address of the token that will be received from the exchange\n     * @param _sendQuantity         Units of token in SetToken sent to the exchange\n     * @param _minReceiveQuantity   Min units of token in SetToken to be received from the exchange\n     *\n     * return TradeInfo             Struct containing data for trade\n     */\n    function _createTradeInfo(\n        ISetToken _setToken,\n        string memory _exchangeName,\n        address _sendToken,\n        address _receiveToken,\n        uint256 _sendQuantity,\n        uint256 _minReceiveQuantity\n    )\n        internal\n        view\n        returns (TradeInfo memory)\n    {\n        TradeInfo memory tradeInfo;\n\n        tradeInfo.setToken = _setToken;\n\n        tradeInfo.exchangeAdapter = IExchangeAdapter(getAndValidateAdapter(_exchangeName));\n\n        tradeInfo.sendToken = _sendToken;\n        tradeInfo.receiveToken = _receiveToken;\n\n        tradeInfo.setTotalSupply = _setToken.totalSupply();\n\n        tradeInfo.totalSendQuantity = Position.getDefaultTotalNotional(tradeInfo.setTotalSupply, _sendQuantity);\n\n        tradeInfo.totalMinReceiveQuantity = Position.getDefaultTotalNotional(tradeInfo.setTotalSupply, _minReceiveQuantity);\n\n        tradeInfo.preTradeSendTokenBalance = IERC20(_sendToken).balanceOf(address(_setToken));\n        tradeInfo.preTradeReceiveTokenBalance = IERC20(_receiveToken).balanceOf(address(_setToken));\n\n        return tradeInfo;\n    }\n\n    /**\n     * Validate pre trade data. Check exchange is valid, token quantity is valid.\n     *\n     * @param _tradeInfo            Struct containing trade information used in internal functions\n     * @param _sendQuantity         Units of token in SetToken sent to the exchange\n     */\n    function _validatePreTradeData(TradeInfo memory _tradeInfo, uint256 _sendQuantity) internal view {\n        require(_tradeInfo.totalSendQuantity > 0, \"Token to sell must be nonzero\");\n\n        require(\n            _tradeInfo.setToken.hasSufficientDefaultUnits(_tradeInfo.sendToken, _sendQuantity),\n            \"Unit cant be greater than existing\"\n        );\n    }\n\n    /**\n     * Invoke approve for send token, get method data and invoke trade in the context of the SetToken.\n     *\n     * @param _tradeInfo            Struct containing trade information used in internal functions\n     * @param _data                 Arbitrary bytes to be used to construct trade call data\n     */\n    function _executeTrade(\n        TradeInfo memory _tradeInfo,\n        bytes memory _data\n    )\n        internal\n    {\n        // Get spender address from exchange adapter and invoke approve for exact amount on SetToken\n        _tradeInfo.setToken.invokeApprove(\n            _tradeInfo.sendToken,\n            _tradeInfo.exchangeAdapter.getSpender(),\n            _tradeInfo.totalSendQuantity\n        );\n\n        (\n            address targetExchange,\n            uint256 callValue,\n            bytes memory methodData\n        ) = _tradeInfo.exchangeAdapter.getTradeCalldata(\n            _tradeInfo.sendToken,\n            _tradeInfo.receiveToken,\n            address(_tradeInfo.setToken),\n            _tradeInfo.totalSendQuantity,\n            _tradeInfo.totalMinReceiveQuantity,\n            _data\n        );\n\n        _tradeInfo.setToken.invoke(targetExchange, callValue, methodData);\n    }\n\n    /**\n     * Validate post trade data.\n     *\n     * @param _tradeInfo                Struct containing trade information used in internal functions\n     * @return uint256                  Total quantity of receive token that was exchanged\n     */\n    function _validatePostTrade(TradeInfo memory _tradeInfo) internal view returns (uint256) {\n        uint256 exchangedQuantity = IERC20(_tradeInfo.receiveToken)\n            .balanceOf(address(_tradeInfo.setToken))\n            .sub(_tradeInfo.preTradeReceiveTokenBalance);\n\n        require(\n            exchangedQuantity >= _tradeInfo.totalMinReceiveQuantity,\n            \"Slippage greater than allowed\"\n        );\n\n        return exchangedQuantity;\n    }\n\n    /**\n     * Retrieve fee from controller and calculate total protocol fee and send from SetToken to protocol recipient\n     *\n     * @param _tradeInfo                Struct containing trade information used in internal functions\n     * @return uint256                  Amount of receive token taken as protocol fee\n     */\n    function _accrueProtocolFee(TradeInfo memory _tradeInfo, uint256 _exchangedQuantity) internal returns (uint256) {\n        uint256 protocolFeeTotal = getModuleFee(TRADE_MODULE_PROTOCOL_FEE_INDEX, _exchangedQuantity);\n        \n        payProtocolFeeFromSetToken(_tradeInfo.setToken, _tradeInfo.receiveToken, protocolFeeTotal);\n        \n        return protocolFeeTotal;\n    }\n\n    /**\n     * Update SetToken positions\n     *\n     * @param _tradeInfo                Struct containing trade information used in internal functions\n     * @return uint256                  Amount of sendTokens used in the trade\n     * @return uint256                  Amount of receiveTokens received in the trade (net of fees)\n     */\n    function _updateSetTokenPositions(TradeInfo memory _tradeInfo) internal returns (uint256, uint256) {\n        (uint256 currentSendTokenBalance,,) = _tradeInfo.setToken.calculateAndEditDefaultPosition(\n            _tradeInfo.sendToken,\n            _tradeInfo.setTotalSupply,\n            _tradeInfo.preTradeSendTokenBalance\n        );\n\n        (uint256 currentReceiveTokenBalance,,) = _tradeInfo.setToken.calculateAndEditDefaultPosition(\n            _tradeInfo.receiveToken,\n            _tradeInfo.setTotalSupply,\n            _tradeInfo.preTradeReceiveTokenBalance\n        );\n\n        return (\n            _tradeInfo.preTradeSendTokenBalance.sub(currentSendTokenBalance),\n            currentReceiveTokenBalance.sub(_tradeInfo.preTradeReceiveTokenBalance)\n        );\n    }\n}",
  "sourcePath": "/Users/tahadhailey/Documents/top5/top5swap/swap/contracts/protocol/modules/TradeModule.sol",
  "compiler": {
    "name": "solc",
    "version": "0.6.10+commit.00c0fcaf.Emscripten.clang"
  },
  "schemaVersion": "3.2.1",
  "updatedAt": "2021-01-21T08:20:37.824Z",
  "devdoc": {
    "author": "Set Protocol Module that enables SetTokens to perform atomic trades using Decentralized Exchanges such as 1inch or Kyber. Integrations mappings are stored on the IntegrationRegistry contract.",
    "methods": {
      "initialize(address)": {
        "params": {
          "_setToken": "Instance of the SetToken to initialize"
        }
      },
      "trade(address,string,address,uint256,address,uint256,bytes)": {
        "details": "Although the SetToken units are passed in for the send and receive quantities, the total quantity sent and received is the quantity of SetToken units multiplied by the SetToken totalSupply.",
        "params": {
          "_data": "Arbitrary bytes to be used to construct trade call data",
          "_exchangeName": "Human readable name of the exchange in the integrations registry",
          "_minReceiveQuantity": "Min units of token in SetToken to be received from the exchange",
          "_receiveToken": "Address of the token that will be received from the exchange",
          "_sendQuantity": "Units of token in SetToken sent to the exchange",
          "_sendToken": "Address of the token to be sent to the exchange",
          "_setToken": "Instance of the SetToken to trade"
        }
      }
    },
    "title": "TradeModule"
  },
  "userdoc": {
    "methods": {
      "initialize(address)": {
        "notice": "Initializes this module to the SetToken. Only callable by the SetToken's manager."
      },
      "removeModule()": {
        "notice": "Removes this module from the SetToken, via call by the SetToken. Left with empty logic here because there are no check needed to verify removal."
      },
      "trade(address,string,address,uint256,address,uint256,bytes)": {
        "notice": "Executes a trade on a supported DEX. Only callable by the SetToken's manager."
      }
    }
  }
}