{
  "contractName": "Uint256ArrayUtilsMock",
  "abi": [
    {
      "inputs": [
        {
          "internalType": "uint256[]",
          "name": "A",
          "type": "uint256[]"
        },
        {
          "internalType": "uint256[]",
          "name": "B",
          "type": "uint256[]"
        }
      ],
      "name": "testExtend",
      "outputs": [
        {
          "internalType": "uint256[]",
          "name": "",
          "type": "uint256[]"
        }
      ],
      "stateMutability": "pure",
      "type": "function"
    }
  ],
  "bytecode": "0x608060405234801561001057600080fd5b50610406806100206000396000f3fe608060405234801561001057600080fd5b506004361061002b5760003560e01c80636449bc0114610030575b600080fd5b61004a6004803603810190610045919061020e565b610060565b60405161005791906102ff565b60405180910390f35b6060610075828461007d90919063ffffffff16565b905092915050565b6060600083519050600083519050606081830167ffffffffffffffff811180156100a657600080fd5b506040519080825280602002602001820160405280156100d55781602001602082028036833780820191505090505b50905060008090505b8381101561011f578681815181106100f257fe5b602002602001015182828151811061010657fe5b60200260200101818152505080806001019150506100de565b5060008090505b828110156101695785818151811061013a57fe5b6020026020010151828286018151811061015057fe5b6020026020010181815250508080600101915050610126565b5080935050505092915050565b600082601f83011261018757600080fd5b813561019a6101958261034e565b610321565b915081818352602084019350602081019050838560208402820111156101bf57600080fd5b60005b838110156101ef57816101d588826101f9565b8452602084019350602083019250506001810190506101c2565b5050505092915050565b600081359050610208816103b9565b92915050565b6000806040838503121561022157600080fd5b600083013567ffffffffffffffff81111561023b57600080fd5b61024785828601610176565b925050602083013567ffffffffffffffff81111561026457600080fd5b61027085828601610176565b9150509250929050565b600061028683836102f0565b60208301905092915050565b600061029d82610386565b6102a7818561039e565b93506102b283610376565b8060005b838110156102e35781516102ca888261027a565b97506102d583610391565b9250506001810190506102b6565b5085935050505092915050565b6102f9816103af565b82525050565b600060208201905081810360008301526103198184610292565b905092915050565b6000604051905081810181811067ffffffffffffffff8211171561034457600080fd5b8060405250919050565b600067ffffffffffffffff82111561036557600080fd5b602082029050602081019050919050565b6000819050602082019050919050565b600081519050919050565b6000602082019050919050565b600082825260208201905092915050565b6000819050919050565b6103c2816103af565b81146103cd57600080fd5b5056fea26469706673582212200b8942e8c87a2b24e1d0923d8eda7760c56883ae8fbe2767af46c4ebd17e584364736f6c634300060a0033",
  "immutableReferences": {},
  "source": "/*\n    Copyright 2020 Set Labs Inc.\n\n    Licensed under the Apache License, Version 2.0 (the \"License\");\n    you may not use this file except in compliance with the License.\n    You may obtain a copy of the License at\n\n    http://www.apache.org/licenses/LICENSE-2.0\n\n    Unless required by applicable law or agreed to in writing, software\n    distributed under the License is distributed on an \"AS IS\" BASIS,\n    WITHOUT WARRANTIES OR CONDITIONS OF ANY KIND, either express or implied.\n    See the License for the specific language governing permissions and\n    limitations under the License.\n\n    SPDX-License-Identifier: Apache License, Version 2.0\n*/\n\npragma solidity 0.6.10;\npragma experimental \"ABIEncoderV2\";\n\nimport { Uint256ArrayUtils } from \"../lib/Uint256ArrayUtils.sol\";\n\n\ncontract Uint256ArrayUtilsMock {\n    using Uint256ArrayUtils for uint256[];\n\n    function testExtend(uint256[] memory A, uint256[] memory B) external pure returns (uint256[] memory) {\n        return A.extend(B);\n    }\n}",
  "sourcePath": "/Users/tahadhailey/Documents/top5/top5swap/swap/contracts/mocks/Uint256ArrayUtilsMock.sol",
  "compiler": {
    "name": "solc",
    "version": "0.6.10+commit.00c0fcaf.Emscripten.clang"
  },
  "schemaVersion": "3.2.1",
  "updatedAt": "2021-01-21T08:20:37.593Z",
  "devdoc": {
    "methods": {}
  },
  "userdoc": {
    "methods": {}
  }
}