{
  "contractName": "UniswapYieldHook",
  "abi": [
    {
      "inputs": [
        {
          "internalType": "address[]",
          "name": "_assets",
          "type": "address[]"
        },
        {
          "internalType": "uint256[]",
          "name": "_limits",
          "type": "uint256[]"
        }
      ],
      "stateMutability": "nonpayable",
      "type": "constructor"
    },
    {
      "anonymous": false,
      "inputs": [
        {
          "indexed": true,
          "internalType": "address",
          "name": "previousOwner",
          "type": "address"
        },
        {
          "indexed": true,
          "internalType": "address",
          "name": "newOwner",
          "type": "address"
        }
      ],
      "name": "OwnershipTransferred",
      "type": "event"
    },
    {
      "inputs": [
        {
          "internalType": "address",
          "name": "",
          "type": "address"
        }
      ],
      "name": "assetLimits",
      "outputs": [
        {
          "internalType": "uint256",
          "name": "",
          "type": "uint256"
        }
      ],
      "stateMutability": "view",
      "type": "function"
    },
    {
      "inputs": [
        {
          "internalType": "uint256",
          "name": "",
          "type": "uint256"
        }
      ],
      "name": "assets",
      "outputs": [
        {
          "internalType": "address",
          "name": "",
          "type": "address"
        }
      ],
      "stateMutability": "view",
      "type": "function"
    },
    {
      "inputs": [],
      "name": "owner",
      "outputs": [
        {
          "internalType": "address",
          "name": "",
          "type": "address"
        }
      ],
      "stateMutability": "view",
      "type": "function"
    },
    {
      "inputs": [],
      "name": "renounceOwnership",
      "outputs": [],
      "stateMutability": "nonpayable",
      "type": "function"
    },
    {
      "inputs": [
        {
          "internalType": "address",
          "name": "newOwner",
          "type": "address"
        }
      ],
      "name": "transferOwnership",
      "outputs": [],
      "stateMutability": "nonpayable",
      "type": "function"
    },
    {
      "inputs": [
        {
          "internalType": "contract ISetToken",
          "name": "",
          "type": "address"
        },
        {
          "internalType": "address",
          "name": "_reserveAsset",
          "type": "address"
        },
        {
          "internalType": "uint256",
          "name": "_reserveAssetQuantity",
          "type": "uint256"
        },
        {
          "internalType": "address",
          "name": "_sender",
          "type": "address"
        },
        {
          "internalType": "address",
          "name": "",
          "type": "address"
        }
      ],
      "name": "invokePreIssueHook",
      "outputs": [],
      "stateMutability": "nonpayable",
      "type": "function"
    },
    {
      "inputs": [
        {
          "internalType": "contract ISetToken",
          "name": "_setToken",
          "type": "address"
        },
        {
          "internalType": "uint256",
          "name": "_redeemQuantity",
          "type": "uint256"
        },
        {
          "internalType": "address",
          "name": "_sender",
          "type": "address"
        },
        {
          "internalType": "address",
          "name": "",
          "type": "address"
        }
      ],
      "name": "invokePreRedeemHook",
      "outputs": [],
      "stateMutability": "nonpayable",
      "type": "function"
    },
    {
      "inputs": [
        {
          "internalType": "address",
          "name": "_asset",
          "type": "address"
        },
        {
          "internalType": "uint256",
          "name": "_newLimit",
          "type": "uint256"
        }
      ],
      "name": "addAssetLimit",
      "outputs": [],
      "stateMutability": "nonpayable",
      "type": "function"
    },
    {
      "inputs": [
        {
          "internalType": "address",
          "name": "_asset",
          "type": "address"
        },
        {
          "internalType": "uint256",
          "name": "_newLimit",
          "type": "uint256"
        }
      ],
      "name": "editAssetLimit",
      "outputs": [],
      "stateMutability": "nonpayable",
      "type": "function"
    },
    {
      "inputs": [
        {
          "internalType": "address",
          "name": "_asset",
          "type": "address"
        }
      ],
      "name": "removeAssetLimit",
      "outputs": [],
      "stateMutability": "nonpayable",
      "type": "function"
    },
    {
      "inputs": [],
      "name": "getAssets",
      "outputs": [
        {
          "internalType": "address[]",
          "name": "",
          "type": "address[]"
        }
      ],
      "stateMutability": "view",
      "type": "function"
    }
  ],
  "bytecode": "0x60806040523480156200001157600080fd5b5060405162001f1138038062001f118339818101604052810190620000379190620004d2565b600062000049620002ad60201b60201c565b9050806000806101000a81548173ffffffffffffffffffffffffffffffffffffffff021916908373ffffffffffffffffffffffffffffffffffffffff1602179055508073ffffffffffffffffffffffffffffffffffffffff16600073ffffffffffffffffffffffffffffffffffffffff167f8be0079c531659141344cd1fd0a4f28419497f9722a3daafe3b4186f6b6457e060405160405180910390a35080518251146200012e576040517f08c379a000000000000000000000000000000000000000000000000000000000815260040162000125906200062d565b60405180910390fd5b60008251141562000176576040517f08c379a00000000000000000000000000000000000000000000000000000000081526004016200016d906200060b565b60405180910390fd5b60008090505b82518110156200028b5760008382815181106200019557fe5b602002602001015190506000600160008373ffffffffffffffffffffffffffffffffffffffff1673ffffffffffffffffffffffffffffffffffffffff168152602001908152602001600020541462000224576040517f08c379a00000000000000000000000000000000000000000000000000000000081526004016200021b906200064f565b60405180910390fd5b8282815181106200023157fe5b6020026020010151600160008373ffffffffffffffffffffffffffffffffffffffff1673ffffffffffffffffffffffffffffffffffffffff168152602001908152602001600020819055505080806001019150506200017c565b508160029080519060200190620002a4929190620002b5565b50505062000774565b600033905090565b82805482825590600052602060002090810192821562000331579160200282015b82811115620003305782518260006101000a81548173ffffffffffffffffffffffffffffffffffffffff021916908373ffffffffffffffffffffffffffffffffffffffff16021790555091602001919060010190620002d6565b5b50905062000340919062000344565b5090565b6200038791905b808211156200038357600081816101000a81549073ffffffffffffffffffffffffffffffffffffffff0219169055506001016200034b565b5090565b90565b6000815190506200039b8162000740565b92915050565b600082601f830112620003b357600080fd5b8151620003ca620003c4826200069f565b62000671565b91508181835260208401935060208101905083856020840282011115620003f057600080fd5b60005b838110156200042457816200040988826200038a565b845260208401935060208301925050600181019050620003f3565b5050505092915050565b600082601f8301126200044057600080fd5b8151620004576200045182620006c8565b62000671565b915081818352602084019350602081019050838560208402820111156200047d57600080fd5b60005b83811015620004b15781620004968882620004bb565b84526020840193506020830192505060018101905062000480565b5050505092915050565b600081519050620004cc816200075a565b92915050565b60008060408385031215620004e657600080fd5b600083015167ffffffffffffffff8111156200050157600080fd5b6200050f85828601620003a1565b925050602083015167ffffffffffffffff8111156200052d57600080fd5b6200053b858286016200042e565b9150509250929050565b600062000554601783620006f1565b91507f4172726179206d757374206e6f7420626520656d7074790000000000000000006000830152602082019050919050565b600062000596601483620006f1565b91507f417272617973206d75737420626520657175616c0000000000000000000000006000830152602082019050919050565b6000620005d8601383620006f1565b91507f417373657420616c7265616479206164646564000000000000000000000000006000830152602082019050919050565b60006020820190508181036000830152620006268162000545565b9050919050565b60006020820190508181036000830152620006488162000587565b9050919050565b600060208201905081810360008301526200066a81620005c9565b9050919050565b6000604051905081810181811067ffffffffffffffff821117156200069557600080fd5b8060405250919050565b600067ffffffffffffffff821115620006b757600080fd5b602082029050602081019050919050565b600067ffffffffffffffff821115620006e057600080fd5b602082029050602081019050919050565b600082825260208201905092915050565b60006200070f8262000716565b9050919050565b600073ffffffffffffffffffffffffffffffffffffffff82169050919050565b6000819050919050565b6200074b8162000702565b81146200075757600080fd5b50565b620007658162000736565b81146200077157600080fd5b50565b61178d80620007846000396000f3fe608060405234801561001057600080fd5b50600436106100a95760003560e01c80639ff13e04116100715780639ff13e0414610140578063cf35bdd01461015c578063db2698941461018c578063f2fde38b146101a8578063f3f0349a146101c4578063fb42e7ec146101e0576100a9565b8063560ee9dd146100ae57806367e4ac2c146100de578063715018a6146100fc5780638da5cb5b146101065780639b19c2bf14610124575b600080fd5b6100c860048036038101906100c391906110a5565b6101fc565b6040516100d5919061165f565b60405180910390f35b6100e6610214565b6040516100f3919061153d565b60405180910390f35b6101046102a2565b005b61010e6103f7565b60405161011b9190611522565b60405180910390f35b61013e60048036038101906101399190611181565b610420565b005b61015a600480360381019061015591906110a5565b6104dc565b005b610176600480360381019061017191906111e4565b6106ea565b6040516101839190611522565b60405180910390f35b6101a660048036038101906101a191906110ce565b610726565b005b6101c260048036038101906101bd91906110a5565b610887565b005b6101de60048036038101906101d991906110ce565b610a4b565b005b6101fa60048036038101906101f5919061110a565b610c0e565b005b60016020528060005260406000206000915090505481565b6060600280548060200260200160405190810160405280929190818152602001828054801561029857602002820191906000526020600020905b8160009054906101000a900473ffffffffffffffffffffffffffffffffffffffff1673ffffffffffffffffffffffffffffffffffffffff168152602001906001019080831161024e575b5050505050905090565b6102aa610ccb565b73ffffffffffffffffffffffffffffffffffffffff166000809054906101000a900473ffffffffffffffffffffffffffffffffffffffff1673ffffffffffffffffffffffffffffffffffffffff1614610338576040517f08c379a000000000000000000000000000000000000000000000000000000000815260040161032f9061161f565b60405180910390fd5b600073ffffffffffffffffffffffffffffffffffffffff166000809054906101000a900473ffffffffffffffffffffffffffffffffffffffff1673ffffffffffffffffffffffffffffffffffffffff167f8be0079c531659141344cd1fd0a4f28419497f9722a3daafe3b4186f6b6457e060405160405180910390a360008060006101000a81548173ffffffffffffffffffffffffffffffffffffffff021916908373ffffffffffffffffffffffffffffffffffffffff160217905550565b60008060009054906101000a900473ffffffffffffffffffffffffffffffffffffffff16905090565b3273ffffffffffffffffffffffffffffffffffffffff168273ffffffffffffffffffffffffffffffffffffffff16146104d657600160008573ffffffffffffffffffffffffffffffffffffffff1673ffffffffffffffffffffffffffffffffffffffff168152602001908152602001600020548311156104d5576040517f08c379a00000000000000000000000000000000000000000000000000000000081526004016104cc906115bf565b60405180910390fd5b5b50505050565b6104e4610ccb565b73ffffffffffffffffffffffffffffffffffffffff166000809054906101000a900473ffffffffffffffffffffffffffffffffffffffff1673ffffffffffffffffffffffffffffffffffffffff1614610572576040517f08c379a00000000000000000000000000000000000000000000000000000000081526004016105699061161f565b60405180910390fd5b6000600160008373ffffffffffffffffffffffffffffffffffffffff1673ffffffffffffffffffffffffffffffffffffffff1681526020019081526020016000205414156105f5576040517f08c379a00000000000000000000000000000000000000000000000000000000081526004016105ec9061155f565b60405180910390fd5b600160008273ffffffffffffffffffffffffffffffffffffffff1673ffffffffffffffffffffffffffffffffffffffff168152602001908152602001600020600090556106d18160028054806020026020016040519081016040528092919081815260200182805480156106be57602002820191906000526020600020905b8160009054906101000a900473ffffffffffffffffffffffffffffffffffffffff1673ffffffffffffffffffffffffffffffffffffffff1681526020019060010190808311610674575b5050505050610cd390919063ffffffff16565b600290805190602001906106e6929190610f99565b5050565b600281815481106106f757fe5b906000526020600020016000915054906101000a900473ffffffffffffffffffffffffffffffffffffffff1681565b61072e610ccb565b73ffffffffffffffffffffffffffffffffffffffff166000809054906101000a900473ffffffffffffffffffffffffffffffffffffffff1673ffffffffffffffffffffffffffffffffffffffff16146107bc576040517f08c379a00000000000000000000000000000000000000000000000000000000081526004016107b39061161f565b60405180910390fd5b6000600160008473ffffffffffffffffffffffffffffffffffffffff1673ffffffffffffffffffffffffffffffffffffffff16815260200190815260200160002054141561083f576040517f08c379a00000000000000000000000000000000000000000000000000000000081526004016108369061155f565b60405180910390fd5b80600160008473ffffffffffffffffffffffffffffffffffffffff1673ffffffffffffffffffffffffffffffffffffffff168152602001908152602001600020819055505050565b61088f610ccb565b73ffffffffffffffffffffffffffffffffffffffff166000809054906101000a900473ffffffffffffffffffffffffffffffffffffffff1673ffffffffffffffffffffffffffffffffffffffff161461091d576040517f08c379a00000000000000000000000000000000000000000000000000000000081526004016109149061161f565b60405180910390fd5b600073ffffffffffffffffffffffffffffffffffffffff168173ffffffffffffffffffffffffffffffffffffffff16141561098d576040517f08c379a0000000000000000000000000000000000000000000000000000000008152600401610984906115df565b60405180910390fd5b8073ffffffffffffffffffffffffffffffffffffffff166000809054906101000a900473ffffffffffffffffffffffffffffffffffffffff1673ffffffffffffffffffffffffffffffffffffffff167f8be0079c531659141344cd1fd0a4f28419497f9722a3daafe3b4186f6b6457e060405160405180910390a3806000806101000a81548173ffffffffffffffffffffffffffffffffffffffff021916908373ffffffffffffffffffffffffffffffffffffffff16021790555050565b610a53610ccb565b73ffffffffffffffffffffffffffffffffffffffff166000809054906101000a900473ffffffffffffffffffffffffffffffffffffffff1673ffffffffffffffffffffffffffffffffffffffff1614610ae1576040517f08c379a0000000000000000000000000000000000000000000000000000000008152600401610ad89061161f565b60405180910390fd5b6000600160008473ffffffffffffffffffffffffffffffffffffffff1673ffffffffffffffffffffffffffffffffffffffff1681526020019081526020016000205414610b63576040517f08c379a0000000000000000000000000000000000000000000000000000000008152600401610b5a9061163f565b60405180910390fd5b80600160008473ffffffffffffffffffffffffffffffffffffffff1673ffffffffffffffffffffffffffffffffffffffff168152602001908152602001600020819055506002829080600181540180825580915050600190039060005260206000200160009091909190916101000a81548173ffffffffffffffffffffffffffffffffffffffff021916908373ffffffffffffffffffffffffffffffffffffffff1602179055505050565b3273ffffffffffffffffffffffffffffffffffffffff168273ffffffffffffffffffffffffffffffffffffffff1614610cc457600160008573ffffffffffffffffffffffffffffffffffffffff1673ffffffffffffffffffffffffffffffffffffffff16815260200190815260200160002054831115610cc3576040517f08c379a0000000000000000000000000000000000000000000000000000000008152600401610cba906115ff565b60405180910390fd5b5b5050505050565b600033905090565b6060600080610ce28585610d41565b9150915080610d26576040517f08c379a0000000000000000000000000000000000000000000000000000000008152600401610d1d9061157f565b60405180910390fd5b6060610d328684610deb565b50905080935050505092915050565b60008060008451905060008090505b81811015610dba578473ffffffffffffffffffffffffffffffffffffffff16868281518110610d7b57fe5b602002602001015173ffffffffffffffffffffffffffffffffffffffff161415610dad57806001935093505050610de4565b8080600101915050610d50565b507fffffffffffffffffffffffffffffffffffffffffffffffffffffffffffffffff600092509250505b9250929050565b60606000808451905084518410610e37576040517f08c379a0000000000000000000000000000000000000000000000000000000008152600401610e2e9061159f565b60405180910390fd5b60606001820367ffffffffffffffff81118015610e5357600080fd5b50604051908082528060200260200182016040528015610e825781602001602082028036833780820191505090505b50905060008090505b85811015610efa57868181518110610e9f57fe5b6020026020010151828281518110610eb357fe5b602002602001019073ffffffffffffffffffffffffffffffffffffffff16908173ffffffffffffffffffffffffffffffffffffffff16815250508080600101915050610e8b565b5060006001860190505b82811015610f7657868181518110610f1857fe5b6020026020010151826001830381518110610f2f57fe5b602002602001019073ffffffffffffffffffffffffffffffffffffffff16908173ffffffffffffffffffffffffffffffffffffffff16815250508080600101915050610f04565b5080868681518110610f8457fe5b60200260200101519350935050509250929050565b828054828255906000526020600020908101928215611012579160200282015b828111156110115782518260006101000a81548173ffffffffffffffffffffffffffffffffffffffff021916908373ffffffffffffffffffffffffffffffffffffffff16021790555091602001919060010190610fb9565b5b50905061101f9190611023565b5090565b61106391905b8082111561105f57600081816101000a81549073ffffffffffffffffffffffffffffffffffffffff021916905550600101611029565b5090565b90565b60008135905061107581611712565b92915050565b60008135905061108a81611729565b92915050565b60008135905061109f81611740565b92915050565b6000602082840312156110b757600080fd5b60006110c584828501611066565b91505092915050565b600080604083850312156110e157600080fd5b60006110ef85828601611066565b925050602061110085828601611090565b9150509250929050565b600080600080600060a0868803121561112257600080fd5b60006111308882890161107b565b955050602061114188828901611066565b945050604061115288828901611090565b935050606061116388828901611066565b925050608061117488828901611066565b9150509295509295909350565b6000806000806080858703121561119757600080fd5b60006111a58782880161107b565b94505060206111b687828801611090565b93505060406111c787828801611066565b92505060606111d887828801611066565b91505092959194509250565b6000602082840312156111f657600080fd5b600061120484828501611090565b91505092915050565b60006112198383611225565b60208301905092915050565b61122e816116c4565b82525050565b61123d816116c4565b82525050565b600061124e8261168a565b61125881856116a2565b93506112638361167a565b8060005b8381101561129457815161127b888261120d565b975061128683611695565b925050600181019050611267565b5085935050505092915050565b60006112ae600f836116b3565b91507f4173736574206e6f7420616464656400000000000000000000000000000000006000830152602082019050919050565b60006112ee6015836116b3565b91507f41646472657373206e6f7420696e2061727261792e00000000000000000000006000830152602082019050919050565b600061132e6018836116b3565b91507f496e646578206d757374206265203c2041206c656e67746800000000000000006000830152602082019050919050565b600061136e602d836116b3565b91507f52656465656d2073697a6520746f6f206c6172676520666f722063616c6c206660008301527f726f6d20636f6e74726163742e000000000000000000000000000000000000006020830152604082019050919050565b60006113d46026836116b3565b91507f4f776e61626c653a206e6577206f776e657220697320746865207a65726f206160008301527f64647265737300000000000000000000000000000000000000000000000000006020830152604082019050919050565b600061143a602c836116b3565b91507f49737375652073697a6520746f6f206c6172676520666f722063616c6c20667260008301527f6f6d20636f6e74726163742e00000000000000000000000000000000000000006020830152604082019050919050565b60006114a06020836116b3565b91507f4f776e61626c653a2063616c6c6572206973206e6f7420746865206f776e65726000830152602082019050919050565b60006114e06013836116b3565b91507f417373657420616c7265616479206164646564000000000000000000000000006000830152602082019050919050565b61151c81611708565b82525050565b60006020820190506115376000830184611234565b92915050565b600060208201905081810360008301526115578184611243565b905092915050565b60006020820190508181036000830152611578816112a1565b9050919050565b60006020820190508181036000830152611598816112e1565b9050919050565b600060208201905081810360008301526115b881611321565b9050919050565b600060208201905081810360008301526115d881611361565b9050919050565b600060208201905081810360008301526115f8816113c7565b9050919050565b600060208201905081810360008301526116188161142d565b9050919050565b6000602082019050818103600083015261163881611493565b9050919050565b60006020820190508181036000830152611658816114d3565b9050919050565b60006020820190506116746000830184611513565b92915050565b6000819050602082019050919050565b600081519050919050565b6000602082019050919050565b600082825260208201905092915050565b600082825260208201905092915050565b60006116cf826116e8565b9050919050565b60006116e1826116c4565b9050919050565b600073ffffffffffffffffffffffffffffffffffffffff82169050919050565b6000819050919050565b61171b816116c4565b811461172657600080fd5b50565b611732816116d6565b811461173d57600080fd5b50565b61174981611708565b811461175457600080fd5b5056fea264697066735822122096bd96c52f3f160568409e20af65348d16f3a6d4dd3e0562eccf0b3269c5710e64736f6c634300060a0033",
  "immutableReferences": {},
  "source": "/*\n    Copyright 2020 Set Labs Inc.\n\n    Licensed under the Apache License, Version 2.0 (the \"License\");\n    you may not use this file except in compliance with the License.\n    You may obtain a copy of the License at\n\n    http://www.apache.org/licenses/LICENSE-2.0\n\n    Unless required by applicable law or agreed to in writing, software\n    distributed under the License is distributed on an \"AS IS\" BASIS,\n    WITHOUT WARRANTIES OR CONDITIONS OF ANY KIND, either express or implied.\n    See the License for the specific language governing permissions and\n    limitations under the License.\n\n    SPDX-License-Identifier: Apache License, Version 2.0\n*/\n\npragma solidity 0.6.10;\npragma experimental \"ABIEncoderV2\";\n\nimport { Ownable } from \"@openzeppelin/contracts/access/Ownable.sol\";\n\nimport { AddressArrayUtils } from \"../lib/AddressArrayUtils.sol\";\nimport { INAVIssuanceHook } from \"../interfaces/INAVIssuanceHook.sol\";\nimport { ISetToken } from \"../interfaces/ISetToken.sol\";\n\n\ncontract UniswapYieldHook is INAVIssuanceHook, Ownable {\n    using AddressArrayUtils for address[];\n\n    /* ============ State Variables ============ */\n\n    mapping(address => uint256) public assetLimits;\n    address[] public assets;\n\n    /* ============ Constructor ============ */\n\n    constructor(address[] memory _assets, uint256[] memory _limits) public {\n        require(_assets.length == _limits.length, \"Arrays must be equal\");\n        require(_assets.length != 0, \"Array must not be empty\");\n        \n        for (uint256 i = 0; i < _assets.length; i++) {\n            address asset = _assets[i];\n            require(assetLimits[asset] == 0, \"Asset already added\");\n            assetLimits[asset] = _limits[i];\n        }\n\n        assets = _assets;\n    }\n\n    /* ============ External Functions ============ */\n\n    function invokePreIssueHook(\n        ISetToken /*_setToken*/,\n        address _reserveAsset,\n        uint256 _reserveAssetQuantity,\n        address _sender,\n        address /*_to*/\n    )\n        external\n        override\n    {\n        if (_sender != tx.origin) {\n            require(\n                _reserveAssetQuantity <= assetLimits[_reserveAsset],\n                \"Issue size too large for call from contract.\"\n            );\n        }\n    }\n\n    function invokePreRedeemHook(\n        ISetToken _setToken,\n        uint256 _redeemQuantity,\n        address _sender,\n        address /*_to*/\n    )\n        external\n        override\n    {\n        if (_sender != tx.origin) {\n            require(\n                _redeemQuantity <= assetLimits[address(_setToken)],\n                \"Redeem size too large for call from contract.\"\n            );\n        }\n    }\n\n    function addAssetLimit(address _asset, uint256 _newLimit) external onlyOwner {\n        require(assetLimits[_asset] == 0, \"Asset already added\");\n        assetLimits[_asset] = _newLimit;\n        assets.push(_asset);\n    }\n\n    function editAssetLimit(address _asset, uint256 _newLimit) external onlyOwner {\n        require(assetLimits[_asset] != 0, \"Asset not added\");\n        assetLimits[_asset] = _newLimit;\n    }\n\n    function removeAssetLimit(address _asset) external onlyOwner {\n        require(assetLimits[_asset] != 0, \"Asset not added\");\n        delete assetLimits[_asset];\n        assets = assets.remove(_asset);\n    }\n\n    /* ============ Getters ============ */\n    \n    function getAssets() external view returns(address[] memory) { return assets; }\n}",
  "sourcePath": "/Users/tahadhailey/Documents/top5/top5swap/swap/contracts/product/UniswapYieldHook.sol",
  "compiler": {
    "name": "solc",
    "version": "0.6.10+commit.00c0fcaf.Emscripten.clang"
  },
  "schemaVersion": "3.2.1",
  "updatedAt": "2021-01-21T08:20:37.639Z",
  "devdoc": {
    "methods": {
      "owner()": {
        "details": "Returns the address of the current owner."
      },
      "renounceOwnership()": {
        "details": "Leaves the contract without owner. It will not be possible to call `onlyOwner` functions anymore. Can only be called by the current owner. NOTE: Renouncing ownership will leave the contract without an owner, thereby removing any functionality that is only available to the owner."
      },
      "transferOwnership(address)": {
        "details": "Transfers ownership of the contract to a new account (`newOwner`). Can only be called by the current owner."
      }
    }
  },
  "userdoc": {
    "methods": {}
  }
}