{
  "contractName": "UniswapV2ExchangeAdapter",
  "abi": [
    {
      "inputs": [
        {
          "internalType": "address",
          "name": "_router",
          "type": "address"
        }
      ],
      "stateMutability": "nonpayable",
      "type": "constructor"
    },
    {
      "inputs": [],
      "name": "router",
      "outputs": [
        {
          "internalType": "address",
          "name": "",
          "type": "address"
        }
      ],
      "stateMutability": "view",
      "type": "function"
    },
    {
      "inputs": [
        {
          "internalType": "address",
          "name": "_sourceToken",
          "type": "address"
        },
        {
          "internalType": "address",
          "name": "_destinationToken",
          "type": "address"
        },
        {
          "internalType": "address",
          "name": "_destinationAddress",
          "type": "address"
        },
        {
          "internalType": "uint256",
          "name": "_sourceQuantity",
          "type": "uint256"
        },
        {
          "internalType": "uint256",
          "name": "_minDestinationQuantity",
          "type": "uint256"
        },
        {
          "internalType": "bytes",
          "name": "_data",
          "type": "bytes"
        }
      ],
      "name": "getTradeCalldata",
      "outputs": [
        {
          "internalType": "address",
          "name": "",
          "type": "address"
        },
        {
          "internalType": "uint256",
          "name": "",
          "type": "uint256"
        },
        {
          "internalType": "bytes",
          "name": "",
          "type": "bytes"
        }
      ],
      "stateMutability": "view",
      "type": "function"
    },
    {
      "inputs": [],
      "name": "getSpender",
      "outputs": [
        {
          "internalType": "address",
          "name": "",
          "type": "address"
        }
      ],
      "stateMutability": "view",
      "type": "function"
    }
  ],
  "bytecode": "0x60a060405234801561001057600080fd5b5060405161094738038061094783398181016040528101906100329190610084565b8073ffffffffffffffffffffffffffffffffffffffff1660808173ffffffffffffffffffffffffffffffffffffffff1660601b81525050506100f6565b60008151905061007e816100df565b92915050565b60006020828403121561009657600080fd5b60006100a48482850161006f565b91505092915050565b60006100b8826100bf565b9050919050565b600073ffffffffffffffffffffffffffffffffffffffff82169050919050565b6100e8816100ad565b81146100f357600080fd5b50565b60805160601c61082b61011c6000398060b8528061027e52806102b9525061082b6000f3fe608060405234801561001057600080fd5b50600436106100415760003560e01c8063334fc28914610046578063e171fcab14610064578063f887ea4014610096575b600080fd5b61004e6100b4565b60405161005b91906105af565b60405180910390f35b61007e600480360381019061007991906103f1565b6100dc565b60405161008d939291906105ca565b60405180910390f35b61009e6102b7565b6040516100ab91906105af565b60405180910390f35b60007f0000000000000000000000000000000000000000000000000000000000000000905090565b6000806060806000855114156101cb57600267ffffffffffffffff8111801561010457600080fd5b506040519080825280602002602001820160405280156101335781602001602082028036833780820191505090505b509050898160008151811061014457fe5b602002602001019073ffffffffffffffffffffffffffffffffffffffff16908173ffffffffffffffffffffffffffffffffffffffff1681525050888160018151811061018c57fe5b602002602001019073ffffffffffffffffffffffffffffffffffffffff16908173ffffffffffffffffffffffffffffffffffffffff16815250506101e2565b848060200190518101906101df9190610492565b90505b60608787838b426040516024016101fd959493929190610608565b6040516020818303038152906040527f38ed1739000000000000000000000000000000000000000000000000000000007bffffffffffffffffffffffffffffffffffffffffffffffffffffffff19166020820180517bffffffffffffffffffffffffffffffffffffffffffffffffffffffff838183161783525050505090507f0000000000000000000000000000000000000000000000000000000000000000600082819150945094509450505096509650969350505050565b7f000000000000000000000000000000000000000000000000000000000000000081565b6000813590506102ea816107c7565b92915050565b6000815190506102ff816107c7565b92915050565b600082601f83011261031657600080fd5b81516103296103248261068f565b610662565b9150818183526020840193506020810190508385602084028201111561034e57600080fd5b60005b8381101561037e578161036488826102f0565b845260208401935060208301925050600181019050610351565b5050505092915050565b600082601f83011261039957600080fd5b81356103ac6103a7826106b7565b610662565b915080825260208301602083018583830111156103c857600080fd5b6103d3838284610774565b50505092915050565b6000813590506103eb816107de565b92915050565b60008060008060008060c0878903121561040a57600080fd5b600061041889828a016102db565b965050602061042989828a016102db565b955050604061043a89828a016102db565b945050606061044b89828a016103dc565b935050608061045c89828a016103dc565b92505060a087013567ffffffffffffffff81111561047957600080fd5b61048589828a01610388565b9150509295509295509295565b6000602082840312156104a457600080fd5b600082015167ffffffffffffffff8111156104be57600080fd5b6104ca84828501610305565b91505092915050565b60006104df83836104eb565b60208301905092915050565b6104f481610738565b82525050565b61050381610738565b82525050565b6000610514826106f3565b61051e8185610716565b9350610529836106e3565b8060005b8381101561055a57815161054188826104d3565b975061054c83610709565b92505060018101905061052d565b5085935050505092915050565b6000610572826106fe565b61057c8185610727565b935061058c818560208601610783565b610595816107b6565b840191505092915050565b6105a98161076a565b82525050565b60006020820190506105c460008301846104fa565b92915050565b60006060820190506105df60008301866104fa565b6105ec60208301856105a0565b81810360408301526105fe8184610567565b9050949350505050565b600060a08201905061061d60008301886105a0565b61062a60208301876105a0565b818103604083015261063c8186610509565b905061064b60608301856104fa565b61065860808301846105a0565b9695505050505050565b6000604051905081810181811067ffffffffffffffff8211171561068557600080fd5b8060405250919050565b600067ffffffffffffffff8211156106a657600080fd5b602082029050602081019050919050565b600067ffffffffffffffff8211156106ce57600080fd5b601f19601f8301169050602081019050919050565b6000819050602082019050919050565b600081519050919050565b600081519050919050565b6000602082019050919050565b600082825260208201905092915050565b600082825260208201905092915050565b60006107438261074a565b9050919050565b600073ffffffffffffffffffffffffffffffffffffffff82169050919050565b6000819050919050565b82818337600083830152505050565b60005b838110156107a1578082015181840152602081019050610786565b838111156107b0576000848401525b50505050565b6000601f19601f8301169050919050565b6107d081610738565b81146107db57600080fd5b50565b6107e78161076a565b81146107f257600080fd5b5056fea26469706673582212208844d04d104edcabf9d09d86dd1e4c72c9339746a96f21a1fe9ec1e2c356f7e564736f6c634300060a0033",
  "immutableReferences": {
    "12224": [
      {
        "length": 32,
        "start": 184
      },
      {
        "length": 32,
        "start": 638
      },
      {
        "length": 32,
        "start": 697
      }
    ]
  },
  "source": "/*\n    Copyright 2020 Yam Finance\n\n    Licensed under the Apache License, Version 2.0 (the \"License\");\n    you may not use this file except in compliance with the License.\n    You may obtain a copy of the License at\n\n    http://www.apache.org/licenses/LICENSE-2.0\n\n    Unless required by applicable law or agreed to in writing, software\n    distributed under the License is distributed on an \"AS IS\" BASIS,\n    WITHOUT WARRANTIES OR CONDITIONS OF ANY KIND, either express or implied.\n    See the License for the specific language governing permissions and\n    limitations under the License.\n\n    SPDX-License-Identifier: Apache License, Version 2.0\n*/\n\npragma solidity 0.6.10;\npragma experimental \"ABIEncoderV2\";\n\n/**\n * @title UniswapV2TradeAdapter\n * @author Yam Finance\n *\n * Exchange adapter for Uniswap V2 Router02 that encodes trade data\n */\ncontract UniswapV2ExchangeAdapter {\n\n    /* ============ State Variables ============ */\n\n    // Address of Uniswap V2 Router02 contract\n    address public immutable router;\n\n    /* ============ Constructor ============ */\n\n    /**\n     * Set state variables\n     *\n     * @param _router       Address of Uniswap V2 Router02 contract\n     */\n    constructor(address _router) public {\n        router = _router;\n    }\n\n    /* ============ External Getter Functions ============ */\n\n    /**\n     * Return calldata for Uniswap V2 Router02\n     *\n     * @param  _sourceToken              Address of source token to be sold\n     * @param  _destinationToken         Address of destination token to buy\n     * @param  _destinationAddress       Address that assets should be transferred to\n     * @param  _sourceQuantity           Amount of source token to sell\n     * @param  _minDestinationQuantity   Min amount of destination token to buy\n     * @param  _data                     Arbitrary bytes containing trade call data\n     *\n     * @return address                   Target contract address\n     * @return uint256                   Call value\n     * @return bytes                     Trade calldata\n     */\n    function getTradeCalldata(\n        address _sourceToken,\n        address _destinationToken,\n        address _destinationAddress,\n        uint256 _sourceQuantity,\n        uint256 _minDestinationQuantity,\n        bytes memory _data\n    )\n        external\n        view\n        returns (address, uint256, bytes memory)\n    {   \n        address[] memory path;\n\n        if(_data.length == 0){\n            path = new address[](2);\n            path[0] = _sourceToken;\n            path[1] = _destinationToken;\n        } else {\n            path = abi.decode(_data, (address[]));\n        }\n\n        bytes memory callData = abi.encodeWithSignature(\n            \"swapExactTokensForTokens(uint256,uint256,address[],address,uint256)\",\n            _sourceQuantity,\n            _minDestinationQuantity,\n            path,\n            _destinationAddress,\n            block.timestamp\n        );\n        return (router, 0, callData);\n    }\n\n    /**\n     * Returns the address to approve source tokens to for trading. This is the Uniswap router address\n     *\n     * @return address             Address of the contract to approve tokens to\n     */\n    function getSpender()\n        external\n        view\n        returns (address)\n    {\n        return router;\n    }\n} ",
  "sourcePath": "/Users/tahadhailey/Documents/top5/top5swap/swap/contracts/protocol/integration/UniswapV2ExchangeAdapter.sol",
  "compiler": {
    "name": "solc",
    "version": "0.6.10+commit.00c0fcaf.Emscripten.clang"
  },
  "schemaVersion": "3.2.1",
  "updatedAt": "2021-01-21T08:20:37.704Z",
  "devdoc": {
    "author": "Yam Finance Exchange adapter for Uniswap V2 Router02 that encodes trade data",
    "methods": {
      "constructor": {
        "params": {
          "_router": "Address of Uniswap V2 Router02 contract"
        }
      },
      "getSpender()": {
        "returns": {
          "_0": "address             Address of the contract to approve tokens to"
        }
      },
      "getTradeCalldata(address,address,address,uint256,uint256,bytes)": {
        "params": {
          "_data": "Arbitrary bytes containing trade call data",
          "_destinationAddress": "Address that assets should be transferred to",
          "_destinationToken": "Address of destination token to buy",
          "_minDestinationQuantity": "Min amount of destination token to buy",
          "_sourceQuantity": "Amount of source token to sell",
          "_sourceToken": "Address of source token to be sold"
        },
        "returns": {
          "_0": "address                   Target contract address",
          "_1": "uint256                   Call value",
          "_2": "bytes                     Trade calldata"
        }
      }
    },
    "title": "UniswapV2TradeAdapter"
  },
  "userdoc": {
    "methods": {
      "constructor": "Set state variables",
      "getSpender()": {
        "notice": "Returns the address to approve source tokens to for trading. This is the Uniswap router address"
      },
      "getTradeCalldata(address,address,address,uint256,uint256,bytes)": {
        "notice": "Return calldata for Uniswap V2 Router02"
      }
    }
  }
}