{
  "contractName": "UniswapPairPriceAdapter",
  "abi": [
    {
      "inputs": [
        {
          "internalType": "contract IController",
          "name": "_controller",
          "type": "address"
        },
        {
          "internalType": "address",
          "name": "_uniswapFactory",
          "type": "address"
        },
        {
          "internalType": "contract IUniswapV2Pair[]",
          "name": "_uniswapPools",
          "type": "address[]"
        }
      ],
      "stateMutability": "nonpayable",
      "type": "constructor"
    },
    {
      "anonymous": false,
      "inputs": [
        {
          "indexed": true,
          "internalType": "address",
          "name": "previousOwner",
          "type": "address"
        },
        {
          "indexed": true,
          "internalType": "address",
          "name": "newOwner",
          "type": "address"
        }
      ],
      "name": "OwnershipTransferred",
      "type": "event"
    },
    {
      "inputs": [
        {
          "internalType": "uint256",
          "name": "",
          "type": "uint256"
        }
      ],
      "name": "allowedUniswapPools",
      "outputs": [
        {
          "internalType": "address",
          "name": "",
          "type": "address"
        }
      ],
      "stateMutability": "view",
      "type": "function"
    },
    {
      "inputs": [],
      "name": "controller",
      "outputs": [
        {
          "internalType": "contract IController",
          "name": "",
          "type": "address"
        }
      ],
      "stateMutability": "view",
      "type": "function"
    },
    {
      "inputs": [],
      "name": "owner",
      "outputs": [
        {
          "internalType": "address",
          "name": "",
          "type": "address"
        }
      ],
      "stateMutability": "view",
      "type": "function"
    },
    {
      "inputs": [],
      "name": "renounceOwnership",
      "outputs": [],
      "stateMutability": "nonpayable",
      "type": "function"
    },
    {
      "inputs": [
        {
          "internalType": "address",
          "name": "newOwner",
          "type": "address"
        }
      ],
      "name": "transferOwnership",
      "outputs": [],
      "stateMutability": "nonpayable",
      "type": "function"
    },
    {
      "inputs": [],
      "name": "uniswapFactory",
      "outputs": [
        {
          "internalType": "address",
          "name": "",
          "type": "address"
        }
      ],
      "stateMutability": "view",
      "type": "function"
    },
    {
      "inputs": [
        {
          "internalType": "address",
          "name": "",
          "type": "address"
        }
      ],
      "name": "uniswapPoolsToSettings",
      "outputs": [
        {
          "internalType": "address",
          "name": "tokenOne",
          "type": "address"
        },
        {
          "internalType": "address",
          "name": "tokenTwo",
          "type": "address"
        },
        {
          "internalType": "uint256",
          "name": "tokenOneBaseUnit",
          "type": "uint256"
        },
        {
          "internalType": "uint256",
          "name": "tokenTwoBaseUnit",
          "type": "uint256"
        },
        {
          "internalType": "bool",
          "name": "isValid",
          "type": "bool"
        }
      ],
      "stateMutability": "view",
      "type": "function"
    },
    {
      "inputs": [
        {
          "internalType": "address",
          "name": "_assetOne",
          "type": "address"
        },
        {
          "internalType": "address",
          "name": "_assetTwo",
          "type": "address"
        }
      ],
      "name": "getPrice",
      "outputs": [
        {
          "internalType": "bool",
          "name": "",
          "type": "bool"
        },
        {
          "internalType": "uint256",
          "name": "",
          "type": "uint256"
        }
      ],
      "stateMutability": "view",
      "type": "function"
    },
    {
      "inputs": [
        {
          "internalType": "address",
          "name": "_poolAddress",
          "type": "address"
        }
      ],
      "name": "addPool",
      "outputs": [],
      "stateMutability": "nonpayable",
      "type": "function"
    },
    {
      "inputs": [
        {
          "internalType": "address",
          "name": "_poolAddress",
          "type": "address"
        }
      ],
      "name": "removePool",
      "outputs": [],
      "stateMutability": "nonpayable",
      "type": "function"
    },
    {
      "inputs": [],
      "name": "getAllowedUniswapPools",
      "outputs": [
        {
          "internalType": "address[]",
          "name": "",
          "type": "address[]"
        }
      ],
      "stateMutability": "view",
      "type": "function"
    }
  ],
  "bytecode": "0x60806040523480156200001157600080fd5b506040516200311338038062003113833981810160405260608110156200003757600080fd5b810190808051906020019092919080519060200190929190805160405193929190846401000000008211156200006c57600080fd5b838201915060208201858111156200008357600080fd5b8251866020820283011164010000000082111715620000a157600080fd5b8083526020830192505050908051906020019060200280838360005b83811015620000da578082015181840152602081019050620000bd565b505050509050016040525050506000620000f96200073760201b60201c565b9050806000806101000a81548173ffffffffffffffffffffffffffffffffffffffff021916908373ffffffffffffffffffffffffffffffffffffffff1602179055508073ffffffffffffffffffffffffffffffffffffffff16600073ffffffffffffffffffffffffffffffffffffffff167f8be0079c531659141344cd1fd0a4f28419497f9722a3daafe3b4186f6b6457e060405160405180910390a35082600160006101000a81548173ffffffffffffffffffffffffffffffffffffffff021916908373ffffffffffffffffffffffffffffffffffffffff16021790555081600460006101000a81548173ffffffffffffffffffffffffffffffffffffffff021916908373ffffffffffffffffffffffffffffffffffffffff16021790555060008090505b81518110156200072d5760008282815181106200023857fe5b60200260200101519050600260008273ffffffffffffffffffffffffffffffffffffffff1673ffffffffffffffffffffffffffffffffffffffff16815260200190815260200160002060040160009054906101000a900460ff1615620002ea576040517f08c379a0000000000000000000000000000000000000000000000000000000008152600401808060200182810382526024815260200180620030ef6024913960400191505060405180910390fd5b620002f46200073f565b8173ffffffffffffffffffffffffffffffffffffffff16630dfe16816040518163ffffffff1660e01b815260040160206040518083038186803b1580156200033b57600080fd5b505afa15801562000350573d6000803e3d6000fd5b505050506040513d60208110156200036757600080fd5b8101908080519060200190929190505050816000019073ffffffffffffffffffffffffffffffffffffffff16908173ffffffffffffffffffffffffffffffffffffffff16815250508173ffffffffffffffffffffffffffffffffffffffff1663d21220a76040518163ffffffff1660e01b815260040160206040518083038186803b158015620003f657600080fd5b505afa1580156200040b573d6000803e3d6000fd5b505050506040513d60208110156200042257600080fd5b8101908080519060200190929190505050816020019073ffffffffffffffffffffffffffffffffffffffff16908173ffffffffffffffffffffffffffffffffffffffff16815250506000816000015173ffffffffffffffffffffffffffffffffffffffff1663313ce5676040518163ffffffff1660e01b815260040160206040518083038186803b158015620004b757600080fd5b505afa158015620004cc573d6000803e3d6000fd5b505050506040513d6020811015620004e357600080fd5b810190808051906020019092919050505060ff16905080600a0a8260400181815250506000826020015173ffffffffffffffffffffffffffffffffffffffff1663313ce5676040518163ffffffff1660e01b815260040160206040518083038186803b1580156200055357600080fd5b505afa15801562000568573d6000803e3d6000fd5b505050506040513d60208110156200057f57600080fd5b810190808051906020019092919050505060ff16905080600a0a83606001818152505060018360800190151590811515815250506003849080600181540180825580915050600190039060005260206000200160009091909190916101000a81548173ffffffffffffffffffffffffffffffffffffffff021916908373ffffffffffffffffffffffffffffffffffffffff16021790555082600260008673ffffffffffffffffffffffffffffffffffffffff1673ffffffffffffffffffffffffffffffffffffffff16815260200190815260200160002060008201518160000160006101000a81548173ffffffffffffffffffffffffffffffffffffffff021916908373ffffffffffffffffffffffffffffffffffffffff16021790555060208201518160010160006101000a81548173ffffffffffffffffffffffffffffffffffffffff021916908373ffffffffffffffffffffffffffffffffffffffff160217905550604082015181600201556060820151816003015560808201518160040160006101000a81548160ff0219169083151502179055509050505050505080806001019150506200021f565b505050506200079c565b600033905090565b6040518060a00160405280600073ffffffffffffffffffffffffffffffffffffffff168152602001600073ffffffffffffffffffffffffffffffffffffffff16815260200160008152602001600081526020016000151581525090565b61294380620007ac6000396000f3fe608060405234801561001057600080fd5b50600436106100a95760003560e01c80638da5cb5b116100715780638da5cb5b14610213578063ac41865a1461025d578063c921a4ec146102e0578063d914cd4b146103b0578063f2fde38b146103f4578063f77c479114610438576100a9565b8063069ee5a4146100ae5780633b7d09461461010d578063715018a6146101515780637b57affc1461015b5780638bdb2afa146101c9575b600080fd5b6100b6610482565b6040518080602001828103825283818151815260200191508051906020019060200280838360005b838110156100f95780820151818401526020810190506100de565b505050509050019250505060405180910390f35b61014f6004803603602081101561012357600080fd5b81019080803573ffffffffffffffffffffffffffffffffffffffff169060200190929190505050610510565b005b6101596107e4565b005b6101876004803603602081101561017157600080fd5b810190808035906020019092919050505061096c565b604051808273ffffffffffffffffffffffffffffffffffffffff1673ffffffffffffffffffffffffffffffffffffffff16815260200191505060405180910390f35b6101d16109a8565b604051808273ffffffffffffffffffffffffffffffffffffffff1673ffffffffffffffffffffffffffffffffffffffff16815260200191505060405180910390f35b61021b6109ce565b604051808273ffffffffffffffffffffffffffffffffffffffff1673ffffffffffffffffffffffffffffffffffffffff16815260200191505060405180910390f35b6102bf6004803603604081101561027357600080fd5b81019080803573ffffffffffffffffffffffffffffffffffffffff169060200190929190803573ffffffffffffffffffffffffffffffffffffffff1690602001909291905050506109f7565b60405180831515151581526020018281526020019250505060405180910390f35b610322600480360360208110156102f657600080fd5b81019080803573ffffffffffffffffffffffffffffffffffffffff169060200190929190505050610f13565b604051808673ffffffffffffffffffffffffffffffffffffffff1673ffffffffffffffffffffffffffffffffffffffff1681526020018573ffffffffffffffffffffffffffffffffffffffff1673ffffffffffffffffffffffffffffffffffffffff168152602001848152602001838152602001821515151581526020019550505050505060405180910390f35b6103f2600480360360208110156103c657600080fd5b81019080803573ffffffffffffffffffffffffffffffffffffffff169060200190929190505050610f96565b005b6104366004803603602081101561040a57600080fd5b81019080803573ffffffffffffffffffffffffffffffffffffffff169060200190929190505050611638565b005b610440611845565b604051808273ffffffffffffffffffffffffffffffffffffffff1673ffffffffffffffffffffffffffffffffffffffff16815260200191505060405180910390f35b6060600380548060200260200160405190810160405280929190818152602001828054801561050657602002820191906000526020600020905b8160009054906101000a900473ffffffffffffffffffffffffffffffffffffffff1673ffffffffffffffffffffffffffffffffffffffff16815260200190600101908083116104bc575b5050505050905090565b61051861186b565b73ffffffffffffffffffffffffffffffffffffffff166000809054906101000a900473ffffffffffffffffffffffffffffffffffffffff1673ffffffffffffffffffffffffffffffffffffffff16146105d9576040517f08c379a00000000000000000000000000000000000000000000000000000000081526004018080602001828103825260208152602001807f4f776e61626c653a2063616c6c6572206973206e6f7420746865206f776e657281525060200191505060405180910390fd5b600260008273ffffffffffffffffffffffffffffffffffffffff1673ffffffffffffffffffffffffffffffffffffffff16815260200190815260200160002060040160009054906101000a900460ff1661067e576040517f08c379a00000000000000000000000000000000000000000000000000000000081526004018080602001828103825260238152602001806128eb6023913960400191505060405180910390fd5b61071781600380548060200260200160405190810160405280929190818152602001828054801561070457602002820191906000526020600020905b8160009054906101000a900473ffffffffffffffffffffffffffffffffffffffff1673ffffffffffffffffffffffffffffffffffffffff16815260200190600101908083116106ba575b505050505061187390919063ffffffff16565b6003908051906020019061072c929190612732565b50600260008273ffffffffffffffffffffffffffffffffffffffff1673ffffffffffffffffffffffffffffffffffffffff168152602001908152602001600020600080820160006101000a81549073ffffffffffffffffffffffffffffffffffffffff02191690556001820160006101000a81549073ffffffffffffffffffffffffffffffffffffffff0219169055600282016000905560038201600090556004820160006101000a81549060ff0219169055505050565b6107ec61186b565b73ffffffffffffffffffffffffffffffffffffffff166000809054906101000a900473ffffffffffffffffffffffffffffffffffffffff1673ffffffffffffffffffffffffffffffffffffffff16146108ad576040517f08c379a00000000000000000000000000000000000000000000000000000000081526004018080602001828103825260208152602001807f4f776e61626c653a2063616c6c6572206973206e6f7420746865206f776e657281525060200191505060405180910390fd5b600073ffffffffffffffffffffffffffffffffffffffff166000809054906101000a900473ffffffffffffffffffffffffffffffffffffffff1673ffffffffffffffffffffffffffffffffffffffff167f8be0079c531659141344cd1fd0a4f28419497f9722a3daafe3b4186f6b6457e060405160405180910390a360008060006101000a81548173ffffffffffffffffffffffffffffffffffffffff021916908373ffffffffffffffffffffffffffffffffffffffff160217905550565b6003818154811061097957fe5b906000526020600020016000915054906101000a900473ffffffffffffffffffffffffffffffffffffffff1681565b600460009054906101000a900473ffffffffffffffffffffffffffffffffffffffff1681565b60008060009054906101000a900473ffffffffffffffffffffffffffffffffffffffff16905090565b600080600160009054906101000a900473ffffffffffffffffffffffffffffffffffffffff1673ffffffffffffffffffffffffffffffffffffffff166313bc6d4b336040518263ffffffff1660e01b8152600401808273ffffffffffffffffffffffffffffffffffffffff1673ffffffffffffffffffffffffffffffffffffffff16815260200191505060206040518083038186803b158015610a9957600080fd5b505afa158015610aad573d6000803e3d6000fd5b505050506040513d6020811015610ac357600080fd5b8101908080519060200190929190505050610b46576040517f08c379a00000000000000000000000000000000000000000000000000000000081526004018080602001828103825260178152602001807f4d7573742062652073797374656d20636f6e747261637400000000000000000081525060200191505060405180910390fd5b6000600260008673ffffffffffffffffffffffffffffffffffffffff1673ffffffffffffffffffffffffffffffffffffffff16815260200190815260200160002060040160009054906101000a900460ff1690506000600260008673ffffffffffffffffffffffffffffffffffffffff1673ffffffffffffffffffffffffffffffffffffffff16815260200190815260200160002060040160009054906101000a900460ff16905081158015610bfa575080155b15610c1057600080809050935093505050610f0c565b6000610c53600160009054906101000a900473ffffffffffffffffffffffffffffffffffffffff1673ffffffffffffffffffffffffffffffffffffffff16611914565b905060008173ffffffffffffffffffffffffffffffffffffffff1663342833546040518163ffffffff1660e01b815260040160206040518083038186803b158015610c9d57600080fd5b505afa158015610cb1573d6000803e3d6000fd5b505050506040513d6020811015610cc757600080fd5b8101908080519060200190929190505050905060008415610cf457610ced838a846119aa565b9050610de3565b8273ffffffffffffffffffffffffffffffffffffffff1663ac41865a8a846040518363ffffffff1660e01b8152600401808373ffffffffffffffffffffffffffffffffffffffff1673ffffffffffffffffffffffffffffffffffffffff1681526020018273ffffffffffffffffffffffffffffffffffffffff1673ffffffffffffffffffffffffffffffffffffffff1681526020019250505060206040518083038186803b158015610da557600080fd5b505afa158015610db9573d6000803e3d6000fd5b505050506040513d6020811015610dcf57600080fd5b810190808051906020019092919050505090505b60008415610dfd57610df6848a856119aa565b9050610eec565b8373ffffffffffffffffffffffffffffffffffffffff1663ac41865a8a856040518363ffffffff1660e01b8152600401808373ffffffffffffffffffffffffffffffffffffffff1673ffffffffffffffffffffffffffffffffffffffff1681526020018273ffffffffffffffffffffffffffffffffffffffff1673ffffffffffffffffffffffffffffffffffffffff1681526020019250505060206040518083038186803b158015610eae57600080fd5b505afa158015610ec2573d6000803e3d6000fd5b505050506040513d6020811015610ed857600080fd5b810190808051906020019092919050505090505b6001610f018284611e2090919063ffffffff16565b975097505050505050505b9250929050565b60026020528060005260406000206000915090508060000160009054906101000a900473ffffffffffffffffffffffffffffffffffffffff16908060010160009054906101000a900473ffffffffffffffffffffffffffffffffffffffff16908060020154908060030154908060040160009054906101000a900460ff16905085565b610f9e61186b565b73ffffffffffffffffffffffffffffffffffffffff166000809054906101000a900473ffffffffffffffffffffffffffffffffffffffff1673ffffffffffffffffffffffffffffffffffffffff161461105f576040517f08c379a00000000000000000000000000000000000000000000000000000000081526004018080602001828103825260208152602001807f4f776e61626c653a2063616c6c6572206973206e6f7420746865206f776e657281525060200191505060405180910390fd5b600260008273ffffffffffffffffffffffffffffffffffffffff1673ffffffffffffffffffffffffffffffffffffffff16815260200190815260200160002060040160009054906101000a900460ff1615611105576040517f08c379a00000000000000000000000000000000000000000000000000000000081526004018080602001828103825260228152602001806128a86022913960400191505060405180910390fd5b60008190508073ffffffffffffffffffffffffffffffffffffffff16630dfe16816040518163ffffffff1660e01b815260040160206040518083038186803b15801561115057600080fd5b505afa158015611164573d6000803e3d6000fd5b505050506040513d602081101561117a57600080fd5b8101908080519060200190929190505050600260008473ffffffffffffffffffffffffffffffffffffffff1673ffffffffffffffffffffffffffffffffffffffff16815260200190815260200160002060000160006101000a81548173ffffffffffffffffffffffffffffffffffffffff021916908373ffffffffffffffffffffffffffffffffffffffff1602179055508073ffffffffffffffffffffffffffffffffffffffff1663d21220a76040518163ffffffff1660e01b815260040160206040518083038186803b15801561125157600080fd5b505afa158015611265573d6000803e3d6000fd5b505050506040513d602081101561127b57600080fd5b8101908080519060200190929190505050600260008473ffffffffffffffffffffffffffffffffffffffff1673ffffffffffffffffffffffffffffffffffffffff16815260200190815260200160002060010160006101000a81548173ffffffffffffffffffffffffffffffffffffffff021916908373ffffffffffffffffffffffffffffffffffffffff1602179055506000600260008473ffffffffffffffffffffffffffffffffffffffff1673ffffffffffffffffffffffffffffffffffffffff16815260200190815260200160002060000160009054906101000a900473ffffffffffffffffffffffffffffffffffffffff1673ffffffffffffffffffffffffffffffffffffffff1663313ce5676040518163ffffffff1660e01b815260040160206040518083038186803b1580156113b657600080fd5b505afa1580156113ca573d6000803e3d6000fd5b505050506040513d60208110156113e057600080fd5b810190808051906020019092919050505060ff16905080600a0a600260008573ffffffffffffffffffffffffffffffffffffffff1673ffffffffffffffffffffffffffffffffffffffff168152602001908152602001600020600201819055506000600260008573ffffffffffffffffffffffffffffffffffffffff1673ffffffffffffffffffffffffffffffffffffffff16815260200190815260200160002060010160009054906101000a900473ffffffffffffffffffffffffffffffffffffffff1673ffffffffffffffffffffffffffffffffffffffff1663313ce5676040518163ffffffff1660e01b815260040160206040518083038186803b1580156114ea57600080fd5b505afa1580156114fe573d6000803e3d6000fd5b505050506040513d602081101561151457600080fd5b810190808051906020019092919050505060ff16905080600a0a600260008673ffffffffffffffffffffffffffffffffffffffff1673ffffffffffffffffffffffffffffffffffffffff168152602001908152602001600020600301819055506001600260008673ffffffffffffffffffffffffffffffffffffffff1673ffffffffffffffffffffffffffffffffffffffff16815260200190815260200160002060040160006101000a81548160ff0219169083151502179055506003849080600181540180825580915050600190039060005260206000200160009091909190916101000a81548173ffffffffffffffffffffffffffffffffffffffff021916908373ffffffffffffffffffffffffffffffffffffffff16021790555050505050565b61164061186b565b73ffffffffffffffffffffffffffffffffffffffff166000809054906101000a900473ffffffffffffffffffffffffffffffffffffffff1673ffffffffffffffffffffffffffffffffffffffff1614611701576040517f08c379a00000000000000000000000000000000000000000000000000000000081526004018080602001828103825260208152602001807f4f776e61626c653a2063616c6c6572206973206e6f7420746865206f776e657281525060200191505060405180910390fd5b600073ffffffffffffffffffffffffffffffffffffffff168173ffffffffffffffffffffffffffffffffffffffff161415611787576040517f08c379a000000000000000000000000000000000000000000000000000000000815260040180806020018281038252602681526020018061285d6026913960400191505060405180910390fd5b8073ffffffffffffffffffffffffffffffffffffffff166000809054906101000a900473ffffffffffffffffffffffffffffffffffffffff1673ffffffffffffffffffffffffffffffffffffffff167f8be0079c531659141344cd1fd0a4f28419497f9722a3daafe3b4186f6b6457e060405160405180910390a3806000806101000a81548173ffffffffffffffffffffffffffffffffffffffff021916908373ffffffffffffffffffffffffffffffffffffffff16021790555050565b600160009054906101000a900473ffffffffffffffffffffffffffffffffffffffff1681565b600033905090565b60606000806118828585611e57565b91509150806118f9576040517f08c379a00000000000000000000000000000000000000000000000000000000081526004018080602001828103825260158152602001807f41646472657373206e6f7420696e2061727261792e000000000000000000000081525060200191505060405180910390fd5b60606119058684611f01565b50905080935050505092915050565b60008173ffffffffffffffffffffffffffffffffffffffff1663e765ced660016040518263ffffffff1660e01b81526004018082815260200191505060206040518083038186803b15801561196857600080fd5b505afa15801561197c573d6000803e3d6000fd5b505050506040513d602081101561199257600080fd5b81019080805190602001909291905050509050919050565b60006119b46127bc565b600260008573ffffffffffffffffffffffffffffffffffffffff1673ffffffffffffffffffffffffffffffffffffffff1681526020019081526020016000206040518060a00160405290816000820160009054906101000a900473ffffffffffffffffffffffffffffffffffffffff1673ffffffffffffffffffffffffffffffffffffffff1673ffffffffffffffffffffffffffffffffffffffff1681526020016001820160009054906101000a900473ffffffffffffffffffffffffffffffffffffffff1673ffffffffffffffffffffffffffffffffffffffff1673ffffffffffffffffffffffffffffffffffffffff16815260200160028201548152602001600382015481526020016004820160009054906101000a900460ff1615151515815250509050600084905060008673ffffffffffffffffffffffffffffffffffffffff1663ac41865a8460000151876040518363ffffffff1660e01b8152600401808373ffffffffffffffffffffffffffffffffffffffff1673ffffffffffffffffffffffffffffffffffffffff1681526020018273ffffffffffffffffffffffffffffffffffffffff1673ffffffffffffffffffffffffffffffffffffffff1681526020019250505060206040518083038186803b158015611b9757600080fd5b505afa158015611bab573d6000803e3d6000fd5b505050506040513d6020811015611bc157600080fd5b8101908080519060200190929190505050905060008773ffffffffffffffffffffffffffffffffffffffff1663ac41865a8560200151886040518363ffffffff1660e01b8152600401808373ffffffffffffffffffffffffffffffffffffffff1673ffffffffffffffffffffffffffffffffffffffff1681526020018273ffffffffffffffffffffffffffffffffffffffff1673ffffffffffffffffffffffffffffffffffffffff1681526020019250505060206040518083038186803b158015611c8b57600080fd5b505afa158015611c9f573d6000803e3d6000fd5b505050506040513d6020811015611cb557600080fd5b81019080805190602001909291905050509050600080611d00600460009054906101000a900473ffffffffffffffffffffffffffffffffffffffff16876000015188602001516120e2565b915091506000611d1d876040015184611e2090919063ffffffff16565b90506000611d38886060015184611e2090919063ffffffff16565b90506000611d73611d52878461220b90919063ffffffff16565b611d65898661220b90919063ffffffff16565b61224290919063ffffffff16565b905060008873ffffffffffffffffffffffffffffffffffffffff166318160ddd6040518163ffffffff1660e01b815260040160206040518083038186803b158015611dbd57600080fd5b505afa158015611dd1573d6000803e3d6000fd5b505050506040513d6020811015611de757600080fd5b81019080805190602001909291905050509050611e0d8183611e2090919063ffffffff16565b9a50505050505050505050509392505050565b6000611e4f82611e41670de0b6b3a7640000866122ca90919063ffffffff16565b61235090919063ffffffff16565b905092915050565b60008060008451905060008090505b81811015611ed0578473ffffffffffffffffffffffffffffffffffffffff16868281518110611e9157fe5b602002602001015173ffffffffffffffffffffffffffffffffffffffff161415611ec357806001935093505050611efa565b8080600101915050611e66565b507fffffffffffffffffffffffffffffffffffffffffffffffffffffffffffffffff600092509250505b9250929050565b60606000808451905084518410611f80576040517f08c379a00000000000000000000000000000000000000000000000000000000081526004018080602001828103825260188152602001807f496e646578206d757374206265203c2041206c656e677468000000000000000081525060200191505060405180910390fd5b60606001820367ffffffffffffffff81118015611f9c57600080fd5b50604051908082528060200260200182016040528015611fcb5781602001602082028036833780820191505090505b50905060008090505b8581101561204357868181518110611fe857fe5b6020026020010151828281518110611ffc57fe5b602002602001019073ffffffffffffffffffffffffffffffffffffffff16908173ffffffffffffffffffffffffffffffffffffffff16815250508080600101915050611fd4565b5060006001860190505b828110156120bf5786818151811061206157fe5b602002602001015182600183038151811061207857fe5b602002602001019073ffffffffffffffffffffffffffffffffffffffff16908173ffffffffffffffffffffffffffffffffffffffff1681525050808060010191505061204d565b50808686815181106120cd57fe5b60200260200101519350935050509250929050565b60008060006120f1858561239a565b509050600080612102888888612511565b73ffffffffffffffffffffffffffffffffffffffff16630902f1ac6040518163ffffffff1660e01b815260040160606040518083038186803b15801561214757600080fd5b505afa15801561215b573d6000803e3d6000fd5b505050506040513d606081101561217157600080fd5b81019080805190602001909291908051906020019092919080519060200190929190505050506dffffffffffffffffffffffffffff1691506dffffffffffffffffffffffffffff1691508273ffffffffffffffffffffffffffffffffffffffff168773ffffffffffffffffffffffffffffffffffffffff16146121f55780826121f8565b81815b8095508196505050505050935093915050565b600061223a670de0b6b3a764000061222c84866122ca90919063ffffffff16565b61235090919063ffffffff16565b905092915050565b6000808284019050838110156122c0576040517f08c379a000000000000000000000000000000000000000000000000000000000815260040180806020018281038252601b8152602001807f536166654d6174683a206164646974696f6e206f766572666c6f77000000000081525060200191505060405180910390fd5b8091505092915050565b6000808314156122dd576000905061234a565b60008284029050828482816122ee57fe5b0414612345576040517f08c379a00000000000000000000000000000000000000000000000000000000081526004018080602001828103825260218152602001806128ca6021913960400191505060405180910390fd5b809150505b92915050565b600061239283836040518060400160405280601a81526020017f536166654d6174683a206469766973696f6e206279207a65726f00000000000081525061266c565b905092915050565b6000808273ffffffffffffffffffffffffffffffffffffffff168473ffffffffffffffffffffffffffffffffffffffff161415612422576040517f08c379a00000000000000000000000000000000000000000000000000000000081526004018080602001828103825260258152602001806128836025913960400191505060405180910390fd5b8273ffffffffffffffffffffffffffffffffffffffff168473ffffffffffffffffffffffffffffffffffffffff161061245c57828461245f565b83835b8092508193505050600073ffffffffffffffffffffffffffffffffffffffff168273ffffffffffffffffffffffffffffffffffffffff16141561250a576040517f08c379a000000000000000000000000000000000000000000000000000000000815260040180806020018281038252601e8152602001807f556e697377617056324c6962726172793a205a45524f5f41444452455353000081525060200191505060405180910390fd5b9250929050565b6000806000612520858561239a565b91509150858282604051602001808373ffffffffffffffffffffffffffffffffffffffff1673ffffffffffffffffffffffffffffffffffffffff1660601b81526014018273ffffffffffffffffffffffffffffffffffffffff1673ffffffffffffffffffffffffffffffffffffffff1660601b8152601401925050506040516020818303038152906040528051906020012060405160200180807fff000000000000000000000000000000000000000000000000000000000000008152506001018373ffffffffffffffffffffffffffffffffffffffff1673ffffffffffffffffffffffffffffffffffffffff1660601b8152601401828152602001807f96e8ac4277198ff8b6f785478aa9a39f403cb768dd02cbee326c3e7da348845f815250602001925050506040516020818303038152906040528051906020012060001c925050509392505050565b60008083118290612718576040517f08c379a00000000000000000000000000000000000000000000000000000000081526004018080602001828103825283818151815260200191508051906020019080838360005b838110156126dd5780820151818401526020810190506126c2565b50505050905090810190601f16801561270a5780820380516001836020036101000a031916815260200191505b509250505060405180910390fd5b50600083858161272457fe5b049050809150509392505050565b8280548282559060005260206000209081019282156127ab579160200282015b828111156127aa5782518260006101000a81548173ffffffffffffffffffffffffffffffffffffffff021916908373ffffffffffffffffffffffffffffffffffffffff16021790555091602001919060010190612752565b5b5090506127b89190612819565b5090565b6040518060a00160405280600073ffffffffffffffffffffffffffffffffffffffff168152602001600073ffffffffffffffffffffffffffffffffffffffff16815260200160008152602001600081526020016000151581525090565b61285991905b8082111561285557600081816101000a81549073ffffffffffffffffffffffffffffffffffffffff02191690555060010161281f565b5090565b9056fe4f776e61626c653a206e6577206f776e657220697320746865207a65726f2061646472657373556e697377617056324c6962726172793a204944454e544943414c5f414444524553534553556e697377617020706f6f6c206164647265737320616c7265616479206164646564536166654d6174683a206d756c7469706c69636174696f6e206f766572666c6f77556e697377617020706f6f6c206164647265737320646f6573206e6f74206578697374a26469706673582212204c17372f32ebd754fff226139df9af77f060fe9a30b93fb661ffb2f2facea90a64736f6c634300060a0033556e697377617020706f6f6c2061646472657373206d75737420626520756e697175652e",
  "immutableReferences": {},
  "source": "/*\n    Copyright 2020 Set Labs Inc.\n\n    Licensed under the Apache License, Version 2.0 (the \"License\");\n    you may not use this file except in compliance with the License.\n    You may obtain a copy of the License at\n\n    http://www.apache.org/licenses/LICENSE-2.0\n\n    Unless required by applicable law or agreed to in writing, software\n    distributed under the License is distributed on an \"AS IS\" BASIS,\n    WITHOUT WARRANTIES OR CONDITIONS OF ANY KIND, either express or implied.\n    See the License for the specific language governing permissions and\n    limitations under the License.\n\n    SPDX-License-Identifier: Apache License, Version 2.0\n*/\n\npragma solidity 0.6.10;\n\nimport { ERC20 } from \"@openzeppelin/contracts/token/ERC20/ERC20.sol\";\nimport { Ownable } from \"@openzeppelin/contracts/access/Ownable.sol\";\nimport { SafeMath } from \"@openzeppelin/contracts/math/SafeMath.sol\";\n\nimport { AddressArrayUtils } from \"../../lib/AddressArrayUtils.sol\";\nimport { IController } from \"../../interfaces/IController.sol\";\nimport { IPriceOracle } from \"../../interfaces/IPriceOracle.sol\";\nimport { IUniswapV2Pair } from \"../../interfaces/external/IUniswapV2Pair.sol\";\nimport { UniswapV2Library } from \"../../../external/contracts/uniswap/lib/UniswapV2Library.sol\";\nimport { PreciseUnitMath } from \"../../lib/PreciseUnitMath.sol\";\nimport { ResourceIdentifier } from \"../lib/ResourceIdentifier.sol\";\n\ncontract UniswapPairPriceAdapter is Ownable {\n    using AddressArrayUtils for address[];\n    using SafeMath for uint256;\n    using PreciseUnitMath for uint256;\n    using ResourceIdentifier for IController;\n\n    /* ============ Structs ============ */\n    \n    /**\n     * Struct containing information for get price function\n     */\n    struct PoolSettings {\n        address tokenOne;                   // Address of first token in reserve\n        address tokenTwo;                   // Address of second token in reserve\n        uint256 tokenOneBaseUnit;           // Token one base unit. E.g. ETH is 10e18, USDC is 10e6\n        uint256 tokenTwoBaseUnit;           // Token two base unit.\n        bool isValid;                       // Boolean that returns if Uniswap pool is allowed\n    }\n\n    /* ============ State Variables ============ */\n\n    // Instance of the Controller contract\n    IController public controller;\n\n    // Uniswap allowed pools to settings mapping\n    mapping(address => PoolSettings) public uniswapPoolsToSettings;\n\n    // Uniswap allowed pools\n    address[] public allowedUniswapPools;\n\n    // Address of Uniswap factory\n    address public uniswapFactory;\n\n    /* ============ Constructor ============ */\n\n    /**\n     * Set state variables\n     *\n     * @param _controller         Instance of controller contract\n     * @param _uniswapFactory     Address of Uniswap factory\n     * @param _uniswapPools       Array of allowed Uniswap pools\n     */\n    constructor(\n        IController _controller,\n        address _uniswapFactory,\n        IUniswapV2Pair[] memory _uniswapPools\n    )\n        public\n    {\n        controller = _controller;\n        uniswapFactory = _uniswapFactory;\n\n        // Add each of initial addresses to state\n        for (uint256 i = 0; i < _uniswapPools.length; i++) {\n            IUniswapV2Pair uniswapPoolToAdd = _uniswapPools[i];\n\n            // Require pools are unique\n            require(\n                !uniswapPoolsToSettings[address(uniswapPoolToAdd)].isValid,\n                \"Uniswap pool address must be unique.\"\n            );\n\n            // Initialize pool settings\n            PoolSettings memory poolSettings;\n            poolSettings.tokenOne = uniswapPoolToAdd.token0();\n            poolSettings.tokenTwo = uniswapPoolToAdd.token1();\n            uint256 tokenOneDecimals = ERC20(poolSettings.tokenOne).decimals();\n            poolSettings.tokenOneBaseUnit = 10 ** tokenOneDecimals;\n            uint256 tokenTwoDecimals = ERC20(poolSettings.tokenTwo).decimals();\n            poolSettings.tokenTwoBaseUnit = 10 ** tokenTwoDecimals;\n            poolSettings.isValid = true;\n\n            // Add to storage\n            allowedUniswapPools.push(address(uniswapPoolToAdd));\n            uniswapPoolsToSettings[address(uniswapPoolToAdd)] = poolSettings;\n        } \n    }\n\n    /* ============ External Functions ============ */\n\n    /**\n     * Calculate price from Uniswap. Note: must be system contract to be able to retrieve price. If both assets are\n     * not Uniswap pool, return false.\n     *\n     * @param _assetOne         Address of first asset in pair\n     * @param _assetTwo         Address of second asset in pair\n     */\n    function getPrice(address _assetOne, address _assetTwo) external view returns (bool, uint256) {\n        require(controller.isSystemContract(msg.sender), \"Must be system contract\");\n\n        bool isAllowedUniswapPoolOne = uniswapPoolsToSettings[_assetOne].isValid;\n        bool isAllowedUniswapPoolTwo = uniswapPoolsToSettings[_assetTwo].isValid;\n\n        // If assetOne and assetTwo are both not Uniswap pools, then return false\n        if (!isAllowedUniswapPoolOne && !isAllowedUniswapPoolTwo) {\n            return (false, 0);\n        }\n\n        IPriceOracle priceOracle = controller.getPriceOracle();\n        address masterQuoteAsset = priceOracle.masterQuoteAsset();\n\n        uint256 assetOnePriceToMaster;\n        if(isAllowedUniswapPoolOne) {\n            assetOnePriceToMaster = _getUniswapPrice(priceOracle, _assetOne, masterQuoteAsset);\n        } else {\n            assetOnePriceToMaster = priceOracle.getPrice(_assetOne, masterQuoteAsset);\n        }\n\n        uint256 assetTwoPriceToMaster;\n        if(isAllowedUniswapPoolTwo) {\n            assetTwoPriceToMaster = _getUniswapPrice(priceOracle, _assetTwo, masterQuoteAsset);\n        } else {\n            assetTwoPriceToMaster = priceOracle.getPrice(_assetTwo, masterQuoteAsset);\n        }\n\n        return (true, assetOnePriceToMaster.preciseDiv(assetTwoPriceToMaster));\n    }\n\n    function addPool(address _poolAddress) external onlyOwner {\n        require (\n            !uniswapPoolsToSettings[_poolAddress].isValid,\n            \"Uniswap pool address already added\"\n        );\n        IUniswapV2Pair poolToken = IUniswapV2Pair(_poolAddress);\n\n        uniswapPoolsToSettings[_poolAddress].tokenOne = poolToken.token0();\n        uniswapPoolsToSettings[_poolAddress].tokenTwo = poolToken.token1();\n        uint256 tokenOneDecimals = ERC20(uniswapPoolsToSettings[_poolAddress].tokenOne).decimals();\n        uniswapPoolsToSettings[_poolAddress].tokenOneBaseUnit = 10 ** tokenOneDecimals;\n        uint256 tokenTwoDecimals = ERC20(uniswapPoolsToSettings[_poolAddress].tokenTwo).decimals();\n        uniswapPoolsToSettings[_poolAddress].tokenTwoBaseUnit = 10 ** tokenTwoDecimals;\n        uniswapPoolsToSettings[_poolAddress].isValid = true;\n\n        allowedUniswapPools.push(_poolAddress);\n    }\n\n    function removePool(address _poolAddress) external onlyOwner {\n        require (\n            uniswapPoolsToSettings[_poolAddress].isValid,\n            \"Uniswap pool address does not exist\"\n        );\n\n        allowedUniswapPools = allowedUniswapPools.remove(_poolAddress);\n        delete uniswapPoolsToSettings[_poolAddress];\n    }\n\n    function getAllowedUniswapPools() external view returns (address[] memory) {\n        return allowedUniswapPools;\n    }\n\n\n    /* ============ Internal Functions ============ */\n\n    function _getUniswapPrice(\n        IPriceOracle _priceOracle,\n        address _poolAddress,\n        address _masterQuoteAsset\n    )\n        internal\n        view\n        returns (uint256)\n    {\n        PoolSettings memory poolInfo = uniswapPoolsToSettings[_poolAddress];\n        IUniswapV2Pair poolToken = IUniswapV2Pair(_poolAddress);\n        \n        // Get prices against master quote asset. Note: if prices do not exist, function will revert\n        uint256 tokenOnePriceToMaster = _priceOracle.getPrice(poolInfo.tokenOne, _masterQuoteAsset);\n        uint256 tokenTwoPriceToMaster = _priceOracle.getPrice(poolInfo.tokenTwo, _masterQuoteAsset);\n\n        // Get reserve amounts\n        (\n            uint256 tokenOneReserves,\n            uint256 tokenTwoReserves\n        ) = UniswapV2Library.getReserves(uniswapFactory, poolInfo.tokenOne, poolInfo.tokenTwo);\n\n        uint256 normalizedTokenOneBaseUnit = tokenOneReserves.preciseDiv(poolInfo.tokenOneBaseUnit);\n        uint256 normalizedTokenBaseTwoUnits = tokenTwoReserves.preciseDiv(poolInfo.tokenTwoBaseUnit);\n\n        uint256 totalNotionalToMaster = normalizedTokenOneBaseUnit.preciseMul(tokenOnePriceToMaster).add(normalizedTokenBaseTwoUnits.preciseMul(tokenTwoPriceToMaster));\n        uint256 totalSupply = poolToken.totalSupply();\n\n        return totalNotionalToMaster.preciseDiv(totalSupply);\n    }\n}",
  "sourcePath": "/Users/tahadhailey/Documents/top5/top5swap/swap/contracts/protocol/integration/UniswapPairPriceAdapter.sol",
  "compiler": {
    "name": "solc",
    "version": "0.6.10+commit.00c0fcaf.Emscripten.clang"
  },
  "schemaVersion": "3.2.1",
  "updatedAt": "2021-01-21T08:20:37.699Z",
  "devdoc": {
    "methods": {
      "constructor": {
        "params": {
          "_controller": "Instance of controller contract",
          "_uniswapFactory": "Address of Uniswap factory",
          "_uniswapPools": "Array of allowed Uniswap pools"
        }
      },
      "getPrice(address,address)": {
        "params": {
          "_assetOne": "Address of first asset in pair",
          "_assetTwo": "Address of second asset in pair"
        }
      },
      "owner()": {
        "details": "Returns the address of the current owner."
      },
      "renounceOwnership()": {
        "details": "Leaves the contract without owner. It will not be possible to call `onlyOwner` functions anymore. Can only be called by the current owner. NOTE: Renouncing ownership will leave the contract without an owner, thereby removing any functionality that is only available to the owner."
      },
      "transferOwnership(address)": {
        "details": "Transfers ownership of the contract to a new account (`newOwner`). Can only be called by the current owner."
      }
    }
  },
  "userdoc": {
    "methods": {
      "constructor": "Set state variables",
      "getPrice(address,address)": {
        "notice": "Calculate price from Uniswap. Note: must be system contract to be able to retrieve price. If both assets are not Uniswap pool, return false."
      }
    }
  }
}