{
  "contractName": "UniswapYieldStrategy",
  "abi": [
    {
      "inputs": [
        {
          "internalType": "contract IController",
          "name": "_controller",
          "type": "address"
        },
        {
          "internalType": "contract IUniswapV2Router",
          "name": "_uniswapRouter",
          "type": "address"
        },
        {
          "internalType": "contract IUniswapV2Pair",
          "name": "_lpToken",
          "type": "address"
        },
        {
          "internalType": "contract IERC20",
          "name": "_assetOne",
          "type": "address"
        },
        {
          "internalType": "contract IERC20",
          "name": "_assetTwo",
          "type": "address"
        },
        {
          "internalType": "contract IERC20",
          "name": "_uni",
          "type": "address"
        },
        {
          "internalType": "contract IStakingRewards",
          "name": "_rewarder",
          "type": "address"
        },
        {
          "internalType": "address",
          "name": "_feeRecipient",
          "type": "address"
        }
      ],
      "stateMutability": "nonpayable",
      "type": "constructor"
    },
    {
      "inputs": [],
      "name": "assetOne",
      "outputs": [
        {
          "internalType": "contract IERC20",
          "name": "",
          "type": "address"
        }
      ],
      "stateMutability": "view",
      "type": "function"
    },
    {
      "inputs": [],
      "name": "assetOneBaseUnit",
      "outputs": [
        {
          "internalType": "uint256",
          "name": "",
          "type": "uint256"
        }
      ],
      "stateMutability": "view",
      "type": "function"
    },
    {
      "inputs": [],
      "name": "assetTwo",
      "outputs": [
        {
          "internalType": "contract IERC20",
          "name": "",
          "type": "address"
        }
      ],
      "stateMutability": "view",
      "type": "function"
    },
    {
      "inputs": [],
      "name": "assetTwoBaseUnit",
      "outputs": [
        {
          "internalType": "uint256",
          "name": "",
          "type": "uint256"
        }
      ],
      "stateMutability": "view",
      "type": "function"
    },
    {
      "inputs": [],
      "name": "controller",
      "outputs": [
        {
          "internalType": "contract IController",
          "name": "",
          "type": "address"
        }
      ],
      "stateMutability": "view",
      "type": "function"
    },
    {
      "inputs": [],
      "name": "feeRecipient",
      "outputs": [
        {
          "internalType": "address",
          "name": "",
          "type": "address"
        }
      ],
      "stateMutability": "view",
      "type": "function"
    },
    {
      "inputs": [],
      "name": "lpToken",
      "outputs": [
        {
          "internalType": "contract IUniswapV2Pair",
          "name": "",
          "type": "address"
        }
      ],
      "stateMutability": "view",
      "type": "function"
    },
    {
      "inputs": [],
      "name": "lpTokenBaseUnit",
      "outputs": [
        {
          "internalType": "uint256",
          "name": "",
          "type": "uint256"
        }
      ],
      "stateMutability": "view",
      "type": "function"
    },
    {
      "inputs": [],
      "name": "reservePercentage",
      "outputs": [
        {
          "internalType": "uint256",
          "name": "",
          "type": "uint256"
        }
      ],
      "stateMutability": "view",
      "type": "function"
    },
    {
      "inputs": [],
      "name": "rewardFee",
      "outputs": [
        {
          "internalType": "uint256",
          "name": "",
          "type": "uint256"
        }
      ],
      "stateMutability": "view",
      "type": "function"
    },
    {
      "inputs": [],
      "name": "rewarder",
      "outputs": [
        {
          "internalType": "contract IStakingRewards",
          "name": "",
          "type": "address"
        }
      ],
      "stateMutability": "view",
      "type": "function"
    },
    {
      "inputs": [],
      "name": "setToken",
      "outputs": [
        {
          "internalType": "contract ISetToken",
          "name": "",
          "type": "address"
        }
      ],
      "stateMutability": "view",
      "type": "function"
    },
    {
      "inputs": [],
      "name": "slippageTolerance",
      "outputs": [
        {
          "internalType": "uint256",
          "name": "",
          "type": "uint256"
        }
      ],
      "stateMutability": "view",
      "type": "function"
    },
    {
      "inputs": [],
      "name": "uni",
      "outputs": [
        {
          "internalType": "contract IERC20",
          "name": "",
          "type": "address"
        }
      ],
      "stateMutability": "view",
      "type": "function"
    },
    {
      "inputs": [],
      "name": "uniswapRouter",
      "outputs": [
        {
          "internalType": "contract IUniswapV2Router",
          "name": "",
          "type": "address"
        }
      ],
      "stateMutability": "view",
      "type": "function"
    },
    {
      "inputs": [],
      "name": "withdrawalFee",
      "outputs": [
        {
          "internalType": "uint256",
          "name": "",
          "type": "uint256"
        }
      ],
      "stateMutability": "view",
      "type": "function"
    },
    {
      "inputs": [],
      "name": "engage",
      "outputs": [],
      "stateMutability": "nonpayable",
      "type": "function"
    },
    {
      "inputs": [],
      "name": "disengage",
      "outputs": [],
      "stateMutability": "nonpayable",
      "type": "function"
    },
    {
      "inputs": [],
      "name": "reap",
      "outputs": [],
      "stateMutability": "nonpayable",
      "type": "function"
    },
    {
      "inputs": [],
      "name": "rebalance",
      "outputs": [],
      "stateMutability": "nonpayable",
      "type": "function"
    },
    {
      "inputs": [
        {
          "internalType": "uint256",
          "name": "_sellTokenQuantity",
          "type": "uint256"
        }
      ],
      "name": "rebalanceSome",
      "outputs": [],
      "stateMutability": "nonpayable",
      "type": "function"
    },
    {
      "inputs": [
        {
          "internalType": "uint256",
          "name": "_setTokenQuantity",
          "type": "uint256"
        }
      ],
      "name": "unstakeAndRedeem",
      "outputs": [],
      "stateMutability": "nonpayable",
      "type": "function"
    },
    {
      "inputs": [
        {
          "internalType": "contract ISetToken",
          "name": "_setToken",
          "type": "address"
        },
        {
          "internalType": "uint256",
          "name": "_reservePercentage",
          "type": "uint256"
        },
        {
          "internalType": "uint256",
          "name": "_slippageTolerance",
          "type": "uint256"
        },
        {
          "internalType": "uint256",
          "name": "_rewardFee",
          "type": "uint256"
        },
        {
          "internalType": "uint256",
          "name": "_withdrawalFee",
          "type": "uint256"
        }
      ],
      "name": "initialize",
      "outputs": [],
      "stateMutability": "nonpayable",
      "type": "function"
    },
    {
      "inputs": [],
      "name": "removeModule",
      "outputs": [],
      "stateMutability": "nonpayable",
      "type": "function"
    }
  ],
  "bytecode": "0x60806040523480156200001157600080fd5b50604051620064bf380380620064bf8339818101604052810190620000379190620004f2565b87806000806101000a81548173ffffffffffffffffffffffffffffffffffffffff021916908373ffffffffffffffffffffffffffffffffffffffff1602179055505060018081905550876000806101000a81548173ffffffffffffffffffffffffffffffffffffffff021916908373ffffffffffffffffffffffffffffffffffffffff16021790555086600260006101000a81548173ffffffffffffffffffffffffffffffffffffffff021916908373ffffffffffffffffffffffffffffffffffffffff16021790555085600360006101000a81548173ffffffffffffffffffffffffffffffffffffffff021916908373ffffffffffffffffffffffffffffffffffffffff16021790555084600460006101000a81548173ffffffffffffffffffffffffffffffffffffffff021916908373ffffffffffffffffffffffffffffffffffffffff16021790555083600560006101000a81548173ffffffffffffffffffffffffffffffffffffffff021916908373ffffffffffffffffffffffffffffffffffffffff16021790555082600660006101000a81548173ffffffffffffffffffffffffffffffffffffffff021916908373ffffffffffffffffffffffffffffffffffffffff16021790555081600860006101000a81548173ffffffffffffffffffffffffffffffffffffffff021916908373ffffffffffffffffffffffffffffffffffffffff16021790555080600760006101000a81548173ffffffffffffffffffffffffffffffffffffffff021916908373ffffffffffffffffffffffffffffffffffffffff16021790555060008573ffffffffffffffffffffffffffffffffffffffff1663313ce5676040518163ffffffff1660e01b815260040160206040518083038186803b158015620002d057600080fd5b505afa158015620002e5573d6000803e3d6000fd5b505050506040513d601f19601f820116820180604052508101906200030b9190620005b5565b60ff16905080600a0a600e8190555060008573ffffffffffffffffffffffffffffffffffffffff1663313ce5676040518163ffffffff1660e01b815260040160206040518083038186803b1580156200036357600080fd5b505afa15801562000378573d6000803e3d6000fd5b505050506040513d601f19601f820116820180604052508101906200039e9190620005b5565b60ff16905080600a0a600f8190555060008873ffffffffffffffffffffffffffffffffffffffff1663313ce5676040518163ffffffff1660e01b815260040160206040518083038186803b158015620003f657600080fd5b505afa1580156200040b573d6000803e3d6000fd5b505050506040513d601f19601f82011682018060405250810190620004319190620005b5565b60ff16905080600a0a60108190555050505050505050505050506200073c565b600081519050620004628162000686565b92915050565b6000815190506200047981620006a0565b92915050565b6000815190506200049081620006ba565b92915050565b600081519050620004a781620006d4565b92915050565b600081519050620004be81620006ee565b92915050565b600081519050620004d58162000708565b92915050565b600081519050620004ec8162000722565b92915050565b600080600080600080600080610100898b0312156200051057600080fd5b6000620005208b828c0162000468565b9850506020620005338b828c01620004c4565b9750506040620005468b828c01620004ad565b9650506060620005598b828c016200047f565b95505060806200056c8b828c016200047f565b94505060a06200057f8b828c016200047f565b93505060c0620005928b828c0162000496565b92505060e0620005a58b828c0162000451565b9150509295985092959890939650565b600060208284031215620005c857600080fd5b6000620005d884828501620004db565b91505092915050565b6000620005ee8262000659565b9050919050565b60006200060282620005e1565b9050919050565b60006200061682620005e1565b9050919050565b60006200062a82620005e1565b9050919050565b60006200063e82620005e1565b9050919050565b60006200065282620005e1565b9050919050565b600073ffffffffffffffffffffffffffffffffffffffff82169050919050565b600060ff82169050919050565b6200069181620005e1565b81146200069d57600080fd5b50565b620006ab81620005f5565b8114620006b757600080fd5b50565b620006c58162000609565b8114620006d157600080fd5b50565b620006df816200061d565b8114620006eb57600080fd5b50565b620006f98162000631565b81146200070557600080fd5b50565b620007138162000645565b81146200071f57600080fd5b50565b6200072d8162000679565b81146200073957600080fd5b50565b615d73806200074c6000396000f3fe608060405234801561001057600080fd5b50600436106101585760003560e01c8063c72896ac116100c3578063ee63021a1161007c578063ee63021a14610327578063f26efb2214610331578063f37a7eec1461034d578063f700c8291461036b578063f77c479114610389578063f92ad219146103a757610158565b8063c72896ac14610287578063d03153aa14610291578063dcc3e06e146102af578063e72133c2146102cd578063ed9cf58c146102eb578063edc9af951461030957610158565b80637d7c2a1c116101155780637d7c2a1c146101fb578063847ef08d14610205578063866ce7011461020f5780638b4242671461022d5780638bc7e8c41461024b578063a193c18d1461026957610158565b806315656ea51461015d57806343b1878a1461017b57806346904840146101975780634a166f68146101b55780635fcbd285146101bf578063735de9f7146101dd575b600080fd5b6101656103c3565b6040516101729190615924565b60405180910390f35b61019560048036038101906101909190614d65565b6103c9565b005b61019f610c0e565b6040516101ac9190615406565b60405180910390f35b6101bd610c34565b005b6101c7610c93565b6040516101d491906156ec565b60405180910390f35b6101e5610cb9565b6040516101f29190615707565b60405180910390f35b610203610cdf565b005b61020d610d48565b005b610217610ec6565b60405161022491906155ae565b60405180910390f35b610235610eec565b6040516102429190615924565b60405180910390f35b610253610ef2565b6040516102609190615924565b60405180910390f35b610271610ef8565b60405161027e91906155ae565b60405180910390f35b61028f610f1e565b005b610299610f85565b6040516102a69190615924565b60405180910390f35b6102b7610f8b565b6040516102c491906156d1565b60405180910390f35b6102d5610fb1565b6040516102e29190615924565b60405180910390f35b6102f3610fb7565b60405161030091906156b6565b60405180910390f35b610311610fdd565b60405161031e91906155ae565b60405180910390f35b61032f611003565b005b61034b60048036038101906103469190614d65565b61108b565b005b6103556110f4565b6040516103629190615924565b60405180910390f35b6103736110fa565b6040516103809190615924565b60405180910390f35b610391611100565b60405161039e9190615593565b60405180910390f35b6103c160048036038101906103bc9190614c76565b611125565b005b600f5481565b6002600154141561040f576040517f08c379a000000000000000000000000000000000000000000000000000000000815260040161040690615904565b60405180910390fd5b600260018190555080600960009054906101000a900473ffffffffffffffffffffffffffffffffffffffff1673ffffffffffffffffffffffffffffffffffffffff166370a08231336040518263ffffffff1660e01b81526004016104739190615421565b60206040518083038186803b15801561048b57600080fd5b505afa15801561049f573d6000803e3d6000fd5b505050506040513d601f19601f820116820180604052508101906104c39190614d8e565b1015610504576040517f08c379a00000000000000000000000000000000000000000000000000000000081526004016104fb90615824565b60405180910390fd5b600960009054906101000a900473ffffffffffffffffffffffffffffffffffffffff1673ffffffffffffffffffffffffffffffffffffffff16639dc29fac33836040518363ffffffff1660e01b815260040161056192919061543c565b600060405180830381600087803b15801561057b57600080fd5b505af115801561058f573d6000803e3d6000fd5b50505050600061066c600960009054906101000a900473ffffffffffffffffffffffffffffffffffffffff1673ffffffffffffffffffffffffffffffffffffffff166322ebeba4600360009054906101000a900473ffffffffffffffffffffffffffffffffffffffff16306040518363ffffffff1660e01b8152600401610617929190615465565b60206040518083038186803b15801561062f57600080fd5b505afa158015610643573d6000803e3d6000fd5b505050506040513d601f19601f820116820180604052508101906106679190614ced565b6112c7565b90506000610683838361131490919063ffffffff16565b905061068e8161134b565b60006106a5600d548361131490919063ffffffff16565b905061072a600360009054906101000a900473ffffffffffffffffffffffffffffffffffffffff16336106e184866114bb90919063ffffffff16565b600960009054906101000a900473ffffffffffffffffffffffffffffffffffffffff1673ffffffffffffffffffffffffffffffffffffffff16611505909392919063ffffffff16565b6107bd600360009054906101000a900473ffffffffffffffffffffffffffffffffffffffff16600760009054906101000a900473ffffffffffffffffffffffffffffffffffffffff1683600960009054906101000a900473ffffffffffffffffffffffffffffffffffffffff1673ffffffffffffffffffffffffffffffffffffffff16611505909392919063ffffffff16565b6000610894600960009054906101000a900473ffffffffffffffffffffffffffffffffffffffff1673ffffffffffffffffffffffffffffffffffffffff166366cb8d2f600460009054906101000a900473ffffffffffffffffffffffffffffffffffffffff166040518263ffffffff1660e01b815260040161083f9190615406565b60206040518083038186803b15801561085757600080fd5b505afa15801561086b573d6000803e3d6000fd5b505050506040513d601f19601f8201168201806040525081019061088f9190614ced565b6112c7565b905060006108ab868361131490919063ffffffff16565b905060006108c4600d548361131490919063ffffffff16565b9050610949600460009054906101000a900473ffffffffffffffffffffffffffffffffffffffff163361090084866114bb90919063ffffffff16565b600960009054906101000a900473ffffffffffffffffffffffffffffffffffffffff1673ffffffffffffffffffffffffffffffffffffffff16611505909392919063ffffffff16565b6109dc600460009054906101000a900473ffffffffffffffffffffffffffffffffffffffff16600760009054906101000a900473ffffffffffffffffffffffffffffffffffffffff1683600960009054906101000a900473ffffffffffffffffffffffffffffffffffffffff1673ffffffffffffffffffffffffffffffffffffffff16611505909392919063ffffffff16565b6000610ab3600960009054906101000a900473ffffffffffffffffffffffffffffffffffffffff1673ffffffffffffffffffffffffffffffffffffffff166366cb8d2f600560009054906101000a900473ffffffffffffffffffffffffffffffffffffffff166040518263ffffffff1660e01b8152600401610a5e9190615406565b60206040518083038186803b158015610a7657600080fd5b505afa158015610a8a573d6000803e3d6000fd5b505050506040513d601f19601f82011682018060405250810190610aae9190614ced565b6112c7565b90506000610aca898361131490919063ffffffff16565b90506000610ae3600d548361131490919063ffffffff16565b9050610b68600560009054906101000a900473ffffffffffffffffffffffffffffffffffffffff1633610b1f84866114bb90919063ffffffff16565b600960009054906101000a900473ffffffffffffffffffffffffffffffffffffffff1673ffffffffffffffffffffffffffffffffffffffff16611505909392919063ffffffff16565b610bfb600560009054906101000a900473ffffffffffffffffffffffffffffffffffffffff16600760009054906101000a900473ffffffffffffffffffffffffffffffffffffffff1683600960009054906101000a900473ffffffffffffffffffffffffffffffffffffffff1673ffffffffffffffffffffffffffffffffffffffff16611505909392919063ffffffff16565b5050505050505050506001808190555050565b600760009054906101000a900473ffffffffffffffffffffffffffffffffffffffff1681565b60026001541415610c7a576040517f08c379a0000000000000000000000000000000000000000000000000000000008152600401610c7190615904565b60405180910390fd5b6002600181905550610c8a611640565b60018081905550565b600360009054906101000a900473ffffffffffffffffffffffffffffffffffffffff1681565b600260009054906101000a900473ffffffffffffffffffffffffffffffffffffffff1681565b60026001541415610d25576040517f08c379a0000000000000000000000000000000000000000000000000000000008152600401610d1c90615904565b60405180910390fd5b6002600181905550610d37600061167d565b610d3f611c55565b60018081905550565b600960009054906101000a900473ffffffffffffffffffffffffffffffffffffffff1673ffffffffffffffffffffffffffffffffffffffff163373ffffffffffffffffffffffffffffffffffffffff1614610dd8576040517f08c379a0000000000000000000000000000000000000000000000000000000008152600401610dcf906157a4565b60405180910390fd5b6000600860009054906101000a900473ffffffffffffffffffffffffffffffffffffffff1673ffffffffffffffffffffffffffffffffffffffff166370a08231600960009054906101000a900473ffffffffffffffffffffffffffffffffffffffff166040518263ffffffff1660e01b8152600401610e579190615406565b60206040518083038186803b158015610e6f57600080fd5b505afa158015610e83573d6000803e3d6000fd5b505050506040513d601f19601f82011682018060405250810190610ea79190614d8e565b9050610eb28161134b565b610ebb816120f5565b610ec3611c55565b50565b600560009054906101000a900473ffffffffffffffffffffffffffffffffffffffff1681565b600c5481565b600d5481565b600460009054906101000a900473ffffffffffffffffffffffffffffffffffffffff1681565b60026001541415610f64576040517f08c379a0000000000000000000000000000000000000000000000000000000008152600401610f5b90615904565b60405180910390fd5b6002600181905550610f7461237e565b610f7c611640565b60018081905550565b600b5481565b600860009054906101000a900473ffffffffffffffffffffffffffffffffffffffff1681565b600e5481565b600960009054906101000a900473ffffffffffffffffffffffffffffffffffffffff1681565b600660009054906101000a900473ffffffffffffffffffffffffffffffffffffffff1681565b60026001541415611049576040517f08c379a000000000000000000000000000000000000000000000000000000000815260040161104090615904565b60405180910390fd5b600260018190555061105b600061167d565b60006110656128f5565b90506110708161134b565b611079816120f5565b611081611c55565b5060018081905550565b600260015414156110d1576040517f08c379a00000000000000000000000000000000000000000000000000000000081526004016110c890615904565b60405180910390fd5b60026001819055506110e28161167d565b6110ea611c55565b6001808190555050565b60105481565b600a5481565b6000809054906101000a900473ffffffffffffffffffffffffffffffffffffffff1681565b843361113182826129d2565b611170576040517f08c379a0000000000000000000000000000000000000000000000000000000008152600401611167906158e4565b60405180910390fd5b600073ffffffffffffffffffffffffffffffffffffffff16600960009054906101000a900473ffffffffffffffffffffffffffffffffffffffff1673ffffffffffffffffffffffffffffffffffffffff1614611201576040517f08c379a00000000000000000000000000000000000000000000000000000000081526004016111f8906157c4565b60405180910390fd5b86600960006101000a81548173ffffffffffffffffffffffffffffffffffffffff021916908373ffffffffffffffffffffffffffffffffffffffff16021790555085600a8190555084600b8190555083600c8190555082600d819055508673ffffffffffffffffffffffffffffffffffffffff16630ffe0f1e6040518163ffffffff1660e01b8152600401600060405180830381600087803b1580156112a657600080fd5b505af11580156112ba573d6000803e3d6000fd5b5050505050505050505050565b60008082121561130c576040517f08c379a0000000000000000000000000000000000000000000000000000000008152600401611303906157e4565b60405180910390fd5b819050919050565b6000611343670de0b6b3a76400006113358486612a8890919063ffffffff16565b612af890919063ffffffff16565b905092915050565b60608160405160240161135e9190615924565b6040516020818303038152906040527f2e1a7d4d000000000000000000000000000000000000000000000000000000007bffffffffffffffffffffffffffffffffffffffffffffffffffffffff19166020820180517bffffffffffffffffffffffffffffffffffffffffffffffffffffffff83818316178352505050509050600960009054906101000a900473ffffffffffffffffffffffffffffffffffffffff1673ffffffffffffffffffffffffffffffffffffffff16638f6f0332600860009054906101000a900473ffffffffffffffffffffffffffffffffffffffff166000846040518463ffffffff1660e01b815260040161145f9392919061552c565b600060405180830381600087803b15801561147957600080fd5b505af115801561148d573d6000803e3d6000fd5b505050506040513d6000823e3d601f19601f820116820180604052508101906114b69190614c35565b505050565b60006114fd83836040518060400160405280601e81526020017f536166654d6174683a207375627472616374696f6e206f766572666c6f770000815250612b42565b905092915050565b600081111561163a576060828260405160240161152392919061556a565b6040516020818303038152906040527fa9059cbb000000000000000000000000000000000000000000000000000000007bffffffffffffffffffffffffffffffffffffffffffffffffffffffff19166020820180517bffffffffffffffffffffffffffffffffffffffffffffffffffffffff838183161783525050505090508473ffffffffffffffffffffffffffffffffffffffff16638f6f0332856000846040518463ffffffff1660e01b81526004016115e09392919061552c565b600060405180830381600087803b1580156115fa57600080fd5b505af115801561160e573d6000803e3d6000fd5b505050506040513d6000823e3d601f19601f820116820180604052508101906116379190614c35565b50505b50505050565b61164a600061167d565b600080611655612b9d565b9150915060006116658383612c35565b905061167081613027565b611678611c55565b505050565b60008060008060006116c56000809054906101000a900473ffffffffffffffffffffffffffffffffffffffff1673ffffffffffffffffffffffffffffffffffffffff1661322a565b73ffffffffffffffffffffffffffffffffffffffff1663ac41865a600460009054906101000a900473ffffffffffffffffffffffffffffffffffffffff16600560009054906101000a900473ffffffffffffffffffffffffffffffffffffffff166040518363ffffffff1660e01b8152600401611743929190615465565b60206040518083038186803b15801561175b57600080fd5b505afa15801561176f573d6000803e3d6000fd5b505050506040513d601f19601f820116820180604052508101906117939190614d8e565b90506000600460009054906101000a900473ffffffffffffffffffffffffffffffffffffffff1673ffffffffffffffffffffffffffffffffffffffff166370a08231600960009054906101000a900473ffffffffffffffffffffffffffffffffffffffff166040518263ffffffff1660e01b81526004016118149190615406565b60206040518083038186803b15801561182c57600080fd5b505afa158015611840573d6000803e3d6000fd5b505050506040513d601f19601f820116820180604052508101906118649190614d8e565b90506000600560009054906101000a900473ffffffffffffffffffffffffffffffffffffffff1673ffffffffffffffffffffffffffffffffffffffff166370a08231600960009054906101000a900473ffffffffffffffffffffffffffffffffffffffff166040518263ffffffff1660e01b81526004016118e59190615406565b60206040518083038186803b1580156118fd57600080fd5b505afa158015611911573d6000803e3d6000fd5b505050506040513d601f19601f820116820180604052508101906119359190614d8e565b90506000611974600f54611966600e5461195888876132bd90919063ffffffff16565b612a8890919063ffffffff16565b612af890919063ffffffff16565b905080831115611a3257600460009054906101000a900473ffffffffffffffffffffffffffffffffffffffff169750600560009054906101000a900473ffffffffffffffffffffffffffffffffffffffff1696506119ee60026119e083866114bb90919063ffffffff16565b612af890919063ffffffff16565b9550611a2b600e54611a1d600f54611a0f888b61131490919063ffffffff16565b612a8890919063ffffffff16565b612af890919063ffffffff16565b9450611b1c565b600560009054906101000a900473ffffffffffffffffffffffffffffffffffffffff169750600460009054906101000a900473ffffffffffffffffffffffffffffffffffffffff169650611adc600e54611ace600f54611ac088611ab26002611aa48b8a6114bb90919063ffffffff16565b612af890919063ffffffff16565b61131490919063ffffffff16565b612a8890919063ffffffff16565b612af890919063ffffffff16565b9550611b19600f54611b0b600e54611afd888b6132bd90919063ffffffff16565b612a8890919063ffffffff16565b612af890919063ffffffff16565b94505b6000891115611b935785891115611b68576040517f08c379a0000000000000000000000000000000000000000000000000000000008152600401611b5f906158a4565b60405180910390fd5b611b8d86611b7f8b8861131490919063ffffffff16565b6132bd90919063ffffffff16565b94508895505b611bc1611bb2600b54611ba46132f4565b6114bb90919063ffffffff16565b8661131490919063ffffffff16565b9450611c3488600260009054906101000a900473ffffffffffffffffffffffffffffffffffffffff1688600960009054906101000a900473ffffffffffffffffffffffffffffffffffffffff1673ffffffffffffffffffffffffffffffffffffffff16613304909392919063ffffffff16565b6000861115611c4a57611c4988888888613435565b5b505050505050505050565b6000600960009054906101000a900473ffffffffffffffffffffffffffffffffffffffff1673ffffffffffffffffffffffffffffffffffffffff166318160ddd6040518163ffffffff1660e01b815260040160206040518083038186803b158015611cbf57600080fd5b505afa158015611cd3573d6000803e3d6000fd5b505050506040513d601f19601f82011682018060405250810190611cf79190614d8e565b90506000600460009054906101000a900473ffffffffffffffffffffffffffffffffffffffff1673ffffffffffffffffffffffffffffffffffffffff166370a08231600960009054906101000a900473ffffffffffffffffffffffffffffffffffffffff166040518263ffffffff1660e01b8152600401611d789190615406565b60206040518083038186803b158015611d9057600080fd5b505afa158015611da4573d6000803e3d6000fd5b505050506040513d601f19601f82011682018060405250810190611dc89190614d8e565b90506000600560009054906101000a900473ffffffffffffffffffffffffffffffffffffffff1673ffffffffffffffffffffffffffffffffffffffff166370a08231600960009054906101000a900473ffffffffffffffffffffffffffffffffffffffff166040518263ffffffff1660e01b8152600401611e499190615406565b60206040518083038186803b158015611e6157600080fd5b505afa158015611e75573d6000803e3d6000fd5b505050506040513d601f19601f82011682018060405250810190611e999190614d8e565b90506000600860009054906101000a900473ffffffffffffffffffffffffffffffffffffffff1673ffffffffffffffffffffffffffffffffffffffff166370a08231600960009054906101000a900473ffffffffffffffffffffffffffffffffffffffff166040518263ffffffff1660e01b8152600401611f1a9190615406565b60206040518083038186803b158015611f3257600080fd5b505afa158015611f46573d6000803e3d6000fd5b505050506040513d601f19601f82011682018060405250810190611f6a9190614d8e565b9050611fe4600460009054906101000a900473ffffffffffffffffffffffffffffffffffffffff16611f9c86866136c2565b600960009054906101000a900473ffffffffffffffffffffffffffffffffffffffff1673ffffffffffffffffffffffffffffffffffffffff166136df9092919063ffffffff16565b61205c600560009054906101000a900473ffffffffffffffffffffffffffffffffffffffff1661201486856136c2565b600960009054906101000a900473ffffffffffffffffffffffffffffffffffffffff1673ffffffffffffffffffffffffffffffffffffffff166136df9092919063ffffffff16565b6120ef600360009054906101000a900473ffffffffffffffffffffffffffffffffffffffff163061209561209088866136c2565b613888565b60405180602001604052806000815250600960009054906101000a900473ffffffffffffffffffffffffffffffffffffffff1673ffffffffffffffffffffffffffffffffffffffff166138f490949392919063ffffffff16565b50505050565b612188600360009054906101000a900473ffffffffffffffffffffffffffffffffffffffff16600260009054906101000a900473ffffffffffffffffffffffffffffffffffffffff1683600960009054906101000a900473ffffffffffffffffffffffffffffffffffffffff1673ffffffffffffffffffffffffffffffffffffffff16613304909392919063ffffffff16565b6060600460009054906101000a900473ffffffffffffffffffffffffffffffffffffffff16600560009054906101000a900473ffffffffffffffffffffffffffffffffffffffff1683600180600960009054906101000a900473ffffffffffffffffffffffffffffffffffffffff1661220b603c42613fb290919063ffffffff16565b60405160240161222197969594939291906155c9565b6040516020818303038152906040527fbaa2abde000000000000000000000000000000000000000000000000000000007bffffffffffffffffffffffffffffffffffffffffffffffffffffffff19166020820180517bffffffffffffffffffffffffffffffffffffffffffffffffffffffff83818316178352505050509050600960009054906101000a900473ffffffffffffffffffffffffffffffffffffffff1673ffffffffffffffffffffffffffffffffffffffff16638f6f0332600260009054906101000a900473ffffffffffffffffffffffffffffffffffffffff166000846040518463ffffffff1660e01b81526004016123229392919061552c565b600060405180830381600087803b15801561233c57600080fd5b505af1158015612350573d6000803e3d6000fd5b505050506040513d6000823e3d601f19601f820116820180604052508101906123799190614c35565b505050565b600960009054906101000a900473ffffffffffffffffffffffffffffffffffffffff1673ffffffffffffffffffffffffffffffffffffffff16638f6f0332600860009054906101000a900473ffffffffffffffffffffffffffffffffffffffff1660006040516024016040516020818303038152906040527f3d18b912000000000000000000000000000000000000000000000000000000007bffffffffffffffffffffffffffffffffffffffffffffffffffffffff19166020820180517bffffffffffffffffffffffffffffffffffffffffffffffffffffffff83818316178352505050506040518463ffffffff1660e01b81526004016124829392919061552c565b600060405180830381600087803b15801561249c57600080fd5b505af11580156124b0573d6000803e3d6000fd5b505050506040513d6000823e3d601f19601f820116820180604052508101906124d99190614c35565b506000600660009054906101000a900473ffffffffffffffffffffffffffffffffffffffff1673ffffffffffffffffffffffffffffffffffffffff166370a08231600960009054906101000a900473ffffffffffffffffffffffffffffffffffffffff166040518263ffffffff1660e01b81526004016125599190615406565b60206040518083038186803b15801561257157600080fd5b505afa158015612585573d6000803e3d6000fd5b505050506040513d601f19601f820116820180604052508101906125a99190614d8e565b90506000600460009054906101000a900473ffffffffffffffffffffffffffffffffffffffff1673ffffffffffffffffffffffffffffffffffffffff166370a08231600960009054906101000a900473ffffffffffffffffffffffffffffffffffffffff166040518263ffffffff1660e01b815260040161262a9190615406565b60206040518083038186803b15801561264257600080fd5b505afa158015612656573d6000803e3d6000fd5b505050506040513d601f19601f8201168201806040525081019061267a9190614d8e565b905061270f600660009054906101000a900473ffffffffffffffffffffffffffffffffffffffff16600260009054906101000a900473ffffffffffffffffffffffffffffffffffffffff1684600960009054906101000a900473ffffffffffffffffffffffffffffffffffffffff1673ffffffffffffffffffffffffffffffffffffffff16613304909392919063ffffffff16565b612760600660009054906101000a900473ffffffffffffffffffffffffffffffffffffffff16600460009054906101000a900473ffffffffffffffffffffffffffffffffffffffff16846001613435565b6000600460009054906101000a900473ffffffffffffffffffffffffffffffffffffffff1673ffffffffffffffffffffffffffffffffffffffff166370a08231600960009054906101000a900473ffffffffffffffffffffffffffffffffffffffff166040518263ffffffff1660e01b81526004016127df9190615406565b60206040518083038186803b1580156127f757600080fd5b505afa15801561280b573d6000803e3d6000fd5b505050506040513d601f19601f8201168201806040525081019061282f9190614d8e565b9050600061285a600c5461284c85856114bb90919063ffffffff16565b61131490919063ffffffff16565b90506128ef600460009054906101000a900473ffffffffffffffffffffffffffffffffffffffff16600760009054906101000a900473ffffffffffffffffffffffffffffffffffffffff1683600960009054906101000a900473ffffffffffffffffffffffffffffffffffffffff1673ffffffffffffffffffffffffffffffffffffffff16614007909392919063ffffffff16565b50505050565b6000806000612902614193565b9150915060008060008061291461427a565b9350935093509350838210801561292a57508281105b612969576040517f08c379a000000000000000000000000000000000000000000000000000000000815260040161296090615764565b60405180910390fd5b60006129908761298285886114bb90919063ffffffff16565b6132bd90919063ffffffff16565b905060006129b9876129ab85886114bb90919063ffffffff16565b6132bd90919063ffffffff16565b90506129c5828261449f565b9850505050505050505090565b60008173ffffffffffffffffffffffffffffffffffffffff168373ffffffffffffffffffffffffffffffffffffffff1663481c6a756040518163ffffffff1660e01b815260040160206040518083038186803b158015612a3157600080fd5b505afa158015612a45573d6000803e3d6000fd5b505050506040513d601f19601f82011682018060405250810190612a699190614ba2565b73ffffffffffffffffffffffffffffffffffffffff1614905092915050565b600080831415612a9b5760009050612af2565b6000828402905082848281612aac57fe5b0414612aed576040517f08c379a0000000000000000000000000000000000000000000000000000000008152600401612ae490615844565b60405180910390fd5b809150505b92915050565b6000612b3a83836040518060400160405280601a81526020017f536166654d6174683a206469766973696f6e206279207a65726f0000000000008152506144b9565b905092915050565b6000838311158290612b8a576040517f08c379a0000000000000000000000000000000000000000000000000000000008152600401612b819190615722565b60405180910390fd5b5060008385039050809150509392505050565b600080600080600080612bae61427a565b93509350935093508382118015612bc457508281115b612c03576040517f08c379a0000000000000000000000000000000000000000000000000000000008152600401612bfa90615744565b60405180910390fd5b612c1684836114bb90919063ffffffff16565b612c2984836114bb90919063ffffffff16565b95509550505050509091565b6000612cca600460009054906101000a900473ffffffffffffffffffffffffffffffffffffffff16600260009054906101000a900473ffffffffffffffffffffffffffffffffffffffff1685600960009054906101000a900473ffffffffffffffffffffffffffffffffffffffff1673ffffffffffffffffffffffffffffffffffffffff16613304909392919063ffffffff16565b612d5d600560009054906101000a900473ffffffffffffffffffffffffffffffffffffffff16600260009054906101000a900473ffffffffffffffffffffffffffffffffffffffff1684600960009054906101000a900473ffffffffffffffffffffffffffffffffffffffff1673ffffffffffffffffffffffffffffffffffffffff16613304909392919063ffffffff16565b6060600460009054906101000a900473ffffffffffffffffffffffffffffffffffffffff16600560009054906101000a900473ffffffffffffffffffffffffffffffffffffffff168585600180600960009054906101000a900473ffffffffffffffffffffffffffffffffffffffff16612de1603c42613fb290919063ffffffff16565b604051602401612df8989796959493929190615638565b6040516020818303038152906040527fe8e33700000000000000000000000000000000000000000000000000000000007bffffffffffffffffffffffffffffffffffffffffffffffffffffffff19166020820180517bffffffffffffffffffffffffffffffffffffffffffffffffffffffff83818316178352505050509050600960009054906101000a900473ffffffffffffffffffffffffffffffffffffffff1673ffffffffffffffffffffffffffffffffffffffff16638f6f0332600260009054906101000a900473ffffffffffffffffffffffffffffffffffffffff166000846040518463ffffffff1660e01b8152600401612ef99392919061552c565b600060405180830381600087803b158015612f1357600080fd5b505af1158015612f27573d6000803e3d6000fd5b505050506040513d6000823e3d601f19601f82011682018060405250810190612f509190614c35565b50600360009054906101000a900473ffffffffffffffffffffffffffffffffffffffff1673ffffffffffffffffffffffffffffffffffffffff166370a08231600960009054906101000a900473ffffffffffffffffffffffffffffffffffffffff166040518263ffffffff1660e01b8152600401612fce9190615406565b60206040518083038186803b158015612fe657600080fd5b505afa158015612ffa573d6000803e3d6000fd5b505050506040513d601f19601f8201168201806040525081019061301e9190614d8e565b91505092915050565b6130ba600360009054906101000a900473ffffffffffffffffffffffffffffffffffffffff16600860009054906101000a900473ffffffffffffffffffffffffffffffffffffffff1683600960009054906101000a900473ffffffffffffffffffffffffffffffffffffffff1673ffffffffffffffffffffffffffffffffffffffff16613304909392919063ffffffff16565b6060816040516024016130cd9190615924565b6040516020818303038152906040527fa694fc3a000000000000000000000000000000000000000000000000000000007bffffffffffffffffffffffffffffffffffffffffffffffffffffffff19166020820180517bffffffffffffffffffffffffffffffffffffffffffffffffffffffff83818316178352505050509050600960009054906101000a900473ffffffffffffffffffffffffffffffffffffffff1673ffffffffffffffffffffffffffffffffffffffff16638f6f0332600860009054906101000a900473ffffffffffffffffffffffffffffffffffffffff166000846040518463ffffffff1660e01b81526004016131ce9392919061552c565b600060405180830381600087803b1580156131e857600080fd5b505af11580156131fc573d6000803e3d6000fd5b505050506040513d6000823e3d601f19601f820116820180604052508101906132259190614c35565b505050565b60008173ffffffffffffffffffffffffffffffffffffffff1663e765ced660016040518263ffffffff1660e01b81526004016132669190615924565b60206040518083038186803b15801561327e57600080fd5b505afa158015613292573d6000803e3d6000fd5b505050506040513d601f19601f820116820180604052508101906132b69190614ba2565b9050919050565b60006132ec826132de670de0b6b3a764000086612a8890919063ffffffff16565b612af890919063ffffffff16565b905092915050565b6000670de0b6b3a7640000905090565b6060828260405160240161331992919061556a565b6040516020818303038152906040527f095ea7b3000000000000000000000000000000000000000000000000000000007bffffffffffffffffffffffffffffffffffffffffffffffffffffffff19166020820180517bffffffffffffffffffffffffffffffffffffffffffffffffffffffff838183161783525050505090508473ffffffffffffffffffffffffffffffffffffffff16638f6f0332856000846040518463ffffffff1660e01b81526004016133d69392919061552c565b600060405180830381600087803b1580156133f057600080fd5b505af1158015613404573d6000803e3d6000fd5b505050506040513d6000823e3d601f19601f8201168201806040525081019061342d9190614c35565b505050505050565b6060600267ffffffffffffffff8111801561344f57600080fd5b5060405190808252806020026020018201604052801561347e5781602001602082028036833780820191505090505b509050848160008151811061348f57fe5b602002602001019073ffffffffffffffffffffffffffffffffffffffff16908173ffffffffffffffffffffffffffffffffffffffff168152505083816001815181106134d757fe5b602002602001019073ffffffffffffffffffffffffffffffffffffffff16908173ffffffffffffffffffffffffffffffffffffffff16815250506060838383600960009054906101000a900473ffffffffffffffffffffffffffffffffffffffff1661354d60b442613fb290919063ffffffff16565b60405160240161356195949392919061593f565b6040516020818303038152906040527f38ed1739000000000000000000000000000000000000000000000000000000007bffffffffffffffffffffffffffffffffffffffffffffffffffffffff19166020820180517bffffffffffffffffffffffffffffffffffffffffffffffffffffffff83818316178352505050509050600960009054906101000a900473ffffffffffffffffffffffffffffffffffffffff1673ffffffffffffffffffffffffffffffffffffffff16638f6f0332600260009054906101000a900473ffffffffffffffffffffffffffffffffffffffff166000846040518463ffffffff1660e01b81526004016136629392919061552c565b600060405180830381600087803b15801561367c57600080fd5b505af1158015613690573d6000803e3d6000fd5b505050506040513d6000823e3d601f19601f820116820180604052508101906136b99190614c35565b50505050505050565b60006136d783836132bd90919063ffffffff16565b905092915050565b60006136eb848461451a565b9050801580156136fb5750600082115b1561377f5761370a84846145af565b61377a578373ffffffffffffffffffffffffffffffffffffffff16634e353270846040518263ffffffff1660e01b81526004016137479190615406565b600060405180830381600087803b15801561376157600080fd5b505af1158015613775573d6000803e3d6000fd5b505050505b61380d565b80801561378c5750600082145b1561380c5761379b84846145af565b61380b578373ffffffffffffffffffffffffffffffffffffffff16636f86c897846040518263ffffffff1660e01b81526004016137d89190615406565b600060405180830381600087803b1580156137f257600080fd5b505af1158015613806573d6000803e3d6000fd5b505050505b5b5b8373ffffffffffffffffffffffffffffffffffffffff16632ba57d178461383385613888565b6040518363ffffffff1660e01b8152600401613850929190615503565b600060405180830381600087803b15801561386a57600080fd5b505af115801561387e573d6000803e3d6000fd5b5050505050505050565b60007f800000000000000000000000000000000000000000000000000000000000000082106138ec576040517f08c379a00000000000000000000000000000000000000000000000000000000081526004016138e3906158c4565b60405180910390fd5b819050919050565b60008214613c47578473ffffffffffffffffffffffffffffffffffffffff1663df5e9b29856040518263ffffffff1660e01b81526004016139359190615406565b60206040518083038186803b15801561394d57600080fd5b505afa158015613961573d6000803e3d6000fd5b505050506040513d601f19601f820116820180604052508101906139859190614c0c565b613a66578473ffffffffffffffffffffffffffffffffffffffff16634e353270856040518263ffffffff1660e01b81526004016139c29190615406565b600060405180830381600087803b1580156139dc57600080fd5b505af11580156139f0573d6000803e3d6000fd5b505050508473ffffffffffffffffffffffffffffffffffffffff1663ea0ee55985856040518363ffffffff1660e01b8152600401613a2f929190615465565b600060405180830381600087803b158015613a4957600080fd5b505af1158015613a5d573d6000803e3d6000fd5b50505050613b64565b8473ffffffffffffffffffffffffffffffffffffffff16637d96659385856040518363ffffffff1660e01b8152600401613aa1929190615465565b60206040518083038186803b158015613ab957600080fd5b505afa158015613acd573d6000803e3d6000fd5b505050506040513d601f19601f82011682018060405250810190613af19190614c0c565b613b63578473ffffffffffffffffffffffffffffffffffffffff1663ea0ee55985856040518363ffffffff1660e01b8152600401613b30929190615465565b600060405180830381600087803b158015613b4a57600080fd5b505af1158015613b5e573d6000803e3d6000fd5b505050505b5b8473ffffffffffffffffffffffffffffffffffffffff166363a90fc18585856040518463ffffffff1660e01b8152600401613ba1939291906154cc565b600060405180830381600087803b158015613bbb57600080fd5b505af1158015613bcf573d6000803e3d6000fd5b505050508473ffffffffffffffffffffffffffffffffffffffff166326898fe18585846040518463ffffffff1660e01b8152600401613c109392919061548e565b600060405180830381600087803b158015613c2a57600080fd5b505af1158015613c3e573d6000803e3d6000fd5b50505050613fab565b6000815114613c8b576040517f08c379a0000000000000000000000000000000000000000000000000000000008152600401613c8290615884565b60405180910390fd5b60008573ffffffffffffffffffffffffffffffffffffffff166322ebeba486866040518363ffffffff1660e01b8152600401613cc8929190615465565b60206040518083038186803b158015613ce057600080fd5b505afa158015613cf4573d6000803e3d6000fd5b505050506040513d601f19601f82011682018060405250810190613d189190614ced565b14613faa5760608573ffffffffffffffffffffffffffffffffffffffff1663a7bdad03866040518263ffffffff1660e01b8152600401613d589190615406565b60006040518083038186803b158015613d7057600080fd5b505afa158015613d84573d6000803e3d6000fd5b505050506040513d6000823e3d601f19601f82011682018060405250810190613dad9190614bcb565b905060008673ffffffffffffffffffffffffffffffffffffffff166366cb8d2f876040518263ffffffff1660e01b8152600401613dea9190615406565b60206040518083038186803b158015613e0257600080fd5b505afa158015613e16573d6000803e3d6000fd5b505050506040513d601f19601f82011682018060405250810190613e3a9190614ced565b148015613e48575060018151145b15613f3b578373ffffffffffffffffffffffffffffffffffffffff1681600081518110613e7157fe5b602002602001015173ffffffffffffffffffffffffffffffffffffffff1614613ecf576040517f08c379a0000000000000000000000000000000000000000000000000000000008152600401613ec690615804565b60405180910390fd5b8573ffffffffffffffffffffffffffffffffffffffff16636f86c897866040518263ffffffff1660e01b8152600401613f089190615406565b600060405180830381600087803b158015613f2257600080fd5b505af1158015613f36573d6000803e3d6000fd5b505050505b8573ffffffffffffffffffffffffffffffffffffffff1663acf3f07786866040518363ffffffff1660e01b8152600401613f76929190615465565b600060405180830381600087803b158015613f9057600080fd5b505af1158015613fa4573d6000803e3d6000fd5b50505050505b5b5050505050565b600080828401905083811015613ffd576040517f08c379a0000000000000000000000000000000000000000000000000000000008152600401613ff490615784565b60405180910390fd5b8091505092915050565b600081111561418d5760008373ffffffffffffffffffffffffffffffffffffffff166370a08231866040518263ffffffff1660e01b815260040161404b9190615406565b60206040518083038186803b15801561406357600080fd5b505afa158015614077573d6000803e3d6000fd5b505050506040513d601f19601f8201168201806040525081019061409b9190614d8e565b90506140a985858585611505565b60008473ffffffffffffffffffffffffffffffffffffffff166370a08231876040518263ffffffff1660e01b81526004016140e49190615406565b60206040518083038186803b1580156140fc57600080fd5b505afa158015614110573d6000803e3d6000fd5b505050506040513d601f19601f820116820180604052508101906141349190614d8e565b905061414983836114bb90919063ffffffff16565b811461418a576040517f08c379a000000000000000000000000000000000000000000000000000000000815260040161418190615864565b60405180910390fd5b50505b50505050565b6000806000806141a161464a565b915091506000600360009054906101000a900473ffffffffffffffffffffffffffffffffffffffff1673ffffffffffffffffffffffffffffffffffffffff166318160ddd6040518163ffffffff1660e01b815260040160206040518083038186803b15801561420f57600080fd5b505afa158015614223573d6000803e3d6000fd5b505050506040513d601f19601f820116820180604052508101906142479190614d8e565b905061425c81846132bd90919063ffffffff16565b61426f82846132bd90919063ffffffff16565b945094505050509091565b60008060008060008061428b614846565b915091506000600460009054906101000a900473ffffffffffffffffffffffffffffffffffffffff1673ffffffffffffffffffffffffffffffffffffffff166370a08231600960009054906101000a900473ffffffffffffffffffffffffffffffffffffffff166040518263ffffffff1660e01b815260040161430e9190615406565b60206040518083038186803b15801561432657600080fd5b505afa15801561433a573d6000803e3d6000fd5b505050506040513d601f19601f8201168201806040525081019061435e9190614d8e565b90506000600560009054906101000a900473ffffffffffffffffffffffffffffffffffffffff1673ffffffffffffffffffffffffffffffffffffffff166370a08231600960009054906101000a900473ffffffffffffffffffffffffffffffffffffffff166040518263ffffffff1660e01b81526004016143df9190615406565b60206040518083038186803b1580156143f757600080fd5b505afa15801561440b573d6000803e3d6000fd5b505050506040513d601f19601f8201168201806040525081019061442f9190614d8e565b9050600061445a600a5461444c8588613fb290919063ffffffff16565b61131490919063ffffffff16565b90506000614485600a546144778588613fb290919063ffffffff16565b61131490919063ffffffff16565b905081818585995099509950995050505050505090919293565b6000818310156144af57816144b1565b825b905092915050565b60008083118290614500576040517f08c379a00000000000000000000000000000000000000000000000000000000081526004016144f79190615722565b60405180910390fd5b50600083858161450c57fe5b049050809150509392505050565b6000808373ffffffffffffffffffffffffffffffffffffffff166366cb8d2f846040518263ffffffff1660e01b81526004016145569190615406565b60206040518083038186803b15801561456e57600080fd5b505afa158015614582573d6000803e3d6000fd5b505050506040513d601f19601f820116820180604052508101906145a69190614ced565b13905092915050565b6000808373ffffffffffffffffffffffffffffffffffffffff1663a7bdad03846040518263ffffffff1660e01b81526004016145eb9190615406565b60006040518083038186803b15801561460357600080fd5b505afa158015614617573d6000803e3d6000fd5b505050506040513d6000823e3d601f19601f820116820180604052508101906146409190614bcb565b5111905092915050565b6000806000600560009054906101000a900473ffffffffffffffffffffffffffffffffffffffff1673ffffffffffffffffffffffffffffffffffffffff16600460009054906101000a900473ffffffffffffffffffffffffffffffffffffffff1673ffffffffffffffffffffffffffffffffffffffff16106146ee57600560009054906101000a900473ffffffffffffffffffffffffffffffffffffffff16614712565b600460009054906101000a900473ffffffffffffffffffffffffffffffffffffffff165b9050600080600360009054906101000a900473ffffffffffffffffffffffffffffffffffffffff1673ffffffffffffffffffffffffffffffffffffffff16630902f1ac6040518163ffffffff1660e01b815260040160606040518083038186803b15801561477f57600080fd5b505afa158015614793573d6000803e3d6000fd5b505050506040513d601f19601f820116820180604052508101906147b79190614d16565b506dffffffffffffffffffffffffffff1691506dffffffffffffffffffffffffffff1691508273ffffffffffffffffffffffffffffffffffffffff16600460009054906101000a900473ffffffffffffffffffffffffffffffffffffffff1673ffffffffffffffffffffffffffffffffffffffff161461483857808261483b565b81815b945094505050509091565b60008060008061485461464a565b915091506000600360009054906101000a900473ffffffffffffffffffffffffffffffffffffffff1673ffffffffffffffffffffffffffffffffffffffff166318160ddd6040518163ffffffff1660e01b815260040160206040518083038186803b1580156148c257600080fd5b505afa1580156148d6573d6000803e3d6000fd5b505050506040513d601f19601f820116820180604052508101906148fa9190614d8e565b90506000600860009054906101000a900473ffffffffffffffffffffffffffffffffffffffff1673ffffffffffffffffffffffffffffffffffffffff166370a08231600960009054906101000a900473ffffffffffffffffffffffffffffffffffffffff166040518263ffffffff1660e01b815260040161497b9190615406565b60206040518083038186803b15801561499357600080fd5b505afa1580156149a7573d6000803e3d6000fd5b505050506040513d601f19601f820116820180604052508101906149cb9190614d8e565b90506149f2826149e48387612a8890919063ffffffff16565b612af890919063ffffffff16565b614a1783614a098487612a8890919063ffffffff16565b612af890919063ffffffff16565b95509550505050509091565b600081519050614a3281615c9c565b92915050565b600082601f830112614a4957600080fd5b8151614a5c614a57826159c6565b615999565b91508181835260208401935060208101905083856020840282011115614a8157600080fd5b60005b83811015614ab15781614a978882614a23565b845260208401935060208301925050600181019050614a84565b5050505092915050565b600081519050614aca81615cb3565b92915050565b600082601f830112614ae157600080fd5b8151614af4614aef826159ee565b615999565b91508082526020830160208301858383011115614b1057600080fd5b614b1b838284615c58565b50505092915050565b600081359050614b3381615cca565b92915050565b600081519050614b4881615ce1565b92915050565b600081519050614b5d81615cf8565b92915050565b600081359050614b7281615d0f565b92915050565b600081519050614b8781615d0f565b92915050565b600081519050614b9c81615d26565b92915050565b600060208284031215614bb457600080fd5b6000614bc284828501614a23565b91505092915050565b600060208284031215614bdd57600080fd5b600082015167ffffffffffffffff811115614bf757600080fd5b614c0384828501614a38565b91505092915050565b600060208284031215614c1e57600080fd5b6000614c2c84828501614abb565b91505092915050565b600060208284031215614c4757600080fd5b600082015167ffffffffffffffff811115614c6157600080fd5b614c6d84828501614ad0565b91505092915050565b600080600080600060a08688031215614c8e57600080fd5b6000614c9c88828901614b24565b9550506020614cad88828901614b63565b9450506040614cbe88828901614b63565b9350506060614ccf88828901614b63565b9250506080614ce088828901614b63565b9150509295509295909350565b600060208284031215614cff57600080fd5b6000614d0d84828501614b39565b91505092915050565b600080600060608486031215614d2b57600080fd5b6000614d3986828701614b4e565b9350506020614d4a86828701614b4e565b9250506040614d5b86828701614b8d565b9150509250925092565b600060208284031215614d7757600080fd5b6000614d8584828501614b63565b91505092915050565b600060208284031215614da057600080fd5b6000614dae84828501614b78565b91505092915050565b6000614dc38383614dde565b60208301905092915050565b614dd881615b26565b82525050565b614de781615a8b565b82525050565b614df681615a8b565b82525050565b6000614e0782615a2a565b614e118185615a58565b9350614e1c83615a1a565b8060005b83811015614e4d578151614e348882614db7565b9750614e3f83615a4b565b925050600181019050614e20565b5085935050505092915050565b6000614e6582615a35565b614e6f8185615a69565b9350614e7f818560208601615c58565b614e8881615c8b565b840191505092915050565b614e9c81615b38565b82525050565b614eab81615b5c565b82525050565b614eba81615b80565b82525050565b614ec981615ba4565b82525050565b614ed881615bc8565b82525050565b614ee781615bec565b82525050565b614ef681615abb565b82525050565b614f0581615c10565b82525050565b614f1481615c22565b82525050565b6000614f2582615a40565b614f2f8185615a7a565b9350614f3f818560208601615c58565b614f4881615c8b565b840191505092915050565b6000614f60602183615a7a565b91507f536574546f6b656e20617373657473206d757374206265203e2064657369726560008301527f64000000000000000000000000000000000000000000000000000000000000006020830152604082019050919050565b6000614fc6602183615a7a565b91507f536574546f6b656e20617373657473206d757374206265203c2064657369726560008301527f64000000000000000000000000000000000000000000000000000000000000006020830152604082019050919050565b600061502c601b83615a7a565b91507f536166654d6174683a206164646974696f6e206f766572666c6f7700000000006000830152602082019050919050565b600061506c601783615a7a565b91507f43616c6c6572206d75737420626520536574546f6b656e0000000000000000006000830152602082019050919050565b60006150ac601783615a7a565b91507f4d6179206f6e6c792062652063616c6c6564206f6e63650000000000000000006000830152602082019050919050565b60006150ec602083615a7a565b91507f53616665436173743a2076616c7565206d75737420626520706f7369746976656000830152602082019050919050565b600061512c603083615a7a565b91507f45787465726e616c20706f736974696f6e73206d757374206265203020746f2060008301527f72656d6f766520636f6d706f6e656e74000000000000000000000000000000006020830152604082019050919050565b6000615192602283615a7a565b91507f55736572206d75737420686176652073756666696369656e7420536574546f6b60008301527f656e0000000000000000000000000000000000000000000000000000000000006020830152604082019050919050565b60006151f8602183615a7a565b91507f536166654d6174683a206d756c7469706c69636174696f6e206f766572666c6f60008301527f77000000000000000000000000000000000000000000000000000000000000006020830152604082019050919050565b600061525e601d83615a7a565b91507f496e76616c696420706f7374207472616e736665722062616c616e63650000006000830152602082019050919050565b600061529e601883615a7a565b91507f5061737365642064617461206d757374206265206e756c6c00000000000000006000830152602082019050919050565b60006152de601b83615a7a565b91507f44656c7461206d757374206265206c657373207468616e206d617800000000006000830152602082019050919050565b600061531e602883615a7a565b91507f53616665436173743a2076616c756520646f65736e27742066697420696e206160008301527f6e20696e743235360000000000000000000000000000000000000000000000006020830152604082019050919050565b6000615384601c83615a7a565b91507f4d7573742062652074686520536574546f6b656e206d616e61676572000000006000830152602082019050919050565b60006153c4601f83615a7a565b91507f5265656e7472616e637947756172643a207265656e7472616e742063616c6c006000830152602082019050919050565b61540081615aff565b82525050565b600060208201905061541b6000830184614ded565b92915050565b60006020820190506154366000830184614dcf565b92915050565b60006040820190506154516000830185614dcf565b61545e60208301846153f7565b9392505050565b600060408201905061547a6000830185614ded565b6154876020830184614ded565b9392505050565b60006060820190506154a36000830186614ded565b6154b06020830185614ded565b81810360408301526154c28184614e5a565b9050949350505050565b60006060820190506154e16000830186614ded565b6154ee6020830185614ded565b6154fb6040830184614eed565b949350505050565b60006040820190506155186000830185614ded565b6155256020830184614eed565b9392505050565b60006060820190506155416000830186614ded565b61554e6020830185614efc565b81810360408301526155608184614e5a565b9050949350505050565b600060408201905061557f6000830185614ded565b61558c60208301846153f7565b9392505050565b60006020820190506155a86000830184614e93565b92915050565b60006020820190506155c36000830184614ea2565b92915050565b600060e0820190506155de600083018a614ea2565b6155eb6020830189614ea2565b6155f860408301886153f7565b6156056060830187614f0b565b6156126080830186614f0b565b61561f60a0830185614ded565b61562c60c08301846153f7565b98975050505050505050565b60006101008201905061564e600083018b614ea2565b61565b602083018a614ea2565b61566860408301896153f7565b61567560608301886153f7565b6156826080830187614f0b565b61568f60a0830186614f0b565b61569c60c0830185614ded565b6156a960e08301846153f7565b9998505050505050505050565b60006020820190506156cb6000830184614eb1565b92915050565b60006020820190506156e66000830184614ec0565b92915050565b60006020820190506157016000830184614ecf565b92915050565b600060208201905061571c6000830184614ede565b92915050565b6000602082019050818103600083015261573c8184614f1a565b905092915050565b6000602082019050818103600083015261575d81614f53565b9050919050565b6000602082019050818103600083015261577d81614fb9565b9050919050565b6000602082019050818103600083015261579d8161501f565b9050919050565b600060208201905081810360008301526157bd8161505f565b9050919050565b600060208201905081810360008301526157dd8161509f565b9050919050565b600060208201905081810360008301526157fd816150df565b9050919050565b6000602082019050818103600083015261581d8161511f565b9050919050565b6000602082019050818103600083015261583d81615185565b9050919050565b6000602082019050818103600083015261585d816151eb565b9050919050565b6000602082019050818103600083015261587d81615251565b9050919050565b6000602082019050818103600083015261589d81615291565b9050919050565b600060208201905081810360008301526158bd816152d1565b9050919050565b600060208201905081810360008301526158dd81615311565b9050919050565b600060208201905081810360008301526158fd81615377565b9050919050565b6000602082019050818103600083015261591d816153b7565b9050919050565b600060208201905061593960008301846153f7565b92915050565b600060a08201905061595460008301886153f7565b61596160208301876153f7565b81810360408301526159738186614dfc565b90506159826060830185614ded565b61598f60808301846153f7565b9695505050505050565b6000604051905081810181811067ffffffffffffffff821117156159bc57600080fd5b8060405250919050565b600067ffffffffffffffff8211156159dd57600080fd5b602082029050602081019050919050565b600067ffffffffffffffff821115615a0557600080fd5b601f19601f8301169050602081019050919050565b6000819050602082019050919050565b600081519050919050565b600081519050919050565b600081519050919050565b6000602082019050919050565b600082825260208201905092915050565b600082825260208201905092915050565b600082825260208201905092915050565b6000615a9682615adf565b9050919050565b60008115159050919050565b6000615ab482615a8b565b9050919050565b6000819050919050565b60006dffffffffffffffffffffffffffff82169050919050565b600073ffffffffffffffffffffffffffffffffffffffff82169050919050565b6000819050919050565b600063ffffffff82169050919050565b600060ff82169050919050565b6000615b3182615c34565b9050919050565b6000615b4382615b4a565b9050919050565b6000615b5582615adf565b9050919050565b6000615b6782615b6e565b9050919050565b6000615b7982615adf565b9050919050565b6000615b8b82615b92565b9050919050565b6000615b9d82615adf565b9050919050565b6000615baf82615bb6565b9050919050565b6000615bc182615adf565b9050919050565b6000615bd382615bda565b9050919050565b6000615be582615adf565b9050919050565b6000615bf782615bfe565b9050919050565b6000615c0982615adf565b9050919050565b6000615c1b82615aff565b9050919050565b6000615c2d82615b19565b9050919050565b6000615c3f82615c46565b9050919050565b6000615c5182615adf565b9050919050565b60005b83811015615c76578082015181840152602081019050615c5b565b83811115615c85576000848401525b50505050565b6000601f19601f8301169050919050565b615ca581615a8b565b8114615cb057600080fd5b50565b615cbc81615a9d565b8114615cc757600080fd5b50565b615cd381615aa9565b8114615cde57600080fd5b50565b615cea81615abb565b8114615cf557600080fd5b50565b615d0181615ac5565b8114615d0c57600080fd5b50565b615d1881615aff565b8114615d2357600080fd5b50565b615d2f81615b09565b8114615d3a57600080fd5b5056fea26469706673582212200295269da69d38d577c30923167c242a77e06c0c0e15fecef296c3edb83137df64736f6c634300060a0033",
  "immutableReferences": {},
  "source": "/*\n    Copyright 2020 Set Labs Inc.\n\n    Licensed under the Apache License, Version 2.0 (the \"License\");\n    you may not use this file except in compliance with the License.\n    You may obtain a copy of the License at\n\n    http://www.apache.org/licenses/LICENSE-2.0\n\n    Unless required by applicable law or agreed to in writing, software\n    distributed under the License is distributed on an \"AS IS\" BASIS,\n    WITHOUT WARRANTIES OR CONDITIONS OF ANY KIND, either express or implied.\n    See the License for the specific language governing permissions and\n    limitations under the License.\n\n    SPDX-License-Identifier: Apache License, Version 2.0\n*/\n\npragma solidity 0.6.10;\npragma experimental \"ABIEncoderV2\";\n\nimport { ERC20 } from \"@openzeppelin/contracts/token/ERC20/ERC20.sol\";\nimport { IERC20 } from \"@openzeppelin/contracts/token/ERC20/IERC20.sol\";\nimport { Math } from \"@openzeppelin/contracts/math/Math.sol\";\nimport { ReentrancyGuard } from \"@openzeppelin/contracts/utils/ReentrancyGuard.sol\";\nimport { SafeCast } from \"@openzeppelin/contracts/utils/SafeCast.sol\";\nimport { SafeMath } from \"@openzeppelin/contracts/math/SafeMath.sol\";\nimport { SignedSafeMath } from \"@openzeppelin/contracts/math/SignedSafeMath.sol\";\n\nimport { IController } from \"../../interfaces/IController.sol\";\nimport { Invoke } from \"../lib/Invoke.sol\";\nimport { ISetToken } from \"../../interfaces/ISetToken.sol\";\nimport { IStakingRewards } from \"../../interfaces/external/IStakingRewards.sol\";\nimport { IUniswapV2Pair } from \"../../interfaces/external/IUniswapV2Pair.sol\";\nimport { IUniswapV2Router } from \"../../interfaces/external/IUniswapV2Router.sol\";\nimport { ModuleBase } from \"../lib/ModuleBase.sol\";\nimport { Position } from \"../lib/Position.sol\";\nimport { PreciseUnitMath } from \"../../lib/PreciseUnitMath.sol\";\n\n\ncontract UniswapYieldStrategy is ModuleBase, ReentrancyGuard {\n    using Position for ISetToken;\n    using Invoke for ISetToken;\n    using SafeMath for uint256;\n    using SafeCast for uint256;\n    using SafeCast for int256;\n\n    /* ============ State Variables ============ */\n\n    IUniswapV2Router public uniswapRouter;\n    IUniswapV2Pair public lpToken;\n    IERC20 public assetOne;\n    IERC20 public assetTwo;\n    IERC20 public uni;\n    address public feeRecipient;\n    IStakingRewards public rewarder;\n    ISetToken public setToken;\n    uint256 public reservePercentage;        // Precise percentage (e.g. 10^16 = 1%)\n    uint256 public slippageTolerance;        // Precise percentage\n    uint256 public rewardFee;                // Precise percentage\n    uint256 public withdrawalFee;            // Precise percentage\n    uint256 public assetOneBaseUnit;\n    uint256 public assetTwoBaseUnit;\n    uint256 public lpTokenBaseUnit;\n\n    /* ============ Constructor ============ */\n\n    constructor(\n        IController _controller,\n        IUniswapV2Router _uniswapRouter,\n        IUniswapV2Pair _lpToken,\n        IERC20 _assetOne,\n        IERC20 _assetTwo,\n        IERC20 _uni,\n        IStakingRewards _rewarder,\n        address _feeRecipient\n    )\n        public\n        ModuleBase(_controller)\n    {\n        controller = _controller;\n        uniswapRouter = _uniswapRouter;\n        lpToken = _lpToken;\n        assetOne = _assetOne;\n        assetTwo = _assetTwo;\n        uni = _uni;\n        rewarder = _rewarder;\n        feeRecipient = _feeRecipient;\n\n        uint256 tokenOneDecimals = ERC20(address(_assetOne)).decimals();\n        assetOneBaseUnit = 10 ** tokenOneDecimals;\n        uint256 tokenTwoDecimals = ERC20(address(_assetTwo)).decimals();\n        assetTwoBaseUnit = 10 ** tokenTwoDecimals;\n        uint256 lpTokenDecimals = ERC20(address(_lpToken)).decimals();\n        lpTokenBaseUnit = 10 ** lpTokenDecimals;\n    }\n\n    /* ============ External Functions ============ */\n\n    function engage() external nonReentrant {\n        _engage();\n    }\n\n    function disengage() external nonReentrant {\n        _rebalance(0);\n\n        uint256 lpTokenQuantity = _calculateDisengageLPQuantity();\n\n        _unstake(lpTokenQuantity);\n\n        _approveAndRemoveLiquidity(lpTokenQuantity);\n\n        _updatePositions();\n    }\n\n    function reap() external nonReentrant {\n        _handleReward();\n\n        _engage();\n    }\n\n    function rebalance() external nonReentrant {\n        _rebalance(0);\n\n        _updatePositions();\n    }\n\n    function rebalanceSome(uint256 _sellTokenQuantity) external nonReentrant {\n        _rebalance(_sellTokenQuantity);\n\n        _updatePositions();        \n    }\n\n    function unstakeAndRedeem(uint256 _setTokenQuantity) external nonReentrant {\n        require(setToken.balanceOf(msg.sender) >= _setTokenQuantity, \"User must have sufficient SetToken\");\n\n        setToken.burn(msg.sender, _setTokenQuantity);\n\n        uint256 lpTokenUnit = setToken.getExternalPositionRealUnit(address(lpToken), address(this)).toUint256();\n\n        uint256 userLPBalance = lpTokenUnit.preciseMul(_setTokenQuantity);\n\n        _unstake(userLPBalance);\n\n        uint256 lpFees = userLPBalance.preciseMul(withdrawalFee);\n        setToken.invokeTransfer(address(lpToken), msg.sender, userLPBalance.sub(lpFees));\n        setToken.invokeTransfer(address(lpToken), feeRecipient, lpFees);\n\n        uint256 assetOneUnit = setToken.getDefaultPositionRealUnit(address(assetOne)).toUint256();\n        uint256 assetOneNotional = assetOneUnit.preciseMul(_setTokenQuantity);\n        uint256 assetOneFee = assetOneNotional.preciseMul(withdrawalFee);\n        setToken.invokeTransfer(address(assetOne), msg.sender, assetOneNotional.sub(assetOneFee));\n        setToken.invokeTransfer(address(assetOne), feeRecipient, assetOneFee);\n\n        uint256 assetTwoUnit = setToken.getDefaultPositionRealUnit(address(assetTwo)).toUint256();\n        uint256 assetTwoNotional = assetTwoUnit.preciseMul(_setTokenQuantity);\n        uint256 assetTwoFee = assetTwoNotional.preciseMul(withdrawalFee);\n        setToken.invokeTransfer(address(assetTwo), msg.sender, assetTwoNotional.sub(assetTwoFee));\n        setToken.invokeTransfer(address(assetTwo), feeRecipient, assetTwoFee);\n    }\n\n    function initialize(\n        ISetToken _setToken,\n        uint256 _reservePercentage,\n        uint256 _slippageTolerance,\n        uint256 _rewardFee,\n        uint256 _withdrawalFee\n    )\n        external\n        onlySetManager(_setToken, msg.sender)\n    {\n        require(address(setToken) == address(0), \"May only be called once\");\n\n        setToken = _setToken;\n        reservePercentage = _reservePercentage;\n        slippageTolerance = _slippageTolerance;\n        rewardFee = _rewardFee;\n        withdrawalFee = _withdrawalFee;\n\n        _setToken.initializeModule();\n    }\n\n    function removeModule() external override {\n        require(msg.sender == address(setToken), \"Caller must be SetToken\");\n\n        uint256 lpBalance = rewarder.balanceOf(address(setToken));\n\n        _unstake(lpBalance);\n\n        _approveAndRemoveLiquidity(lpBalance);\n\n        _updatePositions();\n    }\n\n    /* ============ Internal Functions ============ */\n\n    function _engage() internal {\n        _rebalance(0);\n\n        (uint256 assetOneQuantity, uint256 assetTwoQuantity) = _calculateEngageQuantities();\n\n        uint256 lpBalance = _approveAndAddLiquidity(assetOneQuantity, assetTwoQuantity);\n\n        _approveAndStake(lpBalance);\n\n        _updatePositions();\n    }  \n\n    // Rebalances reserve assets to achieve a 50/50 value split\n    // If a sellTokenQuantity is provided, then use this value\n    function _rebalance(uint256 _sellTokenQuantity) internal {\n        address assetToSell;\n        address assetToBuy;\n        uint256 quantityToSell;\n        uint256 minimumBuyToken;\n\n        uint256 assetOneToTwoPrice = controller.getPriceOracle().getPrice(address(assetOne), address(assetTwo));\n\n        uint256 balanceAssetOne = assetOne.balanceOf(address(setToken));\n        uint256 balanceAssetTwo = assetTwo.balanceOf(address(setToken));\n\n        // Convert Asset Two to One adjust for decimal differences\n        uint256 valueAssetTwoDenomOne = balanceAssetTwo.preciseDiv(assetOneToTwoPrice).mul(assetOneBaseUnit).div(assetTwoBaseUnit);\n\n        if (balanceAssetOne > valueAssetTwoDenomOne) {\n            assetToSell = address(assetOne);\n            assetToBuy = address(assetTwo);\n            quantityToSell = balanceAssetOne.sub(valueAssetTwoDenomOne).div(2);\n\n            // Base unit calculations are to normalize the values for different decimals\n            minimumBuyToken = quantityToSell.preciseMul(assetOneToTwoPrice).mul(assetTwoBaseUnit).div(assetOneBaseUnit);\n        } else {\n            assetToSell = address(assetTwo);\n            assetToBuy = address(assetOne);\n            quantityToSell = valueAssetTwoDenomOne\n                                .sub(balanceAssetOne).div(2).preciseMul(assetOneToTwoPrice)\n                                .mul(assetTwoBaseUnit).div(assetOneBaseUnit);\n            minimumBuyToken = quantityToSell.preciseDiv(assetOneToTwoPrice).mul(assetOneBaseUnit).div(assetTwoBaseUnit);\n        }\n\n        if (_sellTokenQuantity > 0) {\n            require(_sellTokenQuantity <= quantityToSell, \"Delta must be less than max\");\n            minimumBuyToken = minimumBuyToken.preciseMul(_sellTokenQuantity).preciseDiv(quantityToSell);\n            quantityToSell = _sellTokenQuantity;\n        }\n\n        // Reduce the expected receive quantity \n        minimumBuyToken = minimumBuyToken\n            .preciseMul(PreciseUnitMath.preciseUnit().sub(slippageTolerance));\n\n        setToken.invokeApprove(assetToSell, address(uniswapRouter), quantityToSell);\n        if (quantityToSell > 0) {\n            _invokeUniswapTrade(assetToSell, assetToBuy, quantityToSell, minimumBuyToken);\n        }\n    }\n\n    function _approveAndAddLiquidity(uint256 _assetOneQuantity, uint256 _assetTwoQuantity) internal returns (uint256) {\n        setToken.invokeApprove(address(assetOne), address(uniswapRouter), _assetOneQuantity);\n        setToken.invokeApprove(address(assetTwo), address(uniswapRouter), _assetTwoQuantity);\n\n        bytes memory addLiquidityBytes = abi.encodeWithSignature(\n            \"addLiquidity(address,address,uint256,uint256,uint256,uint256,address,uint256)\",\n            assetOne,\n            assetTwo,\n            _assetOneQuantity,\n            _assetTwoQuantity,\n            1,\n            1,\n            address(setToken),\n            now.add(60) // Valid for one minute\n        );\n\n        setToken.invoke(address(uniswapRouter), 0, addLiquidityBytes);\n\n        return lpToken.balanceOf(address(setToken));\n    }\n\n    function _approveAndRemoveLiquidity(uint256 _liquidityQuantity) internal {\n        setToken.invokeApprove(address(lpToken), address(uniswapRouter), _liquidityQuantity);\n\n        bytes memory removeLiquidityBytes = abi.encodeWithSignature(\n            \"removeLiquidity(address,address,uint256,uint256,uint256,address,uint256)\",\n            assetOne,\n            assetTwo,\n            _liquidityQuantity,\n            1,\n            1,\n            address(setToken),\n            now.add(60) // Valid for one minute\n        );\n\n        setToken.invoke(address(uniswapRouter), 0, removeLiquidityBytes);\n    }\n\n    function _approveAndStake(uint256 _lpTokenQuantity) internal {\n        setToken.invokeApprove(address(lpToken), address(rewarder), _lpTokenQuantity);\n        bytes memory stakeBytes = abi.encodeWithSignature(\"stake(uint256)\", _lpTokenQuantity);\n\n        setToken.invoke(address(rewarder), 0, stakeBytes);\n    }\n\n    function _unstake(uint256 _lpTokenQuantity) internal {\n        bytes memory unstakeBytes = abi.encodeWithSignature(\"withdraw(uint256)\", _lpTokenQuantity);\n\n        setToken.invoke(address(rewarder), 0, unstakeBytes);\n    }\n\n    function _handleReward() internal {\n        setToken.invoke(address(rewarder), 0, abi.encodeWithSignature(\"getReward()\"));\n\n        uint256 uniBalance = uni.balanceOf(address(setToken));\n        uint256 assetOneBalance = assetOne.balanceOf(address(setToken));\n\n        setToken.invokeApprove(address(uni), address(uniswapRouter), uniBalance);\n        _invokeUniswapTrade(address(uni), address(assetOne), uniBalance, 1);\n\n        uint256 postTradeAssetOneBalance = assetOne.balanceOf(address(setToken));\n        uint256 fee = postTradeAssetOneBalance.sub(assetOneBalance).preciseMul(rewardFee);\n\n        setToken.strictInvokeTransfer(address(assetOne), feeRecipient, fee);\n    }\n\n    function _invokeUniswapTrade(\n        address _sellToken,\n        address _buyToken,\n        uint256 _amountIn,\n        uint256 _amountOutMin\n    )\n        internal\n    {\n        address[] memory path = new address[](2);\n        path[0] = _sellToken;\n        path[1] = _buyToken;\n\n        bytes memory tradeBytes = abi.encodeWithSignature(\n            \"swapExactTokensForTokens(uint256,uint256,address[],address,uint256)\",\n            _amountIn,\n            _amountOutMin,\n            path,\n            address(setToken),\n            now.add(180)\n        );\n\n        setToken.invoke(address(uniswapRouter), 0, tradeBytes);\n    }\n\n    function _calculateEngageQuantities() internal view returns(uint256 tokenAQuantity, uint256 tokenBQuantity) {\n        (\n            uint256 desiredAssetOne,\n            uint256 desiredAssetTwo,\n            uint256 assetOneOnSetToken,\n            uint256 assetTwoOnSetToken\n        ) = _getDesiredSingleAssetReserve();\n\n        require(assetOneOnSetToken > desiredAssetOne && assetTwoOnSetToken > desiredAssetTwo, \"SetToken assets must be > desired\");\n\n        return (\n            assetOneOnSetToken.sub(desiredAssetOne),\n            assetTwoOnSetToken.sub(desiredAssetTwo)\n        );\n    }\n\n    function _calculateDisengageLPQuantity() internal view returns(uint256 _lpTokenQuantity) {\n        (uint256 assetOneToLPRate, uint256 assetTwoToLPRate) = _getLPReserveExchangeRate();\n\n        (\n            uint256 desiredOne,\n            uint256 desiredTwo,\n            uint256 assetOneOnSetToken,\n            uint256 assetTwoOnSetToken\n        ) = _getDesiredSingleAssetReserve();    \n\n        require(assetOneOnSetToken < desiredOne && assetTwoOnSetToken < desiredTwo, \"SetToken assets must be < desired\");\n\n        // LP Rates already account for decimals\n        uint256 minLPForOneToRedeem = desiredOne.sub(assetOneOnSetToken).preciseDiv(assetOneToLPRate);\n        uint256 minLPForTwoToRedeem = desiredTwo.sub(assetTwoOnSetToken).preciseDiv(assetTwoToLPRate);\n\n        return Math.max(minLPForOneToRedeem, minLPForTwoToRedeem);\n    }\n\n    // Returns desiredOneReserve, desiredTwoReserve, tokenOne and tokenTwo balances\n    function _getDesiredSingleAssetReserve()\n        internal\n        view\n        returns(uint256, uint256, uint256, uint256)\n    {\n        (uint256 assetOneReserve, uint256 assetTwoReserve) = _getTotalLPReserves();\n        uint256 balanceAssetOne = assetOne.balanceOf(address(setToken));\n        uint256 balanceAssetTwo = assetTwo.balanceOf(address(setToken));\n\n        uint256 desiredOneReserve = assetOneReserve.add(balanceAssetOne).preciseMul(reservePercentage);\n        uint256 desiredTwoReserve = assetTwoReserve.add(balanceAssetTwo).preciseMul(reservePercentage);\n\n        return(desiredOneReserve, desiredTwoReserve, balanceAssetOne, balanceAssetTwo);\n    }\n\n    // Returns assetAToLPRate and assetBToLPRate\n    function _getLPReserveExchangeRate() internal view returns (uint256, uint256) {\n        (uint reserve0, uint reserve1) = _getReservesSafe();\n        uint256 totalSupply = lpToken.totalSupply();\n        return(\n            reserve0.preciseDiv(totalSupply),\n            reserve1.preciseDiv(totalSupply)\n        );\n    }\n\n    // Returns assetOneReserve and assetTwoReserve\n    function _getTotalLPReserves() internal view returns (uint256, uint256) {\n        (uint reserve0, uint reserve1) = _getReservesSafe();\n        uint256 totalSupply = lpToken.totalSupply();\n        uint256 lpTokenBalance = rewarder.balanceOf(address(setToken));\n        return(\n            reserve0.mul(lpTokenBalance).div(totalSupply),\n            reserve1.mul(lpTokenBalance).div(totalSupply)\n        );\n    }\n\n    function _updatePositions() internal {\n        uint256 totalSupply = setToken.totalSupply();\n        uint256 assetOneBalance = assetOne.balanceOf(address(setToken));\n        uint256 assetTwoBalance = assetTwo.balanceOf(address(setToken));\n        uint256 lpBalance = rewarder.balanceOf(address(setToken));\n\n        // Doesn't check to make sure unit is different, and no check for any LP token on Set\n        setToken.editDefaultPosition(address(assetOne), Position.getDefaultPositionUnit(totalSupply, assetOneBalance));\n        setToken.editDefaultPosition(address(assetTwo), Position.getDefaultPositionUnit(totalSupply, assetTwoBalance));\n        setToken.editExternalPosition(\n            address(lpToken),\n            address(this),\n            Position.getDefaultPositionUnit(totalSupply, lpBalance).toInt256(),\n            \"\"\n        );\n    }\n\n    // Code pulled to sort from UniswapV2Library\n    // https://github.com/Uniswap/uniswap-v2-periphery/blob/master/contracts/libraries/UniswapV2Library.sol\n    function _getReservesSafe() internal view returns(uint256, uint256) {\n        address firstAsset = address(assetOne) < address(assetTwo) ? address(assetOne) : address(assetTwo);\n        (uint reserve0, uint reserve1,) = lpToken.getReserves();\n        return address(assetOne) == firstAsset ? (reserve0, reserve1) : (reserve1, reserve0);\n    }\n}",
  "sourcePath": "/Users/tahadhailey/Documents/top5/top5swap/swap/contracts/protocol/modules/UniswapYieldStrategy.sol",
  "compiler": {
    "name": "solc",
    "version": "0.6.10+commit.00c0fcaf.Emscripten.clang"
  },
  "schemaVersion": "3.2.1",
  "updatedAt": "2021-01-21T08:20:37.829Z",
  "devdoc": {
    "methods": {}
  },
  "userdoc": {
    "methods": {}
  }
}