{
  "contractName": "WrapModule",
  "abi": [
    {
      "inputs": [
        {
          "internalType": "contract IController",
          "name": "_controller",
          "type": "address"
        },
        {
          "internalType": "contract IWETH",
          "name": "_weth",
          "type": "address"
        }
      ],
      "stateMutability": "nonpayable",
      "type": "constructor"
    },
    {
      "anonymous": false,
      "inputs": [
        {
          "indexed": true,
          "internalType": "contract ISetToken",
          "name": "_setToken",
          "type": "address"
        },
        {
          "indexed": true,
          "internalType": "address",
          "name": "_underlyingToken",
          "type": "address"
        },
        {
          "indexed": true,
          "internalType": "address",
          "name": "_wrappedToken",
          "type": "address"
        },
        {
          "indexed": false,
          "internalType": "uint256",
          "name": "_underlyingQuantity",
          "type": "uint256"
        },
        {
          "indexed": false,
          "internalType": "uint256",
          "name": "_wrappedQuantity",
          "type": "uint256"
        },
        {
          "indexed": false,
          "internalType": "string",
          "name": "_integrationName",
          "type": "string"
        }
      ],
      "name": "ComponentUnwrapped",
      "type": "event"
    },
    {
      "anonymous": false,
      "inputs": [
        {
          "indexed": true,
          "internalType": "contract ISetToken",
          "name": "_setToken",
          "type": "address"
        },
        {
          "indexed": true,
          "internalType": "address",
          "name": "_underlyingToken",
          "type": "address"
        },
        {
          "indexed": true,
          "internalType": "address",
          "name": "_wrappedToken",
          "type": "address"
        },
        {
          "indexed": false,
          "internalType": "uint256",
          "name": "_underlyingQuantity",
          "type": "uint256"
        },
        {
          "indexed": false,
          "internalType": "uint256",
          "name": "_wrappedQuantity",
          "type": "uint256"
        },
        {
          "indexed": false,
          "internalType": "string",
          "name": "_integrationName",
          "type": "string"
        }
      ],
      "name": "ComponentWrapped",
      "type": "event"
    },
    {
      "inputs": [],
      "name": "controller",
      "outputs": [
        {
          "internalType": "contract IController",
          "name": "",
          "type": "address"
        }
      ],
      "stateMutability": "view",
      "type": "function"
    },
    {
      "inputs": [],
      "name": "weth",
      "outputs": [
        {
          "internalType": "contract IWETH",
          "name": "",
          "type": "address"
        }
      ],
      "stateMutability": "view",
      "type": "function"
    },
    {
      "inputs": [
        {
          "internalType": "contract ISetToken",
          "name": "_setToken",
          "type": "address"
        },
        {
          "internalType": "address",
          "name": "_underlyingToken",
          "type": "address"
        },
        {
          "internalType": "address",
          "name": "_wrappedToken",
          "type": "address"
        },
        {
          "internalType": "uint256",
          "name": "_underlyingUnits",
          "type": "uint256"
        },
        {
          "internalType": "string",
          "name": "_integrationName",
          "type": "string"
        }
      ],
      "name": "wrap",
      "outputs": [],
      "stateMutability": "nonpayable",
      "type": "function"
    },
    {
      "inputs": [
        {
          "internalType": "contract ISetToken",
          "name": "_setToken",
          "type": "address"
        },
        {
          "internalType": "address",
          "name": "_wrappedToken",
          "type": "address"
        },
        {
          "internalType": "uint256",
          "name": "_underlyingUnits",
          "type": "uint256"
        },
        {
          "internalType": "string",
          "name": "_integrationName",
          "type": "string"
        }
      ],
      "name": "wrapWithEther",
      "outputs": [],
      "stateMutability": "nonpayable",
      "type": "function"
    },
    {
      "inputs": [
        {
          "internalType": "contract ISetToken",
          "name": "_setToken",
          "type": "address"
        },
        {
          "internalType": "address",
          "name": "_underlyingToken",
          "type": "address"
        },
        {
          "internalType": "address",
          "name": "_wrappedToken",
          "type": "address"
        },
        {
          "internalType": "uint256",
          "name": "_wrappedUnits",
          "type": "uint256"
        },
        {
          "internalType": "string",
          "name": "_integrationName",
          "type": "string"
        }
      ],
      "name": "unwrap",
      "outputs": [],
      "stateMutability": "nonpayable",
      "type": "function"
    },
    {
      "inputs": [
        {
          "internalType": "contract ISetToken",
          "name": "_setToken",
          "type": "address"
        },
        {
          "internalType": "address",
          "name": "_wrappedToken",
          "type": "address"
        },
        {
          "internalType": "uint256",
          "name": "_wrappedUnits",
          "type": "uint256"
        },
        {
          "internalType": "string",
          "name": "_integrationName",
          "type": "string"
        }
      ],
      "name": "unwrapWithEther",
      "outputs": [],
      "stateMutability": "nonpayable",
      "type": "function"
    },
    {
      "inputs": [
        {
          "internalType": "contract ISetToken",
          "name": "_setToken",
          "type": "address"
        }
      ],
      "name": "initialize",
      "outputs": [],
      "stateMutability": "nonpayable",
      "type": "function"
    },
    {
      "inputs": [],
      "name": "removeModule",
      "outputs": [],
      "stateMutability": "nonpayable",
      "type": "function"
    }
  ],
  "bytecode": "0x60806040523480156200001157600080fd5b5060405162003651380380620036518339818101604052810190620000379190620000f7565b81806000806101000a81548173ffffffffffffffffffffffffffffffffffffffff021916908373ffffffffffffffffffffffffffffffffffffffff160217905550506001808190555080600260006101000a81548173ffffffffffffffffffffffffffffffffffffffff021916908373ffffffffffffffffffffffffffffffffffffffff1602179055505050620001c8565b600081519050620000da8162000194565b92915050565b600081519050620000f181620001ae565b92915050565b600080604083850312156200010b57600080fd5b60006200011b85828601620000c9565b92505060206200012e85828601620000e0565b9150509250929050565b6000620001458262000174565b9050919050565b6000620001598262000138565b9050919050565b60006200016d8262000138565b9050919050565b600073ffffffffffffffffffffffffffffffffffffffff82169050919050565b6200019f816200014c565b8114620001ab57600080fd5b50565b620001b98162000160565b8114620001c557600080fd5b50565b61347980620001d86000396000f3fe608060405234801561001057600080fd5b50600436106100885760003560e01c80638980d9e41161005b5780638980d9e4146100ed578063c4d66de814610109578063f0f67dee14610125578063f77c47911461014157610088565b80631d9f11e61461008d5780633fc8cef3146100a95780635f470192146100c7578063847ef08d146100e3575b600080fd5b6100a760048036038101906100a29190612873565b61015f565b005b6100b161032d565b6040516100be9190612fe4565b60405180910390f35b6100e160048036038101906100dc91906127e1565b610353565b005b6100eb6104de565b005b61010760048036038101906101029190612873565b6104e0565b005b610123600480360381019061011e91906127b8565b6106ae565b005b61013f600480360381019061013a91906127e1565b61088f565b005b610149610a1a565b6040516101569190612fc9565b60405180910390f35b600260015414156101a5576040517f08c379a000000000000000000000000000000000000000000000000000000000815260040161019c90613181565b60405180910390fd5b6002600181905550846101b88133610a3f565b6101f7576040517f08c379a00000000000000000000000000000000000000000000000000000000081526004016101ee90613161565b60405180910390fd5b61020081610af5565b61023f576040517f08c379a000000000000000000000000000000000000000000000000000000000815260040161023690613041565b60405180910390fd5b60008061027485858a600260009054906101000a900473ffffffffffffffffffffffffffffffffffffffff168b8b6001610c39565b915091508673ffffffffffffffffffffffffffffffffffffffff16600260009054906101000a900473ffffffffffffffffffffffffffffffffffffffff1673ffffffffffffffffffffffffffffffffffffffff168973ffffffffffffffffffffffffffffffffffffffff167f0e631fe8e26e2b6c2ce8c4c55eca1d769c98bb4b5539068aec9ada0a3b429afe85858a8a60405161031494939291906131bc565b60405180910390a4505050600180819055505050505050565b600260009054906101000a900473ffffffffffffffffffffffffffffffffffffffff1681565b60026001541415610399576040517f08c379a000000000000000000000000000000000000000000000000000000000815260040161039090613181565b60405180910390fd5b6002600181905550856103ac8133610a3f565b6103eb576040517f08c379a00000000000000000000000000000000000000000000000000000000081526004016103e290613161565b60405180910390fd5b6103f481610af5565b610433576040517f08c379a000000000000000000000000000000000000000000000000000000000815260040161042a90613041565b60405180910390fd5b60008061044685858b8b8b8b6000610c39565b915091508673ffffffffffffffffffffffffffffffffffffffff168873ffffffffffffffffffffffffffffffffffffffff168a73ffffffffffffffffffffffffffffffffffffffff167f0e631fe8e26e2b6c2ce8c4c55eca1d769c98bb4b5539068aec9ada0a3b429afe85858a8a6040516104c494939291906131bc565b60405180910390a450505060018081905550505050505050565b565b60026001541415610526576040517f08c379a000000000000000000000000000000000000000000000000000000000815260040161051d90613181565b60405180910390fd5b6002600181905550846105398133610a3f565b610578576040517f08c379a000000000000000000000000000000000000000000000000000000000815260040161056f90613161565b60405180910390fd5b61058181610af5565b6105c0576040517f08c379a00000000000000000000000000000000000000000000000000000000081526004016105b790613041565b60405180910390fd5b6000806105f585858a600260009054906101000a900473ffffffffffffffffffffffffffffffffffffffff168b8b6001610ea5565b915091508673ffffffffffffffffffffffffffffffffffffffff16600260009054906101000a900473ffffffffffffffffffffffffffffffffffffffff1673ffffffffffffffffffffffffffffffffffffffff168973ffffffffffffffffffffffffffffffffffffffff167f266efe8e5e4e2e7e407c4814a2818ef8e990768c61e67315ac34a8d3555b438e85858a8a60405161069594939291906131bc565b60405180910390a4505050600180819055505050505050565b80336106ba8282610a3f565b6106f9576040517f08c379a00000000000000000000000000000000000000000000000000000000081526004016106f090613161565b60405180910390fd5b6000809054906101000a900473ffffffffffffffffffffffffffffffffffffffff1673ffffffffffffffffffffffffffffffffffffffff166374ebe3ec846040518263ffffffff1660e01b81526004016107539190612e57565b60206040518083038186803b15801561076b57600080fd5b505afa15801561077f573d6000803e3d6000fd5b505050506040513d601f19601f820116820180604052508101906107a3919061274e565b6107e2576040517f08c379a00000000000000000000000000000000000000000000000000000000081526004016107d990613141565b60405180910390fd5b6107eb836111bc565b61082a576040517f08c379a000000000000000000000000000000000000000000000000000000000815260040161082190613061565b60405180910390fd5b8273ffffffffffffffffffffffffffffffffffffffff16630ffe0f1e6040518163ffffffff1660e01b8152600401600060405180830381600087803b15801561087257600080fd5b505af1158015610886573d6000803e3d6000fd5b50505050505050565b600260015414156108d5576040517f08c379a00000000000000000000000000000000000000000000000000000000081526004016108cc90613181565b60405180910390fd5b6002600181905550856108e88133610a3f565b610927576040517f08c379a000000000000000000000000000000000000000000000000000000000815260040161091e90613161565b60405180910390fd5b61093081610af5565b61096f576040517f08c379a000000000000000000000000000000000000000000000000000000000815260040161096690613041565b60405180910390fd5b60008061098285858b8b8b8b6000610ea5565b915091508673ffffffffffffffffffffffffffffffffffffffff168873ffffffffffffffffffffffffffffffffffffffff168a73ffffffffffffffffffffffffffffffffffffffff167f266efe8e5e4e2e7e407c4814a2818ef8e990768c61e67315ac34a8d3555b438e85858a8a604051610a0094939291906131bc565b60405180910390a450505060018081905550505050505050565b6000809054906101000a900473ffffffffffffffffffffffffffffffffffffffff1681565b60008173ffffffffffffffffffffffffffffffffffffffff168373ffffffffffffffffffffffffffffffffffffffff1663481c6a756040518163ffffffff1660e01b815260040160206040518083038186803b158015610a9e57600080fd5b505afa158015610ab2573d6000803e3d6000fd5b505050506040513d601f19601f82011682018060405250810190610ad6919061267d565b73ffffffffffffffffffffffffffffffffffffffff1614905092915050565b60008060009054906101000a900473ffffffffffffffffffffffffffffffffffffffff1673ffffffffffffffffffffffffffffffffffffffff166374ebe3ec836040518263ffffffff1660e01b8152600401610b519190612e57565b60206040518083038186803b158015610b6957600080fd5b505afa158015610b7d573d6000803e3d6000fd5b505050506040513d601f19601f82011682018060405250810190610ba1919061274e565b8015610c3257508173ffffffffffffffffffffffffffffffffffffffff1663d7f1b27c306040518263ffffffff1660e01b8152600401610be19190612e57565b60206040518083038186803b158015610bf957600080fd5b505afa158015610c0d573d6000803e3d6000fd5b505050506040513d601f19601f82011682018060405250810190610c31919061274e565b5b9050919050565b600080610c4787868661124e565b600080610c55898989611368565b915091506000610ceb878b73ffffffffffffffffffffffffffffffffffffffff166318160ddd6040518163ffffffff1660e01b815260040160206040518083038186803b158015610ca557600080fd5b505afa158015610cb9573d6000803e3d6000fd5b505050506040513d601f19601f82011682018060405250810190610cdd919061291c565b61149590919063ffffffff16565b90506000610d3c8d8d8080601f016020809104026020016040519081016040528093929190818152602001838380828437600081840152601f19601f820116905080830192505050505050506114b2565b9050610dd48b8289610d4e578c610dcd565b8373ffffffffffffffffffffffffffffffffffffffff16631878d1f16040518163ffffffff1660e01b815260040160206040518083038186803b158015610d9457600080fd5b505afa158015610da8573d6000803e3d6000fd5b505050506040513d601f19601f82011682018060405250810190610dcc919061267d565b5b8c866114d1565b8615610e3f57610e3e600260009054906101000a900473ffffffffffffffffffffffffffffffffffffffff168c73ffffffffffffffffffffffffffffffffffffffff16318d73ffffffffffffffffffffffffffffffffffffffff1661160d9092919063ffffffff16565b5b600080610e4d8d8d8d611368565b91509150610e5d8d8d888561172f565b610e698d8c878461172f565b610e7c868361188990919063ffffffff16565b610e8f828761188990919063ffffffff16565b9750975050505050505097509795505050505050565b600080610eb387878661124e565b600080610ec1898989611368565b915091506000610f57878b73ffffffffffffffffffffffffffffffffffffffff166318160ddd6040518163ffffffff1660e01b815260040160206040518083038186803b158015610f1157600080fd5b505afa158015610f25573d6000803e3d6000fd5b505050506040513d601f19601f82011682018060405250810190610f49919061291c565b61149590919063ffffffff16565b90506000610fa88d8d8080601f016020809104026020016040519081016040528093929190818152602001838380828437600081840152601f19601f820116905080830192505050505050506114b2565b9050861561100257610ffd600260009054906101000a900473ffffffffffffffffffffffffffffffffffffffff16838d73ffffffffffffffffffffffffffffffffffffffff166118d39092919063ffffffff16565b6110c0565b60008173ffffffffffffffffffffffffffffffffffffffff1663de68a3da8c8c6040518363ffffffff1660e01b815260040161103f929190612e72565b60206040518083038186803b15801561105757600080fd5b505afa15801561106b573d6000803e3d6000fd5b505050506040513d601f19601f8201168201806040525081019061108f919061267d565b90506110be8b82858f73ffffffffffffffffffffffffffffffffffffffff16611a01909392919063ffffffff16565b505b6111568b82896110d0578c61114f565b8373ffffffffffffffffffffffffffffffffffffffff16631878d1f16040518163ffffffff1660e01b815260040160206040518083038186803b15801561111657600080fd5b505afa15801561112a573d6000803e3d6000fd5b505050506040513d601f19601f8201168201806040525081019061114e919061267d565b5b8c86611b32565b6000806111648d8d8d611368565b915091506111748d8d888561172f565b6111808d8c878461172f565b611193828761188990919063ffffffff16565b6111a6868361188990919063ffffffff16565b9750975050505050505097509795505050505050565b60008173ffffffffffffffffffffffffffffffffffffffff166353bae5f7306040518263ffffffff1660e01b81526004016111f79190612e57565b60206040518083038186803b15801561120f57600080fd5b505afa158015611223573d6000803e3d6000fd5b505050506040513d601f19601f82011682018060405250810190611247919061274e565b9050919050565b60008111611291576040517f08c379a0000000000000000000000000000000000000000000000000000000008152600401611288906130a1565b60405180910390fd5b6112ba828473ffffffffffffffffffffffffffffffffffffffff16611c6e90919063ffffffff16565b6112f9576040517f08c379a00000000000000000000000000000000000000000000000000000000081526004016112f090613021565b60405180910390fd5b61132482828573ffffffffffffffffffffffffffffffffffffffff16611d039092919063ffffffff16565b611363576040517f08c379a000000000000000000000000000000000000000000000000000000000815260040161135a90613101565b60405180910390fd5b505050565b60008060008473ffffffffffffffffffffffffffffffffffffffff166370a08231876040518263ffffffff1660e01b81526004016113a69190612e57565b60206040518083038186803b1580156113be57600080fd5b505afa1580156113d2573d6000803e3d6000fd5b505050506040513d601f19601f820116820180604052508101906113f6919061291c565b905060008473ffffffffffffffffffffffffffffffffffffffff166370a08231886040518263ffffffff1660e01b81526004016114339190612e57565b60206040518083038186803b15801561144b57600080fd5b505afa15801561145f573d6000803e3d6000fd5b505050506040513d601f19601f82011682018060405250810190611483919061291c565b90508181935093505050935093915050565b60006114aa8284611da290919063ffffffff16565b905092915050565b6000806114be83611dd9565b90506114c981611dea565b915050919050565b60008060608673ffffffffffffffffffffffffffffffffffffffff1663a22fe98e8787876040518463ffffffff1660e01b815260040161151393929190612e9b565b60006040518083038186803b15801561152b57600080fd5b505afa15801561153f573d6000803e3d6000fd5b505050506040513d6000823e3d601f19601f8201168201806040525081019061156891906126a6565b9250925092508773ffffffffffffffffffffffffffffffffffffffff16638f6f03328484846040518463ffffffff1660e01b81526004016115ab93929190612f8b565b600060405180830381600087803b1580156115c557600080fd5b505af11580156115d9573d6000803e3d6000fd5b505050506040513d6000823e3d601f19601f820116820180604052508101906116029190612777565b505050505050505050565b60606040516024016040516020818303038152906040527fd0e30db0000000000000000000000000000000000000000000000000000000007bffffffffffffffffffffffffffffffffffffffffffffffffffffffff19166020820180517bffffffffffffffffffffffffffffffffffffffffffffffffffffffff838183161783525050505090508373ffffffffffffffffffffffffffffffffffffffff16638f6f03328484846040518463ffffffff1660e01b81526004016116d193929190612f8b565b600060405180830381600087803b1580156116eb57600080fd5b505af11580156116ff573d6000803e3d6000fd5b505050506040513d6000823e3d601f19601f820116820180604052508101906117289190612777565b5050505050565b600061185583836117c78873ffffffffffffffffffffffffffffffffffffffff166366cb8d2f896040518263ffffffff1660e01b81526004016117729190612e57565b60206040518083038186803b15801561178a57600080fd5b505afa15801561179e573d6000803e3d6000fd5b505050506040513d601f19601f820116820180604052508101906117c291906128f3565b611f32565b8873ffffffffffffffffffffffffffffffffffffffff166318160ddd6040518163ffffffff1660e01b815260040160206040518083038186803b15801561180d57600080fd5b505afa158015611821573d6000803e3d6000fd5b505050506040513d601f19601f82011682018060405250810190611845919061291c565b611f7f909392919063ffffffff16565b905061188284828773ffffffffffffffffffffffffffffffffffffffff16611fd99092919063ffffffff16565b5050505050565b60006118cb83836040518060400160405280601e81526020017f536166654d6174683a207375627472616374696f6e206f766572666c6f770000815250612182565b905092915050565b6060816040516024016118e691906131a1565b6040516020818303038152906040527f2e1a7d4d000000000000000000000000000000000000000000000000000000007bffffffffffffffffffffffffffffffffffffffffffffffffffffffff19166020820180517bffffffffffffffffffffffffffffffffffffffffffffffffffffffff838183161783525050505090508373ffffffffffffffffffffffffffffffffffffffff16638f6f0332846000846040518463ffffffff1660e01b81526004016119a393929190612f24565b600060405180830381600087803b1580156119bd57600080fd5b505af11580156119d1573d6000803e3d6000fd5b505050506040513d6000823e3d601f19601f820116820180604052508101906119fa9190612777565b5050505050565b60608282604051602401611a16929190612f62565b6040516020818303038152906040527f095ea7b3000000000000000000000000000000000000000000000000000000007bffffffffffffffffffffffffffffffffffffffffffffffffffffffff19166020820180517bffffffffffffffffffffffffffffffffffffffffffffffffffffffff838183161783525050505090508473ffffffffffffffffffffffffffffffffffffffff16638f6f0332856000846040518463ffffffff1660e01b8152600401611ad393929190612f24565b600060405180830381600087803b158015611aed57600080fd5b505af1158015611b01573d6000803e3d6000fd5b505050506040513d6000823e3d601f19601f82011682018060405250810190611b2a9190612777565b505050505050565b60008060608673ffffffffffffffffffffffffffffffffffffffff166377b1aaf88787876040518463ffffffff1660e01b8152600401611b7493929190612e9b565b60006040518083038186803b158015611b8c57600080fd5b505afa158015611ba0573d6000803e3d6000fd5b505050506040513d6000823e3d601f19601f82011682018060405250810190611bc991906126a6565b9250925092508773ffffffffffffffffffffffffffffffffffffffff16638f6f03328484846040518463ffffffff1660e01b8152600401611c0c93929190612f8b565b600060405180830381600087803b158015611c2657600080fd5b505af1158015611c3a573d6000803e3d6000fd5b505050506040513d6000823e3d601f19601f82011682018060405250810190611c639190612777565b505050505050505050565b6000808373ffffffffffffffffffffffffffffffffffffffff166366cb8d2f846040518263ffffffff1660e01b8152600401611caa9190612e57565b60206040518083038186803b158015611cc257600080fd5b505afa158015611cd6573d6000803e3d6000fd5b505050506040513d601f19601f82011682018060405250810190611cfa91906128f3565b13905092915050565b6000611d0e826121dd565b8473ffffffffffffffffffffffffffffffffffffffff166366cb8d2f856040518263ffffffff1660e01b8152600401611d479190612e57565b60206040518083038186803b158015611d5f57600080fd5b505afa158015611d73573d6000803e3d6000fd5b505050506040513d601f19601f82011682018060405250810190611d9791906128f3565b121590509392505050565b6000611dd1670de0b6b3a7640000611dc3848661224990919063ffffffff16565b6122b990919063ffffffff16565b905092915050565b600081805190602001209050919050565b600080611e2d6000809054906101000a900473ffffffffffffffffffffffffffffffffffffffff1673ffffffffffffffffffffffffffffffffffffffff16612303565b73ffffffffffffffffffffffffffffffffffffffff1663e6d642c530856040518363ffffffff1660e01b8152600401611e67929190612ed2565b60206040518083038186803b158015611e7f57600080fd5b505afa158015611e93573d6000803e3d6000fd5b505050506040513d601f19601f82011682018060405250810190611eb7919061267d565b9050600073ffffffffffffffffffffffffffffffffffffffff168173ffffffffffffffffffffffffffffffffffffffff161415611f29576040517f08c379a0000000000000000000000000000000000000000000000000000000008152600401611f2090613081565b60405180910390fd5b80915050919050565b600080821215611f77576040517f08c379a0000000000000000000000000000000000000000000000000000000008152600401611f6e906130c1565b60405180910390fd5b819050919050565b600080611fa7611f988785611da290919063ffffffff16565b8661188990919063ffffffff16565b9050611fce86611fc0838761188990919063ffffffff16565b61239690919063ffffffff16565b915050949350505050565b6000611fe58484611c6e565b905080158015611ff55750600082115b156120795761200484846123cd565b612074578373ffffffffffffffffffffffffffffffffffffffff16634e353270846040518263ffffffff1660e01b81526004016120419190612e57565b600060405180830381600087803b15801561205b57600080fd5b505af115801561206f573d6000803e3d6000fd5b505050505b612107565b8080156120865750600082145b156121065761209584846123cd565b612105578373ffffffffffffffffffffffffffffffffffffffff16636f86c897846040518263ffffffff1660e01b81526004016120d29190612e57565b600060405180830381600087803b1580156120ec57600080fd5b505af1158015612100573d6000803e3d6000fd5b505050505b5b5b8373ffffffffffffffffffffffffffffffffffffffff16632ba57d178461212d856121dd565b6040518363ffffffff1660e01b815260040161214a929190612efb565b600060405180830381600087803b15801561216457600080fd5b505af1158015612178573d6000803e3d6000fd5b5050505050505050565b60008383111582906121ca576040517f08c379a00000000000000000000000000000000000000000000000000000000081526004016121c19190612fff565b60405180910390fd5b5060008385039050809150509392505050565b60007f80000000000000000000000000000000000000000000000000000000000000008210612241576040517f08c379a000000000000000000000000000000000000000000000000000000000815260040161223890613121565b60405180910390fd5b819050919050565b60008083141561225c57600090506122b3565b600082840290508284828161226d57fe5b04146122ae576040517f08c379a00000000000000000000000000000000000000000000000000000000081526004016122a5906130e1565b60405180910390fd5b809150505b92915050565b60006122fb83836040518060400160405280601a81526020017f536166654d6174683a206469766973696f6e206279207a65726f000000000000815250612468565b905092915050565b60008173ffffffffffffffffffffffffffffffffffffffff1663e765ced660006040518263ffffffff1660e01b815260040161233f91906131a1565b60206040518083038186803b15801561235757600080fd5b505afa15801561236b573d6000803e3d6000fd5b505050506040513d601f19601f8201168201806040525081019061238f919061267d565b9050919050565b60006123c5826123b7670de0b6b3a76400008661224990919063ffffffff16565b6122b990919063ffffffff16565b905092915050565b6000808373ffffffffffffffffffffffffffffffffffffffff1663a7bdad03846040518263ffffffff1660e01b81526004016124099190612e57565b60006040518083038186803b15801561242157600080fd5b505afa158015612435573d6000803e3d6000fd5b505050506040513d6000823e3d601f19601f8201168201806040525081019061245e919061270d565b5111905092915050565b600080831182906124af576040517f08c379a00000000000000000000000000000000000000000000000000000000081526004016124a69190612fff565b60405180910390fd5b5060008385816124bb57fe5b049050809150509392505050565b6000813590506124d8816133d0565b92915050565b6000815190506124ed816133d0565b92915050565b600082601f83011261250457600080fd5b815161251761251282613229565b6131fc565b9150818183526020840193506020810190508385602084028201111561253c57600080fd5b60005b8381101561256c578161255288826124de565b84526020840193506020830192505060018101905061253f565b5050505092915050565b600081519050612585816133e7565b92915050565b600082601f83011261259c57600080fd5b81516125af6125aa82613251565b6131fc565b915080825260208301602083018583830111156125cb57600080fd5b6125d683828461338c565b50505092915050565b6000813590506125ee816133fe565b92915050565b60008151905061260381613415565b92915050565b60008083601f84011261261b57600080fd5b8235905067ffffffffffffffff81111561263457600080fd5b60208301915083600182028301111561264c57600080fd5b9250929050565b6000813590506126628161342c565b92915050565b6000815190506126778161342c565b92915050565b60006020828403121561268f57600080fd5b600061269d848285016124de565b91505092915050565b6000806000606084860312156126bb57600080fd5b60006126c9868287016124de565b93505060206126da86828701612668565b925050604084015167ffffffffffffffff8111156126f757600080fd5b6127038682870161258b565b9150509250925092565b60006020828403121561271f57600080fd5b600082015167ffffffffffffffff81111561273957600080fd5b612745848285016124f3565b91505092915050565b60006020828403121561276057600080fd5b600061276e84828501612576565b91505092915050565b60006020828403121561278957600080fd5b600082015167ffffffffffffffff8111156127a357600080fd5b6127af8482850161258b565b91505092915050565b6000602082840312156127ca57600080fd5b60006127d8848285016125df565b91505092915050565b60008060008060008060a087890312156127fa57600080fd5b600061280889828a016125df565b965050602061281989828a016124c9565b955050604061282a89828a016124c9565b945050606061283b89828a01612653565b935050608087013567ffffffffffffffff81111561285857600080fd5b61286489828a01612609565b92509250509295509295509295565b60008060008060006080868803121561288b57600080fd5b6000612899888289016125df565b95505060206128aa888289016124c9565b94505060406128bb88828901612653565b935050606086013567ffffffffffffffff8111156128d857600080fd5b6128e488828901612609565b92509250509295509295909350565b60006020828403121561290557600080fd5b6000612913848285016125f4565b91505092915050565b60006020828403121561292e57600080fd5b600061293c84828501612668565b91505092915050565b61294e816132b5565b82525050565b61295d816132d3565b82525050565b600061296e8261327d565b6129788185613293565b935061298881856020860161338c565b612991816133bf565b840191505092915050565b6129a581613323565b82525050565b6129b481613347565b82525050565b6129c3816132ef565b82525050565b6129d28161336b565b82525050565b60006129e483856132a4565b93506129f183858461337d565b6129fa836133bf565b840190509392505050565b6000612a1082613288565b612a1a81856132a4565b9350612a2a81856020860161338c565b612a33816133bf565b840191505092915050565b6000612a4b6029836132a4565b91507f5461726765742064656661756c7420706f736974696f6e206d7573742062652060008301527f636f6d706f6e656e7400000000000000000000000000000000000000000000006020830152604082019050919050565b6000612ab16028836132a4565b91507f4d75737420626520612076616c696420616e6420696e697469616c697a65642060008301527f536574546f6b656e0000000000000000000000000000000000000000000000006020830152604082019050919050565b6000612b17601e836132a4565b91507f4d7573742062652070656e64696e6720696e697469616c697a6174696f6e00006000830152602082019050919050565b6000612b576015836132a4565b91507f4d7573742062652076616c6964206164617074657200000000000000000000006000830152602082019050919050565b6000612b976021836132a4565b91507f54617267657420706f736974696f6e20756e697473206d757374206265203e2060008301527f30000000000000000000000000000000000000000000000000000000000000006020830152604082019050919050565b6000612bfd6020836132a4565b91507f53616665436173743a2076616c7565206d75737420626520706f7369746976656000830152602082019050919050565b6000612c3d6021836132a4565b91507f536166654d6174683a206d756c7469706c69636174696f6e206f766572666c6f60008301527f77000000000000000000000000000000000000000000000000000000000000006020830152604082019050919050565b6000612ca36022836132a4565b91507f556e69742063616e742062652067726561746572207468616e2065786973746960008301527f6e670000000000000000000000000000000000000000000000000000000000006020830152604082019050919050565b6000612d096028836132a4565b91507f53616665436173743a2076616c756520646f65736e27742066697420696e206160008301527f6e20696e743235360000000000000000000000000000000000000000000000006020830152604082019050919050565b6000612d6f6023836132a4565b91507f4d75737420626520636f6e74726f6c6c65722d656e61626c656420536574546f60008301527f6b656e00000000000000000000000000000000000000000000000000000000006020830152604082019050919050565b6000612dd5601c836132a4565b91507f4d7573742062652074686520536574546f6b656e206d616e61676572000000006000830152602082019050919050565b6000612e15601f836132a4565b91507f5265656e7472616e637947756172643a207265656e7472616e742063616c6c006000830152602082019050919050565b612e5181613319565b82525050565b6000602082019050612e6c6000830184612945565b92915050565b6000604082019050612e876000830185612945565b612e946020830184612945565b9392505050565b6000606082019050612eb06000830186612945565b612ebd6020830185612945565b612eca6040830184612e48565b949350505050565b6000604082019050612ee76000830185612945565b612ef46020830184612954565b9392505050565b6000604082019050612f106000830185612945565b612f1d60208301846129ba565b9392505050565b6000606082019050612f396000830186612945565b612f4660208301856129c9565b8181036040830152612f588184612963565b9050949350505050565b6000604082019050612f776000830185612945565b612f846020830184612e48565b9392505050565b6000606082019050612fa06000830186612945565b612fad6020830185612e48565b8181036040830152612fbf8184612963565b9050949350505050565b6000602082019050612fde600083018461299c565b92915050565b6000602082019050612ff960008301846129ab565b92915050565b600060208201905081810360008301526130198184612a05565b905092915050565b6000602082019050818103600083015261303a81612a3e565b9050919050565b6000602082019050818103600083015261305a81612aa4565b9050919050565b6000602082019050818103600083015261307a81612b0a565b9050919050565b6000602082019050818103600083015261309a81612b4a565b9050919050565b600060208201905081810360008301526130ba81612b8a565b9050919050565b600060208201905081810360008301526130da81612bf0565b9050919050565b600060208201905081810360008301526130fa81612c30565b9050919050565b6000602082019050818103600083015261311a81612c96565b9050919050565b6000602082019050818103600083015261313a81612cfc565b9050919050565b6000602082019050818103600083015261315a81612d62565b9050919050565b6000602082019050818103600083015261317a81612dc8565b9050919050565b6000602082019050818103600083015261319a81612e08565b9050919050565b60006020820190506131b66000830184612e48565b92915050565b60006060820190506131d16000830187612e48565b6131de6020830186612e48565b81810360408301526131f18184866129d8565b905095945050505050565b6000604051905081810181811067ffffffffffffffff8211171561321f57600080fd5b8060405250919050565b600067ffffffffffffffff82111561324057600080fd5b602082029050602081019050919050565b600067ffffffffffffffff82111561326857600080fd5b601f19601f8301169050602081019050919050565b600081519050919050565b600081519050919050565b600082825260208201905092915050565b600082825260208201905092915050565b60006132c0826132f9565b9050919050565b60008115159050919050565b6000819050919050565b60006132e8826132b5565b9050919050565b6000819050919050565b600073ffffffffffffffffffffffffffffffffffffffff82169050919050565b6000819050919050565b600061332e82613335565b9050919050565b6000613340826132f9565b9050919050565b600061335282613359565b9050919050565b6000613364826132f9565b9050919050565b600061337682613319565b9050919050565b82818337600083830152505050565b60005b838110156133aa57808201518184015260208101905061338f565b838111156133b9576000848401525b50505050565b6000601f19601f8301169050919050565b6133d9816132b5565b81146133e457600080fd5b50565b6133f0816132c7565b81146133fb57600080fd5b50565b613407816132dd565b811461341257600080fd5b50565b61341e816132ef565b811461342957600080fd5b50565b61343581613319565b811461344057600080fd5b5056fea2646970667358221220cd729077fb4a9516bdd8ea2d1ba143b71a5687e636c94452af643ddb5edcec9f64736f6c634300060a0033",
  "immutableReferences": {},
  "source": "/*\n    Copyright 2020 Set Labs Inc.\n\n    Licensed under the Apache License, Version 2.0 (the \"License\");\n    you may not use this file except in compliance with the License.\n    You may obtain a copy of the License at\n\n    http://www.apache.org/licenses/LICENSE-2.0\n\n    Unless required by applicable law or agreed to in writing, software\n    distributed under the License is distributed on an \"AS IS\" BASIS,\n    WITHOUT WARRANTIES OR CONDITIONS OF ANY KIND, either express or implied.\n    See the License for the specific language governing permissions and\n    limitations under the License.\n\n    SPDX-License-Identifier: Apache License, Version 2.0\n*/\n\npragma solidity 0.6.10;\npragma experimental \"ABIEncoderV2\";\n\nimport { IERC20 } from \"@openzeppelin/contracts/token/ERC20/IERC20.sol\";\nimport { ReentrancyGuard } from \"@openzeppelin/contracts/utils/ReentrancyGuard.sol\";\nimport { SafeCast } from \"@openzeppelin/contracts/utils/SafeCast.sol\";\nimport { SafeMath } from \"@openzeppelin/contracts/math/SafeMath.sol\";\n\nimport { IController } from \"../../interfaces/IController.sol\";\nimport { IIntegrationRegistry } from \"../../interfaces/IIntegrationRegistry.sol\";\nimport { Invoke } from \"../lib/Invoke.sol\";\nimport { ISetToken } from \"../../interfaces/ISetToken.sol\";\nimport { IWETH } from \"../../interfaces/external/IWETH.sol\";\nimport { IWrapAdapter } from \"../../interfaces/IWrapAdapter.sol\";\nimport { ModuleBase } from \"../lib/ModuleBase.sol\";\nimport { Position } from \"../lib/Position.sol\";\nimport { PreciseUnitMath } from \"../../lib/PreciseUnitMath.sol\";\n\n/**\n * @title WrapModule\n * @author Set Protocol\n *\n * Module that enables the wrapping of ERC20 and Ether positions via third party protocols. The WrapModule\n * works in conjunction with WrapAdapters, in which the wrapAdapterID / integrationNames are stored on the\n * integration registry.\n *\n * Some examples of wrap actions include wrapping, DAI to cDAI (Compound) or Dai to aDai (AAVE).\n */\ncontract WrapModule is ModuleBase, ReentrancyGuard {\n    using SafeCast for int256;\n    using PreciseUnitMath for uint256;\n    using Position for uint256;\n    using SafeMath for uint256;\n\n    using Invoke for ISetToken;\n    using Position for ISetToken.Position;\n    using Position for ISetToken;\n\n    /* ============ Events ============ */\n\n    event ComponentWrapped(\n        ISetToken indexed _setToken,\n        address indexed _underlyingToken,\n        address indexed _wrappedToken,\n        uint256 _underlyingQuantity,\n        uint256 _wrappedQuantity,\n        string _integrationName\n    );\n\n    event ComponentUnwrapped(\n        ISetToken indexed _setToken,\n        address indexed _underlyingToken,\n        address indexed _wrappedToken,\n        uint256 _underlyingQuantity,\n        uint256 _wrappedQuantity,\n        string _integrationName\n    );\n\n    /* ============ State Variables ============ */\n\n    // Wrapped ETH address\n    IWETH public weth;\n\n    /* ============ Constructor ============ */\n\n    /**\n     * @param _controller               Address of controller contract\n     * @param _weth                     Address of wrapped eth\n     */\n    constructor(IController _controller, IWETH _weth) public ModuleBase(_controller) {\n        weth = _weth;\n    }\n\n    /* ============ External Functions ============ */\n    \n    /**\n     * MANAGER-ONLY: Instructs the SetToken to wrap an underlying asset into a wrappedToken via a specified adapter.\n     *\n     * @param _setToken             Instance of the SetToken\n     * @param _underlyingToken      Address of the component to be wrapped\n     * @param _wrappedToken         Address of the desired wrapped token\n     * @param _underlyingUnits      Quantity of underlying units in Position units\n     * @param _integrationName      Name of wrap module integration (mapping on integration registry)\n     */\n    function wrap(\n        ISetToken _setToken,\n        address _underlyingToken,\n        address _wrappedToken,\n        uint256 _underlyingUnits,\n        string calldata _integrationName\n    ) \n        external\n        nonReentrant\n        onlyManagerAndValidSet(_setToken)\n    {\n        (\n            uint256 notionalUnderlyingWrapped,\n            uint256 notionalWrapped\n        ) = _validateWrapAndUpdate(\n            _integrationName,\n            _setToken,\n            _underlyingToken,\n            _wrappedToken,\n            _underlyingUnits,\n            false // does not use Ether\n        );\n\n        emit ComponentWrapped(\n            _setToken,\n            _underlyingToken,\n            _wrappedToken,\n            notionalUnderlyingWrapped,\n            notionalWrapped,\n            _integrationName\n        );\n    }\n\n    /**\n     * MANAGER-ONLY: Instructs the SetToken to wrap Ether into a wrappedToken via a specified adapter. Since SetTokens\n     * only hold WETH, in order to support protocols that collateralize with Ether the SetToken's WETH must be unwrapped\n     * first before sending to the external protocol.\n     *\n     * @param _setToken             Instance of the SetToken\n     * @param _wrappedToken         Address of the desired wrapped token\n     * @param _underlyingUnits      Quantity of underlying units in Position units\n     * @param _integrationName      Name of wrap module integration (mapping on integration registry)\n     */\n    function wrapWithEther(\n        ISetToken _setToken,\n        address _wrappedToken,\n        uint256 _underlyingUnits,\n        string calldata _integrationName\n    ) \n        external\n        nonReentrant\n        onlyManagerAndValidSet(_setToken)\n    {\n        (\n            uint256 notionalUnderlyingWrapped,\n            uint256 notionalWrapped\n        ) = _validateWrapAndUpdate(\n            _integrationName,\n            _setToken,\n            address(weth),\n            _wrappedToken,\n            _underlyingUnits,\n            true // uses Ether\n        );\n\n        emit ComponentWrapped(\n            _setToken,\n            address(weth),\n            _wrappedToken,\n            notionalUnderlyingWrapped,\n            notionalWrapped,\n            _integrationName\n        );\n    }\n\n    /**\n     * MANAGER-ONLY: Instructs the SetToken to unwrap a wrapped asset into its underlying via a specified adapter.\n     *\n     * @param _setToken             Instance of the SetToken\n     * @param _underlyingToken      Address of the underlying asset\n     * @param _wrappedToken         Address of the component to be unwrapped\n     * @param _wrappedUnits         Quantity of wrapped tokens in Position units\n     * @param _integrationName      ID of wrap module integration (mapping on integration registry)\n     */\n    function unwrap(\n        ISetToken _setToken,\n        address _underlyingToken,\n        address _wrappedToken,\n        uint256 _wrappedUnits,\n        string calldata _integrationName\n    )\n        external\n        nonReentrant\n        onlyManagerAndValidSet(_setToken)\n    {\n        (\n            uint256 notionalUnderlyingUnwrapped,\n            uint256 notionalUnwrapped\n        ) = _validateUnwrapAndUpdate(\n            _integrationName,\n            _setToken,\n            _underlyingToken,\n            _wrappedToken,\n            _wrappedUnits,\n            false // uses Ether\n        );\n\n        emit ComponentUnwrapped(\n            _setToken,\n            _underlyingToken,\n            _wrappedToken,\n            notionalUnderlyingUnwrapped,\n            notionalUnwrapped,\n            _integrationName\n        );\n    }\n\n    /**\n     * MANAGER-ONLY: Instructs the SetToken to unwrap a wrapped asset collateralized by Ether into Wrapped Ether. Since\n     * external protocol will send back Ether that Ether must be Wrapped into WETH in order to be accounted for by SetToken.\n     *\n     * @param _setToken                 Instance of the SetToken\n     * @param _wrappedToken             Address of the component to be unwrapped\n     * @param _wrappedUnits             Quantity of wrapped tokens in Position units\n     * @param _integrationName          ID of wrap module integration (mapping on integration registry)\n     */\n    function unwrapWithEther(\n        ISetToken _setToken,\n        address _wrappedToken,\n        uint256 _wrappedUnits,\n        string calldata _integrationName\n    )\n        external\n        nonReentrant\n        onlyManagerAndValidSet(_setToken)\n    {\n        (\n            uint256 notionalUnderlyingUnwrapped,\n            uint256 notionalUnwrapped\n        ) = _validateUnwrapAndUpdate(\n            _integrationName,\n            _setToken,\n            address(weth),\n            _wrappedToken,\n            _wrappedUnits,\n            true // uses Ether\n        );\n\n        emit ComponentUnwrapped(\n            _setToken,\n            address(weth),\n            _wrappedToken,\n            notionalUnderlyingUnwrapped,\n            notionalUnwrapped,\n            _integrationName\n        );\n    }\n\n    /**\n     * Initializes this module to the SetToken. Only callable by the SetToken's manager.\n     *\n     * @param _setToken             Instance of the SetToken to issue\n     */\n    function initialize(ISetToken _setToken) external onlySetManager(_setToken, msg.sender) {\n        require(controller.isSet(address(_setToken)), \"Must be controller-enabled SetToken\");\n        require(isSetPendingInitialization(_setToken), \"Must be pending initialization\");\n        _setToken.initializeModule();\n    }\n\n    /**\n     * Removes this module from the SetToken, via call by the SetToken.\n     */\n    function removeModule() external override {}\n\n\n    /* ============ Internal Functions ============ */\n\n    /**\n     * Validates the wrap operation is valid. In particular, the following checks are made:\n     * - The position is Default\n     * - The position has sufficient units given the transact quantity\n     * - The transact quantity > 0\n     *\n     * It is expected that the adapter will check if wrappedToken/underlyingToken are a valid pair for the given\n     * integration.\n     */\n    function _validateInputs(\n        ISetToken _setToken,\n        address _transactPosition,\n        uint256 _transactPositionUnits\n    ) \n        internal\n        view\n    {\n        require(_transactPositionUnits > 0, \"Target position units must be > 0\");\n        require(_setToken.hasDefaultPosition(_transactPosition), \"Target default position must be component\");\n        require(\n            _setToken.hasSufficientDefaultUnits(_transactPosition, _transactPositionUnits),\n            \"Unit cant be greater than existing\"\n        );\n    }\n\n    /**\n     * The WrapModule calculates the total notional underlying to wrap, approves the underlying to the 3rd party \n     * integration contract, then invokes the SetToken to call wrap by passing its calldata along. When raw ETH\n     * is being used (_usesEther = true) WETH position must first be unwrapped and underlyingAddress sent to \n     * adapter must be external protocol's ETH representative address.\n     *\n     * Returns notional amount of underlying tokens and wrapped tokens that were wrapped.\n     */\n    function _validateWrapAndUpdate(\n        string calldata _integrationName,\n        ISetToken _setToken,\n        address _underlyingToken,\n        address _wrappedToken,\n        uint256 _underlyingUnits,\n        bool _usesEther\n    ) \n        internal\n        returns (uint256, uint256)\n    {\n        _validateInputs(_setToken, _underlyingToken, _underlyingUnits);\n\n        // Snapshot pre wrap balances\n        (\n            uint256 preActionUnderlyingNotional,\n            uint256 preActionWrapNotional\n        ) = _snapshotTargetAssetsBalance(_setToken, _underlyingToken, _wrappedToken);\n\n        uint256 notionalUnderlying = _setToken.totalSupply().getDefaultTotalNotional(_underlyingUnits);\n        IWrapAdapter wrapAdapter = IWrapAdapter(getAndValidateAdapter(_integrationName));\n\n        // Execute any pre-wrap actions depending on if using raw ETH or not\n        if (_usesEther) {\n            _setToken.invokeUnwrapWETH(address(weth), notionalUnderlying);\n        } else {\n            address spender = wrapAdapter.getSpenderAddress(_underlyingToken, _wrappedToken);\n\n            _setToken.invokeApprove(_underlyingToken, spender, notionalUnderlying);\n        }\n\n        // Get function call data and invoke on SetToken\n        _createWrapDataAndInvoke(\n            _setToken,\n            wrapAdapter,\n            _usesEther ? wrapAdapter.ETH_TOKEN_ADDRESS() : _underlyingToken,\n            _wrappedToken,\n            notionalUnderlying\n        );\n\n        // Snapshot post wrap balances\n        (\n            uint256 postActionUnderlyingNotional,\n            uint256 postActionWrapNotional\n        ) = _snapshotTargetAssetsBalance(_setToken, _underlyingToken, _wrappedToken);\n\n        _updatePosition(_setToken, _underlyingToken, preActionUnderlyingNotional, postActionUnderlyingNotional);\n        _updatePosition(_setToken, _wrappedToken, preActionWrapNotional, postActionWrapNotional);\n\n        return (\n            preActionUnderlyingNotional.sub(postActionUnderlyingNotional),\n            postActionWrapNotional.sub(preActionWrapNotional)\n        );\n    }\n\n    /**\n     * The WrapModule calculates the total notional wrap token to unwrap, then invokes the SetToken to call\n     * unwrap by passing its calldata along. When raw ETH is being used (_usesEther = true) underlyingAddress\n     * sent to adapter must be set to external protocol's ETH representative address and ETH returned from\n     * external protocol is wrapped.\n     *\n     * Returns notional amount of underlying tokens and wrapped tokens unwrapped.\n     */\n    function _validateUnwrapAndUpdate(\n        string calldata _integrationName,\n        ISetToken _setToken,\n        address _underlyingToken,\n        address _wrappedToken,\n        uint256 _wrappedTokenUnits,\n        bool _usesEther\n    )\n        internal\n        returns (uint256, uint256)\n    {\n        _validateInputs(_setToken, _wrappedToken, _wrappedTokenUnits);\n\n        (\n            uint256 preActionUnderlyingNotional,\n            uint256 preActionWrapNotional\n        ) = _snapshotTargetAssetsBalance(_setToken, _underlyingToken, _wrappedToken);\n\n        uint256 notionalWrappedToken = _setToken.totalSupply().getDefaultTotalNotional(_wrappedTokenUnits);\n        IWrapAdapter wrapAdapter = IWrapAdapter(getAndValidateAdapter(_integrationName));\n\n        // Get function call data and invoke on SetToken\n        _createUnwrapDataAndInvoke(\n            _setToken,\n            wrapAdapter,\n            _usesEther ? wrapAdapter.ETH_TOKEN_ADDRESS() : _underlyingToken,\n            _wrappedToken,\n            notionalWrappedToken\n        );\n\n        if (_usesEther) {\n            _setToken.invokeWrapWETH(address(weth), address(_setToken).balance);\n        }\n\n        (\n            uint256 postActionUnderlyingNotional,\n            uint256 postActionWrapNotional\n        ) = _snapshotTargetAssetsBalance(_setToken, _underlyingToken, _wrappedToken);\n\n        _updatePosition(_setToken, _underlyingToken, preActionUnderlyingNotional, postActionUnderlyingNotional);\n        _updatePosition(_setToken, _wrappedToken, preActionWrapNotional, postActionWrapNotional);\n\n        return (\n            postActionUnderlyingNotional.sub(preActionUnderlyingNotional),\n            preActionWrapNotional.sub(postActionWrapNotional)\n        );\n    }\n\n    /**\n     * Create the calldata for wrap and then invoke the call on the SetToken.\n     */\n    function _createWrapDataAndInvoke(\n        ISetToken _setToken,\n        IWrapAdapter _wrapAdapter,\n        address _underlyingToken,\n        address _wrappedToken,\n        uint256 _notionalUnderlying\n    ) internal {\n        (\n            address callTarget,\n            uint256 callValue,\n            bytes memory callByteData\n        ) = _wrapAdapter.getWrapCallData(\n            _underlyingToken,\n            _wrappedToken,\n            _notionalUnderlying\n        );\n\n        _setToken.invoke(callTarget, callValue, callByteData);\n    }\n\n    /**\n     * Create the calldata for unwrap and then invoke the call on the SetToken.\n     */\n    function _createUnwrapDataAndInvoke(\n        ISetToken _setToken,\n        IWrapAdapter _wrapAdapter,\n        address _underlyingToken,\n        address _wrappedToken,\n        uint256 _notionalUnderlying\n    ) internal {\n        (\n            address callTarget,\n            uint256 callValue,\n            bytes memory callByteData\n        ) = _wrapAdapter.getUnwrapCallData(\n            _underlyingToken,\n            _wrappedToken,\n            _notionalUnderlying\n        );\n\n        _setToken.invoke(callTarget, callValue, callByteData);\n    }\n\n    /**\n     * After a wrap/unwrap operation, check the underlying and wrap token quantities and recalculate\n     * the units ((total tokens - airdrop)/ total supply). Then update the position on the SetToken.\n     */\n    function _updatePosition(\n        ISetToken _setToken,\n        address _token,\n        uint256 _preActionTokenBalance,\n        uint256 _postActionTokenBalance\n    ) internal {\n        uint256 newUnit = _setToken.totalSupply().calculateDefaultEditPositionUnit(\n            _preActionTokenBalance,\n            _postActionTokenBalance,\n            _setToken.getDefaultPositionRealUnit(_token).toUint256()\n        );\n\n        _setToken.editDefaultPosition(_token, newUnit);\n    }\n\n    /**\n     * Take snapshot of SetToken's balance of underlying and wrapped tokens.\n     */\n    function _snapshotTargetAssetsBalance(\n        ISetToken _setToken,\n        address _underlyingToken,\n        address _wrappedToken\n    ) internal view returns(uint256, uint256) {\n        uint256 underlyingTokenBalance = IERC20(_underlyingToken).balanceOf(address(_setToken));\n        uint256 wrapTokenBalance = IERC20(_wrappedToken).balanceOf(address(_setToken));\n\n        return (\n            underlyingTokenBalance,\n            wrapTokenBalance            \n        );\n    }\n}",
  "sourcePath": "/Users/tahadhailey/Documents/top5/top5swap/swap/contracts/protocol/modules/WrapModule.sol",
  "compiler": {
    "name": "solc",
    "version": "0.6.10+commit.00c0fcaf.Emscripten.clang"
  },
  "schemaVersion": "3.2.1",
  "updatedAt": "2021-01-21T08:20:37.845Z",
  "devdoc": {
    "author": "Set Protocol Module that enables the wrapping of ERC20 and Ether positions via third party protocols. The WrapModule works in conjunction with WrapAdapters, in which the wrapAdapterID / integrationNames are stored on the integration registry. Some examples of wrap actions include wrapping, DAI to cDAI (Compound) or Dai to aDai (AAVE).",
    "methods": {
      "constructor": {
        "params": {
          "_controller": "Address of controller contract",
          "_weth": "Address of wrapped eth"
        }
      },
      "initialize(address)": {
        "params": {
          "_setToken": "Instance of the SetToken to issue"
        }
      },
      "unwrap(address,address,address,uint256,string)": {
        "params": {
          "_integrationName": "ID of wrap module integration (mapping on integration registry)",
          "_setToken": "Instance of the SetToken",
          "_underlyingToken": "Address of the underlying asset",
          "_wrappedToken": "Address of the component to be unwrapped",
          "_wrappedUnits": "Quantity of wrapped tokens in Position units"
        }
      },
      "unwrapWithEther(address,address,uint256,string)": {
        "params": {
          "_integrationName": "ID of wrap module integration (mapping on integration registry)",
          "_setToken": "Instance of the SetToken",
          "_wrappedToken": "Address of the component to be unwrapped",
          "_wrappedUnits": "Quantity of wrapped tokens in Position units"
        }
      },
      "wrap(address,address,address,uint256,string)": {
        "params": {
          "_integrationName": "Name of wrap module integration (mapping on integration registry)",
          "_setToken": "Instance of the SetToken",
          "_underlyingToken": "Address of the component to be wrapped",
          "_underlyingUnits": "Quantity of underlying units in Position units",
          "_wrappedToken": "Address of the desired wrapped token"
        }
      },
      "wrapWithEther(address,address,uint256,string)": {
        "params": {
          "_integrationName": "Name of wrap module integration (mapping on integration registry)",
          "_setToken": "Instance of the SetToken",
          "_underlyingUnits": "Quantity of underlying units in Position units",
          "_wrappedToken": "Address of the desired wrapped token"
        }
      }
    },
    "title": "WrapModule"
  },
  "userdoc": {
    "methods": {
      "initialize(address)": {
        "notice": "Initializes this module to the SetToken. Only callable by the SetToken's manager."
      },
      "removeModule()": {
        "notice": "Removes this module from the SetToken, via call by the SetToken."
      },
      "unwrap(address,address,address,uint256,string)": {
        "notice": "MANAGER-ONLY: Instructs the SetToken to unwrap a wrapped asset into its underlying via a specified adapter."
      },
      "unwrapWithEther(address,address,uint256,string)": {
        "notice": "MANAGER-ONLY: Instructs the SetToken to unwrap a wrapped asset collateralized by Ether into Wrapped Ether. Since external protocol will send back Ether that Ether must be Wrapped into WETH in order to be accounted for by SetToken."
      },
      "wrap(address,address,address,uint256,string)": {
        "notice": "MANAGER-ONLY: Instructs the SetToken to wrap an underlying asset into a wrappedToken via a specified adapter."
      },
      "wrapWithEther(address,address,uint256,string)": {
        "notice": "MANAGER-ONLY: Instructs the SetToken to wrap Ether into a wrappedToken via a specified adapter. Since SetTokens only hold WETH, in order to support protocols that collateralize with Ether the SetToken's WETH must be unwrapped first before sending to the external protocol."
      }
    }
  }
}